{
  "contractName": "Attack",
  "abi": [
    {
      "inputs": [],
      "stateMutability": "nonpayable",
      "type": "constructor"
    },
    {
      "inputs": [],
      "name": "owner",
      "outputs": [
        {
          "internalType": "address",
          "name": "",
          "type": "address"
        }
      ],
      "stateMutability": "view",
      "type": "function",
      "constant": true
    },
    {
      "inputs": [],
      "name": "attack",
      "outputs": [],
      "stateMutability": "nonpayable",
      "type": "function"
    }
  ],
  "bytecode": "0x608060405234801561001057600080fd5b50336000806101000a81548173ffffffffffffffffffffffffffffffffffffffff021916908373ffffffffffffffffffffffffffffffffffffffff16021790555061026a806100606000396000f3fe608060405234801561001057600080fd5b50600436106100365760003560e01c80638da5cb5b1461003b5780639e5faafc14610059575b600080fd5b610043610063565b60405161005091906101a3565b60405180910390f35b610061610087565b005b60008054906101000a900473ffffffffffffffffffffffffffffffffffffffff1681565b600160009054906101000a900473ffffffffffffffffffffffffffffffffffffffff1673ffffffffffffffffffffffffffffffffffffffff166326541b566040518163ffffffff1660e01b81526004016100e0906101be565b600060405180830381600087803b1580156100fa57600080fd5b505af115801561010e573d6000803e3d6000fd5b50505050565b61011d81610202565b82525050565b60006101306002836101f1565b91507f4d4a0000000000000000000000000000000000000000000000000000000000006000830152602082019050919050565b60006101706003836101f1565b91507f57464300000000000000000000000000000000000000000000000000000000006000830152602082019050919050565b60006020820190506101b86000830184610114565b92915050565b600060408201905081810360008301526101d781610123565b905081810360208301526101ea81610163565b9050919050565b600082825260208201905092915050565b600061020d82610214565b9050919050565b600073ffffffffffffffffffffffffffffffffffffffff8216905091905056fea26469706673582212203b8b4acc02d8f5b151cddbfcb6b120452293710919075b326e8c4fb918d6534f64736f6c63430008000033",
  "immutableReferences": {},
  "source": "// SPDX-License-Identifier: MIT \r\npragma solidity  ^0.8.0;\r\nimport \"./Election.sol\";\r\n\r\ncontract Attack {\r\n    address public owner;\r\n    Election election;\r\n\r\n    constructor() {\r\n        owner = msg.sender;\r\n    }\r\n    \r\n    function attack() public {\r\n        election.addCandidate(\"MJ\", \"WFC\") ;\r\n    }\r\n}",
  "sourcePath": "C:\\Users\\Student\\Downloads\\BEV-cryptography\\Code\\contracts\\Attack.sol",
  "compiler": {
    "name": "solc",
    "version": "0.8.0+commit.c7dfd78e.Emscripten.clang"
  },
  "schemaVersion": "3.4.16",
  "updatedAt": "2023-10-18T14:55:55.124Z",
  "networkType": "ethereum",
  "devdoc": {
    "kind": "dev",
    "methods": {},
    "version": 1
  },
  "userdoc": {
    "kind": "user",
    "methods": {},
    "version": 1
  }
}