{
  "contractName": "Election",
  "abi": [
    {
      "inputs": [],
      "stateMutability": "nonpayable",
      "type": "constructor"
    },
    {
      "inputs": [
        {
          "internalType": "uint256",
          "name": "",
          "type": "uint256"
        }
      ],
      "name": "candidates",
      "outputs": [
        {
          "internalType": "uint256",
          "name": "id",
          "type": "uint256"
        },
        {
          "internalType": "string",
          "name": "name",
          "type": "string"
        },
        {
          "internalType": "string",
          "name": "party",
          "type": "string"
        },
        {
          "internalType": "uint256",
          "name": "voteCount",
          "type": "uint256"
        }
      ],
      "stateMutability": "view",
      "type": "function",
      "constant": true
    },
    {
      "inputs": [],
      "name": "candidatesCount",
      "outputs": [
        {
          "internalType": "uint256",
          "name": "",
          "type": "uint256"
        }
      ],
      "stateMutability": "view",
      "type": "function",
      "constant": true
    },
    {
      "inputs": [],
      "name": "numVotes",
      "outputs": [
        {
          "internalType": "uint256",
          "name": "",
          "type": "uint256"
        }
      ],
      "stateMutability": "view",
      "type": "function",
      "constant": true
    },
    {
      "inputs": [],
      "name": "phase",
      "outputs": [
        {
          "internalType": "string",
          "name": "",
          "type": "string"
        }
      ],
      "stateMutability": "view",
      "type": "function",
      "constant": true
    },
    {
      "inputs": [],
      "name": "votersCount",
      "outputs": [
        {
          "internalType": "uint256",
          "name": "",
          "type": "uint256"
        }
      ],
      "stateMutability": "view",
      "type": "function",
      "constant": true
    },
    {
      "inputs": [
        {
          "internalType": "uint256",
          "name": "",
          "type": "uint256"
        }
      ],
      "name": "votingTrails",
      "outputs": [
        {
          "internalType": "string",
          "name": "ref",
          "type": "string"
        },
        {
          "internalType": "string",
          "name": "voteDate",
          "type": "string"
        },
        {
          "internalType": "string",
          "name": "voteTime",
          "type": "string"
        },
        {
          "internalType": "bool",
          "name": "isVerified",
          "type": "bool"
        }
      ],
      "stateMutability": "view",
      "type": "function",
      "constant": true
    },
    {
      "inputs": [
        {
          "internalType": "string",
          "name": "_name",
          "type": "string"
        },
        {
          "internalType": "string",
          "name": "_party",
          "type": "string"
        }
      ],
      "name": "addCandidate",
      "outputs": [],
      "stateMutability": "nonpayable",
      "type": "function"
    },
    {
      "inputs": [
        {
          "internalType": "string",
          "name": "_personal_id",
          "type": "string"
        },
        {
          "internalType": "string",
          "name": "_email",
          "type": "string"
        },
        {
          "internalType": "string",
          "name": "_name",
          "type": "string"
        },
        {
          "internalType": "string",
          "name": "_surname",
          "type": "string"
        },
        {
          "internalType": "string",
          "name": "_ref",
          "type": "string"
        }
      ],
      "name": "addVoter",
      "outputs": [],
      "stateMutability": "nonpayable",
      "type": "function"
    },
    {
      "inputs": [],
      "name": "getVoter",
      "outputs": [
        {
          "internalType": "string",
          "name": "",
          "type": "string"
        },
        {
          "internalType": "string",
          "name": "",
          "type": "string"
        },
        {
          "internalType": "string",
          "name": "",
          "type": "string"
        },
        {
          "internalType": "string",
          "name": "",
          "type": "string"
        },
        {
          "internalType": "bool",
          "name": "",
          "type": "bool"
        },
        {
          "internalType": "bool",
          "name": "",
          "type": "bool"
        },
        {
          "internalType": "bool",
          "name": "",
          "type": "bool"
        }
      ],
      "stateMutability": "view",
      "type": "function",
      "constant": true
    },
    {
      "inputs": [],
      "name": "isVoter_Registered",
      "outputs": [
        {
          "internalType": "bool",
          "name": "",
          "type": "bool"
        }
      ],
      "stateMutability": "view",
      "type": "function",
      "constant": true
    },
    {
      "inputs": [],
      "name": "random",
      "outputs": [
        {
          "internalType": "uint256",
          "name": "",
          "type": "uint256"
        }
      ],
      "stateMutability": "view",
      "type": "function",
      "constant": true
    },
    {
      "inputs": [],
      "name": "has_Voted",
      "outputs": [
        {
          "internalType": "bool",
          "name": "",
          "type": "bool"
        }
      ],
      "stateMutability": "view",
      "type": "function",
      "constant": true
    },
    {
      "inputs": [
        {
          "internalType": "uint256",
          "name": "_candidateId",
          "type": "uint256"
        },
        {
          "internalType": "string",
          "name": "_date",
          "type": "string"
        },
        {
          "internalType": "string",
          "name": "_time",
          "type": "string"
        }
      ],
      "name": "vote",
      "outputs": [],
      "stateMutability": "nonpayable",
      "type": "function"
    },
    {
      "inputs": [],
      "name": "copyKeys",
      "outputs": [
        {
          "internalType": "string",
          "name": "",
          "type": "string"
        },
        {
          "internalType": "string",
          "name": "",
          "type": "string"
        }
      ],
      "stateMutability": "view",
      "type": "function",
      "constant": true
    },
    {
      "inputs": [
        {
          "internalType": "uint256",
          "name": "_key1",
          "type": "uint256"
        },
        {
          "internalType": "uint256",
          "name": "_key2",
          "type": "uint256"
        }
      ],
      "name": "verifyVote",
      "outputs": [],
      "stateMutability": "nonpayable",
      "type": "function"
    },
    {
      "inputs": [],
      "name": "startElection",
      "outputs": [],
      "stateMutability": "nonpayable",
      "type": "function"
    },
    {
      "inputs": [],
      "name": "changePhase",
      "outputs": [],
      "stateMutability": "nonpayable",
      "type": "function"
    },
    {
      "inputs": [
        {
          "internalType": "string",
          "name": "text",
          "type": "string"
        }
      ],
      "name": "keccak256_encrypt",
      "outputs": [
        {
          "internalType": "bytes32",
          "name": "",
          "type": "bytes32"
        }
      ],
      "stateMutability": "pure",
      "type": "function",
      "constant": true
    },
    {
      "inputs": [],
      "name": "getWinner",
      "outputs": [
        {
          "internalType": "string",
          "name": "",
          "type": "string"
        }
      ],
      "stateMutability": "view",
      "type": "function",
      "constant": true
    },
    {
      "inputs": [
        {
          "internalType": "string",
          "name": "_message",
          "type": "string"
        },
        {
          "internalType": "bytes",
          "name": "_sig",
          "type": "bytes"
        }
      ],
      "name": "verify",
      "outputs": [
        {
          "internalType": "bool",
          "name": "",
          "type": "bool"
        }
      ],
      "stateMutability": "view",
      "type": "function",
      "constant": true
    },
    {
      "inputs": [
        {
          "internalType": "string",
          "name": "sms",
          "type": "string"
        }
      ],
      "name": "getHash",
      "outputs": [
        {
          "internalType": "bytes32",
          "name": "",
          "type": "bytes32"
        }
      ],
      "stateMutability": "pure",
      "type": "function",
      "constant": true
    },
    {
      "inputs": [
        {
          "internalType": "bytes32",
          "name": "sms",
          "type": "bytes32"
        }
      ],
      "name": "getEthSignedHash",
      "outputs": [
        {
          "internalType": "bytes32",
          "name": "",
          "type": "bytes32"
        }
      ],
      "stateMutability": "pure",
      "type": "function",
      "constant": true
    },
    {
      "inputs": [
        {
          "internalType": "bytes32",
          "name": "_ethSignedMessageHash",
          "type": "bytes32"
        },
        {
          "internalType": "bytes",
          "name": "_sig",
          "type": "bytes"
        }
      ],
      "name": "recover",
      "outputs": [
        {
          "internalType": "address",
          "name": "",
          "type": "address"
        }
      ],
      "stateMutability": "pure",
      "type": "function",
      "constant": true
    }
  ],
  "bytecode": "0x60806040526002600755600260085560405180606001604052806040518060400160405280600c81526020017f726567697374726174696f6e000000000000000000000000000000000000000081525081526020016040518060400160405280600681526020017f766f74696e67000000000000000000000000000000000000000000000000000081525081526020016040518060400160405280600781526020017f726573756c747300000000000000000000000000000000000000000000000000815250815250600b906003620000da9291906200017e565b50348015620000e857600080fd5b5033600f60006101000a81548173ffffffffffffffffffffffffffffffffffffffff021916908373ffffffffffffffffffffffffffffffffffffffff1602179055506040518060400160405280601881526020017f456c656374696f6e20686173206e6f74207374617274656400000000000000008152506006908051906020019062000177929190620001d8565b506200035b565b8260038101928215620001c5579160200282015b82811115620001c4578251829080519060200190620001b3929190620001d8565b509160200191906001019062000192565b5b509050620001d4919062000269565b5090565b828054620001e690620002f6565b90600052602060002090601f0160209004810192826200020a576000855562000256565b82601f106200022557805160ff191683800117855562000256565b8280016001018555821562000256579182015b828111156200025557825182559160200191906001019062000238565b5b50905062000265919062000291565b5090565b5b808211156200028d5760008181620002839190620002b0565b506001016200026a565b5090565b5b80821115620002ac57600081600090555060010162000292565b5090565b508054620002be90620002f6565b6000825580601f10620002d25750620002f3565b601f016020900490600052602060002090810190620002f2919062000291565b5b50565b600060028204905060018216806200030f57607f821691505b602082108114156200032657620003256200032c565b5b50919050565b7f4e487b7100000000000000000000000000000000000000000000000000000000600052602260045260246000fd5b61533b806200036b6000396000f3fe608060405234801561001057600080fd5b506004361061014d5760003560e01c806362d73eb8116100c3578063b1c9fe6e1161007c578063b1c9fe6e146103ab578063d0a6a870146103c9578063d25773b7146103e8578063db6f595314610406578063e3c0327d14610410578063f731d0e9146104435761014d565b806362d73eb81461030d5780638e7ea5b21461031757806398b8b43d1461033557806398c0793814610353578063a3bef4d714610371578063b10847591461038f5761014d565b80632f4ea5ea116101155780632f4ea5ea146101fc5780633477ee2e1461022c5780633d9ffad51461025f5780633fee76dc1461028f5780635b6beeb9146102bf5780635ec01e4d146102ef5761014d565b806319045a2514610152578063216f6a6e1461018257806326541b561461019e5780632b37f53c146101ba5780632d35a8a2146101de575b600080fd5b61016c600480360381019061016791906141fb565b61045f565b6040516101799190614b10565b60405180910390f35b61019c600480360381019061019791906144ff565b6104ce565b005b6101b860048036038101906101b391906142fc565b610818565b005b6101c2610993565b6040516101d59796959493929190614c59565b60405180910390f35b6101e6610ddd565b6040516101f39190614ec4565b60405180910390f35b610216600480360381019061021191906141d2565b610de3565b6040516102239190614b46565b60405180910390f35b61024660048036038101906102419190614457565b610e13565b6040516102569493929190614edf565b60405180910390f35b61027960048036038101906102749190614290565b610f53565b6040516102869190614b2b565b60405180910390f35b6102a960048036038101906102a4919061424f565b610fd2565b6040516102b69190614b46565b60405180910390f35b6102d960048036038101906102d4919061424f565b611002565b6040516102e69190614b46565b60405180910390f35b6102f7611032565b6040516103049190614ec4565b60405180910390f35b610315611065565b005b61031f6111ab565b60405161032c9190614ba6565b60405180910390f35b61033d6112d0565b60405161034a9190614b2b565b60405180910390f35b61035b611327565b6040516103689190614ec4565b60405180910390f35b61037961132d565b6040516103869190614ec4565b60405180910390f35b6103a960048036038101906103a49190614480565b611333565b005b6103b3611723565b6040516103c09190614ba6565b60405180910390f35b6103d16117b1565b6040516103df929190614bc8565b60405180910390f35b6103f0611978565b6040516103fd9190614b2b565b60405180910390f35b61040e6119cf565b005b61042a60048036038101906104259190614457565b611c70565b60405161043a9493929190614bff565b60405180910390f35b61045d60048036038101906104589190614368565b611e45565b005b60008060008061046e856122d2565b925092509250600186828585604051600081526020016040526040516104979493929190614b61565b6020604051602081039080840390855afa1580156104b9573d6000803e3d6000fd5b50505060206040510351935050505092915050565b600160003373ffffffffffffffffffffffffffffffffffffffff1673ffffffffffffffffffffffffffffffffffffffff16815260200190815260200160002060060160009054906101000a900460ff1661055d576040517f08c379a000000000000000000000000000000000000000000000000000000000815260040161055490614ce4565b60405180910390fd5b600160003373ffffffffffffffffffffffffffffffffffffffff1673ffffffffffffffffffffffffffffffffffffffff16815260200190815260200160002060010160009054906101000a900460ff166105ec576040517f08c379a00000000000000000000000000000000000000000000000000000000081526004016105e390614d04565b60405180910390fd5b600160003373ffffffffffffffffffffffffffffffffffffffff1673ffffffffffffffffffffffffffffffffffffffff16815260200190815260200160002060080160009054906101000a900460ff161561067c576040517f08c379a000000000000000000000000000000000000000000000000000000000815260040161067390614e24565b60405180910390fd5b60008061072f600160003373ffffffffffffffffffffffffffffffffffffffff1673ffffffffffffffffffffffffffffffffffffffff168152602001908152602001600020600701547f79be667ef9dcbbac55a06295ce870b07029bfcdb2dce28d959f2815b16f817987f483ada7726a3c4655da4fbfc0e1108a8fd17b448a68554199c47d08ffb10d4b860007ffffffffffffffffffffffffffffffffffffffffffffffffffffffffefffffc2f61233a565b91509150838214801561074157508083145b1561081257600160026000600160003373ffffffffffffffffffffffffffffffffffffffff1673ffffffffffffffffffffffffffffffffffffffff16815260200190815260200160002060090154815260200190815260200160002060030160006101000a81548160ff02191690831515021790555060018060003373ffffffffffffffffffffffffffffffffffffffff1673ffffffffffffffffffffffffffffffffffffffff16815260200190815260200160002060080160006101000a81548160ff0219169083151502179055505b50505050565b600f60009054906101000a900473ffffffffffffffffffffffffffffffffffffffff1673ffffffffffffffffffffffffffffffffffffffff163373ffffffffffffffffffffffffffffffffffffffff16146108a8576040517f08c379a000000000000000000000000000000000000000000000000000000000815260040161089f90614e64565b60405180910390fd5b6000600e5411156108ee576040517f08c379a00000000000000000000000000000000000000000000000000000000081526004016108e590614da4565b60405180910390fd5b600560008154809291906109019061517c565b91905055506040518060800160405280600554815260200183815260200182815260200160008152506000806005548152602001908152602001600020600082015181600001556020820151816001019080519060200190610964929190613f86565b506040820151816002019080519060200190610981929190613f86565b50606082015181600301559050505050565b6060806060806000806000600160003373ffffffffffffffffffffffffffffffffffffffff1673ffffffffffffffffffffffffffffffffffffffff168152602001908152602001600020600301600160003373ffffffffffffffffffffffffffffffffffffffff1673ffffffffffffffffffffffffffffffffffffffff168152602001908152602001600020600401600160003373ffffffffffffffffffffffffffffffffffffffff1673ffffffffffffffffffffffffffffffffffffffff168152602001908152602001600020600201600160003373ffffffffffffffffffffffffffffffffffffffff1673ffffffffffffffffffffffffffffffffffffffff168152602001908152602001600020600501600160003373ffffffffffffffffffffffffffffffffffffffff1673ffffffffffffffffffffffffffffffffffffffff16815260200190815260200160002060060160009054906101000a900460ff16600160003373ffffffffffffffffffffffffffffffffffffffff1673ffffffffffffffffffffffffffffffffffffffff16815260200190815260200160002060010160009054906101000a900460ff16600160003373ffffffffffffffffffffffffffffffffffffffff1673ffffffffffffffffffffffffffffffffffffffff16815260200190815260200160002060080160009054906101000a900460ff16868054610ba29061514a565b80601f0160208091040260200160405190810160405280929190818152602001828054610bce9061514a565b8015610c1b5780601f10610bf057610100808354040283529160200191610c1b565b820191906000526020600020905b815481529060010190602001808311610bfe57829003601f168201915b50505050509650858054610c2e9061514a565b80601f0160208091040260200160405190810160405280929190818152602001828054610c5a9061514a565b8015610ca75780601f10610c7c57610100808354040283529160200191610ca7565b820191906000526020600020905b815481529060010190602001808311610c8a57829003601f168201915b50505050509550848054610cba9061514a565b80601f0160208091040260200160405190810160405280929190818152602001828054610ce69061514a565b8015610d335780601f10610d0857610100808354040283529160200191610d33565b820191906000526020600020905b815481529060010190602001808311610d1657829003601f168201915b50505050509450838054610d469061514a565b80601f0160208091040260200160405190810160405280929190818152602001828054610d729061514a565b8015610dbf5780601f10610d9457610100808354040283529160200191610dbf565b820191906000526020600020905b815481529060010190602001808311610da257829003601f168201915b50505050509350965096509650965096509650965090919293949596565b60055481565b600081604051602001610df69190614abe565b604051602081830303815290604052805190602001209050919050565b6000602052806000526040600020600091509050806000015490806001018054610e3c9061514a565b80601f0160208091040260200160405190810160405280929190818152602001828054610e689061514a565b8015610eb55780601f10610e8a57610100808354040283529160200191610eb5565b820191906000526020600020905b815481529060010190602001808311610e9857829003601f168201915b505050505090806002018054610eca9061514a565b80601f0160208091040260200160405190810160405280929190818152602001828054610ef69061514a565b8015610f435780601f10610f1857610100808354040283529160200191610f43565b820191906000526020600020905b815481529060010190602001808311610f2657829003601f168201915b5050505050908060030154905084565b600080610f5f84611002565b90506000610f6c82610de3565b9050600f60009054906101000a900473ffffffffffffffffffffffffffffffffffffffff1673ffffffffffffffffffffffffffffffffffffffff16610fb1828661045f565b73ffffffffffffffffffffffffffffffffffffffff16149250505092915050565b600081604051602001610fe59190614ba6565b604051602081830303815290604052805190602001209050919050565b6000816040516020016110159190614aa7565b604051602081830303815290604052805190602001209050919050565b60004233604051602001611047929190614ae4565b6040516020818303038152906040528051906020012060001c905090565b600f60009054906101000a900473ffffffffffffffffffffffffffffffffffffffff1673ffffffffffffffffffffffffffffffffffffffff163373ffffffffffffffffffffffffffffffffffffffff16146110f5576040517f08c379a00000000000000000000000000000000000000000000000000000000081526004016110ec90614e64565b60405180910390fd5b6001600e541415801561110b57506002600e5414155b61114a576040517f08c379a000000000000000000000000000000000000000000000000000000000815260040161114190614d84565b60405180910390fd5b6000600e81905550600b600e546003811061118e577f4e487b7100000000000000000000000000000000000000000000000000000000600052603260045260246000fd5b01600690805461119d9061514a565b6111a892919061400c565b50565b60606000600190506000806000600181526020019081526020016000206003015490506000600290505b600554811161122a5781600080838152602001908152602001600020600301541115611217578092506000808281526020019081526020016000206003015491505b80806112229061517c565b9150506111d5565b50600080838152602001908152602001600020600101805461124b9061514a565b80601f01602080910402602001604051908101604052809291908181526020018280546112779061514a565b80156112c45780601f10611299576101008083540402835291602001916112c4565b820191906000526020600020905b8154815290600101906020018083116112a757829003601f168201915b50505050509250505090565b6000600160003373ffffffffffffffffffffffffffffffffffffffff1673ffffffffffffffffffffffffffffffffffffffff16815260200190815260200160002060010160009054906101000a900460ff16905090565b60095481565b600a5481565b600160003373ffffffffffffffffffffffffffffffffffffffff1673ffffffffffffffffffffffffffffffffffffffff16815260200190815260200160002060060160009054906101000a900460ff166113c2576040517f08c379a00000000000000000000000000000000000000000000000000000000081526004016113b990614ce4565b60405180910390fd5b600160003373ffffffffffffffffffffffffffffffffffffffff1673ffffffffffffffffffffffffffffffffffffffff16815260200190815260200160002060010160009054906101000a900460ff1615611452576040517f08c379a000000000000000000000000000000000000000000000000000000000815260040161144990614d04565b60405180910390fd5b60008311801561146457506005548311155b61146d57600080fd5b60018060003373ffffffffffffffffffffffffffffffffffffffff1673ffffffffffffffffffffffffffffffffffffffff16815260200190815260200160002060010160006101000a81548160ff02191690831515021790555060008084815260200190815260200160002060030160008154809291906114ed9061517c565b91905055506114fa611032565b600160003373ffffffffffffffffffffffffffffffffffffffff1673ffffffffffffffffffffffffffffffffffffffff168152602001908152602001600020600701819055506040518060800160405280600160003373ffffffffffffffffffffffffffffffffffffffff1673ffffffffffffffffffffffffffffffffffffffff16815260200190815260200160002060050180546115989061514a565b80601f01602080910402602001604051908101604052809291908181526020018280546115c49061514a565b80156116115780601f106115e657610100808354040283529160200191611611565b820191906000526020600020905b8154815290600101906020018083116115f457829003601f168201915b505050505081526020018381526020018281526020016000151581525060026000600a548152602001908152602001600020600082015181600001908051906020019061165f929190613f86565b50602082015181600101908051906020019061167c929190613f86565b506040820151816002019080519060200190611699929190613f86565b5060608201518160030160006101000a81548160ff021916908315150217905550905050600a54600160003373ffffffffffffffffffffffffffffffffffffffff1673ffffffffffffffffffffffffffffffffffffffff16815260200190815260200160002060090181905550600a60008154809291906117199061517c565b9190505550505050565b600680546117309061514a565b80601f016020809104026020016040519081016040528092919081815260200182805461175c9061514a565b80156117a95780601f1061177e576101008083540402835291602001916117a9565b820191906000526020600020905b81548152906001019060200180831161178c57829003601f168201915b505050505081565b606080600080611867600160003373ffffffffffffffffffffffffffffffffffffffff1673ffffffffffffffffffffffffffffffffffffffff168152602001908152602001600020600701547f79be667ef9dcbbac55a06295ce870b07029bfcdb2dce28d959f2815b16f817987f483ada7726a3c4655da4fbfc0e1108a8fd17b448a68554199c47d08ffb10d4b860007ffffffffffffffffffffffffffffffffffffffffffffffffffffffffefffffc2f61233a565b915091505b61189b8282600060077ffffffffffffffffffffffffffffffffffffffffffffffffffffffffefffffc2f612374565b61195c5761194f600160003373ffffffffffffffffffffffffffffffffffffffff1673ffffffffffffffffffffffffffffffffffffffff168152602001908152602001600020600701547f79be667ef9dcbbac55a06295ce870b07029bfcdb2dce28d959f2815b16f817987f483ada7726a3c4655da4fbfc0e1108a8fd17b448a68554199c47d08ffb10d4b860007ffffffffffffffffffffffffffffffffffffffffffffffffffffffffefffffc2f61233a565b809250819350505061186c565b61196582612526565b61196e82612526565b9350935050509091565b6000600160003373ffffffffffffffffffffffffffffffffffffffff1673ffffffffffffffffffffffffffffffffffffffff16815260200190815260200160002060060160009054906101000a900460ff16905090565b600f60009054906101000a900473ffffffffffffffffffffffffffffffffffffffff1673ffffffffffffffffffffffffffffffffffffffff163373ffffffffffffffffffffffffffffffffffffffff1614611a5f576040517f08c379a0000000000000000000000000000000000000000000000000000000008152600401611a5690614e64565b60405180910390fd5b600e6000815480929190611a729061517c565b91905055506003600e541015611c21576001600e541415611b725760055460095411611ad3576040517f08c379a0000000000000000000000000000000000000000000000000000000008152600401611aca90614d24565b60405180910390fd5b6007546005541015611b1a576040517f08c379a0000000000000000000000000000000000000000000000000000000008152600401611b1190614d44565b60405180910390fd5b600b600e5460038110611b56577f4e487b7100000000000000000000000000000000000000000000000000000000600052603260045260246000fd5b016006908054611b659061514a565b611b7092919061400c565b505b6002600e541415611c1c57600854600a541015611bc4576040517f08c379a0000000000000000000000000000000000000000000000000000000008152600401611bbb90614d64565b60405180910390fd5b600b600e5460038110611c00577f4e487b7100000000000000000000000000000000000000000000000000000000600052603260045260246000fd5b016006908054611c0f9061514a565b611c1a92919061400c565b505b611c6e565b6040518060400160405280600e81526020017f456c656374696f6e20656e64656400000000000000000000000000000000000081525060069080519060200190611c6c929190613f86565b505b565b6002602052806000526040600020600091509050806000018054611c939061514a565b80601f0160208091040260200160405190810160405280929190818152602001828054611cbf9061514a565b8015611d0c5780601f10611ce157610100808354040283529160200191611d0c565b820191906000526020600020905b815481529060010190602001808311611cef57829003601f168201915b505050505090806001018054611d219061514a565b80601f0160208091040260200160405190810160405280929190818152602001828054611d4d9061514a565b8015611d9a5780601f10611d6f57610100808354040283529160200191611d9a565b820191906000526020600020905b815481529060010190602001808311611d7d57829003601f168201915b505050505090806002018054611daf9061514a565b80601f0160208091040260200160405190810160405280929190818152602001828054611ddb9061514a565b8015611e285780601f10611dfd57610100808354040283529160200191611e28565b820191906000526020600020905b815481529060010190602001808311611e0b57829003601f168201915b5050505050908060030160009054906101000a900460ff16905084565b600f60009054906101000a900473ffffffffffffffffffffffffffffffffffffffff1673ffffffffffffffffffffffffffffffffffffffff163373ffffffffffffffffffffffffffffffffffffffff161415611ed6576040517f08c379a0000000000000000000000000000000000000000000000000000000008152600401611ecd90614e04565b60405180910390fd5b60003390506000611ee687610fd2565b90506000600160008473ffffffffffffffffffffffffffffffffffffffff1673ffffffffffffffffffffffffffffffffffffffff16815260200190815260200160002090508060060160009054906101000a900460ff1615611f7d576040517f08c379a0000000000000000000000000000000000000000000000000000000008152600401611f7490614de4565b60405180910390fd5b600073ffffffffffffffffffffffffffffffffffffffff166003600084815260200190815260200160002060009054906101000a900473ffffffffffffffffffffffffffffffffffffffff1673ffffffffffffffffffffffffffffffffffffffff161461201f576040517f08c379a000000000000000000000000000000000000000000000000000000000815260040161201690614e44565b60405180910390fd5b8260046000600954815260200190815260200160002060006101000a81548173ffffffffffffffffffffffffffffffffffffffff021916908373ffffffffffffffffffffffffffffffffffffffff1602179055506040518061016001604052808381526020016000151581526020018473ffffffffffffffffffffffffffffffffffffffff168152602001888152602001878152602001868152602001858152602001600115158152602001600081526020016000151581526020016000815250600160008573ffffffffffffffffffffffffffffffffffffffff1673ffffffffffffffffffffffffffffffffffffffff1681526020019081526020016000206000820151816000015560208201518160010160006101000a81548160ff02191690831515021790555060408201518160010160016101000a81548173ffffffffffffffffffffffffffffffffffffffff021916908373ffffffffffffffffffffffffffffffffffffffff16021790555060608201518160020190805190602001906121ac929190613f86565b5060808201518160030190805190602001906121c9929190613f86565b5060a08201518160040190805190602001906121e6929190613f86565b5060c0820151816005019080519060200190612203929190613f86565b5060e08201518160060160006101000a81548160ff02191690831515021790555061010082015181600701556101208201518160080160006101000a81548160ff0219169083151502179055506101408201518160090155905050826003600084815260200190815260200160002060006101000a81548173ffffffffffffffffffffffffffffffffffffffff021916908373ffffffffffffffffffffffffffffffffffffffff160217905550600960008154809291906122c39061517c565b91905055505050505050505050565b6000806000604184511461231b576040517f08c379a000000000000000000000000000000000000000000000000000000000815260040161231290614e84565b60405180910390fd5b6020840151925060408401519150606084015160001a90509193909250565b60008060008060006123518a8a8a60018b8b61264a565b925092509250612363838383896126ea565b945094505050509550959350505050565b600085600014806123855750818610155b806123905750846000145b8061239b5750818510155b156123a9576000905061251d565b600082806123e0577f4e487b7100000000000000000000000000000000000000000000000000000000600052601260045260246000fd5b86870990506000838061241c577f4e487b7100000000000000000000000000000000000000000000000000000000600052601260045260246000fd5b888580612452577f4e487b7100000000000000000000000000000000000000000000000000000000600052601260045260246000fd5b8a8b09099050600086146124d2578380612495577f4e487b7100000000000000000000000000000000000000000000000000000000600052601260045260246000fd5b84806124ca577f4e487b7100000000000000000000000000000000000000000000000000000000600052601260045260246000fd5b878a09820890505b6000851461251557838061250f577f4e487b7100000000000000000000000000000000000000000000000000000000600052601260045260246000fd5b85820890505b808214925050505b95945050505050565b606060006001612535846127f9565b01905060008167ffffffffffffffff81111561257a577f4e487b7100000000000000000000000000000000000000000000000000000000600052604160045260246000fd5b6040519080825280601f01601f1916602001820160405280156125ac5781602001600182028036833780820191505090505b509050600082602001820190505b60011561263f578080600190039150507f3031323334353637383961626364656600000000000000000000000000000000600a86061a8153600a8581612629577f4e487b7100000000000000000000000000000000000000000000000000000000600052601260045260246000fd5b049450600085141561263a5761263f565b6125ba565b819350505050919050565b600080600080891415612665578787879250925092506126de565b60008990506000806000600190505b600084146126d057600060018516146126a3576126968383838f8f8f8e612a30565b8093508194508295505050505b6002846126b09190614fea565b93506126bf8c8c8c8c8c6139bd565b809c50819d50829e50505050612674565b828282965096509650505050505b96509650969350505050565b60008060006126f98585613e4e565b905060008480612732577f4e487b7100000000000000000000000000000000000000000000000000000000600052601260045260246000fd5b82830990506000858061276e577f4e487b7100000000000000000000000000000000000000000000000000000000600052601260045260246000fd5b828a099050600086806127aa577f4e487b7100000000000000000000000000000000000000000000000000000000600052601260045260246000fd5b87806127df577f4e487b7100000000000000000000000000000000000000000000000000000000600052601260045260246000fd5b8486098a0990508181955095505050505094509492505050565b600080600090507a184f03e93ff9f4daa797ed6e38ed64bf6a1f010000000000000000831061287d577a184f03e93ff9f4daa797ed6e38ed64bf6a1f0100000000000000008381612873577f4e487b7100000000000000000000000000000000000000000000000000000000600052601260045260246000fd5b0492506040810190505b6d04ee2d6d415b85acef810000000083106128e0576d04ee2d6d415b85acef810000000083816128d6577f4e487b7100000000000000000000000000000000000000000000000000000000600052601260045260246000fd5b0492506020810190505b662386f26fc10000831061293557662386f26fc10000838161292b577f4e487b7100000000000000000000000000000000000000000000000000000000600052601260045260246000fd5b0492506010810190505b6305f5e1008310612984576305f5e100838161297a577f4e487b7100000000000000000000000000000000000000000000000000000000600052601260045260246000fd5b0492506008810190505b61271083106129cf5761271083816129c5577f4e487b7100000000000000000000000000000000000000000000000000000000600052601260045260246000fd5b0492506004810190505b60648310612a185760648381612a0e577f4e487b7100000000000000000000000000000000000000000000000000000000600052601260045260246000fd5b0492506002810190505b600a8310612a27576001810190505b80915050919050565b6000806000808a148015612a445750600089145b15612a57578686869250925092506139b0565b600087148015612a675750600086145b15612a7a578989899250925092506139b0565b612a82614099565b8480612ab7577f4e487b7100000000000000000000000000000000000000000000000000000000600052601260045260246000fd5b898a0981600060048110612af4577f4e487b7100000000000000000000000000000000000000000000000000000000600052603260045260246000fd5b6020020181815250508480612b32577f4e487b7100000000000000000000000000000000000000000000000000000000600052601260045260246000fd5b81600060048110612b6c577f4e487b7100000000000000000000000000000000000000000000000000000000600052603260045260246000fd5b60200201518a0981600160048110612bad577f4e487b7100000000000000000000000000000000000000000000000000000000600052603260045260246000fd5b6020020181815250508480612beb577f4e487b7100000000000000000000000000000000000000000000000000000000600052601260045260246000fd5b86870981600260048110612c28577f4e487b7100000000000000000000000000000000000000000000000000000000600052603260045260246000fd5b6020020181815250508480612c66577f4e487b7100000000000000000000000000000000000000000000000000000000600052601260045260246000fd5b81600260048110612ca0577f4e487b7100000000000000000000000000000000000000000000000000000000600052603260045260246000fd5b6020020151870981600360048110612ce1577f4e487b7100000000000000000000000000000000000000000000000000000000600052603260045260246000fd5b60200201818152505060405180608001604052808680612d2a577f4e487b7100000000000000000000000000000000000000000000000000000000600052601260045260246000fd5b83600260048110612d64577f4e487b7100000000000000000000000000000000000000000000000000000000600052603260045260246000fd5b60200201518e0981526020018680612da5577f4e487b7100000000000000000000000000000000000000000000000000000000600052601260045260246000fd5b83600360048110612ddf577f4e487b7100000000000000000000000000000000000000000000000000000000600052603260045260246000fd5b60200201518d0981526020018680612e20577f4e487b7100000000000000000000000000000000000000000000000000000000600052601260045260246000fd5b83600060048110612e5a577f4e487b7100000000000000000000000000000000000000000000000000000000600052603260045260246000fd5b60200201518b0981526020018680612e9b577f4e487b7100000000000000000000000000000000000000000000000000000000600052601260045260246000fd5b83600160048110612ed5577f4e487b7100000000000000000000000000000000000000000000000000000000600052603260045260246000fd5b60200201518a09815250905080600260048110612f1b577f4e487b7100000000000000000000000000000000000000000000000000000000600052603260045260246000fd5b602002015181600060048110612f5a577f4e487b7100000000000000000000000000000000000000000000000000000000600052603260045260246000fd5b6020020151141580612fe8575080600360048110612fa1577f4e487b7100000000000000000000000000000000000000000000000000000000600052603260045260246000fd5b602002015181600160048110612fe0577f4e487b7100000000000000000000000000000000000000000000000000000000600052603260045260246000fd5b602002015114155b613027576040517f08c379a000000000000000000000000000000000000000000000000000000000815260040161301e90614dc4565b60405180910390fd5b61302f614099565b8580613064577f4e487b7100000000000000000000000000000000000000000000000000000000600052601260045260246000fd5b8260006004811061309e577f4e487b7100000000000000000000000000000000000000000000000000000000600052603260045260246000fd5b6020020151876130ae9190615075565b836002600481106130e8577f4e487b7100000000000000000000000000000000000000000000000000000000600052603260045260246000fd5b60200201510881600060048110613128577f4e487b7100000000000000000000000000000000000000000000000000000000600052603260045260246000fd5b6020020181815250508580613166577f4e487b7100000000000000000000000000000000000000000000000000000000600052601260045260246000fd5b826001600481106131a0577f4e487b7100000000000000000000000000000000000000000000000000000000600052603260045260246000fd5b6020020151876131b09190615075565b836003600481106131ea577f4e487b7100000000000000000000000000000000000000000000000000000000600052603260045260246000fd5b6020020151088160016004811061322a577f4e487b7100000000000000000000000000000000000000000000000000000000600052603260045260246000fd5b6020020181815250508580613268577f4e487b7100000000000000000000000000000000000000000000000000000000600052601260045260246000fd5b816000600481106132a2577f4e487b7100000000000000000000000000000000000000000000000000000000600052603260045260246000fd5b6020020151826000600481106132e1577f4e487b7100000000000000000000000000000000000000000000000000000000600052603260045260246000fd5b60200201510981600260048110613321577f4e487b7100000000000000000000000000000000000000000000000000000000600052603260045260246000fd5b602002018181525050858061335f577f4e487b7100000000000000000000000000000000000000000000000000000000600052601260045260246000fd5b81600060048110613399577f4e487b7100000000000000000000000000000000000000000000000000000000600052603260045260246000fd5b6020020151826002600481106133d8577f4e487b7100000000000000000000000000000000000000000000000000000000600052603260045260246000fd5b60200201510981600360048110613418577f4e487b7100000000000000000000000000000000000000000000000000000000600052603260045260246000fd5b60200201818152505060008680613458577f4e487b7100000000000000000000000000000000000000000000000000000000600052601260045260246000fd5b82600360048110613492577f4e487b7100000000000000000000000000000000000000000000000000000000600052603260045260246000fd5b6020020151886134a29190615075565b88806134d7577f4e487b7100000000000000000000000000000000000000000000000000000000600052601260045260246000fd5b84600160048110613511577f4e487b7100000000000000000000000000000000000000000000000000000000600052603260045260246000fd5b602002015185600160048110613550577f4e487b7100000000000000000000000000000000000000000000000000000000600052603260045260246000fd5b602002015109089050868061358e577f4e487b7100000000000000000000000000000000000000000000000000000000600052601260045260246000fd5b87806135c3577f4e487b7100000000000000000000000000000000000000000000000000000000600052601260045260246000fd5b88806135f8577f4e487b7100000000000000000000000000000000000000000000000000000000600052601260045260246000fd5b84600260048110613632577f4e487b7100000000000000000000000000000000000000000000000000000000600052603260045260246000fd5b602002015186600060048110613671577f4e487b7100000000000000000000000000000000000000000000000000000000600052603260045260246000fd5b602002015109600209886136859190615075565b82089050600087806136c0577f4e487b7100000000000000000000000000000000000000000000000000000000600052601260045260246000fd5b88806136f5577f4e487b7100000000000000000000000000000000000000000000000000000000600052601260045260246000fd5b838a6137019190615075565b8a80613736577f4e487b7100000000000000000000000000000000000000000000000000000000600052601260045260246000fd5b86600260048110613770577f4e487b7100000000000000000000000000000000000000000000000000000000600052603260045260246000fd5b6020020151886000600481106137af577f4e487b7100000000000000000000000000000000000000000000000000000000600052603260045260246000fd5b60200201510908846001600481106137f0577f4e487b7100000000000000000000000000000000000000000000000000000000600052603260045260246000fd5b6020020151099050878061382d577f4e487b7100000000000000000000000000000000000000000000000000000000600052601260045260246000fd5b8880613862577f4e487b7100000000000000000000000000000000000000000000000000000000600052601260045260246000fd5b8460036004811061389c577f4e487b7100000000000000000000000000000000000000000000000000000000600052603260045260246000fd5b6020020151866001600481106138db577f4e487b7100000000000000000000000000000000000000000000000000000000600052603260045260246000fd5b602002015109896138ec9190615075565b8208905060008880613927577f4e487b7100000000000000000000000000000000000000000000000000000000600052601260045260246000fd5b898061395c577f4e487b7100000000000000000000000000000000000000000000000000000000600052601260045260246000fd5b8b8f0985600060048110613999577f4e487b7100000000000000000000000000000000000000000000000000000000600052603260045260246000fd5b602002015109905082828297509750975050505050505b9750975097945050505050565b6000806000808614156139d857878787925092509250613e43565b60008480613a0f577f4e487b7100000000000000000000000000000000000000000000000000000000600052601260045260246000fd5b898a09905060008580613a4b577f4e487b7100000000000000000000000000000000000000000000000000000000600052601260045260246000fd5b898a09905060008680613a87577f4e487b7100000000000000000000000000000000000000000000000000000000600052601260045260246000fd5b898a09905060008780613ac3577f4e487b7100000000000000000000000000000000000000000000000000000000600052601260045260246000fd5b8880613af8577f4e487b7100000000000000000000000000000000000000000000000000000000600052601260045260246000fd5b848e09600409905060008880613b37577f4e487b7100000000000000000000000000000000000000000000000000000000600052601260045260246000fd5b8980613b6c577f4e487b7100000000000000000000000000000000000000000000000000000000600052601260045260246000fd5b8a80613ba1577f4e487b7100000000000000000000000000000000000000000000000000000000600052601260045260246000fd5b8586098c098a80613bdb577f4e487b7100000000000000000000000000000000000000000000000000000000600052601260045260246000fd5b876003090890508880613c17577f4e487b7100000000000000000000000000000000000000000000000000000000600052601260045260246000fd5b8980613c4c577f4e487b7100000000000000000000000000000000000000000000000000000000600052601260045260246000fd5b8384088a613c5a9190615075565b8a80613c8f577f4e487b7100000000000000000000000000000000000000000000000000000000600052601260045260246000fd5b8384090894508880613cca577f4e487b7100000000000000000000000000000000000000000000000000000000600052601260045260246000fd5b8980613cff577f4e487b7100000000000000000000000000000000000000000000000000000000600052601260045260246000fd5b8a80613d34577f4e487b7100000000000000000000000000000000000000000000000000000000600052601260045260246000fd5b8687096008098a613d459190615075565b8a80613d7a577f4e487b7100000000000000000000000000000000000000000000000000000000600052601260045260246000fd5b8b80613daf577f4e487b7100000000000000000000000000000000000000000000000000000000600052601260045260246000fd5b888d613dbb9190615075565b860884090893508880613df7577f4e487b7100000000000000000000000000000000000000000000000000000000600052601260045260246000fd5b8980613e2c577f4e487b7100000000000000000000000000000000000000000000000000000000600052601260045260246000fd5b8c8e09600209925084848497509750975050505050505b955095509592505050565b6000808314158015613e605750818314155b8015613e6d575060008214155b613eac576040517f08c379a0000000000000000000000000000000000000000000000000000000008152600401613ea390614ea4565b60405180910390fd5b60008060019050600084905060005b60008714613f79578682613ecf9190614fea565b9050828680613f07577f4e487b7100000000000000000000000000000000000000000000000000000000600052601260045260246000fd5b8780613f3c577f4e487b7100000000000000000000000000000000000000000000000000000000600052601260045260246000fd5b85840988613f4a9190615075565b86088094508195505050868782613f61919061501b565b83613f6c9190615075565b8098508193505050613ebb565b8394505050505092915050565b828054613f929061514a565b90600052602060002090601f016020900481019282613fb45760008555613ffb565b82601f10613fcd57805160ff1916838001178555613ffb565b82800160010185558215613ffb579182015b82811115613ffa578251825591602001919060010190613fdf565b5b50905061400891906140bb565b5090565b8280546140189061514a565b90600052602060002090601f01602090048101928261403a5760008555614088565b82601f1061404b5780548555614088565b8280016001018555821561408857600052602060002091601f016020900482015b8281111561408757825482559160010191906001019061406c565b5b50905061409591906140bb565b5090565b6040518060800160405280600490602082028036833780820191505090505090565b5b808211156140d45760008160009055506001016140bc565b5090565b60006140eb6140e684614f63565b614f32565b90508281526020810184848401111561410357600080fd5b61410e848285615108565b509392505050565b600061412961412484614f93565b614f32565b90508281526020810184848401111561414157600080fd5b61414c848285615108565b509392505050565b600081359050614163816152d7565b92915050565b600082601f83011261417a57600080fd5b813561418a8482602086016140d8565b91505092915050565b600082601f8301126141a457600080fd5b81356141b4848260208601614116565b91505092915050565b6000813590506141cc816152ee565b92915050565b6000602082840312156141e457600080fd5b60006141f284828501614154565b91505092915050565b6000806040838503121561420e57600080fd5b600061421c85828601614154565b925050602083013567ffffffffffffffff81111561423957600080fd5b61424585828601614169565b9150509250929050565b60006020828403121561426157600080fd5b600082013567ffffffffffffffff81111561427b57600080fd5b61428784828501614193565b91505092915050565b600080604083850312156142a357600080fd5b600083013567ffffffffffffffff8111156142bd57600080fd5b6142c985828601614193565b925050602083013567ffffffffffffffff8111156142e657600080fd5b6142f285828601614169565b9150509250929050565b6000806040838503121561430f57600080fd5b600083013567ffffffffffffffff81111561432957600080fd5b61433585828601614193565b925050602083013567ffffffffffffffff81111561435257600080fd5b61435e85828601614193565b9150509250929050565b600080600080600060a0868803121561438057600080fd5b600086013567ffffffffffffffff81111561439a57600080fd5b6143a688828901614193565b955050602086013567ffffffffffffffff8111156143c357600080fd5b6143cf88828901614193565b945050604086013567ffffffffffffffff8111156143ec57600080fd5b6143f888828901614193565b935050606086013567ffffffffffffffff81111561441557600080fd5b61442188828901614193565b925050608086013567ffffffffffffffff81111561443e57600080fd5b61444a88828901614193565b9150509295509295909350565b60006020828403121561446957600080fd5b6000614477848285016141bd565b91505092915050565b60008060006060848603121561449557600080fd5b60006144a3868287016141bd565b935050602084013567ffffffffffffffff8111156144c057600080fd5b6144cc86828701614193565b925050604084013567ffffffffffffffff8111156144e957600080fd5b6144f586828701614193565b9150509250925092565b6000806040838503121561451257600080fd5b6000614520858286016141bd565b9250506020614531858286016141bd565b9150509250929050565b614544816150a9565b82525050565b61455b614556826150a9565b6151c5565b82525050565b61456a816150bb565b82525050565b614579816150c7565b82525050565b61459061458b826150c7565b6151d7565b82525050565b60006145a182614fc3565b6145ab8185614fce565b93506145bb818560208601615117565b6145c4816152b9565b840191505092915050565b60006145da82614fc3565b6145e48185614fdf565b93506145f4818560208601615117565b80840191505092915050565b600061460d601e83614fce565b91507f4f6e6c7920726567697374657265642075736572732063616e20766f746500006000830152602082019050919050565b600061464d600d83614fce565b91507f416c726561647920566f746564000000000000000000000000000000000000006000830152602082019050919050565b600061468d601c83614fdf565b91507f19457468657265756d205369676e6564204d6573736167653a0a3332000000006000830152601c82019050919050565b60006146cd601183614fce565b91507f4e6f7420456e6f75676820566f746572730000000000000000000000000000006000830152602082019050919050565b600061470d601583614fce565b91507f4e6f7420456e6f7567682043616e6469646174657300000000000000000000006000830152602082019050919050565b600061474d601083614fce565b91507f4e6f7420456e6f75676820566f746573000000000000000000000000000000006000830152602082019050919050565b600061478d601283614fce565b91507f566f74696e6720696e2070726f677265737300000000000000000000000000006000830152602082019050919050565b60006147cd602b83614fce565b91507f43616e6e6f74206164642063616e6469646174657320647572696e6720766f7460008301527f696e672070726f636573730000000000000000000000000000000000000000006020830152604082019050919050565b6000614833601e83614fce565b91507f557365206a6163446f75626c652066756e6374696f6e20696e737465616400006000830152602082019050919050565b6000614873602183614fce565b91507f546865207075626c6963206164647265737320616c726561647920696e20757360008301527f65000000000000000000000000000000000000000000000000000000000000006020830152604082019050919050565b60006148d9601583614fce565b91507f41646d696e2043616e6e6f7420726567697374657200000000000000000000006000830152602082019050919050565b6000614919601383614fce565b91507f566f74657220616c726561647920766f746564000000000000000000000000006000830152602082019050919050565b6000614959601a83614fce565b91507f506572736f6e616c20494420616c726561647920696e207573650000000000006000830152602082019050919050565b6000614999602483614fce565b91507f4f6e6c792041646d696e2063616e20706572666f726d20746869732066756e6360008301527f74696f6e000000000000000000000000000000000000000000000000000000006020830152604082019050919050565b60006149ff601883614fce565b91507f696e76616c6964207369676e6174757265206c656e67746800000000000000006000830152602082019050919050565b6000614a3f600e83614fce565b91507f496e76616c6964206e756d6265720000000000000000000000000000000000006000830152602082019050919050565b614a7b816150f1565b82525050565b614a92614a8d826150f1565b6151f3565b82525050565b614aa1816150fb565b82525050565b6000614ab382846145cf565b915081905092915050565b6000614ac982614680565b9150614ad5828461457f565b60208201915081905092915050565b6000614af08285614a81565b602082019150614b00828461454a565b6014820191508190509392505050565b6000602082019050614b25600083018461453b565b92915050565b6000602082019050614b406000830184614561565b92915050565b6000602082019050614b5b6000830184614570565b92915050565b6000608082019050614b766000830187614570565b614b836020830186614a98565b614b906040830185614570565b614b9d6060830184614570565b95945050505050565b60006020820190508181036000830152614bc08184614596565b905092915050565b60006040820190508181036000830152614be28185614596565b90508181036020830152614bf68184614596565b90509392505050565b60006080820190508181036000830152614c198187614596565b90508181036020830152614c2d8186614596565b90508181036040830152614c418185614596565b9050614c506060830184614561565b95945050505050565b600060e0820190508181036000830152614c73818a614596565b90508181036020830152614c878189614596565b90508181036040830152614c9b8188614596565b90508181036060830152614caf8187614596565b9050614cbe6080830186614561565b614ccb60a0830185614561565b614cd860c0830184614561565b98975050505050505050565b60006020820190508181036000830152614cfd81614600565b9050919050565b60006020820190508181036000830152614d1d81614640565b9050919050565b60006020820190508181036000830152614d3d816146c0565b9050919050565b60006020820190508181036000830152614d5d81614700565b9050919050565b60006020820190508181036000830152614d7d81614740565b9050919050565b60006020820190508181036000830152614d9d81614780565b9050919050565b60006020820190508181036000830152614dbd816147c0565b9050919050565b60006020820190508181036000830152614ddd81614826565b9050919050565b60006020820190508181036000830152614dfd81614866565b9050919050565b60006020820190508181036000830152614e1d816148cc565b9050919050565b60006020820190508181036000830152614e3d8161490c565b9050919050565b60006020820190508181036000830152614e5d8161494c565b9050919050565b60006020820190508181036000830152614e7d8161498c565b9050919050565b60006020820190508181036000830152614e9d816149f2565b9050919050565b60006020820190508181036000830152614ebd81614a32565b9050919050565b6000602082019050614ed96000830184614a72565b92915050565b6000608082019050614ef46000830187614a72565b8181036020830152614f068186614596565b90508181036040830152614f1a8185614596565b9050614f296060830184614a72565b95945050505050565b6000604051905081810181811067ffffffffffffffff82111715614f5957614f5861528a565b5b8060405250919050565b600067ffffffffffffffff821115614f7e57614f7d61528a565b5b601f19601f8301169050602081019050919050565b600067ffffffffffffffff821115614fae57614fad61528a565b5b601f19601f8301169050602081019050919050565b600081519050919050565b600082825260208201905092915050565b600081905092915050565b6000614ff5826150f1565b9150615000836150f1565b9250826150105761500f61522c565b5b828204905092915050565b6000615026826150f1565b9150615031836150f1565b9250817fffffffffffffffffffffffffffffffffffffffffffffffffffffffffffffffff048311821515161561506a576150696151fd565b5b828202905092915050565b6000615080826150f1565b915061508b836150f1565b92508282101561509e5761509d6151fd565b5b828203905092915050565b60006150b4826150d1565b9050919050565b60008115159050919050565b6000819050919050565b600073ffffffffffffffffffffffffffffffffffffffff82169050919050565b6000819050919050565b600060ff82169050919050565b82818337600083830152505050565b60005b8381101561513557808201518184015260208101905061511a565b83811115615144576000848401525b50505050565b6000600282049050600182168061516257607f821691505b602082108114156151765761517561525b565b5b50919050565b6000615187826150f1565b91507fffffffffffffffffffffffffffffffffffffffffffffffffffffffffffffffff8214156151ba576151b96151fd565b5b600182019050919050565b60006151d0826151e1565b9050919050565b6000819050919050565b60006151ec826152ca565b9050919050565b6000819050919050565b7f4e487b7100000000000000000000000000000000000000000000000000000000600052601160045260246000fd5b7f4e487b7100000000000000000000000000000000000000000000000000000000600052601260045260246000fd5b7f4e487b7100000000000000000000000000000000000000000000000000000000600052602260045260246000fd5b7f4e487b7100000000000000000000000000000000000000000000000000000000600052604160045260246000fd5b6000601f19601f8301169050919050565b60008160601b9050919050565b6152e0816150c7565b81146152eb57600080fd5b50565b6152f7816150f1565b811461530257600080fd5b5056fea2646970667358221220145f5413c1d4cd9d09413bb1e569d144e1b2734a9d424113f7aa54a38042744364736f6c63430008000033",
  "immutableReferences": {},
  "source": "// SPDX-License-Identifier: MIT \r\npragma solidity  ^0.8.0;\r\nimport \"./EllipticCurve.sol\";\r\nimport \"@openzeppelin/contracts/utils/Strings.sol\";\r\n\r\n\r\n\r\ncontract Election { \r\n\r\n    struct voter {\r\n        bytes32 personal_id; //their personal id\r\n        bool hasVoted; //have they voted\r\n        address public_Address; //public address to wallet\r\n        string email; //email address for communication\r\n        string name; //name of voter \r\n        string surname; \r\n        string refNUm; \r\n        bool isRegistered;\r\n        uint256 PrivateKey;\r\n        bool  isVerifiedUser;\r\n        uint position;\r\n    }\r\n \r\n    struct votingRecords{\r\n        string ref;\r\n        string voteDate;\r\n        string voteTime;\r\n        bool isVerified;\r\n    }\r\n\r\n    \r\n\r\n\r\n     // Model a Candidate\r\n    struct Candidate {\r\n        uint id;\r\n        string name;\r\n        string party;\r\n        uint voteCount;\r\n    }\r\n    //ECC CONSTANTS - SECPTIC256\r\n    uint256 private constant GX = 0x79BE667EF9DCBBAC55A06295CE870B07029BFCDB2DCE28D959F2815B16F81798;\r\n    uint256 private constant GY = 0x483ADA7726A3C4655DA4FBFC0E1108A8FD17B448A68554199C47D08FFB10D4B8;\r\n    uint256 private constant AA = 0;\r\n    uint256 private constant BB = 7;\r\n    uint256 private constant PP = 0xFFFFFFFFFFFFFFFFFFFFFFFFFFFFFFFFFFFFFFFFFFFFFFFFFFFFFFFEFFFFFC2F;\r\n\r\n    // Read/write candidate\r\n    mapping(uint => Candidate) public candidates;\r\n\r\n    // Store accounts that have voted\r\n    mapping(address => voter) private voters;\r\n\r\n    mapping(uint => votingRecords) public votingTrails;\r\n\r\n    // Stores encyrted ID'S\r\n    mapping(bytes32 => address) private verifier;\r\n    mapping(uint => address) private recorder;\r\n\r\n\r\n    // Store Candidates Count\r\n    uint public candidatesCount;\r\n\r\n    // Stores Election phase\r\n    string public phase;\r\n\r\n    uint private minimum_candidates =2;\r\n    uint private minVotes = 2;\r\n\r\n    // Store number of voters\r\n    uint public votersCount;\r\n\r\n    //number of total votes\r\n    uint public numVotes;\r\n\r\n    string[3] phases = [\"registration\" , \"voting\", \"results\"];\r\n    uint private phasePointer;\r\n\r\n    // Admin is set once, when contract is deployed. Also saves gas fees\r\n    address private admin;\r\n\r\n    constructor() public { \r\n        admin = msg.sender; //the deployer of the contract is the admin\r\n        phase=\"Election has not started\";\r\n    } \r\n\r\n    modifier onlyAdmin(){\r\n\t\trequire(msg.sender==admin, \"Only Admin can perform this function\");\r\n\t\t_;\r\n\t}\r\n\r\n       // Add a candidate\r\n    function addCandidate (string memory _name, string memory _party) onlyAdmin public {\r\n        require(phasePointer<=0, \"Cannot add candidates during voting process\");\r\n        candidatesCount ++;\r\n        candidates[candidatesCount] = Candidate({\r\n            id: candidatesCount, \r\n            name: _name,\r\n            party: _party, \r\n            voteCount: 0\r\n            });\r\n    }\r\n\r\n\r\n     // Add a voter\r\n    function addVoter (string memory _personal_id, string memory _email, string memory _name, string memory _surname, string memory _ref) public {\r\n            require(msg.sender != admin, \"Admin Cannot register\"); //require that the user is not registered\r\n            address _pAdress = msg.sender; \r\n            bytes32 encrypt_id = keccak256_encrypt(_personal_id);  //encrypt personal id\r\n            voter storage user = voters[_pAdress];\r\n            require(!user.isRegistered, \"The public address already in use\"); //require that the user is not registered\r\n\r\n            //require that personal_id is not already in use\r\n            require(verifier[encrypt_id] == 0x0000000000000000000000000000000000000000, \"Personal ID already in use\");\r\n            recorder[votersCount] = _pAdress;\r\n            voters[_pAdress] = voter( {personal_id: encrypt_id, \r\n                            hasVoted:false, \r\n                            public_Address:_pAdress,\r\n                            email: _email, \r\n                            name:_name, \r\n                            surname: _surname, \r\n                            refNUm: _ref,\r\n                            isRegistered:true,\r\n                            PrivateKey:0,\r\n                            isVerifiedUser:false,\r\n                            position:0\r\n                    });\r\n            \r\n           \r\n            verifier[encrypt_id] = _pAdress;\r\n            votersCount ++;\r\n            \r\n    }\r\n\r\n    //get voter details to display to voter\r\n    function getVoter() public view returns(string memory, string memory, string memory, string memory, bool, bool, bool){\r\n            return(voters[msg.sender].name, voters[msg.sender].surname, voters[msg.sender].email, \r\n            voters[msg.sender].refNUm, voters[msg.sender].isRegistered, voters[msg.sender].hasVoted, voters[msg.sender].isVerifiedUser);             \r\n    }\r\n\r\n    //returns true if voter registered\r\n    function isVoter_Registered() public view returns (bool){\r\n        return voters[msg.sender].isRegistered;\r\n    }\r\n\r\n    \r\n  // https://stackoverflow.com/questions/73555009/how-to-generate-random-words-in-solidity-based-based-on-a-string-of-letters/73557284#73557284\r\n  function random() public view returns (uint) {\r\n        return uint (keccak256(abi.encodePacked (block.timestamp, msg.sender)));\r\n     }\r\n\r\n     //returns true if voter registered\r\n    function has_Voted() public view returns (bool){\r\n        return voters[msg.sender].hasVoted;\r\n    }\r\n\r\n    // voting function, all accounts can vote\r\n    function vote (uint _candidateId, string memory _date, string memory _time) public {\r\n\r\n        //must be registered to vote\r\n        require(voters[msg.sender].isRegistered, \"Only registered users can vote\");\r\n\r\n        // require that they haven't voted before\r\n        require(!voters[msg.sender].hasVoted, \"Already Voted\"); \r\n        \r\n        // require a valid candidate\r\n        require(_candidateId > 0 && _candidateId <= candidatesCount);\r\n\r\n        // record that voter has voted\r\n        voters[msg.sender].hasVoted = true;\r\n\r\n        // update candidate vote Count\r\n        candidates[_candidateId].voteCount ++; //add vote to candidate\r\n\r\n        voters[msg.sender].PrivateKey = random();  //CREATE PRIVATE KEY *****\r\n    \r\n        votingTrails[numVotes] = votingRecords({ //keep record of vote\r\n                                                ref:voters[msg.sender].refNUm,\r\n                                                voteDate:_date,\r\n                                                voteTime:_time,\r\n                                                isVerified:false\r\n                                         });\r\n        voters[msg.sender].position = numVotes; //store position of vote\r\n        numVotes++; //increase vote count\r\n        \r\n    }\r\n\r\n    //Return voter keys\r\n     function copyKeys() public view returns(string memory, string memory){\r\n            (uint256 p1, uint256 p2) = EllipticCurve.ecMul(voters[msg.sender].PrivateKey,GX,GY,AA,PP); \r\n            while(!EllipticCurve.isOnCurve(p1, p2, AA, BB, PP)){ //If points returned are not on the curve, iterate again\r\n                 (p1, p2) = EllipticCurve.ecMul(voters[msg.sender].PrivateKey,GX,GY,AA,PP); \r\n            }\r\n            return (Strings.toString(p1), Strings.toString(p2));          \r\n    }\r\n \r\n    //verify vote\r\n    function verifyVote(uint _key1, uint _key2) public{\r\n                 //must be registered to vote\r\n        require(voters[msg.sender].isRegistered, \"Only registered users can vote\");\r\n\r\n        // require that they haven't voted before\r\n        require(voters[msg.sender].hasVoted, \"Already Voted\");\r\n\r\n        require(!voters[msg.sender].isVerifiedUser, \"Voter already voted\");\r\n\r\n        (uint256 p1, uint256 p2) = EllipticCurve.ecMul(voters[msg.sender].PrivateKey,GX,GY,AA,PP); //creating public keys from the user address\r\n\r\n        if(p1==_key1 && _key2==p2 ){ //public keys match\r\n            votingTrails[voters[msg.sender].position].isVerified = true;\r\n            voters[msg.sender].isVerifiedUser = true;\r\n        }\r\n    }\r\n\r\n    // start election\r\n    function startElection() onlyAdmin public {\r\n            require(phasePointer!=1 && phasePointer!=2, \"Voting in progress\");\r\n            phasePointer = 0;\r\n            phase = phases[phasePointer]; //contract is deployed in the registration phase\r\n    \r\n    }\r\n\r\n    //change election phase\r\n    function changePhase() onlyAdmin public {\r\n        phasePointer++;\r\n        if (phasePointer <3) {\r\n            if(phasePointer == 1){ //from registration to voting\r\n                require(votersCount>candidatesCount, \"Not Enough Voters\"); //3 VOTES, 2 CANDIDATES\r\n                require(candidatesCount>=minimum_candidates, \"Not Enough Candidates\"); //MINIMUM OF 2 CANDIDATES\r\n                phase = phases[phasePointer];\r\n            }\r\n             if(phasePointer == 2){ //from voting to results\r\n                require(numVotes>=minVotes, \"Not Enough Votes\"); //MINIMUM OF 2 VOTES\r\n                phase = phases[phasePointer];\r\n            }\r\n            \r\n        } else {\r\n            phase = \"Election ended\";\r\n        }\r\n\r\n    }\r\n\r\n\r\n    //hash function\r\n    function keccak256_encrypt(string memory text) public pure returns (bytes32) {\r\n        return keccak256(abi.encode(text));\r\n    }\r\n\r\n    function getWinner() public view returns(string memory) {\r\n        uint winner = 1;\r\n        uint voterS = candidates[1].voteCount;\r\n        for (uint index = 2; index <=  candidatesCount; index++) {\r\n            if(candidates[index].voteCount > voterS){\r\n                winner = index;\r\n                voterS = candidates[index].voteCount;\r\n                }\r\n        }\r\n        return (candidates[winner].name);\r\n\r\n    }\r\n\r\n\r\n    //<----------------------------------- Verifies signed message -------------------------------->\r\n    function verify (string memory _message, bytes memory _sig) public view returns (bool) {\r\n        bytes32 hash_SMS = getHash(_message);\r\n        bytes32 ethSignedMessageHash = getEthSignedHash(hash_SMS);\r\n        return recover(ethSignedMessageHash, _sig) == admin;\r\n    }\r\n    \r\n    //has a tring\r\n    function getHash (string memory sms) public pure returns (bytes32){\r\n        return keccak256(abi.encodePacked(sms));\r\n    }\r\n\r\n\r\n    function getEthSignedHash (bytes32 sms) public pure returns (bytes32){\r\n        return keccak256(abi.encodePacked(\"\\x19Ethereum Signed Message:\\n32\", sms));\r\n    }\r\n\r\n\r\n    //recover account of original signer of message\r\n    function recover(bytes32 _ethSignedMessageHash, bytes memory _sig) public pure returns (address){\r\n            (bytes32 r, bytes32 s, uint8 v) = _split(_sig); //split signature into params\r\n            return ecrecover(_ethSignedMessageHash, v, r, s); //returns the address of the signer given the signed message\r\n    }\r\n\r\n    function _split(bytes memory _sig) internal pure returns (bytes32 r, bytes32 s, uint8 v){\r\n            require(_sig.length == 65, \"invalid signature length\");\r\n\r\n            assembly {\r\n                r := mload(add(_sig, 32))  //skip first 32-byetes as they hold the length\r\n                s := mload(add(_sig, 64))\r\n                v := byte(0, mload(add(_sig, 96)))\r\n\r\n            }\r\n    }\r\n\r\n    //<----------------------------------- ECC CRYPTOGRAPHY -------------------------------->\r\n\r\n}",
  "sourcePath": "C:\\Users\\Student\\Downloads\\crypto\\Code\\contracts\\Election.sol",
  "compiler": {
    "name": "solc",
    "version": "0.8.0+commit.c7dfd78e.Emscripten.clang"
  },
  "schemaVersion": "3.4.16",
  "updatedAt": "2023-09-29T18:16:31.151Z",
  "networkType": "ethereum",
  "devdoc": {
    "kind": "dev",
    "methods": {},
    "version": 1
  },
  "userdoc": {
    "kind": "user",
    "methods": {},
    "version": 1
  }
}