{
  "contractName": "Election",
  "abi": [
    {
      "inputs": [],
      "payable": false,
      "stateMutability": "nonpayable",
      "type": "constructor"
    },
    {
      "constant": true,
      "inputs": [],
      "name": "admin",
      "outputs": [
        {
          "internalType": "address",
          "name": "",
          "type": "address"
        }
      ],
      "payable": false,
      "stateMutability": "view",
      "type": "function"
    },
    {
      "constant": true,
      "inputs": [
        {
          "internalType": "uint256",
          "name": "",
          "type": "uint256"
        }
      ],
      "name": "candidates",
      "outputs": [
        {
          "internalType": "uint256",
          "name": "id",
          "type": "uint256"
        },
        {
          "internalType": "string",
          "name": "name",
          "type": "string"
        },
        {
          "internalType": "string",
          "name": "party",
          "type": "string"
        },
        {
          "internalType": "uint256",
          "name": "voteCount",
          "type": "uint256"
        }
      ],
      "payable": false,
      "stateMutability": "view",
      "type": "function"
    },
    {
      "constant": true,
      "inputs": [],
      "name": "candidatesCount",
      "outputs": [
        {
          "internalType": "uint256",
          "name": "",
          "type": "uint256"
        }
      ],
      "payable": false,
      "stateMutability": "view",
      "type": "function"
    },
    {
      "constant": true,
      "inputs": [
        {
          "internalType": "address",
          "name": "",
          "type": "address"
        }
      ],
      "name": "voters",
      "outputs": [
        {
          "internalType": "string",
          "name": "personal_id",
          "type": "string"
        },
        {
          "internalType": "bool",
          "name": "hasVoted",
          "type": "bool"
        },
        {
          "internalType": "address",
          "name": "public_Address",
          "type": "address"
        },
        {
          "internalType": "string",
          "name": "email",
          "type": "string"
        },
        {
          "internalType": "string",
          "name": "name",
          "type": "string"
        },
        {
          "internalType": "string",
          "name": "surname",
          "type": "string"
        },
        {
          "internalType": "bool",
          "name": "isRegistered",
          "type": "bool"
        }
      ],
      "payable": false,
      "stateMutability": "view",
      "type": "function"
    },
    {
      "constant": false,
      "inputs": [
        {
          "internalType": "string",
          "name": "_personal_id",
          "type": "string"
        },
        {
          "internalType": "string",
          "name": "_email",
          "type": "string"
        },
        {
          "internalType": "string",
          "name": "_name",
          "type": "string"
        },
        {
          "internalType": "string",
          "name": "_surname",
          "type": "string"
        },
        {
          "internalType": "address",
          "name": "_pAdress",
          "type": "address"
        }
      ],
      "name": "addVoter",
      "outputs": [],
      "payable": false,
      "stateMutability": "nonpayable",
      "type": "function"
    },
    {
      "constant": false,
      "inputs": [
        {
          "internalType": "uint256",
          "name": "_candidateId",
          "type": "uint256"
        }
      ],
      "name": "vote",
      "outputs": [],
      "payable": false,
      "stateMutability": "nonpayable",
      "type": "function"
    }
  ],
  "bytecode": "0x60806040523480156200001157600080fd5b5033600360006101000a81548173ffffffffffffffffffffffffffffffffffffffff021916908373ffffffffffffffffffffffffffffffffffffffff160217905550620000cf6040518060400160405280600b81526020017f43616e64696461746520310000000000000000000000000000000000000000008152506040518060400160405280600381526020017f45454600000000000000000000000000000000000000000000000000000000008152506200024960201b60201c565b6200014b6040518060400160405280600b81526020017f43616e64696461746520320000000000000000000000000000000000000000008152506040518060400160405280600381526020017f41424300000000000000000000000000000000000000000000000000000000008152506200024960201b60201c565b620001c76040518060400160405280600b81526020017f43616e64696461746520330000000000000000000000000000000000000000008152506040518060400160405280600281526020017f42410000000000000000000000000000000000000000000000000000000000008152506200024960201b60201c565b620002436040518060400160405280600b81526020017f43616e64696461746520340000000000000000000000000000000000000000008152506040518060400160405280600381526020017f4e465000000000000000000000000000000000000000000000000000000000008152506200024960201b60201c565b620003f6565b600360009054906101000a900473ffffffffffffffffffffffffffffffffffffffff1673ffffffffffffffffffffffffffffffffffffffff163373ffffffffffffffffffffffffffffffffffffffff1614620002a457600080fd5b60026000815480929190600101919050555060405180608001604052806002548152602001838152602001828152602001600081525060008060025481526020019081526020016000206000820151816000015560208201518160010190805190602001906200031692919062000347565b5060408201518160020190805190602001906200033592919062000347565b50606082015181600301559050505050565b828054600181600116156101000203166002900490600052602060002090601f016020900481019282601f106200038a57805160ff1916838001178555620003bb565b82800160010185558215620003bb579182015b82811115620003ba5782518255916020019190600101906200039d565b5b509050620003ca9190620003ce565b5090565b620003f391905b80821115620003ef576000816000905550600101620003d5565b5090565b90565b610f2d80620004066000396000f3fe608060405234801561001057600080fd5b50600436106100625760003560e01c80630121b93f146100675780632d35a8a2146100955780633477ee2e146100b3578063a3ec138d146101d4578063b32ef68f1461041e578063f851a440146106be575b600080fd5b6100936004803603602081101561007d57600080fd5b8101908080359060200190929190505050610708565b005b61009d610858565b6040518082815260200191505060405180910390f35b6100df600480360360208110156100c957600080fd5b810190808035906020019092919050505061085e565b604051808581526020018060200180602001848152602001838103835286818151815260200191508051906020019080838360005b8381101561012f578082015181840152602081019050610114565b50505050905090810190601f16801561015c5780820380516001836020036101000a031916815260200191505b50838103825285818151815260200191508051906020019080838360005b8381101561019557808201518184015260208101905061017a565b50505050905090810190601f1680156101c25780820380516001836020036101000a031916815260200191505b50965050505050505060405180910390f35b610216600480360360208110156101ea57600080fd5b81019080803573ffffffffffffffffffffffffffffffffffffffff1690602001909291905050506109be565b6040518080602001881515151581526020018773ffffffffffffffffffffffffffffffffffffffff1673ffffffffffffffffffffffffffffffffffffffff1681526020018060200180602001806020018615151515815260200185810385528c818151815260200191508051906020019080838360005b838110156102a857808201518184015260208101905061028d565b50505050905090810190601f1680156102d55780820380516001836020036101000a031916815260200191505b50858103845289818151815260200191508051906020019080838360005b8381101561030e5780820151818401526020810190506102f3565b50505050905090810190601f16801561033b5780820380516001836020036101000a031916815260200191505b50858103835288818151815260200191508051906020019080838360005b83811015610374578082015181840152602081019050610359565b50505050905090810190601f1680156103a15780820380516001836020036101000a031916815260200191505b50858103825287818151815260200191508051906020019080838360005b838110156103da5780820151818401526020810190506103bf565b50505050905090810190601f1680156104075780820380516001836020036101000a031916815260200191505b509b50505050505050505050505060405180910390f35b6106bc600480360360a081101561043457600080fd5b810190808035906020019064010000000081111561045157600080fd5b82018360208201111561046357600080fd5b8035906020019184600183028401116401000000008311171561048557600080fd5b91908080601f016020809104026020016040519081016040528093929190818152602001838380828437600081840152601f19601f820116905080830192505050505050509192919290803590602001906401000000008111156104e857600080fd5b8201836020820111156104fa57600080fd5b8035906020019184600183028401116401000000008311171561051c57600080fd5b91908080601f016020809104026020016040519081016040528093929190818152602001838380828437600081840152601f19601f8201169050808301925050505050505091929192908035906020019064010000000081111561057f57600080fd5b82018360208201111561059157600080fd5b803590602001918460018302840111640100000000831117156105b357600080fd5b91908080601f016020809104026020016040519081016040528093929190818152602001838380828437600081840152601f19601f8201169050808301925050505050505091929192908035906020019064010000000081111561061657600080fd5b82018360208201111561062857600080fd5b8035906020019184600183028401116401000000008311171561064a57600080fd5b91908080601f016020809104026020016040519081016040528093929190818152602001838380828437600081840152601f19601f820116905080830192505050505050509192919290803573ffffffffffffffffffffffffffffffffffffffff169060200190929190505050610c9a565b005b6106c6610e2d565b604051808273ffffffffffffffffffffffffffffffffffffffff1673ffffffffffffffffffffffffffffffffffffffff16815260200191505060405180910390f35b600160003373ffffffffffffffffffffffffffffffffffffffff1673ffffffffffffffffffffffffffffffffffffffff16815260200190815260200160002060050160009054906101000a900460ff1661076157600080fd5b600160003373ffffffffffffffffffffffffffffffffffffffff1673ffffffffffffffffffffffffffffffffffffffff16815260200190815260200160002060010160009054906101000a900460ff16156107bb57600080fd5b6000811180156107cd57506002548111155b6107d657600080fd5b60018060003373ffffffffffffffffffffffffffffffffffffffff1673ffffffffffffffffffffffffffffffffffffffff16815260200190815260200160002060010160006101000a81548160ff0219169083151502179055506000808281526020019081526020016000206003016000815480929190600101919050555050565b60025481565b6000602052806000526040600020600091509050806000015490806001018054600181600116156101000203166002900480601f0160208091040260200160405190810160405280929190818152602001828054600181600116156101000203166002900480156109105780601f106108e557610100808354040283529160200191610910565b820191906000526020600020905b8154815290600101906020018083116108f357829003601f168201915b505050505090806002018054600181600116156101000203166002900480601f0160208091040260200160405190810160405280929190818152602001828054600181600116156101000203166002900480156109ae5780601f10610983576101008083540402835291602001916109ae565b820191906000526020600020905b81548152906001019060200180831161099157829003601f168201915b5050505050908060030154905084565b6001602052806000526040600020600091509050806000018054600181600116156101000203166002900480601f016020809104026020016040519081016040528092919081815260200182805460018160011615610100020316600290048015610a6a5780601f10610a3f57610100808354040283529160200191610a6a565b820191906000526020600020905b815481529060010190602001808311610a4d57829003601f168201915b5050505050908060010160009054906101000a900460ff16908060010160019054906101000a900473ffffffffffffffffffffffffffffffffffffffff1690806002018054600181600116156101000203166002900480601f016020809104026020016040519081016040528092919081815260200182805460018160011615610100020316600290048015610b415780601f10610b1657610100808354040283529160200191610b41565b820191906000526020600020905b815481529060010190602001808311610b2457829003601f168201915b505050505090806003018054600181600116156101000203166002900480601f016020809104026020016040519081016040528092919081815260200182805460018160011615610100020316600290048015610bdf5780601f10610bb457610100808354040283529160200191610bdf565b820191906000526020600020905b815481529060010190602001808311610bc257829003601f168201915b505050505090806004018054600181600116156101000203166002900480601f016020809104026020016040519081016040528092919081815260200182805460018160011615610100020316600290048015610c7d5780601f10610c5257610100808354040283529160200191610c7d565b820191906000526020600020905b815481529060010190602001808311610c6057829003601f168201915b5050505050908060050160009054906101000a900460ff16905087565b6040518060e001604052808681526020016000151581526020018273ffffffffffffffffffffffffffffffffffffffff16815260200185815260200184815260200183815260200160011515815250600160008373ffffffffffffffffffffffffffffffffffffffff1673ffffffffffffffffffffffffffffffffffffffff1681526020019081526020016000206000820151816000019080519060200190610d44929190610e53565b5060208201518160010160006101000a81548160ff02191690831515021790555060408201518160010160016101000a81548173ffffffffffffffffffffffffffffffffffffffff021916908373ffffffffffffffffffffffffffffffffffffffff1602179055506060820151816002019080519060200190610dc8929190610e53565b506080820151816003019080519060200190610de5929190610e53565b5060a0820151816004019080519060200190610e02929190610e53565b5060c08201518160050160006101000a81548160ff0219169083151502179055509050505050505050565b600360009054906101000a900473ffffffffffffffffffffffffffffffffffffffff1681565b828054600181600116156101000203166002900490600052602060002090601f016020900481019282601f10610e9457805160ff1916838001178555610ec2565b82800160010185558215610ec2579182015b82811115610ec1578251825591602001919060010190610ea6565b5b509050610ecf9190610ed3565b5090565b610ef591905b80821115610ef1576000816000905550600101610ed9565b5090565b9056fea265627a7a72315820954be82b24cc4686012fea6d2c7607ff176754bb2e4dd39110b34c9d3621a94c64736f6c63430005100032",
  "source": "pragma solidity >=0.5.0;\r\n\r\ncontract Election { \r\n\r\n    struct voter {\r\n        string personal_id; //their personal id\r\n        bool hasVoted; //have they voted\r\n        address public_Address; //public address to wallet\r\n        string email; //email address for communication\r\n        string name; //name of voter \r\n        string surname; \r\n        bool isRegistered;\r\n    }\r\n\r\n\r\n     // Model a Candidate\r\n    struct Candidate {\r\n        uint id;\r\n        string name;\r\n        string party;\r\n        uint voteCount;\r\n    }\r\n\r\n    // Read/write candidate\r\n    mapping(uint => Candidate) public candidates;\r\n\r\n    // Store accounts that have voted\r\n    mapping(address => voter) public voters;\r\n\r\n    // Store Candidates Count\r\n    uint public candidatesCount;\r\n\r\n    // Constructor\r\n    address public admin;\r\n\r\n    constructor() public { \r\n        admin = msg.sender;\r\n        addCandidate(\"Candidate 1\", \"EEF\"); \r\n        addCandidate(\"Candidate 2\", \"ABC\");\r\n        addCandidate(\"Candidate 3\", \"BA\");\r\n        addCandidate(\"Candidate 4\", \"NFP\");\r\n    } \r\n\r\n       // Add a candidate\r\n    function addCandidate (string memory _name, string memory _party) private {\r\n        require(msg.sender == admin);\r\n        candidatesCount ++;\r\n        candidates[candidatesCount] = Candidate(candidatesCount, _name, _party, 0);\r\n    }\r\n\r\n          // Add a candidate\r\n    function addVoter (string memory _personal_id, string memory _email, string memory _name, string memory _surname, address _pAdress) public {\r\n    \r\n        voters[_pAdress] = voter(_personal_id, false, _pAdress, _email, _name,  _surname, true);\r\n        \r\n    }\r\n\r\n    // voting function, all accounts can vote\r\n    function vote (uint _candidateId) public {\r\n\r\n        //must be registered to vote\r\n        require(voters[msg.sender].isRegistered);\r\n\r\n        // require that they haven't voted before\r\n        require(!voters[msg.sender].hasVoted); \r\n        \r\n\r\n        // require a valid candidate\r\n        require(_candidateId > 0 && _candidateId <= candidatesCount);\r\n\r\n        // record that voter has voted\r\n        voters[msg.sender].hasVoted = true;\r\n\r\n        // update candidate vote Count\r\n        candidates[_candidateId].voteCount ++;\r\n        //where is the data saved\r\n        //describe everything fully-> break it down\r\n    }\r\n}",
  "sourcePath": "C:\\Users\\Student\\Documents\\crypto\\Code\\contracts\\Election.sol",
  "compiler": {
    "name": "solc",
    "version": "0.5.16+commit.9c3226ce.Emscripten.clang"
  },
  "schemaVersion": "3.4.14",
  "updatedAt": "2023-09-15T15:27:57.222Z",
  "devdoc": {
    "methods": {}
  },
  "userdoc": {
    "methods": {}
  }
}