{
  "contractName": "Election",
  "abi": [
    {
      "inputs": [],
      "payable": false,
      "stateMutability": "nonpayable",
      "type": "constructor"
    },
    {
      "constant": true,
      "inputs": [
        {
          "internalType": "uint256",
          "name": "",
          "type": "uint256"
        }
      ],
      "name": "candidates",
      "outputs": [
        {
          "internalType": "uint256",
          "name": "id",
          "type": "uint256"
        },
        {
          "internalType": "string",
          "name": "name",
          "type": "string"
        },
        {
          "internalType": "string",
          "name": "party",
          "type": "string"
        },
        {
          "internalType": "uint256",
          "name": "voteCount",
          "type": "uint256"
        }
      ],
      "payable": false,
      "stateMutability": "view",
      "type": "function"
    },
    {
      "constant": true,
      "inputs": [],
      "name": "candidatesCount",
      "outputs": [
        {
          "internalType": "uint256",
          "name": "",
          "type": "uint256"
        }
      ],
      "payable": false,
      "stateMutability": "view",
      "type": "function"
    },
    {
      "constant": true,
      "inputs": [],
      "name": "phase",
      "outputs": [
        {
          "internalType": "string",
          "name": "",
          "type": "string"
        }
      ],
      "payable": false,
      "stateMutability": "view",
      "type": "function"
    },
    {
      "constant": true,
      "inputs": [],
      "name": "phasePointer",
      "outputs": [
        {
          "internalType": "uint256",
          "name": "",
          "type": "uint256"
        }
      ],
      "payable": false,
      "stateMutability": "view",
      "type": "function"
    },
    {
      "constant": true,
      "inputs": [
        {
          "internalType": "bytes32",
          "name": "",
          "type": "bytes32"
        }
      ],
      "name": "verifier",
      "outputs": [
        {
          "internalType": "address",
          "name": "",
          "type": "address"
        }
      ],
      "payable": false,
      "stateMutability": "view",
      "type": "function"
    },
    {
      "constant": true,
      "inputs": [
        {
          "internalType": "address",
          "name": "",
          "type": "address"
        }
      ],
      "name": "voters",
      "outputs": [
        {
          "internalType": "bytes32",
          "name": "personal_id",
          "type": "bytes32"
        },
        {
          "internalType": "bool",
          "name": "hasVoted",
          "type": "bool"
        },
        {
          "internalType": "address",
          "name": "public_Address",
          "type": "address"
        },
        {
          "internalType": "string",
          "name": "email",
          "type": "string"
        },
        {
          "internalType": "string",
          "name": "name",
          "type": "string"
        },
        {
          "internalType": "string",
          "name": "surname",
          "type": "string"
        },
        {
          "internalType": "bool",
          "name": "isRegistered",
          "type": "bool"
        },
        {
          "internalType": "uint256",
          "name": "voterPosition",
          "type": "uint256"
        }
      ],
      "payable": false,
      "stateMutability": "view",
      "type": "function"
    },
    {
      "constant": true,
      "inputs": [],
      "name": "votersCount",
      "outputs": [
        {
          "internalType": "uint256",
          "name": "",
          "type": "uint256"
        }
      ],
      "payable": false,
      "stateMutability": "view",
      "type": "function"
    },
    {
      "constant": true,
      "inputs": [],
      "name": "votingEnd",
      "outputs": [
        {
          "internalType": "uint256",
          "name": "",
          "type": "uint256"
        }
      ],
      "payable": false,
      "stateMutability": "view",
      "type": "function"
    },
    {
      "constant": true,
      "inputs": [],
      "name": "votingStart",
      "outputs": [
        {
          "internalType": "uint256",
          "name": "",
          "type": "uint256"
        }
      ],
      "payable": false,
      "stateMutability": "view",
      "type": "function"
    },
    {
      "constant": false,
      "inputs": [
        {
          "internalType": "string",
          "name": "_name",
          "type": "string"
        },
        {
          "internalType": "string",
          "name": "_party",
          "type": "string"
        }
      ],
      "name": "addCandidate",
      "outputs": [],
      "payable": false,
      "stateMutability": "nonpayable",
      "type": "function"
    },
    {
      "constant": false,
      "inputs": [
        {
          "internalType": "string",
          "name": "_personal_id",
          "type": "string"
        },
        {
          "internalType": "string",
          "name": "_email",
          "type": "string"
        },
        {
          "internalType": "string",
          "name": "_name",
          "type": "string"
        },
        {
          "internalType": "string",
          "name": "_surname",
          "type": "string"
        }
      ],
      "name": "addVoter",
      "outputs": [],
      "payable": false,
      "stateMutability": "nonpayable",
      "type": "function"
    },
    {
      "constant": true,
      "inputs": [],
      "name": "isVoter_Registered",
      "outputs": [
        {
          "internalType": "bool",
          "name": "",
          "type": "bool"
        }
      ],
      "payable": false,
      "stateMutability": "view",
      "type": "function"
    },
    {
      "constant": true,
      "inputs": [],
      "name": "has_Voted",
      "outputs": [
        {
          "internalType": "bool",
          "name": "",
          "type": "bool"
        }
      ],
      "payable": false,
      "stateMutability": "view",
      "type": "function"
    },
    {
      "constant": false,
      "inputs": [
        {
          "internalType": "uint256",
          "name": "_candidateId",
          "type": "uint256"
        }
      ],
      "name": "vote",
      "outputs": [],
      "payable": false,
      "stateMutability": "nonpayable",
      "type": "function"
    },
    {
      "constant": false,
      "inputs": [
        {
          "internalType": "string",
          "name": "_phase",
          "type": "string"
        }
      ],
      "name": "changePhase",
      "outputs": [],
      "payable": false,
      "stateMutability": "nonpayable",
      "type": "function"
    },
    {
      "constant": false,
      "inputs": [],
      "name": "changePhase",
      "outputs": [],
      "payable": false,
      "stateMutability": "nonpayable",
      "type": "function"
    },
    {
      "constant": false,
      "inputs": [],
      "name": "startElection",
      "outputs": [],
      "payable": false,
      "stateMutability": "nonpayable",
      "type": "function"
    },
    {
      "constant": true,
      "inputs": [
        {
          "internalType": "string",
          "name": "text",
          "type": "string"
        }
      ],
      "name": "keccak256_encrypt",
      "outputs": [
        {
          "internalType": "bytes32",
          "name": "",
          "type": "bytes32"
        }
      ],
      "payable": false,
      "stateMutability": "pure",
      "type": "function"
    },
    {
      "constant": true,
      "inputs": [],
      "name": "getTime",
      "outputs": [
        {
          "internalType": "uint256",
          "name": "",
          "type": "uint256"
        }
      ],
      "payable": false,
      "stateMutability": "view",
      "type": "function"
    },
    {
      "constant": true,
      "inputs": [
        {
          "internalType": "string",
          "name": "_message",
          "type": "string"
        },
        {
          "internalType": "bytes",
          "name": "_sig",
          "type": "bytes"
        }
      ],
      "name": "verify",
      "outputs": [
        {
          "internalType": "bool",
          "name": "",
          "type": "bool"
        }
      ],
      "payable": false,
      "stateMutability": "view",
      "type": "function"
    },
    {
      "constant": true,
      "inputs": [
        {
          "internalType": "string",
          "name": "sms",
          "type": "string"
        }
      ],
      "name": "getHash",
      "outputs": [
        {
          "internalType": "bytes32",
          "name": "",
          "type": "bytes32"
        }
      ],
      "payable": false,
      "stateMutability": "pure",
      "type": "function"
    },
    {
      "constant": true,
      "inputs": [
        {
          "internalType": "bytes32",
          "name": "sms",
          "type": "bytes32"
        }
      ],
      "name": "getEthSignedHash",
      "outputs": [
        {
          "internalType": "bytes32",
          "name": "",
          "type": "bytes32"
        }
      ],
      "payable": false,
      "stateMutability": "pure",
      "type": "function"
    },
    {
      "constant": true,
      "inputs": [
        {
          "internalType": "bytes32",
          "name": "_ethSignedMessageHash",
          "type": "bytes32"
        },
        {
          "internalType": "bytes",
          "name": "_sig",
          "type": "bytes"
        }
      ],
      "name": "recover",
      "outputs": [
        {
          "internalType": "address",
          "name": "",
          "type": "address"
        }
      ],
      "payable": false,
      "stateMutability": "pure",
      "type": "function"
    }
  ],
  "bytecode": "0x608060405260405180606001604052806040518060400160405280600c81526020017f726567697374726174696f6e000000000000000000000000000000000000000081525081526020016040518060400160405280600681526020017f766f74696e67000000000000000000000000000000000000000000000000000081525081526020016040518060400160405280600781526020017f726573756c7473000000000000000000000000000000000000000000000000008152508152506006906003620000d092919062000174565b50348015620000de57600080fd5b5033600a60006101000a81548173ffffffffffffffffffffffffffffffffffffffff021916908373ffffffffffffffffffffffffffffffffffffffff1602179055506040518060400160405280600581526020017f7265616479000000000000000000000000000000000000000000000000000000815250600490805190602001906200016d929190620001ce565b5062000381565b8260038101928215620001bb579160200282015b82811115620001ba578251829080519060200190620001a992919062000255565b509160200191906001019062000188565b5b509050620001ca9190620002dc565b5090565b828054600181600116156101000203166002900490600052602060002090601f016020900481019282601f106200021157805160ff191683800117855562000242565b8280016001018555821562000242579182015b828111156200024157825182559160200191906001019062000224565b5b5090506200025191906200030d565b5090565b828054600181600116156101000203166002900490600052602060002090601f016020900481019282601f106200029857805160ff1916838001178555620002c9565b82800160010185558215620002c9579182015b82811115620002c8578251825591602001919060010190620002ab565b5b509050620002d891906200030d565b5090565b6200030a91905b80821115620003065760008181620002fc919062000335565b50600101620002e3565b5090565b90565b6200033291905b808211156200032e57600081600090555060010162000314565b5090565b90565b50805460018160011615610100020316600290046000825580601f106200035d57506200037e565b601f0160209004906000526020600020908101906200037d91906200030d565b5b50565b6126ef80620003916000396000f3fe608060405234801561001057600080fd5b506004361061014d5760003560e01c80635b6beeb9116100c357806398c079381161007c57806398c0793814610c3f578063a3ec138d14610c5d578063b1c9fe6e14610e49578063d25773b714610ecc578063d54c149614610eee578063db6f595314610f5c5761014d565b80635b6beeb9146107eb5780635dc2b650146108ba57806362d73eb814610b3a5780636f174b1414610b4457806385a3863514610bff57806398b8b43d14610c1d5761014d565b80632f4ea5ea116101155780632f4ea5ea146104135780633477ee2e146104555780633d9ffad5146105765780633fee76dc146106e057806344fd417f146107af578063557ed1ba146107cd5761014d565b80630121b93f14610152578063101158af1461018057806319045a251461019e57806326541b56146102a35780632d35a8a2146103f5575b600080fd5b61017e6004803603602081101561016857600080fd5b8101908080359060200190929190505050610f66565b005b610188611188565b6040518082815260200191505060405180910390f35b610261600480360360408110156101b457600080fd5b8101908080359060200190929190803590602001906401000000008111156101db57600080fd5b8201836020820111156101ed57600080fd5b8035906020019184600183028401116401000000008311171561020f57600080fd5b91908080601f016020809104026020016040519081016040528093929190818152602001838380828437600081840152601f19601f82011690508083019250505050505050919291929050505061118e565b604051808273ffffffffffffffffffffffffffffffffffffffff1673ffffffffffffffffffffffffffffffffffffffff16815260200191505060405180910390f35b6103f3600480360360408110156102b957600080fd5b81019080803590602001906401000000008111156102d657600080fd5b8201836020820111156102e857600080fd5b8035906020019184600183028401116401000000008311171561030a57600080fd5b91908080601f016020809104026020016040519081016040528093929190818152602001838380828437600081840152601f19601f8201169050808301925050505050505091929192908035906020019064010000000081111561036d57600080fd5b82018360208201111561037f57600080fd5b803590602001918460018302840111640100000000831117156103a157600080fd5b91908080601f016020809104026020016040519081016040528093929190818152602001838380828437600081840152601f19601f820116905080830192505050505050509192919290505050611215565b005b6103fd61135a565b6040518082815260200191505060405180910390f35b61043f6004803603602081101561042957600080fd5b8101908080359060200190929190505050611360565b6040518082815260200191505060405180910390f35b6104816004803603602081101561046b57600080fd5b81019080803590602001909291905050506113b8565b604051808581526020018060200180602001848152602001838103835286818151815260200191508051906020019080838360005b838110156104d15780820151818401526020810190506104b6565b50505050905090810190601f1680156104fe5780820380516001836020036101000a031916815260200191505b50838103825285818151815260200191508051906020019080838360005b8381101561053757808201518184015260208101905061051c565b50505050905090810190601f1680156105645780820380516001836020036101000a031916815260200191505b50965050505050505060405180910390f35b6106c66004803603604081101561058c57600080fd5b81019080803590602001906401000000008111156105a957600080fd5b8201836020820111156105bb57600080fd5b803590602001918460018302840111640100000000831117156105dd57600080fd5b91908080601f016020809104026020016040519081016040528093929190818152602001838380828437600081840152601f19601f8201169050808301925050505050505091929192908035906020019064010000000081111561064057600080fd5b82018360208201111561065257600080fd5b8035906020019184600183028401116401000000008311171561067457600080fd5b91908080601f016020809104026020016040519081016040528093929190818152602001838380828437600081840152601f19601f820116905080830192505050505050509192919290505050611518565b604051808215151515815260200191505060405180910390f35b610799600480360360208110156106f657600080fd5b810190808035906020019064010000000081111561071357600080fd5b82018360208201111561072557600080fd5b8035906020019184600183028401116401000000008311171561074757600080fd5b91908080601f016020809104026020016040519081016040528093929190818152602001838380828437600081840152601f19601f820116905080830192505050505050509192919290505050611597565b6040518082815260200191505060405180910390f35b6107b761162c565b6040518082815260200191505060405180910390f35b6107d5611632565b6040518082815260200191505060405180910390f35b6108a46004803603602081101561080157600080fd5b810190808035906020019064010000000081111561081e57600080fd5b82018360208201111561083057600080fd5b8035906020019184600183028401116401000000008311171561085257600080fd5b91908080601f016020809104026020016040519081016040528093929190818152602001838380828437600081840152601f19601f8201169050808301925050505050505091929192905050506116d6565b6040518082815260200191505060405180910390f35b610b38600480360360808110156108d057600080fd5b81019080803590602001906401000000008111156108ed57600080fd5b8201836020820111156108ff57600080fd5b8035906020019184600183028401116401000000008311171561092157600080fd5b91908080601f016020809104026020016040519081016040528093929190818152602001838380828437600081840152601f19601f8201169050808301925050505050505091929192908035906020019064010000000081111561098457600080fd5b82018360208201111561099657600080fd5b803590602001918460018302840111640100000000831117156109b857600080fd5b91908080601f016020809104026020016040519081016040528093929190818152602001838380828437600081840152601f19601f82011690508083019250505050505050919291929080359060200190640100000000811115610a1b57600080fd5b820183602082011115610a2d57600080fd5b80359060200191846001830284011164010000000083111715610a4f57600080fd5b91908080601f016020809104026020016040519081016040528093929190818152602001838380828437600081840152601f19601f82011690508083019250505050505050919291929080359060200190640100000000811115610ab257600080fd5b820183602082011115610ac457600080fd5b80359060200191846001830284011164010000000083111715610ae657600080fd5b91908080601f016020809104026020016040519081016040528093929190818152602001838380828437600081840152601f19601f820116905080830192505050505050509192919290505050611751565b005b610b42611adc565b005b610bfd60048036036020811015610b5a57600080fd5b8101908080359060200190640100000000811115610b7757600080fd5b820183602082011115610b8957600080fd5b80359060200191846001830284011164010000000083111715610bab57600080fd5b91908080601f016020809104026020016040519081016040528093929190818152602001838380828437600081840152601f19601f820116905080830192505050505050509192919290505050611d96565b005b610c07611e56565b6040518082815260200191505060405180910390f35b610c25611e5c565b604051808215151515815260200191505060405180910390f35b610c47611eb3565b6040518082815260200191505060405180910390f35b610c9f60048036036020811015610c7357600080fd5b81019080803573ffffffffffffffffffffffffffffffffffffffff169060200190929190505050611eb9565b60405180898152602001881515151581526020018773ffffffffffffffffffffffffffffffffffffffff1673ffffffffffffffffffffffffffffffffffffffff16815260200180602001806020018060200186151515158152602001858152602001848103845289818151815260200191508051906020019080838360005b83811015610d39578082015181840152602081019050610d1e565b50505050905090810190601f168015610d665780820380516001836020036101000a031916815260200191505b50848103835288818151815260200191508051906020019080838360005b83811015610d9f578082015181840152602081019050610d84565b50505050905090810190601f168015610dcc5780820380516001836020036101000a031916815260200191505b50848103825287818151815260200191508051906020019080838360005b83811015610e05578082015181840152602081019050610dea565b50505050905090810190601f168015610e325780820380516001836020036101000a031916815260200191505b509b50505050505050505050505060405180910390f35b610e51612103565b6040518080602001828103825283818151815260200191508051906020019080838360005b83811015610e91578082015181840152602081019050610e76565b50505050905090810190601f168015610ebe5780820380516001836020036101000a031916815260200191505b509250505060405180910390f35b610ed46121a1565b604051808215151515815260200191505060405180910390f35b610f1a60048036036020811015610f0457600080fd5b81019080803590602001909291905050506121f8565b604051808273ffffffffffffffffffffffffffffffffffffffff1673ffffffffffffffffffffffffffffffffffffffff16815260200191505060405180910390f35b610f6461222b565b005b600160003373ffffffffffffffffffffffffffffffffffffffff1673ffffffffffffffffffffffffffffffffffffffff16815260200190815260200160002060050160009054906101000a900460ff16611028576040517f08c379a000000000000000000000000000000000000000000000000000000000815260040180806020018281038252601e8152602001807f4f6e6c7920726567697374657265642075736572732063616e20766f7465000081525060200191505060405180910390fd5b600160003373ffffffffffffffffffffffffffffffffffffffff1673ffffffffffffffffffffffffffffffffffffffff16815260200190815260200160002060010160009054906101000a900460ff16156110eb576040517f08c379a000000000000000000000000000000000000000000000000000000000815260040180806020018281038252600d8152602001807f416c726561647920566f7465640000000000000000000000000000000000000081525060200191505060405180910390fd5b6000811180156110fd57506003548111155b61110657600080fd5b60018060003373ffffffffffffffffffffffffffffffffffffffff1673ffffffffffffffffffffffffffffffffffffffff16815260200190815260200160002060010160006101000a81548160ff0219169083151502179055506000808281526020019081526020016000206003016000815480929190600101919050555050565b600b5481565b60008060008061119d85612374565b92509250925060018682858560405160008152602001604052604051808581526020018460ff1660ff1681526020018381526020018281526020019450505050506020604051602081039080840390855afa158015611200573d6000803e3d6000fd5b50505060206040510351935050505092915050565b600a60009054906101000a900473ffffffffffffffffffffffffffffffffffffffff1673ffffffffffffffffffffffffffffffffffffffff163373ffffffffffffffffffffffffffffffffffffffff16146112bb576040517f08c379a00000000000000000000000000000000000000000000000000000000081526004018080602001828103825260248152602001806126976024913960400191505060405180910390fd5b600360008154809291906001019190505550604051806080016040528060035481526020018381526020018281526020016000815250600080600354815260200190815260200160002060008201518160000155602082015181600101908051906020019061132b9291906124c9565b5060408201518160020190805190602001906113489291906124c9565b50606082015181600301559050505050565b60035481565b60008160405160200180807f19457468657265756d205369676e6564204d6573736167653a0a333200000000815250601c01828152602001915050604051602081830303815290604052805190602001209050919050565b6000602052806000526040600020600091509050806000015490806001018054600181600116156101000203166002900480601f01602080910402602001604051908101604052809291908181526020018280546001816001161561010002031660029004801561146a5780601f1061143f5761010080835404028352916020019161146a565b820191906000526020600020905b81548152906001019060200180831161144d57829003601f168201915b505050505090806002018054600181600116156101000203166002900480601f0160208091040260200160405190810160405280929190818152602001828054600181600116156101000203166002900480156115085780601f106114dd57610100808354040283529160200191611508565b820191906000526020600020905b8154815290600101906020018083116114eb57829003601f168201915b5050505050908060030154905084565b600080611524846116d6565b9050600061153182611360565b9050600a60009054906101000a900473ffffffffffffffffffffffffffffffffffffffff1673ffffffffffffffffffffffffffffffffffffffff16611576828661118e565b73ffffffffffffffffffffffffffffffffffffffff16149250505092915050565b6000816040516020018080602001828103825283818151815260200191508051906020019080838360005b838110156115dd5780820151818401526020810190506115c2565b50505050905090810190601f16801561160a5780820380516001836020036101000a031916815260200191505b5092505050604051602081830303815290604052805190602001209050919050565b60095481565b6000600b5442101580156116475750600c5442105b6116b9576040517f08c379a00000000000000000000000000000000000000000000000000000000081526004018080602001828103825260168152602001807f566f74696e67206e6f7420696e2050726f67726573730000000000000000000081525060200191505060405180910390fd5b600c5442106116cb57600090506116d3565b42600c540390505b90565b6000816040516020018082805190602001908083835b6020831061170f57805182526020820191506020810190506020830392506116ec565b6001836020036101000a038019825116818451168082178552505050505050905001915050604051602081830303815290604052805190602001209050919050565b6000339050600061176186611597565b90506000600160008473ffffffffffffffffffffffffffffffffffffffff1673ffffffffffffffffffffffffffffffffffffffff16815260200190815260200160002090508060050160009054906101000a900460ff161561180e576040517f08c379a00000000000000000000000000000000000000000000000000000000081526004018080602001828103825260218152602001806126766021913960400191505060405180910390fd5b600073ffffffffffffffffffffffffffffffffffffffff166002600084815260200190815260200160002060009054906101000a900473ffffffffffffffffffffffffffffffffffffffff1673ffffffffffffffffffffffffffffffffffffffff16146118e3576040517f08c379a000000000000000000000000000000000000000000000000000000000815260040180806020018281038252601a8152602001807f506572736f6e616c20494420616c726561647920696e2075736500000000000081525060200191505060405180910390fd5b6005600081548092919060010191905055506040518061010001604052808381526020016000151581526020018473ffffffffffffffffffffffffffffffffffffffff168152602001878152602001868152602001858152602001600115158152602001600554815250600160008573ffffffffffffffffffffffffffffffffffffffff1673ffffffffffffffffffffffffffffffffffffffff1681526020019081526020016000206000820151816000015560208201518160010160006101000a81548160ff02191690831515021790555060408201518160010160016101000a81548173ffffffffffffffffffffffffffffffffffffffff021916908373ffffffffffffffffffffffffffffffffffffffff1602179055506060820151816002019080519060200190611a199291906124c9565b506080820151816003019080519060200190611a369291906124c9565b5060a0820151816004019080519060200190611a539291906124c9565b5060c08201518160050160006101000a81548160ff02191690831515021790555060e08201518160060155905050826002600084815260200190815260200160002060006101000a81548173ffffffffffffffffffffffffffffffffffffffff021916908373ffffffffffffffffffffffffffffffffffffffff16021790555050505050505050565b600a60009054906101000a900473ffffffffffffffffffffffffffffffffffffffff1673ffffffffffffffffffffffffffffffffffffffff163373ffffffffffffffffffffffffffffffffffffffff1614611b82576040517f08c379a00000000000000000000000000000000000000000000000000000000081526004018080602001828103825260248152602001806126976024913960400191505060405180910390fd5b6000600981905550600660095460038110611b9957fe5b0160049080546001816001161561010002031660029004611bbb929190612549565b50611c306040518060400160405280600b81526020017f43616e64696461746520310000000000000000000000000000000000000000008152506040518060400160405280600381526020017f4545460000000000000000000000000000000000000000000000000000000000815250611215565b611ca46040518060400160405280600b81526020017f43616e64696461746520320000000000000000000000000000000000000000008152506040518060400160405280600381526020017f4142430000000000000000000000000000000000000000000000000000000000815250611215565b611d186040518060400160405280600b81526020017f43616e64696461746520330000000000000000000000000000000000000000008152506040518060400160405280600281526020017f4241000000000000000000000000000000000000000000000000000000000000815250611215565b611d8c6040518060400160405280600b81526020017f43616e64696461746520340000000000000000000000000000000000000000008152506040518060400160405280600381526020017f4e46500000000000000000000000000000000000000000000000000000000000815250611215565b611d9461240f565b565b600a60009054906101000a900473ffffffffffffffffffffffffffffffffffffffff1673ffffffffffffffffffffffffffffffffffffffff163373ffffffffffffffffffffffffffffffffffffffff1614611e3c576040517f08c379a00000000000000000000000000000000000000000000000000000000081526004018080602001828103825260248152602001806126976024913960400191505060405180910390fd5b8060049080519060200190611e529291906125d0565b5050565b600c5481565b6000600160003373ffffffffffffffffffffffffffffffffffffffff1673ffffffffffffffffffffffffffffffffffffffff16815260200190815260200160002060010160009054906101000a900460ff16905090565b60055481565b60016020528060005260406000206000915090508060000154908060010160009054906101000a900460ff16908060010160019054906101000a900473ffffffffffffffffffffffffffffffffffffffff1690806002018054600181600116156101000203166002900480601f016020809104026020016040519081016040528092919081815260200182805460018160011615610100020316600290048015611fa45780601f10611f7957610100808354040283529160200191611fa4565b820191906000526020600020905b815481529060010190602001808311611f8757829003601f168201915b505050505090806003018054600181600116156101000203166002900480601f0160208091040260200160405190810160405280929190818152602001828054600181600116156101000203166002900480156120425780601f1061201757610100808354040283529160200191612042565b820191906000526020600020905b81548152906001019060200180831161202557829003601f168201915b505050505090806004018054600181600116156101000203166002900480601f0160208091040260200160405190810160405280929190818152602001828054600181600116156101000203166002900480156120e05780601f106120b5576101008083540402835291602001916120e0565b820191906000526020600020905b8154815290600101906020018083116120c357829003601f168201915b5050505050908060050160009054906101000a900460ff16908060060154905088565b60048054600181600116156101000203166002900480601f0160208091040260200160405190810160405280929190818152602001828054600181600116156101000203166002900480156121995780601f1061216e57610100808354040283529160200191612199565b820191906000526020600020905b81548152906001019060200180831161217c57829003601f168201915b505050505081565b6000600160003373ffffffffffffffffffffffffffffffffffffffff1673ffffffffffffffffffffffffffffffffffffffff16815260200190815260200160002060050160009054906101000a900460ff16905090565b60026020528060005260406000206000915054906101000a900473ffffffffffffffffffffffffffffffffffffffff1681565b600a60009054906101000a900473ffffffffffffffffffffffffffffffffffffffff1673ffffffffffffffffffffffffffffffffffffffff163373ffffffffffffffffffffffffffffffffffffffff16146122d1576040517f08c379a00000000000000000000000000000000000000000000000000000000081526004018080602001828103825260248152602001806126976024913960400191505060405180910390fd5b60096000815480929190600101919050555060036009541015612325576006600954600381106122fd57fe5b016004908054600181600116156101000203166002900461231f929190612549565b50612372565b6040518060400160405280600381526020017f656e640000000000000000000000000000000000000000000000000000000000815250600490805190602001906123709291906125d0565b505b565b600080600060418451146123f0576040517f08c379a00000000000000000000000000000000000000000000000000000000081526004018080602001828103825260188152602001807f696e76616c6964207369676e6174757265206c656e677468000000000000000081525060200191505060405180910390fd5b6020840151925060408401519150606084015160001a90509193909250565b600a60009054906101000a900473ffffffffffffffffffffffffffffffffffffffff1673ffffffffffffffffffffffffffffffffffffffff163373ffffffffffffffffffffffffffffffffffffffff16146124b5576040517f08c379a00000000000000000000000000000000000000000000000000000000081526004018080602001828103825260248152602001806126976024913960400191505060405180910390fd5b42600b81905550612a304201600c81905550565b828054600181600116156101000203166002900490600052602060002090601f016020900481019282601f1061250a57805160ff1916838001178555612538565b82800160010185558215612538579182015b8281111561253757825182559160200191906001019061251c565b5b5090506125459190612650565b5090565b828054600181600116156101000203166002900490600052602060002090601f016020900481019282601f1061258257805485556125bf565b828001600101855582156125bf57600052602060002091601f016020900482015b828111156125be5782548255916001019190600101906125a3565b5b5090506125cc9190612650565b5090565b828054600181600116156101000203166002900490600052602060002090601f016020900481019282601f1061261157805160ff191683800117855561263f565b8280016001018555821561263f579182015b8281111561263e578251825591602001919060010190612623565b5b50905061264c9190612650565b5090565b61267291905b8082111561266e576000816000905550600101612656565b5090565b9056fe546865207075626c6963206164647265737320616c726561647920696e207573654f6e6c792041646d696e2063616e20706572666f726d20746869732066756e6374696f6ea265627a7a7231582079c29a0a9339b96ad56d99eacf8c3919ae259b99e7bf99aa3feaa787f86b0e4064736f6c63430005100032",
  "source": "// SPDX-License-Identifier: MIT \r\npragma solidity >=0.5.0;\r\n\r\ncontract Election { \r\n\r\n    struct voter {\r\n        bytes32 personal_id; //their personal id\r\n        bool hasVoted; //have they voted\r\n        address public_Address; //public address to wallet\r\n        string email; //email address for communication\r\n        string name; //name of voter \r\n        string surname; \r\n        bool isRegistered;\r\n        uint voterPosition;\r\n    }\r\n\r\n\r\n     // Model a Candidate\r\n    struct Candidate {\r\n        uint id;\r\n        string name;\r\n        string party;\r\n        uint voteCount;\r\n    }\r\n\r\n    // Read/write candidate\r\n    mapping(uint => Candidate) public candidates;\r\n\r\n    // Store accounts that have voted\r\n    mapping(address => voter) public voters;\r\n\r\n     // Stores encyrted ID'S\r\n    mapping(bytes32 => address) public verifier;\r\n\r\n    // Store Candidates Count\r\n    uint public candidatesCount;\r\n\r\n    // Stores Election phase\r\n    string public phase;\r\n\r\n    // Store Candidates Count\r\n    uint public votersCount;\r\n\r\n    string[3] phases = [\"registration\" , \"voting\", \"results\"];\r\n    uint public phasePointer;\r\n\r\n    // Admin is set once, when contract is deployed. Also saves gas fees\r\n    address private admin;\r\n    uint256 public votingStart;\r\n    uint256 public votingEnd;\r\n\r\n    constructor() public { \r\n        admin = msg.sender;\r\n        phase=\"ready\";\r\n    } \r\n\r\n    //start time of phase\r\n    function startTime() onlyAdmin internal {\r\n        votingStart = block.timestamp;\r\n        votingEnd = block.timestamp + (180 * 1 minutes); \r\n    }\r\n    \r\n    //change pahse of election\r\n    function changePhase(string memory _phase) onlyAdmin public {\r\n        phase = _phase;\r\n    }\r\n\r\n\r\n    modifier onlyAdmin(){\r\n\t\trequire(msg.sender==admin, \"Only Admin can perform this function\");\r\n\t\t_;\r\n\t}\r\n\r\n       // Add a candidate\r\n    function addCandidate (string memory _name, string memory _party) onlyAdmin public {\r\n        candidatesCount ++;\r\n        candidates[candidatesCount] = Candidate(candidatesCount, _name, _party, 0);\r\n    }\r\n\r\n          // Add a voter\r\n    function addVoter (string memory _personal_id, string memory _email, string memory _name, string memory _surname) public {\r\n            address _pAdress = msg.sender; \r\n            bytes32 encrypt_id = keccak256_encrypt(_personal_id);  //encrypt personal id\r\n            voter storage user = voters[_pAdress];\r\n            require(!user.isRegistered, \"The public address already in use\"); //require that the user is not registered\r\n\r\n            //require that personal_id is not already in use\r\n            require(verifier[encrypt_id] == 0x0000000000000000000000000000000000000000, \"Personal ID already in use\");\r\n            votersCount ++;\r\n            voters[_pAdress] = voter( {personal_id: encrypt_id, \r\n                            hasVoted:false, \r\n                            public_Address:_pAdress,\r\n                            email: _email, \r\n                            name:_name, \r\n                            surname: _surname, \r\n                            isRegistered:true,\r\n                            voterPosition: votersCount\r\n                    });\r\n            verifier[encrypt_id] = _pAdress;\r\n    }\r\n\r\n    //returns true if voter registered\r\n    function isVoter_Registered() public view returns (bool){\r\n        return voters[msg.sender].isRegistered;\r\n    }\r\n\r\n     //returns true if voter registered\r\n    function has_Voted() public view returns (bool){\r\n        return voters[msg.sender].hasVoted;\r\n    }\r\n\r\n    // voting function, all accounts can vote\r\n    function vote (uint _candidateId) public {\r\n\r\n        //must be registered to vote\r\n        require(voters[msg.sender].isRegistered, \"Only registered users can vote\");\r\n\r\n        // require that they haven't voted before\r\n        require(!voters[msg.sender].hasVoted, \"Already Voted\"); \r\n        \r\n\r\n        // require a valid candidate\r\n        require(_candidateId > 0 && _candidateId <= candidatesCount);\r\n\r\n        // record that voter has voted\r\n        voters[msg.sender].hasVoted = true;\r\n\r\n        // update candidate vote Count\r\n        candidates[_candidateId].voteCount ++;\r\n        //where is the data saved\r\n        //describe everything fully-> break it down\r\n    }\r\n\r\n    //change election phase\r\n    function changePhase() onlyAdmin public{\r\n        phasePointer++;\r\n        if (phasePointer <3) {\r\n            phase = phases[phasePointer];\r\n        } else {\r\n            phase = \"end\";\r\n        }\r\n    }\r\n\r\n    //start election\r\n    function startElection() onlyAdmin public {\r\n            phasePointer = 0;\r\n            phase = phases[phasePointer]; //contract is deployed in the registration phase\r\n            addCandidate(\"Candidate 1\", \"EEF\"); \r\n            addCandidate(\"Candidate 2\", \"ABC\");\r\n            addCandidate(\"Candidate 3\", \"BA\");\r\n            addCandidate(\"Candidate 4\", \"NFP\");\r\n            startTime();\r\n    }\r\n\r\n\r\n    //hash function\r\n    function keccak256_encrypt(string memory text) public pure returns (bytes32) {\r\n        return keccak256(abi.encode(text));\r\n    }\r\n\r\n    //get blockchain\r\n    function getTime() public view returns(uint256){\r\n        require(block.timestamp >= votingStart && block.timestamp < votingEnd, \"Voting not in Progress\");\r\n        if (block.timestamp >= votingEnd){\r\n            return 0;\r\n        }\r\n        return votingEnd - block.timestamp;\r\n    }\r\n\r\n\r\n\r\n    //<----------------------------------- Verifies signed message -------------------------------->\r\n    function verify (string memory _message, bytes memory _sig) public view returns (bool) {\r\n        bytes32 hash_SMS = getHash(_message);\r\n        bytes32 ethSignedMessageHash = getEthSignedHash(hash_SMS);\r\n        return recover(ethSignedMessageHash, _sig) == admin;\r\n    }\r\n    \r\n    //has a tring\r\n    function getHash (string memory sms) public pure returns (bytes32){\r\n        return keccak256(abi.encodePacked(sms));\r\n    }\r\n\r\n\r\n    function getEthSignedHash (bytes32 sms) public pure returns (bytes32){\r\n        return keccak256(abi.encodePacked(\"\\x19Ethereum Signed Message:\\n32\", sms));\r\n    }\r\n\r\n\r\n    //recover account of original signer of message\r\n    function recover(bytes32 _ethSignedMessageHash, bytes memory _sig) public pure returns (address){\r\n            (bytes32 r, bytes32 s, uint8 v) = _split(_sig); //split signature into params\r\n            return ecrecover(_ethSignedMessageHash, v, r, s); //returns the address of the signer given the signed message\r\n    }\r\n\r\n    function _split(bytes memory _sig) internal pure returns (bytes32 r, bytes32 s, uint8 v){\r\n            require(_sig.length == 65, \"invalid signature length\");\r\n\r\n            assembly {\r\n                r := mload(add(_sig, 32))  //skip first 32-byetes as they hold the length\r\n                s := mload(add(_sig, 64))\r\n                v := byte(0, mload(add(_sig, 96)))\r\n\r\n            }\r\n    }\r\n\r\n}",
  "sourcePath": "C:\\Users\\Student\\Downloads\\crypto\\Code\\contracts\\Election.sol",
  "compiler": {
    "name": "solc",
    "version": "0.5.16+commit.9c3226ce.Emscripten.clang"
  },
  "schemaVersion": "3.4.16",
  "updatedAt": "2023-09-19T13:21:35.490Z",
  "networkType": "ethereum",
  "devdoc": {
    "methods": {}
  },
  "userdoc": {
    "methods": {}
  }
}