{
  "contractName": "Election",
  "abi": [
    {
      "inputs": [],
      "payable": false,
      "stateMutability": "nonpayable",
      "type": "constructor"
    },
    {
      "constant": true,
      "inputs": [
        {
          "internalType": "uint256",
          "name": "",
          "type": "uint256"
        }
      ],
      "name": "candidates",
      "outputs": [
        {
          "internalType": "uint256",
          "name": "id",
          "type": "uint256"
        },
        {
          "internalType": "string",
          "name": "name",
          "type": "string"
        },
        {
          "internalType": "string",
          "name": "party",
          "type": "string"
        },
        {
          "internalType": "uint256",
          "name": "voteCount",
          "type": "uint256"
        }
      ],
      "payable": false,
      "stateMutability": "view",
      "type": "function"
    },
    {
      "constant": true,
      "inputs": [],
      "name": "candidatesCount",
      "outputs": [
        {
          "internalType": "uint256",
          "name": "",
          "type": "uint256"
        }
      ],
      "payable": false,
      "stateMutability": "view",
      "type": "function"
    },
    {
      "constant": true,
      "inputs": [],
      "name": "numVotes",
      "outputs": [
        {
          "internalType": "uint256",
          "name": "",
          "type": "uint256"
        }
      ],
      "payable": false,
      "stateMutability": "view",
      "type": "function"
    },
    {
      "constant": true,
      "inputs": [],
      "name": "p1Holder",
      "outputs": [
        {
          "internalType": "uint256",
          "name": "",
          "type": "uint256"
        }
      ],
      "payable": false,
      "stateMutability": "view",
      "type": "function"
    },
    {
      "constant": true,
      "inputs": [],
      "name": "p2Holder",
      "outputs": [
        {
          "internalType": "uint256",
          "name": "",
          "type": "uint256"
        }
      ],
      "payable": false,
      "stateMutability": "view",
      "type": "function"
    },
    {
      "constant": true,
      "inputs": [],
      "name": "phase",
      "outputs": [
        {
          "internalType": "string",
          "name": "",
          "type": "string"
        }
      ],
      "payable": false,
      "stateMutability": "view",
      "type": "function"
    },
    {
      "constant": true,
      "inputs": [],
      "name": "phasePointer",
      "outputs": [
        {
          "internalType": "uint256",
          "name": "",
          "type": "uint256"
        }
      ],
      "payable": false,
      "stateMutability": "view",
      "type": "function"
    },
    {
      "constant": true,
      "inputs": [],
      "name": "votersCount",
      "outputs": [
        {
          "internalType": "uint256",
          "name": "",
          "type": "uint256"
        }
      ],
      "payable": false,
      "stateMutability": "view",
      "type": "function"
    },
    {
      "constant": true,
      "inputs": [],
      "name": "votingEnd",
      "outputs": [
        {
          "internalType": "uint256",
          "name": "",
          "type": "uint256"
        }
      ],
      "payable": false,
      "stateMutability": "view",
      "type": "function"
    },
    {
      "constant": true,
      "inputs": [],
      "name": "votingStart",
      "outputs": [
        {
          "internalType": "uint256",
          "name": "",
          "type": "uint256"
        }
      ],
      "payable": false,
      "stateMutability": "view",
      "type": "function"
    },
    {
      "constant": true,
      "inputs": [
        {
          "internalType": "uint256",
          "name": "",
          "type": "uint256"
        }
      ],
      "name": "votingTrails",
      "outputs": [
        {
          "internalType": "string",
          "name": "ref",
          "type": "string"
        },
        {
          "internalType": "string",
          "name": "voteDate",
          "type": "string"
        },
        {
          "internalType": "string",
          "name": "voteTime",
          "type": "string"
        },
        {
          "internalType": "bool",
          "name": "isVerified",
          "type": "bool"
        }
      ],
      "payable": false,
      "stateMutability": "view",
      "type": "function"
    },
    {
      "constant": false,
      "inputs": [
        {
          "internalType": "string",
          "name": "_name",
          "type": "string"
        },
        {
          "internalType": "string",
          "name": "_party",
          "type": "string"
        }
      ],
      "name": "addCandidate",
      "outputs": [],
      "payable": false,
      "stateMutability": "nonpayable",
      "type": "function"
    },
    {
      "constant": false,
      "inputs": [
        {
          "internalType": "string",
          "name": "_personal_id",
          "type": "string"
        },
        {
          "internalType": "string",
          "name": "_email",
          "type": "string"
        },
        {
          "internalType": "string",
          "name": "_name",
          "type": "string"
        },
        {
          "internalType": "string",
          "name": "_surname",
          "type": "string"
        },
        {
          "internalType": "string",
          "name": "_ref",
          "type": "string"
        }
      ],
      "name": "addVoter",
      "outputs": [],
      "payable": false,
      "stateMutability": "nonpayable",
      "type": "function"
    },
    {
      "constant": true,
      "inputs": [],
      "name": "getVoter",
      "outputs": [
        {
          "internalType": "string",
          "name": "",
          "type": "string"
        },
        {
          "internalType": "string",
          "name": "",
          "type": "string"
        },
        {
          "internalType": "string",
          "name": "",
          "type": "string"
        },
        {
          "internalType": "string",
          "name": "",
          "type": "string"
        },
        {
          "internalType": "bool",
          "name": "",
          "type": "bool"
        },
        {
          "internalType": "bool",
          "name": "",
          "type": "bool"
        },
        {
          "internalType": "bool",
          "name": "",
          "type": "bool"
        }
      ],
      "payable": false,
      "stateMutability": "view",
      "type": "function"
    },
    {
      "constant": true,
      "inputs": [],
      "name": "isVoter_Registered",
      "outputs": [
        {
          "internalType": "bool",
          "name": "",
          "type": "bool"
        }
      ],
      "payable": false,
      "stateMutability": "view",
      "type": "function"
    },
    {
      "constant": true,
      "inputs": [],
      "name": "random",
      "outputs": [
        {
          "internalType": "uint256",
          "name": "",
          "type": "uint256"
        }
      ],
      "payable": false,
      "stateMutability": "view",
      "type": "function"
    },
    {
      "constant": true,
      "inputs": [],
      "name": "has_Voted",
      "outputs": [
        {
          "internalType": "bool",
          "name": "",
          "type": "bool"
        }
      ],
      "payable": false,
      "stateMutability": "view",
      "type": "function"
    },
    {
      "constant": false,
      "inputs": [
        {
          "internalType": "uint256",
          "name": "_candidateId",
          "type": "uint256"
        },
        {
          "internalType": "string",
          "name": "_date",
          "type": "string"
        },
        {
          "internalType": "string",
          "name": "_time",
          "type": "string"
        }
      ],
      "name": "vote",
      "outputs": [],
      "payable": false,
      "stateMutability": "nonpayable",
      "type": "function"
    },
    {
      "constant": true,
      "inputs": [],
      "name": "copyKeys",
      "outputs": [
        {
          "internalType": "uint256",
          "name": "",
          "type": "uint256"
        },
        {
          "internalType": "uint256",
          "name": "",
          "type": "uint256"
        }
      ],
      "payable": false,
      "stateMutability": "view",
      "type": "function"
    },
    {
      "constant": false,
      "inputs": [
        {
          "internalType": "uint256",
          "name": "_key1",
          "type": "uint256"
        },
        {
          "internalType": "uint256",
          "name": "_key2",
          "type": "uint256"
        },
        {
          "internalType": "uint256",
          "name": "_votePosition",
          "type": "uint256"
        }
      ],
      "name": "verifyVote",
      "outputs": [],
      "payable": false,
      "stateMutability": "nonpayable",
      "type": "function"
    },
    {
      "constant": true,
      "inputs": [
        {
          "internalType": "uint256",
          "name": "position",
          "type": "uint256"
        }
      ],
      "name": "getTrailer",
      "outputs": [
        {
          "internalType": "bool",
          "name": "",
          "type": "bool"
        }
      ],
      "payable": false,
      "stateMutability": "view",
      "type": "function"
    },
    {
      "constant": false,
      "inputs": [],
      "name": "startElection",
      "outputs": [],
      "payable": false,
      "stateMutability": "nonpayable",
      "type": "function"
    },
    {
      "constant": false,
      "inputs": [],
      "name": "changePhase",
      "outputs": [],
      "payable": false,
      "stateMutability": "nonpayable",
      "type": "function"
    },
    {
      "constant": true,
      "inputs": [
        {
          "internalType": "string",
          "name": "text",
          "type": "string"
        }
      ],
      "name": "keccak256_encrypt",
      "outputs": [
        {
          "internalType": "bytes32",
          "name": "",
          "type": "bytes32"
        }
      ],
      "payable": false,
      "stateMutability": "pure",
      "type": "function"
    },
    {
      "constant": true,
      "inputs": [],
      "name": "getWinner",
      "outputs": [
        {
          "internalType": "string",
          "name": "",
          "type": "string"
        }
      ],
      "payable": false,
      "stateMutability": "view",
      "type": "function"
    },
    {
      "constant": true,
      "inputs": [
        {
          "internalType": "string",
          "name": "_message",
          "type": "string"
        },
        {
          "internalType": "bytes",
          "name": "_sig",
          "type": "bytes"
        }
      ],
      "name": "verify",
      "outputs": [
        {
          "internalType": "bool",
          "name": "",
          "type": "bool"
        }
      ],
      "payable": false,
      "stateMutability": "view",
      "type": "function"
    },
    {
      "constant": true,
      "inputs": [
        {
          "internalType": "string",
          "name": "sms",
          "type": "string"
        }
      ],
      "name": "getHash",
      "outputs": [
        {
          "internalType": "bytes32",
          "name": "",
          "type": "bytes32"
        }
      ],
      "payable": false,
      "stateMutability": "pure",
      "type": "function"
    },
    {
      "constant": true,
      "inputs": [
        {
          "internalType": "bytes32",
          "name": "sms",
          "type": "bytes32"
        }
      ],
      "name": "getEthSignedHash",
      "outputs": [
        {
          "internalType": "bytes32",
          "name": "",
          "type": "bytes32"
        }
      ],
      "payable": false,
      "stateMutability": "pure",
      "type": "function"
    },
    {
      "constant": true,
      "inputs": [
        {
          "internalType": "bytes32",
          "name": "_ethSignedMessageHash",
          "type": "bytes32"
        },
        {
          "internalType": "bytes",
          "name": "_sig",
          "type": "bytes"
        }
      ],
      "name": "recover",
      "outputs": [
        {
          "internalType": "address",
          "name": "",
          "type": "address"
        }
      ],
      "payable": false,
      "stateMutability": "pure",
      "type": "function"
    }
  ],
  "bytecode": "0x608060405260405180606001604052806040518060400160405280600c81526020017f726567697374726174696f6e000000000000000000000000000000000000000081525081526020016040518060400160405280600681526020017f766f74696e67000000000000000000000000000000000000000000000000000081525081526020016040518060400160405280600781526020017f726573756c747300000000000000000000000000000000000000000000000000815250815250600b906003620000d092919062000174565b50348015620000de57600080fd5b5033600f60006101000a81548173ffffffffffffffffffffffffffffffffffffffff021916908373ffffffffffffffffffffffffffffffffffffffff1602179055506040518060400160405280601881526020017f456c656374696f6e20686173206e6f7420737461727465640000000000000000815250600890805190602001906200016d929190620001ce565b5062000381565b8260038101928215620001bb579160200282015b82811115620001ba578251829080519060200190620001a992919062000255565b509160200191906001019062000188565b5b509050620001ca9190620002dc565b5090565b828054600181600116156101000203166002900490600052602060002090601f016020900481019282601f106200021157805160ff191683800117855562000242565b8280016001018555821562000242579182015b828111156200024157825182559160200191906001019062000224565b5b5090506200025191906200030d565b5090565b828054600181600116156101000203166002900490600052602060002090601f016020900481019282601f106200029857805160ff1916838001178555620002c9565b82800160010185558215620002c9579182015b82811115620002c8578251825591602001919060010190620002ab565b5b509050620002d891906200030d565b5090565b6200030a91905b80821115620003065760008181620002fc919062000335565b50600101620002e3565b5090565b90565b6200033291905b808211156200032e57600081600090555060010162000314565b5090565b90565b50805460018160011615610100020316600290046000825580601f106200035d57506200037e565b601f0160209004906000526020600020908101906200037d91906200030d565b5b50565b613f6680620003916000396000f3fe608060405234801561001057600080fd5b50600436106101cf5760003560e01c806362d73eb811610104578063b1c9fe6e116100a2578063db6f595311610071578063db6f595314610ecb578063e153335114610ed5578063e3c0327d14610ef3578063f731d0e91461107d576101cf565b8063b1c9fe6e14610de3578063b8fac10a14610e66578063d0a6a87014610e84578063d25773b714610ea9576101cf565b806398b8b43d116100de57806398b8b43d14610c2957806398c0793814610c4b578063a3bef4d714610c69578063b108475914610c87576101cf565b806362d73eb814610b7e57806385a3863514610b885780638e7ea5b214610ba6576101cf565b80632f4ea5ea116101715780633fee76dc1161014b5780633fee76dc146109a457806344fd417f14610a735780635b6beeb914610a915780635ec01e4d14610b60576101cf565b80632f4ea5ea146106d75780633477ee2e146107195780633d9ffad51461083a576101cf565b806326541b56116101ad57806326541b561461033d5780632a61d5681461048f5780632b37f53c146104d15780632d35a8a2146106b9576101cf565b80630544e753146101d4578063101158af1461021a57806319045a2514610238575b600080fd5b610200600480360360208110156101ea57600080fd5b8101908080359060200190929190505050611394565b604051808215151515815260200191505060405180910390f35b6102226113c1565b6040518082815260200191505060405180910390f35b6102fb6004803603604081101561024e57600080fd5b81019080803590602001909291908035906020019064010000000081111561027557600080fd5b82018360208201111561028757600080fd5b803590602001918460018302840111640100000000831117156102a957600080fd5b91908080601f016020809104026020016040519081016040528093929190818152602001838380828437600081840152601f19601f8201169050808301925050505050505091929192905050506113c7565b604051808273ffffffffffffffffffffffffffffffffffffffff1673ffffffffffffffffffffffffffffffffffffffff16815260200191505060405180910390f35b61048d6004803603604081101561035357600080fd5b810190808035906020019064010000000081111561037057600080fd5b82018360208201111561038257600080fd5b803590602001918460018302840111640100000000831117156103a457600080fd5b91908080601f016020809104026020016040519081016040528093929190818152602001838380828437600081840152601f19601f8201169050808301925050505050505091929192908035906020019064010000000081111561040757600080fd5b82018360208201111561041957600080fd5b8035906020019184600183028401116401000000008311171561043b57600080fd5b91908080601f016020809104026020016040519081016040528093929190818152602001838380828437600081840152601f19601f82011690508083019250505050505050919291929050505061144e565b005b6104cf600480360360608110156104a557600080fd5b810190808035906020019092919080359060200190929190803590602001909291905050506115ef565b005b6104d96119f5565b604051808060200180602001806020018060200188151515158152602001871515151581526020018615151515815260200185810385528c818151815260200191508051906020019080838360005b83811015610543578082015181840152602081019050610528565b50505050905090810190601f1680156105705780820380516001836020036101000a031916815260200191505b5085810384528b818151815260200191508051906020019080838360005b838110156105a957808201518184015260208101905061058e565b50505050905090810190601f1680156105d65780820380516001836020036101000a031916815260200191505b5085810383528a818151815260200191508051906020019080838360005b8381101561060f5780820151818401526020810190506105f4565b50505050905090810190601f16801561063c5780820380516001836020036101000a031916815260200191505b50858103825289818151815260200191508051906020019080838360005b8381101561067557808201518184015260208101905061065a565b50505050905090810190601f1680156106a25780820380516001836020036101000a031916815260200191505b509b50505050505050505050505060405180910390f35b6106c1611e7f565b6040518082815260200191505060405180910390f35b610703600480360360208110156106ed57600080fd5b8101908080359060200190929190505050611e85565b6040518082815260200191505060405180910390f35b6107456004803603602081101561072f57600080fd5b8101908080359060200190929190505050611edd565b604051808581526020018060200180602001848152602001838103835286818151815260200191508051906020019080838360005b8381101561079557808201518184015260208101905061077a565b50505050905090810190601f1680156107c25780820380516001836020036101000a031916815260200191505b50838103825285818151815260200191508051906020019080838360005b838110156107fb5780820151818401526020810190506107e0565b50505050905090810190601f1680156108285780820380516001836020036101000a031916815260200191505b50965050505050505060405180910390f35b61098a6004803603604081101561085057600080fd5b810190808035906020019064010000000081111561086d57600080fd5b82018360208201111561087f57600080fd5b803590602001918460018302840111640100000000831117156108a157600080fd5b91908080601f016020809104026020016040519081016040528093929190818152602001838380828437600081840152601f19601f8201169050808301925050505050505091929192908035906020019064010000000081111561090457600080fd5b82018360208201111561091657600080fd5b8035906020019184600183028401116401000000008311171561093857600080fd5b91908080601f016020809104026020016040519081016040528093929190818152602001838380828437600081840152601f19601f82011690508083019250505050505050919291929050505061203d565b604051808215151515815260200191505060405180910390f35b610a5d600480360360208110156109ba57600080fd5b81019080803590602001906401000000008111156109d757600080fd5b8201836020820111156109e957600080fd5b80359060200191846001830284011164010000000083111715610a0b57600080fd5b91908080601f016020809104026020016040519081016040528093929190818152602001838380828437600081840152601f19601f8201169050808301925050505050505091929192905050506120bc565b6040518082815260200191505060405180910390f35b610a7b612151565b6040518082815260200191505060405180910390f35b610b4a60048036036020811015610aa757600080fd5b8101908080359060200190640100000000811115610ac457600080fd5b820183602082011115610ad657600080fd5b80359060200191846001830284011164010000000083111715610af857600080fd5b91908080601f016020809104026020016040519081016040528093929190818152602001838380828437600081840152601f19601f820116905080830192505050505050509192919290505050612157565b6040518082815260200191505060405180910390f35b610b686121d2565b6040518082815260200191505060405180910390f35b610b8661223a565b005b610b906123a4565b6040518082815260200191505060405180910390f35b610bae6123aa565b6040518080602001828103825283818151815260200191508051906020019080838360005b83811015610bee578082015181840152602081019050610bd3565b50505050905090810190601f168015610c1b5780820380516001836020036101000a031916815260200191505b509250505060405180910390f35b610c316124d9565b604051808215151515815260200191505060405180910390f35b610c53612530565b6040518082815260200191505060405180910390f35b610c71612536565b6040518082815260200191505060405180910390f35b610de160048036036060811015610c9d57600080fd5b810190808035906020019092919080359060200190640100000000811115610cc457600080fd5b820183602082011115610cd657600080fd5b80359060200191846001830284011164010000000083111715610cf857600080fd5b91908080601f016020809104026020016040519081016040528093929190818152602001838380828437600081840152601f19601f82011690508083019250505050505050919291929080359060200190640100000000811115610d5b57600080fd5b820183602082011115610d6d57600080fd5b80359060200191846001830284011164010000000083111715610d8f57600080fd5b91908080601f016020809104026020016040519081016040528093929190818152602001838380828437600081840152601f19601f82011690508083019250505050505050919291929050505061253c565b005b610deb61294d565b6040518080602001828103825283818151815260200191508051906020019080838360005b83811015610e2b578082015181840152602081019050610e10565b50505050905090810190601f168015610e585780820380516001836020036101000a031916815260200191505b509250505060405180910390f35b610e6e6129eb565b6040518082815260200191505060405180910390f35b610e8c6129f1565b604051808381526020018281526020019250505060405180910390f35b610eb1612aac565b604051808215151515815260200191505060405180910390f35b610ed3612b03565b005b610edd612c4c565b6040518082815260200191505060405180910390f35b610f1f60048036036020811015610f0957600080fd5b8101908080359060200190929190505050612c52565b6040518080602001806020018060200185151515158152602001848103845288818151815260200191508051906020019080838360005b83811015610f71578082015181840152602081019050610f56565b50505050905090810190601f168015610f9e5780820380516001836020036101000a031916815260200191505b50848103835287818151815260200191508051906020019080838360005b83811015610fd7578082015181840152602081019050610fbc565b50505050905090810190601f1680156110045780820380516001836020036101000a031916815260200191505b50848103825286818151815260200191508051906020019080838360005b8381101561103d578082015181840152602081019050611022565b50505050905090810190601f16801561106a5780820380516001836020036101000a031916815260200191505b5097505050505050505060405180910390f35b611392600480360360a081101561109357600080fd5b81019080803590602001906401000000008111156110b057600080fd5b8201836020820111156110c257600080fd5b803590602001918460018302840111640100000000831117156110e457600080fd5b91908080601f016020809104026020016040519081016040528093929190818152602001838380828437600081840152601f19601f8201169050808301925050505050505091929192908035906020019064010000000081111561114757600080fd5b82018360208201111561115957600080fd5b8035906020019184600183028401116401000000008311171561117b57600080fd5b91908080601f016020809104026020016040519081016040528093929190818152602001838380828437600081840152601f19601f820116905080830192505050505050509192919290803590602001906401000000008111156111de57600080fd5b8201836020820111156111f057600080fd5b8035906020019184600183028401116401000000008311171561121257600080fd5b91908080601f016020809104026020016040519081016040528093929190818152602001838380828437600081840152601f19601f8201169050808301925050505050505091929192908035906020019064010000000081111561127557600080fd5b82018360208201111561128757600080fd5b803590602001918460018302840111640100000000831117156112a957600080fd5b91908080601f016020809104026020016040519081016040528093929190818152602001838380828437600081840152601f19601f8201169050808301925050505050505091929192908035906020019064010000000081111561130c57600080fd5b82018360208201111561131e57600080fd5b8035906020019184600183028401116401000000008311171561134057600080fd5b91908080601f016020809104026020016040519081016040528093929190818152602001838380828437600081840152601f19601f820116905080830192505050505050509192919290505050612e57565b005b60006002600083815260200190815260200160002060030160009054906101000a900460ff169050919050565b60105481565b6000806000806113d685613348565b92509250925060018682858560405160008152602001604052604051808581526020018460ff1660ff1681526020018381526020018281526020019450505050506020604051602081039080840390855afa158015611439573d6000803e3d6000fd5b50505060206040510351935050505092915050565b600f60009054906101000a900473ffffffffffffffffffffffffffffffffffffffff1673ffffffffffffffffffffffffffffffffffffffff163373ffffffffffffffffffffffffffffffffffffffff16146114f4576040517f08c379a0000000000000000000000000000000000000000000000000000000008152600401808060200182810382526024815260200180613f0e6024913960400191505060405180910390fd5b6000600e541115611550576040517f08c379a000000000000000000000000000000000000000000000000000000000815260040180806020018281038252602b815260200180613ec2602b913960400191505060405180910390fd5b60056000815480929190600101919050555060405180608001604052806005548152602001838152602001828152602001600081525060008060055481526020019081526020016000206000820151816000015560208201518160010190805190602001906115c0929190613cf3565b5060408201518160020190805190602001906115dd929190613cf3565b50606082015181600301559050505050565b600160003373ffffffffffffffffffffffffffffffffffffffff1673ffffffffffffffffffffffffffffffffffffffff16815260200190815260200160002060060160009054906101000a900460ff166116b1576040517f08c379a000000000000000000000000000000000000000000000000000000000815260040180806020018281038252601e8152602001807f4f6e6c7920726567697374657265642075736572732063616e20766f7465000081525060200191505060405180910390fd5b600160003373ffffffffffffffffffffffffffffffffffffffff1673ffffffffffffffffffffffffffffffffffffffff16815260200190815260200160002060010160009054906101000a900460ff16611773576040517f08c379a000000000000000000000000000000000000000000000000000000000815260040180806020018281038252600d8152602001807f416c726561647920566f7465640000000000000000000000000000000000000081525060200191505060405180910390fd5b600081101580156117855750600a5481105b61178e57600080fd5b600160003373ffffffffffffffffffffffffffffffffffffffff1673ffffffffffffffffffffffffffffffffffffffff16815260200190815260200160002060080160009054906101000a900460ff1615611851576040517f08c379a00000000000000000000000000000000000000000000000000000000081526004018080602001828103825260138152602001807f566f74657220616c726561647920766f7465640000000000000000000000000081525060200191505060405180910390fd5b600080611904600160003373ffffffffffffffffffffffffffffffffffffffff1673ffffffffffffffffffffffffffffffffffffffff168152602001908152602001600020600701547f79be667ef9dcbbac55a06295ce870b07029bfcdb2dce28d959f2815b16f817987f483ada7726a3c4655da4fbfc0e1108a8fd17b448a68554199c47d08ffb10d4b860007ffffffffffffffffffffffffffffffffffffffffffffffffffffffffefffffc2f6133e3565b915091506119378585848460007ffffffffffffffffffffffffffffffffffffffffffffffffffffffffefffffc2f61341d565b6006600060076000849190505583919050555050600060065414801561195f57506000600754145b156119ee5760016002600085815260200190815260200160002060030160006101000a81548160ff02191690831515021790555060018060003373ffffffffffffffffffffffffffffffffffffffff1673ffffffffffffffffffffffffffffffffffffffff16815260200190815260200160002060080160006101000a81548160ff0219169083151502179055505b5050505050565b6060806060806000806000600160003373ffffffffffffffffffffffffffffffffffffffff1673ffffffffffffffffffffffffffffffffffffffff168152602001908152602001600020600301600160003373ffffffffffffffffffffffffffffffffffffffff1673ffffffffffffffffffffffffffffffffffffffff168152602001908152602001600020600401600160003373ffffffffffffffffffffffffffffffffffffffff1673ffffffffffffffffffffffffffffffffffffffff168152602001908152602001600020600201600160003373ffffffffffffffffffffffffffffffffffffffff1673ffffffffffffffffffffffffffffffffffffffff168152602001908152602001600020600501600160003373ffffffffffffffffffffffffffffffffffffffff1673ffffffffffffffffffffffffffffffffffffffff16815260200190815260200160002060060160009054906101000a900460ff16600160003373ffffffffffffffffffffffffffffffffffffffff1673ffffffffffffffffffffffffffffffffffffffff16815260200190815260200160002060010160009054906101000a900460ff16600160003373ffffffffffffffffffffffffffffffffffffffff1673ffffffffffffffffffffffffffffffffffffffff16815260200190815260200160002060080160009054906101000a900460ff16868054600181600116156101000203166002900480601f016020809104026020016040519081016040528092919081815260200182805460018160011615610100020316600290048015611c8d5780601f10611c6257610100808354040283529160200191611c8d565b820191906000526020600020905b815481529060010190602001808311611c7057829003601f168201915b50505050509650858054600181600116156101000203166002900480601f016020809104026020016040519081016040528092919081815260200182805460018160011615610100020316600290048015611d295780601f10611cfe57610100808354040283529160200191611d29565b820191906000526020600020905b815481529060010190602001808311611d0c57829003601f168201915b50505050509550848054600181600116156101000203166002900480601f016020809104026020016040519081016040528092919081815260200182805460018160011615610100020316600290048015611dc55780601f10611d9a57610100808354040283529160200191611dc5565b820191906000526020600020905b815481529060010190602001808311611da857829003601f168201915b50505050509450838054600181600116156101000203166002900480601f016020809104026020016040519081016040528092919081815260200182805460018160011615610100020316600290048015611e615780601f10611e3657610100808354040283529160200191611e61565b820191906000526020600020905b815481529060010190602001808311611e4457829003601f168201915b50505050509350965096509650965096509650965090919293949596565b60055481565b60008160405160200180807f19457468657265756d205369676e6564204d6573736167653a0a333200000000815250601c01828152602001915050604051602081830303815290604052805190602001209050919050565b6000602052806000526040600020600091509050806000015490806001018054600181600116156101000203166002900480601f016020809104026020016040519081016040528092919081815260200182805460018160011615610100020316600290048015611f8f5780601f10611f6457610100808354040283529160200191611f8f565b820191906000526020600020905b815481529060010190602001808311611f7257829003601f168201915b505050505090806002018054600181600116156101000203166002900480601f01602080910402602001604051908101604052809291908181526020018280546001816001161561010002031660029004801561202d5780601f106120025761010080835404028352916020019161202d565b820191906000526020600020905b81548152906001019060200180831161201057829003601f168201915b5050505050908060030154905084565b60008061204984612157565b9050600061205682611e85565b9050600f60009054906101000a900473ffffffffffffffffffffffffffffffffffffffff1673ffffffffffffffffffffffffffffffffffffffff1661209b82866113c7565b73ffffffffffffffffffffffffffffffffffffffff16149250505092915050565b6000816040516020018080602001828103825283818151815260200191508051906020019080838360005b838110156121025780820151818401526020810190506120e7565b50505050905090810190601f16801561212f5780820380516001836020036101000a031916815260200191505b5092505050604051602081830303815290604052805190602001209050919050565b600e5481565b6000816040516020018082805190602001908083835b60208310612190578051825260208201915060208101905060208303925061216d565b6001836020036101000a038019825116818451168082178552505050505050905001915050604051602081830303815290604052805190602001209050919050565b60004233604051602001808381526020018273ffffffffffffffffffffffffffffffffffffffff1673ffffffffffffffffffffffffffffffffffffffff1660601b8152601401925050506040516020818303038152906040528051906020012060001c905090565b600f60009054906101000a900473ffffffffffffffffffffffffffffffffffffffff1673ffffffffffffffffffffffffffffffffffffffff163373ffffffffffffffffffffffffffffffffffffffff16146122e0576040517f08c379a0000000000000000000000000000000000000000000000000000000008152600401808060200182810382526024815260200180613f0e6024913960400191505060405180910390fd5b6001600e54141580156122f657506002600e5414155b612368576040517f08c379a00000000000000000000000000000000000000000000000000000000081526004018080602001828103825260128152602001807f566f74696e6720696e2070726f6772657373000000000000000000000000000081525060200191505060405180910390fd5b6000600e81905550600b600e546003811061237f57fe5b01600890805460018160011615610100020316600290046123a1929190613d73565b50565b60115481565b60606000600190506000806000600181526020019081526020016000206003015490506000600290505b60055481116124235781600080838152602001908152602001600020600301541115612416578092506000808281526020019081526020016000206003015491505b80806001019150506123d4565b506000808381526020019081526020016000206001018054600181600116156101000203166002900480601f0160208091040260200160405190810160405280929190818152602001828054600181600116156101000203166002900480156124cd5780601f106124a2576101008083540402835291602001916124cd565b820191906000526020600020905b8154815290600101906020018083116124b057829003601f168201915b50505050509250505090565b6000600160003373ffffffffffffffffffffffffffffffffffffffff1673ffffffffffffffffffffffffffffffffffffffff16815260200190815260200160002060010160009054906101000a900460ff16905090565b60095481565b600a5481565b600160003373ffffffffffffffffffffffffffffffffffffffff1673ffffffffffffffffffffffffffffffffffffffff16815260200190815260200160002060060160009054906101000a900460ff166125fe576040517f08c379a000000000000000000000000000000000000000000000000000000000815260040180806020018281038252601e8152602001807f4f6e6c7920726567697374657265642075736572732063616e20766f7465000081525060200191505060405180910390fd5b600160003373ffffffffffffffffffffffffffffffffffffffff1673ffffffffffffffffffffffffffffffffffffffff16815260200190815260200160002060010160009054906101000a900460ff16156126c1576040517f08c379a000000000000000000000000000000000000000000000000000000000815260040180806020018281038252600d8152602001807f416c726561647920566f7465640000000000000000000000000000000000000081525060200191505060405180910390fd5b6000831180156126d357506005548311155b6126dc57600080fd5b60018060003373ffffffffffffffffffffffffffffffffffffffff1673ffffffffffffffffffffffffffffffffffffffff16815260200190815260200160002060010160006101000a81548160ff021916908315150217905550600080848152602001908152602001600020600301600081548092919060010191905055506127636121d2565b600160003373ffffffffffffffffffffffffffffffffffffffff1673ffffffffffffffffffffffffffffffffffffffff168152602001908152602001600020600701819055506040518060800160405280600160003373ffffffffffffffffffffffffffffffffffffffff1673ffffffffffffffffffffffffffffffffffffffff1681526020019081526020016000206005018054600181600116156101000203166002900480601f01602080910402602001604051908101604052809291908181526020018280546001816001161561010002031660029004801561288a5780601f1061285f5761010080835404028352916020019161288a565b820191906000526020600020905b81548152906001019060200180831161286d57829003601f168201915b505050505081526020018381526020018281526020016000151581525060026000600a54815260200190815260200160002060008201518160000190805190602001906128d8929190613cf3565b5060208201518160010190805190602001906128f5929190613cf3565b506040820151816002019080519060200190612912929190613cf3565b5060608201518160030160006101000a81548160ff021916908315150217905550905050600a60008154809291906001019190505550505050565b60088054600181600116156101000203166002900480601f0160208091040260200160405190810160405280929190818152602001828054600181600116156101000203166002900480156129e35780601f106129b8576101008083540402835291602001916129e3565b820191906000526020600020905b8154815290600101906020018083116129c657829003601f168201915b505050505081565b60075481565b600080612aa4600160003373ffffffffffffffffffffffffffffffffffffffff1673ffffffffffffffffffffffffffffffffffffffff168152602001908152602001600020600701547f79be667ef9dcbbac55a06295ce870b07029bfcdb2dce28d959f2815b16f817987f483ada7726a3c4655da4fbfc0e1108a8fd17b448a68554199c47d08ffb10d4b860007ffffffffffffffffffffffffffffffffffffffffffffffffffffffffefffffc2f6133e3565b915091509091565b6000600160003373ffffffffffffffffffffffffffffffffffffffff1673ffffffffffffffffffffffffffffffffffffffff16815260200190815260200160002060060160009054906101000a900460ff16905090565b600f60009054906101000a900473ffffffffffffffffffffffffffffffffffffffff1673ffffffffffffffffffffffffffffffffffffffff163373ffffffffffffffffffffffffffffffffffffffff1614612ba9576040517f08c379a0000000000000000000000000000000000000000000000000000000008152600401808060200182810382526024815260200180613f0e6024913960400191505060405180910390fd5b600e600081548092919060010191905055506003600e541015612bfd57600b600e5460038110612bd557fe5b0160089080546001816001161561010002031660029004612bf7929190613d73565b50612c4a565b6040518060400160405280600e81526020017f456c656374696f6e20656e64656400000000000000000000000000000000000081525060089080519060200190612c48929190613dfa565b505b565b60065481565b6002602052806000526040600020600091509050806000018054600181600116156101000203166002900480601f016020809104026020016040519081016040528092919081815260200182805460018160011615610100020316600290048015612cfe5780601f10612cd357610100808354040283529160200191612cfe565b820191906000526020600020905b815481529060010190602001808311612ce157829003601f168201915b505050505090806001018054600181600116156101000203166002900480601f016020809104026020016040519081016040528092919081815260200182805460018160011615610100020316600290048015612d9c5780601f10612d7157610100808354040283529160200191612d9c565b820191906000526020600020905b815481529060010190602001808311612d7f57829003601f168201915b505050505090806002018054600181600116156101000203166002900480601f016020809104026020016040519081016040528092919081815260200182805460018160011615610100020316600290048015612e3a5780601f10612e0f57610100808354040283529160200191612e3a565b820191906000526020600020905b815481529060010190602001808311612e1d57829003601f168201915b5050505050908060030160009054906101000a900460ff16905084565b600f60009054906101000a900473ffffffffffffffffffffffffffffffffffffffff1673ffffffffffffffffffffffffffffffffffffffff163373ffffffffffffffffffffffffffffffffffffffff161415612f1b576040517f08c379a00000000000000000000000000000000000000000000000000000000081526004018080602001828103825260158152602001807f41646d696e2043616e6e6f74207265676973746572000000000000000000000081525060200191505060405180910390fd5b60003390506000612f2b876120bc565b90506000600160008473ffffffffffffffffffffffffffffffffffffffff1673ffffffffffffffffffffffffffffffffffffffff16815260200190815260200160002090508060060160009054906101000a900460ff1615612fd8576040517f08c379a0000000000000000000000000000000000000000000000000000000008152600401808060200182810382526021815260200180613eed6021913960400191505060405180910390fd5b600073ffffffffffffffffffffffffffffffffffffffff166003600084815260200190815260200160002060009054906101000a900473ffffffffffffffffffffffffffffffffffffffff1673ffffffffffffffffffffffffffffffffffffffff16146130ad576040517f08c379a000000000000000000000000000000000000000000000000000000000815260040180806020018281038252601a8152602001807f506572736f6e616c20494420616c726561647920696e2075736500000000000081525060200191505060405180910390fd5b8260046000600954815260200190815260200160002060006101000a81548173ffffffffffffffffffffffffffffffffffffffff021916908373ffffffffffffffffffffffffffffffffffffffff1602179055506040518061014001604052808381526020016000151581526020018473ffffffffffffffffffffffffffffffffffffffff1681526020018881526020018781526020018681526020018581526020016001151581526020016000815260200160001515815250600160008573ffffffffffffffffffffffffffffffffffffffff1673ffffffffffffffffffffffffffffffffffffffff1681526020019081526020016000206000820151816000015560208201518160010160006101000a81548160ff02191690831515021790555060408201518160010160016101000a81548173ffffffffffffffffffffffffffffffffffffffff021916908373ffffffffffffffffffffffffffffffffffffffff1602179055506060820151816002019080519060200190613233929190613cf3565b506080820151816003019080519060200190613250929190613cf3565b5060a082015181600401908051906020019061326d929190613cf3565b5060c082015181600501908051906020019061328a929190613cf3565b5060e08201518160060160006101000a81548160ff02191690831515021790555061010082015181600701556101208201518160080160006101000a81548160ff021916908315150217905550905050826003600084815260200190815260200160002060006101000a81548173ffffffffffffffffffffffffffffffffffffffff021916908373ffffffffffffffffffffffffffffffffffffffff1602179055506009600081548092919060010191905055505050505050505050565b600080600060418451146133c4576040517f08c379a00000000000000000000000000000000000000000000000000000000081526004018080602001828103825260188152602001807f696e76616c6964207369676e6174757265206c656e677468000000000000000081525060200191505060405180910390fd5b6020840151925060408401519150606084015160001a90509193909250565b60008060008060006133fa8a8a8a60018b8b613451565b92509250925061340c838383896134f6565b945094505050509550959350505050565b60008060008061342e888887613551565b915091506134408a8a84848a8a61356d565b935093505050965096945050505050565b60008060008089141561346c578787879250925092506134ea565b6000899050600080905060008090506000600190505b600084146134dc57600060018516146134b1576134a48383838f8f8f8e61360b565b8093508194508295505050505b600284816134bb57fe5b0493506134cb8c8c8c8c8c613adc565b809c50819d50829e50505050613482565b828282965096509650505050505b96509650969350505050565b60008060006135058585613bfb565b90506000848061351157fe5b82830990506000858061352057fe5b828a0990506000868061352f57fe5b878061353757fe5b8486098a0990508181955095505050505094509492505050565b60008084838585038161356057fe5b0691509150935093915050565b600080600080905060008090506000809050888b14156135ce576000868061359157fe5b898c0814156135af5760008081915080905094509450505050613600565b6135bd8b8b60018a8a613adc565b8093508194508295505050506135ec565b6135df8b8b60018c8c60018c61360b565b8093508194508295505050505b6135f8838383896134f6565b945094505050505b965096945050505050565b6000806000808a14801561361f5750600089145b1561363257868686925092509250613acf565b6000871480156136425750600086145b1561365557898989925092509250613acf565b61365d613e7a565b848061366557fe5b898a098160006004811061367557fe5b602002018181525050848061368657fe5b8160006004811061369357fe5b60200201518a09816001600481106136a757fe5b60200201818152505084806136b857fe5b868709816002600481106136c857fe5b60200201818152505084806136d957fe5b816002600481106136e657fe5b60200201518709816003600481106136fa57fe5b6020020181815250506040518060800160405280868061371657fe5b8360026004811061372357fe5b60200201518e098152602001868061373757fe5b8360036004811061374457fe5b60200201518d098152602001868061375857fe5b8360006004811061376557fe5b60200201518b098152602001868061377957fe5b8360016004811061378657fe5b60200201518a0981525090508060026004811061379f57fe5b6020020151816000600481106137b157fe5b60200201511415806137e55750806003600481106137cb57fe5b6020020151816001600481106137dd57fe5b602002015114155b613857576040517f08c379a000000000000000000000000000000000000000000000000000000000815260040180806020018281038252601e8152602001807f557365206a6163446f75626c652066756e6374696f6e20696e7374656164000081525060200191505060405180910390fd5b61385f613e7a565b858061386757fe5b8260006004811061387457fe5b602002015187038360026004811061388857fe5b6020020151088160006004811061389b57fe5b60200201818152505085806138ac57fe5b826001600481106138b957fe5b60200201518703836003600481106138cd57fe5b602002015108816001600481106138e057fe5b60200201818152505085806138f157fe5b816000600481106138fe57fe5b60200201518260006004811061391057fe5b6020020151098160026004811061392357fe5b602002018181525050858061393457fe5b8160006004811061394157fe5b60200201518260026004811061395357fe5b6020020151098160036004811061396657fe5b6020020181815250506000868061397957fe5b8260036004811061398657fe5b60200201518803888061399557fe5b846001600481106139a257fe5b6020020151856001600481106139b457fe5b60200201510908905086806139c557fe5b87806139cd57fe5b88806139d557fe5b846002600481106139e257fe5b6020020151866000600481106139f457fe5b60200201510960020988038208905060008780613a0d57fe5b8880613a1557fe5b838a038a80613a2057fe5b86600260048110613a2d57fe5b602002015188600060048110613a3f57fe5b6020020151090884600160048110613a5357fe5b60200201510990508780613a6357fe5b8880613a6b57fe5b84600360048110613a7857fe5b602002015186600160048110613a8a57fe5b60200201510989038208905060008880613aa057fe5b8980613aa857fe5b8b8f0985600060048110613ab857fe5b602002015109905082828297509750975050505050505b9750975097945050505050565b600080600080861415613af757878787925092509250613bf0565b60008480613b0157fe5b898a09905060008580613b1057fe5b898a09905060008680613b1f57fe5b898a09905060008780613b2e57fe5b8880613b3657fe5b848e09600409905060008880613b4857fe5b8980613b5057fe5b8a80613b5857fe5b8586098c098a80613b6557fe5b876003090890508880613b7457fe5b8980613b7c57fe5b8384088a038a80613b8957fe5b8384090894508880613b9757fe5b8980613b9f57fe5b8a80613ba757fe5b8687096008098a038a80613bb757fe5b8b80613bbf57fe5b888d03860884090893508880613bd157fe5b8980613bd957fe5b8c8e09600209925084848497509750975050505050505b955095509592505050565b6000808314158015613c0d5750818314155b8015613c1a575060008214155b613c8c576040517f08c379a000000000000000000000000000000000000000000000000000000000815260040180806020018281038252600e8152602001807f496e76616c6964206e756d62657200000000000000000000000000000000000081525060200191505060405180910390fd5b6000809050600060019050600084905060005b60008714613ce657868281613cb057fe5b049050828680613cbc57fe5b8780613cc457fe5b8584098803860880945081955050508687820283038098508193505050613c9f565b8394505050505092915050565b828054600181600116156101000203166002900490600052602060002090601f016020900481019282601f10613d3457805160ff1916838001178555613d62565b82800160010185558215613d62579182015b82811115613d61578251825591602001919060010190613d46565b5b509050613d6f9190613e9c565b5090565b828054600181600116156101000203166002900490600052602060002090601f016020900481019282601f10613dac5780548555613de9565b82800160010185558215613de957600052602060002091601f016020900482015b82811115613de8578254825591600101919060010190613dcd565b5b509050613df69190613e9c565b5090565b828054600181600116156101000203166002900490600052602060002090601f016020900481019282601f10613e3b57805160ff1916838001178555613e69565b82800160010185558215613e69579182015b82811115613e68578251825591602001919060010190613e4d565b5b509050613e769190613e9c565b5090565b6040518060800160405280600490602082028038833980820191505090505090565b613ebe91905b80821115613eba576000816000905550600101613ea2565b5090565b9056fe43616e6e6f74206164642063616e6469646174657320647572696e6720766f74696e672070726f63657373546865207075626c6963206164647265737320616c726561647920696e207573654f6e6c792041646d696e2063616e20706572666f726d20746869732066756e6374696f6ea265627a7a72315820fd740ebc80d69bb09dccd5e1d7a6e97b0be58436b1d394348fbf509f4c67b3ed64736f6c63430005100032",
  "source": "// SPDX-License-Identifier: MIT \r\npragma solidity  >=0.5.16;\r\nimport \"./EllipticCurve.sol\";\r\n\r\ncontract Election { \r\n\r\n    struct voter {\r\n        bytes32 personal_id; //their personal id\r\n        bool hasVoted; //have they voted\r\n        address public_Address; //public address to wallet\r\n        string email; //email address for communication\r\n        string name; //name of voter \r\n        string surname; \r\n        string refNUm; \r\n        bool isRegistered;\r\n        uint PrivateKey;\r\n        bool  isVerifiedUser;\r\n    }\r\n \r\n    struct votingRecords{\r\n        string ref;\r\n        string voteDate;\r\n        string voteTime;\r\n        bool isVerified;\r\n    }\r\n\r\n    \r\n\r\n\r\n     // Model a Candidate\r\n    struct Candidate {\r\n        uint id;\r\n        string name;\r\n        string party;\r\n        uint voteCount;\r\n    }\r\n    //ECC CONSTANTS - SECPTIC256\r\n    uint256 private constant GX = 0x79BE667EF9DCBBAC55A06295CE870B07029BFCDB2DCE28D959F2815B16F81798;\r\n    uint256 private constant GY = 0x483ADA7726A3C4655DA4FBFC0E1108A8FD17B448A68554199C47D08FFB10D4B8;\r\n    uint256 private constant AA = 0;\r\n    uint256 private constant BB = 7;\r\n    uint256 private constant PP = 0xFFFFFFFFFFFFFFFFFFFFFFFFFFFFFFFFFFFFFFFFFFFFFFFFFFFFFFFEFFFFFC2F;\r\n\r\n    // Read/write candidate\r\n    mapping(uint => Candidate) public candidates;\r\n\r\n    // Store accounts that have voted\r\n    mapping(address => voter) private voters;\r\n\r\n    mapping(uint => votingRecords) public votingTrails;\r\n\r\n    // Stores encyrted ID'S\r\n    mapping(bytes32 => address) private verifier;\r\n    mapping(uint => address) private recorder;\r\n\r\n\r\n    // Store Candidates Count\r\n    uint public candidatesCount;\r\n\r\n    uint256 public p1Holder;\r\n    uint256 public p2Holder;\r\n\r\n    // Stores Election phase\r\n    string public phase;\r\n\r\n    // Store number of voters\r\n    uint public votersCount;\r\n\r\n    //number of total votes\r\n    uint public numVotes;\r\n\r\n    string[3] phases = [\"registration\" , \"voting\", \"results\"];\r\n    uint public phasePointer;\r\n\r\n    // Admin is set once, when contract is deployed. Also saves gas fees\r\n    address private admin;\r\n    uint256 public votingStart;  //start of phase\r\n    uint256 public votingEnd; //end of phase\r\n\r\n    constructor() public { \r\n        admin = msg.sender;\r\n        phase=\"Election has not started\";\r\n    } \r\n\r\n    modifier onlyAdmin(){\r\n\t\trequire(msg.sender==admin, \"Only Admin can perform this function\");\r\n\t\t_;\r\n\t}\r\n\r\n       // Add a candidate\r\n    function addCandidate (string memory _name, string memory _party) onlyAdmin public {\r\n        require(phasePointer<=0, \"Cannot add candidates during voting process\");\r\n        candidatesCount ++;\r\n        candidates[candidatesCount] = Candidate({\r\n            id: candidatesCount, \r\n            name: _name,\r\n            party: _party, \r\n            voteCount: 0\r\n            });\r\n    }\r\n\r\n\r\n     // Add a voter\r\n    function addVoter (string memory _personal_id, string memory _email, string memory _name, string memory _surname, string memory _ref) public {\r\n            \r\n            require(msg.sender != admin, \"Admin Cannot register\"); //require that the user is not registered\r\n            address _pAdress = msg.sender; \r\n            bytes32 encrypt_id = keccak256_encrypt(_personal_id);  //encrypt personal id\r\n            voter storage user = voters[_pAdress];\r\n            require(!user.isRegistered, \"The public address already in use\"); //require that the user is not registered\r\n\r\n            //require that personal_id is not already in use\r\n            require(verifier[encrypt_id] == 0x0000000000000000000000000000000000000000, \"Personal ID already in use\");\r\n            recorder[votersCount] = _pAdress;\r\n            voters[_pAdress] = voter( {personal_id: encrypt_id, \r\n                            hasVoted:false, \r\n                            public_Address:_pAdress,\r\n                            email: _email, \r\n                            name:_name, \r\n                            surname: _surname, \r\n                            refNUm: _ref,\r\n                            isRegistered:true,\r\n                            PrivateKey:0,\r\n                            isVerifiedUser:false\r\n                    });\r\n            \r\n           \r\n            verifier[encrypt_id] = _pAdress;\r\n            votersCount ++;\r\n            \r\n    }\r\n\r\n    //get voter details to display to voter\r\n    function getVoter() public view returns(string memory, string memory, string memory, string memory, bool, bool, bool){\r\n            return(voters[msg.sender].name, voters[msg.sender].surname, voters[msg.sender].email, \r\n            voters[msg.sender].refNUm, voters[msg.sender].isRegistered, voters[msg.sender].hasVoted, voters[msg.sender].isVerifiedUser);             \r\n    }\r\n\r\n    //returns true if voter registered\r\n    function isVoter_Registered() public view returns (bool){\r\n        return voters[msg.sender].isRegistered;\r\n    }\r\n\r\n    \r\n  // https://stackoverflow.com/questions/73555009/how-to-generate-random-words-in-solidity-based-based-on-a-string-of-letters/73557284#73557284\r\n  function random() public view returns (uint) {\r\n        return uint (keccak256(abi.encodePacked (block.timestamp, msg.sender)));\r\n     }\r\n\r\n     //returns true if voter registered\r\n    function has_Voted() public view returns (bool){\r\n        return voters[msg.sender].hasVoted;\r\n    }\r\n\r\n    // voting function, all accounts can vote\r\n    function vote (uint _candidateId, string memory _date, string memory _time) public {\r\n\r\n        //must be registered to vote\r\n        require(voters[msg.sender].isRegistered, \"Only registered users can vote\");\r\n\r\n        // require that they haven't voted before\r\n        require(!voters[msg.sender].hasVoted, \"Already Voted\"); \r\n        \r\n        // require a valid candidate\r\n        require(_candidateId > 0 && _candidateId <= candidatesCount);\r\n\r\n        // record that voter has voted\r\n        voters[msg.sender].hasVoted = true;\r\n\r\n        // update candidate vote Count\r\n        candidates[_candidateId].voteCount ++;\r\n\r\n        voters[msg.sender].PrivateKey = random();  //CREATE PRIVATE KEY\r\n        // (uint p1, uint p2) = EllipticCurve.ecMul(voters[msg.sender].PrivateKey,GX,GY,AA,PP); //CREATE Public Keys\r\n        // pKeys[msg.sender] = keys({\r\n        //         PublicKey1:p1,\r\n        //         PublicKey2:p2\r\n        // });\r\n        votingTrails[numVotes] = votingRecords({\r\n                                                ref:voters[msg.sender].refNUm,\r\n                                                voteDate:_date,\r\n                                                voteTime:_time,\r\n                                                isVerified:false\r\n                                         });\r\n         numVotes++;\r\n        \r\n    }\r\n\r\n     function copyKeys() public view returns(uint256, uint256){\r\n            return EllipticCurve.ecMul(voters[msg.sender].PrivateKey,GX,GY,AA,PP);           \r\n    }\r\n\r\n\r\n\r\n\r\n    function verifyVote(uint256 _key1, uint256 _key2, uint _votePosition) public{\r\n                 //must be registered to vote\r\n        require(voters[msg.sender].isRegistered, \"Only registered users can vote\");\r\n\r\n        // require that they haven't voted before\r\n        require(voters[msg.sender].hasVoted, \"Already Voted\");\r\n\r\n        require(_votePosition>= 0 && _votePosition <numVotes);\r\n\r\n        require(!voters[msg.sender].isVerifiedUser, \"Voter already voted\");\r\n\r\n        (uint256 p1, uint256 p2) = EllipticCurve.ecMul(voters[msg.sender].PrivateKey,GX,GY,AA,PP); //creating public keys from the user address\r\n\r\n        (p1Holder, p2Holder) = EllipticCurve.ecSub(_key1,_key2, p1, p2, AA, PP);\r\n      \r\n        if(p1Holder==0 && p2Holder==0){\r\n            votingTrails[_votePosition].isVerified = true;\r\n            voters[msg.sender].isVerifiedUser=true;\r\n        }\r\n       \r\n\r\n\r\n    }\r\n\r\n    function getTrailer(uint position) public view returns(bool){\r\n         return votingTrails[position].isVerified;\r\n    }\r\n\r\n\r\n    // start election\r\n    function startElection() onlyAdmin public {\r\n            require(phasePointer!=1 && phasePointer!=2, \"Voting in progress\");\r\n            phasePointer = 0;\r\n            phase = phases[phasePointer]; //contract is deployed in the registration phase\r\n    \r\n    }\r\n\r\n    //change election phase\r\n    function changePhase() onlyAdmin public {\r\n        phasePointer++;\r\n        if (phasePointer <3) {\r\n            phase = phases[phasePointer];\r\n        } else {\r\n            phase = \"Election ended\";\r\n        }\r\n\r\n    }\r\n\r\n\r\n    //hash function\r\n    function keccak256_encrypt(string memory text) public pure returns (bytes32) {\r\n        return keccak256(abi.encode(text));\r\n    }\r\n\r\n    function getWinner() public view returns(string memory) {\r\n        uint winner = 1;\r\n        uint voterS = candidates[1].voteCount;\r\n        for (uint index = 2; index <=  candidatesCount; index++) {\r\n            if(candidates[index].voteCount > voterS){\r\n                winner = index;\r\n                voterS = candidates[index].voteCount;\r\n                }\r\n        }\r\n        return (candidates[winner].name);\r\n\r\n    }\r\n\r\n\r\n    //<----------------------------------- Verifies signed message -------------------------------->\r\n    function verify (string memory _message, bytes memory _sig) public view returns (bool) {\r\n        bytes32 hash_SMS = getHash(_message);\r\n        bytes32 ethSignedMessageHash = getEthSignedHash(hash_SMS);\r\n        return recover(ethSignedMessageHash, _sig) == admin;\r\n    }\r\n    \r\n    //has a tring\r\n    function getHash (string memory sms) public pure returns (bytes32){\r\n        return keccak256(abi.encodePacked(sms));\r\n    }\r\n\r\n\r\n    function getEthSignedHash (bytes32 sms) public pure returns (bytes32){\r\n        return keccak256(abi.encodePacked(\"\\x19Ethereum Signed Message:\\n32\", sms));\r\n    }\r\n\r\n\r\n    //recover account of original signer of message\r\n    function recover(bytes32 _ethSignedMessageHash, bytes memory _sig) public pure returns (address){\r\n            (bytes32 r, bytes32 s, uint8 v) = _split(_sig); //split signature into params\r\n            return ecrecover(_ethSignedMessageHash, v, r, s); //returns the address of the signer given the signed message\r\n    }\r\n\r\n    function _split(bytes memory _sig) internal pure returns (bytes32 r, bytes32 s, uint8 v){\r\n            require(_sig.length == 65, \"invalid signature length\");\r\n\r\n            assembly {\r\n                r := mload(add(_sig, 32))  //skip first 32-byetes as they hold the length\r\n                s := mload(add(_sig, 64))\r\n                v := byte(0, mload(add(_sig, 96)))\r\n\r\n            }\r\n    }\r\n\r\n    //<----------------------------------- ECC CRYPTOGRAPHY -------------------------------->\r\n\r\n}",
  "sourcePath": "C:\\Users\\Student\\Downloads\\crypto\\Code\\contracts\\Election.sol",
  "compiler": {
    "name": "solc",
    "version": "0.5.16+commit.9c3226ce.Emscripten.clang"
  },
  "schemaVersion": "3.4.16",
  "updatedAt": "2023-09-29T02:04:20.641Z",
  "networkType": "ethereum",
  "devdoc": {
    "methods": {}
  },
  "userdoc": {
    "methods": {}
  }
}