{
  "contractName": "Election",
  "abi": [
    {
      "inputs": [],
      "payable": false,
      "stateMutability": "nonpayable",
      "type": "constructor"
    },
    {
      "constant": true,
      "inputs": [
        {
          "internalType": "uint256",
          "name": "",
          "type": "uint256"
        }
      ],
      "name": "candidates",
      "outputs": [
        {
          "internalType": "uint256",
          "name": "id",
          "type": "uint256"
        },
        {
          "internalType": "string",
          "name": "name",
          "type": "string"
        },
        {
          "internalType": "string",
          "name": "party",
          "type": "string"
        },
        {
          "internalType": "uint256",
          "name": "voteCount",
          "type": "uint256"
        }
      ],
      "payable": false,
      "stateMutability": "view",
      "type": "function"
    },
    {
      "constant": true,
      "inputs": [],
      "name": "candidatesCount",
      "outputs": [
        {
          "internalType": "uint256",
          "name": "",
          "type": "uint256"
        }
      ],
      "payable": false,
      "stateMutability": "view",
      "type": "function"
    },
    {
      "constant": true,
      "inputs": [
        {
          "internalType": "string",
          "name": "",
          "type": "string"
        }
      ],
      "name": "ellipter",
      "outputs": [
        {
          "internalType": "uint256",
          "name": "",
          "type": "uint256"
        }
      ],
      "payable": false,
      "stateMutability": "view",
      "type": "function"
    },
    {
      "constant": true,
      "inputs": [],
      "name": "numVotes",
      "outputs": [
        {
          "internalType": "uint256",
          "name": "",
          "type": "uint256"
        }
      ],
      "payable": false,
      "stateMutability": "view",
      "type": "function"
    },
    {
      "constant": true,
      "inputs": [],
      "name": "phase",
      "outputs": [
        {
          "internalType": "string",
          "name": "",
          "type": "string"
        }
      ],
      "payable": false,
      "stateMutability": "view",
      "type": "function"
    },
    {
      "constant": true,
      "inputs": [],
      "name": "phasePointer",
      "outputs": [
        {
          "internalType": "uint256",
          "name": "",
          "type": "uint256"
        }
      ],
      "payable": false,
      "stateMutability": "view",
      "type": "function"
    },
    {
      "constant": true,
      "inputs": [
        {
          "internalType": "uint256",
          "name": "",
          "type": "uint256"
        }
      ],
      "name": "recorder",
      "outputs": [
        {
          "internalType": "address",
          "name": "",
          "type": "address"
        }
      ],
      "payable": false,
      "stateMutability": "view",
      "type": "function"
    },
    {
      "constant": true,
      "inputs": [
        {
          "internalType": "uint256",
          "name": "",
          "type": "uint256"
        }
      ],
      "name": "refs",
      "outputs": [
        {
          "internalType": "string",
          "name": "",
          "type": "string"
        }
      ],
      "payable": false,
      "stateMutability": "view",
      "type": "function"
    },
    {
      "constant": true,
      "inputs": [],
      "name": "timeNow",
      "outputs": [
        {
          "internalType": "uint256",
          "name": "",
          "type": "uint256"
        }
      ],
      "payable": false,
      "stateMutability": "view",
      "type": "function"
    },
    {
      "constant": true,
      "inputs": [
        {
          "internalType": "bytes32",
          "name": "",
          "type": "bytes32"
        }
      ],
      "name": "verifier",
      "outputs": [
        {
          "internalType": "address",
          "name": "",
          "type": "address"
        }
      ],
      "payable": false,
      "stateMutability": "view",
      "type": "function"
    },
    {
      "constant": true,
      "inputs": [],
      "name": "votersCount",
      "outputs": [
        {
          "internalType": "uint256",
          "name": "",
          "type": "uint256"
        }
      ],
      "payable": false,
      "stateMutability": "view",
      "type": "function"
    },
    {
      "constant": true,
      "inputs": [],
      "name": "votingEnd",
      "outputs": [
        {
          "internalType": "uint256",
          "name": "",
          "type": "uint256"
        }
      ],
      "payable": false,
      "stateMutability": "view",
      "type": "function"
    },
    {
      "constant": true,
      "inputs": [],
      "name": "votingStart",
      "outputs": [
        {
          "internalType": "uint256",
          "name": "",
          "type": "uint256"
        }
      ],
      "payable": false,
      "stateMutability": "view",
      "type": "function"
    },
    {
      "constant": false,
      "inputs": [
        {
          "internalType": "string",
          "name": "_name",
          "type": "string"
        },
        {
          "internalType": "string",
          "name": "_party",
          "type": "string"
        }
      ],
      "name": "addCandidate",
      "outputs": [],
      "payable": false,
      "stateMutability": "nonpayable",
      "type": "function"
    },
    {
      "constant": false,
      "inputs": [
        {
          "internalType": "string",
          "name": "_personal_id",
          "type": "string"
        },
        {
          "internalType": "string",
          "name": "_email",
          "type": "string"
        },
        {
          "internalType": "string",
          "name": "_name",
          "type": "string"
        },
        {
          "internalType": "string",
          "name": "_surname",
          "type": "string"
        },
        {
          "internalType": "string",
          "name": "_ref",
          "type": "string"
        }
      ],
      "name": "addVoter",
      "outputs": [],
      "payable": false,
      "stateMutability": "nonpayable",
      "type": "function"
    },
    {
      "constant": true,
      "inputs": [],
      "name": "getVoter",
      "outputs": [
        {
          "internalType": "string",
          "name": "",
          "type": "string"
        },
        {
          "internalType": "string",
          "name": "",
          "type": "string"
        },
        {
          "internalType": "string",
          "name": "",
          "type": "string"
        },
        {
          "internalType": "string",
          "name": "",
          "type": "string"
        },
        {
          "internalType": "bool",
          "name": "",
          "type": "bool"
        },
        {
          "internalType": "bool",
          "name": "",
          "type": "bool"
        }
      ],
      "payable": false,
      "stateMutability": "view",
      "type": "function"
    },
    {
      "constant": true,
      "inputs": [],
      "name": "isVoter_Registered",
      "outputs": [
        {
          "internalType": "bool",
          "name": "",
          "type": "bool"
        }
      ],
      "payable": false,
      "stateMutability": "view",
      "type": "function"
    },
    {
      "constant": true,
      "inputs": [],
      "name": "has_Voted",
      "outputs": [
        {
          "internalType": "bool",
          "name": "",
          "type": "bool"
        }
      ],
      "payable": false,
      "stateMutability": "view",
      "type": "function"
    },
    {
      "constant": false,
      "inputs": [
        {
          "internalType": "uint256",
          "name": "_candidateId",
          "type": "uint256"
        }
      ],
      "name": "vote",
      "outputs": [],
      "payable": false,
      "stateMutability": "nonpayable",
      "type": "function"
    },
    {
      "constant": true,
      "inputs": [],
      "name": "getKeys",
      "outputs": [
        {
          "internalType": "uint256",
          "name": "",
          "type": "uint256"
        },
        {
          "internalType": "uint256",
          "name": "",
          "type": "uint256"
        }
      ],
      "payable": false,
      "stateMutability": "view",
      "type": "function"
    },
    {
      "constant": false,
      "inputs": [],
      "name": "startElection",
      "outputs": [],
      "payable": false,
      "stateMutability": "nonpayable",
      "type": "function"
    },
    {
      "constant": false,
      "inputs": [],
      "name": "changePhase",
      "outputs": [],
      "payable": false,
      "stateMutability": "nonpayable",
      "type": "function"
    },
    {
      "constant": true,
      "inputs": [
        {
          "internalType": "string",
          "name": "text",
          "type": "string"
        }
      ],
      "name": "keccak256_encrypt",
      "outputs": [
        {
          "internalType": "bytes32",
          "name": "",
          "type": "bytes32"
        }
      ],
      "payable": false,
      "stateMutability": "pure",
      "type": "function"
    },
    {
      "constant": true,
      "inputs": [],
      "name": "getWinner",
      "outputs": [
        {
          "internalType": "string",
          "name": "",
          "type": "string"
        }
      ],
      "payable": false,
      "stateMutability": "view",
      "type": "function"
    },
    {
      "constant": true,
      "inputs": [
        {
          "internalType": "string",
          "name": "_message",
          "type": "string"
        },
        {
          "internalType": "bytes",
          "name": "_sig",
          "type": "bytes"
        }
      ],
      "name": "verify",
      "outputs": [
        {
          "internalType": "bool",
          "name": "",
          "type": "bool"
        }
      ],
      "payable": false,
      "stateMutability": "view",
      "type": "function"
    },
    {
      "constant": true,
      "inputs": [
        {
          "internalType": "string",
          "name": "sms",
          "type": "string"
        }
      ],
      "name": "getHash",
      "outputs": [
        {
          "internalType": "bytes32",
          "name": "",
          "type": "bytes32"
        }
      ],
      "payable": false,
      "stateMutability": "pure",
      "type": "function"
    },
    {
      "constant": true,
      "inputs": [
        {
          "internalType": "bytes32",
          "name": "sms",
          "type": "bytes32"
        }
      ],
      "name": "getEthSignedHash",
      "outputs": [
        {
          "internalType": "bytes32",
          "name": "",
          "type": "bytes32"
        }
      ],
      "payable": false,
      "stateMutability": "pure",
      "type": "function"
    },
    {
      "constant": true,
      "inputs": [
        {
          "internalType": "bytes32",
          "name": "_ethSignedMessageHash",
          "type": "bytes32"
        },
        {
          "internalType": "bytes",
          "name": "_sig",
          "type": "bytes"
        }
      ],
      "name": "recover",
      "outputs": [
        {
          "internalType": "address",
          "name": "",
          "type": "address"
        }
      ],
      "payable": false,
      "stateMutability": "pure",
      "type": "function"
    }
  ],
  "bytecode": "0x608060405260405180606001604052806040518060400160405280600c81526020017f726567697374726174696f6e000000000000000000000000000000000000000081525081526020016040518060400160405280600681526020017f766f74696e67000000000000000000000000000000000000000000000000000081525081526020016040518060400160405280600781526020017f726573756c747300000000000000000000000000000000000000000000000000815250815250600d906003620000d092919062000174565b50348015620000de57600080fd5b5033601160006101000a81548173ffffffffffffffffffffffffffffffffffffffff021916908373ffffffffffffffffffffffffffffffffffffffff1602179055506040518060400160405280601881526020017f456c656374696f6e20686173206e6f7420737461727465640000000000000000815250600790805190602001906200016d929190620001ce565b5062000381565b8260038101928215620001bb579160200282015b82811115620001ba578251829080519060200190620001a992919062000255565b509160200191906001019062000188565b5b509050620001ca9190620002dc565b5090565b828054600181600116156101000203166002900490600052602060002090601f016020900481019282601f106200021157805160ff191683800117855562000242565b8280016001018555821562000242579182015b828111156200024157825182559160200191906001019062000224565b5b5090506200025191906200030d565b5090565b828054600181600116156101000203166002900490600052602060002090601f016020900481019282601f106200029857805160ff1916838001178555620002c9565b82800160010185558215620002c9579182015b82811115620002c8578251825591602001919060010190620002ab565b5b509050620002d891906200030d565b5090565b6200030a91905b80821115620003065760008181620002fc919062000335565b50600101620002e3565b5090565b90565b6200033291905b808211156200032e57600081600090555060010162000314565b5090565b90565b50805460018160011615610100020316600290046000825580601f106200035d57506200037e565b601f0160209004906000526020600020908101906200037d91906200030d565b5b50565b61357c80620003916000396000f3fe608060405234801561001057600080fd5b50600436106101c45760003560e01c806362d73eb8116100f9578063b1c9fe6e11610097578063d95660be11610071578063d95660be14610e46578063db6f595314610e64578063dc610dfe14610e6e578063f731d0e914610f3d576101c4565b8063b1c9fe6e14610d33578063d25773b714610db6578063d54c149614610dd8576101c4565b80638e7ea5b2116100d35780638e7ea5b214610c5257806398b8b43d14610cd557806398c0793814610cf7578063a3bef4d714610d15576101c4565b806362d73eb814610b83578063845af08514610b8d57806385a3863514610c34576101c4565b80632d35a8a2116101665780633d9ffad5116101405780633d9ffad51461085d5780633fee76dc146109c757806344fd417f14610a965780635b6beeb914610ab4576101c4565b80632d35a8a2146106dc5780632f4ea5ea146106fa5780633477ee2e1461073c576101c4565b80631b1d53f6116101a25780631b1d53f61461031a5780632150c5181461038857806326541b56146103ad5780632b37f53c146104ff576101c4565b80630121b93f146101c9578063101158af146101f757806319045a2514610215575b600080fd5b6101f5600480360360208110156101df57600080fd5b8101908080359060200190929190505050611254565b005b6101ff6115fa565b6040518082815260200191505060405180910390f35b6102d86004803603604081101561022b57600080fd5b81019080803590602001909291908035906020019064010000000081111561025257600080fd5b82018360208201111561026457600080fd5b8035906020019184600183028401116401000000008311171561028657600080fd5b91908080601f016020809104026020016040519081016040528093929190818152602001838380828437600081840152601f19601f820116905080830192505050505050509192919290505050611600565b604051808273ffffffffffffffffffffffffffffffffffffffff1673ffffffffffffffffffffffffffffffffffffffff16815260200191505060405180910390f35b6103466004803603602081101561033057600080fd5b8101908080359060200190929190505050611687565b604051808273ffffffffffffffffffffffffffffffffffffffff1673ffffffffffffffffffffffffffffffffffffffff16815260200191505060405180910390f35b6103906116ba565b604051808381526020018281526020019250505060405180910390f35b6104fd600480360360408110156103c357600080fd5b81019080803590602001906401000000008111156103e057600080fd5b8201836020820111156103f257600080fd5b8035906020019184600183028401116401000000008311171561041457600080fd5b91908080601f016020809104026020016040519081016040528093929190818152602001838380828437600081840152601f19601f8201169050808301925050505050505091929192908035906020019064010000000081111561047757600080fd5b82018360208201111561048957600080fd5b803590602001918460018302840111640100000000831117156104ab57600080fd5b91908080601f016020809104026020016040519081016040528093929190818152602001838380828437600081840152601f19601f82011690508083019250505050505050919291929050505061174b565b005b610507611890565b6040518080602001806020018060200180602001871515151581526020018615151515815260200185810385528b818151815260200191508051906020019080838360005b8381101561056757808201518184015260208101905061054c565b50505050905090810190601f1680156105945780820380516001836020036101000a031916815260200191505b5085810384528a818151815260200191508051906020019080838360005b838110156105cd5780820151818401526020810190506105b2565b50505050905090810190601f1680156105fa5780820380516001836020036101000a031916815260200191505b50858103835289818151815260200191508051906020019080838360005b83811015610633578082015181840152602081019050610618565b50505050905090810190601f1680156106605780820380516001836020036101000a031916815260200191505b50858103825288818151815260200191508051906020019080838360005b8381101561069957808201518184015260208101905061067e565b50505050905090810190601f1680156106c65780820380516001836020036101000a031916815260200191505b509a505050505050505050505060405180910390f35b6106e4611cc5565b6040518082815260200191505060405180910390f35b6107266004803603602081101561071057600080fd5b8101908080359060200190929190505050611ccb565b6040518082815260200191505060405180910390f35b6107686004803603602081101561075257600080fd5b8101908080359060200190929190505050611d23565b604051808581526020018060200180602001848152602001838103835286818151815260200191508051906020019080838360005b838110156107b857808201518184015260208101905061079d565b50505050905090810190601f1680156107e55780820380516001836020036101000a031916815260200191505b50838103825285818151815260200191508051906020019080838360005b8381101561081e578082015181840152602081019050610803565b50505050905090810190601f16801561084b5780820380516001836020036101000a031916815260200191505b50965050505050505060405180910390f35b6109ad6004803603604081101561087357600080fd5b810190808035906020019064010000000081111561089057600080fd5b8201836020820111156108a257600080fd5b803590602001918460018302840111640100000000831117156108c457600080fd5b91908080601f016020809104026020016040519081016040528093929190818152602001838380828437600081840152601f19601f8201169050808301925050505050505091929192908035906020019064010000000081111561092757600080fd5b82018360208201111561093957600080fd5b8035906020019184600183028401116401000000008311171561095b57600080fd5b91908080601f016020809104026020016040519081016040528093929190818152602001838380828437600081840152601f19601f820116905080830192505050505050509192919290505050611e83565b604051808215151515815260200191505060405180910390f35b610a80600480360360208110156109dd57600080fd5b81019080803590602001906401000000008111156109fa57600080fd5b820183602082011115610a0c57600080fd5b80359060200191846001830284011164010000000083111715610a2e57600080fd5b91908080601f016020809104026020016040519081016040528093929190818152602001838380828437600081840152601f19601f820116905080830192505050505050509192919290505050611f02565b6040518082815260200191505060405180910390f35b610a9e611f97565b6040518082815260200191505060405180910390f35b610b6d60048036036020811015610aca57600080fd5b8101908080359060200190640100000000811115610ae757600080fd5b820183602082011115610af957600080fd5b80359060200191846001830284011164010000000083111715610b1b57600080fd5b91908080601f016020809104026020016040519081016040528093929190818152602001838380828437600081840152601f19601f820116905080830192505050505050509192919290505050611f9d565b6040518082815260200191505060405180910390f35b610b8b612018565b005b610bb960048036036020811015610ba357600080fd5b81019080803590602001909291905050506120fa565b6040518080602001828103825283818151815260200191508051906020019080838360005b83811015610bf9578082015181840152602081019050610bde565b50505050905090810190601f168015610c265780820380516001836020036101000a031916815260200191505b509250505060405180910390f35b610c3c6121b3565b6040518082815260200191505060405180910390f35b610c5a6121b9565b6040518080602001828103825283818151815260200191508051906020019080838360005b83811015610c9a578082015181840152602081019050610c7f565b50505050905090810190601f168015610cc75780820380516001836020036101000a031916815260200191505b509250505060405180910390f35b610cdd6122e8565b604051808215151515815260200191505060405180910390f35b610cff61233f565b6040518082815260200191505060405180910390f35b610d1d612345565b6040518082815260200191505060405180910390f35b610d3b61234b565b6040518080602001828103825283818151815260200191508051906020019080838360005b83811015610d7b578082015181840152602081019050610d60565b50505050905090810190601f168015610da85780820380516001836020036101000a031916815260200191505b509250505060405180910390f35b610dbe6123e9565b604051808215151515815260200191505060405180910390f35b610e0460048036036020811015610dee57600080fd5b8101908080359060200190929190505050612440565b604051808273ffffffffffffffffffffffffffffffffffffffff1673ffffffffffffffffffffffffffffffffffffffff16815260200191505060405180910390f35b610e4e612473565b6040518082815260200191505060405180910390f35b610e6c612479565b005b610f2760048036036020811015610e8457600080fd5b8101908080359060200190640100000000811115610ea157600080fd5b820183602082011115610eb357600080fd5b80359060200191846001830284011164010000000083111715610ed557600080fd5b91908080601f016020809104026020016040519081016040528093929190818152602001838380828437600081840152601f19601f8201169050808301925050505050505091929192905050506125c2565b6040518082815260200191505060405180910390f35b611252600480360360a0811015610f5357600080fd5b8101908080359060200190640100000000811115610f7057600080fd5b820183602082011115610f8257600080fd5b80359060200191846001830284011164010000000083111715610fa457600080fd5b91908080601f016020809104026020016040519081016040528093929190818152602001838380828437600081840152601f19601f8201169050808301925050505050505091929192908035906020019064010000000081111561100757600080fd5b82018360208201111561101957600080fd5b8035906020019184600183028401116401000000008311171561103b57600080fd5b91908080601f016020809104026020016040519081016040528093929190818152602001838380828437600081840152601f19601f8201169050808301925050505050505091929192908035906020019064010000000081111561109e57600080fd5b8201836020820111156110b057600080fd5b803590602001918460018302840111640100000000831117156110d257600080fd5b91908080601f016020809104026020016040519081016040528093929190818152602001838380828437600081840152601f19601f8201169050808301925050505050505091929192908035906020019064010000000081111561113557600080fd5b82018360208201111561114757600080fd5b8035906020019184600183028401116401000000008311171561116957600080fd5b91908080601f016020809104026020016040519081016040528093929190818152602001838380828437600081840152601f19601f820116905080830192505050505050509192919290803590602001906401000000008111156111cc57600080fd5b8201836020820111156111de57600080fd5b8035906020019184600183028401116401000000008311171561120057600080fd5b91908080601f016020809104026020016040519081016040528093929190818152602001838380828437600081840152601f19601f8201169050808301925050505050505091929192905050506125f0565b005b600160003373ffffffffffffffffffffffffffffffffffffffff1673ffffffffffffffffffffffffffffffffffffffff16815260200190815260200160002060060160009054906101000a900460ff16611316576040517f08c379a000000000000000000000000000000000000000000000000000000000815260040180806020018281038252601e8152602001807f4f6e6c7920726567697374657265642075736572732063616e20766f7465000081525060200191505060405180910390fd5b600160003373ffffffffffffffffffffffffffffffffffffffff1673ffffffffffffffffffffffffffffffffffffffff16815260200190815260200160002060010160009054906101000a900460ff16156113d9576040517f08c379a000000000000000000000000000000000000000000000000000000000815260040180806020018281038252600d8152602001807f416c726561647920566f7465640000000000000000000000000000000000000081525060200191505060405180910390fd5b6000811180156113eb57506006548111155b6113f457600080fd5b60018060003373ffffffffffffffffffffffffffffffffffffffff1673ffffffffffffffffffffffffffffffffffffffff16815260200190815260200160002060010160006101000a81548160ff0219169083151502179055506000808281526020019081526020016000206003016000815480929190600101919050555061147b612a32565b600160003373ffffffffffffffffffffffffffffffffffffffff1673ffffffffffffffffffffffffffffffffffffffff16815260200190815260200160002060070181905550600080611574600160003373ffffffffffffffffffffffffffffffffffffffff1673ffffffffffffffffffffffffffffffffffffffff168152602001908152602001600020600701547f79be667ef9dcbbac55a06295ce870b07029bfcdb2dce28d959f2815b16f817987f483ada7726a3c4655da4fbfc0e1108a8fd17b448a68554199c47d08ffb10d4b860007ffffffffffffffffffffffffffffffffffffffffffffffffffffffffefffffc2f612a77565b91509150604051806040016040528083815260200182815250600260003373ffffffffffffffffffffffffffffffffffffffff1673ffffffffffffffffffffffffffffffffffffffff1681526020019081526020016000206000820151816000015560208201518160010155905050600960008154809291906001019190505550505050565b60125481565b60008060008061160f85612ab1565b92509250925060018682858560405160008152602001604052604051808581526020018460ff1660ff1681526020018381526020018281526020019450505050506020604051602081039080840390855afa158015611672573d6000803e3d6000fd5b50505060206040510351935050505092915050565b60046020528060005260406000206000915054906101000a900473ffffffffffffffffffffffffffffffffffffffff1681565b600080600260003373ffffffffffffffffffffffffffffffffffffffff1673ffffffffffffffffffffffffffffffffffffffff16815260200190815260200160002060000154600260003373ffffffffffffffffffffffffffffffffffffffff1673ffffffffffffffffffffffffffffffffffffffff16815260200190815260200160002060010154915091509091565b601160009054906101000a900473ffffffffffffffffffffffffffffffffffffffff1673ffffffffffffffffffffffffffffffffffffffff163373ffffffffffffffffffffffffffffffffffffffff16146117f1576040517f08c379a00000000000000000000000000000000000000000000000000000000081526004018080602001828103825260248152602001806135246024913960400191505060405180910390fd5b6006600081548092919060010191905055506040518060800160405280600654815260200183815260200182815260200160008152506000806006548152602001908152602001600020600082015181600001556020820151816001019080519060200190611861929190613334565b50604082015181600201908051906020019061187e929190613334565b50606082015181600301559050505050565b606080606080600080600160003373ffffffffffffffffffffffffffffffffffffffff1673ffffffffffffffffffffffffffffffffffffffff168152602001908152602001600020600301600160003373ffffffffffffffffffffffffffffffffffffffff1673ffffffffffffffffffffffffffffffffffffffff168152602001908152602001600020600401600160003373ffffffffffffffffffffffffffffffffffffffff1673ffffffffffffffffffffffffffffffffffffffff168152602001908152602001600020600201600160003373ffffffffffffffffffffffffffffffffffffffff1673ffffffffffffffffffffffffffffffffffffffff168152602001908152602001600020600501600160003373ffffffffffffffffffffffffffffffffffffffff1673ffffffffffffffffffffffffffffffffffffffff16815260200190815260200160002060060160009054906101000a900460ff16600160003373ffffffffffffffffffffffffffffffffffffffff1673ffffffffffffffffffffffffffffffffffffffff16815260200190815260200160002060010160009054906101000a900460ff16858054600181600116156101000203166002900480601f016020809104026020016040519081016040528092919081815260200182805460018160011615610100020316600290048015611ad65780601f10611aab57610100808354040283529160200191611ad6565b820191906000526020600020905b815481529060010190602001808311611ab957829003601f168201915b50505050509550848054600181600116156101000203166002900480601f016020809104026020016040519081016040528092919081815260200182805460018160011615610100020316600290048015611b725780601f10611b4757610100808354040283529160200191611b72565b820191906000526020600020905b815481529060010190602001808311611b5557829003601f168201915b50505050509450838054600181600116156101000203166002900480601f016020809104026020016040519081016040528092919081815260200182805460018160011615610100020316600290048015611c0e5780601f10611be357610100808354040283529160200191611c0e565b820191906000526020600020905b815481529060010190602001808311611bf157829003601f168201915b50505050509350828054600181600116156101000203166002900480601f016020809104026020016040519081016040528092919081815260200182805460018160011615610100020316600290048015611caa5780601f10611c7f57610100808354040283529160200191611caa565b820191906000526020600020905b815481529060010190602001808311611c8d57829003601f168201915b50505050509250955095509550955095509550909192939495565b60065481565b60008160405160200180807f19457468657265756d205369676e6564204d6573736167653a0a333200000000815250601c01828152602001915050604051602081830303815290604052805190602001209050919050565b6000602052806000526040600020600091509050806000015490806001018054600181600116156101000203166002900480601f016020809104026020016040519081016040528092919081815260200182805460018160011615610100020316600290048015611dd55780601f10611daa57610100808354040283529160200191611dd5565b820191906000526020600020905b815481529060010190602001808311611db857829003601f168201915b505050505090806002018054600181600116156101000203166002900480601f016020809104026020016040519081016040528092919081815260200182805460018160011615610100020316600290048015611e735780601f10611e4857610100808354040283529160200191611e73565b820191906000526020600020905b815481529060010190602001808311611e5657829003601f168201915b5050505050908060030154905084565b600080611e8f84611f9d565b90506000611e9c82611ccb565b9050601160009054906101000a900473ffffffffffffffffffffffffffffffffffffffff1673ffffffffffffffffffffffffffffffffffffffff16611ee18286611600565b73ffffffffffffffffffffffffffffffffffffffff16149250505092915050565b6000816040516020018080602001828103825283818151815260200191508051906020019080838360005b83811015611f48578082015181840152602081019050611f2d565b50505050905090810190601f168015611f755780820380516001836020036101000a031916815260200191505b5092505050604051602081830303815290604052805190602001209050919050565b60105481565b6000816040516020018082805190602001908083835b60208310611fd65780518252602082019150602081019050602083039250611fb3565b6001836020036101000a038019825116818451168082178552505050505050905001915050604051602081830303815290604052805190602001209050919050565b601160009054906101000a900473ffffffffffffffffffffffffffffffffffffffff1673ffffffffffffffffffffffffffffffffffffffff163373ffffffffffffffffffffffffffffffffffffffff16146120be576040517f08c379a00000000000000000000000000000000000000000000000000000000081526004018080602001828103825260248152602001806135246024913960400191505060405180910390fd5b6000601081905550600d601054600381106120d557fe5b01600790805460018160011615610100020316600290046120f79291906133b4565b50565b600a818154811061210757fe5b906000526020600020016000915090508054600181600116156101000203166002900480601f0160208091040260200160405190810160405280929190818152602001828054600181600116156101000203166002900480156121ab5780601f10612180576101008083540402835291602001916121ab565b820191906000526020600020905b81548152906001019060200180831161218e57829003601f168201915b505050505081565b60135481565b60606000600190506000806000600181526020019081526020016000206003015490506000600290505b60065481116122325781600080838152602001908152602001600020600301541115612225578092506000808281526020019081526020016000206003015491505b80806001019150506121e3565b506000808381526020019081526020016000206001018054600181600116156101000203166002900480601f0160208091040260200160405190810160405280929190818152602001828054600181600116156101000203166002900480156122dc5780601f106122b1576101008083540402835291602001916122dc565b820191906000526020600020905b8154815290600101906020018083116122bf57829003601f168201915b50505050509250505090565b6000600160003373ffffffffffffffffffffffffffffffffffffffff1673ffffffffffffffffffffffffffffffffffffffff16815260200190815260200160002060010160009054906101000a900460ff16905090565b60085481565b60095481565b60078054600181600116156101000203166002900480601f0160208091040260200160405190810160405280929190818152602001828054600181600116156101000203166002900480156123e15780601f106123b6576101008083540402835291602001916123e1565b820191906000526020600020905b8154815290600101906020018083116123c457829003601f168201915b505050505081565b6000600160003373ffffffffffffffffffffffffffffffffffffffff1673ffffffffffffffffffffffffffffffffffffffff16815260200190815260200160002060060160009054906101000a900460ff16905090565b60036020528060005260406000206000915054906101000a900473ffffffffffffffffffffffffffffffffffffffff1681565b600c5481565b601160009054906101000a900473ffffffffffffffffffffffffffffffffffffffff1673ffffffffffffffffffffffffffffffffffffffff163373ffffffffffffffffffffffffffffffffffffffff161461251f576040517f08c379a00000000000000000000000000000000000000000000000000000000081526004018080602001828103825260248152602001806135246024913960400191505060405180910390fd5b6010600081548092919060010191905055506003601054101561257357600d6010546003811061254b57fe5b016007908054600181600116156101000203166002900461256d9291906133b4565b506125c0565b6040518060400160405280600e81526020017f456c656374696f6e20656e646564000000000000000000000000000000000000815250600790805190602001906125be92919061343b565b505b565b6005818051602081018201805184825260208301602085012081835280955050505050506000915090505481565b6000339050600061260087611f02565b90506000600160008473ffffffffffffffffffffffffffffffffffffffff1673ffffffffffffffffffffffffffffffffffffffff16815260200190815260200160002090508060060160009054906101000a900460ff16156126ad576040517f08c379a00000000000000000000000000000000000000000000000000000000081526004018080602001828103825260218152602001806135036021913960400191505060405180910390fd5b600073ffffffffffffffffffffffffffffffffffffffff166003600084815260200190815260200160002060009054906101000a900473ffffffffffffffffffffffffffffffffffffffff1673ffffffffffffffffffffffffffffffffffffffff1614612782576040517f08c379a000000000000000000000000000000000000000000000000000000000815260040180806020018281038252601a8152602001807f506572736f6e616c20494420616c726561647920696e2075736500000000000081525060200191505060405180910390fd5b8260046000600854815260200190815260200160002060006101000a81548173ffffffffffffffffffffffffffffffffffffffff021916908373ffffffffffffffffffffffffffffffffffffffff1602179055506040518061012001604052808381526020016000151581526020018473ffffffffffffffffffffffffffffffffffffffff168152602001888152602001878152602001868152602001858152602001600115158152602001600a815250600160008573ffffffffffffffffffffffffffffffffffffffff1673ffffffffffffffffffffffffffffffffffffffff1681526020019081526020016000206000820151816000015560208201518160010160006101000a81548160ff02191690831515021790555060408201518160010160016101000a81548173ffffffffffffffffffffffffffffffffffffffff021916908373ffffffffffffffffffffffffffffffffffffffff16021790555060608201518160020190805190602001906128ff929190613334565b50608082015181600301908051906020019061291c929190613334565b5060a0820151816004019080519060200190612939929190613334565b5060c0820151816005019080519060200190612956929190613334565b5060e08201518160060160006101000a81548160ff0219169083151502179055506101008201518160070155905050600860008154809291906001019190505550600a8490806001815401808255809150509060018203906000526020600020016000909192909190915090805190602001906129d492919061343b565b5050826003600084815260200190815260200160002060006101000a81548173ffffffffffffffffffffffffffffffffffffffff021916908373ffffffffffffffffffffffffffffffffffffffff1602179055505050505050505050565b6000426009546006546040516020018084815260200183815260200182815260200193505050506040516020818303038152906040528051906020012060001c905090565b6000806000806000612a8e8a8a8a60018b8b612b4c565b925092509250612aa083838389612bf1565b945094505050509550959350505050565b60008060006041845114612b2d576040517f08c379a00000000000000000000000000000000000000000000000000000000081526004018080602001828103825260188152602001807f696e76616c6964207369676e6174757265206c656e677468000000000000000081525060200191505060405180910390fd5b6020840151925060408401519150606084015160001a90509193909250565b600080600080891415612b6757878787925092509250612be5565b6000899050600080905060008090506000600190505b60008414612bd75760006001851614612bac57612b9f8383838f8f8f8e612c4c565b8093508194508295505050505b60028481612bb657fe5b049350612bc68c8c8c8c8c61311d565b809c50819d50829e50505050612b7d565b828282965096509650505050505b96509650969350505050565b6000806000612c00858561323c565b905060008480612c0c57fe5b828309905060008580612c1b57fe5b828a09905060008680612c2a57fe5b8780612c3257fe5b8486098a0990508181955095505050505094509492505050565b6000806000808a148015612c605750600089145b15612c7357868686925092509250613110565b600087148015612c835750600086145b15612c9657898989925092509250613110565b612c9e6134bb565b8480612ca657fe5b898a0981600060048110612cb657fe5b6020020181815250508480612cc757fe5b81600060048110612cd457fe5b60200201518a0981600160048110612ce857fe5b6020020181815250508480612cf957fe5b86870981600260048110612d0957fe5b6020020181815250508480612d1a57fe5b81600260048110612d2757fe5b6020020151870981600360048110612d3b57fe5b60200201818152505060405180608001604052808680612d5757fe5b83600260048110612d6457fe5b60200201518e0981526020018680612d7857fe5b83600360048110612d8557fe5b60200201518d0981526020018680612d9957fe5b83600060048110612da657fe5b60200201518b0981526020018680612dba57fe5b83600160048110612dc757fe5b60200201518a09815250905080600260048110612de057fe5b602002015181600060048110612df257fe5b6020020151141580612e26575080600360048110612e0c57fe5b602002015181600160048110612e1e57fe5b602002015114155b612e98576040517f08c379a000000000000000000000000000000000000000000000000000000000815260040180806020018281038252601e8152602001807f557365206a6163446f75626c652066756e6374696f6e20696e7374656164000081525060200191505060405180910390fd5b612ea06134bb565b8580612ea857fe5b82600060048110612eb557fe5b6020020151870383600260048110612ec957fe5b60200201510881600060048110612edc57fe5b6020020181815250508580612eed57fe5b82600160048110612efa57fe5b6020020151870383600360048110612f0e57fe5b60200201510881600160048110612f2157fe5b6020020181815250508580612f3257fe5b81600060048110612f3f57fe5b602002015182600060048110612f5157fe5b60200201510981600260048110612f6457fe5b6020020181815250508580612f7557fe5b81600060048110612f8257fe5b602002015182600260048110612f9457fe5b60200201510981600360048110612fa757fe5b60200201818152505060008680612fba57fe5b82600360048110612fc757fe5b602002015188038880612fd657fe5b84600160048110612fe357fe5b602002015185600160048110612ff557fe5b602002015109089050868061300657fe5b878061300e57fe5b888061301657fe5b8460026004811061302357fe5b60200201518660006004811061303557fe5b6020020151096002098803820890506000878061304e57fe5b888061305657fe5b838a038a8061306157fe5b8660026004811061306e57fe5b60200201518860006004811061308057fe5b602002015109088460016004811061309457fe5b602002015109905087806130a457fe5b88806130ac57fe5b846003600481106130b957fe5b6020020151866001600481106130cb57fe5b602002015109890382089050600088806130e157fe5b89806130e957fe5b8b8f09856000600481106130f957fe5b602002015109905082828297509750975050505050505b9750975097945050505050565b60008060008086141561313857878787925092509250613231565b6000848061314257fe5b898a0990506000858061315157fe5b898a0990506000868061316057fe5b898a0990506000878061316f57fe5b888061317757fe5b848e0960040990506000888061318957fe5b898061319157fe5b8a8061319957fe5b8586098c098a806131a657fe5b8760030908905088806131b557fe5b89806131bd57fe5b8384088a038a806131ca57fe5b83840908945088806131d857fe5b89806131e057fe5b8a806131e857fe5b8687096008098a038a806131f857fe5b8b8061320057fe5b888d0386088409089350888061321257fe5b898061321a57fe5b8c8e09600209925084848497509750975050505050505b955095509592505050565b600080831415801561324e5750818314155b801561325b575060008214155b6132cd576040517f08c379a000000000000000000000000000000000000000000000000000000000815260040180806020018281038252600e8152602001807f496e76616c6964206e756d62657200000000000000000000000000000000000081525060200191505060405180910390fd5b6000809050600060019050600084905060005b60008714613327578682816132f157fe5b0490508286806132fd57fe5b878061330557fe5b85840988038608809450819550505086878202830380985081935050506132e0565b8394505050505092915050565b828054600181600116156101000203166002900490600052602060002090601f016020900481019282601f1061337557805160ff19168380011785556133a3565b828001600101855582156133a3579182015b828111156133a2578251825591602001919060010190613387565b5b5090506133b091906134dd565b5090565b828054600181600116156101000203166002900490600052602060002090601f016020900481019282601f106133ed578054855561342a565b8280016001018555821561342a57600052602060002091601f016020900482015b8281111561342957825482559160010191906001019061340e565b5b50905061343791906134dd565b5090565b828054600181600116156101000203166002900490600052602060002090601f016020900481019282601f1061347c57805160ff19168380011785556134aa565b828001600101855582156134aa579182015b828111156134a957825182559160200191906001019061348e565b5b5090506134b791906134dd565b5090565b6040518060800160405280600490602082028038833980820191505090505090565b6134ff91905b808211156134fb5760008160009055506001016134e3565b5090565b9056fe546865207075626c6963206164647265737320616c726561647920696e207573654f6e6c792041646d696e2063616e20706572666f726d20746869732066756e6374696f6ea265627a7a7231582041c35ca3667f61354fba0377d9262096d9b475bb7a425d3d0af0bd593cb93f6564736f6c63430005100032",
  "source": "// SPDX-License-Identifier: MIT \r\npragma solidity  >=0.5.16;\r\nimport \"./EllipticCurve.sol\";\r\n\r\ncontract Election { \r\n\r\n    struct voter {\r\n        bytes32 personal_id; //their personal id\r\n        bool hasVoted; //have they voted\r\n        address public_Address; //public address to wallet\r\n        string email; //email address for communication\r\n        string name; //name of voter \r\n        string surname; \r\n        string refNUm; \r\n        bool isRegistered;\r\n        uint256 PrivateKey;\r\n    }\r\n    struct keys {\r\n        uint256 PublicKey1;\r\n        uint256 PublicKey2;\r\n    }\r\n\r\n\r\n     // Model a Candidate\r\n    struct Candidate {\r\n        uint id;\r\n        string name;\r\n        string party;\r\n        uint voteCount;\r\n    }\r\n    //ECC CONSTANTS - SECPTIC256\r\n    uint256 private constant GX = 0x79BE667EF9DCBBAC55A06295CE870B07029BFCDB2DCE28D959F2815B16F81798;\r\n    uint256 private constant GY = 0x483ADA7726A3C4655DA4FBFC0E1108A8FD17B448A68554199C47D08FFB10D4B8;\r\n    uint256 private constant AA = 0;\r\n    uint256 private constant BB = 7;\r\n    uint256 private constant PP = 0xFFFFFFFFFFFFFFFFFFFFFFFFFFFFFFFFFFFFFFFFFFFFFFFFFFFFFFFEFFFFFC2F;\r\n\r\n    // Read/write candidate\r\n    mapping(uint => Candidate) public candidates;\r\n\r\n    // Store accounts that have voted\r\n    mapping(address => voter) private voters;\r\n\r\n    mapping(address => keys) private pKeys;\r\n\r\n     // Stores encyrted ID'S\r\n    mapping(bytes32 => address) public verifier;\r\n    mapping(uint => address) public recorder;\r\n     mapping(string => uint256) public ellipter;\r\n\r\n    // Store Candidates Count\r\n    uint public candidatesCount;\r\n\r\n    // Stores Election phase\r\n    string public phase;\r\n\r\n    // Store number of voters\r\n    uint public votersCount;\r\n\r\n    //number of total votes\r\n    uint public numVotes;\r\n\r\n    string [] public refs; //keeps list of user ref number\r\n\r\n    //random number counter\r\n    uint random_counter;\r\n\r\n    // Stores current time\r\n    uint public timeNow;\r\n\r\n    string[3] phases = [\"registration\" , \"voting\", \"results\"];\r\n    uint public phasePointer;\r\n\r\n    // Admin is set once, when contract is deployed. Also saves gas fees\r\n    address private admin;\r\n    uint256 public votingStart;  //start of phase\r\n    uint256 public votingEnd; //end of phase\r\n\r\n    constructor() public { \r\n        admin = msg.sender;\r\n        phase=\"Election has not started\";\r\n    } \r\n\r\n    modifier onlyAdmin(){\r\n\t\trequire(msg.sender==admin, \"Only Admin can perform this function\");\r\n\t\t_;\r\n\t}\r\n\r\n       // Add a candidate\r\n    function addCandidate (string memory _name, string memory _party) onlyAdmin public {\r\n        candidatesCount ++;\r\n        candidates[candidatesCount] = Candidate({\r\n            id: candidatesCount, \r\n            name: _name,\r\n            party: _party, \r\n            voteCount: 0\r\n            });\r\n    }\r\n\r\n\r\n     // Add a voter\r\n    function addVoter (string memory _personal_id, string memory _email, string memory _name, string memory _surname, string memory _ref) public {\r\n            address _pAdress = msg.sender; \r\n            bytes32 encrypt_id = keccak256_encrypt(_personal_id);  //encrypt personal id\r\n            voter storage user = voters[_pAdress];\r\n            require(!user.isRegistered, \"The public address already in use\"); //require that the user is not registered\r\n\r\n            //require that personal_id is not already in use\r\n            require(verifier[encrypt_id] == 0x0000000000000000000000000000000000000000, \"Personal ID already in use\");\r\n            recorder[votersCount] = _pAdress;\r\n            voters[_pAdress] = voter( {personal_id: encrypt_id, \r\n                            hasVoted:false, \r\n                            public_Address:_pAdress,\r\n                            email: _email, \r\n                            name:_name, \r\n                            surname: _surname, \r\n                            refNUm: _ref,\r\n                            isRegistered:true,\r\n                            PrivateKey:uint256(10)\r\n                    });\r\n            votersCount ++;\r\n            refs.push(_ref); //add ref number\r\n            verifier[encrypt_id] = _pAdress;\r\n            \r\n    }\r\n\r\n    //get voter details to display to voter\r\n    function getVoter() public view returns(string memory, string memory, string memory, string memory, bool, bool){\r\n            return(voters[msg.sender].name, voters[msg.sender].surname, voters[msg.sender].email, voters[msg.sender].refNUm, voters[msg.sender].isRegistered, voters[msg.sender].hasVoted);             \r\n    }\r\n\r\n    //returns true if voter registered\r\n    function isVoter_Registered() public view returns (bool){\r\n        return voters[msg.sender].isRegistered;\r\n    }\r\n\r\n    \r\n  // https://stackoverflow.com/questions/73555009/how-to-generate-random-words-in-solidity-based-based-on-a-string-of-letters/73557284#73557284\r\n  function random() private view returns (uint256) {\r\n        return uint256 (keccak256(abi.encodePacked (block.timestamp, numVotes, candidatesCount)));\r\n     }\r\n\r\n     //returns true if voter registered\r\n    function has_Voted() public view returns (bool){\r\n        return voters[msg.sender].hasVoted;\r\n    }\r\n\r\n    // voting function, all accounts can vote\r\n    function vote (uint _candidateId) public {\r\n\r\n        //must be registered to vote\r\n        require(voters[msg.sender].isRegistered, \"Only registered users can vote\");\r\n\r\n        // require that they haven't voted before\r\n        require(!voters[msg.sender].hasVoted, \"Already Voted\"); \r\n        \r\n        // require a valid candidate\r\n        require(_candidateId > 0 && _candidateId <= candidatesCount);\r\n\r\n        // record that voter has voted\r\n        voters[msg.sender].hasVoted = true;\r\n\r\n        // update candidate vote Count\r\n        candidates[_candidateId].voteCount ++;\r\n\r\n        voters[msg.sender].PrivateKey = random();  //CREATE PRIVATE KEY\r\n        (uint p1, uint p2) = EllipticCurve.ecMul(voters[msg.sender].PrivateKey,GX,GY,AA,PP); //CREATE Public Keys\r\n        pKeys[msg.sender] = keys({\r\n                PublicKey1:p1,\r\n                PublicKey2:p2\r\n        });\r\n         numVotes++;\r\n        \r\n    }\r\n\r\n      function getKeys() public view returns(uint256, uint256){\r\n            return(pKeys[msg.sender].PublicKey1, pKeys[msg.sender].PublicKey2);             \r\n    }\r\n\r\n\r\n    // start election\r\n    function startElection() onlyAdmin public {\r\n            phasePointer = 0;\r\n            phase = phases[phasePointer]; //contract is deployed in the registration phase\r\n            // startTime();\r\n    }\r\n\r\n    //change election phase\r\n    function changePhase() onlyAdmin public {\r\n        phasePointer++;\r\n        if (phasePointer <3) {\r\n            phase = phases[phasePointer];\r\n        } else {\r\n            phase = \"Election ended\";\r\n        }\r\n\r\n    }\r\n\r\n\r\n    //hash function\r\n    function keccak256_encrypt(string memory text) public pure returns (bytes32) {\r\n        return keccak256(abi.encode(text));\r\n    }\r\n\r\n    function getWinner() public view returns(string memory) {\r\n        uint winner = 1;\r\n        uint voterS = candidates[1].voteCount;\r\n        for (uint index = 2; index <=  candidatesCount; index++) {\r\n            if(candidates[index].voteCount > voterS){\r\n                winner = index;\r\n                voterS = candidates[index].voteCount;\r\n                }\r\n        }\r\n        return (candidates[winner].name);\r\n\r\n    }\r\n\r\n\r\n    //<----------------------------------- Verifies signed message -------------------------------->\r\n    function verify (string memory _message, bytes memory _sig) public view returns (bool) {\r\n        bytes32 hash_SMS = getHash(_message);\r\n        bytes32 ethSignedMessageHash = getEthSignedHash(hash_SMS);\r\n        return recover(ethSignedMessageHash, _sig) == admin;\r\n    }\r\n    \r\n    //has a tring\r\n    function getHash (string memory sms) public pure returns (bytes32){\r\n        return keccak256(abi.encodePacked(sms));\r\n    }\r\n\r\n\r\n    function getEthSignedHash (bytes32 sms) public pure returns (bytes32){\r\n        return keccak256(abi.encodePacked(\"\\x19Ethereum Signed Message:\\n32\", sms));\r\n    }\r\n\r\n\r\n    //recover account of original signer of message\r\n    function recover(bytes32 _ethSignedMessageHash, bytes memory _sig) public pure returns (address){\r\n            (bytes32 r, bytes32 s, uint8 v) = _split(_sig); //split signature into params\r\n            return ecrecover(_ethSignedMessageHash, v, r, s); //returns the address of the signer given the signed message\r\n    }\r\n\r\n    function _split(bytes memory _sig) internal pure returns (bytes32 r, bytes32 s, uint8 v){\r\n            require(_sig.length == 65, \"invalid signature length\");\r\n\r\n            assembly {\r\n                r := mload(add(_sig, 32))  //skip first 32-byetes as they hold the length\r\n                s := mload(add(_sig, 64))\r\n                v := byte(0, mload(add(_sig, 96)))\r\n\r\n            }\r\n    }\r\n\r\n    //<----------------------------------- ECC CRYPTOGRAPHY -------------------------------->\r\n\r\n}",
  "sourcePath": "C:\\Users\\Student\\Downloads\\crypto\\Code\\contracts\\Election.sol",
  "compiler": {
    "name": "solc",
    "version": "0.5.16+commit.9c3226ce.Emscripten.clang"
  },
  "schemaVersion": "3.4.16",
  "updatedAt": "2023-09-27T15:53:43.733Z",
  "networkType": "ethereum",
  "devdoc": {
    "methods": {}
  },
  "userdoc": {
    "methods": {}
  }
}