{
  "contractName": "Election",
  "abi": [
    {
      "inputs": [],
      "stateMutability": "nonpayable",
      "type": "constructor"
    },
    {
      "inputs": [
        {
          "internalType": "uint256",
          "name": "",
          "type": "uint256"
        }
      ],
      "name": "candidates",
      "outputs": [
        {
          "internalType": "uint256",
          "name": "id",
          "type": "uint256"
        },
        {
          "internalType": "string",
          "name": "name",
          "type": "string"
        },
        {
          "internalType": "string",
          "name": "party",
          "type": "string"
        },
        {
          "internalType": "uint256",
          "name": "voteCount",
          "type": "uint256"
        }
      ],
      "stateMutability": "view",
      "type": "function",
      "constant": true
    },
    {
      "inputs": [],
      "name": "candidatesCount",
      "outputs": [
        {
          "internalType": "uint256",
          "name": "",
          "type": "uint256"
        }
      ],
      "stateMutability": "view",
      "type": "function",
      "constant": true
    },
    {
      "inputs": [],
      "name": "numVotes",
      "outputs": [
        {
          "internalType": "uint256",
          "name": "",
          "type": "uint256"
        }
      ],
      "stateMutability": "view",
      "type": "function",
      "constant": true
    },
    {
      "inputs": [],
      "name": "p1Holder",
      "outputs": [
        {
          "internalType": "uint256",
          "name": "",
          "type": "uint256"
        }
      ],
      "stateMutability": "view",
      "type": "function",
      "constant": true
    },
    {
      "inputs": [],
      "name": "p2Holder",
      "outputs": [
        {
          "internalType": "uint256",
          "name": "",
          "type": "uint256"
        }
      ],
      "stateMutability": "view",
      "type": "function",
      "constant": true
    },
    {
      "inputs": [],
      "name": "phase",
      "outputs": [
        {
          "internalType": "string",
          "name": "",
          "type": "string"
        }
      ],
      "stateMutability": "view",
      "type": "function",
      "constant": true
    },
    {
      "inputs": [],
      "name": "phasePointer",
      "outputs": [
        {
          "internalType": "uint256",
          "name": "",
          "type": "uint256"
        }
      ],
      "stateMutability": "view",
      "type": "function",
      "constant": true
    },
    {
      "inputs": [],
      "name": "votersCount",
      "outputs": [
        {
          "internalType": "uint256",
          "name": "",
          "type": "uint256"
        }
      ],
      "stateMutability": "view",
      "type": "function",
      "constant": true
    },
    {
      "inputs": [],
      "name": "votingEnd",
      "outputs": [
        {
          "internalType": "uint256",
          "name": "",
          "type": "uint256"
        }
      ],
      "stateMutability": "view",
      "type": "function",
      "constant": true
    },
    {
      "inputs": [],
      "name": "votingStart",
      "outputs": [
        {
          "internalType": "uint256",
          "name": "",
          "type": "uint256"
        }
      ],
      "stateMutability": "view",
      "type": "function",
      "constant": true
    },
    {
      "inputs": [
        {
          "internalType": "uint256",
          "name": "",
          "type": "uint256"
        }
      ],
      "name": "votingTrails",
      "outputs": [
        {
          "internalType": "string",
          "name": "ref",
          "type": "string"
        },
        {
          "internalType": "string",
          "name": "voteDate",
          "type": "string"
        },
        {
          "internalType": "string",
          "name": "voteTime",
          "type": "string"
        },
        {
          "internalType": "bool",
          "name": "isVerified",
          "type": "bool"
        }
      ],
      "stateMutability": "view",
      "type": "function",
      "constant": true
    },
    {
      "inputs": [
        {
          "internalType": "string",
          "name": "_name",
          "type": "string"
        },
        {
          "internalType": "string",
          "name": "_party",
          "type": "string"
        }
      ],
      "name": "addCandidate",
      "outputs": [],
      "stateMutability": "nonpayable",
      "type": "function"
    },
    {
      "inputs": [
        {
          "internalType": "string",
          "name": "_personal_id",
          "type": "string"
        },
        {
          "internalType": "string",
          "name": "_email",
          "type": "string"
        },
        {
          "internalType": "string",
          "name": "_name",
          "type": "string"
        },
        {
          "internalType": "string",
          "name": "_surname",
          "type": "string"
        },
        {
          "internalType": "string",
          "name": "_ref",
          "type": "string"
        }
      ],
      "name": "addVoter",
      "outputs": [],
      "stateMutability": "nonpayable",
      "type": "function"
    },
    {
      "inputs": [],
      "name": "getVoter",
      "outputs": [
        {
          "internalType": "string",
          "name": "",
          "type": "string"
        },
        {
          "internalType": "string",
          "name": "",
          "type": "string"
        },
        {
          "internalType": "string",
          "name": "",
          "type": "string"
        },
        {
          "internalType": "string",
          "name": "",
          "type": "string"
        },
        {
          "internalType": "bool",
          "name": "",
          "type": "bool"
        },
        {
          "internalType": "bool",
          "name": "",
          "type": "bool"
        },
        {
          "internalType": "bool",
          "name": "",
          "type": "bool"
        }
      ],
      "stateMutability": "view",
      "type": "function",
      "constant": true
    },
    {
      "inputs": [],
      "name": "isVoter_Registered",
      "outputs": [
        {
          "internalType": "bool",
          "name": "",
          "type": "bool"
        }
      ],
      "stateMutability": "view",
      "type": "function",
      "constant": true
    },
    {
      "inputs": [],
      "name": "random",
      "outputs": [
        {
          "internalType": "uint256",
          "name": "",
          "type": "uint256"
        }
      ],
      "stateMutability": "view",
      "type": "function",
      "constant": true
    },
    {
      "inputs": [],
      "name": "has_Voted",
      "outputs": [
        {
          "internalType": "bool",
          "name": "",
          "type": "bool"
        }
      ],
      "stateMutability": "view",
      "type": "function",
      "constant": true
    },
    {
      "inputs": [
        {
          "internalType": "uint256",
          "name": "_candidateId",
          "type": "uint256"
        },
        {
          "internalType": "string",
          "name": "_date",
          "type": "string"
        },
        {
          "internalType": "string",
          "name": "_time",
          "type": "string"
        }
      ],
      "name": "vote",
      "outputs": [],
      "stateMutability": "nonpayable",
      "type": "function"
    },
    {
      "inputs": [],
      "name": "copyKeys",
      "outputs": [
        {
          "internalType": "string",
          "name": "",
          "type": "string"
        },
        {
          "internalType": "string",
          "name": "",
          "type": "string"
        }
      ],
      "stateMutability": "view",
      "type": "function",
      "constant": true
    },
    {
      "inputs": [
        {
          "internalType": "uint256",
          "name": "_key1",
          "type": "uint256"
        },
        {
          "internalType": "uint256",
          "name": "_key2",
          "type": "uint256"
        }
      ],
      "name": "verifyVote",
      "outputs": [],
      "stateMutability": "nonpayable",
      "type": "function"
    },
    {
      "inputs": [
        {
          "internalType": "uint256",
          "name": "position",
          "type": "uint256"
        }
      ],
      "name": "getTrailer",
      "outputs": [
        {
          "internalType": "bool",
          "name": "",
          "type": "bool"
        }
      ],
      "stateMutability": "view",
      "type": "function",
      "constant": true
    },
    {
      "inputs": [],
      "name": "startElection",
      "outputs": [],
      "stateMutability": "nonpayable",
      "type": "function"
    },
    {
      "inputs": [],
      "name": "changePhase",
      "outputs": [],
      "stateMutability": "nonpayable",
      "type": "function"
    },
    {
      "inputs": [
        {
          "internalType": "string",
          "name": "text",
          "type": "string"
        }
      ],
      "name": "keccak256_encrypt",
      "outputs": [
        {
          "internalType": "bytes32",
          "name": "",
          "type": "bytes32"
        }
      ],
      "stateMutability": "pure",
      "type": "function",
      "constant": true
    },
    {
      "inputs": [],
      "name": "getWinner",
      "outputs": [
        {
          "internalType": "string",
          "name": "",
          "type": "string"
        }
      ],
      "stateMutability": "view",
      "type": "function",
      "constant": true
    },
    {
      "inputs": [
        {
          "internalType": "string",
          "name": "_message",
          "type": "string"
        },
        {
          "internalType": "bytes",
          "name": "_sig",
          "type": "bytes"
        }
      ],
      "name": "verify",
      "outputs": [
        {
          "internalType": "bool",
          "name": "",
          "type": "bool"
        }
      ],
      "stateMutability": "view",
      "type": "function",
      "constant": true
    },
    {
      "inputs": [
        {
          "internalType": "string",
          "name": "sms",
          "type": "string"
        }
      ],
      "name": "getHash",
      "outputs": [
        {
          "internalType": "bytes32",
          "name": "",
          "type": "bytes32"
        }
      ],
      "stateMutability": "pure",
      "type": "function",
      "constant": true
    },
    {
      "inputs": [
        {
          "internalType": "bytes32",
          "name": "sms",
          "type": "bytes32"
        }
      ],
      "name": "getEthSignedHash",
      "outputs": [
        {
          "internalType": "bytes32",
          "name": "",
          "type": "bytes32"
        }
      ],
      "stateMutability": "pure",
      "type": "function",
      "constant": true
    },
    {
      "inputs": [
        {
          "internalType": "bytes32",
          "name": "_ethSignedMessageHash",
          "type": "bytes32"
        },
        {
          "internalType": "bytes",
          "name": "_sig",
          "type": "bytes"
        }
      ],
      "name": "recover",
      "outputs": [
        {
          "internalType": "address",
          "name": "",
          "type": "address"
        }
      ],
      "stateMutability": "pure",
      "type": "function",
      "constant": true
    }
  ],
  "bytecode": "0x608060405260026009556002600a5560405180606001604052806040518060400160405280600c81526020017f726567697374726174696f6e000000000000000000000000000000000000000081525081526020016040518060400160405280600681526020017f766f74696e67000000000000000000000000000000000000000000000000000081525081526020016040518060400160405280600781526020017f726573756c747300000000000000000000000000000000000000000000000000815250815250600d906003620000da9291906200017e565b50348015620000e857600080fd5b5033601160006101000a81548173ffffffffffffffffffffffffffffffffffffffff021916908373ffffffffffffffffffffffffffffffffffffffff1602179055506040518060400160405280601881526020017f456c656374696f6e20686173206e6f74207374617274656400000000000000008152506008908051906020019062000177929190620001d8565b506200035b565b8260038101928215620001c5579160200282015b82811115620001c4578251829080519060200190620001b3929190620001d8565b509160200191906001019062000192565b5b509050620001d4919062000269565b5090565b828054620001e690620002f6565b90600052602060002090601f0160209004810192826200020a576000855562000256565b82601f106200022557805160ff191683800117855562000256565b8280016001018555821562000256579182015b828111156200025557825182559160200191906001019062000238565b5b50905062000265919062000291565b5090565b5b808211156200028d5760008181620002839190620002b0565b506001016200026a565b5090565b5b80821115620002ac57600081600090555060010162000292565b5090565b508054620002be90620002f6565b6000825580601f10620002d25750620002f3565b601f016020900490600052602060002090810190620002f2919062000291565b5b50565b600060028204905060018216806200030f57607f821691505b602082108114156200032657620003256200032c565b5b50919050565b7f4e487b7100000000000000000000000000000000000000000000000000000000600052602260045260246000fd5b6154cc806200036b6000396000f3fe608060405234801561001057600080fd5b50600436106101cf5760003560e01c806362d73eb811610104578063b1c9fe6e116100a2578063db6f595311610071578063db6f595314610530578063e15333511461053a578063e3c0327d14610558578063f731d0e91461058b576101cf565b8063b1c9fe6e146104b7578063b8fac10a146104d5578063d0a6a870146104f3578063d25773b714610512576101cf565b806398b8b43d116100de57806398b8b43d1461044157806398c079381461045f578063a3bef4d71461047d578063b10847591461049b576101cf565b806362d73eb8146103fb57806385a38635146104055780638e7ea5b214610423576101cf565b80632f4ea5ea116101715780633fee76dc1161014b5780633fee76dc1461035f57806344fd417f1461038f5780635b6beeb9146103ad5780635ec01e4d146103dd576101cf565b80632f4ea5ea146102cc5780633477ee2e146102fc5780633d9ffad51461032f576101cf565b8063216f6a6e116101ad578063216f6a6e1461025257806326541b561461026e5780632b37f53c1461028a5780632d35a8a2146102ae576101cf565b80630544e753146101d4578063101158af1461020457806319045a2514610222575b600080fd5b6101ee60048036038101906101e991906145e8565b6105a7565b6040516101fb9190614cbc565b60405180910390f35b61020c6105d4565b6040516102199190615055565b60405180910390f35b61023c6004803603810190610237919061438c565b6105da565b6040516102499190614ca1565b60405180910390f35b61026c60048036038101906102679190614690565b610649565b005b6102886004803603810190610283919061448d565b610993565b005b610292610b0e565b6040516102a59796959493929190614dea565b60405180910390f35b6102b6610f58565b6040516102c39190615055565b60405180910390f35b6102e660048036038101906102e19190614363565b610f5e565b6040516102f39190614cd7565b60405180910390f35b610316600480360381019061031191906145e8565b610f8e565b6040516103269493929190615070565b60405180910390f35b61034960048036038101906103449190614421565b6110ce565b6040516103569190614cbc565b60405180910390f35b610379600480360381019061037491906143e0565b61114d565b6040516103869190614cd7565b60405180910390f35b61039761117d565b6040516103a49190615055565b60405180910390f35b6103c760048036038101906103c291906143e0565b611183565b6040516103d49190614cd7565b60405180910390f35b6103e56111b3565b6040516103f29190615055565b60405180910390f35b6104036111e6565b005b61040d61132c565b60405161041a9190615055565b60405180910390f35b61042b611332565b6040516104389190614d37565b60405180910390f35b610449611457565b6040516104569190614cbc565b60405180910390f35b6104676114ae565b6040516104749190615055565b60405180910390f35b6104856114b4565b6040516104929190615055565b60405180910390f35b6104b560048036038101906104b09190614611565b6114ba565b005b6104bf6118aa565b6040516104cc9190614d37565b60405180910390f35b6104dd611938565b6040516104ea9190615055565b60405180910390f35b6104fb61193e565b604051610509929190614d59565b60405180910390f35b61051a611b05565b6040516105279190614cbc565b60405180910390f35b610538611b5c565b005b610542611dfb565b60405161054f9190615055565b60405180910390f35b610572600480360381019061056d91906145e8565b611e01565b6040516105829493929190614d90565b60405180910390f35b6105a560048036038101906105a091906144f9565b611fd6565b005b60006002600083815260200190815260200160002060030160009054906101000a900460ff169050919050565b60125481565b6000806000806105e985612463565b925092509250600186828585604051600081526020016040526040516106129493929190614cf2565b6020604051602081039080840390855afa158015610634573d6000803e3d6000fd5b50505060206040510351935050505092915050565b600160003373ffffffffffffffffffffffffffffffffffffffff1673ffffffffffffffffffffffffffffffffffffffff16815260200190815260200160002060060160009054906101000a900460ff166106d8576040517f08c379a00000000000000000000000000000000000000000000000000000000081526004016106cf90614e75565b60405180910390fd5b600160003373ffffffffffffffffffffffffffffffffffffffff1673ffffffffffffffffffffffffffffffffffffffff16815260200190815260200160002060010160009054906101000a900460ff16610767576040517f08c379a000000000000000000000000000000000000000000000000000000000815260040161075e90614e95565b60405180910390fd5b600160003373ffffffffffffffffffffffffffffffffffffffff1673ffffffffffffffffffffffffffffffffffffffff16815260200190815260200160002060080160009054906101000a900460ff16156107f7576040517f08c379a00000000000000000000000000000000000000000000000000000000081526004016107ee90614fb5565b60405180910390fd5b6000806108aa600160003373ffffffffffffffffffffffffffffffffffffffff1673ffffffffffffffffffffffffffffffffffffffff168152602001908152602001600020600701547f79be667ef9dcbbac55a06295ce870b07029bfcdb2dce28d959f2815b16f817987f483ada7726a3c4655da4fbfc0e1108a8fd17b448a68554199c47d08ffb10d4b860007ffffffffffffffffffffffffffffffffffffffffffffffffffffffffefffffc2f6124cb565b9150915083821480156108bc57508083145b1561098d57600160026000600160003373ffffffffffffffffffffffffffffffffffffffff1673ffffffffffffffffffffffffffffffffffffffff16815260200190815260200160002060090154815260200190815260200160002060030160006101000a81548160ff02191690831515021790555060018060003373ffffffffffffffffffffffffffffffffffffffff1673ffffffffffffffffffffffffffffffffffffffff16815260200190815260200160002060080160006101000a81548160ff0219169083151502179055505b50505050565b601160009054906101000a900473ffffffffffffffffffffffffffffffffffffffff1673ffffffffffffffffffffffffffffffffffffffff163373ffffffffffffffffffffffffffffffffffffffff1614610a23576040517f08c379a0000000000000000000000000000000000000000000000000000000008152600401610a1a90614ff5565b60405180910390fd5b60006010541115610a69576040517f08c379a0000000000000000000000000000000000000000000000000000000008152600401610a6090614f35565b60405180910390fd5b60056000815480929190610a7c9061530d565b91905055506040518060800160405280600554815260200183815260200182815260200160008152506000806005548152602001908152602001600020600082015181600001556020820151816001019080519060200190610adf929190614117565b506040820151816002019080519060200190610afc929190614117565b50606082015181600301559050505050565b6060806060806000806000600160003373ffffffffffffffffffffffffffffffffffffffff1673ffffffffffffffffffffffffffffffffffffffff168152602001908152602001600020600301600160003373ffffffffffffffffffffffffffffffffffffffff1673ffffffffffffffffffffffffffffffffffffffff168152602001908152602001600020600401600160003373ffffffffffffffffffffffffffffffffffffffff1673ffffffffffffffffffffffffffffffffffffffff168152602001908152602001600020600201600160003373ffffffffffffffffffffffffffffffffffffffff1673ffffffffffffffffffffffffffffffffffffffff168152602001908152602001600020600501600160003373ffffffffffffffffffffffffffffffffffffffff1673ffffffffffffffffffffffffffffffffffffffff16815260200190815260200160002060060160009054906101000a900460ff16600160003373ffffffffffffffffffffffffffffffffffffffff1673ffffffffffffffffffffffffffffffffffffffff16815260200190815260200160002060010160009054906101000a900460ff16600160003373ffffffffffffffffffffffffffffffffffffffff1673ffffffffffffffffffffffffffffffffffffffff16815260200190815260200160002060080160009054906101000a900460ff16868054610d1d906152db565b80601f0160208091040260200160405190810160405280929190818152602001828054610d49906152db565b8015610d965780601f10610d6b57610100808354040283529160200191610d96565b820191906000526020600020905b815481529060010190602001808311610d7957829003601f168201915b50505050509650858054610da9906152db565b80601f0160208091040260200160405190810160405280929190818152602001828054610dd5906152db565b8015610e225780601f10610df757610100808354040283529160200191610e22565b820191906000526020600020905b815481529060010190602001808311610e0557829003601f168201915b50505050509550848054610e35906152db565b80601f0160208091040260200160405190810160405280929190818152602001828054610e61906152db565b8015610eae5780601f10610e8357610100808354040283529160200191610eae565b820191906000526020600020905b815481529060010190602001808311610e9157829003601f168201915b50505050509450838054610ec1906152db565b80601f0160208091040260200160405190810160405280929190818152602001828054610eed906152db565b8015610f3a5780601f10610f0f57610100808354040283529160200191610f3a565b820191906000526020600020905b815481529060010190602001808311610f1d57829003601f168201915b50505050509350965096509650965096509650965090919293949596565b60055481565b600081604051602001610f719190614c4f565b604051602081830303815290604052805190602001209050919050565b6000602052806000526040600020600091509050806000015490806001018054610fb7906152db565b80601f0160208091040260200160405190810160405280929190818152602001828054610fe3906152db565b80156110305780601f1061100557610100808354040283529160200191611030565b820191906000526020600020905b81548152906001019060200180831161101357829003601f168201915b505050505090806002018054611045906152db565b80601f0160208091040260200160405190810160405280929190818152602001828054611071906152db565b80156110be5780601f10611093576101008083540402835291602001916110be565b820191906000526020600020905b8154815290600101906020018083116110a157829003601f168201915b5050505050908060030154905084565b6000806110da84611183565b905060006110e782610f5e565b9050601160009054906101000a900473ffffffffffffffffffffffffffffffffffffffff1673ffffffffffffffffffffffffffffffffffffffff1661112c82866105da565b73ffffffffffffffffffffffffffffffffffffffff16149250505092915050565b6000816040516020016111609190614d37565b604051602081830303815290604052805190602001209050919050565b60105481565b6000816040516020016111969190614c38565b604051602081830303815290604052805190602001209050919050565b600042336040516020016111c8929190614c75565b6040516020818303038152906040528051906020012060001c905090565b601160009054906101000a900473ffffffffffffffffffffffffffffffffffffffff1673ffffffffffffffffffffffffffffffffffffffff163373ffffffffffffffffffffffffffffffffffffffff1614611276576040517f08c379a000000000000000000000000000000000000000000000000000000000815260040161126d90614ff5565b60405180910390fd5b60016010541415801561128c5750600260105414155b6112cb576040517f08c379a00000000000000000000000000000000000000000000000000000000081526004016112c290614f15565b60405180910390fd5b6000601081905550600d6010546003811061130f577f4e487b7100000000000000000000000000000000000000000000000000000000600052603260045260246000fd5b01600890805461131e906152db565b61132992919061419d565b50565b60135481565b60606000600190506000806000600181526020019081526020016000206003015490506000600290505b60055481116113b1578160008083815260200190815260200160002060030154111561139e578092506000808281526020019081526020016000206003015491505b80806113a99061530d565b91505061135c565b5060008083815260200190815260200160002060010180546113d2906152db565b80601f01602080910402602001604051908101604052809291908181526020018280546113fe906152db565b801561144b5780601f106114205761010080835404028352916020019161144b565b820191906000526020600020905b81548152906001019060200180831161142e57829003601f168201915b50505050509250505090565b6000600160003373ffffffffffffffffffffffffffffffffffffffff1673ffffffffffffffffffffffffffffffffffffffff16815260200190815260200160002060010160009054906101000a900460ff16905090565b600b5481565b600c5481565b600160003373ffffffffffffffffffffffffffffffffffffffff1673ffffffffffffffffffffffffffffffffffffffff16815260200190815260200160002060060160009054906101000a900460ff16611549576040517f08c379a000000000000000000000000000000000000000000000000000000000815260040161154090614e75565b60405180910390fd5b600160003373ffffffffffffffffffffffffffffffffffffffff1673ffffffffffffffffffffffffffffffffffffffff16815260200190815260200160002060010160009054906101000a900460ff16156115d9576040517f08c379a00000000000000000000000000000000000000000000000000000000081526004016115d090614e95565b60405180910390fd5b6000831180156115eb57506005548311155b6115f457600080fd5b60018060003373ffffffffffffffffffffffffffffffffffffffff1673ffffffffffffffffffffffffffffffffffffffff16815260200190815260200160002060010160006101000a81548160ff02191690831515021790555060008084815260200190815260200160002060030160008154809291906116749061530d565b91905055506116816111b3565b600160003373ffffffffffffffffffffffffffffffffffffffff1673ffffffffffffffffffffffffffffffffffffffff168152602001908152602001600020600701819055506040518060800160405280600160003373ffffffffffffffffffffffffffffffffffffffff1673ffffffffffffffffffffffffffffffffffffffff168152602001908152602001600020600501805461171f906152db565b80601f016020809104026020016040519081016040528092919081815260200182805461174b906152db565b80156117985780601f1061176d57610100808354040283529160200191611798565b820191906000526020600020905b81548152906001019060200180831161177b57829003601f168201915b505050505081526020018381526020018281526020016000151581525060026000600c54815260200190815260200160002060008201518160000190805190602001906117e6929190614117565b506020820151816001019080519060200190611803929190614117565b506040820151816002019080519060200190611820929190614117565b5060608201518160030160006101000a81548160ff021916908315150217905550905050600c54600160003373ffffffffffffffffffffffffffffffffffffffff1673ffffffffffffffffffffffffffffffffffffffff16815260200190815260200160002060090181905550600c60008154809291906118a09061530d565b9190505550505050565b600880546118b7906152db565b80601f01602080910402602001604051908101604052809291908181526020018280546118e3906152db565b80156119305780601f1061190557610100808354040283529160200191611930565b820191906000526020600020905b81548152906001019060200180831161191357829003601f168201915b505050505081565b60075481565b6060806000806119f4600160003373ffffffffffffffffffffffffffffffffffffffff1673ffffffffffffffffffffffffffffffffffffffff168152602001908152602001600020600701547f79be667ef9dcbbac55a06295ce870b07029bfcdb2dce28d959f2815b16f817987f483ada7726a3c4655da4fbfc0e1108a8fd17b448a68554199c47d08ffb10d4b860007ffffffffffffffffffffffffffffffffffffffffffffffffffffffffefffffc2f6124cb565b915091505b611a288282600060077ffffffffffffffffffffffffffffffffffffffffffffffffffffffffefffffc2f612505565b611ae957611adc600160003373ffffffffffffffffffffffffffffffffffffffff1673ffffffffffffffffffffffffffffffffffffffff168152602001908152602001600020600701547f79be667ef9dcbbac55a06295ce870b07029bfcdb2dce28d959f2815b16f817987f483ada7726a3c4655da4fbfc0e1108a8fd17b448a68554199c47d08ffb10d4b860007ffffffffffffffffffffffffffffffffffffffffffffffffffffffffefffffc2f6124cb565b80925081935050506119f9565b611af2826126b7565b611afb826126b7565b9350935050509091565b6000600160003373ffffffffffffffffffffffffffffffffffffffff1673ffffffffffffffffffffffffffffffffffffffff16815260200190815260200160002060060160009054906101000a900460ff16905090565b601160009054906101000a900473ffffffffffffffffffffffffffffffffffffffff1673ffffffffffffffffffffffffffffffffffffffff163373ffffffffffffffffffffffffffffffffffffffff1614611bec576040517f08c379a0000000000000000000000000000000000000000000000000000000008152600401611be390614ff5565b60405180910390fd5b60106000815480929190611bff9061530d565b919050555060036010541015611dac5760016010541415611cfe57600554600b5411611c60576040517f08c379a0000000000000000000000000000000000000000000000000000000008152600401611c5790614eb5565b60405180910390fd5b60095460055411611ca6576040517f08c379a0000000000000000000000000000000000000000000000000000000008152600401611c9d90614ed5565b60405180910390fd5b600d60105460038110611ce2577f4e487b7100000000000000000000000000000000000000000000000000000000600052603260045260246000fd5b016008908054611cf1906152db565b611cfc92919061419d565b505b60026010541415611da757600a54600c5411611d4f576040517f08c379a0000000000000000000000000000000000000000000000000000000008152600401611d4690614ef5565b60405180910390fd5b600d60105460038110611d8b577f4e487b7100000000000000000000000000000000000000000000000000000000600052603260045260246000fd5b016008908054611d9a906152db565b611da592919061419d565b505b611df9565b6040518060400160405280600e81526020017f456c656374696f6e20656e64656400000000000000000000000000000000000081525060089080519060200190611df7929190614117565b505b565b60065481565b6002602052806000526040600020600091509050806000018054611e24906152db565b80601f0160208091040260200160405190810160405280929190818152602001828054611e50906152db565b8015611e9d5780601f10611e7257610100808354040283529160200191611e9d565b820191906000526020600020905b815481529060010190602001808311611e8057829003601f168201915b505050505090806001018054611eb2906152db565b80601f0160208091040260200160405190810160405280929190818152602001828054611ede906152db565b8015611f2b5780601f10611f0057610100808354040283529160200191611f2b565b820191906000526020600020905b815481529060010190602001808311611f0e57829003601f168201915b505050505090806002018054611f40906152db565b80601f0160208091040260200160405190810160405280929190818152602001828054611f6c906152db565b8015611fb95780601f10611f8e57610100808354040283529160200191611fb9565b820191906000526020600020905b815481529060010190602001808311611f9c57829003601f168201915b5050505050908060030160009054906101000a900460ff16905084565b601160009054906101000a900473ffffffffffffffffffffffffffffffffffffffff1673ffffffffffffffffffffffffffffffffffffffff163373ffffffffffffffffffffffffffffffffffffffff161415612067576040517f08c379a000000000000000000000000000000000000000000000000000000000815260040161205e90614f95565b60405180910390fd5b600033905060006120778761114d565b90506000600160008473ffffffffffffffffffffffffffffffffffffffff1673ffffffffffffffffffffffffffffffffffffffff16815260200190815260200160002090508060060160009054906101000a900460ff161561210e576040517f08c379a000000000000000000000000000000000000000000000000000000000815260040161210590614f75565b60405180910390fd5b600073ffffffffffffffffffffffffffffffffffffffff166003600084815260200190815260200160002060009054906101000a900473ffffffffffffffffffffffffffffffffffffffff1673ffffffffffffffffffffffffffffffffffffffff16146121b0576040517f08c379a00000000000000000000000000000000000000000000000000000000081526004016121a790614fd5565b60405180910390fd5b8260046000600b54815260200190815260200160002060006101000a81548173ffffffffffffffffffffffffffffffffffffffff021916908373ffffffffffffffffffffffffffffffffffffffff1602179055506040518061016001604052808381526020016000151581526020018473ffffffffffffffffffffffffffffffffffffffff168152602001888152602001878152602001868152602001858152602001600115158152602001600081526020016000151581526020016000815250600160008573ffffffffffffffffffffffffffffffffffffffff1673ffffffffffffffffffffffffffffffffffffffff1681526020019081526020016000206000820151816000015560208201518160010160006101000a81548160ff02191690831515021790555060408201518160010160016101000a81548173ffffffffffffffffffffffffffffffffffffffff021916908373ffffffffffffffffffffffffffffffffffffffff160217905550606082015181600201908051906020019061233d929190614117565b50608082015181600301908051906020019061235a929190614117565b5060a0820151816004019080519060200190612377929190614117565b5060c0820151816005019080519060200190612394929190614117565b5060e08201518160060160006101000a81548160ff02191690831515021790555061010082015181600701556101208201518160080160006101000a81548160ff0219169083151502179055506101408201518160090155905050826003600084815260200190815260200160002060006101000a81548173ffffffffffffffffffffffffffffffffffffffff021916908373ffffffffffffffffffffffffffffffffffffffff160217905550600b60008154809291906124549061530d565b91905055505050505050505050565b600080600060418451146124ac576040517f08c379a00000000000000000000000000000000000000000000000000000000081526004016124a390615015565b60405180910390fd5b6020840151925060408401519150606084015160001a90509193909250565b60008060008060006124e28a8a8a60018b8b6127db565b9250925092506124f48383838961287b565b945094505050509550959350505050565b600085600014806125165750818610155b806125215750846000145b8061252c5750818510155b1561253a57600090506126ae565b60008280612571577f4e487b7100000000000000000000000000000000000000000000000000000000600052601260045260246000fd5b8687099050600083806125ad577f4e487b7100000000000000000000000000000000000000000000000000000000600052601260045260246000fd5b8885806125e3577f4e487b7100000000000000000000000000000000000000000000000000000000600052601260045260246000fd5b8a8b0909905060008614612663578380612626577f4e487b7100000000000000000000000000000000000000000000000000000000600052601260045260246000fd5b848061265b577f4e487b7100000000000000000000000000000000000000000000000000000000600052601260045260246000fd5b878a09820890505b600085146126a65783806126a0577f4e487b7100000000000000000000000000000000000000000000000000000000600052601260045260246000fd5b85820890505b808214925050505b95945050505050565b6060600060016126c68461298a565b01905060008167ffffffffffffffff81111561270b577f4e487b7100000000000000000000000000000000000000000000000000000000600052604160045260246000fd5b6040519080825280601f01601f19166020018201604052801561273d5781602001600182028036833780820191505090505b509050600082602001820190505b6001156127d0578080600190039150507f3031323334353637383961626364656600000000000000000000000000000000600a86061a8153600a85816127ba577f4e487b7100000000000000000000000000000000000000000000000000000000600052601260045260246000fd5b04945060008514156127cb576127d0565b61274b565b819350505050919050565b6000806000808914156127f65787878792509250925061286f565b60008990506000806000600190505b600084146128615760006001851614612834576128278383838f8f8f8e612bc1565b8093508194508295505050505b600284612841919061517b565b93506128508c8c8c8c8c613b4e565b809c50819d50829e50505050612805565b828282965096509650505050505b96509650969350505050565b600080600061288a8585613fdf565b9050600084806128c3577f4e487b7100000000000000000000000000000000000000000000000000000000600052601260045260246000fd5b8283099050600085806128ff577f4e487b7100000000000000000000000000000000000000000000000000000000600052601260045260246000fd5b828a0990506000868061293b577f4e487b7100000000000000000000000000000000000000000000000000000000600052601260045260246000fd5b8780612970577f4e487b7100000000000000000000000000000000000000000000000000000000600052601260045260246000fd5b8486098a0990508181955095505050505094509492505050565b600080600090507a184f03e93ff9f4daa797ed6e38ed64bf6a1f0100000000000000008310612a0e577a184f03e93ff9f4daa797ed6e38ed64bf6a1f0100000000000000008381612a04577f4e487b7100000000000000000000000000000000000000000000000000000000600052601260045260246000fd5b0492506040810190505b6d04ee2d6d415b85acef81000000008310612a71576d04ee2d6d415b85acef81000000008381612a67577f4e487b7100000000000000000000000000000000000000000000000000000000600052601260045260246000fd5b0492506020810190505b662386f26fc100008310612ac657662386f26fc100008381612abc577f4e487b7100000000000000000000000000000000000000000000000000000000600052601260045260246000fd5b0492506010810190505b6305f5e1008310612b15576305f5e1008381612b0b577f4e487b7100000000000000000000000000000000000000000000000000000000600052601260045260246000fd5b0492506008810190505b6127108310612b60576127108381612b56577f4e487b7100000000000000000000000000000000000000000000000000000000600052601260045260246000fd5b0492506004810190505b60648310612ba95760648381612b9f577f4e487b7100000000000000000000000000000000000000000000000000000000600052601260045260246000fd5b0492506002810190505b600a8310612bb8576001810190505b80915050919050565b6000806000808a148015612bd55750600089145b15612be857868686925092509250613b41565b600087148015612bf85750600086145b15612c0b57898989925092509250613b41565b612c1361422a565b8480612c48577f4e487b7100000000000000000000000000000000000000000000000000000000600052601260045260246000fd5b898a0981600060048110612c85577f4e487b7100000000000000000000000000000000000000000000000000000000600052603260045260246000fd5b6020020181815250508480612cc3577f4e487b7100000000000000000000000000000000000000000000000000000000600052601260045260246000fd5b81600060048110612cfd577f4e487b7100000000000000000000000000000000000000000000000000000000600052603260045260246000fd5b60200201518a0981600160048110612d3e577f4e487b7100000000000000000000000000000000000000000000000000000000600052603260045260246000fd5b6020020181815250508480612d7c577f4e487b7100000000000000000000000000000000000000000000000000000000600052601260045260246000fd5b86870981600260048110612db9577f4e487b7100000000000000000000000000000000000000000000000000000000600052603260045260246000fd5b6020020181815250508480612df7577f4e487b7100000000000000000000000000000000000000000000000000000000600052601260045260246000fd5b81600260048110612e31577f4e487b7100000000000000000000000000000000000000000000000000000000600052603260045260246000fd5b6020020151870981600360048110612e72577f4e487b7100000000000000000000000000000000000000000000000000000000600052603260045260246000fd5b60200201818152505060405180608001604052808680612ebb577f4e487b7100000000000000000000000000000000000000000000000000000000600052601260045260246000fd5b83600260048110612ef5577f4e487b7100000000000000000000000000000000000000000000000000000000600052603260045260246000fd5b60200201518e0981526020018680612f36577f4e487b7100000000000000000000000000000000000000000000000000000000600052601260045260246000fd5b83600360048110612f70577f4e487b7100000000000000000000000000000000000000000000000000000000600052603260045260246000fd5b60200201518d0981526020018680612fb1577f4e487b7100000000000000000000000000000000000000000000000000000000600052601260045260246000fd5b83600060048110612feb577f4e487b7100000000000000000000000000000000000000000000000000000000600052603260045260246000fd5b60200201518b098152602001868061302c577f4e487b7100000000000000000000000000000000000000000000000000000000600052601260045260246000fd5b83600160048110613066577f4e487b7100000000000000000000000000000000000000000000000000000000600052603260045260246000fd5b60200201518a098152509050806002600481106130ac577f4e487b7100000000000000000000000000000000000000000000000000000000600052603260045260246000fd5b6020020151816000600481106130eb577f4e487b7100000000000000000000000000000000000000000000000000000000600052603260045260246000fd5b6020020151141580613179575080600360048110613132577f4e487b7100000000000000000000000000000000000000000000000000000000600052603260045260246000fd5b602002015181600160048110613171577f4e487b7100000000000000000000000000000000000000000000000000000000600052603260045260246000fd5b602002015114155b6131b8576040517f08c379a00000000000000000000000000000000000000000000000000000000081526004016131af90614f55565b60405180910390fd5b6131c061422a565b85806131f5577f4e487b7100000000000000000000000000000000000000000000000000000000600052601260045260246000fd5b8260006004811061322f577f4e487b7100000000000000000000000000000000000000000000000000000000600052603260045260246000fd5b60200201518761323f9190615206565b83600260048110613279577f4e487b7100000000000000000000000000000000000000000000000000000000600052603260045260246000fd5b602002015108816000600481106132b9577f4e487b7100000000000000000000000000000000000000000000000000000000600052603260045260246000fd5b60200201818152505085806132f7577f4e487b7100000000000000000000000000000000000000000000000000000000600052601260045260246000fd5b82600160048110613331577f4e487b7100000000000000000000000000000000000000000000000000000000600052603260045260246000fd5b6020020151876133419190615206565b8360036004811061337b577f4e487b7100000000000000000000000000000000000000000000000000000000600052603260045260246000fd5b602002015108816001600481106133bb577f4e487b7100000000000000000000000000000000000000000000000000000000600052603260045260246000fd5b60200201818152505085806133f9577f4e487b7100000000000000000000000000000000000000000000000000000000600052601260045260246000fd5b81600060048110613433577f4e487b7100000000000000000000000000000000000000000000000000000000600052603260045260246000fd5b602002015182600060048110613472577f4e487b7100000000000000000000000000000000000000000000000000000000600052603260045260246000fd5b602002015109816002600481106134b2577f4e487b7100000000000000000000000000000000000000000000000000000000600052603260045260246000fd5b60200201818152505085806134f0577f4e487b7100000000000000000000000000000000000000000000000000000000600052601260045260246000fd5b8160006004811061352a577f4e487b7100000000000000000000000000000000000000000000000000000000600052603260045260246000fd5b602002015182600260048110613569577f4e487b7100000000000000000000000000000000000000000000000000000000600052603260045260246000fd5b602002015109816003600481106135a9577f4e487b7100000000000000000000000000000000000000000000000000000000600052603260045260246000fd5b602002018181525050600086806135e9577f4e487b7100000000000000000000000000000000000000000000000000000000600052601260045260246000fd5b82600360048110613623577f4e487b7100000000000000000000000000000000000000000000000000000000600052603260045260246000fd5b6020020151886136339190615206565b8880613668577f4e487b7100000000000000000000000000000000000000000000000000000000600052601260045260246000fd5b846001600481106136a2577f4e487b7100000000000000000000000000000000000000000000000000000000600052603260045260246000fd5b6020020151856001600481106136e1577f4e487b7100000000000000000000000000000000000000000000000000000000600052603260045260246000fd5b602002015109089050868061371f577f4e487b7100000000000000000000000000000000000000000000000000000000600052601260045260246000fd5b8780613754577f4e487b7100000000000000000000000000000000000000000000000000000000600052601260045260246000fd5b8880613789577f4e487b7100000000000000000000000000000000000000000000000000000000600052601260045260246000fd5b846002600481106137c3577f4e487b7100000000000000000000000000000000000000000000000000000000600052603260045260246000fd5b602002015186600060048110613802577f4e487b7100000000000000000000000000000000000000000000000000000000600052603260045260246000fd5b602002015109600209886138169190615206565b8208905060008780613851577f4e487b7100000000000000000000000000000000000000000000000000000000600052601260045260246000fd5b8880613886577f4e487b7100000000000000000000000000000000000000000000000000000000600052601260045260246000fd5b838a6138929190615206565b8a806138c7577f4e487b7100000000000000000000000000000000000000000000000000000000600052601260045260246000fd5b86600260048110613901577f4e487b7100000000000000000000000000000000000000000000000000000000600052603260045260246000fd5b602002015188600060048110613940577f4e487b7100000000000000000000000000000000000000000000000000000000600052603260045260246000fd5b6020020151090884600160048110613981577f4e487b7100000000000000000000000000000000000000000000000000000000600052603260045260246000fd5b602002015109905087806139be577f4e487b7100000000000000000000000000000000000000000000000000000000600052601260045260246000fd5b88806139f3577f4e487b7100000000000000000000000000000000000000000000000000000000600052601260045260246000fd5b84600360048110613a2d577f4e487b7100000000000000000000000000000000000000000000000000000000600052603260045260246000fd5b602002015186600160048110613a6c577f4e487b7100000000000000000000000000000000000000000000000000000000600052603260045260246000fd5b60200201510989613a7d9190615206565b8208905060008880613ab8577f4e487b7100000000000000000000000000000000000000000000000000000000600052601260045260246000fd5b8980613aed577f4e487b7100000000000000000000000000000000000000000000000000000000600052601260045260246000fd5b8b8f0985600060048110613b2a577f4e487b7100000000000000000000000000000000000000000000000000000000600052603260045260246000fd5b602002015109905082828297509750975050505050505b9750975097945050505050565b600080600080861415613b6957878787925092509250613fd4565b60008480613ba0577f4e487b7100000000000000000000000000000000000000000000000000000000600052601260045260246000fd5b898a09905060008580613bdc577f4e487b7100000000000000000000000000000000000000000000000000000000600052601260045260246000fd5b898a09905060008680613c18577f4e487b7100000000000000000000000000000000000000000000000000000000600052601260045260246000fd5b898a09905060008780613c54577f4e487b7100000000000000000000000000000000000000000000000000000000600052601260045260246000fd5b8880613c89577f4e487b7100000000000000000000000000000000000000000000000000000000600052601260045260246000fd5b848e09600409905060008880613cc8577f4e487b7100000000000000000000000000000000000000000000000000000000600052601260045260246000fd5b8980613cfd577f4e487b7100000000000000000000000000000000000000000000000000000000600052601260045260246000fd5b8a80613d32577f4e487b7100000000000000000000000000000000000000000000000000000000600052601260045260246000fd5b8586098c098a80613d6c577f4e487b7100000000000000000000000000000000000000000000000000000000600052601260045260246000fd5b876003090890508880613da8577f4e487b7100000000000000000000000000000000000000000000000000000000600052601260045260246000fd5b8980613ddd577f4e487b7100000000000000000000000000000000000000000000000000000000600052601260045260246000fd5b8384088a613deb9190615206565b8a80613e20577f4e487b7100000000000000000000000000000000000000000000000000000000600052601260045260246000fd5b8384090894508880613e5b577f4e487b7100000000000000000000000000000000000000000000000000000000600052601260045260246000fd5b8980613e90577f4e487b7100000000000000000000000000000000000000000000000000000000600052601260045260246000fd5b8a80613ec5577f4e487b7100000000000000000000000000000000000000000000000000000000600052601260045260246000fd5b8687096008098a613ed69190615206565b8a80613f0b577f4e487b7100000000000000000000000000000000000000000000000000000000600052601260045260246000fd5b8b80613f40577f4e487b7100000000000000000000000000000000000000000000000000000000600052601260045260246000fd5b888d613f4c9190615206565b860884090893508880613f88577f4e487b7100000000000000000000000000000000000000000000000000000000600052601260045260246000fd5b8980613fbd577f4e487b7100000000000000000000000000000000000000000000000000000000600052601260045260246000fd5b8c8e09600209925084848497509750975050505050505b955095509592505050565b6000808314158015613ff15750818314155b8015613ffe575060008214155b61403d576040517f08c379a000000000000000000000000000000000000000000000000000000000815260040161403490615035565b60405180910390fd5b60008060019050600084905060005b6000871461410a578682614060919061517b565b9050828680614098577f4e487b7100000000000000000000000000000000000000000000000000000000600052601260045260246000fd5b87806140cd577f4e487b7100000000000000000000000000000000000000000000000000000000600052601260045260246000fd5b858409886140db9190615206565b860880945081955050508687826140f291906151ac565b836140fd9190615206565b809850819350505061404c565b8394505050505092915050565b828054614123906152db565b90600052602060002090601f016020900481019282614145576000855561418c565b82601f1061415e57805160ff191683800117855561418c565b8280016001018555821561418c579182015b8281111561418b578251825591602001919060010190614170565b5b509050614199919061424c565b5090565b8280546141a9906152db565b90600052602060002090601f0160209004810192826141cb5760008555614219565b82601f106141dc5780548555614219565b8280016001018555821561421957600052602060002091601f016020900482015b828111156142185782548255916001019190600101906141fd565b5b509050614226919061424c565b5090565b6040518060800160405280600490602082028036833780820191505090505090565b5b8082111561426557600081600090555060010161424d565b5090565b600061427c614277846150f4565b6150c3565b90508281526020810184848401111561429457600080fd5b61429f848285615299565b509392505050565b60006142ba6142b584615124565b6150c3565b9050828152602081018484840111156142d257600080fd5b6142dd848285615299565b509392505050565b6000813590506142f481615468565b92915050565b600082601f83011261430b57600080fd5b813561431b848260208601614269565b91505092915050565b600082601f83011261433557600080fd5b81356143458482602086016142a7565b91505092915050565b60008135905061435d8161547f565b92915050565b60006020828403121561437557600080fd5b6000614383848285016142e5565b91505092915050565b6000806040838503121561439f57600080fd5b60006143ad858286016142e5565b925050602083013567ffffffffffffffff8111156143ca57600080fd5b6143d6858286016142fa565b9150509250929050565b6000602082840312156143f257600080fd5b600082013567ffffffffffffffff81111561440c57600080fd5b61441884828501614324565b91505092915050565b6000806040838503121561443457600080fd5b600083013567ffffffffffffffff81111561444e57600080fd5b61445a85828601614324565b925050602083013567ffffffffffffffff81111561447757600080fd5b614483858286016142fa565b9150509250929050565b600080604083850312156144a057600080fd5b600083013567ffffffffffffffff8111156144ba57600080fd5b6144c685828601614324565b925050602083013567ffffffffffffffff8111156144e357600080fd5b6144ef85828601614324565b9150509250929050565b600080600080600060a0868803121561451157600080fd5b600086013567ffffffffffffffff81111561452b57600080fd5b61453788828901614324565b955050602086013567ffffffffffffffff81111561455457600080fd5b61456088828901614324565b945050604086013567ffffffffffffffff81111561457d57600080fd5b61458988828901614324565b935050606086013567ffffffffffffffff8111156145a657600080fd5b6145b288828901614324565b925050608086013567ffffffffffffffff8111156145cf57600080fd5b6145db88828901614324565b9150509295509295909350565b6000602082840312156145fa57600080fd5b60006146088482850161434e565b91505092915050565b60008060006060848603121561462657600080fd5b60006146348682870161434e565b935050602084013567ffffffffffffffff81111561465157600080fd5b61465d86828701614324565b925050604084013567ffffffffffffffff81111561467a57600080fd5b61468686828701614324565b9150509250925092565b600080604083850312156146a357600080fd5b60006146b18582860161434e565b92505060206146c28582860161434e565b9150509250929050565b6146d58161523a565b82525050565b6146ec6146e78261523a565b615356565b82525050565b6146fb8161524c565b82525050565b61470a81615258565b82525050565b61472161471c82615258565b615368565b82525050565b600061473282615154565b61473c818561515f565b935061474c8185602086016152a8565b6147558161544a565b840191505092915050565b600061476b82615154565b6147758185615170565b93506147858185602086016152a8565b80840191505092915050565b600061479e601e8361515f565b91507f4f6e6c7920726567697374657265642075736572732063616e20766f746500006000830152602082019050919050565b60006147de600d8361515f565b91507f416c726561647920566f746564000000000000000000000000000000000000006000830152602082019050919050565b600061481e601c83615170565b91507f19457468657265756d205369676e6564204d6573736167653a0a3332000000006000830152601c82019050919050565b600061485e60118361515f565b91507f4e6f7420456e6f75676820566f746572730000000000000000000000000000006000830152602082019050919050565b600061489e60158361515f565b91507f4e6f7420456e6f7567682043616e6469646174657300000000000000000000006000830152602082019050919050565b60006148de60108361515f565b91507f4e6f7420456e6f75676820566f746573000000000000000000000000000000006000830152602082019050919050565b600061491e60128361515f565b91507f566f74696e6720696e2070726f677265737300000000000000000000000000006000830152602082019050919050565b600061495e602b8361515f565b91507f43616e6e6f74206164642063616e6469646174657320647572696e6720766f7460008301527f696e672070726f636573730000000000000000000000000000000000000000006020830152604082019050919050565b60006149c4601e8361515f565b91507f557365206a6163446f75626c652066756e6374696f6e20696e737465616400006000830152602082019050919050565b6000614a0460218361515f565b91507f546865207075626c6963206164647265737320616c726561647920696e20757360008301527f65000000000000000000000000000000000000000000000000000000000000006020830152604082019050919050565b6000614a6a60158361515f565b91507f41646d696e2043616e6e6f7420726567697374657200000000000000000000006000830152602082019050919050565b6000614aaa60138361515f565b91507f566f74657220616c726561647920766f746564000000000000000000000000006000830152602082019050919050565b6000614aea601a8361515f565b91507f506572736f6e616c20494420616c726561647920696e207573650000000000006000830152602082019050919050565b6000614b2a60248361515f565b91507f4f6e6c792041646d696e2063616e20706572666f726d20746869732066756e6360008301527f74696f6e000000000000000000000000000000000000000000000000000000006020830152604082019050919050565b6000614b9060188361515f565b91507f696e76616c6964207369676e6174757265206c656e67746800000000000000006000830152602082019050919050565b6000614bd0600e8361515f565b91507f496e76616c6964206e756d6265720000000000000000000000000000000000006000830152602082019050919050565b614c0c81615282565b82525050565b614c23614c1e82615282565b615384565b82525050565b614c328161528c565b82525050565b6000614c448284614760565b915081905092915050565b6000614c5a82614811565b9150614c668284614710565b60208201915081905092915050565b6000614c818285614c12565b602082019150614c9182846146db565b6014820191508190509392505050565b6000602082019050614cb660008301846146cc565b92915050565b6000602082019050614cd160008301846146f2565b92915050565b6000602082019050614cec6000830184614701565b92915050565b6000608082019050614d076000830187614701565b614d146020830186614c29565b614d216040830185614701565b614d2e6060830184614701565b95945050505050565b60006020820190508181036000830152614d518184614727565b905092915050565b60006040820190508181036000830152614d738185614727565b90508181036020830152614d878184614727565b90509392505050565b60006080820190508181036000830152614daa8187614727565b90508181036020830152614dbe8186614727565b90508181036040830152614dd28185614727565b9050614de160608301846146f2565b95945050505050565b600060e0820190508181036000830152614e04818a614727565b90508181036020830152614e188189614727565b90508181036040830152614e2c8188614727565b90508181036060830152614e408187614727565b9050614e4f60808301866146f2565b614e5c60a08301856146f2565b614e6960c08301846146f2565b98975050505050505050565b60006020820190508181036000830152614e8e81614791565b9050919050565b60006020820190508181036000830152614eae816147d1565b9050919050565b60006020820190508181036000830152614ece81614851565b9050919050565b60006020820190508181036000830152614eee81614891565b9050919050565b60006020820190508181036000830152614f0e816148d1565b9050919050565b60006020820190508181036000830152614f2e81614911565b9050919050565b60006020820190508181036000830152614f4e81614951565b9050919050565b60006020820190508181036000830152614f6e816149b7565b9050919050565b60006020820190508181036000830152614f8e816149f7565b9050919050565b60006020820190508181036000830152614fae81614a5d565b9050919050565b60006020820190508181036000830152614fce81614a9d565b9050919050565b60006020820190508181036000830152614fee81614add565b9050919050565b6000602082019050818103600083015261500e81614b1d565b9050919050565b6000602082019050818103600083015261502e81614b83565b9050919050565b6000602082019050818103600083015261504e81614bc3565b9050919050565b600060208201905061506a6000830184614c03565b92915050565b60006080820190506150856000830187614c03565b81810360208301526150978186614727565b905081810360408301526150ab8185614727565b90506150ba6060830184614c03565b95945050505050565b6000604051905081810181811067ffffffffffffffff821117156150ea576150e961541b565b5b8060405250919050565b600067ffffffffffffffff82111561510f5761510e61541b565b5b601f19601f8301169050602081019050919050565b600067ffffffffffffffff82111561513f5761513e61541b565b5b601f19601f8301169050602081019050919050565b600081519050919050565b600082825260208201905092915050565b600081905092915050565b600061518682615282565b915061519183615282565b9250826151a1576151a06153bd565b5b828204905092915050565b60006151b782615282565b91506151c283615282565b9250817fffffffffffffffffffffffffffffffffffffffffffffffffffffffffffffffff04831182151516156151fb576151fa61538e565b5b828202905092915050565b600061521182615282565b915061521c83615282565b92508282101561522f5761522e61538e565b5b828203905092915050565b600061524582615262565b9050919050565b60008115159050919050565b6000819050919050565b600073ffffffffffffffffffffffffffffffffffffffff82169050919050565b6000819050919050565b600060ff82169050919050565b82818337600083830152505050565b60005b838110156152c65780820151818401526020810190506152ab565b838111156152d5576000848401525b50505050565b600060028204905060018216806152f357607f821691505b60208210811415615307576153066153ec565b5b50919050565b600061531882615282565b91507fffffffffffffffffffffffffffffffffffffffffffffffffffffffffffffffff82141561534b5761534a61538e565b5b600182019050919050565b600061536182615372565b9050919050565b6000819050919050565b600061537d8261545b565b9050919050565b6000819050919050565b7f4e487b7100000000000000000000000000000000000000000000000000000000600052601160045260246000fd5b7f4e487b7100000000000000000000000000000000000000000000000000000000600052601260045260246000fd5b7f4e487b7100000000000000000000000000000000000000000000000000000000600052602260045260246000fd5b7f4e487b7100000000000000000000000000000000000000000000000000000000600052604160045260246000fd5b6000601f19601f8301169050919050565b60008160601b9050919050565b61547181615258565b811461547c57600080fd5b50565b61548881615282565b811461549357600080fd5b5056fea2646970667358221220b726223726698adfd950c181ba8df10041d73ec642795a8683c073dd51a89d7a64736f6c63430008000033",
  "immutableReferences": {},
  "source": "// SPDX-License-Identifier: MIT \r\npragma solidity  ^0.8.0;\r\nimport \"./EllipticCurve.sol\";\r\nimport \"@openzeppelin/contracts/utils/Strings.sol\";\r\n\r\n\r\n\r\ncontract Election { \r\n\r\n    struct voter {\r\n        bytes32 personal_id; //their personal id\r\n        bool hasVoted; //have they voted\r\n        address public_Address; //public address to wallet\r\n        string email; //email address for communication\r\n        string name; //name of voter \r\n        string surname; \r\n        string refNUm; \r\n        bool isRegistered;\r\n        uint256 PrivateKey;\r\n        bool  isVerifiedUser;\r\n        uint position;\r\n    }\r\n \r\n    struct votingRecords{\r\n        string ref;\r\n        string voteDate;\r\n        string voteTime;\r\n        bool isVerified;\r\n    }\r\n\r\n    \r\n\r\n\r\n     // Model a Candidate\r\n    struct Candidate {\r\n        uint id;\r\n        string name;\r\n        string party;\r\n        uint voteCount;\r\n    }\r\n    //ECC CONSTANTS - SECPTIC256\r\n    uint256 private constant GX = 0x79BE667EF9DCBBAC55A06295CE870B07029BFCDB2DCE28D959F2815B16F81798;\r\n    uint256 private constant GY = 0x483ADA7726A3C4655DA4FBFC0E1108A8FD17B448A68554199C47D08FFB10D4B8;\r\n    uint256 private constant AA = 0;\r\n    uint256 private constant BB = 7;\r\n    uint256 private constant PP = 0xFFFFFFFFFFFFFFFFFFFFFFFFFFFFFFFFFFFFFFFFFFFFFFFFFFFFFFFEFFFFFC2F;\r\n\r\n    // Read/write candidate\r\n    mapping(uint => Candidate) public candidates;\r\n\r\n    // Store accounts that have voted\r\n    mapping(address => voter) private voters;\r\n\r\n    mapping(uint => votingRecords) public votingTrails;\r\n\r\n    // Stores encyrted ID'S\r\n    mapping(bytes32 => address) private verifier;\r\n    mapping(uint => address) private recorder;\r\n\r\n\r\n    // Store Candidates Count\r\n    uint public candidatesCount;\r\n\r\n    uint256 public p1Holder;\r\n    uint256 public p2Holder;\r\n\r\n    // Stores Election phase\r\n    string public phase;\r\n\r\n    uint private minimum_candidates =2;\r\n    uint private minVotes = 2;\r\n\r\n    // Store number of voters\r\n    uint public votersCount;\r\n\r\n    //number of total votes\r\n    uint public numVotes;\r\n\r\n    string[3] phases = [\"registration\" , \"voting\", \"results\"];\r\n    uint public phasePointer;\r\n\r\n    // Admin is set once, when contract is deployed. Also saves gas fees\r\n    address private admin;\r\n    uint256 public votingStart;  //start of phase\r\n    uint256 public votingEnd; //end of phase\r\n\r\n    constructor() public { \r\n        admin = msg.sender;\r\n        phase=\"Election has not started\";\r\n    } \r\n\r\n    modifier onlyAdmin(){\r\n\t\trequire(msg.sender==admin, \"Only Admin can perform this function\");\r\n\t\t_;\r\n\t}\r\n\r\n       // Add a candidate\r\n    function addCandidate (string memory _name, string memory _party) onlyAdmin public {\r\n        require(phasePointer<=0, \"Cannot add candidates during voting process\");\r\n        candidatesCount ++;\r\n        candidates[candidatesCount] = Candidate({\r\n            id: candidatesCount, \r\n            name: _name,\r\n            party: _party, \r\n            voteCount: 0\r\n            });\r\n    }\r\n\r\n\r\n     // Add a voter\r\n    function addVoter (string memory _personal_id, string memory _email, string memory _name, string memory _surname, string memory _ref) public {\r\n            require(msg.sender != admin, \"Admin Cannot register\"); //require that the user is not registered\r\n            address _pAdress = msg.sender; \r\n            bytes32 encrypt_id = keccak256_encrypt(_personal_id);  //encrypt personal id\r\n            voter storage user = voters[_pAdress];\r\n            require(!user.isRegistered, \"The public address already in use\"); //require that the user is not registered\r\n\r\n            //require that personal_id is not already in use\r\n            require(verifier[encrypt_id] == 0x0000000000000000000000000000000000000000, \"Personal ID already in use\");\r\n            recorder[votersCount] = _pAdress;\r\n            voters[_pAdress] = voter( {personal_id: encrypt_id, \r\n                            hasVoted:false, \r\n                            public_Address:_pAdress,\r\n                            email: _email, \r\n                            name:_name, \r\n                            surname: _surname, \r\n                            refNUm: _ref,\r\n                            isRegistered:true,\r\n                            PrivateKey:0,\r\n                            isVerifiedUser:false,\r\n                            position:0\r\n                    });\r\n            \r\n           \r\n            verifier[encrypt_id] = _pAdress;\r\n            votersCount ++;\r\n            \r\n    }\r\n\r\n    //get voter details to display to voter\r\n    function getVoter() public view returns(string memory, string memory, string memory, string memory, bool, bool, bool){\r\n            return(voters[msg.sender].name, voters[msg.sender].surname, voters[msg.sender].email, \r\n            voters[msg.sender].refNUm, voters[msg.sender].isRegistered, voters[msg.sender].hasVoted, voters[msg.sender].isVerifiedUser);             \r\n    }\r\n\r\n    //returns true if voter registered\r\n    function isVoter_Registered() public view returns (bool){\r\n        return voters[msg.sender].isRegistered;\r\n    }\r\n\r\n    \r\n  // https://stackoverflow.com/questions/73555009/how-to-generate-random-words-in-solidity-based-based-on-a-string-of-letters/73557284#73557284\r\n  function random() public view returns (uint) {\r\n        return uint (keccak256(abi.encodePacked (block.timestamp, msg.sender)));\r\n     }\r\n\r\n     //returns true if voter registered\r\n    function has_Voted() public view returns (bool){\r\n        return voters[msg.sender].hasVoted;\r\n    }\r\n\r\n    // voting function, all accounts can vote\r\n    function vote (uint _candidateId, string memory _date, string memory _time) public {\r\n\r\n        //must be registered to vote\r\n        require(voters[msg.sender].isRegistered, \"Only registered users can vote\");\r\n\r\n        // require that they haven't voted before\r\n        require(!voters[msg.sender].hasVoted, \"Already Voted\"); \r\n        \r\n        // require a valid candidate\r\n        require(_candidateId > 0 && _candidateId <= candidatesCount);\r\n\r\n        // record that voter has voted\r\n        voters[msg.sender].hasVoted = true;\r\n\r\n        // update candidate vote Count\r\n        candidates[_candidateId].voteCount ++;\r\n\r\n        voters[msg.sender].PrivateKey = random();  //CREATE PRIVATE KEY *****\r\n    \r\n        votingTrails[numVotes] = votingRecords({\r\n                                                ref:voters[msg.sender].refNUm,\r\n                                                voteDate:_date,\r\n                                                voteTime:_time,\r\n                                                isVerified:false\r\n                                         });\r\n        voters[msg.sender].position = numVotes;\r\n        numVotes++;\r\n        \r\n    }\r\n\r\n    //Return voter keys\r\n     function copyKeys() public view returns(string memory, string memory){\r\n            (uint256 p1, uint256 p2) = EllipticCurve.ecMul(voters[msg.sender].PrivateKey,GX,GY,AA,PP); \r\n            while(!EllipticCurve.isOnCurve(p1, p2, AA, BB, PP)){\r\n                 (p1, p2) = EllipticCurve.ecMul(voters[msg.sender].PrivateKey,GX,GY,AA,PP); \r\n            }\r\n            return (Strings.toString(p1), Strings.toString(p2));          \r\n    }\r\n \r\n    //verify vote\r\n    function verifyVote(uint _key1, uint _key2) public{\r\n                 //must be registered to vote\r\n        require(voters[msg.sender].isRegistered, \"Only registered users can vote\");\r\n\r\n        // require that they haven't voted before\r\n        require(voters[msg.sender].hasVoted, \"Already Voted\");\r\n\r\n        require(!voters[msg.sender].isVerifiedUser, \"Voter already voted\");\r\n\r\n        (uint256 p1, uint256 p2) = EllipticCurve.ecMul(voters[msg.sender].PrivateKey,GX,GY,AA,PP); //creating public keys from the user address\r\n\r\n        if(p1==_key1 && _key2==p2 ){ //public keys match\r\n            votingTrails[voters[msg.sender].position].isVerified = true;\r\n            voters[msg.sender].isVerifiedUser = true;\r\n        }\r\n    }\r\n\r\n    //return true if voter has been audited\r\n    function getTrailer(uint position) public view returns(bool){\r\n         return votingTrails[position].isVerified;\r\n    }\r\n\r\n\r\n    // start election\r\n    function startElection() onlyAdmin public {\r\n            require(phasePointer!=1 && phasePointer!=2, \"Voting in progress\");\r\n            phasePointer = 0;\r\n            phase = phases[phasePointer]; //contract is deployed in the registration phase\r\n    \r\n    }\r\n\r\n    //change election phase\r\n    function changePhase() onlyAdmin public {\r\n        phasePointer++;\r\n        if (phasePointer <3) {\r\n            if(phasePointer == 1){ //from registration to voting\r\n                require(votersCount>candidatesCount, \"Not Enough Voters\");\r\n                require(candidatesCount>minimum_candidates, \"Not Enough Candidates\");\r\n                phase = phases[phasePointer];\r\n            }\r\n             if(phasePointer == 2){ //from voting to results\r\n                require(numVotes>minVotes, \"Not Enough Votes\");\r\n                phase = phases[phasePointer];\r\n            }\r\n            \r\n        } else {\r\n            phase = \"Election ended\";\r\n        }\r\n\r\n    }\r\n\r\n\r\n    //hash function\r\n    function keccak256_encrypt(string memory text) public pure returns (bytes32) {\r\n        return keccak256(abi.encode(text));\r\n    }\r\n\r\n    function getWinner() public view returns(string memory) {\r\n        uint winner = 1;\r\n        uint voterS = candidates[1].voteCount;\r\n        for (uint index = 2; index <=  candidatesCount; index++) {\r\n            if(candidates[index].voteCount > voterS){\r\n                winner = index;\r\n                voterS = candidates[index].voteCount;\r\n                }\r\n        }\r\n        return (candidates[winner].name);\r\n\r\n    }\r\n\r\n\r\n    //<----------------------------------- Verifies signed message -------------------------------->\r\n    function verify (string memory _message, bytes memory _sig) public view returns (bool) {\r\n        bytes32 hash_SMS = getHash(_message);\r\n        bytes32 ethSignedMessageHash = getEthSignedHash(hash_SMS);\r\n        return recover(ethSignedMessageHash, _sig) == admin;\r\n    }\r\n    \r\n    //has a tring\r\n    function getHash (string memory sms) public pure returns (bytes32){\r\n        return keccak256(abi.encodePacked(sms));\r\n    }\r\n\r\n\r\n    function getEthSignedHash (bytes32 sms) public pure returns (bytes32){\r\n        return keccak256(abi.encodePacked(\"\\x19Ethereum Signed Message:\\n32\", sms));\r\n    }\r\n\r\n\r\n    //recover account of original signer of message\r\n    function recover(bytes32 _ethSignedMessageHash, bytes memory _sig) public pure returns (address){\r\n            (bytes32 r, bytes32 s, uint8 v) = _split(_sig); //split signature into params\r\n            return ecrecover(_ethSignedMessageHash, v, r, s); //returns the address of the signer given the signed message\r\n    }\r\n\r\n    function _split(bytes memory _sig) internal pure returns (bytes32 r, bytes32 s, uint8 v){\r\n            require(_sig.length == 65, \"invalid signature length\");\r\n\r\n            assembly {\r\n                r := mload(add(_sig, 32))  //skip first 32-byetes as they hold the length\r\n                s := mload(add(_sig, 64))\r\n                v := byte(0, mload(add(_sig, 96)))\r\n\r\n            }\r\n    }\r\n\r\n    //<----------------------------------- ECC CRYPTOGRAPHY -------------------------------->\r\n\r\n}",
  "sourcePath": "C:\\Users\\Student\\Downloads\\crypto\\Code\\contracts\\Election.sol",
  "compiler": {
    "name": "solc",
    "version": "0.8.0+commit.c7dfd78e.Emscripten.clang"
  },
  "schemaVersion": "3.4.16",
  "updatedAt": "2023-09-29T15:34:49.602Z",
  "networkType": "ethereum",
  "devdoc": {
    "kind": "dev",
    "methods": {},
    "version": 1
  },
  "userdoc": {
    "kind": "user",
    "methods": {},
    "version": 1
  }
}