{
  "contractName": "Election",
  "abi": [
    {
      "inputs": [],
      "payable": false,
      "stateMutability": "nonpayable",
      "type": "constructor"
    },
    {
      "constant": true,
      "inputs": [
        {
          "internalType": "uint256",
          "name": "",
          "type": "uint256"
        }
      ],
      "name": "candidates",
      "outputs": [
        {
          "internalType": "uint256",
          "name": "id",
          "type": "uint256"
        },
        {
          "internalType": "string",
          "name": "name",
          "type": "string"
        },
        {
          "internalType": "string",
          "name": "party",
          "type": "string"
        },
        {
          "internalType": "uint256",
          "name": "voteCount",
          "type": "uint256"
        }
      ],
      "payable": false,
      "stateMutability": "view",
      "type": "function"
    },
    {
      "constant": true,
      "inputs": [],
      "name": "candidatesCount",
      "outputs": [
        {
          "internalType": "uint256",
          "name": "",
          "type": "uint256"
        }
      ],
      "payable": false,
      "stateMutability": "view",
      "type": "function"
    },
    {
      "constant": true,
      "inputs": [],
      "name": "numVotes",
      "outputs": [
        {
          "internalType": "uint256",
          "name": "",
          "type": "uint256"
        }
      ],
      "payable": false,
      "stateMutability": "view",
      "type": "function"
    },
    {
      "constant": true,
      "inputs": [],
      "name": "p1Holder",
      "outputs": [
        {
          "internalType": "uint256",
          "name": "",
          "type": "uint256"
        }
      ],
      "payable": false,
      "stateMutability": "view",
      "type": "function"
    },
    {
      "constant": true,
      "inputs": [],
      "name": "p2Holder",
      "outputs": [
        {
          "internalType": "uint256",
          "name": "",
          "type": "uint256"
        }
      ],
      "payable": false,
      "stateMutability": "view",
      "type": "function"
    },
    {
      "constant": true,
      "inputs": [],
      "name": "phase",
      "outputs": [
        {
          "internalType": "string",
          "name": "",
          "type": "string"
        }
      ],
      "payable": false,
      "stateMutability": "view",
      "type": "function"
    },
    {
      "constant": true,
      "inputs": [],
      "name": "phasePointer",
      "outputs": [
        {
          "internalType": "uint256",
          "name": "",
          "type": "uint256"
        }
      ],
      "payable": false,
      "stateMutability": "view",
      "type": "function"
    },
    {
      "constant": true,
      "inputs": [],
      "name": "votersCount",
      "outputs": [
        {
          "internalType": "uint256",
          "name": "",
          "type": "uint256"
        }
      ],
      "payable": false,
      "stateMutability": "view",
      "type": "function"
    },
    {
      "constant": true,
      "inputs": [],
      "name": "votingEnd",
      "outputs": [
        {
          "internalType": "uint256",
          "name": "",
          "type": "uint256"
        }
      ],
      "payable": false,
      "stateMutability": "view",
      "type": "function"
    },
    {
      "constant": true,
      "inputs": [],
      "name": "votingStart",
      "outputs": [
        {
          "internalType": "uint256",
          "name": "",
          "type": "uint256"
        }
      ],
      "payable": false,
      "stateMutability": "view",
      "type": "function"
    },
    {
      "constant": true,
      "inputs": [
        {
          "internalType": "uint256",
          "name": "",
          "type": "uint256"
        }
      ],
      "name": "votingTrails",
      "outputs": [
        {
          "internalType": "string",
          "name": "ref",
          "type": "string"
        },
        {
          "internalType": "string",
          "name": "voteDate",
          "type": "string"
        },
        {
          "internalType": "string",
          "name": "voteTime",
          "type": "string"
        },
        {
          "internalType": "bool",
          "name": "isVerified",
          "type": "bool"
        }
      ],
      "payable": false,
      "stateMutability": "view",
      "type": "function"
    },
    {
      "constant": false,
      "inputs": [
        {
          "internalType": "string",
          "name": "_name",
          "type": "string"
        },
        {
          "internalType": "string",
          "name": "_party",
          "type": "string"
        }
      ],
      "name": "addCandidate",
      "outputs": [],
      "payable": false,
      "stateMutability": "nonpayable",
      "type": "function"
    },
    {
      "constant": false,
      "inputs": [
        {
          "internalType": "string",
          "name": "_personal_id",
          "type": "string"
        },
        {
          "internalType": "string",
          "name": "_email",
          "type": "string"
        },
        {
          "internalType": "string",
          "name": "_name",
          "type": "string"
        },
        {
          "internalType": "string",
          "name": "_surname",
          "type": "string"
        },
        {
          "internalType": "string",
          "name": "_ref",
          "type": "string"
        }
      ],
      "name": "addVoter",
      "outputs": [],
      "payable": false,
      "stateMutability": "nonpayable",
      "type": "function"
    },
    {
      "constant": true,
      "inputs": [],
      "name": "getVoter",
      "outputs": [
        {
          "internalType": "string",
          "name": "",
          "type": "string"
        },
        {
          "internalType": "string",
          "name": "",
          "type": "string"
        },
        {
          "internalType": "string",
          "name": "",
          "type": "string"
        },
        {
          "internalType": "string",
          "name": "",
          "type": "string"
        },
        {
          "internalType": "bool",
          "name": "",
          "type": "bool"
        },
        {
          "internalType": "bool",
          "name": "",
          "type": "bool"
        },
        {
          "internalType": "bool",
          "name": "",
          "type": "bool"
        }
      ],
      "payable": false,
      "stateMutability": "view",
      "type": "function"
    },
    {
      "constant": true,
      "inputs": [],
      "name": "isVoter_Registered",
      "outputs": [
        {
          "internalType": "bool",
          "name": "",
          "type": "bool"
        }
      ],
      "payable": false,
      "stateMutability": "view",
      "type": "function"
    },
    {
      "constant": true,
      "inputs": [],
      "name": "has_Voted",
      "outputs": [
        {
          "internalType": "bool",
          "name": "",
          "type": "bool"
        }
      ],
      "payable": false,
      "stateMutability": "view",
      "type": "function"
    },
    {
      "constant": false,
      "inputs": [
        {
          "internalType": "uint256",
          "name": "_candidateId",
          "type": "uint256"
        },
        {
          "internalType": "string",
          "name": "_date",
          "type": "string"
        },
        {
          "internalType": "string",
          "name": "_time",
          "type": "string"
        }
      ],
      "name": "vote",
      "outputs": [],
      "payable": false,
      "stateMutability": "nonpayable",
      "type": "function"
    },
    {
      "constant": true,
      "inputs": [],
      "name": "copyKeys",
      "outputs": [
        {
          "internalType": "uint256",
          "name": "",
          "type": "uint256"
        },
        {
          "internalType": "uint256",
          "name": "",
          "type": "uint256"
        }
      ],
      "payable": false,
      "stateMutability": "view",
      "type": "function"
    },
    {
      "constant": false,
      "inputs": [
        {
          "internalType": "uint256",
          "name": "_key1",
          "type": "uint256"
        },
        {
          "internalType": "uint256",
          "name": "_key2",
          "type": "uint256"
        },
        {
          "internalType": "uint256",
          "name": "_votePosition",
          "type": "uint256"
        }
      ],
      "name": "verifyVote",
      "outputs": [],
      "payable": false,
      "stateMutability": "nonpayable",
      "type": "function"
    },
    {
      "constant": true,
      "inputs": [
        {
          "internalType": "uint256",
          "name": "position",
          "type": "uint256"
        }
      ],
      "name": "getTrailer",
      "outputs": [
        {
          "internalType": "bool",
          "name": "",
          "type": "bool"
        }
      ],
      "payable": false,
      "stateMutability": "view",
      "type": "function"
    },
    {
      "constant": false,
      "inputs": [],
      "name": "startElection",
      "outputs": [],
      "payable": false,
      "stateMutability": "nonpayable",
      "type": "function"
    },
    {
      "constant": false,
      "inputs": [],
      "name": "changePhase",
      "outputs": [],
      "payable": false,
      "stateMutability": "nonpayable",
      "type": "function"
    },
    {
      "constant": true,
      "inputs": [
        {
          "internalType": "string",
          "name": "text",
          "type": "string"
        }
      ],
      "name": "keccak256_encrypt",
      "outputs": [
        {
          "internalType": "bytes32",
          "name": "",
          "type": "bytes32"
        }
      ],
      "payable": false,
      "stateMutability": "pure",
      "type": "function"
    },
    {
      "constant": true,
      "inputs": [],
      "name": "getWinner",
      "outputs": [
        {
          "internalType": "string",
          "name": "",
          "type": "string"
        }
      ],
      "payable": false,
      "stateMutability": "view",
      "type": "function"
    },
    {
      "constant": true,
      "inputs": [
        {
          "internalType": "string",
          "name": "_message",
          "type": "string"
        },
        {
          "internalType": "bytes",
          "name": "_sig",
          "type": "bytes"
        }
      ],
      "name": "verify",
      "outputs": [
        {
          "internalType": "bool",
          "name": "",
          "type": "bool"
        }
      ],
      "payable": false,
      "stateMutability": "view",
      "type": "function"
    },
    {
      "constant": true,
      "inputs": [
        {
          "internalType": "string",
          "name": "sms",
          "type": "string"
        }
      ],
      "name": "getHash",
      "outputs": [
        {
          "internalType": "bytes32",
          "name": "",
          "type": "bytes32"
        }
      ],
      "payable": false,
      "stateMutability": "pure",
      "type": "function"
    },
    {
      "constant": true,
      "inputs": [
        {
          "internalType": "bytes32",
          "name": "sms",
          "type": "bytes32"
        }
      ],
      "name": "getEthSignedHash",
      "outputs": [
        {
          "internalType": "bytes32",
          "name": "",
          "type": "bytes32"
        }
      ],
      "payable": false,
      "stateMutability": "pure",
      "type": "function"
    },
    {
      "constant": true,
      "inputs": [
        {
          "internalType": "bytes32",
          "name": "_ethSignedMessageHash",
          "type": "bytes32"
        },
        {
          "internalType": "bytes",
          "name": "_sig",
          "type": "bytes"
        }
      ],
      "name": "recover",
      "outputs": [
        {
          "internalType": "address",
          "name": "",
          "type": "address"
        }
      ],
      "payable": false,
      "stateMutability": "pure",
      "type": "function"
    }
  ],
  "bytecode": "0x608060405260405180606001604052806040518060400160405280600c81526020017f726567697374726174696f6e000000000000000000000000000000000000000081525081526020016040518060400160405280600681526020017f766f74696e67000000000000000000000000000000000000000000000000000081525081526020016040518060400160405280600781526020017f726573756c747300000000000000000000000000000000000000000000000000815250815250600b906003620000d092919062000174565b50348015620000de57600080fd5b5033600f60006101000a81548173ffffffffffffffffffffffffffffffffffffffff021916908373ffffffffffffffffffffffffffffffffffffffff1602179055506040518060400160405280601881526020017f456c656374696f6e20686173206e6f7420737461727465640000000000000000815250600890805190602001906200016d929190620001ce565b5062000381565b8260038101928215620001bb579160200282015b82811115620001ba578251829080519060200190620001a992919062000255565b509160200191906001019062000188565b5b509050620001ca9190620002dc565b5090565b828054600181600116156101000203166002900490600052602060002090601f016020900481019282601f106200021157805160ff191683800117855562000242565b8280016001018555821562000242579182015b828111156200024157825182559160200191906001019062000224565b5b5090506200025191906200030d565b5090565b828054600181600116156101000203166002900490600052602060002090601f016020900481019282601f106200029857805160ff1916838001178555620002c9565b82800160010185558215620002c9579182015b82811115620002c8578251825591602001919060010190620002ab565b5b509050620002d891906200030d565b5090565b6200030a91905b80821115620003065760008181620002fc919062000335565b50600101620002e3565b5090565b90565b6200033291905b808211156200032e57600081600090555060010162000314565b5090565b90565b50805460018160011615610100020316600290046000825580601f106200035d57506200037e565b601f0160209004906000526020600020908101906200037d91906200030d565b5b50565b613dcf80620003916000396000f3fe608060405234801561001057600080fd5b50600436106101c45760003560e01c806385a38635116100f9578063b8fac10a11610097578063db6f595311610071578063db6f595314610ea2578063e153335114610eac578063e3c0327d14610eca578063f731d0e914611054576101c4565b8063b8fac10a14610e3d578063d0a6a87014610e5b578063d25773b714610e80576101c4565b806398c07938116100d357806398c0793814610c22578063a3bef4d714610c40578063b108475914610c5e578063b1c9fe6e14610dba576101c4565b806385a3863514610b5f5780638e7ea5b214610b7d57806398b8b43d14610c00576101c4565b80632f4ea5ea116101665780633fee76dc116101405780633fee76dc1461099957806344fd417f14610a685780635b6beeb914610a8657806362d73eb814610b55576101c4565b80632f4ea5ea146106cc5780633477ee2e1461070e5780633d9ffad51461082f576101c4565b806326541b56116101a257806326541b56146103325780632a61d568146104845780632b37f53c146104c65780632d35a8a2146106ae576101c4565b80630544e753146101c9578063101158af1461020f57806319045a251461022d575b600080fd5b6101f5600480360360208110156101df57600080fd5b810190808035906020019092919050505061136b565b604051808215151515815260200191505060405180910390f35b610217611398565b6040518082815260200191505060405180910390f35b6102f06004803603604081101561024357600080fd5b81019080803590602001909291908035906020019064010000000081111561026a57600080fd5b82018360208201111561027c57600080fd5b8035906020019184600183028401116401000000008311171561029e57600080fd5b91908080601f016020809104026020016040519081016040528093929190818152602001838380828437600081840152601f19601f82011690508083019250505050505050919291929050505061139e565b604051808273ffffffffffffffffffffffffffffffffffffffff1673ffffffffffffffffffffffffffffffffffffffff16815260200191505060405180910390f35b6104826004803603604081101561034857600080fd5b810190808035906020019064010000000081111561036557600080fd5b82018360208201111561037757600080fd5b8035906020019184600183028401116401000000008311171561039957600080fd5b91908080601f016020809104026020016040519081016040528093929190818152602001838380828437600081840152601f19601f820116905080830192505050505050509192919290803590602001906401000000008111156103fc57600080fd5b82018360208201111561040e57600080fd5b8035906020019184600183028401116401000000008311171561043057600080fd5b91908080601f016020809104026020016040519081016040528093929190818152602001838380828437600081840152601f19601f820116905080830192505050505050509192919290505050611425565b005b6104c46004803603606081101561049a57600080fd5b810190808035906020019092919080359060200190929190803590602001909291905050506115c6565b005b6104ce61196f565b604051808060200180602001806020018060200188151515158152602001871515151581526020018615151515815260200185810385528c818151815260200191508051906020019080838360005b8381101561053857808201518184015260208101905061051d565b50505050905090810190601f1680156105655780820380516001836020036101000a031916815260200191505b5085810384528b818151815260200191508051906020019080838360005b8381101561059e578082015181840152602081019050610583565b50505050905090810190601f1680156105cb5780820380516001836020036101000a031916815260200191505b5085810383528a818151815260200191508051906020019080838360005b838110156106045780820151818401526020810190506105e9565b50505050905090810190601f1680156106315780820380516001836020036101000a031916815260200191505b50858103825289818151815260200191508051906020019080838360005b8381101561066a57808201518184015260208101905061064f565b50505050905090810190601f1680156106975780820380516001836020036101000a031916815260200191505b509b50505050505050505050505060405180910390f35b6106b6611df9565b6040518082815260200191505060405180910390f35b6106f8600480360360208110156106e257600080fd5b8101908080359060200190929190505050611dff565b6040518082815260200191505060405180910390f35b61073a6004803603602081101561072457600080fd5b8101908080359060200190929190505050611e57565b604051808581526020018060200180602001848152602001838103835286818151815260200191508051906020019080838360005b8381101561078a57808201518184015260208101905061076f565b50505050905090810190601f1680156107b75780820380516001836020036101000a031916815260200191505b50838103825285818151815260200191508051906020019080838360005b838110156107f05780820151818401526020810190506107d5565b50505050905090810190601f16801561081d5780820380516001836020036101000a031916815260200191505b50965050505050505060405180910390f35b61097f6004803603604081101561084557600080fd5b810190808035906020019064010000000081111561086257600080fd5b82018360208201111561087457600080fd5b8035906020019184600183028401116401000000008311171561089657600080fd5b91908080601f016020809104026020016040519081016040528093929190818152602001838380828437600081840152601f19601f820116905080830192505050505050509192919290803590602001906401000000008111156108f957600080fd5b82018360208201111561090b57600080fd5b8035906020019184600183028401116401000000008311171561092d57600080fd5b91908080601f016020809104026020016040519081016040528093929190818152602001838380828437600081840152601f19601f820116905080830192505050505050509192919290505050611fb7565b604051808215151515815260200191505060405180910390f35b610a52600480360360208110156109af57600080fd5b81019080803590602001906401000000008111156109cc57600080fd5b8201836020820111156109de57600080fd5b80359060200191846001830284011164010000000083111715610a0057600080fd5b91908080601f016020809104026020016040519081016040528093929190818152602001838380828437600081840152601f19601f820116905080830192505050505050509192919290505050612036565b6040518082815260200191505060405180910390f35b610a706120cb565b6040518082815260200191505060405180910390f35b610b3f60048036036020811015610a9c57600080fd5b8101908080359060200190640100000000811115610ab957600080fd5b820183602082011115610acb57600080fd5b80359060200191846001830284011164010000000083111715610aed57600080fd5b91908080601f016020809104026020016040519081016040528093929190818152602001838380828437600081840152601f19601f8201169050808301925050505050505091929192905050506120d1565b6040518082815260200191505060405180910390f35b610b5d61214c565b005b610b676122b6565b6040518082815260200191505060405180910390f35b610b856122bc565b6040518080602001828103825283818151815260200191508051906020019080838360005b83811015610bc5578082015181840152602081019050610baa565b50505050905090810190601f168015610bf25780820380516001836020036101000a031916815260200191505b509250505060405180910390f35b610c086123eb565b604051808215151515815260200191505060405180910390f35b610c2a612442565b6040518082815260200191505060405180910390f35b610c48612448565b6040518082815260200191505060405180910390f35b610db860048036036060811015610c7457600080fd5b810190808035906020019092919080359060200190640100000000811115610c9b57600080fd5b820183602082011115610cad57600080fd5b80359060200191846001830284011164010000000083111715610ccf57600080fd5b91908080601f016020809104026020016040519081016040528093929190818152602001838380828437600081840152601f19601f82011690508083019250505050505050919291929080359060200190640100000000811115610d3257600080fd5b820183602082011115610d4457600080fd5b80359060200191846001830284011164010000000083111715610d6657600080fd5b91908080601f016020809104026020016040519081016040528093929190818152602001838380828437600081840152601f19601f82011690508083019250505050505050919291929050505061244e565b005b610dc261285f565b6040518080602001828103825283818151815260200191508051906020019080838360005b83811015610e02578082015181840152602081019050610de7565b50505050905090810190601f168015610e2f5780820380516001836020036101000a031916815260200191505b509250505060405180910390f35b610e456128fd565b6040518082815260200191505060405180910390f35b610e63612903565b604051808381526020018281526020019250505060405180910390f35b610e886129be565b604051808215151515815260200191505060405180910390f35b610eaa612a15565b005b610eb4612b5e565b6040518082815260200191505060405180910390f35b610ef660048036036020811015610ee057600080fd5b8101908080359060200190929190505050612b64565b6040518080602001806020018060200185151515158152602001848103845288818151815260200191508051906020019080838360005b83811015610f48578082015181840152602081019050610f2d565b50505050905090810190601f168015610f755780820380516001836020036101000a031916815260200191505b50848103835287818151815260200191508051906020019080838360005b83811015610fae578082015181840152602081019050610f93565b50505050905090810190601f168015610fdb5780820380516001836020036101000a031916815260200191505b50848103825286818151815260200191508051906020019080838360005b83811015611014578082015181840152602081019050610ff9565b50505050905090810190601f1680156110415780820380516001836020036101000a031916815260200191505b5097505050505050505060405180910390f35b611369600480360360a081101561106a57600080fd5b810190808035906020019064010000000081111561108757600080fd5b82018360208201111561109957600080fd5b803590602001918460018302840111640100000000831117156110bb57600080fd5b91908080601f016020809104026020016040519081016040528093929190818152602001838380828437600081840152601f19601f8201169050808301925050505050505091929192908035906020019064010000000081111561111e57600080fd5b82018360208201111561113057600080fd5b8035906020019184600183028401116401000000008311171561115257600080fd5b91908080601f016020809104026020016040519081016040528093929190818152602001838380828437600081840152601f19601f820116905080830192505050505050509192919290803590602001906401000000008111156111b557600080fd5b8201836020820111156111c757600080fd5b803590602001918460018302840111640100000000831117156111e957600080fd5b91908080601f016020809104026020016040519081016040528093929190818152602001838380828437600081840152601f19601f8201169050808301925050505050505091929192908035906020019064010000000081111561124c57600080fd5b82018360208201111561125e57600080fd5b8035906020019184600183028401116401000000008311171561128057600080fd5b91908080601f016020809104026020016040519081016040528093929190818152602001838380828437600081840152601f19601f820116905080830192505050505050509192919290803590602001906401000000008111156112e357600080fd5b8201836020820111156112f557600080fd5b8035906020019184600183028401116401000000008311171561131757600080fd5b91908080601f016020809104026020016040519081016040528093929190818152602001838380828437600081840152601f19601f820116905080830192505050505050509192919290505050612d69565b005b60006002600083815260200190815260200160002060030160009054906101000a900460ff169050919050565b60105481565b6000806000806113ad8561325a565b92509250925060018682858560405160008152602001604052604051808581526020018460ff1660ff1681526020018381526020018281526020019450505050506020604051602081039080840390855afa158015611410573d6000803e3d6000fd5b50505060206040510351935050505092915050565b600f60009054906101000a900473ffffffffffffffffffffffffffffffffffffffff1673ffffffffffffffffffffffffffffffffffffffff163373ffffffffffffffffffffffffffffffffffffffff16146114cb576040517f08c379a0000000000000000000000000000000000000000000000000000000008152600401808060200182810382526024815260200180613d776024913960400191505060405180910390fd5b6000600e541115611527576040517f08c379a000000000000000000000000000000000000000000000000000000000815260040180806020018281038252602b815260200180613d2b602b913960400191505060405180910390fd5b6005600081548092919060010191905055506040518060800160405280600554815260200183815260200182815260200160008152506000806005548152602001908152602001600020600082015181600001556020820151816001019080519060200190611597929190613b5c565b5060408201518160020190805190602001906115b4929190613b5c565b50606082015181600301559050505050565b600160003373ffffffffffffffffffffffffffffffffffffffff1673ffffffffffffffffffffffffffffffffffffffff16815260200190815260200160002060060160009054906101000a900460ff16611688576040517f08c379a000000000000000000000000000000000000000000000000000000000815260040180806020018281038252601e8152602001807f4f6e6c7920726567697374657265642075736572732063616e20766f7465000081525060200191505060405180910390fd5b600160003373ffffffffffffffffffffffffffffffffffffffff1673ffffffffffffffffffffffffffffffffffffffff16815260200190815260200160002060010160009054906101000a900460ff1661174a576040517f08c379a000000000000000000000000000000000000000000000000000000000815260040180806020018281038252600d8152602001807f416c726561647920566f7465640000000000000000000000000000000000000081525060200191505060405180910390fd5b600160003373ffffffffffffffffffffffffffffffffffffffff1673ffffffffffffffffffffffffffffffffffffffff16815260200190815260200160002060080160009054906101000a900460ff161561180d576040517f08c379a00000000000000000000000000000000000000000000000000000000081526004018080602001828103825260138152602001807f566f74657220616c726561647920766f7465640000000000000000000000000081525060200191505060405180910390fd5b6000806118c0600160003373ffffffffffffffffffffffffffffffffffffffff1673ffffffffffffffffffffffffffffffffffffffff168152602001908152602001600020600701547f79be667ef9dcbbac55a06295ce870b07029bfcdb2dce28d959f2815b16f817987f483ada7726a3c4655da4fbfc0e1108a8fd17b448a68554199c47d08ffb10d4b860007ffffffffffffffffffffffffffffffffffffffffffffffffffffffffefffffc2f6132f5565b9150915081851480156118d257508084145b156119615760016002600085815260200190815260200160002060030160006101000a81548160ff02191690831515021790555060018060003373ffffffffffffffffffffffffffffffffffffffff1673ffffffffffffffffffffffffffffffffffffffff16815260200190815260200160002060080160006101000a81548160ff0219169083151502179055505b826006819055505050505050565b6060806060806000806000600160003373ffffffffffffffffffffffffffffffffffffffff1673ffffffffffffffffffffffffffffffffffffffff168152602001908152602001600020600301600160003373ffffffffffffffffffffffffffffffffffffffff1673ffffffffffffffffffffffffffffffffffffffff168152602001908152602001600020600401600160003373ffffffffffffffffffffffffffffffffffffffff1673ffffffffffffffffffffffffffffffffffffffff168152602001908152602001600020600201600160003373ffffffffffffffffffffffffffffffffffffffff1673ffffffffffffffffffffffffffffffffffffffff168152602001908152602001600020600501600160003373ffffffffffffffffffffffffffffffffffffffff1673ffffffffffffffffffffffffffffffffffffffff16815260200190815260200160002060060160009054906101000a900460ff16600160003373ffffffffffffffffffffffffffffffffffffffff1673ffffffffffffffffffffffffffffffffffffffff16815260200190815260200160002060010160009054906101000a900460ff16600160003373ffffffffffffffffffffffffffffffffffffffff1673ffffffffffffffffffffffffffffffffffffffff16815260200190815260200160002060080160009054906101000a900460ff16868054600181600116156101000203166002900480601f016020809104026020016040519081016040528092919081815260200182805460018160011615610100020316600290048015611c075780601f10611bdc57610100808354040283529160200191611c07565b820191906000526020600020905b815481529060010190602001808311611bea57829003601f168201915b50505050509650858054600181600116156101000203166002900480601f016020809104026020016040519081016040528092919081815260200182805460018160011615610100020316600290048015611ca35780601f10611c7857610100808354040283529160200191611ca3565b820191906000526020600020905b815481529060010190602001808311611c8657829003601f168201915b50505050509550848054600181600116156101000203166002900480601f016020809104026020016040519081016040528092919081815260200182805460018160011615610100020316600290048015611d3f5780601f10611d1457610100808354040283529160200191611d3f565b820191906000526020600020905b815481529060010190602001808311611d2257829003601f168201915b50505050509450838054600181600116156101000203166002900480601f016020809104026020016040519081016040528092919081815260200182805460018160011615610100020316600290048015611ddb5780601f10611db057610100808354040283529160200191611ddb565b820191906000526020600020905b815481529060010190602001808311611dbe57829003601f168201915b50505050509350965096509650965096509650965090919293949596565b60055481565b60008160405160200180807f19457468657265756d205369676e6564204d6573736167653a0a333200000000815250601c01828152602001915050604051602081830303815290604052805190602001209050919050565b6000602052806000526040600020600091509050806000015490806001018054600181600116156101000203166002900480601f016020809104026020016040519081016040528092919081815260200182805460018160011615610100020316600290048015611f095780601f10611ede57610100808354040283529160200191611f09565b820191906000526020600020905b815481529060010190602001808311611eec57829003601f168201915b505050505090806002018054600181600116156101000203166002900480601f016020809104026020016040519081016040528092919081815260200182805460018160011615610100020316600290048015611fa75780601f10611f7c57610100808354040283529160200191611fa7565b820191906000526020600020905b815481529060010190602001808311611f8a57829003601f168201915b5050505050908060030154905084565b600080611fc3846120d1565b90506000611fd082611dff565b9050600f60009054906101000a900473ffffffffffffffffffffffffffffffffffffffff1673ffffffffffffffffffffffffffffffffffffffff16612015828661139e565b73ffffffffffffffffffffffffffffffffffffffff16149250505092915050565b6000816040516020018080602001828103825283818151815260200191508051906020019080838360005b8381101561207c578082015181840152602081019050612061565b50505050905090810190601f1680156120a95780820380516001836020036101000a031916815260200191505b5092505050604051602081830303815290604052805190602001209050919050565b600e5481565b6000816040516020018082805190602001908083835b6020831061210a57805182526020820191506020810190506020830392506120e7565b6001836020036101000a038019825116818451168082178552505050505050905001915050604051602081830303815290604052805190602001209050919050565b600f60009054906101000a900473ffffffffffffffffffffffffffffffffffffffff1673ffffffffffffffffffffffffffffffffffffffff163373ffffffffffffffffffffffffffffffffffffffff16146121f2576040517f08c379a0000000000000000000000000000000000000000000000000000000008152600401808060200182810382526024815260200180613d776024913960400191505060405180910390fd5b6001600e541415801561220857506002600e5414155b61227a576040517f08c379a00000000000000000000000000000000000000000000000000000000081526004018080602001828103825260128152602001807f566f74696e6720696e2070726f6772657373000000000000000000000000000081525060200191505060405180910390fd5b6000600e81905550600b600e546003811061229157fe5b01600890805460018160011615610100020316600290046122b3929190613bdc565b50565b60115481565b60606000600190506000806000600181526020019081526020016000206003015490506000600290505b60055481116123355781600080838152602001908152602001600020600301541115612328578092506000808281526020019081526020016000206003015491505b80806001019150506122e6565b506000808381526020019081526020016000206001018054600181600116156101000203166002900480601f0160208091040260200160405190810160405280929190818152602001828054600181600116156101000203166002900480156123df5780601f106123b4576101008083540402835291602001916123df565b820191906000526020600020905b8154815290600101906020018083116123c257829003601f168201915b50505050509250505090565b6000600160003373ffffffffffffffffffffffffffffffffffffffff1673ffffffffffffffffffffffffffffffffffffffff16815260200190815260200160002060010160009054906101000a900460ff16905090565b60095481565b600a5481565b600160003373ffffffffffffffffffffffffffffffffffffffff1673ffffffffffffffffffffffffffffffffffffffff16815260200190815260200160002060060160009054906101000a900460ff16612510576040517f08c379a000000000000000000000000000000000000000000000000000000000815260040180806020018281038252601e8152602001807f4f6e6c7920726567697374657265642075736572732063616e20766f7465000081525060200191505060405180910390fd5b600160003373ffffffffffffffffffffffffffffffffffffffff1673ffffffffffffffffffffffffffffffffffffffff16815260200190815260200160002060010160009054906101000a900460ff16156125d3576040517f08c379a000000000000000000000000000000000000000000000000000000000815260040180806020018281038252600d8152602001807f416c726561647920566f7465640000000000000000000000000000000000000081525060200191505060405180910390fd5b6000831180156125e557506005548311155b6125ee57600080fd5b60018060003373ffffffffffffffffffffffffffffffffffffffff1673ffffffffffffffffffffffffffffffffffffffff16815260200190815260200160002060010160006101000a81548160ff0219169083151502179055506000808481526020019081526020016000206003016000815480929190600101919050555061267561332f565b600160003373ffffffffffffffffffffffffffffffffffffffff1673ffffffffffffffffffffffffffffffffffffffff168152602001908152602001600020600701819055506040518060800160405280600160003373ffffffffffffffffffffffffffffffffffffffff1673ffffffffffffffffffffffffffffffffffffffff1681526020019081526020016000206005018054600181600116156101000203166002900480601f01602080910402602001604051908101604052809291908181526020018280546001816001161561010002031660029004801561279c5780601f106127715761010080835404028352916020019161279c565b820191906000526020600020905b81548152906001019060200180831161277f57829003601f168201915b505050505081526020018381526020018281526020016000151581525060026000600a54815260200190815260200160002060008201518160000190805190602001906127ea929190613b5c565b506020820151816001019080519060200190612807929190613b5c565b506040820151816002019080519060200190612824929190613b5c565b5060608201518160030160006101000a81548160ff021916908315150217905550905050600a60008154809291906001019190505550505050565b60088054600181600116156101000203166002900480601f0160208091040260200160405190810160405280929190818152602001828054600181600116156101000203166002900480156128f55780601f106128ca576101008083540402835291602001916128f5565b820191906000526020600020905b8154815290600101906020018083116128d857829003601f168201915b505050505081565b60075481565b6000806129b6600160003373ffffffffffffffffffffffffffffffffffffffff1673ffffffffffffffffffffffffffffffffffffffff168152602001908152602001600020600701547f79be667ef9dcbbac55a06295ce870b07029bfcdb2dce28d959f2815b16f817987f483ada7726a3c4655da4fbfc0e1108a8fd17b448a68554199c47d08ffb10d4b860007ffffffffffffffffffffffffffffffffffffffffffffffffffffffffefffffc2f6132f5565b915091509091565b6000600160003373ffffffffffffffffffffffffffffffffffffffff1673ffffffffffffffffffffffffffffffffffffffff16815260200190815260200160002060060160009054906101000a900460ff16905090565b600f60009054906101000a900473ffffffffffffffffffffffffffffffffffffffff1673ffffffffffffffffffffffffffffffffffffffff163373ffffffffffffffffffffffffffffffffffffffff1614612abb576040517f08c379a0000000000000000000000000000000000000000000000000000000008152600401808060200182810382526024815260200180613d776024913960400191505060405180910390fd5b600e600081548092919060010191905055506003600e541015612b0f57600b600e5460038110612ae757fe5b0160089080546001816001161561010002031660029004612b09929190613bdc565b50612b5c565b6040518060400160405280600e81526020017f456c656374696f6e20656e64656400000000000000000000000000000000000081525060089080519060200190612b5a929190613c63565b505b565b60065481565b6002602052806000526040600020600091509050806000018054600181600116156101000203166002900480601f016020809104026020016040519081016040528092919081815260200182805460018160011615610100020316600290048015612c105780601f10612be557610100808354040283529160200191612c10565b820191906000526020600020905b815481529060010190602001808311612bf357829003601f168201915b505050505090806001018054600181600116156101000203166002900480601f016020809104026020016040519081016040528092919081815260200182805460018160011615610100020316600290048015612cae5780601f10612c8357610100808354040283529160200191612cae565b820191906000526020600020905b815481529060010190602001808311612c9157829003601f168201915b505050505090806002018054600181600116156101000203166002900480601f016020809104026020016040519081016040528092919081815260200182805460018160011615610100020316600290048015612d4c5780601f10612d2157610100808354040283529160200191612d4c565b820191906000526020600020905b815481529060010190602001808311612d2f57829003601f168201915b5050505050908060030160009054906101000a900460ff16905084565b600f60009054906101000a900473ffffffffffffffffffffffffffffffffffffffff1673ffffffffffffffffffffffffffffffffffffffff163373ffffffffffffffffffffffffffffffffffffffff161415612e2d576040517f08c379a00000000000000000000000000000000000000000000000000000000081526004018080602001828103825260158152602001807f41646d696e2043616e6e6f74207265676973746572000000000000000000000081525060200191505060405180910390fd5b60003390506000612e3d87612036565b90506000600160008473ffffffffffffffffffffffffffffffffffffffff1673ffffffffffffffffffffffffffffffffffffffff16815260200190815260200160002090508060060160009054906101000a900460ff1615612eea576040517f08c379a0000000000000000000000000000000000000000000000000000000008152600401808060200182810382526021815260200180613d566021913960400191505060405180910390fd5b600073ffffffffffffffffffffffffffffffffffffffff166003600084815260200190815260200160002060009054906101000a900473ffffffffffffffffffffffffffffffffffffffff1673ffffffffffffffffffffffffffffffffffffffff1614612fbf576040517f08c379a000000000000000000000000000000000000000000000000000000000815260040180806020018281038252601a8152602001807f506572736f6e616c20494420616c726561647920696e2075736500000000000081525060200191505060405180910390fd5b8260046000600954815260200190815260200160002060006101000a81548173ffffffffffffffffffffffffffffffffffffffff021916908373ffffffffffffffffffffffffffffffffffffffff1602179055506040518061014001604052808381526020016000151581526020018473ffffffffffffffffffffffffffffffffffffffff1681526020018881526020018781526020018681526020018581526020016001151581526020016000815260200160001515815250600160008573ffffffffffffffffffffffffffffffffffffffff1673ffffffffffffffffffffffffffffffffffffffff1681526020019081526020016000206000820151816000015560208201518160010160006101000a81548160ff02191690831515021790555060408201518160010160016101000a81548173ffffffffffffffffffffffffffffffffffffffff021916908373ffffffffffffffffffffffffffffffffffffffff1602179055506060820151816002019080519060200190613145929190613b5c565b506080820151816003019080519060200190613162929190613b5c565b5060a082015181600401908051906020019061317f929190613b5c565b5060c082015181600501908051906020019061319c929190613b5c565b5060e08201518160060160006101000a81548160ff02191690831515021790555061010082015181600701556101208201518160080160006101000a81548160ff021916908315150217905550905050826003600084815260200190815260200160002060006101000a81548173ffffffffffffffffffffffffffffffffffffffff021916908373ffffffffffffffffffffffffffffffffffffffff1602179055506009600081548092919060010191905055505050505050505050565b600080600060418451146132d6576040517f08c379a00000000000000000000000000000000000000000000000000000000081526004018080602001828103825260188152602001807f696e76616c6964207369676e6174757265206c656e677468000000000000000081525060200191505060405180910390fd5b6020840151925060408401519150606084015160001a90509193909250565b600080600080600061330c8a8a8a60018b8b613374565b92509250925061331e83838389613419565b945094505050509550959350505050565b600042600a546005546040516020018084815260200183815260200182815260200193505050506040516020818303038152906040528051906020012060001c905090565b60008060008089141561338f5787878792509250925061340d565b6000899050600080905060008090506000600190505b600084146133ff57600060018516146133d4576133c78383838f8f8f8e613474565b8093508194508295505050505b600284816133de57fe5b0493506133ee8c8c8c8c8c613945565b809c50819d50829e505050506133a5565b828282965096509650505050505b96509650969350505050565b60008060006134288585613a64565b90506000848061343457fe5b82830990506000858061344357fe5b828a0990506000868061345257fe5b878061345a57fe5b8486098a0990508181955095505050505094509492505050565b6000806000808a1480156134885750600089145b1561349b57868686925092509250613938565b6000871480156134ab5750600086145b156134be57898989925092509250613938565b6134c6613ce3565b84806134ce57fe5b898a09816000600481106134de57fe5b60200201818152505084806134ef57fe5b816000600481106134fc57fe5b60200201518a098160016004811061351057fe5b602002018181525050848061352157fe5b8687098160026004811061353157fe5b602002018181525050848061354257fe5b8160026004811061354f57fe5b602002015187098160036004811061356357fe5b6020020181815250506040518060800160405280868061357f57fe5b8360026004811061358c57fe5b60200201518e09815260200186806135a057fe5b836003600481106135ad57fe5b60200201518d09815260200186806135c157fe5b836000600481106135ce57fe5b60200201518b09815260200186806135e257fe5b836001600481106135ef57fe5b60200201518a0981525090508060026004811061360857fe5b60200201518160006004811061361a57fe5b602002015114158061364e57508060036004811061363457fe5b60200201518160016004811061364657fe5b602002015114155b6136c0576040517f08c379a000000000000000000000000000000000000000000000000000000000815260040180806020018281038252601e8152602001807f557365206a6163446f75626c652066756e6374696f6e20696e7374656164000081525060200191505060405180910390fd5b6136c8613ce3565b85806136d057fe5b826000600481106136dd57fe5b60200201518703836002600481106136f157fe5b6020020151088160006004811061370457fe5b602002018181525050858061371557fe5b8260016004811061372257fe5b602002015187038360036004811061373657fe5b6020020151088160016004811061374957fe5b602002018181525050858061375a57fe5b8160006004811061376757fe5b60200201518260006004811061377957fe5b6020020151098160026004811061378c57fe5b602002018181525050858061379d57fe5b816000600481106137aa57fe5b6020020151826002600481106137bc57fe5b602002015109816003600481106137cf57fe5b602002018181525050600086806137e257fe5b826003600481106137ef57fe5b6020020151880388806137fe57fe5b8460016004811061380b57fe5b60200201518560016004811061381d57fe5b602002015109089050868061382e57fe5b878061383657fe5b888061383e57fe5b8460026004811061384b57fe5b60200201518660006004811061385d57fe5b6020020151096002098803820890506000878061387657fe5b888061387e57fe5b838a038a8061388957fe5b8660026004811061389657fe5b6020020151886000600481106138a857fe5b60200201510908846001600481106138bc57fe5b602002015109905087806138cc57fe5b88806138d457fe5b846003600481106138e157fe5b6020020151866001600481106138f357fe5b6020020151098903820890506000888061390957fe5b898061391157fe5b8b8f098560006004811061392157fe5b602002015109905082828297509750975050505050505b9750975097945050505050565b60008060008086141561396057878787925092509250613a59565b6000848061396a57fe5b898a0990506000858061397957fe5b898a0990506000868061398857fe5b898a0990506000878061399757fe5b888061399f57fe5b848e096004099050600088806139b157fe5b89806139b957fe5b8a806139c157fe5b8586098c098a806139ce57fe5b8760030908905088806139dd57fe5b89806139e557fe5b8384088a038a806139f257fe5b8384090894508880613a0057fe5b8980613a0857fe5b8a80613a1057fe5b8687096008098a038a80613a2057fe5b8b80613a2857fe5b888d03860884090893508880613a3a57fe5b8980613a4257fe5b8c8e09600209925084848497509750975050505050505b955095509592505050565b6000808314158015613a765750818314155b8015613a83575060008214155b613af5576040517f08c379a000000000000000000000000000000000000000000000000000000000815260040180806020018281038252600e8152602001807f496e76616c6964206e756d62657200000000000000000000000000000000000081525060200191505060405180910390fd5b6000809050600060019050600084905060005b60008714613b4f57868281613b1957fe5b049050828680613b2557fe5b8780613b2d57fe5b8584098803860880945081955050508687820283038098508193505050613b08565b8394505050505092915050565b828054600181600116156101000203166002900490600052602060002090601f016020900481019282601f10613b9d57805160ff1916838001178555613bcb565b82800160010185558215613bcb579182015b82811115613bca578251825591602001919060010190613baf565b5b509050613bd89190613d05565b5090565b828054600181600116156101000203166002900490600052602060002090601f016020900481019282601f10613c155780548555613c52565b82800160010185558215613c5257600052602060002091601f016020900482015b82811115613c51578254825591600101919060010190613c36565b5b509050613c5f9190613d05565b5090565b828054600181600116156101000203166002900490600052602060002090601f016020900481019282601f10613ca457805160ff1916838001178555613cd2565b82800160010185558215613cd2579182015b82811115613cd1578251825591602001919060010190613cb6565b5b509050613cdf9190613d05565b5090565b6040518060800160405280600490602082028038833980820191505090505090565b613d2791905b80821115613d23576000816000905550600101613d0b565b5090565b9056fe43616e6e6f74206164642063616e6469646174657320647572696e6720766f74696e672070726f63657373546865207075626c6963206164647265737320616c726561647920696e207573654f6e6c792041646d696e2063616e20706572666f726d20746869732066756e6374696f6ea265627a7a72315820f1ffc73261e942c09a0202f207d4e44631f56e2010bb7d84ec288b30f17dc53564736f6c63430005100032",
  "source": "// SPDX-License-Identifier: MIT \r\npragma solidity  >=0.5.16;\r\nimport \"./EllipticCurve.sol\";\r\n\r\ncontract Election { \r\n\r\n    struct voter {\r\n        bytes32 personal_id; //their personal id\r\n        bool hasVoted; //have they voted\r\n        address public_Address; //public address to wallet\r\n        string email; //email address for communication\r\n        string name; //name of voter \r\n        string surname; \r\n        string refNUm; \r\n        bool isRegistered;\r\n        uint PrivateKey;\r\n        bool  isVerifiedUser;\r\n    }\r\n \r\n    struct votingRecords{\r\n        string ref;\r\n        string voteDate;\r\n        string voteTime;\r\n        bool isVerified;\r\n    }\r\n\r\n    \r\n\r\n\r\n     // Model a Candidate\r\n    struct Candidate {\r\n        uint id;\r\n        string name;\r\n        string party;\r\n        uint voteCount;\r\n    }\r\n    //ECC CONSTANTS - SECPTIC256\r\n    uint256 private constant GX = 0x79BE667EF9DCBBAC55A06295CE870B07029BFCDB2DCE28D959F2815B16F81798;\r\n    uint256 private constant GY = 0x483ADA7726A3C4655DA4FBFC0E1108A8FD17B448A68554199C47D08FFB10D4B8;\r\n    uint256 private constant AA = 0;\r\n    uint256 private constant BB = 7;\r\n    uint256 private constant PP = 0xFFFFFFFFFFFFFFFFFFFFFFFFFFFFFFFFFFFFFFFFFFFFFFFFFFFFFFFEFFFFFC2F;\r\n\r\n    // Read/write candidate\r\n    mapping(uint => Candidate) public candidates;\r\n\r\n    // Store accounts that have voted\r\n    mapping(address => voter) private voters;\r\n\r\n    mapping(uint => votingRecords) public votingTrails;\r\n\r\n    // Stores encyrted ID'S\r\n    mapping(bytes32 => address) private verifier;\r\n    mapping(uint => address) private recorder;\r\n\r\n\r\n    // Store Candidates Count\r\n    uint public candidatesCount;\r\n\r\n    uint256 public p1Holder;\r\n    uint256 public p2Holder;\r\n\r\n    // Stores Election phase\r\n    string public phase;\r\n\r\n    // Store number of voters\r\n    uint public votersCount;\r\n\r\n    //number of total votes\r\n    uint public numVotes;\r\n\r\n    string[3] phases = [\"registration\" , \"voting\", \"results\"];\r\n    uint public phasePointer;\r\n\r\n    // Admin is set once, when contract is deployed. Also saves gas fees\r\n    address private admin;\r\n    uint256 public votingStart;  //start of phase\r\n    uint256 public votingEnd; //end of phase\r\n\r\n    constructor() public { \r\n        admin = msg.sender;\r\n        phase=\"Election has not started\";\r\n    } \r\n\r\n    modifier onlyAdmin(){\r\n\t\trequire(msg.sender==admin, \"Only Admin can perform this function\");\r\n\t\t_;\r\n\t}\r\n\r\n       // Add a candidate\r\n    function addCandidate (string memory _name, string memory _party) onlyAdmin public {\r\n        require(phasePointer<=0, \"Cannot add candidates during voting process\");\r\n        candidatesCount ++;\r\n        candidates[candidatesCount] = Candidate({\r\n            id: candidatesCount, \r\n            name: _name,\r\n            party: _party, \r\n            voteCount: 0\r\n            });\r\n    }\r\n\r\n\r\n     // Add a voter\r\n    function addVoter (string memory _personal_id, string memory _email, string memory _name, string memory _surname, string memory _ref) public {\r\n            \r\n            require(msg.sender != admin, \"Admin Cannot register\"); //require that the user is not registered\r\n            address _pAdress = msg.sender; \r\n            bytes32 encrypt_id = keccak256_encrypt(_personal_id);  //encrypt personal id\r\n            voter storage user = voters[_pAdress];\r\n            require(!user.isRegistered, \"The public address already in use\"); //require that the user is not registered\r\n\r\n            //require that personal_id is not already in use\r\n            require(verifier[encrypt_id] == 0x0000000000000000000000000000000000000000, \"Personal ID already in use\");\r\n            recorder[votersCount] = _pAdress;\r\n            voters[_pAdress] = voter( {personal_id: encrypt_id, \r\n                            hasVoted:false, \r\n                            public_Address:_pAdress,\r\n                            email: _email, \r\n                            name:_name, \r\n                            surname: _surname, \r\n                            refNUm: _ref,\r\n                            isRegistered:true,\r\n                            PrivateKey:0,\r\n                            isVerifiedUser:false\r\n                    });\r\n            \r\n           \r\n            verifier[encrypt_id] = _pAdress;\r\n            votersCount ++;\r\n            \r\n    }\r\n\r\n    //get voter details to display to voter\r\n    function getVoter() public view returns(string memory, string memory, string memory, string memory, bool, bool, bool){\r\n            return(voters[msg.sender].name, voters[msg.sender].surname, voters[msg.sender].email, \r\n            voters[msg.sender].refNUm, voters[msg.sender].isRegistered, voters[msg.sender].hasVoted, voters[msg.sender].isVerifiedUser);             \r\n    }\r\n\r\n    //returns true if voter registered\r\n    function isVoter_Registered() public view returns (bool){\r\n        return voters[msg.sender].isRegistered;\r\n    }\r\n\r\n    \r\n  // https://stackoverflow.com/questions/73555009/how-to-generate-random-words-in-solidity-based-based-on-a-string-of-letters/73557284#73557284\r\n  function random() private view returns (uint) {\r\n        return uint (keccak256(abi.encodePacked (block.timestamp, numVotes, candidatesCount)));\r\n     }\r\n\r\n     //returns true if voter registered\r\n    function has_Voted() public view returns (bool){\r\n        return voters[msg.sender].hasVoted;\r\n    }\r\n\r\n    // voting function, all accounts can vote\r\n    function vote (uint _candidateId, string memory _date, string memory _time) public {\r\n\r\n        //must be registered to vote\r\n        require(voters[msg.sender].isRegistered, \"Only registered users can vote\");\r\n\r\n        // require that they haven't voted before\r\n        require(!voters[msg.sender].hasVoted, \"Already Voted\"); \r\n        \r\n        // require a valid candidate\r\n        require(_candidateId > 0 && _candidateId <= candidatesCount);\r\n\r\n        // record that voter has voted\r\n        voters[msg.sender].hasVoted = true;\r\n\r\n        // update candidate vote Count\r\n        candidates[_candidateId].voteCount ++;\r\n\r\n        voters[msg.sender].PrivateKey = random();  //CREATE PRIVATE KEY\r\n        // (uint p1, uint p2) = EllipticCurve.ecMul(voters[msg.sender].PrivateKey,GX,GY,AA,PP); //CREATE Public Keys\r\n        // pKeys[msg.sender] = keys({\r\n        //         PublicKey1:p1,\r\n        //         PublicKey2:p2\r\n        // });\r\n        votingTrails[numVotes] = votingRecords({\r\n                                                ref:voters[msg.sender].refNUm,\r\n                                                voteDate:_date,\r\n                                                voteTime:_time,\r\n                                                isVerified:false\r\n                                         });\r\n         numVotes++;\r\n        \r\n    }\r\n\r\n    // function getKeys() public view returns(uint256, uint256){\r\n    //         return(pKeys[msg.sender].PublicKey1, pKeys[msg.sender].PublicKey2);             \r\n    // }\r\n\r\n     function copyKeys() public view returns(uint256, uint256){\r\n            return EllipticCurve.ecMul(voters[msg.sender].PrivateKey,GX,GY,AA,PP);           \r\n    }\r\n\r\n    function verifyVote(uint256 _key1, uint256 _key2, uint _votePosition) public {\r\n                 //must be registered to vote\r\n        require(voters[msg.sender].isRegistered, \"Only registered users can vote\");\r\n\r\n        // require that they haven't voted before\r\n        require(voters[msg.sender].hasVoted, \"Already Voted\");\r\n\r\n        require(!voters[msg.sender].isVerifiedUser, \"Voter already voted\");\r\n\r\n        (uint256 p1, uint256 p2) = EllipticCurve.ecMul(voters[msg.sender].PrivateKey,GX,GY,AA,PP); //creating public keys from the user address\r\n      \r\n        if(_key1==p1 && _key2==p2){\r\n            votingTrails[_votePosition].isVerified = true;\r\n            voters[msg.sender].isVerifiedUser=true;\r\n        }\r\n       \r\n        p1Holder = _votePosition;\r\n\r\n    }\r\n\r\n    function getTrailer(uint position) public view returns(bool){\r\n         return votingTrails[position].isVerified;\r\n    }\r\n\r\n\r\n    // start election\r\n    function startElection() onlyAdmin public {\r\n            require(phasePointer!=1 && phasePointer!=2, \"Voting in progress\");\r\n            phasePointer = 0;\r\n            phase = phases[phasePointer]; //contract is deployed in the registration phase\r\n    \r\n    }\r\n\r\n    //change election phase\r\n    function changePhase() onlyAdmin public {\r\n        phasePointer++;\r\n        if (phasePointer <3) {\r\n            phase = phases[phasePointer];\r\n        } else {\r\n            phase = \"Election ended\";\r\n        }\r\n\r\n    }\r\n\r\n\r\n    //hash function\r\n    function keccak256_encrypt(string memory text) public pure returns (bytes32) {\r\n        return keccak256(abi.encode(text));\r\n    }\r\n\r\n    function getWinner() public view returns(string memory) {\r\n        uint winner = 1;\r\n        uint voterS = candidates[1].voteCount;\r\n        for (uint index = 2; index <=  candidatesCount; index++) {\r\n            if(candidates[index].voteCount > voterS){\r\n                winner = index;\r\n                voterS = candidates[index].voteCount;\r\n                }\r\n        }\r\n        return (candidates[winner].name);\r\n\r\n    }\r\n\r\n\r\n    //<----------------------------------- Verifies signed message -------------------------------->\r\n    function verify (string memory _message, bytes memory _sig) public view returns (bool) {\r\n        bytes32 hash_SMS = getHash(_message);\r\n        bytes32 ethSignedMessageHash = getEthSignedHash(hash_SMS);\r\n        return recover(ethSignedMessageHash, _sig) == admin;\r\n    }\r\n    \r\n    //has a tring\r\n    function getHash (string memory sms) public pure returns (bytes32){\r\n        return keccak256(abi.encodePacked(sms));\r\n    }\r\n\r\n\r\n    function getEthSignedHash (bytes32 sms) public pure returns (bytes32){\r\n        return keccak256(abi.encodePacked(\"\\x19Ethereum Signed Message:\\n32\", sms));\r\n    }\r\n\r\n\r\n    //recover account of original signer of message\r\n    function recover(bytes32 _ethSignedMessageHash, bytes memory _sig) public pure returns (address){\r\n            (bytes32 r, bytes32 s, uint8 v) = _split(_sig); //split signature into params\r\n            return ecrecover(_ethSignedMessageHash, v, r, s); //returns the address of the signer given the signed message\r\n    }\r\n\r\n    function _split(bytes memory _sig) internal pure returns (bytes32 r, bytes32 s, uint8 v){\r\n            require(_sig.length == 65, \"invalid signature length\");\r\n\r\n            assembly {\r\n                r := mload(add(_sig, 32))  //skip first 32-byetes as they hold the length\r\n                s := mload(add(_sig, 64))\r\n                v := byte(0, mload(add(_sig, 96)))\r\n\r\n            }\r\n    }\r\n\r\n    //<----------------------------------- ECC CRYPTOGRAPHY -------------------------------->\r\n\r\n}",
  "sourcePath": "C:\\Users\\Student\\Downloads\\crypto\\Code\\contracts\\Election.sol",
  "compiler": {
    "name": "solc",
    "version": "0.5.16+commit.9c3226ce.Emscripten.clang"
  },
  "schemaVersion": "3.4.16",
  "updatedAt": "2023-09-28T23:11:12.909Z",
  "networkType": "ethereum",
  "devdoc": {
    "methods": {}
  },
  "userdoc": {
    "methods": {}
  }
}