{
  "contractName": "Election",
  "abi": [
    {
      "inputs": [],
      "payable": false,
      "stateMutability": "nonpayable",
      "type": "constructor"
    },
    {
      "constant": true,
      "inputs": [],
      "name": "admin",
      "outputs": [
        {
          "internalType": "address",
          "name": "",
          "type": "address"
        }
      ],
      "payable": false,
      "stateMutability": "view",
      "type": "function"
    },
    {
      "constant": true,
      "inputs": [
        {
          "internalType": "uint256",
          "name": "",
          "type": "uint256"
        }
      ],
      "name": "candidates",
      "outputs": [
        {
          "internalType": "uint256",
          "name": "id",
          "type": "uint256"
        },
        {
          "internalType": "string",
          "name": "name",
          "type": "string"
        },
        {
          "internalType": "string",
          "name": "party",
          "type": "string"
        },
        {
          "internalType": "uint256",
          "name": "voteCount",
          "type": "uint256"
        }
      ],
      "payable": false,
      "stateMutability": "view",
      "type": "function"
    },
    {
      "constant": true,
      "inputs": [],
      "name": "candidatesCount",
      "outputs": [
        {
          "internalType": "uint256",
          "name": "",
          "type": "uint256"
        }
      ],
      "payable": false,
      "stateMutability": "view",
      "type": "function"
    },
    {
      "constant": true,
      "inputs": [
        {
          "internalType": "bytes32",
          "name": "",
          "type": "bytes32"
        }
      ],
      "name": "verifier",
      "outputs": [
        {
          "internalType": "address",
          "name": "",
          "type": "address"
        }
      ],
      "payable": false,
      "stateMutability": "view",
      "type": "function"
    },
    {
      "constant": true,
      "inputs": [
        {
          "internalType": "address",
          "name": "",
          "type": "address"
        }
      ],
      "name": "voters",
      "outputs": [
        {
          "internalType": "bytes32",
          "name": "personal_id",
          "type": "bytes32"
        },
        {
          "internalType": "bool",
          "name": "hasVoted",
          "type": "bool"
        },
        {
          "internalType": "address",
          "name": "public_Address",
          "type": "address"
        },
        {
          "internalType": "string",
          "name": "email",
          "type": "string"
        },
        {
          "internalType": "string",
          "name": "name",
          "type": "string"
        },
        {
          "internalType": "string",
          "name": "surname",
          "type": "string"
        },
        {
          "internalType": "bool",
          "name": "isRegistered",
          "type": "bool"
        },
        {
          "internalType": "uint256",
          "name": "voterPosition",
          "type": "uint256"
        }
      ],
      "payable": false,
      "stateMutability": "view",
      "type": "function"
    },
    {
      "constant": true,
      "inputs": [],
      "name": "votersCount",
      "outputs": [
        {
          "internalType": "uint256",
          "name": "",
          "type": "uint256"
        }
      ],
      "payable": false,
      "stateMutability": "view",
      "type": "function"
    },
    {
      "constant": false,
      "inputs": [
        {
          "internalType": "string",
          "name": "_name",
          "type": "string"
        },
        {
          "internalType": "string",
          "name": "_party",
          "type": "string"
        }
      ],
      "name": "addCandidate",
      "outputs": [],
      "payable": false,
      "stateMutability": "nonpayable",
      "type": "function"
    },
    {
      "constant": false,
      "inputs": [
        {
          "internalType": "string",
          "name": "_personal_id",
          "type": "string"
        },
        {
          "internalType": "string",
          "name": "_email",
          "type": "string"
        },
        {
          "internalType": "string",
          "name": "_name",
          "type": "string"
        },
        {
          "internalType": "string",
          "name": "_surname",
          "type": "string"
        }
      ],
      "name": "addVoter",
      "outputs": [],
      "payable": false,
      "stateMutability": "nonpayable",
      "type": "function"
    },
    {
      "constant": true,
      "inputs": [],
      "name": "isVoter_Registered",
      "outputs": [
        {
          "internalType": "bool",
          "name": "",
          "type": "bool"
        }
      ],
      "payable": false,
      "stateMutability": "view",
      "type": "function"
    },
    {
      "constant": true,
      "inputs": [],
      "name": "has_Voted",
      "outputs": [
        {
          "internalType": "bool",
          "name": "",
          "type": "bool"
        }
      ],
      "payable": false,
      "stateMutability": "view",
      "type": "function"
    },
    {
      "constant": false,
      "inputs": [
        {
          "internalType": "uint256",
          "name": "_candidateId",
          "type": "uint256"
        }
      ],
      "name": "vote",
      "outputs": [],
      "payable": false,
      "stateMutability": "nonpayable",
      "type": "function"
    },
    {
      "constant": true,
      "inputs": [
        {
          "internalType": "string",
          "name": "text",
          "type": "string"
        }
      ],
      "name": "keccak256_encrypt",
      "outputs": [
        {
          "internalType": "bytes32",
          "name": "",
          "type": "bytes32"
        }
      ],
      "payable": false,
      "stateMutability": "pure",
      "type": "function"
    },
    {
      "constant": true,
      "inputs": [
        {
          "internalType": "address",
          "name": "_signer",
          "type": "address"
        },
        {
          "internalType": "string",
          "name": "_message",
          "type": "string"
        },
        {
          "internalType": "bytes",
          "name": "_sig",
          "type": "bytes"
        }
      ],
      "name": "verify",
      "outputs": [
        {
          "internalType": "bool",
          "name": "",
          "type": "bool"
        }
      ],
      "payable": false,
      "stateMutability": "pure",
      "type": "function"
    },
    {
      "constant": true,
      "inputs": [
        {
          "internalType": "string",
          "name": "sms",
          "type": "string"
        }
      ],
      "name": "getHash",
      "outputs": [
        {
          "internalType": "bytes32",
          "name": "",
          "type": "bytes32"
        }
      ],
      "payable": false,
      "stateMutability": "pure",
      "type": "function"
    },
    {
      "constant": true,
      "inputs": [
        {
          "internalType": "bytes32",
          "name": "sms",
          "type": "bytes32"
        }
      ],
      "name": "getEthSignedHash",
      "outputs": [
        {
          "internalType": "bytes32",
          "name": "",
          "type": "bytes32"
        }
      ],
      "payable": false,
      "stateMutability": "pure",
      "type": "function"
    },
    {
      "constant": true,
      "inputs": [
        {
          "internalType": "bytes32",
          "name": "_ethSignedMessageHash",
          "type": "bytes32"
        },
        {
          "internalType": "bytes",
          "name": "_sig",
          "type": "bytes"
        }
      ],
      "name": "recover",
      "outputs": [
        {
          "internalType": "address",
          "name": "",
          "type": "address"
        }
      ],
      "payable": false,
      "stateMutability": "pure",
      "type": "function"
    }
  ],
  "bytecode": "0x60806040523480156200001157600080fd5b5033600560006101000a81548173ffffffffffffffffffffffffffffffffffffffff021916908373ffffffffffffffffffffffffffffffffffffffff160217905550620000cf6040518060400160405280600b81526020017f43616e64696461746520310000000000000000000000000000000000000000008152506040518060400160405280600381526020017f45454600000000000000000000000000000000000000000000000000000000008152506200024960201b60201c565b6200014b6040518060400160405280600b81526020017f43616e64696461746520320000000000000000000000000000000000000000008152506040518060400160405280600381526020017f41424300000000000000000000000000000000000000000000000000000000008152506200024960201b60201c565b620001c76040518060400160405280600b81526020017f43616e64696461746520330000000000000000000000000000000000000000008152506040518060400160405280600281526020017f42410000000000000000000000000000000000000000000000000000000000008152506200024960201b60201c565b620002436040518060400160405280600b81526020017f43616e64696461746520340000000000000000000000000000000000000000008152506040518060400160405280600381526020017f4e465000000000000000000000000000000000000000000000000000000000008152506200024960201b60201c565b62000443565b600560009054906101000a900473ffffffffffffffffffffffffffffffffffffffff1673ffffffffffffffffffffffffffffffffffffffff163373ffffffffffffffffffffffffffffffffffffffff1614620002f1576040517f08c379a0000000000000000000000000000000000000000000000000000000008152600401808060200182810382526024815260200180620021c26024913960400191505060405180910390fd5b60036000815480929190600101919050555060405180608001604052806003548152602001838152602001828152602001600081525060008060035481526020019081526020016000206000820151816000015560208201518160010190805190602001906200036392919062000394565b5060408201518160020190805190602001906200038292919062000394565b50606082015181600301559050505050565b828054600181600116156101000203166002900490600052602060002090601f016020900481019282601f10620003d757805160ff191683800117855562000408565b8280016001018555821562000408579182015b8281111562000407578251825591602001919060010190620003ea565b5b5090506200041791906200041b565b5090565b6200044091905b808211156200043c57600081600090555060010162000422565b5090565b90565b611d6f80620004536000396000f3fe608060405234801561001057600080fd5b50600436106101005760003560e01c80635b6beeb911610097578063a3ec138d11610066578063a3ec138d14610af3578063d25773b714610cdf578063d54c149614610d01578063f851a44014610d6f57610100565b80635b6beeb9146107645780635dc2b6501461083357806398b8b43d14610ab357806398c0793814610ad557610100565b80632dd34f0f116100d35780632dd34f0f146103a85780632f4ea5ea146105325780633477ee2e146105745780633fee76dc1461069557610100565b80630121b93f1461010557806319045a251461013357806326541b56146102385780632d35a8a21461038a575b600080fd5b6101316004803603602081101561011b57600080fd5b8101908080359060200190929190505050610db9565b005b6101f66004803603604081101561014957600080fd5b81019080803590602001909291908035906020019064010000000081111561017057600080fd5b82018360208201111561018257600080fd5b803590602001918460018302840111640100000000831117156101a457600080fd5b91908080601f016020809104026020016040519081016040528093929190818152602001838380828437600081840152601f19601f820116905080830192505050505050509192919290505050610fdb565b604051808273ffffffffffffffffffffffffffffffffffffffff1673ffffffffffffffffffffffffffffffffffffffff16815260200191505060405180910390f35b6103886004803603604081101561024e57600080fd5b810190808035906020019064010000000081111561026b57600080fd5b82018360208201111561027d57600080fd5b8035906020019184600183028401116401000000008311171561029f57600080fd5b91908080601f016020809104026020016040519081016040528093929190818152602001838380828437600081840152601f19601f8201169050808301925050505050505091929192908035906020019064010000000081111561030257600080fd5b82018360208201111561031457600080fd5b8035906020019184600183028401116401000000008311171561033657600080fd5b91908080601f016020809104026020016040519081016040528093929190818152602001838380828437600081840152601f19601f820116905080830192505050505050509192919290505050611062565b005b6103926111a7565b6040518082815260200191505060405180910390f35b610518600480360360608110156103be57600080fd5b81019080803573ffffffffffffffffffffffffffffffffffffffff169060200190929190803590602001906401000000008111156103fb57600080fd5b82018360208201111561040d57600080fd5b8035906020019184600183028401116401000000008311171561042f57600080fd5b91908080601f016020809104026020016040519081016040528093929190818152602001838380828437600081840152601f19601f8201169050808301925050505050505091929192908035906020019064010000000081111561049257600080fd5b8201836020820111156104a457600080fd5b803590602001918460018302840111640100000000831117156104c657600080fd5b91908080601f016020809104026020016040519081016040528093929190818152602001838380828437600081840152601f19601f8201169050808301925050505050505091929192905050506111ad565b604051808215151515815260200191505060405180910390f35b61055e6004803603602081101561054857600080fd5b810190808035906020019092919050505061120b565b6040518082815260200191505060405180910390f35b6105a06004803603602081101561058a57600080fd5b8101908080359060200190929190505050611263565b604051808581526020018060200180602001848152602001838103835286818151815260200191508051906020019080838360005b838110156105f05780820151818401526020810190506105d5565b50505050905090810190601f16801561061d5780820380516001836020036101000a031916815260200191505b50838103825285818151815260200191508051906020019080838360005b8381101561065657808201518184015260208101905061063b565b50505050905090810190601f1680156106835780820380516001836020036101000a031916815260200191505b50965050505050505060405180910390f35b61074e600480360360208110156106ab57600080fd5b81019080803590602001906401000000008111156106c857600080fd5b8201836020820111156106da57600080fd5b803590602001918460018302840111640100000000831117156106fc57600080fd5b91908080601f016020809104026020016040519081016040528093929190818152602001838380828437600081840152601f19601f8201169050808301925050505050505091929192905050506113c3565b6040518082815260200191505060405180910390f35b61081d6004803603602081101561077a57600080fd5b810190808035906020019064010000000081111561079757600080fd5b8201836020820111156107a957600080fd5b803590602001918460018302840111640100000000831117156107cb57600080fd5b91908080601f016020809104026020016040519081016040528093929190818152602001838380828437600081840152601f19601f820116905080830192505050505050509192919290505050611458565b6040518082815260200191505060405180910390f35b610ab16004803603608081101561084957600080fd5b810190808035906020019064010000000081111561086657600080fd5b82018360208201111561087857600080fd5b8035906020019184600183028401116401000000008311171561089a57600080fd5b91908080601f016020809104026020016040519081016040528093929190818152602001838380828437600081840152601f19601f820116905080830192505050505050509192919290803590602001906401000000008111156108fd57600080fd5b82018360208201111561090f57600080fd5b8035906020019184600183028401116401000000008311171561093157600080fd5b91908080601f016020809104026020016040519081016040528093929190818152602001838380828437600081840152601f19601f8201169050808301925050505050505091929192908035906020019064010000000081111561099457600080fd5b8201836020820111156109a657600080fd5b803590602001918460018302840111640100000000831117156109c857600080fd5b91908080601f016020809104026020016040519081016040528093929190818152602001838380828437600081840152601f19601f82011690508083019250505050505050919291929080359060200190640100000000811115610a2b57600080fd5b820183602082011115610a3d57600080fd5b80359060200191846001830284011164010000000083111715610a5f57600080fd5b91908080601f016020809104026020016040519081016040528093929190818152602001838380828437600081840152601f19601f8201169050808301925050505050505091929192905050506114d3565b005b610abb61185e565b604051808215151515815260200191505060405180910390f35b610add6118b5565b6040518082815260200191505060405180910390f35b610b3560048036036020811015610b0957600080fd5b81019080803573ffffffffffffffffffffffffffffffffffffffff1690602001909291905050506118bb565b60405180898152602001881515151581526020018773ffffffffffffffffffffffffffffffffffffffff1673ffffffffffffffffffffffffffffffffffffffff16815260200180602001806020018060200186151515158152602001858152602001848103845289818151815260200191508051906020019080838360005b83811015610bcf578082015181840152602081019050610bb4565b50505050905090810190601f168015610bfc5780820380516001836020036101000a031916815260200191505b50848103835288818151815260200191508051906020019080838360005b83811015610c35578082015181840152602081019050610c1a565b50505050905090810190601f168015610c625780820380516001836020036101000a031916815260200191505b50848103825287818151815260200191508051906020019080838360005b83811015610c9b578082015181840152602081019050610c80565b50505050905090810190601f168015610cc85780820380516001836020036101000a031916815260200191505b509b50505050505050505050505060405180910390f35b610ce7611b05565b604051808215151515815260200191505060405180910390f35b610d2d60048036036020811015610d1757600080fd5b8101908080359060200190929190505050611b5c565b604051808273ffffffffffffffffffffffffffffffffffffffff1673ffffffffffffffffffffffffffffffffffffffff16815260200191505060405180910390f35b610d77611b8f565b604051808273ffffffffffffffffffffffffffffffffffffffff1673ffffffffffffffffffffffffffffffffffffffff16815260200191505060405180910390f35b600160003373ffffffffffffffffffffffffffffffffffffffff1673ffffffffffffffffffffffffffffffffffffffff16815260200190815260200160002060050160009054906101000a900460ff16610e7b576040517f08c379a000000000000000000000000000000000000000000000000000000000815260040180806020018281038252601e8152602001807f4f6e6c7920726567697374657265642075736572732063616e20766f7465000081525060200191505060405180910390fd5b600160003373ffffffffffffffffffffffffffffffffffffffff1673ffffffffffffffffffffffffffffffffffffffff16815260200190815260200160002060010160009054906101000a900460ff1615610f3e576040517f08c379a000000000000000000000000000000000000000000000000000000000815260040180806020018281038252600d8152602001807f416c726561647920566f7465640000000000000000000000000000000000000081525060200191505060405180910390fd5b600081118015610f5057506003548111155b610f5957600080fd5b60018060003373ffffffffffffffffffffffffffffffffffffffff1673ffffffffffffffffffffffffffffffffffffffff16815260200190815260200160002060010160006101000a81548160ff0219169083151502179055506000808281526020019081526020016000206003016000815480929190600101919050555050565b600080600080610fea85611bb5565b92509250925060018682858560405160008152602001604052604051808581526020018460ff1660ff1681526020018381526020018281526020019450505050506020604051602081039080840390855afa15801561104d573d6000803e3d6000fd5b50505060206040510351935050505092915050565b600560009054906101000a900473ffffffffffffffffffffffffffffffffffffffff1673ffffffffffffffffffffffffffffffffffffffff163373ffffffffffffffffffffffffffffffffffffffff1614611108576040517f08c379a0000000000000000000000000000000000000000000000000000000008152600401808060200182810382526024815260200180611d176024913960400191505060405180910390fd5b6003600081548092919060010191905055506040518060800160405280600354815260200183815260200182815260200160008152506000806003548152602001908152602001600020600082015181600001556020820151816001019080519060200190611178929190611c50565b506040820151816002019080519060200190611195929190611c50565b50606082015181600301559050505050565b60035481565b6000806111b984611458565b905060006111c68261120b565b90508573ffffffffffffffffffffffffffffffffffffffff166111e98286610fdb565b73ffffffffffffffffffffffffffffffffffffffff1614925050509392505050565b60008160405160200180807f19457468657265756d205369676e6564204d6573736167653a0a333200000000815250601c01828152602001915050604051602081830303815290604052805190602001209050919050565b6000602052806000526040600020600091509050806000015490806001018054600181600116156101000203166002900480601f0160208091040260200160405190810160405280929190818152602001828054600181600116156101000203166002900480156113155780601f106112ea57610100808354040283529160200191611315565b820191906000526020600020905b8154815290600101906020018083116112f857829003601f168201915b505050505090806002018054600181600116156101000203166002900480601f0160208091040260200160405190810160405280929190818152602001828054600181600116156101000203166002900480156113b35780601f10611388576101008083540402835291602001916113b3565b820191906000526020600020905b81548152906001019060200180831161139657829003601f168201915b5050505050908060030154905084565b6000816040516020018080602001828103825283818151815260200191508051906020019080838360005b838110156114095780820151818401526020810190506113ee565b50505050905090810190601f1680156114365780820380516001836020036101000a031916815260200191505b5092505050604051602081830303815290604052805190602001209050919050565b6000816040516020018082805190602001908083835b60208310611491578051825260208201915060208101905060208303925061146e565b6001836020036101000a038019825116818451168082178552505050505050905001915050604051602081830303815290604052805190602001209050919050565b600033905060006114e3866113c3565b90506000600160008473ffffffffffffffffffffffffffffffffffffffff1673ffffffffffffffffffffffffffffffffffffffff16815260200190815260200160002090508060050160009054906101000a900460ff1615611590576040517f08c379a0000000000000000000000000000000000000000000000000000000008152600401808060200182810382526021815260200180611cf66021913960400191505060405180910390fd5b600073ffffffffffffffffffffffffffffffffffffffff166002600084815260200190815260200160002060009054906101000a900473ffffffffffffffffffffffffffffffffffffffff1673ffffffffffffffffffffffffffffffffffffffff1614611665576040517f08c379a000000000000000000000000000000000000000000000000000000000815260040180806020018281038252601a8152602001807f506572736f6e616c20494420616c726561647920696e2075736500000000000081525060200191505060405180910390fd5b6004600081548092919060010191905055506040518061010001604052808381526020016000151581526020018473ffffffffffffffffffffffffffffffffffffffff168152602001878152602001868152602001858152602001600115158152602001600454815250600160008573ffffffffffffffffffffffffffffffffffffffff1673ffffffffffffffffffffffffffffffffffffffff1681526020019081526020016000206000820151816000015560208201518160010160006101000a81548160ff02191690831515021790555060408201518160010160016101000a81548173ffffffffffffffffffffffffffffffffffffffff021916908373ffffffffffffffffffffffffffffffffffffffff160217905550606082015181600201908051906020019061179b929190611c50565b5060808201518160030190805190602001906117b8929190611c50565b5060a08201518160040190805190602001906117d5929190611c50565b5060c08201518160050160006101000a81548160ff02191690831515021790555060e08201518160060155905050826002600084815260200190815260200160002060006101000a81548173ffffffffffffffffffffffffffffffffffffffff021916908373ffffffffffffffffffffffffffffffffffffffff16021790555050505050505050565b6000600160003373ffffffffffffffffffffffffffffffffffffffff1673ffffffffffffffffffffffffffffffffffffffff16815260200190815260200160002060010160009054906101000a900460ff16905090565b60045481565b60016020528060005260406000206000915090508060000154908060010160009054906101000a900460ff16908060010160019054906101000a900473ffffffffffffffffffffffffffffffffffffffff1690806002018054600181600116156101000203166002900480601f0160208091040260200160405190810160405280929190818152602001828054600181600116156101000203166002900480156119a65780601f1061197b576101008083540402835291602001916119a6565b820191906000526020600020905b81548152906001019060200180831161198957829003601f168201915b505050505090806003018054600181600116156101000203166002900480601f016020809104026020016040519081016040528092919081815260200182805460018160011615610100020316600290048015611a445780601f10611a1957610100808354040283529160200191611a44565b820191906000526020600020905b815481529060010190602001808311611a2757829003601f168201915b505050505090806004018054600181600116156101000203166002900480601f016020809104026020016040519081016040528092919081815260200182805460018160011615610100020316600290048015611ae25780601f10611ab757610100808354040283529160200191611ae2565b820191906000526020600020905b815481529060010190602001808311611ac557829003601f168201915b5050505050908060050160009054906101000a900460ff16908060060154905088565b6000600160003373ffffffffffffffffffffffffffffffffffffffff1673ffffffffffffffffffffffffffffffffffffffff16815260200190815260200160002060050160009054906101000a900460ff16905090565b60026020528060005260406000206000915054906101000a900473ffffffffffffffffffffffffffffffffffffffff1681565b600560009054906101000a900473ffffffffffffffffffffffffffffffffffffffff1681565b60008060006041845114611c31576040517f08c379a00000000000000000000000000000000000000000000000000000000081526004018080602001828103825260188152602001807f696e76616c6964207369676e6174757265206c656e677468000000000000000081525060200191505060405180910390fd5b6020840151925060408401519150606084015160001a90509193909250565b828054600181600116156101000203166002900490600052602060002090601f016020900481019282601f10611c9157805160ff1916838001178555611cbf565b82800160010185558215611cbf579182015b82811115611cbe578251825591602001919060010190611ca3565b5b509050611ccc9190611cd0565b5090565b611cf291905b80821115611cee576000816000905550600101611cd6565b5090565b9056fe546865207075626c6963206164647265737320616c726561647920696e207573654f6e6c792041646d696e2063616e20706572666f726d20746869732066756e6374696f6ea265627a7a7231582034e25e542d689f2edef682922bb1c512c90b5e063804fbfb6616f15b12cb981264736f6c634300051000324f6e6c792041646d696e2063616e20706572666f726d20746869732066756e6374696f6e",
  "source": "pragma solidity >=0.5.0;\r\n\r\ncontract Election { \r\n\r\n    struct voter {\r\n        bytes32 personal_id; //their personal id\r\n        bool hasVoted; //have they voted\r\n        address public_Address; //public address to wallet\r\n        string email; //email address for communication\r\n        string name; //name of voter \r\n        string surname; \r\n        bool isRegistered;\r\n        uint voterPosition;\r\n    }\r\n\r\n\r\n     // Model a Candidate\r\n    struct Candidate {\r\n        uint id;\r\n        string name;\r\n        string party;\r\n        uint voteCount;\r\n    }\r\n\r\n    // Read/write candidate\r\n    mapping(uint => Candidate) public candidates;\r\n\r\n    // Store accounts that have voted\r\n    mapping(address => voter) public voters;\r\n\r\n     // Stores encyrted ID'S\r\n    mapping(bytes32 => address) public verifier;\r\n\r\n    // Store Candidates Count\r\n    uint public candidatesCount;\r\n\r\n    // Store Candidates Count\r\n    uint public votersCount;\r\n\r\n    // Admin is set once, when contract is deployed. Also saves gas fees\r\n    address public admin;\r\n\r\n    constructor() public { \r\n        admin = msg.sender;\r\n        addCandidate(\"Candidate 1\", \"EEF\"); \r\n        addCandidate(\"Candidate 2\", \"ABC\");\r\n        addCandidate(\"Candidate 3\", \"BA\");\r\n        addCandidate(\"Candidate 4\", \"NFP\");\r\n    } \r\n\r\n    modifier onlyAdmin(){\r\n\t\trequire(msg.sender==admin, \"Only Admin can perform this function\");\r\n\t\t_;\r\n\t}\r\n\r\n       // Add a candidate\r\n    function addCandidate (string memory _name, string memory _party) onlyAdmin public {\r\n        candidatesCount ++;\r\n        candidates[candidatesCount] = Candidate(candidatesCount, _name, _party, 0);\r\n    }\r\n\r\n          // Add a voter\r\n    function addVoter (string memory _personal_id, string memory _email, string memory _name, string memory _surname) public {\r\n            address _pAdress = msg.sender; \r\n            bytes32 encrypt_id = keccak256_encrypt(_personal_id);  //encrypt personal id\r\n            voter storage user = voters[_pAdress];\r\n            require(!user.isRegistered, \"The public address already in use\"); //require that the user is not registered\r\n\r\n            //require that personal_id is not already in use\r\n            require(verifier[encrypt_id] == 0x0000000000000000000000000000000000000000, \"Personal ID already in use\");\r\n            votersCount ++;\r\n            voters[_pAdress] = voter( {personal_id: encrypt_id, \r\n                            hasVoted:false, \r\n                            public_Address:_pAdress,\r\n                            email: _email, \r\n                            name:_name, \r\n                            surname: _surname, \r\n                            isRegistered:true,\r\n                            voterPosition: votersCount\r\n                    });\r\n            verifier[encrypt_id] = _pAdress;\r\n    }\r\n\r\n    //returns true if voter registered\r\n    function isVoter_Registered() public view returns (bool){\r\n        return voters[msg.sender].isRegistered;\r\n    }\r\n\r\n     //returns true if voter registered\r\n    function has_Voted() public view returns (bool){\r\n        return voters[msg.sender].hasVoted;\r\n    }\r\n\r\n\r\n\r\n    // voting function, all accounts can vote\r\n    function vote (uint _candidateId) public {\r\n\r\n        //must be registered to vote\r\n        require(voters[msg.sender].isRegistered, \"Only registered users can vote\");\r\n\r\n        // require that they haven't voted before\r\n        require(!voters[msg.sender].hasVoted, \"Already Voted\"); \r\n        \r\n\r\n        // require a valid candidate\r\n        require(_candidateId > 0 && _candidateId <= candidatesCount);\r\n\r\n        // record that voter has voted\r\n        voters[msg.sender].hasVoted = true;\r\n\r\n        // update candidate vote Count\r\n        candidates[_candidateId].voteCount ++;\r\n        //where is the data saved\r\n        //describe everything fully-> break it down\r\n    }\r\n\r\n\r\n    //hash function\r\n    function keccak256_encrypt(string memory text) public pure returns (bytes32) {\r\n        return keccak256(abi.encode(text));\r\n    }\r\n\r\n    //<----------------------------------- Verifies signed message -------------------------------->\r\n    function verify (address _signer, string memory _message, bytes memory _sig) public pure returns (bool) {\r\n        bytes32 hash_SMS = getHash(_message);\r\n        bytes32 ethSignedMessageHash = getEthSignedHash(hash_SMS);\r\n        return recover(ethSignedMessageHash, _sig) == _signer;\r\n\r\n    }\r\n    \r\n    //has a tring\r\n    function getHash (string memory sms) public pure returns (bytes32){\r\n        return keccak256(abi.encodePacked(sms));\r\n    }\r\n\r\n\r\n    function getEthSignedHash (bytes32 sms) public pure returns (bytes32){\r\n        return keccak256(abi.encodePacked(\"\\x19Ethereum Signed Message:\\n32\", sms));\r\n    }\r\n\r\n\r\n    //recover account of original signer of message\r\n    function recover(bytes32 _ethSignedMessageHash, bytes memory _sig) public pure returns (address){\r\n            (bytes32 r, bytes32 s, uint8 v) = _split(_sig); //split signature into params\r\n            return ecrecover(_ethSignedMessageHash, v, r,s); //returns the address of the signer given the signed message\r\n    }\r\n\r\n    function _split(bytes memory _sig) internal pure returns (bytes32 r, bytes32 s, uint8 v){\r\n            require(_sig.length == 65, \"invalid signature length\");\r\n\r\n            assembly {\r\n                r := mload(add(_sig, 32))  //skip first 32-byetes as they hold the length\r\n                s := mload(add(_sig, 64))\r\n                v := byte(0, mload(add(_sig, 96)))\r\n\r\n            }\r\n    }\r\n\r\n}",
  "sourcePath": "C:\\Users\\Student\\Documents\\crypto\\Code\\contracts\\Election.sol",
  "compiler": {
    "name": "solc",
    "version": "0.5.16+commit.9c3226ce.Emscripten.clang"
  },
  "schemaVersion": "3.4.14",
  "updatedAt": "2023-09-16T03:01:30.490Z",
  "networkType": "ethereum",
  "devdoc": {
    "methods": {}
  },
  "userdoc": {
    "methods": {}
  }
}