{
  "contractName": "Election",
  "abi": [
    {
      "inputs": [],
      "payable": false,
      "stateMutability": "nonpayable",
      "type": "constructor"
    },
    {
      "constant": true,
      "inputs": [],
      "name": "admin",
      "outputs": [
        {
          "internalType": "address",
          "name": "",
          "type": "address"
        }
      ],
      "payable": false,
      "stateMutability": "view",
      "type": "function"
    },
    {
      "constant": true,
      "inputs": [
        {
          "internalType": "uint256",
          "name": "",
          "type": "uint256"
        }
      ],
      "name": "candidates",
      "outputs": [
        {
          "internalType": "uint256",
          "name": "id",
          "type": "uint256"
        },
        {
          "internalType": "string",
          "name": "name",
          "type": "string"
        },
        {
          "internalType": "string",
          "name": "party",
          "type": "string"
        },
        {
          "internalType": "uint256",
          "name": "voteCount",
          "type": "uint256"
        }
      ],
      "payable": false,
      "stateMutability": "view",
      "type": "function"
    },
    {
      "constant": true,
      "inputs": [],
      "name": "candidatesCount",
      "outputs": [
        {
          "internalType": "uint256",
          "name": "",
          "type": "uint256"
        }
      ],
      "payable": false,
      "stateMutability": "view",
      "type": "function"
    },
    {
      "constant": true,
      "inputs": [
        {
          "internalType": "address",
          "name": "",
          "type": "address"
        }
      ],
      "name": "voters",
      "outputs": [
        {
          "internalType": "bool",
          "name": "",
          "type": "bool"
        }
      ],
      "payable": false,
      "stateMutability": "view",
      "type": "function"
    },
    {
      "constant": false,
      "inputs": [
        {
          "internalType": "uint256",
          "name": "_candidateId",
          "type": "uint256"
        }
      ],
      "name": "vote",
      "outputs": [],
      "payable": false,
      "stateMutability": "nonpayable",
      "type": "function"
    }
  ],
  "bytecode": "0x608060405234801561001057600080fd5b5033600360006101000a81548173ffffffffffffffffffffffffffffffffffffffff021916908373ffffffffffffffffffffffffffffffffffffffff1602179055506100cc6040518060400160405280600b81526020017f43616e64696461746520310000000000000000000000000000000000000000008152506040518060400160405280600381526020017f45454600000000000000000000000000000000000000000000000000000000008152506101c560201b60201c565b6101466040518060400160405280600b81526020017f43616e64696461746520320000000000000000000000000000000000000000008152506040518060400160405280600381526020017f41424300000000000000000000000000000000000000000000000000000000008152506101c560201b60201c565b6101c06040518060400160405280600b81526020017f43616e64696461746520330000000000000000000000000000000000000000008152506040518060400160405280600281526020017f42410000000000000000000000000000000000000000000000000000000000008152506101c560201b60201c565b610363565b600360009054906101000a900473ffffffffffffffffffffffffffffffffffffffff1673ffffffffffffffffffffffffffffffffffffffff163373ffffffffffffffffffffffffffffffffffffffff161461021f57600080fd5b600260008154809291906001019190505550604051806080016040528060025481526020018381526020018281526020016000815250600080600254815260200190815260200160002060008201518160000155602082015181600101908051906020019061028f9291906102be565b5060408201518160020190805190602001906102ac9291906102be565b50606082015181600301559050505050565b828054600181600116156101000203166002900490600052602060002090601f016020900481019282601f106102ff57805160ff191683800117855561032d565b8280016001018555821561032d579182015b8281111561032c578251825591602001919060010190610311565b5b50905061033a919061033e565b5090565b61036091905b8082111561035c576000816000905550600101610344565b5090565b90565b610541806103726000396000f3fe608060405234801561001057600080fd5b50600436106100575760003560e01c80630121b93f1461005c5780632d35a8a21461008a5780633477ee2e146100a8578063a3ec138d146101c9578063f851a44014610225575b600080fd5b6100886004803603602081101561007257600080fd5b810190808035906020019092919050505061026f565b005b610092610360565b6040518082815260200191505060405180910390f35b6100d4600480360360208110156100be57600080fd5b8101908080359060200190929190505050610366565b604051808581526020018060200180602001848152602001838103835286818151815260200191508051906020019080838360005b83811015610124578082015181840152602081019050610109565b50505050905090810190601f1680156101515780820380516001836020036101000a031916815260200191505b50838103825285818151815260200191508051906020019080838360005b8381101561018a57808201518184015260208101905061016f565b50505050905090810190601f1680156101b75780820380516001836020036101000a031916815260200191505b50965050505050505060405180910390f35b61020b600480360360208110156101df57600080fd5b81019080803573ffffffffffffffffffffffffffffffffffffffff1690602001909291905050506104c6565b604051808215151515815260200191505060405180910390f35b61022d6104e6565b604051808273ffffffffffffffffffffffffffffffffffffffff1673ffffffffffffffffffffffffffffffffffffffff16815260200191505060405180910390f35b600160003373ffffffffffffffffffffffffffffffffffffffff1673ffffffffffffffffffffffffffffffffffffffff16815260200190815260200160002060009054906101000a900460ff16156102c657600080fd5b6000811180156102d857506002548111155b6102e157600080fd5b60018060003373ffffffffffffffffffffffffffffffffffffffff1673ffffffffffffffffffffffffffffffffffffffff16815260200190815260200160002060006101000a81548160ff0219169083151502179055506000808281526020019081526020016000206003016000815480929190600101919050555050565b60025481565b6000602052806000526040600020600091509050806000015490806001018054600181600116156101000203166002900480601f0160208091040260200160405190810160405280929190818152602001828054600181600116156101000203166002900480156104185780601f106103ed57610100808354040283529160200191610418565b820191906000526020600020905b8154815290600101906020018083116103fb57829003601f168201915b505050505090806002018054600181600116156101000203166002900480601f0160208091040260200160405190810160405280929190818152602001828054600181600116156101000203166002900480156104b65780601f1061048b576101008083540402835291602001916104b6565b820191906000526020600020905b81548152906001019060200180831161049957829003601f168201915b5050505050908060030154905084565b60016020528060005260406000206000915054906101000a900460ff1681565b600360009054906101000a900473ffffffffffffffffffffffffffffffffffffffff168156fea265627a7a723158209b01c86abe60589132410ed3468f4272dd44cb0cb7ea2b75317ed51de6f9c8fd64736f6c63430005100032",
  "source": "pragma solidity >=0.5.0;\r\n\r\ncontract Election { \r\n\r\n    struct voter {\r\n        uint personal_id; //their personal id\r\n        bool hasVoted; //have they voted\r\n        address public_Address; //public address to wallet\r\n        string email; //email address for communication\r\n        string name; //name of voter \r\n        string surname; \r\n        bool isRegistered;\r\n    }\r\n\r\n\r\n     // Model a Candidate\r\n    struct Candidate {\r\n        uint id;\r\n        string name;\r\n        string party;\r\n        uint voteCount;\r\n    }\r\n\r\n    // Read/write candidate\r\n    mapping(uint => Candidate) public candidates;\r\n\r\n    // Store accounts that have voted\r\n    mapping(address => bool) public voters;\r\n\r\n    // Store Candidates Count\r\n    uint public candidatesCount;\r\n\r\n    // Constructor\r\n    address public admin;\r\n\r\n    constructor() public { \r\n        admin = msg.sender;\r\n        addCandidate(\"Candidate 1\", \"EEF\"); \r\n        addCandidate(\"Candidate 2\", \"ABC\");\r\n        addCandidate(\"Candidate 3\", \"BA\");\r\n    } \r\n\r\n       // Add a candidate\r\n    function addCandidate (string memory _name, string memory _party) private {\r\n        require(msg.sender == admin);\r\n        candidatesCount ++;\r\n        candidates[candidatesCount] = Candidate(candidatesCount, _name, _party, 0);\r\n    }\r\n\r\n    // voting function, all accounts can vote\r\n    function vote (uint _candidateId) public {\r\n        // require that they haven't voted before\r\n        require(!voters[msg.sender]);\r\n\r\n        // require a valid candidate\r\n        require(_candidateId > 0 && _candidateId <= candidatesCount);\r\n\r\n        // record that voter has voted\r\n        voters[msg.sender] = true;\r\n\r\n        // update candidate vote Count\r\n        candidates[_candidateId].voteCount ++;\r\n    }\r\n}",
  "sourcePath": "C:\\Users\\Student\\Documents\\crypto\\Code\\contracts\\Election.sol",
  "compiler": {
    "name": "solc",
    "version": "0.5.16+commit.9c3226ce.Emscripten.clang"
  },
  "schemaVersion": "3.4.14",
  "updatedAt": "2023-09-12T10:27:09.041Z",
  "networkType": "ethereum",
  "devdoc": {
    "methods": {}
  },
  "userdoc": {
    "methods": {}
  }
}