{
  "contractName": "Election",
  "abi": [
    {
      "inputs": [],
      "stateMutability": "nonpayable",
      "type": "constructor"
    },
    {
      "inputs": [
        {
          "internalType": "uint256",
          "name": "",
          "type": "uint256"
        }
      ],
      "name": "candidates",
      "outputs": [
        {
          "internalType": "uint256",
          "name": "id",
          "type": "uint256"
        },
        {
          "internalType": "string",
          "name": "name",
          "type": "string"
        },
        {
          "internalType": "string",
          "name": "party",
          "type": "string"
        },
        {
          "internalType": "uint256",
          "name": "voteCount",
          "type": "uint256"
        }
      ],
      "stateMutability": "view",
      "type": "function",
      "constant": true
    },
    {
      "inputs": [],
      "name": "candidatesCount",
      "outputs": [
        {
          "internalType": "uint256",
          "name": "",
          "type": "uint256"
        }
      ],
      "stateMutability": "view",
      "type": "function",
      "constant": true
    },
    {
      "inputs": [],
      "name": "numVotes",
      "outputs": [
        {
          "internalType": "uint256",
          "name": "",
          "type": "uint256"
        }
      ],
      "stateMutability": "view",
      "type": "function",
      "constant": true
    },
    {
      "inputs": [],
      "name": "phase",
      "outputs": [
        {
          "internalType": "string",
          "name": "",
          "type": "string"
        }
      ],
      "stateMutability": "view",
      "type": "function",
      "constant": true
    },
    {
      "inputs": [],
      "name": "votersCount",
      "outputs": [
        {
          "internalType": "uint256",
          "name": "",
          "type": "uint256"
        }
      ],
      "stateMutability": "view",
      "type": "function",
      "constant": true
    },
    {
      "inputs": [
        {
          "internalType": "uint256",
          "name": "",
          "type": "uint256"
        }
      ],
      "name": "votingTrails",
      "outputs": [
        {
          "internalType": "string",
          "name": "ref",
          "type": "string"
        },
        {
          "internalType": "string",
          "name": "voteDate",
          "type": "string"
        },
        {
          "internalType": "string",
          "name": "voteTime",
          "type": "string"
        },
        {
          "internalType": "bool",
          "name": "isVerified",
          "type": "bool"
        }
      ],
      "stateMutability": "view",
      "type": "function",
      "constant": true
    },
    {
      "inputs": [
        {
          "internalType": "string",
          "name": "_name",
          "type": "string"
        },
        {
          "internalType": "string",
          "name": "_party",
          "type": "string"
        }
      ],
      "name": "addCandidate",
      "outputs": [],
      "stateMutability": "nonpayable",
      "type": "function"
    },
    {
      "inputs": [
        {
          "internalType": "string",
          "name": "_personal_id",
          "type": "string"
        },
        {
          "internalType": "string",
          "name": "_email",
          "type": "string"
        },
        {
          "internalType": "string",
          "name": "_name",
          "type": "string"
        },
        {
          "internalType": "string",
          "name": "_surname",
          "type": "string"
        },
        {
          "internalType": "string",
          "name": "_ref",
          "type": "string"
        }
      ],
      "name": "addVoter",
      "outputs": [],
      "stateMutability": "nonpayable",
      "type": "function"
    },
    {
      "inputs": [],
      "name": "getVoter",
      "outputs": [
        {
          "internalType": "string",
          "name": "",
          "type": "string"
        },
        {
          "internalType": "string",
          "name": "",
          "type": "string"
        },
        {
          "internalType": "string",
          "name": "",
          "type": "string"
        },
        {
          "internalType": "string",
          "name": "",
          "type": "string"
        },
        {
          "internalType": "bool",
          "name": "",
          "type": "bool"
        },
        {
          "internalType": "bool",
          "name": "",
          "type": "bool"
        },
        {
          "internalType": "bool",
          "name": "",
          "type": "bool"
        }
      ],
      "stateMutability": "view",
      "type": "function",
      "constant": true
    },
    {
      "inputs": [],
      "name": "isVoter_Registered",
      "outputs": [
        {
          "internalType": "bool",
          "name": "",
          "type": "bool"
        }
      ],
      "stateMutability": "view",
      "type": "function",
      "constant": true
    },
    {
      "inputs": [],
      "name": "random",
      "outputs": [
        {
          "internalType": "uint256",
          "name": "",
          "type": "uint256"
        }
      ],
      "stateMutability": "view",
      "type": "function",
      "constant": true
    },
    {
      "inputs": [],
      "name": "has_Voted",
      "outputs": [
        {
          "internalType": "bool",
          "name": "",
          "type": "bool"
        }
      ],
      "stateMutability": "view",
      "type": "function",
      "constant": true
    },
    {
      "inputs": [
        {
          "internalType": "uint256",
          "name": "_candidateId",
          "type": "uint256"
        },
        {
          "internalType": "string",
          "name": "_date",
          "type": "string"
        },
        {
          "internalType": "string",
          "name": "_time",
          "type": "string"
        }
      ],
      "name": "vote",
      "outputs": [],
      "stateMutability": "nonpayable",
      "type": "function"
    },
    {
      "inputs": [],
      "name": "copyKeys",
      "outputs": [
        {
          "internalType": "string",
          "name": "",
          "type": "string"
        },
        {
          "internalType": "string",
          "name": "",
          "type": "string"
        }
      ],
      "stateMutability": "view",
      "type": "function",
      "constant": true
    },
    {
      "inputs": [
        {
          "internalType": "uint256",
          "name": "_key1",
          "type": "uint256"
        },
        {
          "internalType": "uint256",
          "name": "_key2",
          "type": "uint256"
        }
      ],
      "name": "verifyVote",
      "outputs": [],
      "stateMutability": "nonpayable",
      "type": "function"
    },
    {
      "inputs": [],
      "name": "startElection",
      "outputs": [],
      "stateMutability": "nonpayable",
      "type": "function"
    },
    {
      "inputs": [],
      "name": "changePhase",
      "outputs": [],
      "stateMutability": "nonpayable",
      "type": "function"
    },
    {
      "inputs": [
        {
          "internalType": "string",
          "name": "text",
          "type": "string"
        }
      ],
      "name": "keccak256_encrypt",
      "outputs": [
        {
          "internalType": "bytes32",
          "name": "",
          "type": "bytes32"
        }
      ],
      "stateMutability": "pure",
      "type": "function",
      "constant": true
    },
    {
      "inputs": [],
      "name": "getWinner",
      "outputs": [
        {
          "internalType": "string",
          "name": "",
          "type": "string"
        }
      ],
      "stateMutability": "view",
      "type": "function",
      "constant": true
    },
    {
      "inputs": [
        {
          "internalType": "string",
          "name": "_message",
          "type": "string"
        },
        {
          "internalType": "bytes",
          "name": "_sig",
          "type": "bytes"
        },
        {
          "internalType": "uint256",
          "name": "_nonce",
          "type": "uint256"
        }
      ],
      "name": "verify",
      "outputs": [
        {
          "internalType": "bool",
          "name": "",
          "type": "bool"
        }
      ],
      "stateMutability": "nonpayable",
      "type": "function"
    },
    {
      "inputs": [
        {
          "internalType": "string",
          "name": "sms",
          "type": "string"
        },
        {
          "internalType": "uint256",
          "name": "_nonce",
          "type": "uint256"
        }
      ],
      "name": "getHash",
      "outputs": [
        {
          "internalType": "bytes32",
          "name": "",
          "type": "bytes32"
        }
      ],
      "stateMutability": "pure",
      "type": "function",
      "constant": true
    },
    {
      "inputs": [
        {
          "internalType": "bytes32",
          "name": "sms",
          "type": "bytes32"
        }
      ],
      "name": "getEthSignedHash",
      "outputs": [
        {
          "internalType": "bytes32",
          "name": "",
          "type": "bytes32"
        }
      ],
      "stateMutability": "pure",
      "type": "function",
      "constant": true
    },
    {
      "inputs": [
        {
          "internalType": "bytes32",
          "name": "_ethSignedMessageHash",
          "type": "bytes32"
        },
        {
          "internalType": "bytes",
          "name": "_sig",
          "type": "bytes"
        }
      ],
      "name": "recover",
      "outputs": [
        {
          "internalType": "address",
          "name": "",
          "type": "address"
        }
      ],
      "stateMutability": "pure",
      "type": "function",
      "constant": true
    }
  ],
  "bytecode": "0x60806040526002600855600260095560405180606001604052806040518060400160405280600c81526020017f726567697374726174696f6e000000000000000000000000000000000000000081525081526020016040518060400160405280600681526020017f766f74696e67000000000000000000000000000000000000000000000000000081525081526020016040518060400160405280600781526020017f726573756c747300000000000000000000000000000000000000000000000000815250815250600c906003620000da9291906200017e565b50348015620000e857600080fd5b5033601060006101000a81548173ffffffffffffffffffffffffffffffffffffffff021916908373ffffffffffffffffffffffffffffffffffffffff1602179055506040518060400160405280601881526020017f456c656374696f6e20686173206e6f74207374617274656400000000000000008152506007908051906020019062000177929190620001d8565b506200035b565b8260038101928215620001c5579160200282015b82811115620001c4578251829080519060200190620001b3929190620001d8565b509160200191906001019062000192565b5b509050620001d4919062000269565b5090565b828054620001e690620002f6565b90600052602060002090601f0160209004810192826200020a576000855562000256565b82601f106200022557805160ff191683800117855562000256565b8280016001018555821562000256579182015b828111156200025557825182559160200191906001019062000238565b5b50905062000265919062000291565b5090565b5b808211156200028d5760008181620002839190620002b0565b506001016200026a565b5090565b5b80821115620002ac57600081600090555060010162000292565b5090565b508054620002be90620002f6565b6000825580601f10620002d25750620002f3565b601f016020900490600052602060002090810190620002f2919062000291565b5b50565b600060028204905060018216806200030f57607f821691505b602082108114156200032657620003256200032c565b5b50919050565b7f4e487b7100000000000000000000000000000000000000000000000000000000600052602260045260246000fd5b6152e6806200036b6000396000f3fe608060405234801561001057600080fd5b506004361061014d5760003560e01c80638e7ea5b2116100c3578063c074da241161007c578063c074da2414610399578063d0a6a870146103c9578063d25773b7146103e8578063db6f595314610406578063e3c0327d14610410578063f731d0e9146104435761014d565b80638e7ea5b2146102e757806398b8b43d1461030557806398c0793814610323578063a3bef4d714610341578063b10847591461035f578063b1c9fe6e1461037b5761014d565b80632d35a8a2116101155780632d35a8a21461020e5780632f4ea5ea1461022c5780633477ee2e1461025c5780633fee76dc1461028f5780635ec01e4d146102bf57806362d73eb8146102dd5761014d565b806319045a2514610152578063216f6a6e1461018257806326541b561461019e5780632966e748146101ba5780632b37f53c146101ea575b600080fd5b61016c600480360381019061016791906141dd565b61045f565b6040516101799190614afb565b60405180910390f35b61019c60048036038101906101979190614548565b6104ce565b005b6101b860048036038101906101b391906142f1565b610818565b005b6101d460048036038101906101cf9190614272565b610993565b6040516101e19190614b16565b60405180910390f35b6101f2610b32565b6040516102059796959493929190614c44565b60405180910390f35b610216610f7c565b6040516102239190614e6f565b60405180910390f35b610246600480360381019061024191906141b4565b610f82565b6040516102539190614b31565b60405180910390f35b610276600480360381019061027191906144a0565b610fb2565b6040516102869493929190614e8a565b60405180910390f35b6102a960048036038101906102a49190614231565b6110f2565b6040516102b69190614b31565b60405180910390f35b6102c7611122565b6040516102d49190614e6f565b60405180910390f35b6102e5611157565b005b6102ef61129d565b6040516102fc9190614b91565b60405180910390f35b61030d6113c2565b60405161031a9190614b16565b60405180910390f35b61032b611419565b6040516103389190614e6f565b60405180910390f35b61034961141f565b6040516103569190614e6f565b60405180910390f35b610379600480360381019061037491906144c9565b611425565b005b610383611815565b6040516103909190614b91565b60405180910390f35b6103b360048036038101906103ae919061444c565b6118a3565b6040516103c09190614b31565b60405180910390f35b6103d16118d6565b6040516103df929190614bb3565b60405180910390f35b6103f0611a9d565b6040516103fd9190614b16565b60405180910390f35b61040e611af4565b005b61042a600480360381019061042591906144a0565b611c52565b60405161043a9493929190614bea565b60405180910390f35b61045d6004803603810190610458919061435d565b611e27565b005b60008060008061046e856122b4565b925092509250600186828585604051600081526020016040526040516104979493929190614b4c565b6020604051602081039080840390855afa1580156104b9573d6000803e3d6000fd5b50505060206040510351935050505092915050565b600160003373ffffffffffffffffffffffffffffffffffffffff1673ffffffffffffffffffffffffffffffffffffffff16815260200190815260200160002060060160009054906101000a900460ff1661055d576040517f08c379a000000000000000000000000000000000000000000000000000000000815260040161055490614ccf565b60405180910390fd5b600160003373ffffffffffffffffffffffffffffffffffffffff1673ffffffffffffffffffffffffffffffffffffffff16815260200190815260200160002060010160009054906101000a900460ff166105ec576040517f08c379a00000000000000000000000000000000000000000000000000000000081526004016105e390614cef565b60405180910390fd5b600160003373ffffffffffffffffffffffffffffffffffffffff1673ffffffffffffffffffffffffffffffffffffffff16815260200190815260200160002060080160009054906101000a900460ff161561067c576040517f08c379a000000000000000000000000000000000000000000000000000000000815260040161067390614dcf565b60405180910390fd5b60008061072f600160003373ffffffffffffffffffffffffffffffffffffffff1673ffffffffffffffffffffffffffffffffffffffff168152602001908152602001600020600701547f79be667ef9dcbbac55a06295ce870b07029bfcdb2dce28d959f2815b16f817987f483ada7726a3c4655da4fbfc0e1108a8fd17b448a68554199c47d08ffb10d4b860007ffffffffffffffffffffffffffffffffffffffffffffffffffffffffefffffc2f61231c565b91509150838214801561074157508083145b1561081257600160026000600160003373ffffffffffffffffffffffffffffffffffffffff1673ffffffffffffffffffffffffffffffffffffffff16815260200190815260200160002060090154815260200190815260200160002060030160006101000a81548160ff02191690831515021790555060018060003373ffffffffffffffffffffffffffffffffffffffff1673ffffffffffffffffffffffffffffffffffffffff16815260200190815260200160002060080160006101000a81548160ff0219169083151502179055505b50505050565b601060009054906101000a900473ffffffffffffffffffffffffffffffffffffffff1673ffffffffffffffffffffffffffffffffffffffff163373ffffffffffffffffffffffffffffffffffffffff16146108a8576040517f08c379a000000000000000000000000000000000000000000000000000000000815260040161089f90614e0f565b60405180910390fd5b6000600f5411156108ee576040517f08c379a00000000000000000000000000000000000000000000000000000000081526004016108e590614d4f565b60405180910390fd5b6006600081548092919061090190615127565b91905055506040518060800160405280600654815260200183815260200182815260200160008152506000806006548152602001908152602001600020600082015181600001556020820151816001019080519060200190610964929190613f68565b506040820151816002019080519060200190610981929190613f68565b50606082015181600301559050505050565b6000601060009054906101000a900473ffffffffffffffffffffffffffffffffffffffff1673ffffffffffffffffffffffffffffffffffffffff163373ffffffffffffffffffffffffffffffffffffffff1614610a25576040517f08c379a0000000000000000000000000000000000000000000000000000000008152600401610a1c90614e0f565b60405180910390fd5b6000610a3185846118a3565b90506005600082815260200190815260200160002060009054906101000a900460ff1615610a94576040517f08c379a0000000000000000000000000000000000000000000000000000000008152600401610a8b90614d0f565b60405180910390fd5b6000610a9f82610f82565b905060016005600084815260200190815260200160002060006101000a81548160ff021916908315150217905550601060009054906101000a900473ffffffffffffffffffffffffffffffffffffffff1673ffffffffffffffffffffffffffffffffffffffff16610b10828761045f565b73ffffffffffffffffffffffffffffffffffffffff1614925050509392505050565b6060806060806000806000600160003373ffffffffffffffffffffffffffffffffffffffff1673ffffffffffffffffffffffffffffffffffffffff168152602001908152602001600020600301600160003373ffffffffffffffffffffffffffffffffffffffff1673ffffffffffffffffffffffffffffffffffffffff168152602001908152602001600020600401600160003373ffffffffffffffffffffffffffffffffffffffff1673ffffffffffffffffffffffffffffffffffffffff168152602001908152602001600020600201600160003373ffffffffffffffffffffffffffffffffffffffff1673ffffffffffffffffffffffffffffffffffffffff168152602001908152602001600020600501600160003373ffffffffffffffffffffffffffffffffffffffff1673ffffffffffffffffffffffffffffffffffffffff16815260200190815260200160002060060160009054906101000a900460ff16600160003373ffffffffffffffffffffffffffffffffffffffff1673ffffffffffffffffffffffffffffffffffffffff16815260200190815260200160002060010160009054906101000a900460ff16600160003373ffffffffffffffffffffffffffffffffffffffff1673ffffffffffffffffffffffffffffffffffffffff16815260200190815260200160002060080160009054906101000a900460ff16868054610d41906150f5565b80601f0160208091040260200160405190810160405280929190818152602001828054610d6d906150f5565b8015610dba5780601f10610d8f57610100808354040283529160200191610dba565b820191906000526020600020905b815481529060010190602001808311610d9d57829003601f168201915b50505050509650858054610dcd906150f5565b80601f0160208091040260200160405190810160405280929190818152602001828054610df9906150f5565b8015610e465780601f10610e1b57610100808354040283529160200191610e46565b820191906000526020600020905b815481529060010190602001808311610e2957829003601f168201915b50505050509550848054610e59906150f5565b80601f0160208091040260200160405190810160405280929190818152602001828054610e85906150f5565b8015610ed25780601f10610ea757610100808354040283529160200191610ed2565b820191906000526020600020905b815481529060010190602001808311610eb557829003601f168201915b50505050509450838054610ee5906150f5565b80601f0160208091040260200160405190810160405280929190818152602001828054610f11906150f5565b8015610f5e5780601f10610f3357610100808354040283529160200191610f5e565b820191906000526020600020905b815481529060010190602001808311610f4157829003601f168201915b50505050509350965096509650965096509650965090919293949596565b60065481565b600081604051602001610f959190614a98565b604051602081830303815290604052805190602001209050919050565b6000602052806000526040600020600091509050806000015490806001018054610fdb906150f5565b80601f0160208091040260200160405190810160405280929190818152602001828054611007906150f5565b80156110545780601f1061102957610100808354040283529160200191611054565b820191906000526020600020905b81548152906001019060200180831161103757829003601f168201915b505050505090806002018054611069906150f5565b80601f0160208091040260200160405190810160405280929190818152602001828054611095906150f5565b80156110e25780601f106110b7576101008083540402835291602001916110e2565b820191906000526020600020905b8154815290600101906020018083116110c557829003601f168201915b5050505050908060030154905084565b6000816040516020016111059190614b91565b604051602081830303815290604052805190602001209050919050565b600042333060405160200161113993929190614abe565b6040516020818303038152906040528051906020012060001c905090565b601060009054906101000a900473ffffffffffffffffffffffffffffffffffffffff1673ffffffffffffffffffffffffffffffffffffffff163373ffffffffffffffffffffffffffffffffffffffff16146111e7576040517f08c379a00000000000000000000000000000000000000000000000000000000081526004016111de90614e0f565b60405180910390fd5b6001600f54141580156111fd57506002600f5414155b61123c576040517f08c379a000000000000000000000000000000000000000000000000000000000815260040161123390614d2f565b60405180910390fd5b6000600f81905550600c600f5460038110611280577f4e487b7100000000000000000000000000000000000000000000000000000000600052603260045260246000fd5b01600790805461128f906150f5565b61129a929190613fee565b50565b60606000600190506000806000600181526020019081526020016000206003015490506000600290505b600654811161131c5781600080838152602001908152602001600020600301541115611309578092506000808281526020019081526020016000206003015491505b808061131490615127565b9150506112c7565b50600080838152602001908152602001600020600101805461133d906150f5565b80601f0160208091040260200160405190810160405280929190818152602001828054611369906150f5565b80156113b65780601f1061138b576101008083540402835291602001916113b6565b820191906000526020600020905b81548152906001019060200180831161139957829003601f168201915b50505050509250505090565b6000600160003373ffffffffffffffffffffffffffffffffffffffff1673ffffffffffffffffffffffffffffffffffffffff16815260200190815260200160002060010160009054906101000a900460ff16905090565b600a5481565b600b5481565b600160003373ffffffffffffffffffffffffffffffffffffffff1673ffffffffffffffffffffffffffffffffffffffff16815260200190815260200160002060060160009054906101000a900460ff166114b4576040517f08c379a00000000000000000000000000000000000000000000000000000000081526004016114ab90614ccf565b60405180910390fd5b600160003373ffffffffffffffffffffffffffffffffffffffff1673ffffffffffffffffffffffffffffffffffffffff16815260200190815260200160002060010160009054906101000a900460ff1615611544576040517f08c379a000000000000000000000000000000000000000000000000000000000815260040161153b90614cef565b60405180910390fd5b60008311801561155657506006548311155b61155f57600080fd5b60018060003373ffffffffffffffffffffffffffffffffffffffff1673ffffffffffffffffffffffffffffffffffffffff16815260200190815260200160002060010160006101000a81548160ff02191690831515021790555060008084815260200190815260200160002060030160008154809291906115df90615127565b91905055506115ec611122565b600160003373ffffffffffffffffffffffffffffffffffffffff1673ffffffffffffffffffffffffffffffffffffffff168152602001908152602001600020600701819055506040518060800160405280600160003373ffffffffffffffffffffffffffffffffffffffff1673ffffffffffffffffffffffffffffffffffffffff168152602001908152602001600020600501805461168a906150f5565b80601f01602080910402602001604051908101604052809291908181526020018280546116b6906150f5565b80156117035780601f106116d857610100808354040283529160200191611703565b820191906000526020600020905b8154815290600101906020018083116116e657829003601f168201915b505050505081526020018381526020018281526020016000151581525060026000600b5481526020019081526020016000206000820151816000019080519060200190611751929190613f68565b50602082015181600101908051906020019061176e929190613f68565b50604082015181600201908051906020019061178b929190613f68565b5060608201518160030160006101000a81548160ff021916908315150217905550905050600b54600160003373ffffffffffffffffffffffffffffffffffffffff1673ffffffffffffffffffffffffffffffffffffffff16815260200190815260200160002060090181905550600b600081548092919061180b90615127565b9190505550505050565b60078054611822906150f5565b80601f016020809104026020016040519081016040528092919081815260200182805461184e906150f5565b801561189b5780601f106118705761010080835404028352916020019161189b565b820191906000526020600020905b81548152906001019060200180831161187e57829003601f168201915b505050505081565b600082826040516020016118b8929190614a70565b60405160208183030381529060405280519060200120905092915050565b60608060008061198c600160003373ffffffffffffffffffffffffffffffffffffffff1673ffffffffffffffffffffffffffffffffffffffff168152602001908152602001600020600701547f79be667ef9dcbbac55a06295ce870b07029bfcdb2dce28d959f2815b16f817987f483ada7726a3c4655da4fbfc0e1108a8fd17b448a68554199c47d08ffb10d4b860007ffffffffffffffffffffffffffffffffffffffffffffffffffffffffefffffc2f61231c565b915091505b6119c08282600060077ffffffffffffffffffffffffffffffffffffffffffffffffffffffffefffffc2f612356565b611a8157611a74600160003373ffffffffffffffffffffffffffffffffffffffff1673ffffffffffffffffffffffffffffffffffffffff168152602001908152602001600020600701547f79be667ef9dcbbac55a06295ce870b07029bfcdb2dce28d959f2815b16f817987f483ada7726a3c4655da4fbfc0e1108a8fd17b448a68554199c47d08ffb10d4b860007ffffffffffffffffffffffffffffffffffffffffffffffffffffffffefffffc2f61231c565b8092508193505050611991565b611a8a82612508565b611a9382612508565b9350935050509091565b6000600160003373ffffffffffffffffffffffffffffffffffffffff1673ffffffffffffffffffffffffffffffffffffffff16815260200190815260200160002060060160009054906101000a900460ff16905090565b601060009054906101000a900473ffffffffffffffffffffffffffffffffffffffff1673ffffffffffffffffffffffffffffffffffffffff163373ffffffffffffffffffffffffffffffffffffffff1614611b84576040517f08c379a0000000000000000000000000000000000000000000000000000000008152600401611b7b90614e0f565b60405180910390fd5b600f6000815480929190611b9790615127565b91905055506003600f541015611c0357600c600f5460038110611be3577f4e487b7100000000000000000000000000000000000000000000000000000000600052603260045260246000fd5b016007908054611bf2906150f5565b611bfd929190613fee565b50611c50565b6040518060400160405280600e81526020017f456c656374696f6e20656e64656400000000000000000000000000000000000081525060079080519060200190611c4e929190613f68565b505b565b6002602052806000526040600020600091509050806000018054611c75906150f5565b80601f0160208091040260200160405190810160405280929190818152602001828054611ca1906150f5565b8015611cee5780601f10611cc357610100808354040283529160200191611cee565b820191906000526020600020905b815481529060010190602001808311611cd157829003601f168201915b505050505090806001018054611d03906150f5565b80601f0160208091040260200160405190810160405280929190818152602001828054611d2f906150f5565b8015611d7c5780601f10611d5157610100808354040283529160200191611d7c565b820191906000526020600020905b815481529060010190602001808311611d5f57829003601f168201915b505050505090806002018054611d91906150f5565b80601f0160208091040260200160405190810160405280929190818152602001828054611dbd906150f5565b8015611e0a5780601f10611ddf57610100808354040283529160200191611e0a565b820191906000526020600020905b815481529060010190602001808311611ded57829003601f168201915b5050505050908060030160009054906101000a900460ff16905084565b601060009054906101000a900473ffffffffffffffffffffffffffffffffffffffff1673ffffffffffffffffffffffffffffffffffffffff163373ffffffffffffffffffffffffffffffffffffffff161415611eb8576040517f08c379a0000000000000000000000000000000000000000000000000000000008152600401611eaf90614daf565b60405180910390fd5b60003390506000611ec8876110f2565b90506000600160008473ffffffffffffffffffffffffffffffffffffffff1673ffffffffffffffffffffffffffffffffffffffff16815260200190815260200160002090508060060160009054906101000a900460ff1615611f5f576040517f08c379a0000000000000000000000000000000000000000000000000000000008152600401611f5690614d8f565b60405180910390fd5b600073ffffffffffffffffffffffffffffffffffffffff166003600084815260200190815260200160002060009054906101000a900473ffffffffffffffffffffffffffffffffffffffff1673ffffffffffffffffffffffffffffffffffffffff1614612001576040517f08c379a0000000000000000000000000000000000000000000000000000000008152600401611ff890614def565b60405180910390fd5b8260046000600a54815260200190815260200160002060006101000a81548173ffffffffffffffffffffffffffffffffffffffff021916908373ffffffffffffffffffffffffffffffffffffffff1602179055506040518061016001604052808381526020016000151581526020018473ffffffffffffffffffffffffffffffffffffffff168152602001888152602001878152602001868152602001858152602001600115158152602001600081526020016000151581526020016000815250600160008573ffffffffffffffffffffffffffffffffffffffff1673ffffffffffffffffffffffffffffffffffffffff1681526020019081526020016000206000820151816000015560208201518160010160006101000a81548160ff02191690831515021790555060408201518160010160016101000a81548173ffffffffffffffffffffffffffffffffffffffff021916908373ffffffffffffffffffffffffffffffffffffffff160217905550606082015181600201908051906020019061218e929190613f68565b5060808201518160030190805190602001906121ab929190613f68565b5060a08201518160040190805190602001906121c8929190613f68565b5060c08201518160050190805190602001906121e5929190613f68565b5060e08201518160060160006101000a81548160ff02191690831515021790555061010082015181600701556101208201518160080160006101000a81548160ff0219169083151502179055506101408201518160090155905050826003600084815260200190815260200160002060006101000a81548173ffffffffffffffffffffffffffffffffffffffff021916908373ffffffffffffffffffffffffffffffffffffffff160217905550600a60008154809291906122a590615127565b91905055505050505050505050565b600080600060418451146122fd576040517f08c379a00000000000000000000000000000000000000000000000000000000081526004016122f490614e2f565b60405180910390fd5b6020840151925060408401519150606084015160001a90509193909250565b60008060008060006123338a8a8a60018b8b61262c565b925092509250612345838383896126cc565b945094505050509550959350505050565b600085600014806123675750818610155b806123725750846000145b8061237d5750818510155b1561238b57600090506124ff565b600082806123c2577f4e487b7100000000000000000000000000000000000000000000000000000000600052601260045260246000fd5b8687099050600083806123fe577f4e487b7100000000000000000000000000000000000000000000000000000000600052601260045260246000fd5b888580612434577f4e487b7100000000000000000000000000000000000000000000000000000000600052601260045260246000fd5b8a8b09099050600086146124b4578380612477577f4e487b7100000000000000000000000000000000000000000000000000000000600052601260045260246000fd5b84806124ac577f4e487b7100000000000000000000000000000000000000000000000000000000600052601260045260246000fd5b878a09820890505b600085146124f75783806124f1577f4e487b7100000000000000000000000000000000000000000000000000000000600052601260045260246000fd5b85820890505b808214925050505b95945050505050565b606060006001612517846127db565b01905060008167ffffffffffffffff81111561255c577f4e487b7100000000000000000000000000000000000000000000000000000000600052604160045260246000fd5b6040519080825280601f01601f19166020018201604052801561258e5781602001600182028036833780820191505090505b509050600082602001820190505b600115612621578080600190039150507f3031323334353637383961626364656600000000000000000000000000000000600a86061a8153600a858161260b577f4e487b7100000000000000000000000000000000000000000000000000000000600052601260045260246000fd5b049450600085141561261c57612621565b61259c565b819350505050919050565b600080600080891415612647578787879250925092506126c0565b60008990506000806000600190505b600084146126b25760006001851614612685576126788383838f8f8f8e612a12565b8093508194508295505050505b6002846126929190614f95565b93506126a18c8c8c8c8c61399f565b809c50819d50829e50505050612656565b828282965096509650505050505b96509650969350505050565b60008060006126db8585613e30565b905060008480612714577f4e487b7100000000000000000000000000000000000000000000000000000000600052601260045260246000fd5b828309905060008580612750577f4e487b7100000000000000000000000000000000000000000000000000000000600052601260045260246000fd5b828a0990506000868061278c577f4e487b7100000000000000000000000000000000000000000000000000000000600052601260045260246000fd5b87806127c1577f4e487b7100000000000000000000000000000000000000000000000000000000600052601260045260246000fd5b8486098a0990508181955095505050505094509492505050565b600080600090507a184f03e93ff9f4daa797ed6e38ed64bf6a1f010000000000000000831061285f577a184f03e93ff9f4daa797ed6e38ed64bf6a1f0100000000000000008381612855577f4e487b7100000000000000000000000000000000000000000000000000000000600052601260045260246000fd5b0492506040810190505b6d04ee2d6d415b85acef810000000083106128c2576d04ee2d6d415b85acef810000000083816128b8577f4e487b7100000000000000000000000000000000000000000000000000000000600052601260045260246000fd5b0492506020810190505b662386f26fc10000831061291757662386f26fc10000838161290d577f4e487b7100000000000000000000000000000000000000000000000000000000600052601260045260246000fd5b0492506010810190505b6305f5e1008310612966576305f5e100838161295c577f4e487b7100000000000000000000000000000000000000000000000000000000600052601260045260246000fd5b0492506008810190505b61271083106129b15761271083816129a7577f4e487b7100000000000000000000000000000000000000000000000000000000600052601260045260246000fd5b0492506004810190505b606483106129fa57606483816129f0577f4e487b7100000000000000000000000000000000000000000000000000000000600052601260045260246000fd5b0492506002810190505b600a8310612a09576001810190505b80915050919050565b6000806000808a148015612a265750600089145b15612a3957868686925092509250613992565b600087148015612a495750600086145b15612a5c57898989925092509250613992565b612a6461407b565b8480612a99577f4e487b7100000000000000000000000000000000000000000000000000000000600052601260045260246000fd5b898a0981600060048110612ad6577f4e487b7100000000000000000000000000000000000000000000000000000000600052603260045260246000fd5b6020020181815250508480612b14577f4e487b7100000000000000000000000000000000000000000000000000000000600052601260045260246000fd5b81600060048110612b4e577f4e487b7100000000000000000000000000000000000000000000000000000000600052603260045260246000fd5b60200201518a0981600160048110612b8f577f4e487b7100000000000000000000000000000000000000000000000000000000600052603260045260246000fd5b6020020181815250508480612bcd577f4e487b7100000000000000000000000000000000000000000000000000000000600052601260045260246000fd5b86870981600260048110612c0a577f4e487b7100000000000000000000000000000000000000000000000000000000600052603260045260246000fd5b6020020181815250508480612c48577f4e487b7100000000000000000000000000000000000000000000000000000000600052601260045260246000fd5b81600260048110612c82577f4e487b7100000000000000000000000000000000000000000000000000000000600052603260045260246000fd5b6020020151870981600360048110612cc3577f4e487b7100000000000000000000000000000000000000000000000000000000600052603260045260246000fd5b60200201818152505060405180608001604052808680612d0c577f4e487b7100000000000000000000000000000000000000000000000000000000600052601260045260246000fd5b83600260048110612d46577f4e487b7100000000000000000000000000000000000000000000000000000000600052603260045260246000fd5b60200201518e0981526020018680612d87577f4e487b7100000000000000000000000000000000000000000000000000000000600052601260045260246000fd5b83600360048110612dc1577f4e487b7100000000000000000000000000000000000000000000000000000000600052603260045260246000fd5b60200201518d0981526020018680612e02577f4e487b7100000000000000000000000000000000000000000000000000000000600052601260045260246000fd5b83600060048110612e3c577f4e487b7100000000000000000000000000000000000000000000000000000000600052603260045260246000fd5b60200201518b0981526020018680612e7d577f4e487b7100000000000000000000000000000000000000000000000000000000600052601260045260246000fd5b83600160048110612eb7577f4e487b7100000000000000000000000000000000000000000000000000000000600052603260045260246000fd5b60200201518a09815250905080600260048110612efd577f4e487b7100000000000000000000000000000000000000000000000000000000600052603260045260246000fd5b602002015181600060048110612f3c577f4e487b7100000000000000000000000000000000000000000000000000000000600052603260045260246000fd5b6020020151141580612fca575080600360048110612f83577f4e487b7100000000000000000000000000000000000000000000000000000000600052603260045260246000fd5b602002015181600160048110612fc2577f4e487b7100000000000000000000000000000000000000000000000000000000600052603260045260246000fd5b602002015114155b613009576040517f08c379a000000000000000000000000000000000000000000000000000000000815260040161300090614d6f565b60405180910390fd5b61301161407b565b8580613046577f4e487b7100000000000000000000000000000000000000000000000000000000600052601260045260246000fd5b82600060048110613080577f4e487b7100000000000000000000000000000000000000000000000000000000600052603260045260246000fd5b6020020151876130909190615020565b836002600481106130ca577f4e487b7100000000000000000000000000000000000000000000000000000000600052603260045260246000fd5b6020020151088160006004811061310a577f4e487b7100000000000000000000000000000000000000000000000000000000600052603260045260246000fd5b6020020181815250508580613148577f4e487b7100000000000000000000000000000000000000000000000000000000600052601260045260246000fd5b82600160048110613182577f4e487b7100000000000000000000000000000000000000000000000000000000600052603260045260246000fd5b6020020151876131929190615020565b836003600481106131cc577f4e487b7100000000000000000000000000000000000000000000000000000000600052603260045260246000fd5b6020020151088160016004811061320c577f4e487b7100000000000000000000000000000000000000000000000000000000600052603260045260246000fd5b602002018181525050858061324a577f4e487b7100000000000000000000000000000000000000000000000000000000600052601260045260246000fd5b81600060048110613284577f4e487b7100000000000000000000000000000000000000000000000000000000600052603260045260246000fd5b6020020151826000600481106132c3577f4e487b7100000000000000000000000000000000000000000000000000000000600052603260045260246000fd5b60200201510981600260048110613303577f4e487b7100000000000000000000000000000000000000000000000000000000600052603260045260246000fd5b6020020181815250508580613341577f4e487b7100000000000000000000000000000000000000000000000000000000600052601260045260246000fd5b8160006004811061337b577f4e487b7100000000000000000000000000000000000000000000000000000000600052603260045260246000fd5b6020020151826002600481106133ba577f4e487b7100000000000000000000000000000000000000000000000000000000600052603260045260246000fd5b602002015109816003600481106133fa577f4e487b7100000000000000000000000000000000000000000000000000000000600052603260045260246000fd5b6020020181815250506000868061343a577f4e487b7100000000000000000000000000000000000000000000000000000000600052601260045260246000fd5b82600360048110613474577f4e487b7100000000000000000000000000000000000000000000000000000000600052603260045260246000fd5b6020020151886134849190615020565b88806134b9577f4e487b7100000000000000000000000000000000000000000000000000000000600052601260045260246000fd5b846001600481106134f3577f4e487b7100000000000000000000000000000000000000000000000000000000600052603260045260246000fd5b602002015185600160048110613532577f4e487b7100000000000000000000000000000000000000000000000000000000600052603260045260246000fd5b6020020151090890508680613570577f4e487b7100000000000000000000000000000000000000000000000000000000600052601260045260246000fd5b87806135a5577f4e487b7100000000000000000000000000000000000000000000000000000000600052601260045260246000fd5b88806135da577f4e487b7100000000000000000000000000000000000000000000000000000000600052601260045260246000fd5b84600260048110613614577f4e487b7100000000000000000000000000000000000000000000000000000000600052603260045260246000fd5b602002015186600060048110613653577f4e487b7100000000000000000000000000000000000000000000000000000000600052603260045260246000fd5b602002015109600209886136679190615020565b82089050600087806136a2577f4e487b7100000000000000000000000000000000000000000000000000000000600052601260045260246000fd5b88806136d7577f4e487b7100000000000000000000000000000000000000000000000000000000600052601260045260246000fd5b838a6136e39190615020565b8a80613718577f4e487b7100000000000000000000000000000000000000000000000000000000600052601260045260246000fd5b86600260048110613752577f4e487b7100000000000000000000000000000000000000000000000000000000600052603260045260246000fd5b602002015188600060048110613791577f4e487b7100000000000000000000000000000000000000000000000000000000600052603260045260246000fd5b60200201510908846001600481106137d2577f4e487b7100000000000000000000000000000000000000000000000000000000600052603260045260246000fd5b6020020151099050878061380f577f4e487b7100000000000000000000000000000000000000000000000000000000600052601260045260246000fd5b8880613844577f4e487b7100000000000000000000000000000000000000000000000000000000600052601260045260246000fd5b8460036004811061387e577f4e487b7100000000000000000000000000000000000000000000000000000000600052603260045260246000fd5b6020020151866001600481106138bd577f4e487b7100000000000000000000000000000000000000000000000000000000600052603260045260246000fd5b602002015109896138ce9190615020565b8208905060008880613909577f4e487b7100000000000000000000000000000000000000000000000000000000600052601260045260246000fd5b898061393e577f4e487b7100000000000000000000000000000000000000000000000000000000600052601260045260246000fd5b8b8f098560006004811061397b577f4e487b7100000000000000000000000000000000000000000000000000000000600052603260045260246000fd5b602002015109905082828297509750975050505050505b9750975097945050505050565b6000806000808614156139ba57878787925092509250613e25565b600084806139f1577f4e487b7100000000000000000000000000000000000000000000000000000000600052601260045260246000fd5b898a09905060008580613a2d577f4e487b7100000000000000000000000000000000000000000000000000000000600052601260045260246000fd5b898a09905060008680613a69577f4e487b7100000000000000000000000000000000000000000000000000000000600052601260045260246000fd5b898a09905060008780613aa5577f4e487b7100000000000000000000000000000000000000000000000000000000600052601260045260246000fd5b8880613ada577f4e487b7100000000000000000000000000000000000000000000000000000000600052601260045260246000fd5b848e09600409905060008880613b19577f4e487b7100000000000000000000000000000000000000000000000000000000600052601260045260246000fd5b8980613b4e577f4e487b7100000000000000000000000000000000000000000000000000000000600052601260045260246000fd5b8a80613b83577f4e487b7100000000000000000000000000000000000000000000000000000000600052601260045260246000fd5b8586098c098a80613bbd577f4e487b7100000000000000000000000000000000000000000000000000000000600052601260045260246000fd5b876003090890508880613bf9577f4e487b7100000000000000000000000000000000000000000000000000000000600052601260045260246000fd5b8980613c2e577f4e487b7100000000000000000000000000000000000000000000000000000000600052601260045260246000fd5b8384088a613c3c9190615020565b8a80613c71577f4e487b7100000000000000000000000000000000000000000000000000000000600052601260045260246000fd5b8384090894508880613cac577f4e487b7100000000000000000000000000000000000000000000000000000000600052601260045260246000fd5b8980613ce1577f4e487b7100000000000000000000000000000000000000000000000000000000600052601260045260246000fd5b8a80613d16577f4e487b7100000000000000000000000000000000000000000000000000000000600052601260045260246000fd5b8687096008098a613d279190615020565b8a80613d5c577f4e487b7100000000000000000000000000000000000000000000000000000000600052601260045260246000fd5b8b80613d91577f4e487b7100000000000000000000000000000000000000000000000000000000600052601260045260246000fd5b888d613d9d9190615020565b860884090893508880613dd9577f4e487b7100000000000000000000000000000000000000000000000000000000600052601260045260246000fd5b8980613e0e577f4e487b7100000000000000000000000000000000000000000000000000000000600052601260045260246000fd5b8c8e09600209925084848497509750975050505050505b955095509592505050565b6000808314158015613e425750818314155b8015613e4f575060008214155b613e8e576040517f08c379a0000000000000000000000000000000000000000000000000000000008152600401613e8590614e4f565b60405180910390fd5b60008060019050600084905060005b60008714613f5b578682613eb19190614f95565b9050828680613ee9577f4e487b7100000000000000000000000000000000000000000000000000000000600052601260045260246000fd5b8780613f1e577f4e487b7100000000000000000000000000000000000000000000000000000000600052601260045260246000fd5b85840988613f2c9190615020565b86088094508195505050868782613f439190614fc6565b83613f4e9190615020565b8098508193505050613e9d565b8394505050505092915050565b828054613f74906150f5565b90600052602060002090601f016020900481019282613f965760008555613fdd565b82601f10613faf57805160ff1916838001178555613fdd565b82800160010185558215613fdd579182015b82811115613fdc578251825591602001919060010190613fc1565b5b509050613fea919061409d565b5090565b828054613ffa906150f5565b90600052602060002090601f01602090048101928261401c576000855561406a565b82601f1061402d578054855561406a565b8280016001018555821561406a57600052602060002091601f016020900482015b8281111561406957825482559160010191906001019061404e565b5b509050614077919061409d565b5090565b6040518060800160405280600490602082028036833780820191505090505090565b5b808211156140b657600081600090555060010161409e565b5090565b60006140cd6140c884614f0e565b614edd565b9050828152602081018484840111156140e557600080fd5b6140f08482856150b3565b509392505050565b600061410b61410684614f3e565b614edd565b90508281526020810184848401111561412357600080fd5b61412e8482856150b3565b509392505050565b60008135905061414581615282565b92915050565b600082601f83011261415c57600080fd5b813561416c8482602086016140ba565b91505092915050565b600082601f83011261418657600080fd5b81356141968482602086016140f8565b91505092915050565b6000813590506141ae81615299565b92915050565b6000602082840312156141c657600080fd5b60006141d484828501614136565b91505092915050565b600080604083850312156141f057600080fd5b60006141fe85828601614136565b925050602083013567ffffffffffffffff81111561421b57600080fd5b6142278582860161414b565b9150509250929050565b60006020828403121561424357600080fd5b600082013567ffffffffffffffff81111561425d57600080fd5b61426984828501614175565b91505092915050565b60008060006060848603121561428757600080fd5b600084013567ffffffffffffffff8111156142a157600080fd5b6142ad86828701614175565b935050602084013567ffffffffffffffff8111156142ca57600080fd5b6142d68682870161414b565b92505060406142e78682870161419f565b9150509250925092565b6000806040838503121561430457600080fd5b600083013567ffffffffffffffff81111561431e57600080fd5b61432a85828601614175565b925050602083013567ffffffffffffffff81111561434757600080fd5b61435385828601614175565b9150509250929050565b600080600080600060a0868803121561437557600080fd5b600086013567ffffffffffffffff81111561438f57600080fd5b61439b88828901614175565b955050602086013567ffffffffffffffff8111156143b857600080fd5b6143c488828901614175565b945050604086013567ffffffffffffffff8111156143e157600080fd5b6143ed88828901614175565b935050606086013567ffffffffffffffff81111561440a57600080fd5b61441688828901614175565b925050608086013567ffffffffffffffff81111561443357600080fd5b61443f88828901614175565b9150509295509295909350565b6000806040838503121561445f57600080fd5b600083013567ffffffffffffffff81111561447957600080fd5b61448585828601614175565b92505060206144968582860161419f565b9150509250929050565b6000602082840312156144b257600080fd5b60006144c08482850161419f565b91505092915050565b6000806000606084860312156144de57600080fd5b60006144ec8682870161419f565b935050602084013567ffffffffffffffff81111561450957600080fd5b61451586828701614175565b925050604084013567ffffffffffffffff81111561453257600080fd5b61453e86828701614175565b9150509250925092565b6000806040838503121561455b57600080fd5b60006145698582860161419f565b925050602061457a8582860161419f565b9150509250929050565b61458d81615054565b82525050565b6145a461459f82615054565b615170565b82525050565b6145b381615066565b82525050565b6145c281615072565b82525050565b6145d96145d482615072565b615182565b82525050565b60006145ea82614f6e565b6145f48185614f79565b93506146048185602086016150c2565b61460d81615264565b840191505092915050565b600061462382614f6e565b61462d8185614f8a565b935061463d8185602086016150c2565b80840191505092915050565b6000614656601e83614f79565b91507f4f6e6c7920726567697374657265642075736572732063616e20766f746500006000830152602082019050919050565b6000614696600d83614f79565b91507f416c726561647920566f746564000000000000000000000000000000000000006000830152602082019050919050565b60006146d6601c83614f8a565b91507f19457468657265756d205369676e6564204d6573736167653a0a3332000000006000830152601c82019050919050565b6000614716601183614f79565b91507f486173206265656e2065786563757465640000000000000000000000000000006000830152602082019050919050565b6000614756601283614f79565b91507f566f74696e6720696e2070726f677265737300000000000000000000000000006000830152602082019050919050565b6000614796602b83614f79565b91507f43616e6e6f74206164642063616e6469646174657320647572696e6720766f7460008301527f696e672070726f636573730000000000000000000000000000000000000000006020830152604082019050919050565b60006147fc601e83614f79565b91507f557365206a6163446f75626c652066756e6374696f6e20696e737465616400006000830152602082019050919050565b600061483c602183614f79565b91507f546865207075626c6963206164647265737320616c726561647920696e20757360008301527f65000000000000000000000000000000000000000000000000000000000000006020830152604082019050919050565b60006148a2601583614f79565b91507f41646d696e2043616e6e6f7420726567697374657200000000000000000000006000830152602082019050919050565b60006148e2601383614f79565b91507f566f74657220616c726561647920766f746564000000000000000000000000006000830152602082019050919050565b6000614922601a83614f79565b91507f506572736f6e616c20494420616c726561647920696e207573650000000000006000830152602082019050919050565b6000614962602483614f79565b91507f4f6e6c792041646d696e2063616e20706572666f726d20746869732066756e6360008301527f74696f6e000000000000000000000000000000000000000000000000000000006020830152604082019050919050565b60006149c8601883614f79565b91507f696e76616c6964207369676e6174757265206c656e67746800000000000000006000830152602082019050919050565b6000614a08600e83614f79565b91507f496e76616c6964206e756d6265720000000000000000000000000000000000006000830152602082019050919050565b614a448161509c565b82525050565b614a5b614a568261509c565b61519e565b82525050565b614a6a816150a6565b82525050565b6000614a7c8285614618565b9150614a888284614a4a565b6020820191508190509392505050565b6000614aa3826146c9565b9150614aaf82846145c8565b60208201915081905092915050565b6000614aca8286614a4a565b602082019150614ada8285614593565b601482019150614aea8284614593565b601482019150819050949350505050565b6000602082019050614b106000830184614584565b92915050565b6000602082019050614b2b60008301846145aa565b92915050565b6000602082019050614b4660008301846145b9565b92915050565b6000608082019050614b6160008301876145b9565b614b6e6020830186614a61565b614b7b60408301856145b9565b614b8860608301846145b9565b95945050505050565b60006020820190508181036000830152614bab81846145df565b905092915050565b60006040820190508181036000830152614bcd81856145df565b90508181036020830152614be181846145df565b90509392505050565b60006080820190508181036000830152614c0481876145df565b90508181036020830152614c1881866145df565b90508181036040830152614c2c81856145df565b9050614c3b60608301846145aa565b95945050505050565b600060e0820190508181036000830152614c5e818a6145df565b90508181036020830152614c7281896145df565b90508181036040830152614c8681886145df565b90508181036060830152614c9a81876145df565b9050614ca960808301866145aa565b614cb660a08301856145aa565b614cc360c08301846145aa565b98975050505050505050565b60006020820190508181036000830152614ce881614649565b9050919050565b60006020820190508181036000830152614d0881614689565b9050919050565b60006020820190508181036000830152614d2881614709565b9050919050565b60006020820190508181036000830152614d4881614749565b9050919050565b60006020820190508181036000830152614d6881614789565b9050919050565b60006020820190508181036000830152614d88816147ef565b9050919050565b60006020820190508181036000830152614da88161482f565b9050919050565b60006020820190508181036000830152614dc881614895565b9050919050565b60006020820190508181036000830152614de8816148d5565b9050919050565b60006020820190508181036000830152614e0881614915565b9050919050565b60006020820190508181036000830152614e2881614955565b9050919050565b60006020820190508181036000830152614e48816149bb565b9050919050565b60006020820190508181036000830152614e68816149fb565b9050919050565b6000602082019050614e846000830184614a3b565b92915050565b6000608082019050614e9f6000830187614a3b565b8181036020830152614eb181866145df565b90508181036040830152614ec581856145df565b9050614ed46060830184614a3b565b95945050505050565b6000604051905081810181811067ffffffffffffffff82111715614f0457614f03615235565b5b8060405250919050565b600067ffffffffffffffff821115614f2957614f28615235565b5b601f19601f8301169050602081019050919050565b600067ffffffffffffffff821115614f5957614f58615235565b5b601f19601f8301169050602081019050919050565b600081519050919050565b600082825260208201905092915050565b600081905092915050565b6000614fa08261509c565b9150614fab8361509c565b925082614fbb57614fba6151d7565b5b828204905092915050565b6000614fd18261509c565b9150614fdc8361509c565b9250817fffffffffffffffffffffffffffffffffffffffffffffffffffffffffffffffff0483118215151615615015576150146151a8565b5b828202905092915050565b600061502b8261509c565b91506150368361509c565b925082821015615049576150486151a8565b5b828203905092915050565b600061505f8261507c565b9050919050565b60008115159050919050565b6000819050919050565b600073ffffffffffffffffffffffffffffffffffffffff82169050919050565b6000819050919050565b600060ff82169050919050565b82818337600083830152505050565b60005b838110156150e05780820151818401526020810190506150c5565b838111156150ef576000848401525b50505050565b6000600282049050600182168061510d57607f821691505b6020821081141561512157615120615206565b5b50919050565b60006151328261509c565b91507fffffffffffffffffffffffffffffffffffffffffffffffffffffffffffffffff821415615165576151646151a8565b5b600182019050919050565b600061517b8261518c565b9050919050565b6000819050919050565b600061519782615275565b9050919050565b6000819050919050565b7f4e487b7100000000000000000000000000000000000000000000000000000000600052601160045260246000fd5b7f4e487b7100000000000000000000000000000000000000000000000000000000600052601260045260246000fd5b7f4e487b7100000000000000000000000000000000000000000000000000000000600052602260045260246000fd5b7f4e487b7100000000000000000000000000000000000000000000000000000000600052604160045260246000fd5b6000601f19601f8301169050919050565b60008160601b9050919050565b61528b81615072565b811461529657600080fd5b50565b6152a28161509c565b81146152ad57600080fd5b5056fea2646970667358221220533af999365919aad602327d876d10612aba6536ec2d6772ba760f99de5f6d7264736f6c63430008000033",
  "immutableReferences": {},
  "source": "// SPDX-License-Identifier: MIT \r\npragma solidity  ^0.8.0;\r\nimport \"./EllipticCurve.sol\";\r\nimport \"@openzeppelin/contracts/utils/Strings.sol\";\r\n\r\n\r\n\r\ncontract Election { \r\n\r\n    struct voter {\r\n        bytes32 personal_id; //their personal id\r\n        bool hasVoted; //have they voted\r\n        address public_Address; //public address to wallet\r\n        string email; //email address for communication\r\n        string name; //name of voter \r\n        string surname; \r\n        string refNUm; \r\n        bool isRegistered;\r\n        uint256 PrivateKey;\r\n        bool  isVerifiedUser;\r\n        uint position;\r\n    }\r\n \r\n    struct votingRecords{\r\n        string ref;\r\n        string voteDate;\r\n        string voteTime;\r\n        bool isVerified;\r\n    }\r\n\r\n    \r\n\r\n\r\n     // Model a Candidate\r\n    struct Candidate {\r\n        uint id;\r\n        string name;\r\n        string party;\r\n        uint voteCount;\r\n    }\r\n    //ECC CONSTANTS - SECPTIC256\r\n    uint256 private constant GX = 0x79BE667EF9DCBBAC55A06295CE870B07029BFCDB2DCE28D959F2815B16F81798;\r\n    uint256 private constant GY = 0x483ADA7726A3C4655DA4FBFC0E1108A8FD17B448A68554199C47D08FFB10D4B8;\r\n    uint256 private constant AA = 0;\r\n    uint256 private constant BB = 7;\r\n    uint256 private constant PP = 0xFFFFFFFFFFFFFFFFFFFFFFFFFFFFFFFFFFFFFFFFFFFFFFFFFFFFFFFEFFFFFC2F;\r\n\r\n    // Read/write candidate\r\n    mapping(uint => Candidate) public candidates;\r\n\r\n    // Store accounts that have voted\r\n    mapping(address => voter) private voters;\r\n\r\n    mapping(uint => votingRecords) public votingTrails;\r\n\r\n    // Stores encyrted ID'S\r\n    mapping(bytes32 => address) private verifier;\r\n    mapping(uint => address) private recorder;\r\n\r\n    mapping(bytes32 => bool) private adminSignatures; //saves history of Admin signature to curb Signature Replay Attack\r\n\r\n\r\n    // Store Candidates Count\r\n    uint public candidatesCount;\r\n\r\n    // Stores Election phase\r\n    string public phase;\r\n\r\n    uint private minimum_candidates =2;\r\n    uint private minVotes = 2;\r\n\r\n    // Store number of voters\r\n    uint public votersCount;\r\n\r\n    //number of total votes\r\n    uint public numVotes;\r\n\r\n    string[3] phases = [\"registration\" , \"voting\", \"results\"];\r\n    uint private phasePointer;\r\n\r\n    // Admin is set once, when contract is deployed. Also saves gas fees\r\n    address private admin;\r\n\r\n    constructor(){ \r\n        admin = msg.sender; //the deployer of the contract is the admin\r\n        phase=\"Election has not started\";\r\n    } \r\n\r\n    modifier onlyAdmin(){\r\n\t\trequire(msg.sender==admin, \"Only Admin can perform this function\");\r\n\t\t_;\r\n\t}\r\n\r\n       // Add a candidate\r\n    function addCandidate (string memory _name, string memory _party) onlyAdmin public {\r\n        require(phasePointer<=0, \"Cannot add candidates during voting process\");\r\n        candidatesCount ++;\r\n        candidates[candidatesCount] = Candidate({\r\n            id: candidatesCount, \r\n            name: _name,\r\n            party: _party, \r\n            voteCount: 0\r\n            });\r\n    }\r\n\r\n\r\n     // Add a voter\r\n    function addVoter (string memory _personal_id, string memory _email, string memory _name, string memory _surname, string memory _ref) public {\r\n            require(msg.sender != admin, \"Admin Cannot register\"); //require that the user is not registered\r\n            address _pAdress = msg.sender; \r\n            bytes32 encrypt_id = keccak256_encrypt(_personal_id);  //encrypt personal id\r\n            voter storage user = voters[_pAdress];\r\n            require(!user.isRegistered, \"The public address already in use\"); //require that the user is not registered\r\n\r\n            //require that personal_id is not already in use\r\n            require(verifier[encrypt_id] == 0x0000000000000000000000000000000000000000, \"Personal ID already in use\");\r\n            recorder[votersCount] = _pAdress;\r\n            voters[_pAdress] = voter( {personal_id: encrypt_id, \r\n                            hasVoted:false, \r\n                            public_Address:_pAdress,\r\n                            email: _email, \r\n                            name:_name, \r\n                            surname: _surname, \r\n                            refNUm: _ref,\r\n                            isRegistered:true,\r\n                            PrivateKey:0,\r\n                            isVerifiedUser:false,\r\n                            position:0\r\n                    });\r\n            \r\n           \r\n            verifier[encrypt_id] = _pAdress;\r\n            votersCount ++;\r\n            \r\n    }\r\n\r\n    //get voter details to display to voter\r\n    function getVoter() public view returns(string memory, string memory, string memory, string memory, bool, bool, bool){\r\n            return(voters[msg.sender].name, voters[msg.sender].surname, voters[msg.sender].email, \r\n            voters[msg.sender].refNUm, voters[msg.sender].isRegistered, voters[msg.sender].hasVoted, voters[msg.sender].isVerifiedUser);             \r\n    }\r\n\r\n    //returns true if voter registered\r\n    function isVoter_Registered() public view returns (bool){\r\n        return voters[msg.sender].isRegistered;\r\n    }\r\n\r\n    \r\n  // https://stackoverflow.com/questions/73555009/how-to-generate-random-words-in-solidity-based-based-on-a-string-of-letters/73557284#73557284\r\n  function random() public view returns (uint) {\r\n        return uint (keccak256(abi.encodePacked (block.timestamp, msg.sender, address(this))));\r\n     }\r\n\r\n     //returns true if voter registered\r\n    function has_Voted() public view returns (bool){\r\n        return voters[msg.sender].hasVoted;\r\n    }\r\n\r\n    // voting function, all accounts can vote\r\n    function vote (uint _candidateId, string memory _date, string memory _time) public {\r\n\r\n        //must be registered to vote\r\n        require(voters[msg.sender].isRegistered, \"Only registered users can vote\");\r\n\r\n        // require that they haven't voted before\r\n        require(!voters[msg.sender].hasVoted, \"Already Voted\"); \r\n        \r\n        // require a valid candidate\r\n        require(_candidateId > 0 && _candidateId <= candidatesCount);\r\n\r\n        // record that voter has voted\r\n        voters[msg.sender].hasVoted = true;\r\n\r\n        // update candidate vote Count\r\n        candidates[_candidateId].voteCount ++; //add vote to candidate\r\n\r\n        voters[msg.sender].PrivateKey = random();  //CREATE PRIVATE KEY *****\r\n    \r\n        votingTrails[numVotes] = votingRecords({ //keep record of vote\r\n                                                ref:voters[msg.sender].refNUm,\r\n                                                voteDate:_date,\r\n                                                voteTime:_time,\r\n                                                isVerified:false\r\n                                         });\r\n        voters[msg.sender].position = numVotes; //store position of vote\r\n        numVotes++; //increase vote count\r\n        \r\n    }\r\n\r\n    //Return voter keys\r\n     function copyKeys() public view returns(string memory, string memory){\r\n            (uint256 p1, uint256 p2) = EllipticCurve.ecMul(voters[msg.sender].PrivateKey,GX,GY,AA,PP); \r\n            while(!EllipticCurve.isOnCurve(p1, p2, AA, BB, PP)){ //If points returned are not on the curve, iterate again\r\n                 (p1, p2) = EllipticCurve.ecMul(voters[msg.sender].PrivateKey,GX,GY,AA,PP); \r\n            }\r\n            return (Strings.toString(p1), Strings.toString(p2));          \r\n    }\r\n \r\n    //verify vote\r\n    function verifyVote(uint _key1, uint _key2) public{\r\n                 //must be registered to vote\r\n        require(voters[msg.sender].isRegistered, \"Only registered users can vote\");\r\n\r\n        // require that they haven't voted before\r\n        require(voters[msg.sender].hasVoted, \"Already Voted\");\r\n\r\n        require(!voters[msg.sender].isVerifiedUser, \"Voter already voted\");\r\n\r\n        (uint256 p1, uint256 p2) = EllipticCurve.ecMul(voters[msg.sender].PrivateKey,GX,GY,AA,PP); //creating public keys from the user address\r\n\r\n        if(p1==_key1 && _key2==p2 ){ //public keys match\r\n            votingTrails[voters[msg.sender].position].isVerified = true;\r\n            voters[msg.sender].isVerifiedUser = true;\r\n        }\r\n    }\r\n\r\n    // start election\r\n    function startElection() onlyAdmin public {\r\n            require(phasePointer!=1 && phasePointer!=2, \"Voting in progress\");\r\n            phasePointer = 0;\r\n            phase = phases[phasePointer]; //contract is deployed in the registration phase\r\n    \r\n    }\r\n\r\n    //change election phase\r\n    function changePhase() onlyAdmin public {\r\n        phasePointer++;\r\n        if (phasePointer <3) {\r\n            // if(phasePointer == 1){ //from registration to voting\r\n            //     require(votersCount>candidatesCount, \"Not Enough Voters\"); //3 VOTES, 2 CANDIDATES\r\n            //     require(candidatesCount>=minimum_candidates, \"Not Enough Candidates\"); //MINIMUM OF 2 CANDIDATES\r\n            //     phase = phases[phasePointer];\r\n            // }\r\n            //  if(phasePointer == 2){ //from voting to results\r\n            //     require(numVotes>=minVotes, \"Not Enough Votes\"); //MINIMUM OF 2 VOTES\r\n            //     phase = phases[phasePointer];\r\n            // }\r\n            phase = phases[phasePointer];\r\n            \r\n        } else {\r\n            phase = \"Election ended\";\r\n        }\r\n\r\n    }\r\n\r\n\r\n    //hash function\r\n    function keccak256_encrypt(string memory text) public pure returns (bytes32) {\r\n        return keccak256(abi.encode(text));\r\n    }\r\n\r\n    function getWinner() public view returns(string memory) {\r\n        uint winner = 1;\r\n        uint voterS = candidates[1].voteCount;\r\n        for (uint index = 2; index <=  candidatesCount; index++) {\r\n            if(candidates[index].voteCount > voterS){\r\n                winner = index;\r\n                voterS = candidates[index].voteCount;\r\n                }\r\n        }\r\n        return (candidates[winner].name);\r\n\r\n    }\r\n\r\n\r\n    //<----------------------------------- Verifies signed message -------------------------------->\r\n    function verify (string memory _message, bytes memory _sig, uint _nonce) onlyAdmin public returns (bool) {\r\n        bytes32 hash_SMS = getHash(_message, _nonce);\r\n        require(!adminSignatures[hash_SMS], \"Has been executed\"); //must be a new signature\r\n        bytes32 ethSignedMessageHash = getEthSignedHash(hash_SMS);\r\n        adminSignatures[hash_SMS] = true;\r\n        return recover(ethSignedMessageHash, _sig) == admin;\r\n    }\r\n    \r\n    //has a tring\r\n    function getHash (string memory sms, uint _nonce) public pure returns (bytes32){\r\n        return keccak256(abi.encodePacked(sms, _nonce));\r\n    }\r\n\r\n\r\n    function getEthSignedHash (bytes32 sms) public pure returns (bytes32){\r\n        return keccak256(abi.encodePacked(\"\\x19Ethereum Signed Message:\\n32\", sms));\r\n    }\r\n\r\n\r\n    //recover account of original signer of message\r\n    function recover(bytes32 _ethSignedMessageHash, bytes memory _sig) public pure returns (address){\r\n            (bytes32 r, bytes32 s, uint8 v) = _split(_sig); //split signature into params\r\n            return ecrecover(_ethSignedMessageHash, v, r, s); //returns the address of the signer given the signed message\r\n    }\r\n\r\n    function _split(bytes memory _sig) internal pure returns (bytes32 r, bytes32 s, uint8 v){\r\n            require(_sig.length == 65, \"invalid signature length\");\r\n\r\n            assembly {\r\n                r := mload(add(_sig, 32))  //skip first 32-byetes as they hold the length\r\n                s := mload(add(_sig, 64))\r\n                v := byte(0, mload(add(_sig, 96)))\r\n\r\n            }\r\n    }\r\n\r\n    //<----------------------------------- ECC CRYPTOGRAPHY -------------------------------->\r\n\r\n}",
  "sourcePath": "C:\\Users\\Student\\Downloads\\BEV-cryptography\\Code\\contracts\\Election.sol",
  "compiler": {
    "name": "solc",
    "version": "0.8.0+commit.c7dfd78e.Emscripten.clang"
  },
  "schemaVersion": "3.4.16",
  "updatedAt": "2023-10-02T20:50:05.261Z",
  "networkType": "ethereum",
  "devdoc": {
    "kind": "dev",
    "methods": {},
    "version": 1
  },
  "userdoc": {
    "kind": "user",
    "methods": {},
    "version": 1
  }
}