{
  "contractName": "Election",
  "abi": [
    {
      "inputs": [],
      "payable": false,
      "stateMutability": "nonpayable",
      "type": "constructor"
    },
    {
      "constant": true,
      "inputs": [
        {
          "internalType": "uint256",
          "name": "",
          "type": "uint256"
        }
      ],
      "name": "candidates",
      "outputs": [
        {
          "internalType": "uint256",
          "name": "id",
          "type": "uint256"
        },
        {
          "internalType": "string",
          "name": "name",
          "type": "string"
        },
        {
          "internalType": "string",
          "name": "party",
          "type": "string"
        },
        {
          "internalType": "uint256",
          "name": "voteCount",
          "type": "uint256"
        }
      ],
      "payable": false,
      "stateMutability": "view",
      "type": "function"
    },
    {
      "constant": true,
      "inputs": [],
      "name": "candidatesCount",
      "outputs": [
        {
          "internalType": "uint256",
          "name": "",
          "type": "uint256"
        }
      ],
      "payable": false,
      "stateMutability": "view",
      "type": "function"
    },
    {
      "constant": true,
      "inputs": [],
      "name": "phase",
      "outputs": [
        {
          "internalType": "string",
          "name": "",
          "type": "string"
        }
      ],
      "payable": false,
      "stateMutability": "view",
      "type": "function"
    },
    {
      "constant": true,
      "inputs": [],
      "name": "phasePointer",
      "outputs": [
        {
          "internalType": "uint256",
          "name": "",
          "type": "uint256"
        }
      ],
      "payable": false,
      "stateMutability": "view",
      "type": "function"
    },
    {
      "constant": true,
      "inputs": [
        {
          "internalType": "uint256",
          "name": "",
          "type": "uint256"
        }
      ],
      "name": "recorder",
      "outputs": [
        {
          "internalType": "address",
          "name": "",
          "type": "address"
        }
      ],
      "payable": false,
      "stateMutability": "view",
      "type": "function"
    },
    {
      "constant": true,
      "inputs": [],
      "name": "timeNow",
      "outputs": [
        {
          "internalType": "uint256",
          "name": "",
          "type": "uint256"
        }
      ],
      "payable": false,
      "stateMutability": "view",
      "type": "function"
    },
    {
      "constant": true,
      "inputs": [
        {
          "internalType": "bytes32",
          "name": "",
          "type": "bytes32"
        }
      ],
      "name": "verifier",
      "outputs": [
        {
          "internalType": "address",
          "name": "",
          "type": "address"
        }
      ],
      "payable": false,
      "stateMutability": "view",
      "type": "function"
    },
    {
      "constant": true,
      "inputs": [
        {
          "internalType": "address",
          "name": "",
          "type": "address"
        }
      ],
      "name": "voters",
      "outputs": [
        {
          "internalType": "bytes32",
          "name": "personal_id",
          "type": "bytes32"
        },
        {
          "internalType": "bool",
          "name": "hasVoted",
          "type": "bool"
        },
        {
          "internalType": "address",
          "name": "public_Address",
          "type": "address"
        },
        {
          "internalType": "string",
          "name": "email",
          "type": "string"
        },
        {
          "internalType": "string",
          "name": "name",
          "type": "string"
        },
        {
          "internalType": "string",
          "name": "surname",
          "type": "string"
        },
        {
          "internalType": "bool",
          "name": "isRegistered",
          "type": "bool"
        },
        {
          "internalType": "uint256",
          "name": "voterPosition",
          "type": "uint256"
        }
      ],
      "payable": false,
      "stateMutability": "view",
      "type": "function"
    },
    {
      "constant": true,
      "inputs": [],
      "name": "votersCount",
      "outputs": [
        {
          "internalType": "uint256",
          "name": "",
          "type": "uint256"
        }
      ],
      "payable": false,
      "stateMutability": "view",
      "type": "function"
    },
    {
      "constant": true,
      "inputs": [],
      "name": "votingEnd",
      "outputs": [
        {
          "internalType": "uint256",
          "name": "",
          "type": "uint256"
        }
      ],
      "payable": false,
      "stateMutability": "view",
      "type": "function"
    },
    {
      "constant": true,
      "inputs": [],
      "name": "votingStart",
      "outputs": [
        {
          "internalType": "uint256",
          "name": "",
          "type": "uint256"
        }
      ],
      "payable": false,
      "stateMutability": "view",
      "type": "function"
    },
    {
      "constant": false,
      "inputs": [
        {
          "internalType": "string",
          "name": "_name",
          "type": "string"
        },
        {
          "internalType": "string",
          "name": "_party",
          "type": "string"
        }
      ],
      "name": "addCandidate",
      "outputs": [],
      "payable": false,
      "stateMutability": "nonpayable",
      "type": "function"
    },
    {
      "constant": false,
      "inputs": [
        {
          "internalType": "string",
          "name": "_personal_id",
          "type": "string"
        },
        {
          "internalType": "string",
          "name": "_email",
          "type": "string"
        },
        {
          "internalType": "string",
          "name": "_name",
          "type": "string"
        },
        {
          "internalType": "string",
          "name": "_surname",
          "type": "string"
        }
      ],
      "name": "addVoter",
      "outputs": [],
      "payable": false,
      "stateMutability": "nonpayable",
      "type": "function"
    },
    {
      "constant": true,
      "inputs": [],
      "name": "isVoter_Registered",
      "outputs": [
        {
          "internalType": "bool",
          "name": "",
          "type": "bool"
        }
      ],
      "payable": false,
      "stateMutability": "view",
      "type": "function"
    },
    {
      "constant": true,
      "inputs": [],
      "name": "has_Voted",
      "outputs": [
        {
          "internalType": "bool",
          "name": "",
          "type": "bool"
        }
      ],
      "payable": false,
      "stateMutability": "view",
      "type": "function"
    },
    {
      "constant": false,
      "inputs": [
        {
          "internalType": "uint256",
          "name": "_candidateId",
          "type": "uint256"
        }
      ],
      "name": "vote",
      "outputs": [],
      "payable": false,
      "stateMutability": "nonpayable",
      "type": "function"
    },
    {
      "constant": false,
      "inputs": [],
      "name": "startElection",
      "outputs": [],
      "payable": false,
      "stateMutability": "nonpayable",
      "type": "function"
    },
    {
      "constant": false,
      "inputs": [],
      "name": "changePhase",
      "outputs": [],
      "payable": false,
      "stateMutability": "nonpayable",
      "type": "function"
    },
    {
      "constant": true,
      "inputs": [
        {
          "internalType": "string",
          "name": "text",
          "type": "string"
        }
      ],
      "name": "keccak256_encrypt",
      "outputs": [
        {
          "internalType": "bytes32",
          "name": "",
          "type": "bytes32"
        }
      ],
      "payable": false,
      "stateMutability": "pure",
      "type": "function"
    },
    {
      "constant": true,
      "inputs": [],
      "name": "getWinner",
      "outputs": [
        {
          "internalType": "string",
          "name": "",
          "type": "string"
        }
      ],
      "payable": false,
      "stateMutability": "view",
      "type": "function"
    },
    {
      "constant": true,
      "inputs": [
        {
          "internalType": "string",
          "name": "_message",
          "type": "string"
        },
        {
          "internalType": "bytes",
          "name": "_sig",
          "type": "bytes"
        }
      ],
      "name": "verify",
      "outputs": [
        {
          "internalType": "bool",
          "name": "",
          "type": "bool"
        }
      ],
      "payable": false,
      "stateMutability": "view",
      "type": "function"
    },
    {
      "constant": true,
      "inputs": [
        {
          "internalType": "string",
          "name": "sms",
          "type": "string"
        }
      ],
      "name": "getHash",
      "outputs": [
        {
          "internalType": "bytes32",
          "name": "",
          "type": "bytes32"
        }
      ],
      "payable": false,
      "stateMutability": "pure",
      "type": "function"
    },
    {
      "constant": true,
      "inputs": [
        {
          "internalType": "bytes32",
          "name": "sms",
          "type": "bytes32"
        }
      ],
      "name": "getEthSignedHash",
      "outputs": [
        {
          "internalType": "bytes32",
          "name": "",
          "type": "bytes32"
        }
      ],
      "payable": false,
      "stateMutability": "pure",
      "type": "function"
    },
    {
      "constant": true,
      "inputs": [
        {
          "internalType": "bytes32",
          "name": "_ethSignedMessageHash",
          "type": "bytes32"
        },
        {
          "internalType": "bytes",
          "name": "_sig",
          "type": "bytes"
        }
      ],
      "name": "recover",
      "outputs": [
        {
          "internalType": "address",
          "name": "",
          "type": "address"
        }
      ],
      "payable": false,
      "stateMutability": "pure",
      "type": "function"
    }
  ],
  "bytecode": "0x608060405260405180606001604052806040518060400160405280600c81526020017f726567697374726174696f6e000000000000000000000000000000000000000081525081526020016040518060400160405280600681526020017f766f74696e67000000000000000000000000000000000000000000000000000081525081526020016040518060400160405280600781526020017f726573756c7473000000000000000000000000000000000000000000000000008152508152506008906003620000d092919062000174565b50348015620000de57600080fd5b5033600c60006101000a81548173ffffffffffffffffffffffffffffffffffffffff021916908373ffffffffffffffffffffffffffffffffffffffff1602179055506040518060400160405280601881526020017f456c656374696f6e20686173206e6f7420737461727465640000000000000000815250600590805190602001906200016d929190620001ce565b5062000381565b8260038101928215620001bb579160200282015b82811115620001ba578251829080519060200190620001a992919062000255565b509160200191906001019062000188565b5b509050620001ca9190620002dc565b5090565b828054600181600116156101000203166002900490600052602060002090601f016020900481019282601f106200021157805160ff191683800117855562000242565b8280016001018555821562000242579182015b828111156200024157825182559160200191906001019062000224565b5b5090506200025191906200030d565b5090565b828054600181600116156101000203166002900490600052602060002090601f016020900481019282601f106200029857805160ff1916838001178555620002c9565b82800160010185558215620002c9579182015b82811115620002c8578251825591602001919060010190620002ab565b5b509050620002d891906200030d565b5090565b6200030a91905b80821115620003065760008181620002fc919062000335565b50600101620002e3565b5090565b90565b6200033291905b808211156200032e57600081600090555060010162000314565b5090565b90565b50805460018160011615610100020316600290046000825580601f106200035d57506200037e565b601f0160209004906000526020600020908101906200037d91906200030d565b5b50565b6124f780620003916000396000f3fe608060405234801561001057600080fd5b50600436106101585760003560e01c80635dc2b650116100c3578063a3ec138d1161007c578063a3ec138d14610c80578063b1c9fe6e14610e6c578063d25773b714610eef578063d54c149614610f11578063d95660be14610f7f578063db6f595314610f9d57610158565b80635dc2b6501461091557806362d73eb814610b9557806385a3863514610b9f5780638e7ea5b214610bbd57806398b8b43d14610c4057806398c0793814610c6257610158565b80632f4ea5ea116101155780632f4ea5ea1461048c5780633477ee2e146104ce5780633d9ffad5146105ef5780633fee76dc1461075957806344fd417f146108285780635b6beeb91461084657610158565b80630121b93f1461015d578063101158af1461018b57806319045a25146101a95780631b1d53f6146102ae57806326541b561461031c5780632d35a8a21461046e575b600080fd5b6101896004803603602081101561017357600080fd5b8101908080359060200190929190505050610fa7565b005b6101936111c9565b6040518082815260200191505060405180910390f35b61026c600480360360408110156101bf57600080fd5b8101908080359060200190929190803590602001906401000000008111156101e657600080fd5b8201836020820111156101f857600080fd5b8035906020019184600183028401116401000000008311171561021a57600080fd5b91908080601f016020809104026020016040519081016040528093929190818152602001838380828437600081840152601f19601f8201169050808301925050505050505091929192905050506111cf565b604051808273ffffffffffffffffffffffffffffffffffffffff1673ffffffffffffffffffffffffffffffffffffffff16815260200191505060405180910390f35b6102da600480360360208110156102c457600080fd5b8101908080359060200190929190505050611256565b604051808273ffffffffffffffffffffffffffffffffffffffff1673ffffffffffffffffffffffffffffffffffffffff16815260200191505060405180910390f35b61046c6004803603604081101561033257600080fd5b810190808035906020019064010000000081111561034f57600080fd5b82018360208201111561036157600080fd5b8035906020019184600183028401116401000000008311171561038357600080fd5b91908080601f016020809104026020016040519081016040528093929190818152602001838380828437600081840152601f19601f820116905080830192505050505050509192919290803590602001906401000000008111156103e657600080fd5b8201836020820111156103f857600080fd5b8035906020019184600183028401116401000000008311171561041a57600080fd5b91908080601f016020809104026020016040519081016040528093929190818152602001838380828437600081840152601f19601f820116905080830192505050505050509192919290505050611289565b005b6104766113ce565b6040518082815260200191505060405180910390f35b6104b8600480360360208110156104a257600080fd5b81019080803590602001909291905050506113d4565b6040518082815260200191505060405180910390f35b6104fa600480360360208110156104e457600080fd5b810190808035906020019092919050505061142c565b604051808581526020018060200180602001848152602001838103835286818151815260200191508051906020019080838360005b8381101561054a57808201518184015260208101905061052f565b50505050905090810190601f1680156105775780820380516001836020036101000a031916815260200191505b50838103825285818151815260200191508051906020019080838360005b838110156105b0578082015181840152602081019050610595565b50505050905090810190601f1680156105dd5780820380516001836020036101000a031916815260200191505b50965050505050505060405180910390f35b61073f6004803603604081101561060557600080fd5b810190808035906020019064010000000081111561062257600080fd5b82018360208201111561063457600080fd5b8035906020019184600183028401116401000000008311171561065657600080fd5b91908080601f016020809104026020016040519081016040528093929190818152602001838380828437600081840152601f19601f820116905080830192505050505050509192919290803590602001906401000000008111156106b957600080fd5b8201836020820111156106cb57600080fd5b803590602001918460018302840111640100000000831117156106ed57600080fd5b91908080601f016020809104026020016040519081016040528093929190818152602001838380828437600081840152601f19601f82011690508083019250505050505050919291929050505061158c565b604051808215151515815260200191505060405180910390f35b6108126004803603602081101561076f57600080fd5b810190808035906020019064010000000081111561078c57600080fd5b82018360208201111561079e57600080fd5b803590602001918460018302840111640100000000831117156107c057600080fd5b91908080601f016020809104026020016040519081016040528093929190818152602001838380828437600081840152601f19601f82011690508083019250505050505050919291929050505061160b565b6040518082815260200191505060405180910390f35b6108306116a0565b6040518082815260200191505060405180910390f35b6108ff6004803603602081101561085c57600080fd5b810190808035906020019064010000000081111561087957600080fd5b82018360208201111561088b57600080fd5b803590602001918460018302840111640100000000831117156108ad57600080fd5b91908080601f016020809104026020016040519081016040528093929190818152602001838380828437600081840152601f19601f8201169050808301925050505050505091929192905050506116a6565b6040518082815260200191505060405180910390f35b610b936004803603608081101561092b57600080fd5b810190808035906020019064010000000081111561094857600080fd5b82018360208201111561095a57600080fd5b8035906020019184600183028401116401000000008311171561097c57600080fd5b91908080601f016020809104026020016040519081016040528093929190818152602001838380828437600081840152601f19601f820116905080830192505050505050509192919290803590602001906401000000008111156109df57600080fd5b8201836020820111156109f157600080fd5b80359060200191846001830284011164010000000083111715610a1357600080fd5b91908080601f016020809104026020016040519081016040528093929190818152602001838380828437600081840152601f19601f82011690508083019250505050505050919291929080359060200190640100000000811115610a7657600080fd5b820183602082011115610a8857600080fd5b80359060200191846001830284011164010000000083111715610aaa57600080fd5b91908080601f016020809104026020016040519081016040528093929190818152602001838380828437600081840152601f19601f82011690508083019250505050505050919291929080359060200190640100000000811115610b0d57600080fd5b820183602082011115610b1f57600080fd5b80359060200191846001830284011164010000000083111715610b4157600080fd5b91908080601f016020809104026020016040519081016040528093929190818152602001838380828437600081840152601f19601f820116905080830192505050505050509192919290505050611721565b005b610b9d611b00565b005b610ba7611be2565b6040518082815260200191505060405180910390f35b610bc5611be8565b6040518080602001828103825283818151815260200191508051906020019080838360005b83811015610c05578082015181840152602081019050610bea565b50505050905090810190601f168015610c325780820380516001836020036101000a031916815260200191505b509250505060405180910390f35b610c48611d18565b604051808215151515815260200191505060405180910390f35b610c6a611d6f565b6040518082815260200191505060405180910390f35b610cc260048036036020811015610c9657600080fd5b81019080803573ffffffffffffffffffffffffffffffffffffffff169060200190929190505050611d75565b60405180898152602001881515151581526020018773ffffffffffffffffffffffffffffffffffffffff1673ffffffffffffffffffffffffffffffffffffffff16815260200180602001806020018060200186151515158152602001858152602001848103845289818151815260200191508051906020019080838360005b83811015610d5c578082015181840152602081019050610d41565b50505050905090810190601f168015610d895780820380516001836020036101000a031916815260200191505b50848103835288818151815260200191508051906020019080838360005b83811015610dc2578082015181840152602081019050610da7565b50505050905090810190601f168015610def5780820380516001836020036101000a031916815260200191505b50848103825287818151815260200191508051906020019080838360005b83811015610e28578082015181840152602081019050610e0d565b50505050905090810190601f168015610e555780820380516001836020036101000a031916815260200191505b509b50505050505050505050505060405180910390f35b610e74611fbf565b6040518080602001828103825283818151815260200191508051906020019080838360005b83811015610eb4578082015181840152602081019050610e99565b50505050905090810190601f168015610ee15780820380516001836020036101000a031916815260200191505b509250505060405180910390f35b610ef761205d565b604051808215151515815260200191505060405180910390f35b610f3d60048036036020811015610f2757600080fd5b81019080803590602001909291905050506120b4565b604051808273ffffffffffffffffffffffffffffffffffffffff1673ffffffffffffffffffffffffffffffffffffffff16815260200191505060405180910390f35b610f876120e7565b6040518082815260200191505060405180910390f35b610fa56120ed565b005b600160003373ffffffffffffffffffffffffffffffffffffffff1673ffffffffffffffffffffffffffffffffffffffff16815260200190815260200160002060050160009054906101000a900460ff16611069576040517f08c379a000000000000000000000000000000000000000000000000000000000815260040180806020018281038252601e8152602001807f4f6e6c7920726567697374657265642075736572732063616e20766f7465000081525060200191505060405180910390fd5b600160003373ffffffffffffffffffffffffffffffffffffffff1673ffffffffffffffffffffffffffffffffffffffff16815260200190815260200160002060010160009054906101000a900460ff161561112c576040517f08c379a000000000000000000000000000000000000000000000000000000000815260040180806020018281038252600d8152602001807f416c726561647920566f7465640000000000000000000000000000000000000081525060200191505060405180910390fd5b60008111801561113e57506004548111155b61114757600080fd5b60018060003373ffffffffffffffffffffffffffffffffffffffff1673ffffffffffffffffffffffffffffffffffffffff16815260200190815260200160002060010160006101000a81548160ff0219169083151502179055506000808281526020019081526020016000206003016000815480929190600101919050555050565b600d5481565b6000806000806111de85612236565b92509250925060018682858560405160008152602001604052604051808581526020018460ff1660ff1681526020018381526020018281526020019450505050506020604051602081039080840390855afa158015611241573d6000803e3d6000fd5b50505060206040510351935050505092915050565b60036020528060005260406000206000915054906101000a900473ffffffffffffffffffffffffffffffffffffffff1681565b600c60009054906101000a900473ffffffffffffffffffffffffffffffffffffffff1673ffffffffffffffffffffffffffffffffffffffff163373ffffffffffffffffffffffffffffffffffffffff161461132f576040517f08c379a000000000000000000000000000000000000000000000000000000000815260040180806020018281038252602481526020018061249f6024913960400191505060405180910390fd5b600460008154809291906001019190505550604051806080016040528060045481526020018381526020018281526020016000815250600080600454815260200190815260200160002060008201518160000155602082015181600101908051906020019061139f9291906122d1565b5060408201518160020190805190602001906113bc9291906122d1565b50606082015181600301559050505050565b60045481565b60008160405160200180807f19457468657265756d205369676e6564204d6573736167653a0a333200000000815250601c01828152602001915050604051602081830303815290604052805190602001209050919050565b6000602052806000526040600020600091509050806000015490806001018054600181600116156101000203166002900480601f0160208091040260200160405190810160405280929190818152602001828054600181600116156101000203166002900480156114de5780601f106114b3576101008083540402835291602001916114de565b820191906000526020600020905b8154815290600101906020018083116114c157829003601f168201915b505050505090806002018054600181600116156101000203166002900480601f01602080910402602001604051908101604052809291908181526020018280546001816001161561010002031660029004801561157c5780601f106115515761010080835404028352916020019161157c565b820191906000526020600020905b81548152906001019060200180831161155f57829003601f168201915b5050505050908060030154905084565b600080611598846116a6565b905060006115a5826113d4565b9050600c60009054906101000a900473ffffffffffffffffffffffffffffffffffffffff1673ffffffffffffffffffffffffffffffffffffffff166115ea82866111cf565b73ffffffffffffffffffffffffffffffffffffffff16149250505092915050565b6000816040516020018080602001828103825283818151815260200191508051906020019080838360005b83811015611651578082015181840152602081019050611636565b50505050905090810190601f16801561167e5780820380516001836020036101000a031916815260200191505b5092505050604051602081830303815290604052805190602001209050919050565b600b5481565b6000816040516020018082805190602001908083835b602083106116df57805182526020820191506020810190506020830392506116bc565b6001836020036101000a038019825116818451168082178552505050505050905001915050604051602081830303815290604052805190602001209050919050565b600033905060006117318661160b565b90506000600160008473ffffffffffffffffffffffffffffffffffffffff1673ffffffffffffffffffffffffffffffffffffffff16815260200190815260200160002090508060050160009054906101000a900460ff16156117de576040517f08c379a000000000000000000000000000000000000000000000000000000000815260040180806020018281038252602181526020018061247e6021913960400191505060405180910390fd5b600073ffffffffffffffffffffffffffffffffffffffff166002600084815260200190815260200160002060009054906101000a900473ffffffffffffffffffffffffffffffffffffffff1673ffffffffffffffffffffffffffffffffffffffff16146118b3576040517f08c379a000000000000000000000000000000000000000000000000000000000815260040180806020018281038252601a8152602001807f506572736f6e616c20494420616c726561647920696e2075736500000000000081525060200191505060405180910390fd5b8260036000600654815260200190815260200160002060006101000a81548173ffffffffffffffffffffffffffffffffffffffff021916908373ffffffffffffffffffffffffffffffffffffffff1602179055506040518061010001604052808381526020016000151581526020018473ffffffffffffffffffffffffffffffffffffffff168152602001878152602001868152602001858152602001600115158152602001600654815250600160008573ffffffffffffffffffffffffffffffffffffffff1673ffffffffffffffffffffffffffffffffffffffff1681526020019081526020016000206000820151816000015560208201518160010160006101000a81548160ff02191690831515021790555060408201518160010160016101000a81548173ffffffffffffffffffffffffffffffffffffffff021916908373ffffffffffffffffffffffffffffffffffffffff1602179055506060820151816002019080519060200190611a2b9291906122d1565b506080820151816003019080519060200190611a489291906122d1565b5060a0820151816004019080519060200190611a659291906122d1565b5060c08201518160050160006101000a81548160ff02191690831515021790555060e08201518160060155905050600660008154809291906001019190505550826002600084815260200190815260200160002060006101000a81548173ffffffffffffffffffffffffffffffffffffffff021916908373ffffffffffffffffffffffffffffffffffffffff16021790555050505050505050565b600c60009054906101000a900473ffffffffffffffffffffffffffffffffffffffff1673ffffffffffffffffffffffffffffffffffffffff163373ffffffffffffffffffffffffffffffffffffffff1614611ba6576040517f08c379a000000000000000000000000000000000000000000000000000000000815260040180806020018281038252602481526020018061249f6024913960400191505060405180910390fd5b6000600b819055506008600b5460038110611bbd57fe5b0160059080546001816001161561010002031660029004611bdf929190612351565b50565b600e5481565b60606000600190506000806000600181526020019081526020016000206003015490506000600290505b600454811015611c625781600080838152602001908152602001600020600301541115611c55578092506000808281526020019081526020016000206003015491505b8080600101915050611c12565b506000808381526020019081526020016000206001018054600181600116156101000203166002900480601f016020809104026020016040519081016040528092919081815260200182805460018160011615610100020316600290048015611d0c5780601f10611ce157610100808354040283529160200191611d0c565b820191906000526020600020905b815481529060010190602001808311611cef57829003601f168201915b50505050509250505090565b6000600160003373ffffffffffffffffffffffffffffffffffffffff1673ffffffffffffffffffffffffffffffffffffffff16815260200190815260200160002060010160009054906101000a900460ff16905090565b60065481565b60016020528060005260406000206000915090508060000154908060010160009054906101000a900460ff16908060010160019054906101000a900473ffffffffffffffffffffffffffffffffffffffff1690806002018054600181600116156101000203166002900480601f016020809104026020016040519081016040528092919081815260200182805460018160011615610100020316600290048015611e605780601f10611e3557610100808354040283529160200191611e60565b820191906000526020600020905b815481529060010190602001808311611e4357829003601f168201915b505050505090806003018054600181600116156101000203166002900480601f016020809104026020016040519081016040528092919081815260200182805460018160011615610100020316600290048015611efe5780601f10611ed357610100808354040283529160200191611efe565b820191906000526020600020905b815481529060010190602001808311611ee157829003601f168201915b505050505090806004018054600181600116156101000203166002900480601f016020809104026020016040519081016040528092919081815260200182805460018160011615610100020316600290048015611f9c5780601f10611f7157610100808354040283529160200191611f9c565b820191906000526020600020905b815481529060010190602001808311611f7f57829003601f168201915b5050505050908060050160009054906101000a900460ff16908060060154905088565b60058054600181600116156101000203166002900480601f0160208091040260200160405190810160405280929190818152602001828054600181600116156101000203166002900480156120555780601f1061202a57610100808354040283529160200191612055565b820191906000526020600020905b81548152906001019060200180831161203857829003601f168201915b505050505081565b6000600160003373ffffffffffffffffffffffffffffffffffffffff1673ffffffffffffffffffffffffffffffffffffffff16815260200190815260200160002060050160009054906101000a900460ff16905090565b60026020528060005260406000206000915054906101000a900473ffffffffffffffffffffffffffffffffffffffff1681565b60075481565b600c60009054906101000a900473ffffffffffffffffffffffffffffffffffffffff1673ffffffffffffffffffffffffffffffffffffffff163373ffffffffffffffffffffffffffffffffffffffff1614612193576040517f08c379a000000000000000000000000000000000000000000000000000000000815260040180806020018281038252602481526020018061249f6024913960400191505060405180910390fd5b600b600081548092919060010191905055506003600b5410156121e7576008600b54600381106121bf57fe5b01600590805460018160011615610100020316600290046121e1929190612351565b50612234565b6040518060400160405280600e81526020017f456c656374696f6e20656e646564000000000000000000000000000000000000815250600590805190602001906122329291906123d8565b505b565b600080600060418451146122b2576040517f08c379a00000000000000000000000000000000000000000000000000000000081526004018080602001828103825260188152602001807f696e76616c6964207369676e6174757265206c656e677468000000000000000081525060200191505060405180910390fd5b6020840151925060408401519150606084015160001a90509193909250565b828054600181600116156101000203166002900490600052602060002090601f016020900481019282601f1061231257805160ff1916838001178555612340565b82800160010185558215612340579182015b8281111561233f578251825591602001919060010190612324565b5b50905061234d9190612458565b5090565b828054600181600116156101000203166002900490600052602060002090601f016020900481019282601f1061238a57805485556123c7565b828001600101855582156123c757600052602060002091601f016020900482015b828111156123c65782548255916001019190600101906123ab565b5b5090506123d49190612458565b5090565b828054600181600116156101000203166002900490600052602060002090601f016020900481019282601f1061241957805160ff1916838001178555612447565b82800160010185558215612447579182015b8281111561244657825182559160200191906001019061242b565b5b5090506124549190612458565b5090565b61247a91905b8082111561247657600081600090555060010161245e565b5090565b9056fe546865207075626c6963206164647265737320616c726561647920696e207573654f6e6c792041646d696e2063616e20706572666f726d20746869732066756e6374696f6ea265627a7a72315820527011a1b21f3242faf4e51afd1846f6a03636e5977e42d7ee721992fdb1926664736f6c63430005100032",
  "source": "// SPDX-License-Identifier: MIT \r\npragma solidity >=0.5.0;\r\n\r\ncontract Election { \r\n\r\n    struct voter {\r\n        bytes32 personal_id; //their personal id\r\n        bool hasVoted; //have they voted\r\n        address public_Address; //public address to wallet\r\n        string email; //email address for communication\r\n        string name; //name of voter \r\n        string surname; \r\n        bool isRegistered;\r\n        uint voterPosition;\r\n    }\r\n\r\n\r\n     // Model a Candidate\r\n    struct Candidate {\r\n        uint id;\r\n        string name;\r\n        string party;\r\n        uint voteCount;\r\n    }\r\n\r\n    // Read/write candidate\r\n    mapping(uint => Candidate) public candidates;\r\n\r\n    // Store accounts that have voted\r\n    mapping(address => voter) public voters;\r\n\r\n     // Stores encyrted ID'S\r\n    mapping(bytes32 => address) public verifier;\r\n    mapping(uint => address) public recorder;\r\n\r\n    // Store Candidates Count\r\n    uint public candidatesCount;\r\n\r\n    // Stores Election phase\r\n    string public phase;\r\n\r\n    // Store Candidates Count\r\n    uint public votersCount;\r\n\r\n    // Stores current time\r\n    uint public timeNow;\r\n\r\n    string[3] phases = [\"registration\" , \"voting\", \"results\"];\r\n    uint public phasePointer;\r\n\r\n    // Admin is set once, when contract is deployed. Also saves gas fees\r\n    address private admin;\r\n    uint256 public votingStart;  //start of phase\r\n    uint256 public votingEnd; //end of phase\r\n\r\n    constructor() public { \r\n        admin = msg.sender;\r\n        phase=\"Election has not started\";\r\n    } \r\n\r\n    //start time of phase\r\n    // function startTime() onlyAdmin internal {\r\n    //     votingStart = block.timestamp;\r\n    //     votingEnd = block.timestamp + (10* 1 minutes); //\r\n    //     timeNow = 0;\r\n    // }\r\n    \r\n\r\n    modifier onlyAdmin(){\r\n\t\trequire(msg.sender==admin, \"Only Admin can perform this function\");\r\n\t\t_;\r\n\t}\r\n\r\n       // Add a candidate\r\n    function addCandidate (string memory _name, string memory _party) onlyAdmin public {\r\n        candidatesCount ++;\r\n        candidates[candidatesCount] = Candidate({\r\n            id: candidatesCount, \r\n            name: _name,\r\n            party: _party, \r\n            voteCount: 0\r\n            });\r\n    }\r\n\r\n          // Add a voter\r\n    function addVoter (string memory _personal_id, string memory _email, string memory _name, string memory _surname) public {\r\n            address _pAdress = msg.sender; \r\n            bytes32 encrypt_id = keccak256_encrypt(_personal_id);  //encrypt personal id\r\n            voter storage user = voters[_pAdress];\r\n            require(!user.isRegistered, \"The public address already in use\"); //require that the user is not registered\r\n\r\n            //require that personal_id is not already in use\r\n            require(verifier[encrypt_id] == 0x0000000000000000000000000000000000000000, \"Personal ID already in use\");\r\n            recorder[votersCount] = _pAdress;\r\n            voters[_pAdress] = voter( {personal_id: encrypt_id, \r\n                            hasVoted:false, \r\n                            public_Address:_pAdress,\r\n                            email: _email, \r\n                            name:_name, \r\n                            surname: _surname, \r\n                            isRegistered:true,\r\n                            voterPosition: votersCount\r\n                    });\r\n            votersCount ++;\r\n            verifier[encrypt_id] = _pAdress;\r\n            // adjustTime();\r\n    }\r\n\r\n    //returns true if voter registered\r\n    function isVoter_Registered() public view returns (bool){\r\n        return voters[msg.sender].isRegistered;\r\n    }\r\n\r\n     //returns true if voter registered\r\n    function has_Voted() public view returns (bool){\r\n        return voters[msg.sender].hasVoted;\r\n    }\r\n\r\n    // voting function, all accounts can vote\r\n    function vote (uint _candidateId) public {\r\n\r\n        //must be registered to vote\r\n        require(voters[msg.sender].isRegistered, \"Only registered users can vote\");\r\n\r\n        // require that they haven't voted before\r\n        require(!voters[msg.sender].hasVoted, \"Already Voted\"); \r\n        \r\n\r\n        // require a valid candidate\r\n        require(_candidateId > 0 && _candidateId <= candidatesCount);\r\n\r\n        // record that voter has voted\r\n        voters[msg.sender].hasVoted = true;\r\n\r\n        // update candidate vote Count\r\n        candidates[_candidateId].voteCount ++;\r\n        // adjustTime();\r\n\r\n    }\r\n\r\n    \r\n\r\n    //start election\r\n    function startElection() onlyAdmin public {\r\n            phasePointer = 0;\r\n            phase = phases[phasePointer]; //contract is deployed in the registration phase\r\n            // startTime();\r\n    }\r\n\r\n    //change election phase\r\n    function changePhase() onlyAdmin public {\r\n        phasePointer++;\r\n        if (phasePointer <3) {\r\n            phase = phases[phasePointer];\r\n            // startTime();\r\n        } else {\r\n            phase = \"Election ended\";\r\n        }\r\n\r\n    }\r\n\r\n\r\n    //hash function\r\n    function keccak256_encrypt(string memory text) public pure returns (bytes32) {\r\n        return keccak256(abi.encode(text));\r\n    }\r\n\r\n    //get blockchain\r\n    // function adjustTime() internal{\r\n    //     require(block.timestamp >= votingStart && block.timestamp < votingEnd, \"Voting not in Progress\");\r\n    //     if (block.timestamp >= votingEnd){\r\n    //         timeNow=0;\r\n    //     }\r\n    //     timeNow= votingEnd - block.timestamp;\r\n    // }\r\n\r\n    // function getStatus() public view returns(bool){\r\n    //     return(block.timestamp >= votingStart && block.timestamp < votingEnd);\r\n    // }\r\n\r\n    function getWinner() public view returns(string memory) {\r\n        uint winner = 1;\r\n        uint voterS = candidates[1].voteCount;\r\n        for (uint index = 2; index <  candidatesCount; index++) {\r\n            if(candidates[index].voteCount > voterS){\r\n                winner = index;\r\n                voterS = candidates[index].voteCount;\r\n                }\r\n        }\r\n        // adjustTime();\r\n        return (candidates[winner].name);\r\n    }\r\n\r\n\r\n\r\n    //<----------------------------------- Verifies signed message -------------------------------->\r\n    function verify (string memory _message, bytes memory _sig) public view returns (bool) {\r\n        bytes32 hash_SMS = getHash(_message);\r\n        bytes32 ethSignedMessageHash = getEthSignedHash(hash_SMS);\r\n        return recover(ethSignedMessageHash, _sig) == admin;\r\n    }\r\n    \r\n    //has a tring\r\n    function getHash (string memory sms) public pure returns (bytes32){\r\n        return keccak256(abi.encodePacked(sms));\r\n    }\r\n\r\n\r\n    function getEthSignedHash (bytes32 sms) public pure returns (bytes32){\r\n        return keccak256(abi.encodePacked(\"\\x19Ethereum Signed Message:\\n32\", sms));\r\n    }\r\n\r\n\r\n    //recover account of original signer of message\r\n    function recover(bytes32 _ethSignedMessageHash, bytes memory _sig) public pure returns (address){\r\n            (bytes32 r, bytes32 s, uint8 v) = _split(_sig); //split signature into params\r\n            return ecrecover(_ethSignedMessageHash, v, r, s); //returns the address of the signer given the signed message\r\n    }\r\n\r\n    function _split(bytes memory _sig) internal pure returns (bytes32 r, bytes32 s, uint8 v){\r\n            require(_sig.length == 65, \"invalid signature length\");\r\n\r\n            assembly {\r\n                r := mload(add(_sig, 32))  //skip first 32-byetes as they hold the length\r\n                s := mload(add(_sig, 64))\r\n                v := byte(0, mload(add(_sig, 96)))\r\n\r\n            }\r\n    }\r\n\r\n}",
  "sourcePath": "C:\\Users\\Student\\Downloads\\crypto\\Code\\contracts\\Election.sol",
  "compiler": {
    "name": "solc",
    "version": "0.5.16+commit.9c3226ce.Emscripten.clang"
  },
  "schemaVersion": "3.4.16",
  "updatedAt": "2023-09-20T17:34:51.898Z",
  "networkType": "ethereum",
  "devdoc": {
    "methods": {}
  },
  "userdoc": {
    "methods": {}
  }
}