{
  "contractName": "Election",
  "abi": [
    {
      "inputs": [],
      "payable": false,
      "stateMutability": "nonpayable",
      "type": "constructor"
    },
    {
      "constant": true,
      "inputs": [
        {
          "internalType": "uint256",
          "name": "",
          "type": "uint256"
        }
      ],
      "name": "candidates",
      "outputs": [
        {
          "internalType": "uint256",
          "name": "id",
          "type": "uint256"
        },
        {
          "internalType": "string",
          "name": "name",
          "type": "string"
        },
        {
          "internalType": "string",
          "name": "party",
          "type": "string"
        },
        {
          "internalType": "uint256",
          "name": "voteCount",
          "type": "uint256"
        }
      ],
      "payable": false,
      "stateMutability": "view",
      "type": "function"
    },
    {
      "constant": true,
      "inputs": [],
      "name": "candidatesCount",
      "outputs": [
        {
          "internalType": "uint256",
          "name": "",
          "type": "uint256"
        }
      ],
      "payable": false,
      "stateMutability": "view",
      "type": "function"
    },
    {
      "constant": true,
      "inputs": [],
      "name": "numVotes",
      "outputs": [
        {
          "internalType": "uint256",
          "name": "",
          "type": "uint256"
        }
      ],
      "payable": false,
      "stateMutability": "view",
      "type": "function"
    },
    {
      "constant": true,
      "inputs": [],
      "name": "phase",
      "outputs": [
        {
          "internalType": "string",
          "name": "",
          "type": "string"
        }
      ],
      "payable": false,
      "stateMutability": "view",
      "type": "function"
    },
    {
      "constant": true,
      "inputs": [],
      "name": "phasePointer",
      "outputs": [
        {
          "internalType": "uint256",
          "name": "",
          "type": "uint256"
        }
      ],
      "payable": false,
      "stateMutability": "view",
      "type": "function"
    },
    {
      "constant": true,
      "inputs": [
        {
          "internalType": "uint256",
          "name": "",
          "type": "uint256"
        }
      ],
      "name": "recorder",
      "outputs": [
        {
          "internalType": "address",
          "name": "",
          "type": "address"
        }
      ],
      "payable": false,
      "stateMutability": "view",
      "type": "function"
    },
    {
      "constant": true,
      "inputs": [
        {
          "internalType": "bytes32",
          "name": "",
          "type": "bytes32"
        }
      ],
      "name": "verifier",
      "outputs": [
        {
          "internalType": "address",
          "name": "",
          "type": "address"
        }
      ],
      "payable": false,
      "stateMutability": "view",
      "type": "function"
    },
    {
      "constant": true,
      "inputs": [],
      "name": "votersCount",
      "outputs": [
        {
          "internalType": "uint256",
          "name": "",
          "type": "uint256"
        }
      ],
      "payable": false,
      "stateMutability": "view",
      "type": "function"
    },
    {
      "constant": true,
      "inputs": [],
      "name": "votingEnd",
      "outputs": [
        {
          "internalType": "uint256",
          "name": "",
          "type": "uint256"
        }
      ],
      "payable": false,
      "stateMutability": "view",
      "type": "function"
    },
    {
      "constant": true,
      "inputs": [],
      "name": "votingStart",
      "outputs": [
        {
          "internalType": "uint256",
          "name": "",
          "type": "uint256"
        }
      ],
      "payable": false,
      "stateMutability": "view",
      "type": "function"
    },
    {
      "constant": true,
      "inputs": [
        {
          "internalType": "uint256",
          "name": "",
          "type": "uint256"
        }
      ],
      "name": "votingTrails",
      "outputs": [
        {
          "internalType": "string",
          "name": "ref",
          "type": "string"
        },
        {
          "internalType": "string",
          "name": "voteDate",
          "type": "string"
        },
        {
          "internalType": "string",
          "name": "voteTime",
          "type": "string"
        },
        {
          "internalType": "bool",
          "name": "isVerified",
          "type": "bool"
        }
      ],
      "payable": false,
      "stateMutability": "view",
      "type": "function"
    },
    {
      "constant": false,
      "inputs": [
        {
          "internalType": "string",
          "name": "_name",
          "type": "string"
        },
        {
          "internalType": "string",
          "name": "_party",
          "type": "string"
        }
      ],
      "name": "addCandidate",
      "outputs": [],
      "payable": false,
      "stateMutability": "nonpayable",
      "type": "function"
    },
    {
      "constant": false,
      "inputs": [
        {
          "internalType": "string",
          "name": "_personal_id",
          "type": "string"
        },
        {
          "internalType": "string",
          "name": "_email",
          "type": "string"
        },
        {
          "internalType": "string",
          "name": "_name",
          "type": "string"
        },
        {
          "internalType": "string",
          "name": "_surname",
          "type": "string"
        },
        {
          "internalType": "string",
          "name": "_ref",
          "type": "string"
        }
      ],
      "name": "addVoter",
      "outputs": [],
      "payable": false,
      "stateMutability": "nonpayable",
      "type": "function"
    },
    {
      "constant": true,
      "inputs": [],
      "name": "getVoter",
      "outputs": [
        {
          "internalType": "string",
          "name": "",
          "type": "string"
        },
        {
          "internalType": "string",
          "name": "",
          "type": "string"
        },
        {
          "internalType": "string",
          "name": "",
          "type": "string"
        },
        {
          "internalType": "string",
          "name": "",
          "type": "string"
        },
        {
          "internalType": "bool",
          "name": "",
          "type": "bool"
        },
        {
          "internalType": "bool",
          "name": "",
          "type": "bool"
        }
      ],
      "payable": false,
      "stateMutability": "view",
      "type": "function"
    },
    {
      "constant": true,
      "inputs": [],
      "name": "isVoter_Registered",
      "outputs": [
        {
          "internalType": "bool",
          "name": "",
          "type": "bool"
        }
      ],
      "payable": false,
      "stateMutability": "view",
      "type": "function"
    },
    {
      "constant": true,
      "inputs": [],
      "name": "has_Voted",
      "outputs": [
        {
          "internalType": "bool",
          "name": "",
          "type": "bool"
        }
      ],
      "payable": false,
      "stateMutability": "view",
      "type": "function"
    },
    {
      "constant": false,
      "inputs": [
        {
          "internalType": "uint256",
          "name": "_candidateId",
          "type": "uint256"
        },
        {
          "internalType": "string",
          "name": "_date",
          "type": "string"
        },
        {
          "internalType": "string",
          "name": "_time",
          "type": "string"
        }
      ],
      "name": "vote",
      "outputs": [],
      "payable": false,
      "stateMutability": "nonpayable",
      "type": "function"
    },
    {
      "constant": true,
      "inputs": [],
      "name": "getKeys",
      "outputs": [
        {
          "internalType": "uint256",
          "name": "",
          "type": "uint256"
        },
        {
          "internalType": "uint256",
          "name": "",
          "type": "uint256"
        }
      ],
      "payable": false,
      "stateMutability": "view",
      "type": "function"
    },
    {
      "constant": false,
      "inputs": [
        {
          "internalType": "uint256",
          "name": "_key1",
          "type": "uint256"
        },
        {
          "internalType": "uint256",
          "name": "_key2",
          "type": "uint256"
        },
        {
          "internalType": "uint256",
          "name": "_votePosition",
          "type": "uint256"
        }
      ],
      "name": "verifyVote",
      "outputs": [
        {
          "internalType": "bool",
          "name": "",
          "type": "bool"
        }
      ],
      "payable": false,
      "stateMutability": "nonpayable",
      "type": "function"
    },
    {
      "constant": false,
      "inputs": [],
      "name": "startElection",
      "outputs": [],
      "payable": false,
      "stateMutability": "nonpayable",
      "type": "function"
    },
    {
      "constant": false,
      "inputs": [],
      "name": "changePhase",
      "outputs": [],
      "payable": false,
      "stateMutability": "nonpayable",
      "type": "function"
    },
    {
      "constant": true,
      "inputs": [
        {
          "internalType": "string",
          "name": "text",
          "type": "string"
        }
      ],
      "name": "keccak256_encrypt",
      "outputs": [
        {
          "internalType": "bytes32",
          "name": "",
          "type": "bytes32"
        }
      ],
      "payable": false,
      "stateMutability": "pure",
      "type": "function"
    },
    {
      "constant": true,
      "inputs": [],
      "name": "getWinner",
      "outputs": [
        {
          "internalType": "string",
          "name": "",
          "type": "string"
        }
      ],
      "payable": false,
      "stateMutability": "view",
      "type": "function"
    },
    {
      "constant": true,
      "inputs": [
        {
          "internalType": "string",
          "name": "_message",
          "type": "string"
        },
        {
          "internalType": "bytes",
          "name": "_sig",
          "type": "bytes"
        }
      ],
      "name": "verify",
      "outputs": [
        {
          "internalType": "bool",
          "name": "",
          "type": "bool"
        }
      ],
      "payable": false,
      "stateMutability": "view",
      "type": "function"
    },
    {
      "constant": true,
      "inputs": [
        {
          "internalType": "string",
          "name": "sms",
          "type": "string"
        }
      ],
      "name": "getHash",
      "outputs": [
        {
          "internalType": "bytes32",
          "name": "",
          "type": "bytes32"
        }
      ],
      "payable": false,
      "stateMutability": "pure",
      "type": "function"
    },
    {
      "constant": true,
      "inputs": [
        {
          "internalType": "bytes32",
          "name": "sms",
          "type": "bytes32"
        }
      ],
      "name": "getEthSignedHash",
      "outputs": [
        {
          "internalType": "bytes32",
          "name": "",
          "type": "bytes32"
        }
      ],
      "payable": false,
      "stateMutability": "pure",
      "type": "function"
    },
    {
      "constant": true,
      "inputs": [
        {
          "internalType": "bytes32",
          "name": "_ethSignedMessageHash",
          "type": "bytes32"
        },
        {
          "internalType": "bytes",
          "name": "_sig",
          "type": "bytes"
        }
      ],
      "name": "recover",
      "outputs": [
        {
          "internalType": "address",
          "name": "",
          "type": "address"
        }
      ],
      "payable": false,
      "stateMutability": "pure",
      "type": "function"
    }
  ],
  "bytecode": "0x608060405260405180606001604052806040518060400160405280600c81526020017f726567697374726174696f6e000000000000000000000000000000000000000081525081526020016040518060400160405280600681526020017f766f74696e67000000000000000000000000000000000000000000000000000081525081526020016040518060400160405280600781526020017f726573756c747300000000000000000000000000000000000000000000000000815250815250600a906003620000d092919062000174565b50348015620000de57600080fd5b5033600e60006101000a81548173ffffffffffffffffffffffffffffffffffffffff021916908373ffffffffffffffffffffffffffffffffffffffff1602179055506040518060400160405280601881526020017f456c656374696f6e20686173206e6f7420737461727465640000000000000000815250600790805190602001906200016d929190620001ce565b5062000381565b8260038101928215620001bb579160200282015b82811115620001ba578251829080519060200190620001a992919062000255565b509160200191906001019062000188565b5b509050620001ca9190620002dc565b5090565b828054600181600116156101000203166002900490600052602060002090601f016020900481019282601f106200021157805160ff191683800117855562000242565b8280016001018555821562000242579182015b828111156200024157825182559160200191906001019062000224565b5b5090506200025191906200030d565b5090565b828054600181600116156101000203166002900490600052602060002090601f016020900481019282601f106200029857805160ff1916838001178555620002c9565b82800160010185558215620002c9579182015b82811115620002c8578251825591602001919060010190620002ab565b5b509050620002d891906200030d565b5090565b6200030a91905b80821115620003065760008181620002fc919062000335565b50600101620002e3565b5090565b90565b6200033291905b808211156200032e57600081600090555060010162000314565b5090565b90565b50805460018160011615610100020316600290046000825580601f106200035d57506200037e565b601f0160209004906000526020600020908101906200037d91906200030d565b5b50565b613ce080620003916000396000f3fe608060405234801561001057600080fd5b50600436106101a95760003560e01c80635b6beeb9116100f9578063b108475911610097578063d54c149611610071578063d54c149614610e9e578063db6f595314610f0c578063e3c0327d14610f16578063f731d0e9146110a0576101a9565b8063b108475914610c9d578063b1c9fe6e14610df9578063d25773b714610e7c576101a9565b80638e7ea5b2116100d35780638e7ea5b214610bbc57806398b8b43d14610c3f57806398c0793814610c61578063a3bef4d714610c7f576101a9565b80635b6beeb914610ac557806362d73eb814610b9457806385a3863514610b9e576101a9565b80632b37f53c116101665780633477ee2e116101405780633477ee2e1461074d5780633d9ffad51461086e5780633fee76dc146109d857806344fd417f14610aa7576101a9565b80632b37f53c146105105780632d35a8a2146106ed5780632f4ea5ea1461070b576101a9565b8063101158af146101ae57806319045a25146101cc5780631b1d53f6146102d15780632150c5181461033f57806326541b56146103645780632a61d568146104b6575b600080fd5b6101b66113b7565b6040518082815260200191505060405180910390f35b61028f600480360360408110156101e257600080fd5b81019080803590602001909291908035906020019064010000000081111561020957600080fd5b82018360208201111561021b57600080fd5b8035906020019184600183028401116401000000008311171561023d57600080fd5b91908080601f016020809104026020016040519081016040528093929190818152602001838380828437600081840152601f19601f8201169050808301925050505050505091929192905050506113bd565b604051808273ffffffffffffffffffffffffffffffffffffffff1673ffffffffffffffffffffffffffffffffffffffff16815260200191505060405180910390f35b6102fd600480360360208110156102e757600080fd5b8101908080359060200190929190505050611444565b604051808273ffffffffffffffffffffffffffffffffffffffff1673ffffffffffffffffffffffffffffffffffffffff16815260200191505060405180910390f35b610347611477565b604051808381526020018281526020019250505060405180910390f35b6104b46004803603604081101561037a57600080fd5b810190808035906020019064010000000081111561039757600080fd5b8201836020820111156103a957600080fd5b803590602001918460018302840111640100000000831117156103cb57600080fd5b91908080601f016020809104026020016040519081016040528093929190818152602001838380828437600081840152601f19601f8201169050808301925050505050505091929192908035906020019064010000000081111561042e57600080fd5b82018360208201111561044057600080fd5b8035906020019184600183028401116401000000008311171561046257600080fd5b91908080601f016020809104026020016040519081016040528093929190818152602001838380828437600081840152601f19601f820116905080830192505050505050509192919290505050611508565b005b6104f6600480360360608110156104cc57600080fd5b810190808035906020019092919080359060200190929190803590602001909291905050506116a9565b604051808215151515815260200191505060405180910390f35b610518611933565b6040518080602001806020018060200180602001871515151581526020018615151515815260200185810385528b818151815260200191508051906020019080838360005b8381101561057857808201518184015260208101905061055d565b50505050905090810190601f1680156105a55780820380516001836020036101000a031916815260200191505b5085810384528a818151815260200191508051906020019080838360005b838110156105de5780820151818401526020810190506105c3565b50505050905090810190601f16801561060b5780820380516001836020036101000a031916815260200191505b50858103835289818151815260200191508051906020019080838360005b83811015610644578082015181840152602081019050610629565b50505050905090810190601f1680156106715780820380516001836020036101000a031916815260200191505b50858103825288818151815260200191508051906020019080838360005b838110156106aa57808201518184015260208101905061068f565b50505050905090810190601f1680156106d75780820380516001836020036101000a031916815260200191505b509a505050505050505050505060405180910390f35b6106f5611d68565b6040518082815260200191505060405180910390f35b6107376004803603602081101561072157600080fd5b8101908080359060200190929190505050611d6e565b6040518082815260200191505060405180910390f35b6107796004803603602081101561076357600080fd5b8101908080359060200190929190505050611dc6565b604051808581526020018060200180602001848152602001838103835286818151815260200191508051906020019080838360005b838110156107c95780820151818401526020810190506107ae565b50505050905090810190601f1680156107f65780820380516001836020036101000a031916815260200191505b50838103825285818151815260200191508051906020019080838360005b8381101561082f578082015181840152602081019050610814565b50505050905090810190601f16801561085c5780820380516001836020036101000a031916815260200191505b50965050505050505060405180910390f35b6109be6004803603604081101561088457600080fd5b81019080803590602001906401000000008111156108a157600080fd5b8201836020820111156108b357600080fd5b803590602001918460018302840111640100000000831117156108d557600080fd5b91908080601f016020809104026020016040519081016040528093929190818152602001838380828437600081840152601f19601f8201169050808301925050505050505091929192908035906020019064010000000081111561093857600080fd5b82018360208201111561094a57600080fd5b8035906020019184600183028401116401000000008311171561096c57600080fd5b91908080601f016020809104026020016040519081016040528093929190818152602001838380828437600081840152601f19601f820116905080830192505050505050509192919290505050611f26565b604051808215151515815260200191505060405180910390f35b610a91600480360360208110156109ee57600080fd5b8101908080359060200190640100000000811115610a0b57600080fd5b820183602082011115610a1d57600080fd5b80359060200191846001830284011164010000000083111715610a3f57600080fd5b91908080601f016020809104026020016040519081016040528093929190818152602001838380828437600081840152601f19601f820116905080830192505050505050509192919290505050611fa5565b6040518082815260200191505060405180910390f35b610aaf61203a565b6040518082815260200191505060405180910390f35b610b7e60048036036020811015610adb57600080fd5b8101908080359060200190640100000000811115610af857600080fd5b820183602082011115610b0a57600080fd5b80359060200191846001830284011164010000000083111715610b2c57600080fd5b91908080601f016020809104026020016040519081016040528093929190818152602001838380828437600081840152601f19601f820116905080830192505050505050509192919290505050612040565b6040518082815260200191505060405180910390f35b610b9c6120bb565b005b610ba6612225565b6040518082815260200191505060405180910390f35b610bc461222b565b6040518080602001828103825283818151815260200191508051906020019080838360005b83811015610c04578082015181840152602081019050610be9565b50505050905090810190601f168015610c315780820380516001836020036101000a031916815260200191505b509250505060405180910390f35b610c4761235a565b604051808215151515815260200191505060405180910390f35b610c696123b1565b6040518082815260200191505060405180910390f35b610c876123b7565b6040518082815260200191505060405180910390f35b610df760048036036060811015610cb357600080fd5b810190808035906020019092919080359060200190640100000000811115610cda57600080fd5b820183602082011115610cec57600080fd5b80359060200191846001830284011164010000000083111715610d0e57600080fd5b91908080601f016020809104026020016040519081016040528093929190818152602001838380828437600081840152601f19601f82011690508083019250505050505050919291929080359060200190640100000000811115610d7157600080fd5b820183602082011115610d8357600080fd5b80359060200191846001830284011164010000000083111715610da557600080fd5b91908080601f016020809104026020016040519081016040528093929190818152602001838380828437600081840152601f19601f8201169050808301925050505050505091929192905050506123bd565b005b610e016128f2565b6040518080602001828103825283818151815260200191508051906020019080838360005b83811015610e41578082015181840152602081019050610e26565b50505050905090810190601f168015610e6e5780820380516001836020036101000a031916815260200191505b509250505060405180910390f35b610e84612990565b604051808215151515815260200191505060405180910390f35b610eca60048036036020811015610eb457600080fd5b81019080803590602001909291905050506129e7565b604051808273ffffffffffffffffffffffffffffffffffffffff1673ffffffffffffffffffffffffffffffffffffffff16815260200191505060405180910390f35b610f14612a1a565b005b610f4260048036036020811015610f2c57600080fd5b8101908080359060200190929190505050612b63565b6040518080602001806020018060200185151515158152602001848103845288818151815260200191508051906020019080838360005b83811015610f94578082015181840152602081019050610f79565b50505050905090810190601f168015610fc15780820380516001836020036101000a031916815260200191505b50848103835287818151815260200191508051906020019080838360005b83811015610ffa578082015181840152602081019050610fdf565b50505050905090810190601f1680156110275780820380516001836020036101000a031916815260200191505b50848103825286818151815260200191508051906020019080838360005b83811015611060578082015181840152602081019050611045565b50505050905090810190601f16801561108d5780820380516001836020036101000a031916815260200191505b5097505050505050505060405180910390f35b6113b5600480360360a08110156110b657600080fd5b81019080803590602001906401000000008111156110d357600080fd5b8201836020820111156110e557600080fd5b8035906020019184600183028401116401000000008311171561110757600080fd5b91908080601f016020809104026020016040519081016040528093929190818152602001838380828437600081840152601f19601f8201169050808301925050505050505091929192908035906020019064010000000081111561116a57600080fd5b82018360208201111561117c57600080fd5b8035906020019184600183028401116401000000008311171561119e57600080fd5b91908080601f016020809104026020016040519081016040528093929190818152602001838380828437600081840152601f19601f8201169050808301925050505050505091929192908035906020019064010000000081111561120157600080fd5b82018360208201111561121357600080fd5b8035906020019184600183028401116401000000008311171561123557600080fd5b91908080601f016020809104026020016040519081016040528093929190818152602001838380828437600081840152601f19601f8201169050808301925050505050505091929192908035906020019064010000000081111561129857600080fd5b8201836020820111156112aa57600080fd5b803590602001918460018302840111640100000000831117156112cc57600080fd5b91908080601f016020809104026020016040519081016040528093929190818152602001838380828437600081840152601f19601f8201169050808301925050505050505091929192908035906020019064010000000081111561132f57600080fd5b82018360208201111561134157600080fd5b8035906020019184600183028401116401000000008311171561136357600080fd5b91908080601f016020809104026020016040519081016040528093929190818152602001838380828437600081840152601f19601f820116905080830192505050505050509192919290505050612d68565b005b600f5481565b6000806000806113cc8561316b565b92509250925060018682858560405160008152602001604052604051808581526020018460ff1660ff1681526020018381526020018281526020019450505050506020604051602081039080840390855afa15801561142f573d6000803e3d6000fd5b50505060206040510351935050505092915050565b60056020528060005260406000206000915054906101000a900473ffffffffffffffffffffffffffffffffffffffff1681565b600080600260003373ffffffffffffffffffffffffffffffffffffffff1673ffffffffffffffffffffffffffffffffffffffff16815260200190815260200160002060000154600260003373ffffffffffffffffffffffffffffffffffffffff1673ffffffffffffffffffffffffffffffffffffffff16815260200190815260200160002060010154915091509091565b600e60009054906101000a900473ffffffffffffffffffffffffffffffffffffffff1673ffffffffffffffffffffffffffffffffffffffff163373ffffffffffffffffffffffffffffffffffffffff16146115ae576040517f08c379a0000000000000000000000000000000000000000000000000000000008152600401808060200182810382526024815260200180613c886024913960400191505060405180910390fd5b6000600d54111561160a576040517f08c379a000000000000000000000000000000000000000000000000000000000815260040180806020018281038252602b815260200180613c3c602b913960400191505060405180910390fd5b600660008154809291906001019190505550604051806080016040528060065481526020018381526020018281526020016000815250600080600654815260200190815260200160002060008201518160000155602082015181600101908051906020019061167a929190613a6d565b506040820151816002019080519060200190611697929190613a6d565b50606082015181600301559050505050565b6000600160003373ffffffffffffffffffffffffffffffffffffffff1673ffffffffffffffffffffffffffffffffffffffff16815260200190815260200160002060060160009054906101000a900460ff1661176d576040517f08c379a000000000000000000000000000000000000000000000000000000000815260040180806020018281038252601e8152602001807f4f6e6c7920726567697374657265642075736572732063616e20766f7465000081525060200191505060405180910390fd5b600160003373ffffffffffffffffffffffffffffffffffffffff1673ffffffffffffffffffffffffffffffffffffffff16815260200190815260200160002060010160009054906101000a900460ff1661182f576040517f08c379a000000000000000000000000000000000000000000000000000000000815260040180806020018281038252600d8152602001807f416c726561647920566f7465640000000000000000000000000000000000000081525060200191505060405180910390fd5b6000806118e2600160003373ffffffffffffffffffffffffffffffffffffffff1673ffffffffffffffffffffffffffffffffffffffff168152602001908152602001600020600701547f79be667ef9dcbbac55a06295ce870b07029bfcdb2dce28d959f2815b16f817987f483ada7726a3c4655da4fbfc0e1108a8fd17b448a68554199c47d08ffb10d4b860007ffffffffffffffffffffffffffffffffffffffffffffffffffffffffefffffc2f613206565b91509150600082871480156118f657508186145b9050806003600087815260200190815260200160002060030160006101000a81548160ff0219169083151502179055508093505050509392505050565b606080606080600080600160003373ffffffffffffffffffffffffffffffffffffffff1673ffffffffffffffffffffffffffffffffffffffff168152602001908152602001600020600301600160003373ffffffffffffffffffffffffffffffffffffffff1673ffffffffffffffffffffffffffffffffffffffff168152602001908152602001600020600401600160003373ffffffffffffffffffffffffffffffffffffffff1673ffffffffffffffffffffffffffffffffffffffff168152602001908152602001600020600201600160003373ffffffffffffffffffffffffffffffffffffffff1673ffffffffffffffffffffffffffffffffffffffff168152602001908152602001600020600501600160003373ffffffffffffffffffffffffffffffffffffffff1673ffffffffffffffffffffffffffffffffffffffff16815260200190815260200160002060060160009054906101000a900460ff16600160003373ffffffffffffffffffffffffffffffffffffffff1673ffffffffffffffffffffffffffffffffffffffff16815260200190815260200160002060010160009054906101000a900460ff16858054600181600116156101000203166002900480601f016020809104026020016040519081016040528092919081815260200182805460018160011615610100020316600290048015611b795780601f10611b4e57610100808354040283529160200191611b79565b820191906000526020600020905b815481529060010190602001808311611b5c57829003601f168201915b50505050509550848054600181600116156101000203166002900480601f016020809104026020016040519081016040528092919081815260200182805460018160011615610100020316600290048015611c155780601f10611bea57610100808354040283529160200191611c15565b820191906000526020600020905b815481529060010190602001808311611bf857829003601f168201915b50505050509450838054600181600116156101000203166002900480601f016020809104026020016040519081016040528092919081815260200182805460018160011615610100020316600290048015611cb15780601f10611c8657610100808354040283529160200191611cb1565b820191906000526020600020905b815481529060010190602001808311611c9457829003601f168201915b50505050509350828054600181600116156101000203166002900480601f016020809104026020016040519081016040528092919081815260200182805460018160011615610100020316600290048015611d4d5780601f10611d2257610100808354040283529160200191611d4d565b820191906000526020600020905b815481529060010190602001808311611d3057829003601f168201915b50505050509250955095509550955095509550909192939495565b60065481565b60008160405160200180807f19457468657265756d205369676e6564204d6573736167653a0a333200000000815250601c01828152602001915050604051602081830303815290604052805190602001209050919050565b6000602052806000526040600020600091509050806000015490806001018054600181600116156101000203166002900480601f016020809104026020016040519081016040528092919081815260200182805460018160011615610100020316600290048015611e785780601f10611e4d57610100808354040283529160200191611e78565b820191906000526020600020905b815481529060010190602001808311611e5b57829003601f168201915b505050505090806002018054600181600116156101000203166002900480601f016020809104026020016040519081016040528092919081815260200182805460018160011615610100020316600290048015611f165780601f10611eeb57610100808354040283529160200191611f16565b820191906000526020600020905b815481529060010190602001808311611ef957829003601f168201915b5050505050908060030154905084565b600080611f3284612040565b90506000611f3f82611d6e565b9050600e60009054906101000a900473ffffffffffffffffffffffffffffffffffffffff1673ffffffffffffffffffffffffffffffffffffffff16611f8482866113bd565b73ffffffffffffffffffffffffffffffffffffffff16149250505092915050565b6000816040516020018080602001828103825283818151815260200191508051906020019080838360005b83811015611feb578082015181840152602081019050611fd0565b50505050905090810190601f1680156120185780820380516001836020036101000a031916815260200191505b5092505050604051602081830303815290604052805190602001209050919050565b600d5481565b6000816040516020018082805190602001908083835b602083106120795780518252602082019150602081019050602083039250612056565b6001836020036101000a038019825116818451168082178552505050505050905001915050604051602081830303815290604052805190602001209050919050565b600e60009054906101000a900473ffffffffffffffffffffffffffffffffffffffff1673ffffffffffffffffffffffffffffffffffffffff163373ffffffffffffffffffffffffffffffffffffffff1614612161576040517f08c379a0000000000000000000000000000000000000000000000000000000008152600401808060200182810382526024815260200180613c886024913960400191505060405180910390fd5b6001600d541415801561217757506002600d5414155b6121e9576040517f08c379a00000000000000000000000000000000000000000000000000000000081526004018080602001828103825260128152602001807f566f74696e6720696e2070726f6772657373000000000000000000000000000081525060200191505060405180910390fd5b6000600d81905550600a600d546003811061220057fe5b0160079080546001816001161561010002031660029004612222929190613aed565b50565b60105481565b60606000600190506000806000600181526020019081526020016000206003015490506000600290505b60065481116122a45781600080838152602001908152602001600020600301541115612297578092506000808281526020019081526020016000206003015491505b8080600101915050612255565b506000808381526020019081526020016000206001018054600181600116156101000203166002900480601f01602080910402602001604051908101604052809291908181526020018280546001816001161561010002031660029004801561234e5780601f106123235761010080835404028352916020019161234e565b820191906000526020600020905b81548152906001019060200180831161233157829003601f168201915b50505050509250505090565b6000600160003373ffffffffffffffffffffffffffffffffffffffff1673ffffffffffffffffffffffffffffffffffffffff16815260200190815260200160002060010160009054906101000a900460ff16905090565b60085481565b60095481565b600160003373ffffffffffffffffffffffffffffffffffffffff1673ffffffffffffffffffffffffffffffffffffffff16815260200190815260200160002060060160009054906101000a900460ff1661247f576040517f08c379a000000000000000000000000000000000000000000000000000000000815260040180806020018281038252601e8152602001807f4f6e6c7920726567697374657265642075736572732063616e20766f7465000081525060200191505060405180910390fd5b600160003373ffffffffffffffffffffffffffffffffffffffff1673ffffffffffffffffffffffffffffffffffffffff16815260200190815260200160002060010160009054906101000a900460ff1615612542576040517f08c379a000000000000000000000000000000000000000000000000000000000815260040180806020018281038252600d8152602001807f416c726561647920566f7465640000000000000000000000000000000000000081525060200191505060405180910390fd5b60008311801561255457506006548311155b61255d57600080fd5b60018060003373ffffffffffffffffffffffffffffffffffffffff1673ffffffffffffffffffffffffffffffffffffffff16815260200190815260200160002060010160006101000a81548160ff021916908315150217905550600080848152602001908152602001600020600301600081548092919060010191905055506125e4613240565b600160003373ffffffffffffffffffffffffffffffffffffffff1673ffffffffffffffffffffffffffffffffffffffff168152602001908152602001600020600701819055506000806126dd600160003373ffffffffffffffffffffffffffffffffffffffff1673ffffffffffffffffffffffffffffffffffffffff168152602001908152602001600020600701547f79be667ef9dcbbac55a06295ce870b07029bfcdb2dce28d959f2815b16f817987f483ada7726a3c4655da4fbfc0e1108a8fd17b448a68554199c47d08ffb10d4b860007ffffffffffffffffffffffffffffffffffffffffffffffffffffffffefffffc2f613206565b91509150604051806040016040528083815260200182815250600260003373ffffffffffffffffffffffffffffffffffffffff1673ffffffffffffffffffffffffffffffffffffffff16815260200190815260200160002060008201518160000155602082015181600101559050506040518060800160405280600160003373ffffffffffffffffffffffffffffffffffffffff1673ffffffffffffffffffffffffffffffffffffffff1681526020019081526020016000206005018054600181600116156101000203166002900480601f01602080910402602001604051908101604052809291908181526020018280546001816001161561010002031660029004801561282d5780601f106128025761010080835404028352916020019161282d565b820191906000526020600020905b81548152906001019060200180831161281057829003601f168201915b5050505050815260200185815260200184815260200160001515815250600360006009548152602001908152602001600020600082015181600001908051906020019061287b929190613a6d565b506020820151816001019080519060200190612898929190613a6d565b5060408201518160020190805190602001906128b5929190613a6d565b5060608201518160030160006101000a81548160ff0219169083151502179055509050506009600081548092919060010191905055505050505050565b60078054600181600116156101000203166002900480601f0160208091040260200160405190810160405280929190818152602001828054600181600116156101000203166002900480156129885780601f1061295d57610100808354040283529160200191612988565b820191906000526020600020905b81548152906001019060200180831161296b57829003601f168201915b505050505081565b6000600160003373ffffffffffffffffffffffffffffffffffffffff1673ffffffffffffffffffffffffffffffffffffffff16815260200190815260200160002060060160009054906101000a900460ff16905090565b60046020528060005260406000206000915054906101000a900473ffffffffffffffffffffffffffffffffffffffff1681565b600e60009054906101000a900473ffffffffffffffffffffffffffffffffffffffff1673ffffffffffffffffffffffffffffffffffffffff163373ffffffffffffffffffffffffffffffffffffffff1614612ac0576040517f08c379a0000000000000000000000000000000000000000000000000000000008152600401808060200182810382526024815260200180613c886024913960400191505060405180910390fd5b600d600081548092919060010191905055506003600d541015612b1457600a600d5460038110612aec57fe5b0160079080546001816001161561010002031660029004612b0e929190613aed565b50612b61565b6040518060400160405280600e81526020017f456c656374696f6e20656e64656400000000000000000000000000000000000081525060079080519060200190612b5f929190613b74565b505b565b6003602052806000526040600020600091509050806000018054600181600116156101000203166002900480601f016020809104026020016040519081016040528092919081815260200182805460018160011615610100020316600290048015612c0f5780601f10612be457610100808354040283529160200191612c0f565b820191906000526020600020905b815481529060010190602001808311612bf257829003601f168201915b505050505090806001018054600181600116156101000203166002900480601f016020809104026020016040519081016040528092919081815260200182805460018160011615610100020316600290048015612cad5780601f10612c8257610100808354040283529160200191612cad565b820191906000526020600020905b815481529060010190602001808311612c9057829003601f168201915b505050505090806002018054600181600116156101000203166002900480601f016020809104026020016040519081016040528092919081815260200182805460018160011615610100020316600290048015612d4b5780601f10612d2057610100808354040283529160200191612d4b565b820191906000526020600020905b815481529060010190602001808311612d2e57829003601f168201915b5050505050908060030160009054906101000a900460ff16905084565b60003390506000612d7887611fa5565b90506000600160008473ffffffffffffffffffffffffffffffffffffffff1673ffffffffffffffffffffffffffffffffffffffff16815260200190815260200160002090508060060160009054906101000a900460ff1615612e25576040517f08c379a0000000000000000000000000000000000000000000000000000000008152600401808060200182810382526021815260200180613c676021913960400191505060405180910390fd5b600073ffffffffffffffffffffffffffffffffffffffff166004600084815260200190815260200160002060009054906101000a900473ffffffffffffffffffffffffffffffffffffffff1673ffffffffffffffffffffffffffffffffffffffff1614612efa576040517f08c379a000000000000000000000000000000000000000000000000000000000815260040180806020018281038252601a8152602001807f506572736f6e616c20494420616c726561647920696e2075736500000000000081525060200191505060405180910390fd5b8260056000600854815260200190815260200160002060006101000a81548173ffffffffffffffffffffffffffffffffffffffff021916908373ffffffffffffffffffffffffffffffffffffffff1602179055506040518061012001604052808381526020016000151581526020018473ffffffffffffffffffffffffffffffffffffffff168152602001888152602001878152602001868152602001858152602001600115158152602001600a815250600160008573ffffffffffffffffffffffffffffffffffffffff1673ffffffffffffffffffffffffffffffffffffffff1681526020019081526020016000206000820151816000015560208201518160010160006101000a81548160ff02191690831515021790555060408201518160010160016101000a81548173ffffffffffffffffffffffffffffffffffffffff021916908373ffffffffffffffffffffffffffffffffffffffff1602179055506060820151816002019080519060200190613077929190613a6d565b506080820151816003019080519060200190613094929190613a6d565b5060a08201518160040190805190602001906130b1929190613a6d565b5060c08201518160050190805190602001906130ce929190613a6d565b5060e08201518160060160006101000a81548160ff0219169083151502179055506101008201518160070155905050826004600084815260200190815260200160002060006101000a81548173ffffffffffffffffffffffffffffffffffffffff021916908373ffffffffffffffffffffffffffffffffffffffff1602179055506008600081548092919060010191905055505050505050505050565b600080600060418451146131e7576040517f08c379a00000000000000000000000000000000000000000000000000000000081526004018080602001828103825260188152602001807f696e76616c6964207369676e6174757265206c656e677468000000000000000081525060200191505060405180910390fd5b6020840151925060408401519150606084015160001a90509193909250565b600080600080600061321d8a8a8a60018b8b613285565b92509250925061322f8383838961332a565b945094505050509550959350505050565b6000426009546006546040516020018084815260200183815260200182815260200193505050506040516020818303038152906040528051906020012060001c905090565b6000806000808914156132a05787878792509250925061331e565b6000899050600080905060008090506000600190505b6000841461331057600060018516146132e5576132d88383838f8f8f8e613385565b8093508194508295505050505b600284816132ef57fe5b0493506132ff8c8c8c8c8c613856565b809c50819d50829e505050506132b6565b828282965096509650505050505b96509650969350505050565b60008060006133398585613975565b90506000848061334557fe5b82830990506000858061335457fe5b828a0990506000868061336357fe5b878061336b57fe5b8486098a0990508181955095505050505094509492505050565b6000806000808a1480156133995750600089145b156133ac57868686925092509250613849565b6000871480156133bc5750600086145b156133cf57898989925092509250613849565b6133d7613bf4565b84806133df57fe5b898a09816000600481106133ef57fe5b602002018181525050848061340057fe5b8160006004811061340d57fe5b60200201518a098160016004811061342157fe5b602002018181525050848061343257fe5b8687098160026004811061344257fe5b602002018181525050848061345357fe5b8160026004811061346057fe5b602002015187098160036004811061347457fe5b6020020181815250506040518060800160405280868061349057fe5b8360026004811061349d57fe5b60200201518e09815260200186806134b157fe5b836003600481106134be57fe5b60200201518d09815260200186806134d257fe5b836000600481106134df57fe5b60200201518b09815260200186806134f357fe5b8360016004811061350057fe5b60200201518a0981525090508060026004811061351957fe5b60200201518160006004811061352b57fe5b602002015114158061355f57508060036004811061354557fe5b60200201518160016004811061355757fe5b602002015114155b6135d1576040517f08c379a000000000000000000000000000000000000000000000000000000000815260040180806020018281038252601e8152602001807f557365206a6163446f75626c652066756e6374696f6e20696e7374656164000081525060200191505060405180910390fd5b6135d9613bf4565b85806135e157fe5b826000600481106135ee57fe5b602002015187038360026004811061360257fe5b6020020151088160006004811061361557fe5b602002018181525050858061362657fe5b8260016004811061363357fe5b602002015187038360036004811061364757fe5b6020020151088160016004811061365a57fe5b602002018181525050858061366b57fe5b8160006004811061367857fe5b60200201518260006004811061368a57fe5b6020020151098160026004811061369d57fe5b60200201818152505085806136ae57fe5b816000600481106136bb57fe5b6020020151826002600481106136cd57fe5b602002015109816003600481106136e057fe5b602002018181525050600086806136f357fe5b8260036004811061370057fe5b60200201518803888061370f57fe5b8460016004811061371c57fe5b60200201518560016004811061372e57fe5b602002015109089050868061373f57fe5b878061374757fe5b888061374f57fe5b8460026004811061375c57fe5b60200201518660006004811061376e57fe5b6020020151096002098803820890506000878061378757fe5b888061378f57fe5b838a038a8061379a57fe5b866002600481106137a757fe5b6020020151886000600481106137b957fe5b60200201510908846001600481106137cd57fe5b602002015109905087806137dd57fe5b88806137e557fe5b846003600481106137f257fe5b60200201518660016004811061380457fe5b6020020151098903820890506000888061381a57fe5b898061382257fe5b8b8f098560006004811061383257fe5b602002015109905082828297509750975050505050505b9750975097945050505050565b6000806000808614156138715787878792509250925061396a565b6000848061387b57fe5b898a0990506000858061388a57fe5b898a0990506000868061389957fe5b898a099050600087806138a857fe5b88806138b057fe5b848e096004099050600088806138c257fe5b89806138ca57fe5b8a806138d257fe5b8586098c098a806138df57fe5b8760030908905088806138ee57fe5b89806138f657fe5b8384088a038a8061390357fe5b838409089450888061391157fe5b898061391957fe5b8a8061392157fe5b8687096008098a038a8061393157fe5b8b8061393957fe5b888d0386088409089350888061394b57fe5b898061395357fe5b8c8e09600209925084848497509750975050505050505b955095509592505050565b60008083141580156139875750818314155b8015613994575060008214155b613a06576040517f08c379a000000000000000000000000000000000000000000000000000000000815260040180806020018281038252600e8152602001807f496e76616c6964206e756d62657200000000000000000000000000000000000081525060200191505060405180910390fd5b6000809050600060019050600084905060005b60008714613a6057868281613a2a57fe5b049050828680613a3657fe5b8780613a3e57fe5b8584098803860880945081955050508687820283038098508193505050613a19565b8394505050505092915050565b828054600181600116156101000203166002900490600052602060002090601f016020900481019282601f10613aae57805160ff1916838001178555613adc565b82800160010185558215613adc579182015b82811115613adb578251825591602001919060010190613ac0565b5b509050613ae99190613c16565b5090565b828054600181600116156101000203166002900490600052602060002090601f016020900481019282601f10613b265780548555613b63565b82800160010185558215613b6357600052602060002091601f016020900482015b82811115613b62578254825591600101919060010190613b47565b5b509050613b709190613c16565b5090565b828054600181600116156101000203166002900490600052602060002090601f016020900481019282601f10613bb557805160ff1916838001178555613be3565b82800160010185558215613be3579182015b82811115613be2578251825591602001919060010190613bc7565b5b509050613bf09190613c16565b5090565b6040518060800160405280600490602082028038833980820191505090505090565b613c3891905b80821115613c34576000816000905550600101613c1c565b5090565b9056fe43616e6e6f74206164642063616e6469646174657320647572696e6720766f74696e672070726f63657373546865207075626c6963206164647265737320616c726561647920696e207573654f6e6c792041646d696e2063616e20706572666f726d20746869732066756e6374696f6ea265627a7a723158204a4900a71e2d3a53f9e34a13e9fded311afa5ac5f87cfb5c890f967c4709b5cf64736f6c63430005100032",
  "source": "// SPDX-License-Identifier: MIT \r\npragma solidity  >=0.5.16;\r\nimport \"./EllipticCurve.sol\";\r\n\r\ncontract Election { \r\n\r\n    struct voter {\r\n        bytes32 personal_id; //their personal id\r\n        bool hasVoted; //have they voted\r\n        address public_Address; //public address to wallet\r\n        string email; //email address for communication\r\n        string name; //name of voter \r\n        string surname; \r\n        string refNUm; \r\n        bool isRegistered;\r\n        uint256 PrivateKey;\r\n    }\r\n    struct keys {\r\n        uint256 PublicKey1;\r\n        uint256 PublicKey2;\r\n    }\r\n\r\n    struct votingRecords{\r\n        string ref;\r\n        string voteDate;\r\n        string voteTime;\r\n        bool isVerified;\r\n    }\r\n\r\n    \r\n\r\n\r\n     // Model a Candidate\r\n    struct Candidate {\r\n        uint id;\r\n        string name;\r\n        string party;\r\n        uint voteCount;\r\n    }\r\n    //ECC CONSTANTS - SECPTIC256\r\n    uint256 private constant GX = 0x79BE667EF9DCBBAC55A06295CE870B07029BFCDB2DCE28D959F2815B16F81798;\r\n    uint256 private constant GY = 0x483ADA7726A3C4655DA4FBFC0E1108A8FD17B448A68554199C47D08FFB10D4B8;\r\n    uint256 private constant AA = 0;\r\n    uint256 private constant BB = 7;\r\n    uint256 private constant PP = 0xFFFFFFFFFFFFFFFFFFFFFFFFFFFFFFFFFFFFFFFFFFFFFFFFFFFFFFFEFFFFFC2F;\r\n\r\n    // Read/write candidate\r\n    mapping(uint => Candidate) public candidates;\r\n\r\n    // Store accounts that have voted\r\n    mapping(address => voter) private voters;\r\n\r\n    mapping(address => keys) private pKeys; //keeps public keys\r\n\r\n    mapping(uint => votingRecords) public votingTrails;\r\n\r\n    // Stores encyrted ID'S\r\n    mapping(bytes32 => address) public verifier;\r\n    mapping(uint => address) public recorder;\r\n\r\n\r\n    // Store Candidates Count\r\n    uint public candidatesCount;\r\n\r\n    // Stores Election phase\r\n    string public phase;\r\n\r\n    // Store number of voters\r\n    uint public votersCount;\r\n\r\n    //number of total votes\r\n    uint public numVotes;\r\n\r\n    string[3] phases = [\"registration\" , \"voting\", \"results\"];\r\n    uint public phasePointer;\r\n\r\n    // Admin is set once, when contract is deployed. Also saves gas fees\r\n    address private admin;\r\n    uint256 public votingStart;  //start of phase\r\n    uint256 public votingEnd; //end of phase\r\n\r\n    constructor() public { \r\n        admin = msg.sender;\r\n        phase=\"Election has not started\";\r\n    } \r\n\r\n    modifier onlyAdmin(){\r\n\t\trequire(msg.sender==admin, \"Only Admin can perform this function\");\r\n\t\t_;\r\n\t}\r\n\r\n       // Add a candidate\r\n    function addCandidate (string memory _name, string memory _party) onlyAdmin public {\r\n        require(phasePointer<=0, \"Cannot add candidates during voting process\");\r\n        candidatesCount ++;\r\n        candidates[candidatesCount] = Candidate({\r\n            id: candidatesCount, \r\n            name: _name,\r\n            party: _party, \r\n            voteCount: 0\r\n            });\r\n    }\r\n\r\n\r\n     // Add a voter\r\n    function addVoter (string memory _personal_id, string memory _email, string memory _name, string memory _surname, string memory _ref) public {\r\n            address _pAdress = msg.sender; \r\n            bytes32 encrypt_id = keccak256_encrypt(_personal_id);  //encrypt personal id\r\n            voter storage user = voters[_pAdress];\r\n            require(!user.isRegistered, \"The public address already in use\"); //require that the user is not registered\r\n\r\n            //require that personal_id is not already in use\r\n            require(verifier[encrypt_id] == 0x0000000000000000000000000000000000000000, \"Personal ID already in use\");\r\n            recorder[votersCount] = _pAdress;\r\n            voters[_pAdress] = voter( {personal_id: encrypt_id, \r\n                            hasVoted:false, \r\n                            public_Address:_pAdress,\r\n                            email: _email, \r\n                            name:_name, \r\n                            surname: _surname, \r\n                            refNUm: _ref,\r\n                            isRegistered:true,\r\n                            PrivateKey:uint256(10)\r\n                    });\r\n            \r\n           \r\n            verifier[encrypt_id] = _pAdress;\r\n            votersCount ++;\r\n            \r\n    }\r\n\r\n    //get voter details to display to voter\r\n    function getVoter() public view returns(string memory, string memory, string memory, string memory, bool, bool){\r\n            return(voters[msg.sender].name, voters[msg.sender].surname, voters[msg.sender].email, voters[msg.sender].refNUm, voters[msg.sender].isRegistered, voters[msg.sender].hasVoted);             \r\n    }\r\n\r\n    //returns true if voter registered\r\n    function isVoter_Registered() public view returns (bool){\r\n        return voters[msg.sender].isRegistered;\r\n    }\r\n\r\n    \r\n  // https://stackoverflow.com/questions/73555009/how-to-generate-random-words-in-solidity-based-based-on-a-string-of-letters/73557284#73557284\r\n  function random() private view returns (uint256) {\r\n        return uint256 (keccak256(abi.encodePacked (block.timestamp, numVotes, candidatesCount)));\r\n     }\r\n\r\n     //returns true if voter registered\r\n    function has_Voted() public view returns (bool){\r\n        return voters[msg.sender].hasVoted;\r\n    }\r\n\r\n    // voting function, all accounts can vote\r\n    function vote (uint _candidateId, string memory _date, string memory _time) public {\r\n\r\n        //must be registered to vote\r\n        require(voters[msg.sender].isRegistered, \"Only registered users can vote\");\r\n\r\n        // require that they haven't voted before\r\n        require(!voters[msg.sender].hasVoted, \"Already Voted\"); \r\n        \r\n        // require a valid candidate\r\n        require(_candidateId > 0 && _candidateId <= candidatesCount);\r\n\r\n        // record that voter has voted\r\n        voters[msg.sender].hasVoted = true;\r\n\r\n        // update candidate vote Count\r\n        candidates[_candidateId].voteCount ++;\r\n\r\n        voters[msg.sender].PrivateKey = random();  //CREATE PRIVATE KEY\r\n        (uint p1, uint p2) = EllipticCurve.ecMul(voters[msg.sender].PrivateKey,GX,GY,AA,PP); //CREATE Public Keys\r\n        pKeys[msg.sender] = keys({\r\n                PublicKey1:p1,\r\n                PublicKey2:p2\r\n        });\r\n        votingTrails[numVotes] = votingRecords({\r\n                                                ref:voters[msg.sender].refNUm,\r\n                                                voteDate:_date,\r\n                                                voteTime:_time,\r\n                                                isVerified:false\r\n                                         });\r\n         numVotes++;\r\n        \r\n    }\r\n\r\n      function getKeys() public view returns(uint256, uint256){\r\n            return(pKeys[msg.sender].PublicKey1, pKeys[msg.sender].PublicKey2);             \r\n    }\r\n\r\n    function verifyVote(uint256 _key1, uint256 _key2, uint _votePosition) public returns(bool){\r\n                 //must be registered to vote\r\n        require(voters[msg.sender].isRegistered, \"Only registered users can vote\");\r\n\r\n        // require that they haven't voted before\r\n        require(voters[msg.sender].hasVoted, \"Already Voted\");\r\n\r\n        (uint p1, uint p2) = EllipticCurve.ecMul(voters[msg.sender].PrivateKey,GX,GY,AA,PP); //creating public keys\r\n        bool isREal =  (_key1==p1 && _key2==p2);\r\n        votingTrails[_votePosition].isVerified = isREal;\r\n        return isREal;\r\n\r\n\r\n    }\r\n\r\n\r\n    // start election\r\n    function startElection() onlyAdmin public {\r\n            require(phasePointer!=1 && phasePointer!=2, \"Voting in progress\");\r\n            phasePointer = 0;\r\n            phase = phases[phasePointer]; //contract is deployed in the registration phase\r\n    \r\n    }\r\n\r\n    //change election phase\r\n    function changePhase() onlyAdmin public {\r\n        phasePointer++;\r\n        if (phasePointer <3) {\r\n            phase = phases[phasePointer];\r\n        } else {\r\n            phase = \"Election ended\";\r\n        }\r\n\r\n    }\r\n\r\n\r\n    //hash function\r\n    function keccak256_encrypt(string memory text) public pure returns (bytes32) {\r\n        return keccak256(abi.encode(text));\r\n    }\r\n\r\n    function getWinner() public view returns(string memory) {\r\n        uint winner = 1;\r\n        uint voterS = candidates[1].voteCount;\r\n        for (uint index = 2; index <=  candidatesCount; index++) {\r\n            if(candidates[index].voteCount > voterS){\r\n                winner = index;\r\n                voterS = candidates[index].voteCount;\r\n                }\r\n        }\r\n        return (candidates[winner].name);\r\n\r\n    }\r\n\r\n\r\n    //<----------------------------------- Verifies signed message -------------------------------->\r\n    function verify (string memory _message, bytes memory _sig) public view returns (bool) {\r\n        bytes32 hash_SMS = getHash(_message);\r\n        bytes32 ethSignedMessageHash = getEthSignedHash(hash_SMS);\r\n        return recover(ethSignedMessageHash, _sig) == admin;\r\n    }\r\n    \r\n    //has a tring\r\n    function getHash (string memory sms) public pure returns (bytes32){\r\n        return keccak256(abi.encodePacked(sms));\r\n    }\r\n\r\n\r\n    function getEthSignedHash (bytes32 sms) public pure returns (bytes32){\r\n        return keccak256(abi.encodePacked(\"\\x19Ethereum Signed Message:\\n32\", sms));\r\n    }\r\n\r\n\r\n    //recover account of original signer of message\r\n    function recover(bytes32 _ethSignedMessageHash, bytes memory _sig) public pure returns (address){\r\n            (bytes32 r, bytes32 s, uint8 v) = _split(_sig); //split signature into params\r\n            return ecrecover(_ethSignedMessageHash, v, r, s); //returns the address of the signer given the signed message\r\n    }\r\n\r\n    function _split(bytes memory _sig) internal pure returns (bytes32 r, bytes32 s, uint8 v){\r\n            require(_sig.length == 65, \"invalid signature length\");\r\n\r\n            assembly {\r\n                r := mload(add(_sig, 32))  //skip first 32-byetes as they hold the length\r\n                s := mload(add(_sig, 64))\r\n                v := byte(0, mload(add(_sig, 96)))\r\n\r\n            }\r\n    }\r\n\r\n    //<----------------------------------- ECC CRYPTOGRAPHY -------------------------------->\r\n\r\n}",
  "sourcePath": "C:\\Users\\Student\\Documents\\crypto\\Code\\contracts\\Election.sol",
  "compiler": {
    "name": "solc",
    "version": "0.5.16+commit.9c3226ce.Emscripten.clang"
  },
  "schemaVersion": "3.4.14",
  "updatedAt": "2023-09-28T15:43:51.121Z",
  "networkType": "ethereum",
  "devdoc": {
    "methods": {}
  },
  "userdoc": {
    "methods": {}
  }
}