{
  "contractName": "Election",
  "abi": [
    {
      "inputs": [],
      "payable": false,
      "stateMutability": "nonpayable",
      "type": "constructor"
    },
    {
      "constant": true,
      "inputs": [
        {
          "internalType": "uint256",
          "name": "",
          "type": "uint256"
        }
      ],
      "name": "candidates",
      "outputs": [
        {
          "internalType": "uint256",
          "name": "id",
          "type": "uint256"
        },
        {
          "internalType": "string",
          "name": "name",
          "type": "string"
        },
        {
          "internalType": "string",
          "name": "party",
          "type": "string"
        },
        {
          "internalType": "uint256",
          "name": "voteCount",
          "type": "uint256"
        }
      ],
      "payable": false,
      "stateMutability": "view",
      "type": "function"
    },
    {
      "constant": true,
      "inputs": [],
      "name": "candidatesCount",
      "outputs": [
        {
          "internalType": "uint256",
          "name": "",
          "type": "uint256"
        }
      ],
      "payable": false,
      "stateMutability": "view",
      "type": "function"
    },
    {
      "constant": true,
      "inputs": [
        {
          "internalType": "string",
          "name": "",
          "type": "string"
        }
      ],
      "name": "ellipter",
      "outputs": [
        {
          "internalType": "uint256",
          "name": "",
          "type": "uint256"
        }
      ],
      "payable": false,
      "stateMutability": "view",
      "type": "function"
    },
    {
      "constant": true,
      "inputs": [],
      "name": "numVotes",
      "outputs": [
        {
          "internalType": "uint256",
          "name": "",
          "type": "uint256"
        }
      ],
      "payable": false,
      "stateMutability": "view",
      "type": "function"
    },
    {
      "constant": true,
      "inputs": [],
      "name": "phase",
      "outputs": [
        {
          "internalType": "string",
          "name": "",
          "type": "string"
        }
      ],
      "payable": false,
      "stateMutability": "view",
      "type": "function"
    },
    {
      "constant": true,
      "inputs": [],
      "name": "phasePointer",
      "outputs": [
        {
          "internalType": "uint256",
          "name": "",
          "type": "uint256"
        }
      ],
      "payable": false,
      "stateMutability": "view",
      "type": "function"
    },
    {
      "constant": true,
      "inputs": [
        {
          "internalType": "uint256",
          "name": "",
          "type": "uint256"
        }
      ],
      "name": "recorder",
      "outputs": [
        {
          "internalType": "address",
          "name": "",
          "type": "address"
        }
      ],
      "payable": false,
      "stateMutability": "view",
      "type": "function"
    },
    {
      "constant": true,
      "inputs": [],
      "name": "timeNow",
      "outputs": [
        {
          "internalType": "uint256",
          "name": "",
          "type": "uint256"
        }
      ],
      "payable": false,
      "stateMutability": "view",
      "type": "function"
    },
    {
      "constant": true,
      "inputs": [
        {
          "internalType": "bytes32",
          "name": "",
          "type": "bytes32"
        }
      ],
      "name": "verifier",
      "outputs": [
        {
          "internalType": "address",
          "name": "",
          "type": "address"
        }
      ],
      "payable": false,
      "stateMutability": "view",
      "type": "function"
    },
    {
      "constant": true,
      "inputs": [
        {
          "internalType": "address",
          "name": "",
          "type": "address"
        }
      ],
      "name": "voters",
      "outputs": [
        {
          "internalType": "bytes32",
          "name": "personal_id",
          "type": "bytes32"
        },
        {
          "internalType": "bool",
          "name": "hasVoted",
          "type": "bool"
        },
        {
          "internalType": "address",
          "name": "public_Address",
          "type": "address"
        },
        {
          "internalType": "string",
          "name": "email",
          "type": "string"
        },
        {
          "internalType": "string",
          "name": "name",
          "type": "string"
        },
        {
          "internalType": "string",
          "name": "surname",
          "type": "string"
        },
        {
          "internalType": "string",
          "name": "refNUm",
          "type": "string"
        },
        {
          "internalType": "bool",
          "name": "isRegistered",
          "type": "bool"
        },
        {
          "internalType": "uint256",
          "name": "PublicKey1",
          "type": "uint256"
        },
        {
          "internalType": "uint256",
          "name": "PublicKey2",
          "type": "uint256"
        },
        {
          "internalType": "uint256",
          "name": "PrivateKey",
          "type": "uint256"
        }
      ],
      "payable": false,
      "stateMutability": "view",
      "type": "function"
    },
    {
      "constant": true,
      "inputs": [],
      "name": "votersCount",
      "outputs": [
        {
          "internalType": "uint256",
          "name": "",
          "type": "uint256"
        }
      ],
      "payable": false,
      "stateMutability": "view",
      "type": "function"
    },
    {
      "constant": true,
      "inputs": [],
      "name": "votingEnd",
      "outputs": [
        {
          "internalType": "uint256",
          "name": "",
          "type": "uint256"
        }
      ],
      "payable": false,
      "stateMutability": "view",
      "type": "function"
    },
    {
      "constant": true,
      "inputs": [],
      "name": "votingStart",
      "outputs": [
        {
          "internalType": "uint256",
          "name": "",
          "type": "uint256"
        }
      ],
      "payable": false,
      "stateMutability": "view",
      "type": "function"
    },
    {
      "constant": false,
      "inputs": [
        {
          "internalType": "string",
          "name": "_name",
          "type": "string"
        },
        {
          "internalType": "string",
          "name": "_party",
          "type": "string"
        }
      ],
      "name": "addCandidate",
      "outputs": [],
      "payable": false,
      "stateMutability": "nonpayable",
      "type": "function"
    },
    {
      "constant": false,
      "inputs": [
        {
          "internalType": "string",
          "name": "_personal_id",
          "type": "string"
        },
        {
          "internalType": "string",
          "name": "_email",
          "type": "string"
        },
        {
          "internalType": "string",
          "name": "_name",
          "type": "string"
        },
        {
          "internalType": "string",
          "name": "_surname",
          "type": "string"
        },
        {
          "internalType": "string",
          "name": "_ref",
          "type": "string"
        }
      ],
      "name": "addVoter",
      "outputs": [],
      "payable": false,
      "stateMutability": "nonpayable",
      "type": "function"
    },
    {
      "constant": true,
      "inputs": [],
      "name": "getVoter",
      "outputs": [
        {
          "internalType": "string",
          "name": "",
          "type": "string"
        },
        {
          "internalType": "string",
          "name": "",
          "type": "string"
        },
        {
          "internalType": "string",
          "name": "",
          "type": "string"
        },
        {
          "internalType": "string",
          "name": "",
          "type": "string"
        },
        {
          "internalType": "bool",
          "name": "",
          "type": "bool"
        },
        {
          "internalType": "bool",
          "name": "",
          "type": "bool"
        }
      ],
      "payable": false,
      "stateMutability": "view",
      "type": "function"
    },
    {
      "constant": true,
      "inputs": [],
      "name": "isVoter_Registered",
      "outputs": [
        {
          "internalType": "bool",
          "name": "",
          "type": "bool"
        }
      ],
      "payable": false,
      "stateMutability": "view",
      "type": "function"
    },
    {
      "constant": true,
      "inputs": [],
      "name": "has_Voted",
      "outputs": [
        {
          "internalType": "bool",
          "name": "",
          "type": "bool"
        }
      ],
      "payable": false,
      "stateMutability": "view",
      "type": "function"
    },
    {
      "constant": false,
      "inputs": [
        {
          "internalType": "uint256",
          "name": "_candidateId",
          "type": "uint256"
        }
      ],
      "name": "vote",
      "outputs": [],
      "payable": false,
      "stateMutability": "nonpayable",
      "type": "function"
    },
    {
      "constant": true,
      "inputs": [],
      "name": "getPublicKeys",
      "outputs": [
        {
          "internalType": "uint256",
          "name": "",
          "type": "uint256"
        }
      ],
      "payable": false,
      "stateMutability": "view",
      "type": "function"
    },
    {
      "constant": false,
      "inputs": [],
      "name": "startElection",
      "outputs": [],
      "payable": false,
      "stateMutability": "nonpayable",
      "type": "function"
    },
    {
      "constant": false,
      "inputs": [],
      "name": "changePhase",
      "outputs": [],
      "payable": false,
      "stateMutability": "nonpayable",
      "type": "function"
    },
    {
      "constant": true,
      "inputs": [
        {
          "internalType": "string",
          "name": "text",
          "type": "string"
        }
      ],
      "name": "keccak256_encrypt",
      "outputs": [
        {
          "internalType": "bytes32",
          "name": "",
          "type": "bytes32"
        }
      ],
      "payable": false,
      "stateMutability": "pure",
      "type": "function"
    },
    {
      "constant": true,
      "inputs": [],
      "name": "getWinner",
      "outputs": [
        {
          "internalType": "string",
          "name": "",
          "type": "string"
        }
      ],
      "payable": false,
      "stateMutability": "view",
      "type": "function"
    },
    {
      "constant": true,
      "inputs": [
        {
          "internalType": "string",
          "name": "_message",
          "type": "string"
        },
        {
          "internalType": "bytes",
          "name": "_sig",
          "type": "bytes"
        }
      ],
      "name": "verify",
      "outputs": [
        {
          "internalType": "bool",
          "name": "",
          "type": "bool"
        }
      ],
      "payable": false,
      "stateMutability": "view",
      "type": "function"
    },
    {
      "constant": true,
      "inputs": [
        {
          "internalType": "string",
          "name": "sms",
          "type": "string"
        }
      ],
      "name": "getHash",
      "outputs": [
        {
          "internalType": "bytes32",
          "name": "",
          "type": "bytes32"
        }
      ],
      "payable": false,
      "stateMutability": "pure",
      "type": "function"
    },
    {
      "constant": true,
      "inputs": [
        {
          "internalType": "bytes32",
          "name": "sms",
          "type": "bytes32"
        }
      ],
      "name": "getEthSignedHash",
      "outputs": [
        {
          "internalType": "bytes32",
          "name": "",
          "type": "bytes32"
        }
      ],
      "payable": false,
      "stateMutability": "pure",
      "type": "function"
    },
    {
      "constant": true,
      "inputs": [
        {
          "internalType": "bytes32",
          "name": "_ethSignedMessageHash",
          "type": "bytes32"
        },
        {
          "internalType": "bytes",
          "name": "_sig",
          "type": "bytes"
        }
      ],
      "name": "recover",
      "outputs": [
        {
          "internalType": "address",
          "name": "",
          "type": "address"
        }
      ],
      "payable": false,
      "stateMutability": "pure",
      "type": "function"
    }
  ],
  "bytecode": "0x608060405260405180606001604052806040518060400160405280600c81526020017f726567697374726174696f6e000000000000000000000000000000000000000081525081526020016040518060400160405280600681526020017f766f74696e67000000000000000000000000000000000000000000000000000081525081526020016040518060400160405280600781526020017f726573756c747300000000000000000000000000000000000000000000000000815250815250600b906003620000d092919062000174565b50348015620000de57600080fd5b5033600f60006101000a81548173ffffffffffffffffffffffffffffffffffffffff021916908373ffffffffffffffffffffffffffffffffffffffff1602179055506040518060400160405280601881526020017f456c656374696f6e20686173206e6f7420737461727465640000000000000000815250600690805190602001906200016d929190620001ce565b5062000381565b8260038101928215620001bb579160200282015b82811115620001ba578251829080519060200190620001a992919062000255565b509160200191906001019062000188565b5b509050620001ca9190620002dc565b5090565b828054600181600116156101000203166002900490600052602060002090601f016020900481019282601f106200021157805160ff191683800117855562000242565b8280016001018555821562000242579182015b828111156200024157825182559160200191906001019062000224565b5b5090506200025191906200030d565b5090565b828054600181600116156101000203166002900490600052602060002090601f016020900481019282601f106200029857805160ff1916838001178555620002c9565b82800160010185558215620002c9579182015b82811115620002c8578251825591602001919060010190620002ab565b5b509050620002d891906200030d565b5090565b6200030a91905b80821115620003065760008181620002fc919062000335565b50600101620002e3565b5090565b90565b6200033291905b808211156200032e57600081600090555060010162000314565b5090565b90565b50805460018160011615610100020316600290046000825580601f106200035d57506200037e565b601f0160209004906000526020600020908101906200037d91906200030d565b5b50565b6138af80620003916000396000f3fe608060405234801561001057600080fd5b50600436106101c45760003560e01c806362d73eb8116100f9578063b1c9fe6e11610097578063d95660be11610071578063d95660be14610ffe578063db6f59531461101c578063dc610dfe14611026578063f731d0e9146110f5576101c4565b8063b1c9fe6e14610eeb578063d25773b714610f6e578063d54c149614610f90576101c4565b806398b8b43d116100d357806398b8b43d14610c2757806398c0793814610c49578063a3bef4d714610c67578063a3ec138d14610c85576101c4565b806362d73eb814610b7c57806385a3863514610b865780638e7ea5b214610ba4576101c4565b80632d35a8a2116101665780633d9ffad5116101405780633d9ffad5146108565780633fee76dc146109c057806344fd417f14610a8f5780635b6beeb914610aad576101c4565b80632d35a8a2146106d55780632f4ea5ea146106f35780633477ee2e14610735576101c4565b806319045a25116101a257806319045a25146102335780631b1d53f61461033857806326541b56146103a65780632b37f53c146104f8576101c4565b80630121b93f146101c9578063101158af146101f757806315285fed14610215575b600080fd5b6101f5600480360360208110156101df57600080fd5b810190808035906020019092919050505061140c565b005b6101ff611799565b6040518082815260200191505060405180910390f35b61021d61179f565b6040518082815260200191505060405180910390f35b6102f66004803603604081101561024957600080fd5b81019080803590602001909291908035906020019064010000000081111561027057600080fd5b82018360208201111561028257600080fd5b803590602001918460018302840111640100000000831117156102a457600080fd5b91908080601f016020809104026020016040519081016040528093929190818152602001838380828437600081840152601f19601f8201169050808301925050505050505091929192905050506117e9565b604051808273ffffffffffffffffffffffffffffffffffffffff1673ffffffffffffffffffffffffffffffffffffffff16815260200191505060405180910390f35b6103646004803603602081101561034e57600080fd5b8101908080359060200190929190505050611870565b604051808273ffffffffffffffffffffffffffffffffffffffff1673ffffffffffffffffffffffffffffffffffffffff16815260200191505060405180910390f35b6104f6600480360360408110156103bc57600080fd5b81019080803590602001906401000000008111156103d957600080fd5b8201836020820111156103eb57600080fd5b8035906020019184600183028401116401000000008311171561040d57600080fd5b91908080601f016020809104026020016040519081016040528093929190818152602001838380828437600081840152601f19601f8201169050808301925050505050505091929192908035906020019064010000000081111561047057600080fd5b82018360208201111561048257600080fd5b803590602001918460018302840111640100000000831117156104a457600080fd5b91908080601f016020809104026020016040519081016040528093929190818152602001838380828437600081840152601f19601f8201169050808301925050505050505091929192905050506118a3565b005b6105006119e8565b6040518080602001806020018060200180602001871515151581526020018615151515815260200185810385528b818151815260200191508051906020019080838360005b83811015610560578082015181840152602081019050610545565b50505050905090810190601f16801561058d5780820380516001836020036101000a031916815260200191505b5085810384528a818151815260200191508051906020019080838360005b838110156105c65780820151818401526020810190506105ab565b50505050905090810190601f1680156105f35780820380516001836020036101000a031916815260200191505b50858103835289818151815260200191508051906020019080838360005b8381101561062c578082015181840152602081019050610611565b50505050905090810190601f1680156106595780820380516001836020036101000a031916815260200191505b50858103825288818151815260200191508051906020019080838360005b83811015610692578082015181840152602081019050610677565b50505050905090810190601f1680156106bf5780820380516001836020036101000a031916815260200191505b509a505050505050505050505060405180910390f35b6106dd611e1d565b6040518082815260200191505060405180910390f35b61071f6004803603602081101561070957600080fd5b8101908080359060200190929190505050611e23565b6040518082815260200191505060405180910390f35b6107616004803603602081101561074b57600080fd5b8101908080359060200190929190505050611e7b565b604051808581526020018060200180602001848152602001838103835286818151815260200191508051906020019080838360005b838110156107b1578082015181840152602081019050610796565b50505050905090810190601f1680156107de5780820380516001836020036101000a031916815260200191505b50838103825285818151815260200191508051906020019080838360005b838110156108175780820151818401526020810190506107fc565b50505050905090810190601f1680156108445780820380516001836020036101000a031916815260200191505b50965050505050505060405180910390f35b6109a66004803603604081101561086c57600080fd5b810190808035906020019064010000000081111561088957600080fd5b82018360208201111561089b57600080fd5b803590602001918460018302840111640100000000831117156108bd57600080fd5b91908080601f016020809104026020016040519081016040528093929190818152602001838380828437600081840152601f19601f8201169050808301925050505050505091929192908035906020019064010000000081111561092057600080fd5b82018360208201111561093257600080fd5b8035906020019184600183028401116401000000008311171561095457600080fd5b91908080601f016020809104026020016040519081016040528093929190818152602001838380828437600081840152601f19601f820116905080830192505050505050509192919290505050611fdb565b604051808215151515815260200191505060405180910390f35b610a79600480360360208110156109d657600080fd5b81019080803590602001906401000000008111156109f357600080fd5b820183602082011115610a0557600080fd5b80359060200191846001830284011164010000000083111715610a2757600080fd5b91908080601f016020809104026020016040519081016040528093929190818152602001838380828437600081840152601f19601f82011690508083019250505050505050919291929050505061205a565b6040518082815260200191505060405180910390f35b610a976120ef565b6040518082815260200191505060405180910390f35b610b6660048036036020811015610ac357600080fd5b8101908080359060200190640100000000811115610ae057600080fd5b820183602082011115610af257600080fd5b80359060200191846001830284011164010000000083111715610b1457600080fd5b91908080601f016020809104026020016040519081016040528093929190818152602001838380828437600081840152601f19601f8201169050808301925050505050505091929192905050506120f5565b6040518082815260200191505060405180910390f35b610b84612170565b005b610b8e612252565b6040518082815260200191505060405180910390f35b610bac612258565b6040518080602001828103825283818151815260200191508051906020019080838360005b83811015610bec578082015181840152602081019050610bd1565b50505050905090810190601f168015610c195780820380516001836020036101000a031916815260200191505b509250505060405180910390f35b610c2f612387565b604051808215151515815260200191505060405180910390f35b610c516123de565b6040518082815260200191505060405180910390f35b610c6f6123e4565b6040518082815260200191505060405180910390f35b610cc760048036036020811015610c9b57600080fd5b81019080803573ffffffffffffffffffffffffffffffffffffffff1690602001909291905050506123ea565b604051808c81526020018b1515151581526020018a73ffffffffffffffffffffffffffffffffffffffff1673ffffffffffffffffffffffffffffffffffffffff168152602001806020018060200180602001806020018915151515815260200188815260200187815260200186815260200185810385528d818151815260200191508051906020019080838360005b83811015610d71578082015181840152602081019050610d56565b50505050905090810190601f168015610d9e5780820380516001836020036101000a031916815260200191505b5085810384528c818151815260200191508051906020019080838360005b83811015610dd7578082015181840152602081019050610dbc565b50505050905090810190601f168015610e045780820380516001836020036101000a031916815260200191505b5085810383528b818151815260200191508051906020019080838360005b83811015610e3d578082015181840152602081019050610e22565b50505050905090810190601f168015610e6a5780820380516001836020036101000a031916815260200191505b5085810382528a818151815260200191508051906020019080838360005b83811015610ea3578082015181840152602081019050610e88565b50505050905090810190601f168015610ed05780820380516001836020036101000a031916815260200191505b509f5050505050505050505050505050505060405180910390f35b610ef36126de565b6040518080602001828103825283818151815260200191508051906020019080838360005b83811015610f33578082015181840152602081019050610f18565b50505050905090810190601f168015610f605780820380516001836020036101000a031916815260200191505b509250505060405180910390f35b610f7661277c565b604051808215151515815260200191505060405180910390f35b610fbc60048036036020811015610fa657600080fd5b81019080803590602001909291905050506127d3565b604051808273ffffffffffffffffffffffffffffffffffffffff1673ffffffffffffffffffffffffffffffffffffffff16815260200191505060405180910390f35b611006612806565b6040518082815260200191505060405180910390f35b61102461280c565b005b6110df6004803603602081101561103c57600080fd5b810190808035906020019064010000000081111561105957600080fd5b82018360208201111561106b57600080fd5b8035906020019184600183028401116401000000008311171561108d57600080fd5b91908080601f016020809104026020016040519081016040528093929190818152602001838380828437600081840152601f19601f820116905080830192505050505050509192919290505050612955565b6040518082815260200191505060405180910390f35b61140a600480360360a081101561110b57600080fd5b810190808035906020019064010000000081111561112857600080fd5b82018360208201111561113a57600080fd5b8035906020019184600183028401116401000000008311171561115c57600080fd5b91908080601f016020809104026020016040519081016040528093929190818152602001838380828437600081840152601f19601f820116905080830192505050505050509192919290803590602001906401000000008111156111bf57600080fd5b8201836020820111156111d157600080fd5b803590602001918460018302840111640100000000831117156111f357600080fd5b91908080601f016020809104026020016040519081016040528093929190818152602001838380828437600081840152601f19601f8201169050808301925050505050505091929192908035906020019064010000000081111561125657600080fd5b82018360208201111561126857600080fd5b8035906020019184600183028401116401000000008311171561128a57600080fd5b91908080601f016020809104026020016040519081016040528093929190818152602001838380828437600081840152601f19601f820116905080830192505050505050509192919290803590602001906401000000008111156112ed57600080fd5b8201836020820111156112ff57600080fd5b8035906020019184600183028401116401000000008311171561132157600080fd5b91908080601f016020809104026020016040519081016040528093929190818152602001838380828437600081840152601f19601f8201169050808301925050505050505091929192908035906020019064010000000081111561138457600080fd5b82018360208201111561139657600080fd5b803590602001918460018302840111640100000000831117156113b857600080fd5b91908080601f016020809104026020016040519081016040528093929190818152602001838380828437600081840152601f19601f820116905080830192505050505050509192919290505050612983565b005b600160003373ffffffffffffffffffffffffffffffffffffffff1673ffffffffffffffffffffffffffffffffffffffff16815260200190815260200160002060060160009054906101000a900460ff166114ce576040517f08c379a000000000000000000000000000000000000000000000000000000000815260040180806020018281038252601e8152602001807f4f6e6c7920726567697374657265642075736572732063616e20766f7465000081525060200191505060405180910390fd5b600160003373ffffffffffffffffffffffffffffffffffffffff1673ffffffffffffffffffffffffffffffffffffffff16815260200190815260200160002060010160009054906101000a900460ff1615611591576040517f08c379a000000000000000000000000000000000000000000000000000000000815260040180806020018281038252600d8152602001807f416c726561647920566f7465640000000000000000000000000000000000000081525060200191505060405180910390fd5b6000811180156115a357506005548111155b6115ac57600080fd5b60018060003373ffffffffffffffffffffffffffffffffffffffff1673ffffffffffffffffffffffffffffffffffffffff16815260200190815260200160002060010160006101000a81548160ff0219169083151502179055506e69aac4a8f9f60b4e7c826c97d83adf600160003373ffffffffffffffffffffffffffffffffffffffff1673ffffffffffffffffffffffffffffffffffffffff16815260200190815260200160002060090181905550600080828152602001908152602001600020600301600081548092919060010191905055506116f060387f79be667ef9dcbbac55a06295ce870b07029bfcdb2dce28d959f2815b16f817987f483ada7726a3c4655da4fbfc0e1108a8fd17b448a68554199c47d08ffb10d4b860007ffffffffffffffffffffffffffffffffffffffffffffffffffffffffefffffc2f612daa565b600160003373ffffffffffffffffffffffffffffffffffffffff1673ffffffffffffffffffffffffffffffffffffffff1681526020019081526020016000206007016000600160003373ffffffffffffffffffffffffffffffffffffffff1673ffffffffffffffffffffffffffffffffffffffff168152602001908152602001600020600801600084919050558391905055505060086000815480929190600101919050555050565b60105481565b6000600160003373ffffffffffffffffffffffffffffffffffffffff1673ffffffffffffffffffffffffffffffffffffffff16815260200190815260200160002060090154905090565b6000806000806117f885612de4565b92509250925060018682858560405160008152602001604052604051808581526020018460ff1660ff1681526020018381526020018281526020019450505050506020604051602081039080840390855afa15801561185b573d6000803e3d6000fd5b50505060206040510351935050505092915050565b60036020528060005260406000206000915054906101000a900473ffffffffffffffffffffffffffffffffffffffff1681565b600f60009054906101000a900473ffffffffffffffffffffffffffffffffffffffff1673ffffffffffffffffffffffffffffffffffffffff163373ffffffffffffffffffffffffffffffffffffffff1614611949576040517f08c379a00000000000000000000000000000000000000000000000000000000081526004018080602001828103825260248152602001806138576024913960400191505060405180910390fd5b60056000815480929190600101919050555060405180608001604052806005548152602001838152602001828152602001600081525060008060055481526020019081526020016000206000820151816000015560208201518160010190805190602001906119b9929190613667565b5060408201518160020190805190602001906119d6929190613667565b50606082015181600301559050505050565b606080606080600080600160003373ffffffffffffffffffffffffffffffffffffffff1673ffffffffffffffffffffffffffffffffffffffff168152602001908152602001600020600301600160003373ffffffffffffffffffffffffffffffffffffffff1673ffffffffffffffffffffffffffffffffffffffff168152602001908152602001600020600401600160003373ffffffffffffffffffffffffffffffffffffffff1673ffffffffffffffffffffffffffffffffffffffff168152602001908152602001600020600201600160003373ffffffffffffffffffffffffffffffffffffffff1673ffffffffffffffffffffffffffffffffffffffff168152602001908152602001600020600501600160003373ffffffffffffffffffffffffffffffffffffffff1673ffffffffffffffffffffffffffffffffffffffff16815260200190815260200160002060060160009054906101000a900460ff16600160003373ffffffffffffffffffffffffffffffffffffffff1673ffffffffffffffffffffffffffffffffffffffff16815260200190815260200160002060010160009054906101000a900460ff16858054600181600116156101000203166002900480601f016020809104026020016040519081016040528092919081815260200182805460018160011615610100020316600290048015611c2e5780601f10611c0357610100808354040283529160200191611c2e565b820191906000526020600020905b815481529060010190602001808311611c1157829003601f168201915b50505050509550848054600181600116156101000203166002900480601f016020809104026020016040519081016040528092919081815260200182805460018160011615610100020316600290048015611cca5780601f10611c9f57610100808354040283529160200191611cca565b820191906000526020600020905b815481529060010190602001808311611cad57829003601f168201915b50505050509450838054600181600116156101000203166002900480601f016020809104026020016040519081016040528092919081815260200182805460018160011615610100020316600290048015611d665780601f10611d3b57610100808354040283529160200191611d66565b820191906000526020600020905b815481529060010190602001808311611d4957829003601f168201915b50505050509350828054600181600116156101000203166002900480601f016020809104026020016040519081016040528092919081815260200182805460018160011615610100020316600290048015611e025780601f10611dd757610100808354040283529160200191611e02565b820191906000526020600020905b815481529060010190602001808311611de557829003601f168201915b50505050509250955095509550955095509550909192939495565b60055481565b60008160405160200180807f19457468657265756d205369676e6564204d6573736167653a0a333200000000815250601c01828152602001915050604051602081830303815290604052805190602001209050919050565b6000602052806000526040600020600091509050806000015490806001018054600181600116156101000203166002900480601f016020809104026020016040519081016040528092919081815260200182805460018160011615610100020316600290048015611f2d5780601f10611f0257610100808354040283529160200191611f2d565b820191906000526020600020905b815481529060010190602001808311611f1057829003601f168201915b505050505090806002018054600181600116156101000203166002900480601f016020809104026020016040519081016040528092919081815260200182805460018160011615610100020316600290048015611fcb5780601f10611fa057610100808354040283529160200191611fcb565b820191906000526020600020905b815481529060010190602001808311611fae57829003601f168201915b5050505050908060030154905084565b600080611fe7846120f5565b90506000611ff482611e23565b9050600f60009054906101000a900473ffffffffffffffffffffffffffffffffffffffff1673ffffffffffffffffffffffffffffffffffffffff1661203982866117e9565b73ffffffffffffffffffffffffffffffffffffffff16149250505092915050565b6000816040516020018080602001828103825283818151815260200191508051906020019080838360005b838110156120a0578082015181840152602081019050612085565b50505050905090810190601f1680156120cd5780820380516001836020036101000a031916815260200191505b5092505050604051602081830303815290604052805190602001209050919050565b600e5481565b6000816040516020018082805190602001908083835b6020831061212e578051825260208201915060208101905060208303925061210b565b6001836020036101000a038019825116818451168082178552505050505050905001915050604051602081830303815290604052805190602001209050919050565b600f60009054906101000a900473ffffffffffffffffffffffffffffffffffffffff1673ffffffffffffffffffffffffffffffffffffffff163373ffffffffffffffffffffffffffffffffffffffff1614612216576040517f08c379a00000000000000000000000000000000000000000000000000000000081526004018080602001828103825260248152602001806138576024913960400191505060405180910390fd5b6000600e81905550600b600e546003811061222d57fe5b016006908054600181600116156101000203166002900461224f9291906136e7565b50565b60115481565b60606000600190506000806000600181526020019081526020016000206003015490506000600290505b60055481116122d157816000808381526020019081526020016000206003015411156122c4578092506000808281526020019081526020016000206003015491505b8080600101915050612282565b506000808381526020019081526020016000206001018054600181600116156101000203166002900480601f01602080910402602001604051908101604052809291908181526020018280546001816001161561010002031660029004801561237b5780601f106123505761010080835404028352916020019161237b565b820191906000526020600020905b81548152906001019060200180831161235e57829003601f168201915b50505050509250505090565b6000600160003373ffffffffffffffffffffffffffffffffffffffff1673ffffffffffffffffffffffffffffffffffffffff16815260200190815260200160002060010160009054906101000a900460ff16905090565b60075481565b60085481565b60016020528060005260406000206000915090508060000154908060010160009054906101000a900460ff16908060010160019054906101000a900473ffffffffffffffffffffffffffffffffffffffff1690806002018054600181600116156101000203166002900480601f0160208091040260200160405190810160405280929190818152602001828054600181600116156101000203166002900480156124d55780601f106124aa576101008083540402835291602001916124d5565b820191906000526020600020905b8154815290600101906020018083116124b857829003601f168201915b505050505090806003018054600181600116156101000203166002900480601f0160208091040260200160405190810160405280929190818152602001828054600181600116156101000203166002900480156125735780601f1061254857610100808354040283529160200191612573565b820191906000526020600020905b81548152906001019060200180831161255657829003601f168201915b505050505090806004018054600181600116156101000203166002900480601f0160208091040260200160405190810160405280929190818152602001828054600181600116156101000203166002900480156126115780601f106125e657610100808354040283529160200191612611565b820191906000526020600020905b8154815290600101906020018083116125f457829003601f168201915b505050505090806005018054600181600116156101000203166002900480601f0160208091040260200160405190810160405280929190818152602001828054600181600116156101000203166002900480156126af5780601f10612684576101008083540402835291602001916126af565b820191906000526020600020905b81548152906001019060200180831161269257829003601f168201915b5050505050908060060160009054906101000a900460ff1690806007015490806008015490806009015490508b565b60068054600181600116156101000203166002900480601f0160208091040260200160405190810160405280929190818152602001828054600181600116156101000203166002900480156127745780601f1061274957610100808354040283529160200191612774565b820191906000526020600020905b81548152906001019060200180831161275757829003601f168201915b505050505081565b6000600160003373ffffffffffffffffffffffffffffffffffffffff1673ffffffffffffffffffffffffffffffffffffffff16815260200190815260200160002060060160009054906101000a900460ff16905090565b60026020528060005260406000206000915054906101000a900473ffffffffffffffffffffffffffffffffffffffff1681565b600a5481565b600f60009054906101000a900473ffffffffffffffffffffffffffffffffffffffff1673ffffffffffffffffffffffffffffffffffffffff163373ffffffffffffffffffffffffffffffffffffffff16146128b2576040517f08c379a00000000000000000000000000000000000000000000000000000000081526004018080602001828103825260248152602001806138576024913960400191505060405180910390fd5b600e600081548092919060010191905055506003600e54101561290657600b600e54600381106128de57fe5b01600690805460018160011615610100020316600290046129009291906136e7565b50612953565b6040518060400160405280600e81526020017f456c656374696f6e20656e6465640000000000000000000000000000000000008152506006908051906020019061295192919061376e565b505b565b6004818051602081018201805184825260208301602085012081835280955050505050506000915090505481565b600033905060006129938761205a565b90506000600160008473ffffffffffffffffffffffffffffffffffffffff1673ffffffffffffffffffffffffffffffffffffffff16815260200190815260200160002090508060060160009054906101000a900460ff1615612a40576040517f08c379a00000000000000000000000000000000000000000000000000000000081526004018080602001828103825260218152602001806138366021913960400191505060405180910390fd5b600073ffffffffffffffffffffffffffffffffffffffff166002600084815260200190815260200160002060009054906101000a900473ffffffffffffffffffffffffffffffffffffffff1673ffffffffffffffffffffffffffffffffffffffff1614612b15576040517f08c379a000000000000000000000000000000000000000000000000000000000815260040180806020018281038252601a8152602001807f506572736f6e616c20494420616c726561647920696e2075736500000000000081525060200191505060405180910390fd5b8260036000600754815260200190815260200160002060006101000a81548173ffffffffffffffffffffffffffffffffffffffff021916908373ffffffffffffffffffffffffffffffffffffffff1602179055506040518061016001604052808381526020016000151581526020018473ffffffffffffffffffffffffffffffffffffffff168152602001888152602001878152602001868152602001858152602001600115158152602001600a8152602001600a8152602001600a815250600160008573ffffffffffffffffffffffffffffffffffffffff1673ffffffffffffffffffffffffffffffffffffffff1681526020019081526020016000206000820151816000015560208201518160010160006101000a81548160ff02191690831515021790555060408201518160010160016101000a81548173ffffffffffffffffffffffffffffffffffffffff021916908373ffffffffffffffffffffffffffffffffffffffff1602179055506060820151816002019080519060200190612ca0929190613667565b506080820151816003019080519060200190612cbd929190613667565b5060a0820151816004019080519060200190612cda929190613667565b5060c0820151816005019080519060200190612cf7929190613667565b5060e08201518160060160006101000a81548160ff021916908315150217905550610100820151816007015561012082015181600801556101408201518160090155905050600760008154809291906001019190505550826002600084815260200190815260200160002060006101000a81548173ffffffffffffffffffffffffffffffffffffffff021916908373ffffffffffffffffffffffffffffffffffffffff1602179055505050505050505050565b6000806000806000612dc18a8a8a60018b8b612e7f565b925092509250612dd383838389612f24565b945094505050509550959350505050565b60008060006041845114612e60576040517f08c379a00000000000000000000000000000000000000000000000000000000081526004018080602001828103825260188152602001807f696e76616c6964207369676e6174757265206c656e677468000000000000000081525060200191505060405180910390fd5b6020840151925060408401519150606084015160001a90509193909250565b600080600080891415612e9a57878787925092509250612f18565b6000899050600080905060008090506000600190505b60008414612f0a5760006001851614612edf57612ed28383838f8f8f8e612f7f565b8093508194508295505050505b60028481612ee957fe5b049350612ef98c8c8c8c8c613450565b809c50819d50829e50505050612eb0565b828282965096509650505050505b96509650969350505050565b6000806000612f33858561356f565b905060008480612f3f57fe5b828309905060008580612f4e57fe5b828a09905060008680612f5d57fe5b8780612f6557fe5b8486098a0990508181955095505050505094509492505050565b6000806000808a148015612f935750600089145b15612fa657868686925092509250613443565b600087148015612fb65750600086145b15612fc957898989925092509250613443565b612fd16137ee565b8480612fd957fe5b898a0981600060048110612fe957fe5b6020020181815250508480612ffa57fe5b8160006004811061300757fe5b60200201518a098160016004811061301b57fe5b602002018181525050848061302c57fe5b8687098160026004811061303c57fe5b602002018181525050848061304d57fe5b8160026004811061305a57fe5b602002015187098160036004811061306e57fe5b6020020181815250506040518060800160405280868061308a57fe5b8360026004811061309757fe5b60200201518e09815260200186806130ab57fe5b836003600481106130b857fe5b60200201518d09815260200186806130cc57fe5b836000600481106130d957fe5b60200201518b09815260200186806130ed57fe5b836001600481106130fa57fe5b60200201518a0981525090508060026004811061311357fe5b60200201518160006004811061312557fe5b602002015114158061315957508060036004811061313f57fe5b60200201518160016004811061315157fe5b602002015114155b6131cb576040517f08c379a000000000000000000000000000000000000000000000000000000000815260040180806020018281038252601e8152602001807f557365206a6163446f75626c652066756e6374696f6e20696e7374656164000081525060200191505060405180910390fd5b6131d36137ee565b85806131db57fe5b826000600481106131e857fe5b60200201518703836002600481106131fc57fe5b6020020151088160006004811061320f57fe5b602002018181525050858061322057fe5b8260016004811061322d57fe5b602002015187038360036004811061324157fe5b6020020151088160016004811061325457fe5b602002018181525050858061326557fe5b8160006004811061327257fe5b60200201518260006004811061328457fe5b6020020151098160026004811061329757fe5b60200201818152505085806132a857fe5b816000600481106132b557fe5b6020020151826002600481106132c757fe5b602002015109816003600481106132da57fe5b602002018181525050600086806132ed57fe5b826003600481106132fa57fe5b60200201518803888061330957fe5b8460016004811061331657fe5b60200201518560016004811061332857fe5b602002015109089050868061333957fe5b878061334157fe5b888061334957fe5b8460026004811061335657fe5b60200201518660006004811061336857fe5b6020020151096002098803820890506000878061338157fe5b888061338957fe5b838a038a8061339457fe5b866002600481106133a157fe5b6020020151886000600481106133b357fe5b60200201510908846001600481106133c757fe5b602002015109905087806133d757fe5b88806133df57fe5b846003600481106133ec57fe5b6020020151866001600481106133fe57fe5b6020020151098903820890506000888061341457fe5b898061341c57fe5b8b8f098560006004811061342c57fe5b602002015109905082828297509750975050505050505b9750975097945050505050565b60008060008086141561346b57878787925092509250613564565b6000848061347557fe5b898a0990506000858061348457fe5b898a0990506000868061349357fe5b898a099050600087806134a257fe5b88806134aa57fe5b848e096004099050600088806134bc57fe5b89806134c457fe5b8a806134cc57fe5b8586098c098a806134d957fe5b8760030908905088806134e857fe5b89806134f057fe5b8384088a038a806134fd57fe5b838409089450888061350b57fe5b898061351357fe5b8a8061351b57fe5b8687096008098a038a8061352b57fe5b8b8061353357fe5b888d0386088409089350888061354557fe5b898061354d57fe5b8c8e09600209925084848497509750975050505050505b955095509592505050565b60008083141580156135815750818314155b801561358e575060008214155b613600576040517f08c379a000000000000000000000000000000000000000000000000000000000815260040180806020018281038252600e8152602001807f496e76616c6964206e756d62657200000000000000000000000000000000000081525060200191505060405180910390fd5b6000809050600060019050600084905060005b6000871461365a5786828161362457fe5b04905082868061363057fe5b878061363857fe5b8584098803860880945081955050508687820283038098508193505050613613565b8394505050505092915050565b828054600181600116156101000203166002900490600052602060002090601f016020900481019282601f106136a857805160ff19168380011785556136d6565b828001600101855582156136d6579182015b828111156136d55782518255916020019190600101906136ba565b5b5090506136e39190613810565b5090565b828054600181600116156101000203166002900490600052602060002090601f016020900481019282601f10613720578054855561375d565b8280016001018555821561375d57600052602060002091601f016020900482015b8281111561375c578254825591600101919060010190613741565b5b50905061376a9190613810565b5090565b828054600181600116156101000203166002900490600052602060002090601f016020900481019282601f106137af57805160ff19168380011785556137dd565b828001600101855582156137dd579182015b828111156137dc5782518255916020019190600101906137c1565b5b5090506137ea9190613810565b5090565b6040518060800160405280600490602082028038833980820191505090505090565b61383291905b8082111561382e576000816000905550600101613816565b5090565b9056fe546865207075626c6963206164647265737320616c726561647920696e207573654f6e6c792041646d696e2063616e20706572666f726d20746869732066756e6374696f6ea265627a7a72315820cc3cdff896fb37a5a27d012cd9f43cd8e7b86152ae45e9befe37458f7c9511ae64736f6c63430005100032",
  "source": "// SPDX-License-Identifier: MIT \r\npragma solidity  >=0.5.16;\r\nimport \"./EllipticCurve.sol\";\r\n\r\ncontract Election { \r\n\r\n    struct voter {\r\n        bytes32 personal_id; //their personal id\r\n        bool hasVoted; //have they voted\r\n        address public_Address; //public address to wallet\r\n        string email; //email address for communication\r\n        string name; //name of voter \r\n        string surname; \r\n        string refNUm; \r\n        bool isRegistered;\r\n        uint256 PublicKey1;\r\n        uint256 PublicKey2;\r\n        uint256 PrivateKey;\r\n    }\r\n\r\n\r\n     // Model a Candidate\r\n    struct Candidate {\r\n        uint id;\r\n        string name;\r\n        string party;\r\n        uint voteCount;\r\n    }\r\n    //ECC CONSTANTS - SECPTIC256\r\n    uint256 private constant GX = 0x79BE667EF9DCBBAC55A06295CE870B07029BFCDB2DCE28D959F2815B16F81798;\r\n    uint256 private constant GY = 0x483ADA7726A3C4655DA4FBFC0E1108A8FD17B448A68554199C47D08FFB10D4B8;\r\n    uint256 private constant AA = 0;\r\n    uint256 private constant BB = 7;\r\n    uint256 private constant PP = 0xFFFFFFFFFFFFFFFFFFFFFFFFFFFFFFFFFFFFFFFFFFFFFFFFFFFFFFFEFFFFFC2F;\r\n\r\n    // Read/write candidate\r\n    mapping(uint => Candidate) public candidates;\r\n\r\n    // Store accounts that have voted\r\n    mapping(address => voter) public voters;\r\n\r\n     // Stores encyrted ID'S\r\n    mapping(bytes32 => address) public verifier;\r\n    mapping(uint => address) public recorder;\r\n     mapping(string => uint256) public ellipter;\r\n\r\n    // Store Candidates Count\r\n    uint public candidatesCount;\r\n\r\n    // Stores Election phase\r\n    string public phase;\r\n\r\n    // Store number of voters\r\n    uint public votersCount;\r\n\r\n    //number of total votes\r\n    uint public numVotes;\r\n\r\n    //random number counter\r\n    uint random_counter;\r\n\r\n    // Stores current time\r\n    uint public timeNow;\r\n\r\n    string[3] phases = [\"registration\" , \"voting\", \"results\"];\r\n    uint public phasePointer;\r\n\r\n    // Admin is set once, when contract is deployed. Also saves gas fees\r\n    address private admin;\r\n    uint256 public votingStart;  //start of phase\r\n    uint256 public votingEnd; //end of phase\r\n\r\n    constructor() public { \r\n        admin = msg.sender;\r\n        phase=\"Election has not started\";\r\n    } \r\n\r\n    modifier onlyAdmin(){\r\n\t\trequire(msg.sender==admin, \"Only Admin can perform this function\");\r\n\t\t_;\r\n\t}\r\n\r\n       // Add a candidate\r\n    function addCandidate (string memory _name, string memory _party) onlyAdmin public {\r\n        candidatesCount ++;\r\n        candidates[candidatesCount] = Candidate({\r\n            id: candidatesCount, \r\n            name: _name,\r\n            party: _party, \r\n            voteCount: 0\r\n            });\r\n    }\r\n\r\n\r\n          // Add a voter\r\n    function addVoter (string memory _personal_id, string memory _email, string memory _name, string memory _surname, string memory _ref) public {\r\n            address _pAdress = msg.sender; \r\n            bytes32 encrypt_id = keccak256_encrypt(_personal_id);  //encrypt personal id\r\n            voter storage user = voters[_pAdress];\r\n            require(!user.isRegistered, \"The public address already in use\"); //require that the user is not registered\r\n\r\n            //require that personal_id is not already in use\r\n            require(verifier[encrypt_id] == 0x0000000000000000000000000000000000000000, \"Personal ID already in use\");\r\n            recorder[votersCount] = _pAdress;\r\n            voters[_pAdress] = voter( {personal_id: encrypt_id, \r\n                            hasVoted:false, \r\n                            public_Address:_pAdress,\r\n                            email: _email, \r\n                            name:_name, \r\n                            surname: _surname, \r\n                            refNUm: _ref,\r\n                            isRegistered:true,\r\n                            PublicKey1:uint256(10),\r\n                            PublicKey2:uint256(10),\r\n                            PrivateKey:uint256(10)\r\n                    });\r\n            votersCount ++;\r\n            verifier[encrypt_id] = _pAdress;\r\n            \r\n    }\r\n\r\n    function getVoter() public view returns(string memory, string memory, string memory, string memory, bool, bool){\r\n            return(voters[msg.sender].name, voters[msg.sender].surname, voters[msg.sender].email, voters[msg.sender].refNUm, voters[msg.sender].isRegistered, voters[msg.sender].hasVoted);             \r\n    }\r\n\r\n    //returns true if voter registered\r\n    function isVoter_Registered() public view returns (bool){\r\n        return voters[msg.sender].isRegistered;\r\n    }\r\n\r\n    \r\n  // https://stackoverflow.com/questions/73555009/how-to-generate-random-words-in-solidity-based-based-on-a-string-of-letters/73557284#73557284\r\n  function random() private view returns (uint256) {\r\n        return uint256 (keccak256(abi.encodePacked (block.timestamp, numVotes, candidatesCount)));\r\n     }\r\n\r\n     //returns true if voter registered\r\n    function has_Voted() public view returns (bool){\r\n        return voters[msg.sender].hasVoted;\r\n    }\r\n\r\n    // voting function, all accounts can vote\r\n    function vote (uint _candidateId) public {\r\n\r\n        //must be registered to vote\r\n        require(voters[msg.sender].isRegistered, \"Only registered users can vote\");\r\n\r\n        // require that they haven't voted before\r\n        require(!voters[msg.sender].hasVoted, \"Already Voted\"); \r\n        \r\n\r\n        // require a valid candidate\r\n        require(_candidateId > 0 && _candidateId <= candidatesCount);\r\n\r\n        // record that voter has voted\r\n        voters[msg.sender].hasVoted = true;\r\n        voters[msg.sender].PrivateKey = 548654760794296570572465070679800543;  //CREATE PRIVATE KEY\r\n\r\n        // update candidate vote Count\r\n        candidates[_candidateId].voteCount ++;\r\n\r\n        //CREATE PUBLIC KEY\r\n        (voters[msg.sender].PublicKey1, voters[msg.sender].PublicKey2) =  EllipticCurve.ecMul(56,GX,GY,AA,PP);\r\n        numVotes++;\r\n    }\r\n\r\n    function getPublicKeys() public view returns(uint256){\r\n        // require(voters[msg.sender].hasVoted, \"Only people who have voted get keys\");\r\n        // uint256 p1 = voters[msg.sender].PublicKey1;\r\n        // uint256 p2 = voters[msg.sender].PublicKey2;\r\n        // return voters[msg.sender].PrivateKey;\r\n        return (voters[msg.sender].PrivateKey);\r\n        // return (voters[msg.sender].PublicKey1, voters[msg.sender].PublicKey2);\r\n    }\r\n\r\n\r\n    // start election\r\n    function startElection() onlyAdmin public {\r\n            phasePointer = 0;\r\n            phase = phases[phasePointer]; //contract is deployed in the registration phase\r\n            // startTime();\r\n    }\r\n\r\n    //change election phase\r\n    function changePhase() onlyAdmin public {\r\n        phasePointer++;\r\n        if (phasePointer <3) {\r\n            phase = phases[phasePointer];\r\n        } else {\r\n            phase = \"Election ended\";\r\n        }\r\n\r\n    }\r\n\r\n\r\n    //hash function\r\n    function keccak256_encrypt(string memory text) public pure returns (bytes32) {\r\n        return keccak256(abi.encode(text));\r\n    }\r\n\r\n    function getWinner() public view returns(string memory) {\r\n        uint winner = 1;\r\n        uint voterS = candidates[1].voteCount;\r\n        for (uint index = 2; index <=  candidatesCount; index++) {\r\n            if(candidates[index].voteCount > voterS){\r\n                winner = index;\r\n                voterS = candidates[index].voteCount;\r\n                }\r\n        }\r\n        return (candidates[winner].name);\r\n\r\n    }\r\n\r\n\r\n    //<----------------------------------- Verifies signed message -------------------------------->\r\n    function verify (string memory _message, bytes memory _sig) public view returns (bool) {\r\n        bytes32 hash_SMS = getHash(_message);\r\n        bytes32 ethSignedMessageHash = getEthSignedHash(hash_SMS);\r\n        return recover(ethSignedMessageHash, _sig) == admin;\r\n    }\r\n    \r\n    //has a tring\r\n    function getHash (string memory sms) public pure returns (bytes32){\r\n        return keccak256(abi.encodePacked(sms));\r\n    }\r\n\r\n\r\n    function getEthSignedHash (bytes32 sms) public pure returns (bytes32){\r\n        return keccak256(abi.encodePacked(\"\\x19Ethereum Signed Message:\\n32\", sms));\r\n    }\r\n\r\n\r\n    //recover account of original signer of message\r\n    function recover(bytes32 _ethSignedMessageHash, bytes memory _sig) public pure returns (address){\r\n            (bytes32 r, bytes32 s, uint8 v) = _split(_sig); //split signature into params\r\n            return ecrecover(_ethSignedMessageHash, v, r, s); //returns the address of the signer given the signed message\r\n    }\r\n\r\n    function _split(bytes memory _sig) internal pure returns (bytes32 r, bytes32 s, uint8 v){\r\n            require(_sig.length == 65, \"invalid signature length\");\r\n\r\n            assembly {\r\n                r := mload(add(_sig, 32))  //skip first 32-byetes as they hold the length\r\n                s := mload(add(_sig, 64))\r\n                v := byte(0, mload(add(_sig, 96)))\r\n\r\n            }\r\n    }\r\n\r\n    //<----------------------------------- ECC CRYPTOGRAPHY -------------------------------->\r\n\r\n}",
  "sourcePath": "C:\\Users\\Student\\Downloads\\crypto\\Code\\contracts\\Election.sol",
  "compiler": {
    "name": "solc",
    "version": "0.5.16+commit.9c3226ce.Emscripten.clang"
  },
  "schemaVersion": "3.4.16",
  "updatedAt": "2023-09-26T21:00:47.087Z",
  "networkType": "ethereum",
  "devdoc": {
    "methods": {}
  },
  "userdoc": {
    "methods": {}
  }
}