{
  "contractName": "Election",
  "abi": [
    {
      "inputs": [],
      "stateMutability": "nonpayable",
      "type": "constructor"
    },
    {
      "inputs": [
        {
          "internalType": "uint256",
          "name": "",
          "type": "uint256"
        }
      ],
      "name": "candidates",
      "outputs": [
        {
          "internalType": "uint256",
          "name": "id",
          "type": "uint256"
        },
        {
          "internalType": "string",
          "name": "name",
          "type": "string"
        },
        {
          "internalType": "string",
          "name": "party",
          "type": "string"
        },
        {
          "internalType": "uint256",
          "name": "voteCount",
          "type": "uint256"
        }
      ],
      "stateMutability": "view",
      "type": "function",
      "constant": true
    },
    {
      "inputs": [],
      "name": "candidatesCount",
      "outputs": [
        {
          "internalType": "uint256",
          "name": "",
          "type": "uint256"
        }
      ],
      "stateMutability": "view",
      "type": "function",
      "constant": true
    },
    {
      "inputs": [],
      "name": "numVotes",
      "outputs": [
        {
          "internalType": "uint256",
          "name": "",
          "type": "uint256"
        }
      ],
      "stateMutability": "view",
      "type": "function",
      "constant": true
    },
    {
      "inputs": [],
      "name": "p1Holder",
      "outputs": [
        {
          "internalType": "uint256",
          "name": "",
          "type": "uint256"
        }
      ],
      "stateMutability": "view",
      "type": "function",
      "constant": true
    },
    {
      "inputs": [],
      "name": "p2Holder",
      "outputs": [
        {
          "internalType": "uint256",
          "name": "",
          "type": "uint256"
        }
      ],
      "stateMutability": "view",
      "type": "function",
      "constant": true
    },
    {
      "inputs": [],
      "name": "phase",
      "outputs": [
        {
          "internalType": "string",
          "name": "",
          "type": "string"
        }
      ],
      "stateMutability": "view",
      "type": "function",
      "constant": true
    },
    {
      "inputs": [],
      "name": "phasePointer",
      "outputs": [
        {
          "internalType": "uint256",
          "name": "",
          "type": "uint256"
        }
      ],
      "stateMutability": "view",
      "type": "function",
      "constant": true
    },
    {
      "inputs": [],
      "name": "votersCount",
      "outputs": [
        {
          "internalType": "uint256",
          "name": "",
          "type": "uint256"
        }
      ],
      "stateMutability": "view",
      "type": "function",
      "constant": true
    },
    {
      "inputs": [],
      "name": "votingEnd",
      "outputs": [
        {
          "internalType": "uint256",
          "name": "",
          "type": "uint256"
        }
      ],
      "stateMutability": "view",
      "type": "function",
      "constant": true
    },
    {
      "inputs": [],
      "name": "votingStart",
      "outputs": [
        {
          "internalType": "uint256",
          "name": "",
          "type": "uint256"
        }
      ],
      "stateMutability": "view",
      "type": "function",
      "constant": true
    },
    {
      "inputs": [
        {
          "internalType": "uint256",
          "name": "",
          "type": "uint256"
        }
      ],
      "name": "votingTrails",
      "outputs": [
        {
          "internalType": "string",
          "name": "ref",
          "type": "string"
        },
        {
          "internalType": "string",
          "name": "voteDate",
          "type": "string"
        },
        {
          "internalType": "string",
          "name": "voteTime",
          "type": "string"
        },
        {
          "internalType": "bool",
          "name": "isVerified",
          "type": "bool"
        }
      ],
      "stateMutability": "view",
      "type": "function",
      "constant": true
    },
    {
      "inputs": [
        {
          "internalType": "string",
          "name": "_name",
          "type": "string"
        },
        {
          "internalType": "string",
          "name": "_party",
          "type": "string"
        }
      ],
      "name": "addCandidate",
      "outputs": [],
      "stateMutability": "nonpayable",
      "type": "function"
    },
    {
      "inputs": [
        {
          "internalType": "string",
          "name": "_personal_id",
          "type": "string"
        },
        {
          "internalType": "string",
          "name": "_email",
          "type": "string"
        },
        {
          "internalType": "string",
          "name": "_name",
          "type": "string"
        },
        {
          "internalType": "string",
          "name": "_surname",
          "type": "string"
        },
        {
          "internalType": "string",
          "name": "_ref",
          "type": "string"
        }
      ],
      "name": "addVoter",
      "outputs": [],
      "stateMutability": "nonpayable",
      "type": "function"
    },
    {
      "inputs": [],
      "name": "getVoter",
      "outputs": [
        {
          "internalType": "string",
          "name": "",
          "type": "string"
        },
        {
          "internalType": "string",
          "name": "",
          "type": "string"
        },
        {
          "internalType": "string",
          "name": "",
          "type": "string"
        },
        {
          "internalType": "string",
          "name": "",
          "type": "string"
        },
        {
          "internalType": "bool",
          "name": "",
          "type": "bool"
        },
        {
          "internalType": "bool",
          "name": "",
          "type": "bool"
        },
        {
          "internalType": "bool",
          "name": "",
          "type": "bool"
        }
      ],
      "stateMutability": "view",
      "type": "function",
      "constant": true
    },
    {
      "inputs": [],
      "name": "isVoter_Registered",
      "outputs": [
        {
          "internalType": "bool",
          "name": "",
          "type": "bool"
        }
      ],
      "stateMutability": "view",
      "type": "function",
      "constant": true
    },
    {
      "inputs": [],
      "name": "random",
      "outputs": [
        {
          "internalType": "uint256",
          "name": "",
          "type": "uint256"
        }
      ],
      "stateMutability": "view",
      "type": "function",
      "constant": true
    },
    {
      "inputs": [],
      "name": "has_Voted",
      "outputs": [
        {
          "internalType": "bool",
          "name": "",
          "type": "bool"
        }
      ],
      "stateMutability": "view",
      "type": "function",
      "constant": true
    },
    {
      "inputs": [
        {
          "internalType": "uint256",
          "name": "_candidateId",
          "type": "uint256"
        },
        {
          "internalType": "string",
          "name": "_date",
          "type": "string"
        },
        {
          "internalType": "string",
          "name": "_time",
          "type": "string"
        }
      ],
      "name": "vote",
      "outputs": [],
      "stateMutability": "nonpayable",
      "type": "function"
    },
    {
      "inputs": [],
      "name": "copyKeys",
      "outputs": [
        {
          "internalType": "string",
          "name": "",
          "type": "string"
        },
        {
          "internalType": "string",
          "name": "",
          "type": "string"
        }
      ],
      "stateMutability": "view",
      "type": "function",
      "constant": true
    },
    {
      "inputs": [
        {
          "internalType": "uint256",
          "name": "_key1",
          "type": "uint256"
        },
        {
          "internalType": "uint256",
          "name": "_key2",
          "type": "uint256"
        }
      ],
      "name": "verifyVote",
      "outputs": [],
      "stateMutability": "nonpayable",
      "type": "function"
    },
    {
      "inputs": [
        {
          "internalType": "uint256",
          "name": "position",
          "type": "uint256"
        }
      ],
      "name": "getTrailer",
      "outputs": [
        {
          "internalType": "bool",
          "name": "",
          "type": "bool"
        }
      ],
      "stateMutability": "view",
      "type": "function",
      "constant": true
    },
    {
      "inputs": [],
      "name": "startElection",
      "outputs": [],
      "stateMutability": "nonpayable",
      "type": "function"
    },
    {
      "inputs": [],
      "name": "changePhase",
      "outputs": [],
      "stateMutability": "nonpayable",
      "type": "function"
    },
    {
      "inputs": [
        {
          "internalType": "string",
          "name": "text",
          "type": "string"
        }
      ],
      "name": "keccak256_encrypt",
      "outputs": [
        {
          "internalType": "bytes32",
          "name": "",
          "type": "bytes32"
        }
      ],
      "stateMutability": "pure",
      "type": "function",
      "constant": true
    },
    {
      "inputs": [],
      "name": "getWinner",
      "outputs": [
        {
          "internalType": "string",
          "name": "",
          "type": "string"
        }
      ],
      "stateMutability": "view",
      "type": "function",
      "constant": true
    },
    {
      "inputs": [
        {
          "internalType": "string",
          "name": "_message",
          "type": "string"
        },
        {
          "internalType": "bytes",
          "name": "_sig",
          "type": "bytes"
        }
      ],
      "name": "verify",
      "outputs": [
        {
          "internalType": "bool",
          "name": "",
          "type": "bool"
        }
      ],
      "stateMutability": "view",
      "type": "function",
      "constant": true
    },
    {
      "inputs": [
        {
          "internalType": "string",
          "name": "sms",
          "type": "string"
        }
      ],
      "name": "getHash",
      "outputs": [
        {
          "internalType": "bytes32",
          "name": "",
          "type": "bytes32"
        }
      ],
      "stateMutability": "pure",
      "type": "function",
      "constant": true
    },
    {
      "inputs": [
        {
          "internalType": "bytes32",
          "name": "sms",
          "type": "bytes32"
        }
      ],
      "name": "getEthSignedHash",
      "outputs": [
        {
          "internalType": "bytes32",
          "name": "",
          "type": "bytes32"
        }
      ],
      "stateMutability": "pure",
      "type": "function",
      "constant": true
    },
    {
      "inputs": [
        {
          "internalType": "bytes32",
          "name": "_ethSignedMessageHash",
          "type": "bytes32"
        },
        {
          "internalType": "bytes",
          "name": "_sig",
          "type": "bytes"
        }
      ],
      "name": "recover",
      "outputs": [
        {
          "internalType": "address",
          "name": "",
          "type": "address"
        }
      ],
      "stateMutability": "pure",
      "type": "function",
      "constant": true
    }
  ],
  "bytecode": "0x608060405260405180606001604052806040518060400160405280600c81526020017f726567697374726174696f6e000000000000000000000000000000000000000081525081526020016040518060400160405280600681526020017f766f74696e67000000000000000000000000000000000000000000000000000081525081526020016040518060400160405280600781526020017f726573756c747300000000000000000000000000000000000000000000000000815250815250600b906003620000d092919062000174565b50348015620000de57600080fd5b5033600f60006101000a81548173ffffffffffffffffffffffffffffffffffffffff021916908373ffffffffffffffffffffffffffffffffffffffff1602179055506040518060400160405280601881526020017f456c656374696f6e20686173206e6f7420737461727465640000000000000000815250600890805190602001906200016d929190620001ce565b5062000351565b8260038101928215620001bb579160200282015b82811115620001ba578251829080519060200190620001a9929190620001ce565b509160200191906001019062000188565b5b509050620001ca91906200025f565b5090565b828054620001dc90620002ec565b90600052602060002090601f0160209004810192826200020057600085556200024c565b82601f106200021b57805160ff19168380011785556200024c565b828001600101855582156200024c579182015b828111156200024b5782518255916020019190600101906200022e565b5b5090506200025b919062000287565b5090565b5b80821115620002835760008181620002799190620002a6565b5060010162000260565b5090565b5b80821115620002a257600081600090555060010162000288565b5090565b508054620002b490620002ec565b6000825580601f10620002c85750620002e9565b601f016020900490600052602060002090810190620002e8919062000287565b5b50565b600060028204905060018216806200030557607f821691505b602082108114156200031c576200031b62000322565b5b50919050565b7f4e487b7100000000000000000000000000000000000000000000000000000000600052602260045260246000fd5b61526580620003616000396000f3fe608060405234801561001057600080fd5b50600436106101cf5760003560e01c806362d73eb811610104578063b1c9fe6e116100a2578063db6f595311610071578063db6f595314610530578063e15333511461053a578063e3c0327d14610558578063f731d0e91461058b576101cf565b8063b1c9fe6e146104b7578063b8fac10a146104d5578063d0a6a870146104f3578063d25773b714610512576101cf565b806398b8b43d116100de57806398b8b43d1461044157806398c079381461045f578063a3bef4d71461047d578063b10847591461049b576101cf565b806362d73eb8146103fb57806385a38635146104055780638e7ea5b214610423576101cf565b80632f4ea5ea116101715780633fee76dc1161014b5780633fee76dc1461035f57806344fd417f1461038f5780635b6beeb9146103ad5780635ec01e4d146103dd576101cf565b80632f4ea5ea146102cc5780633477ee2e146102fc5780633d9ffad51461032f576101cf565b8063216f6a6e116101ad578063216f6a6e1461025257806326541b561461026e5780632b37f53c1461028a5780632d35a8a2146102ae576101cf565b80630544e753146101d4578063101158af1461020457806319045a2514610222575b600080fd5b6101ee60048036038101906101e991906144a1565b6105a7565b6040516101fb9190614ab5565b60405180910390f35b61020c6105d4565b6040516102199190614dee565b60405180910390f35b61023c60048036038101906102379190614245565b6105da565b6040516102499190614a9a565b60405180910390f35b61026c60048036038101906102679190614549565b610649565b005b61028860048036038101906102839190614346565b610993565b005b610292610b0e565b6040516102a59796959493929190614be3565b60405180910390f35b6102b6610f58565b6040516102c39190614dee565b60405180910390f35b6102e660048036038101906102e1919061421c565b610f5e565b6040516102f39190614ad0565b60405180910390f35b610316600480360381019061031191906144a1565b610f8e565b6040516103269493929190614e09565b60405180910390f35b610349600480360381019061034491906142da565b6110ce565b6040516103569190614ab5565b60405180910390f35b61037960048036038101906103749190614299565b61114d565b6040516103869190614ad0565b60405180910390f35b61039761117d565b6040516103a49190614dee565b60405180910390f35b6103c760048036038101906103c29190614299565b611183565b6040516103d49190614ad0565b60405180910390f35b6103e56111b3565b6040516103f29190614dee565b60405180910390f35b6104036111e6565b005b61040d61132c565b60405161041a9190614dee565b60405180910390f35b61042b611332565b6040516104389190614b30565b60405180910390f35b610449611457565b6040516104569190614ab5565b60405180910390f35b6104676114ae565b6040516104749190614dee565b60405180910390f35b6104856114b4565b6040516104929190614dee565b60405180910390f35b6104b560048036038101906104b091906144ca565b6114ba565b005b6104bf6118a4565b6040516104cc9190614b30565b60405180910390f35b6104dd611932565b6040516104ea9190614dee565b60405180910390f35b6104fb611938565b604051610509929190614b52565b60405180910390f35b61051a611aff565b6040516105279190614ab5565b60405180910390f35b610538611b56565b005b610542611cb4565b60405161054f9190614dee565b60405180910390f35b610572600480360381019061056d91906144a1565b611cba565b6040516105829493929190614b89565b60405180910390f35b6105a560048036038101906105a091906143b2565b611e8f565b005b60006002600083815260200190815260200160002060030160009054906101000a900460ff169050919050565b60105481565b6000806000806105e98561231c565b925092509250600186828585604051600081526020016040526040516106129493929190614aeb565b6020604051602081039080840390855afa158015610634573d6000803e3d6000fd5b50505060206040510351935050505092915050565b600160003373ffffffffffffffffffffffffffffffffffffffff1673ffffffffffffffffffffffffffffffffffffffff16815260200190815260200160002060060160009054906101000a900460ff166106d8576040517f08c379a00000000000000000000000000000000000000000000000000000000081526004016106cf90614c6e565b60405180910390fd5b600160003373ffffffffffffffffffffffffffffffffffffffff1673ffffffffffffffffffffffffffffffffffffffff16815260200190815260200160002060010160009054906101000a900460ff16610767576040517f08c379a000000000000000000000000000000000000000000000000000000000815260040161075e90614c8e565b60405180910390fd5b600160003373ffffffffffffffffffffffffffffffffffffffff1673ffffffffffffffffffffffffffffffffffffffff16815260200190815260200160002060080160009054906101000a900460ff16156107f7576040517f08c379a00000000000000000000000000000000000000000000000000000000081526004016107ee90614d4e565b60405180910390fd5b6000806108aa600160003373ffffffffffffffffffffffffffffffffffffffff1673ffffffffffffffffffffffffffffffffffffffff168152602001908152602001600020600701547f79be667ef9dcbbac55a06295ce870b07029bfcdb2dce28d959f2815b16f817987f483ada7726a3c4655da4fbfc0e1108a8fd17b448a68554199c47d08ffb10d4b860007ffffffffffffffffffffffffffffffffffffffffffffffffffffffffefffffc2f612384565b9150915083821480156108bc57508083145b1561098d57600160026000600160003373ffffffffffffffffffffffffffffffffffffffff1673ffffffffffffffffffffffffffffffffffffffff16815260200190815260200160002060090154815260200190815260200160002060030160006101000a81548160ff02191690831515021790555060018060003373ffffffffffffffffffffffffffffffffffffffff1673ffffffffffffffffffffffffffffffffffffffff16815260200190815260200160002060080160006101000a81548160ff0219169083151502179055505b50505050565b600f60009054906101000a900473ffffffffffffffffffffffffffffffffffffffff1673ffffffffffffffffffffffffffffffffffffffff163373ffffffffffffffffffffffffffffffffffffffff1614610a23576040517f08c379a0000000000000000000000000000000000000000000000000000000008152600401610a1a90614d8e565b60405180910390fd5b6000600e541115610a69576040517f08c379a0000000000000000000000000000000000000000000000000000000008152600401610a6090614cce565b60405180910390fd5b60056000815480929190610a7c906150a6565b91905055506040518060800160405280600554815260200183815260200182815260200160008152506000806005548152602001908152602001600020600082015181600001556020820151816001019080519060200190610adf929190613fd0565b506040820151816002019080519060200190610afc929190613fd0565b50606082015181600301559050505050565b6060806060806000806000600160003373ffffffffffffffffffffffffffffffffffffffff1673ffffffffffffffffffffffffffffffffffffffff168152602001908152602001600020600301600160003373ffffffffffffffffffffffffffffffffffffffff1673ffffffffffffffffffffffffffffffffffffffff168152602001908152602001600020600401600160003373ffffffffffffffffffffffffffffffffffffffff1673ffffffffffffffffffffffffffffffffffffffff168152602001908152602001600020600201600160003373ffffffffffffffffffffffffffffffffffffffff1673ffffffffffffffffffffffffffffffffffffffff168152602001908152602001600020600501600160003373ffffffffffffffffffffffffffffffffffffffff1673ffffffffffffffffffffffffffffffffffffffff16815260200190815260200160002060060160009054906101000a900460ff16600160003373ffffffffffffffffffffffffffffffffffffffff1673ffffffffffffffffffffffffffffffffffffffff16815260200190815260200160002060010160009054906101000a900460ff16600160003373ffffffffffffffffffffffffffffffffffffffff1673ffffffffffffffffffffffffffffffffffffffff16815260200190815260200160002060080160009054906101000a900460ff16868054610d1d90615074565b80601f0160208091040260200160405190810160405280929190818152602001828054610d4990615074565b8015610d965780601f10610d6b57610100808354040283529160200191610d96565b820191906000526020600020905b815481529060010190602001808311610d7957829003601f168201915b50505050509650858054610da990615074565b80601f0160208091040260200160405190810160405280929190818152602001828054610dd590615074565b8015610e225780601f10610df757610100808354040283529160200191610e22565b820191906000526020600020905b815481529060010190602001808311610e0557829003601f168201915b50505050509550848054610e3590615074565b80601f0160208091040260200160405190810160405280929190818152602001828054610e6190615074565b8015610eae5780601f10610e8357610100808354040283529160200191610eae565b820191906000526020600020905b815481529060010190602001808311610e9157829003601f168201915b50505050509450838054610ec190615074565b80601f0160208091040260200160405190810160405280929190818152602001828054610eed90615074565b8015610f3a5780601f10610f0f57610100808354040283529160200191610f3a565b820191906000526020600020905b815481529060010190602001808311610f1d57829003601f168201915b50505050509350965096509650965096509650965090919293949596565b60055481565b600081604051602001610f719190614a48565b604051602081830303815290604052805190602001209050919050565b6000602052806000526040600020600091509050806000015490806001018054610fb790615074565b80601f0160208091040260200160405190810160405280929190818152602001828054610fe390615074565b80156110305780601f1061100557610100808354040283529160200191611030565b820191906000526020600020905b81548152906001019060200180831161101357829003601f168201915b50505050509080600201805461104590615074565b80601f016020809104026020016040519081016040528092919081815260200182805461107190615074565b80156110be5780601f10611093576101008083540402835291602001916110be565b820191906000526020600020905b8154815290600101906020018083116110a157829003601f168201915b5050505050908060030154905084565b6000806110da84611183565b905060006110e782610f5e565b9050600f60009054906101000a900473ffffffffffffffffffffffffffffffffffffffff1673ffffffffffffffffffffffffffffffffffffffff1661112c82866105da565b73ffffffffffffffffffffffffffffffffffffffff16149250505092915050565b6000816040516020016111609190614b30565b604051602081830303815290604052805190602001209050919050565b600e5481565b6000816040516020016111969190614a31565b604051602081830303815290604052805190602001209050919050565b600042336040516020016111c8929190614a6e565b6040516020818303038152906040528051906020012060001c905090565b600f60009054906101000a900473ffffffffffffffffffffffffffffffffffffffff1673ffffffffffffffffffffffffffffffffffffffff163373ffffffffffffffffffffffffffffffffffffffff1614611276576040517f08c379a000000000000000000000000000000000000000000000000000000000815260040161126d90614d8e565b60405180910390fd5b6001600e541415801561128c57506002600e5414155b6112cb576040517f08c379a00000000000000000000000000000000000000000000000000000000081526004016112c290614cae565b60405180910390fd5b6000600e81905550600b600e546003811061130f577f4e487b7100000000000000000000000000000000000000000000000000000000600052603260045260246000fd5b01600890805461131e90615074565b611329929190614056565b50565b60115481565b60606000600190506000806000600181526020019081526020016000206003015490506000600290505b60055481116113b1578160008083815260200190815260200160002060030154111561139e578092506000808281526020019081526020016000206003015491505b80806113a9906150a6565b91505061135c565b5060008083815260200190815260200160002060010180546113d290615074565b80601f01602080910402602001604051908101604052809291908181526020018280546113fe90615074565b801561144b5780601f106114205761010080835404028352916020019161144b565b820191906000526020600020905b81548152906001019060200180831161142e57829003601f168201915b50505050509250505090565b6000600160003373ffffffffffffffffffffffffffffffffffffffff1673ffffffffffffffffffffffffffffffffffffffff16815260200190815260200160002060010160009054906101000a900460ff16905090565b60095481565b600a5481565b600160003373ffffffffffffffffffffffffffffffffffffffff1673ffffffffffffffffffffffffffffffffffffffff16815260200190815260200160002060060160009054906101000a900460ff16611549576040517f08c379a000000000000000000000000000000000000000000000000000000000815260040161154090614c6e565b60405180910390fd5b600160003373ffffffffffffffffffffffffffffffffffffffff1673ffffffffffffffffffffffffffffffffffffffff16815260200190815260200160002060010160009054906101000a900460ff16156115d9576040517f08c379a00000000000000000000000000000000000000000000000000000000081526004016115d090614c8e565b60405180910390fd5b6000831180156115eb57506005548311155b6115f457600080fd5b60018060003373ffffffffffffffffffffffffffffffffffffffff1673ffffffffffffffffffffffffffffffffffffffff16815260200190815260200160002060010160006101000a81548160ff0219169083151502179055506000808481526020019081526020016000206003016000815480929190611674906150a6565b91905055506064600160003373ffffffffffffffffffffffffffffffffffffffff1673ffffffffffffffffffffffffffffffffffffffff168152602001908152602001600020600701819055506040518060800160405280600160003373ffffffffffffffffffffffffffffffffffffffff1673ffffffffffffffffffffffffffffffffffffffff168152602001908152602001600020600501805461171990615074565b80601f016020809104026020016040519081016040528092919081815260200182805461174590615074565b80156117925780601f1061176757610100808354040283529160200191611792565b820191906000526020600020905b81548152906001019060200180831161177557829003601f168201915b505050505081526020018381526020018281526020016000151581525060026000600a54815260200190815260200160002060008201518160000190805190602001906117e0929190613fd0565b5060208201518160010190805190602001906117fd929190613fd0565b50604082015181600201908051906020019061181a929190613fd0565b5060608201518160030160006101000a81548160ff021916908315150217905550905050600a54600160003373ffffffffffffffffffffffffffffffffffffffff1673ffffffffffffffffffffffffffffffffffffffff16815260200190815260200160002060090181905550600a600081548092919061189a906150a6565b9190505550505050565b600880546118b190615074565b80601f01602080910402602001604051908101604052809291908181526020018280546118dd90615074565b801561192a5780601f106118ff5761010080835404028352916020019161192a565b820191906000526020600020905b81548152906001019060200180831161190d57829003601f168201915b505050505081565b60075481565b6060806000806119ee600160003373ffffffffffffffffffffffffffffffffffffffff1673ffffffffffffffffffffffffffffffffffffffff168152602001908152602001600020600701547f79be667ef9dcbbac55a06295ce870b07029bfcdb2dce28d959f2815b16f817987f483ada7726a3c4655da4fbfc0e1108a8fd17b448a68554199c47d08ffb10d4b860007ffffffffffffffffffffffffffffffffffffffffffffffffffffffffefffffc2f612384565b915091505b611a228282600060077ffffffffffffffffffffffffffffffffffffffffffffffffffffffffefffffc2f6123be565b611ae357611ad6600160003373ffffffffffffffffffffffffffffffffffffffff1673ffffffffffffffffffffffffffffffffffffffff168152602001908152602001600020600701547f79be667ef9dcbbac55a06295ce870b07029bfcdb2dce28d959f2815b16f817987f483ada7726a3c4655da4fbfc0e1108a8fd17b448a68554199c47d08ffb10d4b860007ffffffffffffffffffffffffffffffffffffffffffffffffffffffffefffffc2f612384565b80925081935050506119f3565b611aec82612570565b611af582612570565b9350935050509091565b6000600160003373ffffffffffffffffffffffffffffffffffffffff1673ffffffffffffffffffffffffffffffffffffffff16815260200190815260200160002060060160009054906101000a900460ff16905090565b600f60009054906101000a900473ffffffffffffffffffffffffffffffffffffffff1673ffffffffffffffffffffffffffffffffffffffff163373ffffffffffffffffffffffffffffffffffffffff1614611be6576040517f08c379a0000000000000000000000000000000000000000000000000000000008152600401611bdd90614d8e565b60405180910390fd5b600e6000815480929190611bf9906150a6565b91905055506003600e541015611c6557600b600e5460038110611c45577f4e487b7100000000000000000000000000000000000000000000000000000000600052603260045260246000fd5b016008908054611c5490615074565b611c5f929190614056565b50611cb2565b6040518060400160405280600e81526020017f456c656374696f6e20656e64656400000000000000000000000000000000000081525060089080519060200190611cb0929190613fd0565b505b565b60065481565b6002602052806000526040600020600091509050806000018054611cdd90615074565b80601f0160208091040260200160405190810160405280929190818152602001828054611d0990615074565b8015611d565780601f10611d2b57610100808354040283529160200191611d56565b820191906000526020600020905b815481529060010190602001808311611d3957829003601f168201915b505050505090806001018054611d6b90615074565b80601f0160208091040260200160405190810160405280929190818152602001828054611d9790615074565b8015611de45780601f10611db957610100808354040283529160200191611de4565b820191906000526020600020905b815481529060010190602001808311611dc757829003601f168201915b505050505090806002018054611df990615074565b80601f0160208091040260200160405190810160405280929190818152602001828054611e2590615074565b8015611e725780601f10611e4757610100808354040283529160200191611e72565b820191906000526020600020905b815481529060010190602001808311611e5557829003601f168201915b5050505050908060030160009054906101000a900460ff16905084565b600f60009054906101000a900473ffffffffffffffffffffffffffffffffffffffff1673ffffffffffffffffffffffffffffffffffffffff163373ffffffffffffffffffffffffffffffffffffffff161415611f20576040517f08c379a0000000000000000000000000000000000000000000000000000000008152600401611f1790614d2e565b60405180910390fd5b60003390506000611f308761114d565b90506000600160008473ffffffffffffffffffffffffffffffffffffffff1673ffffffffffffffffffffffffffffffffffffffff16815260200190815260200160002090508060060160009054906101000a900460ff1615611fc7576040517f08c379a0000000000000000000000000000000000000000000000000000000008152600401611fbe90614d0e565b60405180910390fd5b600073ffffffffffffffffffffffffffffffffffffffff166003600084815260200190815260200160002060009054906101000a900473ffffffffffffffffffffffffffffffffffffffff1673ffffffffffffffffffffffffffffffffffffffff1614612069576040517f08c379a000000000000000000000000000000000000000000000000000000000815260040161206090614d6e565b60405180910390fd5b8260046000600954815260200190815260200160002060006101000a81548173ffffffffffffffffffffffffffffffffffffffff021916908373ffffffffffffffffffffffffffffffffffffffff1602179055506040518061016001604052808381526020016000151581526020018473ffffffffffffffffffffffffffffffffffffffff168152602001888152602001878152602001868152602001858152602001600115158152602001600081526020016000151581526020016000815250600160008573ffffffffffffffffffffffffffffffffffffffff1673ffffffffffffffffffffffffffffffffffffffff1681526020019081526020016000206000820151816000015560208201518160010160006101000a81548160ff02191690831515021790555060408201518160010160016101000a81548173ffffffffffffffffffffffffffffffffffffffff021916908373ffffffffffffffffffffffffffffffffffffffff16021790555060608201518160020190805190602001906121f6929190613fd0565b506080820151816003019080519060200190612213929190613fd0565b5060a0820151816004019080519060200190612230929190613fd0565b5060c082015181600501908051906020019061224d929190613fd0565b5060e08201518160060160006101000a81548160ff02191690831515021790555061010082015181600701556101208201518160080160006101000a81548160ff0219169083151502179055506101408201518160090155905050826003600084815260200190815260200160002060006101000a81548173ffffffffffffffffffffffffffffffffffffffff021916908373ffffffffffffffffffffffffffffffffffffffff1602179055506009600081548092919061230d906150a6565b91905055505050505050505050565b60008060006041845114612365576040517f08c379a000000000000000000000000000000000000000000000000000000000815260040161235c90614dae565b60405180910390fd5b6020840151925060408401519150606084015160001a90509193909250565b600080600080600061239b8a8a8a60018b8b612694565b9250925092506123ad83838389612734565b945094505050509550959350505050565b600085600014806123cf5750818610155b806123da5750846000145b806123e55750818510155b156123f35760009050612567565b6000828061242a577f4e487b7100000000000000000000000000000000000000000000000000000000600052601260045260246000fd5b868709905060008380612466577f4e487b7100000000000000000000000000000000000000000000000000000000600052601260045260246000fd5b88858061249c577f4e487b7100000000000000000000000000000000000000000000000000000000600052601260045260246000fd5b8a8b090990506000861461251c5783806124df577f4e487b7100000000000000000000000000000000000000000000000000000000600052601260045260246000fd5b8480612514577f4e487b7100000000000000000000000000000000000000000000000000000000600052601260045260246000fd5b878a09820890505b6000851461255f578380612559577f4e487b7100000000000000000000000000000000000000000000000000000000600052601260045260246000fd5b85820890505b808214925050505b95945050505050565b60606000600161257f84612843565b01905060008167ffffffffffffffff8111156125c4577f4e487b7100000000000000000000000000000000000000000000000000000000600052604160045260246000fd5b6040519080825280601f01601f1916602001820160405280156125f65781602001600182028036833780820191505090505b509050600082602001820190505b600115612689578080600190039150507f3031323334353637383961626364656600000000000000000000000000000000600a86061a8153600a8581612673577f4e487b7100000000000000000000000000000000000000000000000000000000600052601260045260246000fd5b049450600085141561268457612689565b612604565b819350505050919050565b6000806000808914156126af57878787925092509250612728565b60008990506000806000600190505b6000841461271a57600060018516146126ed576126e08383838f8f8f8e612a7a565b8093508194508295505050505b6002846126fa9190614f14565b93506127098c8c8c8c8c613a07565b809c50819d50829e505050506126be565b828282965096509650505050505b96509650969350505050565b60008060006127438585613e98565b90506000848061277c577f4e487b7100000000000000000000000000000000000000000000000000000000600052601260045260246000fd5b8283099050600085806127b8577f4e487b7100000000000000000000000000000000000000000000000000000000600052601260045260246000fd5b828a099050600086806127f4577f4e487b7100000000000000000000000000000000000000000000000000000000600052601260045260246000fd5b8780612829577f4e487b7100000000000000000000000000000000000000000000000000000000600052601260045260246000fd5b8486098a0990508181955095505050505094509492505050565b600080600090507a184f03e93ff9f4daa797ed6e38ed64bf6a1f01000000000000000083106128c7577a184f03e93ff9f4daa797ed6e38ed64bf6a1f01000000000000000083816128bd577f4e487b7100000000000000000000000000000000000000000000000000000000600052601260045260246000fd5b0492506040810190505b6d04ee2d6d415b85acef8100000000831061292a576d04ee2d6d415b85acef81000000008381612920577f4e487b7100000000000000000000000000000000000000000000000000000000600052601260045260246000fd5b0492506020810190505b662386f26fc10000831061297f57662386f26fc100008381612975577f4e487b7100000000000000000000000000000000000000000000000000000000600052601260045260246000fd5b0492506010810190505b6305f5e10083106129ce576305f5e10083816129c4577f4e487b7100000000000000000000000000000000000000000000000000000000600052601260045260246000fd5b0492506008810190505b6127108310612a19576127108381612a0f577f4e487b7100000000000000000000000000000000000000000000000000000000600052601260045260246000fd5b0492506004810190505b60648310612a625760648381612a58577f4e487b7100000000000000000000000000000000000000000000000000000000600052601260045260246000fd5b0492506002810190505b600a8310612a71576001810190505b80915050919050565b6000806000808a148015612a8e5750600089145b15612aa1578686869250925092506139fa565b600087148015612ab15750600086145b15612ac4578989899250925092506139fa565b612acc6140e3565b8480612b01577f4e487b7100000000000000000000000000000000000000000000000000000000600052601260045260246000fd5b898a0981600060048110612b3e577f4e487b7100000000000000000000000000000000000000000000000000000000600052603260045260246000fd5b6020020181815250508480612b7c577f4e487b7100000000000000000000000000000000000000000000000000000000600052601260045260246000fd5b81600060048110612bb6577f4e487b7100000000000000000000000000000000000000000000000000000000600052603260045260246000fd5b60200201518a0981600160048110612bf7577f4e487b7100000000000000000000000000000000000000000000000000000000600052603260045260246000fd5b6020020181815250508480612c35577f4e487b7100000000000000000000000000000000000000000000000000000000600052601260045260246000fd5b86870981600260048110612c72577f4e487b7100000000000000000000000000000000000000000000000000000000600052603260045260246000fd5b6020020181815250508480612cb0577f4e487b7100000000000000000000000000000000000000000000000000000000600052601260045260246000fd5b81600260048110612cea577f4e487b7100000000000000000000000000000000000000000000000000000000600052603260045260246000fd5b6020020151870981600360048110612d2b577f4e487b7100000000000000000000000000000000000000000000000000000000600052603260045260246000fd5b60200201818152505060405180608001604052808680612d74577f4e487b7100000000000000000000000000000000000000000000000000000000600052601260045260246000fd5b83600260048110612dae577f4e487b7100000000000000000000000000000000000000000000000000000000600052603260045260246000fd5b60200201518e0981526020018680612def577f4e487b7100000000000000000000000000000000000000000000000000000000600052601260045260246000fd5b83600360048110612e29577f4e487b7100000000000000000000000000000000000000000000000000000000600052603260045260246000fd5b60200201518d0981526020018680612e6a577f4e487b7100000000000000000000000000000000000000000000000000000000600052601260045260246000fd5b83600060048110612ea4577f4e487b7100000000000000000000000000000000000000000000000000000000600052603260045260246000fd5b60200201518b0981526020018680612ee5577f4e487b7100000000000000000000000000000000000000000000000000000000600052601260045260246000fd5b83600160048110612f1f577f4e487b7100000000000000000000000000000000000000000000000000000000600052603260045260246000fd5b60200201518a09815250905080600260048110612f65577f4e487b7100000000000000000000000000000000000000000000000000000000600052603260045260246000fd5b602002015181600060048110612fa4577f4e487b7100000000000000000000000000000000000000000000000000000000600052603260045260246000fd5b6020020151141580613032575080600360048110612feb577f4e487b7100000000000000000000000000000000000000000000000000000000600052603260045260246000fd5b60200201518160016004811061302a577f4e487b7100000000000000000000000000000000000000000000000000000000600052603260045260246000fd5b602002015114155b613071576040517f08c379a000000000000000000000000000000000000000000000000000000000815260040161306890614cee565b60405180910390fd5b6130796140e3565b85806130ae577f4e487b7100000000000000000000000000000000000000000000000000000000600052601260045260246000fd5b826000600481106130e8577f4e487b7100000000000000000000000000000000000000000000000000000000600052603260045260246000fd5b6020020151876130f89190614f9f565b83600260048110613132577f4e487b7100000000000000000000000000000000000000000000000000000000600052603260045260246000fd5b60200201510881600060048110613172577f4e487b7100000000000000000000000000000000000000000000000000000000600052603260045260246000fd5b60200201818152505085806131b0577f4e487b7100000000000000000000000000000000000000000000000000000000600052601260045260246000fd5b826001600481106131ea577f4e487b7100000000000000000000000000000000000000000000000000000000600052603260045260246000fd5b6020020151876131fa9190614f9f565b83600360048110613234577f4e487b7100000000000000000000000000000000000000000000000000000000600052603260045260246000fd5b60200201510881600160048110613274577f4e487b7100000000000000000000000000000000000000000000000000000000600052603260045260246000fd5b60200201818152505085806132b2577f4e487b7100000000000000000000000000000000000000000000000000000000600052601260045260246000fd5b816000600481106132ec577f4e487b7100000000000000000000000000000000000000000000000000000000600052603260045260246000fd5b60200201518260006004811061332b577f4e487b7100000000000000000000000000000000000000000000000000000000600052603260045260246000fd5b6020020151098160026004811061336b577f4e487b7100000000000000000000000000000000000000000000000000000000600052603260045260246000fd5b60200201818152505085806133a9577f4e487b7100000000000000000000000000000000000000000000000000000000600052601260045260246000fd5b816000600481106133e3577f4e487b7100000000000000000000000000000000000000000000000000000000600052603260045260246000fd5b602002015182600260048110613422577f4e487b7100000000000000000000000000000000000000000000000000000000600052603260045260246000fd5b60200201510981600360048110613462577f4e487b7100000000000000000000000000000000000000000000000000000000600052603260045260246000fd5b602002018181525050600086806134a2577f4e487b7100000000000000000000000000000000000000000000000000000000600052601260045260246000fd5b826003600481106134dc577f4e487b7100000000000000000000000000000000000000000000000000000000600052603260045260246000fd5b6020020151886134ec9190614f9f565b8880613521577f4e487b7100000000000000000000000000000000000000000000000000000000600052601260045260246000fd5b8460016004811061355b577f4e487b7100000000000000000000000000000000000000000000000000000000600052603260045260246000fd5b60200201518560016004811061359a577f4e487b7100000000000000000000000000000000000000000000000000000000600052603260045260246000fd5b60200201510908905086806135d8577f4e487b7100000000000000000000000000000000000000000000000000000000600052601260045260246000fd5b878061360d577f4e487b7100000000000000000000000000000000000000000000000000000000600052601260045260246000fd5b8880613642577f4e487b7100000000000000000000000000000000000000000000000000000000600052601260045260246000fd5b8460026004811061367c577f4e487b7100000000000000000000000000000000000000000000000000000000600052603260045260246000fd5b6020020151866000600481106136bb577f4e487b7100000000000000000000000000000000000000000000000000000000600052603260045260246000fd5b602002015109600209886136cf9190614f9f565b820890506000878061370a577f4e487b7100000000000000000000000000000000000000000000000000000000600052601260045260246000fd5b888061373f577f4e487b7100000000000000000000000000000000000000000000000000000000600052601260045260246000fd5b838a61374b9190614f9f565b8a80613780577f4e487b7100000000000000000000000000000000000000000000000000000000600052601260045260246000fd5b866002600481106137ba577f4e487b7100000000000000000000000000000000000000000000000000000000600052603260045260246000fd5b6020020151886000600481106137f9577f4e487b7100000000000000000000000000000000000000000000000000000000600052603260045260246000fd5b602002015109088460016004811061383a577f4e487b7100000000000000000000000000000000000000000000000000000000600052603260045260246000fd5b60200201510990508780613877577f4e487b7100000000000000000000000000000000000000000000000000000000600052601260045260246000fd5b88806138ac577f4e487b7100000000000000000000000000000000000000000000000000000000600052601260045260246000fd5b846003600481106138e6577f4e487b7100000000000000000000000000000000000000000000000000000000600052603260045260246000fd5b602002015186600160048110613925577f4e487b7100000000000000000000000000000000000000000000000000000000600052603260045260246000fd5b602002015109896139369190614f9f565b8208905060008880613971577f4e487b7100000000000000000000000000000000000000000000000000000000600052601260045260246000fd5b89806139a6577f4e487b7100000000000000000000000000000000000000000000000000000000600052601260045260246000fd5b8b8f09856000600481106139e3577f4e487b7100000000000000000000000000000000000000000000000000000000600052603260045260246000fd5b602002015109905082828297509750975050505050505b9750975097945050505050565b600080600080861415613a2257878787925092509250613e8d565b60008480613a59577f4e487b7100000000000000000000000000000000000000000000000000000000600052601260045260246000fd5b898a09905060008580613a95577f4e487b7100000000000000000000000000000000000000000000000000000000600052601260045260246000fd5b898a09905060008680613ad1577f4e487b7100000000000000000000000000000000000000000000000000000000600052601260045260246000fd5b898a09905060008780613b0d577f4e487b7100000000000000000000000000000000000000000000000000000000600052601260045260246000fd5b8880613b42577f4e487b7100000000000000000000000000000000000000000000000000000000600052601260045260246000fd5b848e09600409905060008880613b81577f4e487b7100000000000000000000000000000000000000000000000000000000600052601260045260246000fd5b8980613bb6577f4e487b7100000000000000000000000000000000000000000000000000000000600052601260045260246000fd5b8a80613beb577f4e487b7100000000000000000000000000000000000000000000000000000000600052601260045260246000fd5b8586098c098a80613c25577f4e487b7100000000000000000000000000000000000000000000000000000000600052601260045260246000fd5b876003090890508880613c61577f4e487b7100000000000000000000000000000000000000000000000000000000600052601260045260246000fd5b8980613c96577f4e487b7100000000000000000000000000000000000000000000000000000000600052601260045260246000fd5b8384088a613ca49190614f9f565b8a80613cd9577f4e487b7100000000000000000000000000000000000000000000000000000000600052601260045260246000fd5b8384090894508880613d14577f4e487b7100000000000000000000000000000000000000000000000000000000600052601260045260246000fd5b8980613d49577f4e487b7100000000000000000000000000000000000000000000000000000000600052601260045260246000fd5b8a80613d7e577f4e487b7100000000000000000000000000000000000000000000000000000000600052601260045260246000fd5b8687096008098a613d8f9190614f9f565b8a80613dc4577f4e487b7100000000000000000000000000000000000000000000000000000000600052601260045260246000fd5b8b80613df9577f4e487b7100000000000000000000000000000000000000000000000000000000600052601260045260246000fd5b888d613e059190614f9f565b860884090893508880613e41577f4e487b7100000000000000000000000000000000000000000000000000000000600052601260045260246000fd5b8980613e76577f4e487b7100000000000000000000000000000000000000000000000000000000600052601260045260246000fd5b8c8e09600209925084848497509750975050505050505b955095509592505050565b6000808314158015613eaa5750818314155b8015613eb7575060008214155b613ef6576040517f08c379a0000000000000000000000000000000000000000000000000000000008152600401613eed90614dce565b60405180910390fd5b60008060019050600084905060005b60008714613fc3578682613f199190614f14565b9050828680613f51577f4e487b7100000000000000000000000000000000000000000000000000000000600052601260045260246000fd5b8780613f86577f4e487b7100000000000000000000000000000000000000000000000000000000600052601260045260246000fd5b85840988613f949190614f9f565b86088094508195505050868782613fab9190614f45565b83613fb69190614f9f565b8098508193505050613f05565b8394505050505092915050565b828054613fdc90615074565b90600052602060002090601f016020900481019282613ffe5760008555614045565b82601f1061401757805160ff1916838001178555614045565b82800160010185558215614045579182015b82811115614044578251825591602001919060010190614029565b5b5090506140529190614105565b5090565b82805461406290615074565b90600052602060002090601f01602090048101928261408457600085556140d2565b82601f1061409557805485556140d2565b828001600101855582156140d257600052602060002091601f016020900482015b828111156140d15782548255916001019190600101906140b6565b5b5090506140df9190614105565b5090565b6040518060800160405280600490602082028036833780820191505090505090565b5b8082111561411e576000816000905550600101614106565b5090565b600061413561413084614e8d565b614e5c565b90508281526020810184848401111561414d57600080fd5b614158848285615032565b509392505050565b600061417361416e84614ebd565b614e5c565b90508281526020810184848401111561418b57600080fd5b614196848285615032565b509392505050565b6000813590506141ad81615201565b92915050565b600082601f8301126141c457600080fd5b81356141d4848260208601614122565b91505092915050565b600082601f8301126141ee57600080fd5b81356141fe848260208601614160565b91505092915050565b60008135905061421681615218565b92915050565b60006020828403121561422e57600080fd5b600061423c8482850161419e565b91505092915050565b6000806040838503121561425857600080fd5b60006142668582860161419e565b925050602083013567ffffffffffffffff81111561428357600080fd5b61428f858286016141b3565b9150509250929050565b6000602082840312156142ab57600080fd5b600082013567ffffffffffffffff8111156142c557600080fd5b6142d1848285016141dd565b91505092915050565b600080604083850312156142ed57600080fd5b600083013567ffffffffffffffff81111561430757600080fd5b614313858286016141dd565b925050602083013567ffffffffffffffff81111561433057600080fd5b61433c858286016141b3565b9150509250929050565b6000806040838503121561435957600080fd5b600083013567ffffffffffffffff81111561437357600080fd5b61437f858286016141dd565b925050602083013567ffffffffffffffff81111561439c57600080fd5b6143a8858286016141dd565b9150509250929050565b600080600080600060a086880312156143ca57600080fd5b600086013567ffffffffffffffff8111156143e457600080fd5b6143f0888289016141dd565b955050602086013567ffffffffffffffff81111561440d57600080fd5b614419888289016141dd565b945050604086013567ffffffffffffffff81111561443657600080fd5b614442888289016141dd565b935050606086013567ffffffffffffffff81111561445f57600080fd5b61446b888289016141dd565b925050608086013567ffffffffffffffff81111561448857600080fd5b614494888289016141dd565b9150509295509295909350565b6000602082840312156144b357600080fd5b60006144c184828501614207565b91505092915050565b6000806000606084860312156144df57600080fd5b60006144ed86828701614207565b935050602084013567ffffffffffffffff81111561450a57600080fd5b614516868287016141dd565b925050604084013567ffffffffffffffff81111561453357600080fd5b61453f868287016141dd565b9150509250925092565b6000806040838503121561455c57600080fd5b600061456a85828601614207565b925050602061457b85828601614207565b9150509250929050565b61458e81614fd3565b82525050565b6145a56145a082614fd3565b6150ef565b82525050565b6145b481614fe5565b82525050565b6145c381614ff1565b82525050565b6145da6145d582614ff1565b615101565b82525050565b60006145eb82614eed565b6145f58185614ef8565b9350614605818560208601615041565b61460e816151e3565b840191505092915050565b600061462482614eed565b61462e8185614f09565b935061463e818560208601615041565b80840191505092915050565b6000614657601e83614ef8565b91507f4f6e6c7920726567697374657265642075736572732063616e20766f746500006000830152602082019050919050565b6000614697600d83614ef8565b91507f416c726561647920566f746564000000000000000000000000000000000000006000830152602082019050919050565b60006146d7601c83614f09565b91507f19457468657265756d205369676e6564204d6573736167653a0a3332000000006000830152601c82019050919050565b6000614717601283614ef8565b91507f566f74696e6720696e2070726f677265737300000000000000000000000000006000830152602082019050919050565b6000614757602b83614ef8565b91507f43616e6e6f74206164642063616e6469646174657320647572696e6720766f7460008301527f696e672070726f636573730000000000000000000000000000000000000000006020830152604082019050919050565b60006147bd601e83614ef8565b91507f557365206a6163446f75626c652066756e6374696f6e20696e737465616400006000830152602082019050919050565b60006147fd602183614ef8565b91507f546865207075626c6963206164647265737320616c726561647920696e20757360008301527f65000000000000000000000000000000000000000000000000000000000000006020830152604082019050919050565b6000614863601583614ef8565b91507f41646d696e2043616e6e6f7420726567697374657200000000000000000000006000830152602082019050919050565b60006148a3601383614ef8565b91507f566f74657220616c726561647920766f746564000000000000000000000000006000830152602082019050919050565b60006148e3601a83614ef8565b91507f506572736f6e616c20494420616c726561647920696e207573650000000000006000830152602082019050919050565b6000614923602483614ef8565b91507f4f6e6c792041646d696e2063616e20706572666f726d20746869732066756e6360008301527f74696f6e000000000000000000000000000000000000000000000000000000006020830152604082019050919050565b6000614989601883614ef8565b91507f696e76616c6964207369676e6174757265206c656e67746800000000000000006000830152602082019050919050565b60006149c9600e83614ef8565b91507f496e76616c6964206e756d6265720000000000000000000000000000000000006000830152602082019050919050565b614a058161501b565b82525050565b614a1c614a178261501b565b61511d565b82525050565b614a2b81615025565b82525050565b6000614a3d8284614619565b915081905092915050565b6000614a53826146ca565b9150614a5f82846145c9565b60208201915081905092915050565b6000614a7a8285614a0b565b602082019150614a8a8284614594565b6014820191508190509392505050565b6000602082019050614aaf6000830184614585565b92915050565b6000602082019050614aca60008301846145ab565b92915050565b6000602082019050614ae560008301846145ba565b92915050565b6000608082019050614b0060008301876145ba565b614b0d6020830186614a22565b614b1a60408301856145ba565b614b2760608301846145ba565b95945050505050565b60006020820190508181036000830152614b4a81846145e0565b905092915050565b60006040820190508181036000830152614b6c81856145e0565b90508181036020830152614b8081846145e0565b90509392505050565b60006080820190508181036000830152614ba381876145e0565b90508181036020830152614bb781866145e0565b90508181036040830152614bcb81856145e0565b9050614bda60608301846145ab565b95945050505050565b600060e0820190508181036000830152614bfd818a6145e0565b90508181036020830152614c1181896145e0565b90508181036040830152614c2581886145e0565b90508181036060830152614c3981876145e0565b9050614c4860808301866145ab565b614c5560a08301856145ab565b614c6260c08301846145ab565b98975050505050505050565b60006020820190508181036000830152614c878161464a565b9050919050565b60006020820190508181036000830152614ca78161468a565b9050919050565b60006020820190508181036000830152614cc78161470a565b9050919050565b60006020820190508181036000830152614ce78161474a565b9050919050565b60006020820190508181036000830152614d07816147b0565b9050919050565b60006020820190508181036000830152614d27816147f0565b9050919050565b60006020820190508181036000830152614d4781614856565b9050919050565b60006020820190508181036000830152614d6781614896565b9050919050565b60006020820190508181036000830152614d87816148d6565b9050919050565b60006020820190508181036000830152614da781614916565b9050919050565b60006020820190508181036000830152614dc78161497c565b9050919050565b60006020820190508181036000830152614de7816149bc565b9050919050565b6000602082019050614e0360008301846149fc565b92915050565b6000608082019050614e1e60008301876149fc565b8181036020830152614e3081866145e0565b90508181036040830152614e4481856145e0565b9050614e5360608301846149fc565b95945050505050565b6000604051905081810181811067ffffffffffffffff82111715614e8357614e826151b4565b5b8060405250919050565b600067ffffffffffffffff821115614ea857614ea76151b4565b5b601f19601f8301169050602081019050919050565b600067ffffffffffffffff821115614ed857614ed76151b4565b5b601f19601f8301169050602081019050919050565b600081519050919050565b600082825260208201905092915050565b600081905092915050565b6000614f1f8261501b565b9150614f2a8361501b565b925082614f3a57614f39615156565b5b828204905092915050565b6000614f508261501b565b9150614f5b8361501b565b9250817fffffffffffffffffffffffffffffffffffffffffffffffffffffffffffffffff0483118215151615614f9457614f93615127565b5b828202905092915050565b6000614faa8261501b565b9150614fb58361501b565b925082821015614fc857614fc7615127565b5b828203905092915050565b6000614fde82614ffb565b9050919050565b60008115159050919050565b6000819050919050565b600073ffffffffffffffffffffffffffffffffffffffff82169050919050565b6000819050919050565b600060ff82169050919050565b82818337600083830152505050565b60005b8381101561505f578082015181840152602081019050615044565b8381111561506e576000848401525b50505050565b6000600282049050600182168061508c57607f821691505b602082108114156150a05761509f615185565b5b50919050565b60006150b18261501b565b91507fffffffffffffffffffffffffffffffffffffffffffffffffffffffffffffffff8214156150e4576150e3615127565b5b600182019050919050565b60006150fa8261510b565b9050919050565b6000819050919050565b6000615116826151f4565b9050919050565b6000819050919050565b7f4e487b7100000000000000000000000000000000000000000000000000000000600052601160045260246000fd5b7f4e487b7100000000000000000000000000000000000000000000000000000000600052601260045260246000fd5b7f4e487b7100000000000000000000000000000000000000000000000000000000600052602260045260246000fd5b7f4e487b7100000000000000000000000000000000000000000000000000000000600052604160045260246000fd5b6000601f19601f8301169050919050565b60008160601b9050919050565b61520a81614ff1565b811461521557600080fd5b50565b6152218161501b565b811461522c57600080fd5b5056fea26469706673582212202c6e722a146e8fbfc8f5bd890db7951b675533aabcac6836f5d93a4b09d8328064736f6c63430008000033",
  "immutableReferences": {},
  "source": "// SPDX-License-Identifier: MIT \r\npragma solidity  ^0.8.0;\r\nimport \"./EllipticCurve.sol\";\r\nimport \"@openzeppelin/contracts/utils/Strings.sol\";\r\n\r\n\r\n\r\ncontract Election { \r\n\r\n    struct voter {\r\n        bytes32 personal_id; //their personal id\r\n        bool hasVoted; //have they voted\r\n        address public_Address; //public address to wallet\r\n        string email; //email address for communication\r\n        string name; //name of voter \r\n        string surname; \r\n        string refNUm; \r\n        bool isRegistered;\r\n        uint256 PrivateKey;\r\n        bool  isVerifiedUser;\r\n        uint position;\r\n    }\r\n \r\n    struct votingRecords{\r\n        string ref;\r\n        string voteDate;\r\n        string voteTime;\r\n        bool isVerified;\r\n    }\r\n\r\n    \r\n\r\n\r\n     // Model a Candidate\r\n    struct Candidate {\r\n        uint id;\r\n        string name;\r\n        string party;\r\n        uint voteCount;\r\n    }\r\n    //ECC CONSTANTS - SECPTIC256\r\n    uint256 private constant GX = 0x79BE667EF9DCBBAC55A06295CE870B07029BFCDB2DCE28D959F2815B16F81798;\r\n    uint256 private constant GY = 0x483ADA7726A3C4655DA4FBFC0E1108A8FD17B448A68554199C47D08FFB10D4B8;\r\n    uint256 private constant AA = 0;\r\n    uint256 private constant BB = 7;\r\n    uint256 private constant PP = 0xFFFFFFFFFFFFFFFFFFFFFFFFFFFFFFFFFFFFFFFFFFFFFFFFFFFFFFFEFFFFFC2F;\r\n\r\n    // Read/write candidate\r\n    mapping(uint => Candidate) public candidates;\r\n\r\n    // Store accounts that have voted\r\n    mapping(address => voter) private voters;\r\n\r\n    mapping(uint => votingRecords) public votingTrails;\r\n\r\n    // Stores encyrted ID'S\r\n    mapping(bytes32 => address) private verifier;\r\n    mapping(uint => address) private recorder;\r\n\r\n\r\n    // Store Candidates Count\r\n    uint public candidatesCount;\r\n\r\n    uint256 public p1Holder;\r\n    uint256 public p2Holder;\r\n\r\n    // Stores Election phase\r\n    string public phase;\r\n\r\n    // Store number of voters\r\n    uint public votersCount;\r\n\r\n    //number of total votes\r\n    uint public numVotes;\r\n\r\n    string[3] phases = [\"registration\" , \"voting\", \"results\"];\r\n    uint public phasePointer;\r\n\r\n    // Admin is set once, when contract is deployed. Also saves gas fees\r\n    address private admin;\r\n    uint256 public votingStart;  //start of phase\r\n    uint256 public votingEnd; //end of phase\r\n\r\n    constructor() public { \r\n        admin = msg.sender;\r\n        phase=\"Election has not started\";\r\n    } \r\n\r\n    modifier onlyAdmin(){\r\n\t\trequire(msg.sender==admin, \"Only Admin can perform this function\");\r\n\t\t_;\r\n\t}\r\n\r\n       // Add a candidate\r\n    function addCandidate (string memory _name, string memory _party) onlyAdmin public {\r\n        require(phasePointer<=0, \"Cannot add candidates during voting process\");\r\n        candidatesCount ++;\r\n        candidates[candidatesCount] = Candidate({\r\n            id: candidatesCount, \r\n            name: _name,\r\n            party: _party, \r\n            voteCount: 0\r\n            });\r\n    }\r\n\r\n\r\n     // Add a voter\r\n    function addVoter (string memory _personal_id, string memory _email, string memory _name, string memory _surname, string memory _ref) public {\r\n            \r\n            require(msg.sender != admin, \"Admin Cannot register\"); //require that the user is not registered\r\n            address _pAdress = msg.sender; \r\n            bytes32 encrypt_id = keccak256_encrypt(_personal_id);  //encrypt personal id\r\n            voter storage user = voters[_pAdress];\r\n            require(!user.isRegistered, \"The public address already in use\"); //require that the user is not registered\r\n\r\n            //require that personal_id is not already in use\r\n            require(verifier[encrypt_id] == 0x0000000000000000000000000000000000000000, \"Personal ID already in use\");\r\n            recorder[votersCount] = _pAdress;\r\n            voters[_pAdress] = voter( {personal_id: encrypt_id, \r\n                            hasVoted:false, \r\n                            public_Address:_pAdress,\r\n                            email: _email, \r\n                            name:_name, \r\n                            surname: _surname, \r\n                            refNUm: _ref,\r\n                            isRegistered:true,\r\n                            PrivateKey:0,\r\n                            isVerifiedUser:false,\r\n                            position:0\r\n                    });\r\n            \r\n           \r\n            verifier[encrypt_id] = _pAdress;\r\n            votersCount ++;\r\n            \r\n    }\r\n\r\n    //get voter details to display to voter\r\n    function getVoter() public view returns(string memory, string memory, string memory, string memory, bool, bool, bool){\r\n            return(voters[msg.sender].name, voters[msg.sender].surname, voters[msg.sender].email, \r\n            voters[msg.sender].refNUm, voters[msg.sender].isRegistered, voters[msg.sender].hasVoted, voters[msg.sender].isVerifiedUser);             \r\n    }\r\n\r\n    //returns true if voter registered\r\n    function isVoter_Registered() public view returns (bool){\r\n        return voters[msg.sender].isRegistered;\r\n    }\r\n\r\n    \r\n  // https://stackoverflow.com/questions/73555009/how-to-generate-random-words-in-solidity-based-based-on-a-string-of-letters/73557284#73557284\r\n  function random() public view returns (uint) {\r\n        return uint (keccak256(abi.encodePacked (block.timestamp, msg.sender)));\r\n     }\r\n\r\n     //returns true if voter registered\r\n    function has_Voted() public view returns (bool){\r\n        return voters[msg.sender].hasVoted;\r\n    }\r\n\r\n    // voting function, all accounts can vote\r\n    function vote (uint _candidateId, string memory _date, string memory _time) public {\r\n\r\n        //must be registered to vote\r\n        require(voters[msg.sender].isRegistered, \"Only registered users can vote\");\r\n\r\n        // require that they haven't voted before\r\n        require(!voters[msg.sender].hasVoted, \"Already Voted\"); \r\n        \r\n        // require a valid candidate\r\n        require(_candidateId > 0 && _candidateId <= candidatesCount);\r\n\r\n        // record that voter has voted\r\n        voters[msg.sender].hasVoted = true;\r\n\r\n        // update candidate vote Count\r\n        candidates[_candidateId].voteCount ++;\r\n\r\n        voters[msg.sender].PrivateKey = 100;  //CREATE PRIVATE KEY\r\n        // (uint p1, uint p2) = EllipticCurve.ecMul(voters[msg.sender].PrivateKey,GX,GY,AA,PP); //CREATE Public Keys\r\n        // pKeys[msg.sender] = keys({\r\n        //         PublicKey1:p1,\r\n        //         PublicKey2:p2\r\n        // });\r\n        votingTrails[numVotes] = votingRecords({\r\n                                                ref:voters[msg.sender].refNUm,\r\n                                                voteDate:_date,\r\n                                                voteTime:_time,\r\n                                                isVerified:false\r\n                                         });\r\n        voters[msg.sender].position = numVotes;\r\n        numVotes++;\r\n        \r\n    }\r\n\r\n     function copyKeys() public view returns(string memory, string memory){\r\n            (uint256 p1, uint256 p2) = EllipticCurve.ecMul(voters[msg.sender].PrivateKey,GX,GY,AA,PP); \r\n            while(!EllipticCurve.isOnCurve(p1, p2, AA, BB, PP)){\r\n                 (p1, p2) = EllipticCurve.ecMul(voters[msg.sender].PrivateKey,GX,GY,AA,PP); \r\n            }\r\n            return (Strings.toString(p1), Strings.toString(p2));          \r\n    }\r\n\r\n\r\n\r\n\r\n    function verifyVote(uint _key1, uint _key2) public{\r\n                 //must be registered to vote\r\n        require(voters[msg.sender].isRegistered, \"Only registered users can vote\");\r\n\r\n        // require that they haven't voted before\r\n        require(voters[msg.sender].hasVoted, \"Already Voted\");\r\n\r\n        require(!voters[msg.sender].isVerifiedUser, \"Voter already voted\");\r\n\r\n        (uint256 p1, uint256 p2) = EllipticCurve.ecMul(voters[msg.sender].PrivateKey,GX,GY,AA,PP); //creating public keys from the user address\r\n\r\n        if(p1==_key1 && _key2==p2 ){ //public keys match\r\n         \r\n            votingTrails[voters[msg.sender].position].isVerified = true;\r\n            voters[msg.sender].isVerifiedUser = true;\r\n        }\r\n\r\n    }\r\n\r\n    function getTrailer(uint position) public view returns(bool){\r\n         return votingTrails[position].isVerified;\r\n    }\r\n\r\n\r\n    // start election\r\n    function startElection() onlyAdmin public {\r\n            require(phasePointer!=1 && phasePointer!=2, \"Voting in progress\");\r\n            phasePointer = 0;\r\n            phase = phases[phasePointer]; //contract is deployed in the registration phase\r\n    \r\n    }\r\n\r\n    //change election phase\r\n    function changePhase() onlyAdmin public {\r\n        phasePointer++;\r\n        if (phasePointer <3) {\r\n            phase = phases[phasePointer];\r\n        } else {\r\n            phase = \"Election ended\";\r\n        }\r\n\r\n    }\r\n\r\n\r\n    //hash function\r\n    function keccak256_encrypt(string memory text) public pure returns (bytes32) {\r\n        return keccak256(abi.encode(text));\r\n    }\r\n\r\n    function getWinner() public view returns(string memory) {\r\n        uint winner = 1;\r\n        uint voterS = candidates[1].voteCount;\r\n        for (uint index = 2; index <=  candidatesCount; index++) {\r\n            if(candidates[index].voteCount > voterS){\r\n                winner = index;\r\n                voterS = candidates[index].voteCount;\r\n                }\r\n        }\r\n        return (candidates[winner].name);\r\n\r\n    }\r\n\r\n\r\n    //<----------------------------------- Verifies signed message -------------------------------->\r\n    function verify (string memory _message, bytes memory _sig) public view returns (bool) {\r\n        bytes32 hash_SMS = getHash(_message);\r\n        bytes32 ethSignedMessageHash = getEthSignedHash(hash_SMS);\r\n        return recover(ethSignedMessageHash, _sig) == admin;\r\n    }\r\n    \r\n    //has a tring\r\n    function getHash (string memory sms) public pure returns (bytes32){\r\n        return keccak256(abi.encodePacked(sms));\r\n    }\r\n\r\n\r\n    function getEthSignedHash (bytes32 sms) public pure returns (bytes32){\r\n        return keccak256(abi.encodePacked(\"\\x19Ethereum Signed Message:\\n32\", sms));\r\n    }\r\n\r\n\r\n    //recover account of original signer of message\r\n    function recover(bytes32 _ethSignedMessageHash, bytes memory _sig) public pure returns (address){\r\n            (bytes32 r, bytes32 s, uint8 v) = _split(_sig); //split signature into params\r\n            return ecrecover(_ethSignedMessageHash, v, r, s); //returns the address of the signer given the signed message\r\n    }\r\n\r\n    function _split(bytes memory _sig) internal pure returns (bytes32 r, bytes32 s, uint8 v){\r\n            require(_sig.length == 65, \"invalid signature length\");\r\n\r\n            assembly {\r\n                r := mload(add(_sig, 32))  //skip first 32-byetes as they hold the length\r\n                s := mload(add(_sig, 64))\r\n                v := byte(0, mload(add(_sig, 96)))\r\n\r\n            }\r\n    }\r\n\r\n    //<----------------------------------- ECC CRYPTOGRAPHY -------------------------------->\r\n\r\n}",
  "sourcePath": "C:\\Users\\Student\\Downloads\\crypto\\Code\\contracts\\Election.sol",
  "compiler": {
    "name": "solc",
    "version": "0.8.0+commit.c7dfd78e.Emscripten.clang"
  },
  "schemaVersion": "3.4.16",
  "updatedAt": "2023-09-29T14:38:20.800Z",
  "networkType": "ethereum",
  "devdoc": {
    "kind": "dev",
    "methods": {},
    "version": 1
  },
  "userdoc": {
    "kind": "user",
    "methods": {},
    "version": 1
  }
}