{
  "contractName": "Election",
  "abi": [
    {
      "inputs": [],
      "stateMutability": "nonpayable",
      "type": "constructor"
    },
    {
      "inputs": [
        {
          "internalType": "uint256",
          "name": "",
          "type": "uint256"
        }
      ],
      "name": "candidates",
      "outputs": [
        {
          "internalType": "uint256",
          "name": "id",
          "type": "uint256"
        },
        {
          "internalType": "string",
          "name": "name",
          "type": "string"
        },
        {
          "internalType": "string",
          "name": "party",
          "type": "string"
        },
        {
          "internalType": "uint256",
          "name": "voteCount",
          "type": "uint256"
        }
      ],
      "stateMutability": "view",
      "type": "function",
      "constant": true
    },
    {
      "inputs": [],
      "name": "candidatesCount",
      "outputs": [
        {
          "internalType": "uint256",
          "name": "",
          "type": "uint256"
        }
      ],
      "stateMutability": "view",
      "type": "function",
      "constant": true
    },
    {
      "inputs": [],
      "name": "numVotes",
      "outputs": [
        {
          "internalType": "uint256",
          "name": "",
          "type": "uint256"
        }
      ],
      "stateMutability": "view",
      "type": "function",
      "constant": true
    },
    {
      "inputs": [],
      "name": "phase",
      "outputs": [
        {
          "internalType": "string",
          "name": "",
          "type": "string"
        }
      ],
      "stateMutability": "view",
      "type": "function",
      "constant": true
    },
    {
      "inputs": [],
      "name": "votersCount",
      "outputs": [
        {
          "internalType": "uint256",
          "name": "",
          "type": "uint256"
        }
      ],
      "stateMutability": "view",
      "type": "function",
      "constant": true
    },
    {
      "inputs": [
        {
          "internalType": "uint256",
          "name": "",
          "type": "uint256"
        }
      ],
      "name": "votingTrails",
      "outputs": [
        {
          "internalType": "string",
          "name": "ref",
          "type": "string"
        },
        {
          "internalType": "string",
          "name": "voteDate",
          "type": "string"
        },
        {
          "internalType": "string",
          "name": "voteTime",
          "type": "string"
        },
        {
          "internalType": "bool",
          "name": "isVerified",
          "type": "bool"
        }
      ],
      "stateMutability": "view",
      "type": "function",
      "constant": true
    },
    {
      "inputs": [
        {
          "internalType": "string",
          "name": "_name",
          "type": "string"
        },
        {
          "internalType": "string",
          "name": "_party",
          "type": "string"
        }
      ],
      "name": "addCandidate",
      "outputs": [],
      "stateMutability": "nonpayable",
      "type": "function"
    },
    {
      "inputs": [
        {
          "internalType": "string",
          "name": "_personal_id",
          "type": "string"
        },
        {
          "internalType": "string",
          "name": "_email",
          "type": "string"
        },
        {
          "internalType": "string",
          "name": "_name",
          "type": "string"
        },
        {
          "internalType": "string",
          "name": "_surname",
          "type": "string"
        },
        {
          "internalType": "string",
          "name": "_ref",
          "type": "string"
        }
      ],
      "name": "addVoter",
      "outputs": [],
      "stateMutability": "nonpayable",
      "type": "function"
    },
    {
      "inputs": [],
      "name": "getVoter",
      "outputs": [
        {
          "internalType": "string",
          "name": "",
          "type": "string"
        },
        {
          "internalType": "string",
          "name": "",
          "type": "string"
        },
        {
          "internalType": "string",
          "name": "",
          "type": "string"
        },
        {
          "internalType": "string",
          "name": "",
          "type": "string"
        },
        {
          "internalType": "bool",
          "name": "",
          "type": "bool"
        },
        {
          "internalType": "bool",
          "name": "",
          "type": "bool"
        },
        {
          "internalType": "bool",
          "name": "",
          "type": "bool"
        }
      ],
      "stateMutability": "view",
      "type": "function",
      "constant": true
    },
    {
      "inputs": [],
      "name": "isVoter_Registered",
      "outputs": [
        {
          "internalType": "bool",
          "name": "",
          "type": "bool"
        }
      ],
      "stateMutability": "view",
      "type": "function",
      "constant": true
    },
    {
      "inputs": [],
      "name": "random",
      "outputs": [
        {
          "internalType": "uint256",
          "name": "",
          "type": "uint256"
        }
      ],
      "stateMutability": "nonpayable",
      "type": "function"
    },
    {
      "inputs": [],
      "name": "has_Voted",
      "outputs": [
        {
          "internalType": "bool",
          "name": "",
          "type": "bool"
        }
      ],
      "stateMutability": "view",
      "type": "function",
      "constant": true
    },
    {
      "inputs": [
        {
          "internalType": "uint256",
          "name": "_candidateId",
          "type": "uint256"
        },
        {
          "internalType": "string",
          "name": "_date",
          "type": "string"
        },
        {
          "internalType": "string",
          "name": "_time",
          "type": "string"
        }
      ],
      "name": "vote",
      "outputs": [],
      "stateMutability": "nonpayable",
      "type": "function"
    },
    {
      "inputs": [],
      "name": "copyKeys",
      "outputs": [
        {
          "internalType": "string",
          "name": "",
          "type": "string"
        },
        {
          "internalType": "string",
          "name": "",
          "type": "string"
        }
      ],
      "stateMutability": "view",
      "type": "function",
      "constant": true
    },
    {
      "inputs": [],
      "name": "testEncryption",
      "outputs": [
        {
          "internalType": "string",
          "name": "",
          "type": "string"
        },
        {
          "internalType": "string",
          "name": "",
          "type": "string"
        }
      ],
      "stateMutability": "nonpayable",
      "type": "function"
    },
    {
      "inputs": [
        {
          "internalType": "uint256",
          "name": "_key1",
          "type": "uint256"
        },
        {
          "internalType": "uint256",
          "name": "_key2",
          "type": "uint256"
        }
      ],
      "name": "verifyVote",
      "outputs": [],
      "stateMutability": "nonpayable",
      "type": "function"
    },
    {
      "inputs": [],
      "name": "startElection",
      "outputs": [],
      "stateMutability": "nonpayable",
      "type": "function"
    },
    {
      "inputs": [],
      "name": "changePhase",
      "outputs": [],
      "stateMutability": "nonpayable",
      "type": "function"
    },
    {
      "inputs": [
        {
          "internalType": "string",
          "name": "text",
          "type": "string"
        }
      ],
      "name": "keccak256_encrypt",
      "outputs": [
        {
          "internalType": "bytes32",
          "name": "",
          "type": "bytes32"
        }
      ],
      "stateMutability": "pure",
      "type": "function",
      "constant": true
    },
    {
      "inputs": [],
      "name": "getWinner",
      "outputs": [
        {
          "internalType": "string",
          "name": "",
          "type": "string"
        }
      ],
      "stateMutability": "view",
      "type": "function",
      "constant": true
    },
    {
      "inputs": [
        {
          "internalType": "string",
          "name": "_message",
          "type": "string"
        },
        {
          "internalType": "bytes",
          "name": "_sig",
          "type": "bytes"
        }
      ],
      "name": "verify",
      "outputs": [
        {
          "internalType": "bool",
          "name": "",
          "type": "bool"
        }
      ],
      "stateMutability": "nonpayable",
      "type": "function"
    },
    {
      "inputs": [
        {
          "internalType": "string",
          "name": "sms",
          "type": "string"
        }
      ],
      "name": "getHash",
      "outputs": [
        {
          "internalType": "bytes32",
          "name": "",
          "type": "bytes32"
        }
      ],
      "stateMutability": "pure",
      "type": "function",
      "constant": true
    },
    {
      "inputs": [
        {
          "internalType": "bytes32",
          "name": "sms",
          "type": "bytes32"
        }
      ],
      "name": "getEthSignedHash",
      "outputs": [
        {
          "internalType": "bytes32",
          "name": "",
          "type": "bytes32"
        }
      ],
      "stateMutability": "pure",
      "type": "function",
      "constant": true
    },
    {
      "inputs": [
        {
          "internalType": "bytes32",
          "name": "_ethSignedMessageHash",
          "type": "bytes32"
        },
        {
          "internalType": "bytes",
          "name": "_sig",
          "type": "bytes"
        }
      ],
      "name": "recover",
      "outputs": [
        {
          "internalType": "address",
          "name": "",
          "type": "address"
        }
      ],
      "stateMutability": "pure",
      "type": "function",
      "constant": true
    }
  ],
  "bytecode": "0x60806040526002600a556002600b5560405180606001604052806040518060400160405280600c81526020017f726567697374726174696f6e000000000000000000000000000000000000000081525081526020016040518060400160405280600681526020017f766f74696e67000000000000000000000000000000000000000000000000000081525081526020016040518060400160405280600781526020017f726573756c747300000000000000000000000000000000000000000000000000815250815250600e906003620000da9291906200017e565b50348015620000e857600080fd5b5033601260006101000a81548173ffffffffffffffffffffffffffffffffffffffff021916908373ffffffffffffffffffffffffffffffffffffffff1602179055506040518060400160405280601881526020017f456c656374696f6e20686173206e6f74207374617274656400000000000000008152506008908051906020019062000177929190620001d8565b506200035b565b8260038101928215620001c5579160200282015b82811115620001c4578251829080519060200190620001b3929190620001d8565b509160200191906001019062000192565b5b509050620001d4919062000269565b5090565b828054620001e690620002f6565b90600052602060002090601f0160209004810192826200020a576000855562000256565b82601f106200022557805160ff191683800117855562000256565b8280016001018555821562000256579182015b828111156200025557825182559160200191906001019062000238565b5b50905062000265919062000291565b5090565b5b808211156200028d5760008181620002839190620002b0565b506001016200026a565b5090565b5b80821115620002ac57600081600090555060010162000292565b5090565b508054620002be90620002f6565b6000825580601f10620002d25750620002f3565b601f016020900490600052602060002090810190620002f2919062000291565b5b50565b600060028204905060018216806200030f57607f821691505b602082108114156200032657620003256200032c565b5b50919050565b7f4e487b7100000000000000000000000000000000000000000000000000000000600052602260045260246000fd5b615723806200036b6000396000f3fe608060405234801561001057600080fd5b50600436106101585760003560e01c8063642d04c1116100c3578063b1c9fe6e1161007c578063b1c9fe6e146103d5578063d0a6a870146103f3578063d25773b714610412578063db6f595314610430578063e3c0327d1461043a578063f731d0e91461046d57610158565b8063642d04c1146103225780638e7ea5b21461034157806398b8b43d1461035f57806398c079381461037d578063a3bef4d71461039b578063b1084759146103b957610158565b80633477ee2e116101155780633477ee2e146102375780633d9ffad51461026a5780633fee76dc1461029a5780635b6beeb9146102ca5780635ec01e4d146102fa57806362d73eb81461031857610158565b806319045a251461015d578063216f6a6e1461018d57806326541b56146101a95780632b37f53c146101c55780632d35a8a2146101e95780632f4ea5ea14610207575b600080fd5b610177600480360381019061017291906144a1565b610489565b6040516101849190614e98565b60405180910390f35b6101a760048036038101906101a291906147a5565b6104f8565b005b6101c360048036038101906101be91906145a2565b6107b3565b005b6101cd61092e565b6040516101e09796959493929190614fe1565b60405180910390f35b6101f1610d78565b6040516101fe91906152ac565b60405180910390f35b610221600480360381019061021c9190614478565b610d7e565b60405161022e9190614ece565b60405180910390f35b610251600480360381019061024c91906146fd565b610dae565b60405161026194939291906152c7565b60405180910390f35b610284600480360381019061027f9190614536565b610eee565b6040516102919190614eb3565b60405180910390f35b6102b460048036038101906102af91906144f5565b61108b565b6040516102c19190614ece565b60405180910390f35b6102e460048036038101906102df91906144f5565b6110bb565b6040516102f19190614ece565b60405180910390f35b6103026110eb565b60405161030f91906152ac565b60405180910390f35b61032061113c565b005b61032a611282565b604051610338929190614f50565b60405180910390f35b61034961131d565b6040516103569190614f2e565b60405180910390f35b610367611442565b6040516103749190614eb3565b60405180910390f35b610385611499565b60405161039291906152ac565b60405180910390f35b6103a361149f565b6040516103b091906152ac565b60405180910390f35b6103d360048036038101906103ce9190614726565b6114a5565b005b6103dd6119c9565b6040516103ea9190614f2e565b60405180910390f35b6103fb611a57565b604051610409929190614f50565b60405180910390f35b61041a611c1e565b6040516104279190614eb3565b60405180910390f35b610438611c75565b005b610454600480360381019061044f91906146fd565b611f16565b6040516104649493929190614f87565b60405180910390f35b6104876004803603810190610482919061460e565b6120eb565b005b60008060008061049885612578565b925092509250600186828585604051600081526020016040526040516104c19493929190614ee9565b6020604051602081039080840390855afa1580156104e3573d6000803e3d6000fd5b50505060206040510351935050505092915050565b600160003373ffffffffffffffffffffffffffffffffffffffff1673ffffffffffffffffffffffffffffffffffffffff16815260200190815260200160002060010160009054906101000a900460ff16610587576040517f08c379a000000000000000000000000000000000000000000000000000000000815260040161057e9061508c565b60405180910390fd5b600160003373ffffffffffffffffffffffffffffffffffffffff1673ffffffffffffffffffffffffffffffffffffffff16815260200190815260200160002060080160009054906101000a900460ff1615610617576040517f08c379a000000000000000000000000000000000000000000000000000000000815260040161060e906150ec565b60405180910390fd5b6000806106ca600160003373ffffffffffffffffffffffffffffffffffffffff1673ffffffffffffffffffffffffffffffffffffffff168152602001908152602001600020600701547f79be667ef9dcbbac55a06295ce870b07029bfcdb2dce28d959f2815b16f817987f483ada7726a3c4655da4fbfc0e1108a8fd17b448a68554199c47d08ffb10d4b860007ffffffffffffffffffffffffffffffffffffffffffffffffffffffffefffffc2f6125e0565b9150915083821480156106dc57508083145b156107ad57600160026000600160003373ffffffffffffffffffffffffffffffffffffffff1673ffffffffffffffffffffffffffffffffffffffff16815260200190815260200160002060090154815260200190815260200160002060030160006101000a81548160ff02191690831515021790555060018060003373ffffffffffffffffffffffffffffffffffffffff1673ffffffffffffffffffffffffffffffffffffffff16815260200190815260200160002060080160006101000a81548160ff0219169083151502179055505b50505050565b601260009054906101000a900473ffffffffffffffffffffffffffffffffffffffff1673ffffffffffffffffffffffffffffffffffffffff163373ffffffffffffffffffffffffffffffffffffffff1614610843576040517f08c379a000000000000000000000000000000000000000000000000000000000815260040161083a9061522c565b60405180910390fd5b60006011541115610889576040517f08c379a00000000000000000000000000000000000000000000000000000000081526004016108809061518c565b60405180910390fd5b6007600081548092919061089c90615564565b919050555060405180608001604052806007548152602001838152602001828152602001600081525060008060075481526020019081526020016000206000820151816000015560208201518160010190805190602001906108ff92919061422c565b50604082015181600201908051906020019061091c92919061422c565b50606082015181600301559050505050565b6060806060806000806000600160003373ffffffffffffffffffffffffffffffffffffffff1673ffffffffffffffffffffffffffffffffffffffff168152602001908152602001600020600301600160003373ffffffffffffffffffffffffffffffffffffffff1673ffffffffffffffffffffffffffffffffffffffff168152602001908152602001600020600401600160003373ffffffffffffffffffffffffffffffffffffffff1673ffffffffffffffffffffffffffffffffffffffff168152602001908152602001600020600201600160003373ffffffffffffffffffffffffffffffffffffffff1673ffffffffffffffffffffffffffffffffffffffff168152602001908152602001600020600501600160003373ffffffffffffffffffffffffffffffffffffffff1673ffffffffffffffffffffffffffffffffffffffff16815260200190815260200160002060060160009054906101000a900460ff16600160003373ffffffffffffffffffffffffffffffffffffffff1673ffffffffffffffffffffffffffffffffffffffff16815260200190815260200160002060010160009054906101000a900460ff16600160003373ffffffffffffffffffffffffffffffffffffffff1673ffffffffffffffffffffffffffffffffffffffff16815260200190815260200160002060080160009054906101000a900460ff16868054610b3d90615532565b80601f0160208091040260200160405190810160405280929190818152602001828054610b6990615532565b8015610bb65780601f10610b8b57610100808354040283529160200191610bb6565b820191906000526020600020905b815481529060010190602001808311610b9957829003601f168201915b50505050509650858054610bc990615532565b80601f0160208091040260200160405190810160405280929190818152602001828054610bf590615532565b8015610c425780601f10610c1757610100808354040283529160200191610c42565b820191906000526020600020905b815481529060010190602001808311610c2557829003601f168201915b50505050509550848054610c5590615532565b80601f0160208091040260200160405190810160405280929190818152602001828054610c8190615532565b8015610cce5780601f10610ca357610100808354040283529160200191610cce565b820191906000526020600020905b815481529060010190602001808311610cb157829003601f168201915b50505050509450838054610ce190615532565b80601f0160208091040260200160405190810160405280929190818152602001828054610d0d90615532565b8015610d5a5780601f10610d2f57610100808354040283529160200191610d5a565b820191906000526020600020905b815481529060010190602001808311610d3d57829003601f168201915b50505050509350965096509650965096509650965090919293949596565b60075481565b600081604051602001610d919190614e24565b604051602081830303815290604052805190602001209050919050565b6000602052806000526040600020600091509050806000015490806001018054610dd790615532565b80601f0160208091040260200160405190810160405280929190818152602001828054610e0390615532565b8015610e505780601f10610e2557610100808354040283529160200191610e50565b820191906000526020600020905b815481529060010190602001808311610e3357829003601f168201915b505050505090806002018054610e6590615532565b80601f0160208091040260200160405190810160405280929190818152602001828054610e9190615532565b8015610ede5780601f10610eb357610100808354040283529160200191610ede565b820191906000526020600020905b815481529060010190602001808311610ec157829003601f168201915b5050505050908060030154905084565b6000601260009054906101000a900473ffffffffffffffffffffffffffffffffffffffff1673ffffffffffffffffffffffffffffffffffffffff163373ffffffffffffffffffffffffffffffffffffffff1614610f80576040517f08c379a0000000000000000000000000000000000000000000000000000000008152600401610f779061522c565b60405180910390fd5b6000610f8b846110bb565b90506006600082815260200190815260200160002060009054906101000a900460ff1615610fee576040517f08c379a0000000000000000000000000000000000000000000000000000000008152600401610fe5906150ac565b60405180910390fd5b6000610ff982610d7e565b905060016006600084815260200190815260200160002060006101000a81548160ff021916908315150217905550601260009054906101000a900473ffffffffffffffffffffffffffffffffffffffff1673ffffffffffffffffffffffffffffffffffffffff1661106a8286610489565b73ffffffffffffffffffffffffffffffffffffffff16149250505092915050565b60008160405160200161109e9190614f2e565b604051602081830303815290604052805190602001209050919050565b6000816040516020016110ce9190614e0d565b604051602081830303815290604052805190602001209050919050565b60006009600081548092919061110090615564565b919050555042600954333060405160200161111e9493929190614e4a565b6040516020818303038152906040528051906020012060001c905090565b601260009054906101000a900473ffffffffffffffffffffffffffffffffffffffff1673ffffffffffffffffffffffffffffffffffffffff163373ffffffffffffffffffffffffffffffffffffffff16146111cc576040517f08c379a00000000000000000000000000000000000000000000000000000000081526004016111c39061522c565b60405180910390fd5b6001601154141580156111e25750600260115414155b611221576040517f08c379a00000000000000000000000000000000000000000000000000000000081526004016112189061514c565b60405180910390fd5b6000601181905550600e60115460038110611265577f4e487b7100000000000000000000000000000000000000000000000000000000600052603260045260246000fd5b01600890805461127490615532565b61127f9291906142b2565b50565b6060806000806112fd6112936110eb565b7f79be667ef9dcbbac55a06295ce870b07029bfcdb2dce28d959f2815b16f817987f483ada7726a3c4655da4fbfc0e1108a8fd17b448a68554199c47d08ffb10d4b860007ffffffffffffffffffffffffffffffffffffffffffffffffffffffffefffffc2f6125e0565b9150915061130a8261261a565b6113138261261a565b9350935050509091565b60606000600190506000806000600181526020019081526020016000206003015490506000600290505b600754811161139c5781600080838152602001908152602001600020600301541115611389578092506000808281526020019081526020016000206003015491505b808061139490615564565b915050611347565b5060008083815260200190815260200160002060010180546113bd90615532565b80601f01602080910402602001604051908101604052809291908181526020018280546113e990615532565b80156114365780601f1061140b57610100808354040283529160200191611436565b820191906000526020600020905b81548152906001019060200180831161141957829003601f168201915b50505050509250505090565b6000600160003373ffffffffffffffffffffffffffffffffffffffff1673ffffffffffffffffffffffffffffffffffffffff16815260200190815260200160002060010160009054906101000a900460ff16905090565b600c5481565b600d5481565b601260009054906101000a900473ffffffffffffffffffffffffffffffffffffffff1673ffffffffffffffffffffffffffffffffffffffff163373ffffffffffffffffffffffffffffffffffffffff161415611536576040517f08c379a000000000000000000000000000000000000000000000000000000000815260040161152d9061516c565b60405180910390fd5b600160003373ffffffffffffffffffffffffffffffffffffffff1673ffffffffffffffffffffffffffffffffffffffff16815260200190815260200160002060060160009054906101000a900460ff166115c5576040517f08c379a00000000000000000000000000000000000000000000000000000000081526004016115bc9061506c565b60405180910390fd5b600160003373ffffffffffffffffffffffffffffffffffffffff1673ffffffffffffffffffffffffffffffffffffffff16815260200190815260200160002060010160009054906101000a900460ff1615611655576040517f08c379a000000000000000000000000000000000000000000000000000000000815260040161164c9061508c565b60405180910390fd5b60008311801561166757506007548311155b6116a6576040517f08c379a000000000000000000000000000000000000000000000000000000000815260040161169d9061524c565b60405180910390fd5b60018060003373ffffffffffffffffffffffffffffffffffffffff1673ffffffffffffffffffffffffffffffffffffffff16815260200190815260200160002060010160006101000a81548160ff021916908315150217905550600080848152602001908152602001600020600301600081548092919061172690615564565b9190505550600160003373ffffffffffffffffffffffffffffffffffffffff1673ffffffffffffffffffffffffffffffffffffffff1681526020019081526020016000206005016003600085815260200190815260200160002090805461178c90615532565b6117979291906142b2565b506117a06110eb565b600160003373ffffffffffffffffffffffffffffffffffffffff1673ffffffffffffffffffffffffffffffffffffffff168152602001908152602001600020600701819055506040518060800160405280600160003373ffffffffffffffffffffffffffffffffffffffff1673ffffffffffffffffffffffffffffffffffffffff168152602001908152602001600020600501805461183e90615532565b80601f016020809104026020016040519081016040528092919081815260200182805461186a90615532565b80156118b75780601f1061188c576101008083540402835291602001916118b7565b820191906000526020600020905b81548152906001019060200180831161189a57829003601f168201915b505050505081526020018381526020018281526020016000151581525060026000600d548152602001908152602001600020600082015181600001908051906020019061190592919061422c565b50602082015181600101908051906020019061192292919061422c565b50604082015181600201908051906020019061193f92919061422c565b5060608201518160030160006101000a81548160ff021916908315150217905550905050600d54600160003373ffffffffffffffffffffffffffffffffffffffff1673ffffffffffffffffffffffffffffffffffffffff16815260200190815260200160002060090181905550600d60008154809291906119bf90615564565b9190505550505050565b600880546119d690615532565b80601f0160208091040260200160405190810160405280929190818152602001828054611a0290615532565b8015611a4f5780601f10611a2457610100808354040283529160200191611a4f565b820191906000526020600020905b815481529060010190602001808311611a3257829003601f168201915b505050505081565b606080600080611b0d600160003373ffffffffffffffffffffffffffffffffffffffff1673ffffffffffffffffffffffffffffffffffffffff168152602001908152602001600020600701547f79be667ef9dcbbac55a06295ce870b07029bfcdb2dce28d959f2815b16f817987f483ada7726a3c4655da4fbfc0e1108a8fd17b448a68554199c47d08ffb10d4b860007ffffffffffffffffffffffffffffffffffffffffffffffffffffffffefffffc2f6125e0565b915091505b611b418282600060077ffffffffffffffffffffffffffffffffffffffffffffffffffffffffefffffc2f61273e565b611c0257611bf5600160003373ffffffffffffffffffffffffffffffffffffffff1673ffffffffffffffffffffffffffffffffffffffff168152602001908152602001600020600701547f79be667ef9dcbbac55a06295ce870b07029bfcdb2dce28d959f2815b16f817987f483ada7726a3c4655da4fbfc0e1108a8fd17b448a68554199c47d08ffb10d4b860007ffffffffffffffffffffffffffffffffffffffffffffffffffffffffefffffc2f6125e0565b8092508193505050611b12565b611c0b8261261a565b611c148261261a565b9350935050509091565b6000600160003373ffffffffffffffffffffffffffffffffffffffff1673ffffffffffffffffffffffffffffffffffffffff16815260200190815260200160002060060160009054906101000a900460ff16905090565b601260009054906101000a900473ffffffffffffffffffffffffffffffffffffffff1673ffffffffffffffffffffffffffffffffffffffff163373ffffffffffffffffffffffffffffffffffffffff1614611d05576040517f08c379a0000000000000000000000000000000000000000000000000000000008152600401611cfc9061522c565b60405180910390fd5b60116000815480929190611d1890615564565b919050555060036011541015611ec75760016011541415611e1857600754600c5411611d79576040517f08c379a0000000000000000000000000000000000000000000000000000000008152600401611d70906150cc565b60405180910390fd5b600a546007541015611dc0576040517f08c379a0000000000000000000000000000000000000000000000000000000008152600401611db79061510c565b60405180910390fd5b600e60115460038110611dfc577f4e487b7100000000000000000000000000000000000000000000000000000000600052603260045260246000fd5b016008908054611e0b90615532565b611e169291906142b2565b505b60026011541415611ec257600b54600d541015611e6a576040517f08c379a0000000000000000000000000000000000000000000000000000000008152600401611e619061512c565b60405180910390fd5b600e60115460038110611ea6577f4e487b7100000000000000000000000000000000000000000000000000000000600052603260045260246000fd5b016008908054611eb590615532565b611ec09291906142b2565b505b611f14565b6040518060400160405280600e81526020017f456c656374696f6e20656e64656400000000000000000000000000000000000081525060089080519060200190611f1292919061422c565b505b565b6002602052806000526040600020600091509050806000018054611f3990615532565b80601f0160208091040260200160405190810160405280929190818152602001828054611f6590615532565b8015611fb25780601f10611f8757610100808354040283529160200191611fb2565b820191906000526020600020905b815481529060010190602001808311611f9557829003601f168201915b505050505090806001018054611fc790615532565b80601f0160208091040260200160405190810160405280929190818152602001828054611ff390615532565b80156120405780601f1061201557610100808354040283529160200191612040565b820191906000526020600020905b81548152906001019060200180831161202357829003601f168201915b50505050509080600201805461205590615532565b80601f016020809104026020016040519081016040528092919081815260200182805461208190615532565b80156120ce5780601f106120a3576101008083540402835291602001916120ce565b820191906000526020600020905b8154815290600101906020018083116120b157829003601f168201915b5050505050908060030160009054906101000a900460ff16905084565b601260009054906101000a900473ffffffffffffffffffffffffffffffffffffffff1673ffffffffffffffffffffffffffffffffffffffff163373ffffffffffffffffffffffffffffffffffffffff16141561217c576040517f08c379a0000000000000000000000000000000000000000000000000000000008152600401612173906151ec565b60405180910390fd5b6000339050600061218c8761108b565b90506000600160008473ffffffffffffffffffffffffffffffffffffffff1673ffffffffffffffffffffffffffffffffffffffff16815260200190815260200160002090508060060160009054906101000a900460ff1615612223576040517f08c379a000000000000000000000000000000000000000000000000000000000815260040161221a906151cc565b60405180910390fd5b600073ffffffffffffffffffffffffffffffffffffffff166004600084815260200190815260200160002060009054906101000a900473ffffffffffffffffffffffffffffffffffffffff1673ffffffffffffffffffffffffffffffffffffffff16146122c5576040517f08c379a00000000000000000000000000000000000000000000000000000000081526004016122bc9061520c565b60405180910390fd5b8260056000600c54815260200190815260200160002060006101000a81548173ffffffffffffffffffffffffffffffffffffffff021916908373ffffffffffffffffffffffffffffffffffffffff1602179055506040518061016001604052808381526020016000151581526020018473ffffffffffffffffffffffffffffffffffffffff168152602001888152602001878152602001868152602001858152602001600115158152602001600081526020016000151581526020016000815250600160008573ffffffffffffffffffffffffffffffffffffffff1673ffffffffffffffffffffffffffffffffffffffff1681526020019081526020016000206000820151816000015560208201518160010160006101000a81548160ff02191690831515021790555060408201518160010160016101000a81548173ffffffffffffffffffffffffffffffffffffffff021916908373ffffffffffffffffffffffffffffffffffffffff160217905550606082015181600201908051906020019061245292919061422c565b50608082015181600301908051906020019061246f92919061422c565b5060a082015181600401908051906020019061248c92919061422c565b5060c08201518160050190805190602001906124a992919061422c565b5060e08201518160060160006101000a81548160ff02191690831515021790555061010082015181600701556101208201518160080160006101000a81548160ff0219169083151502179055506101408201518160090155905050826004600084815260200190815260200160002060006101000a81548173ffffffffffffffffffffffffffffffffffffffff021916908373ffffffffffffffffffffffffffffffffffffffff160217905550600c600081548092919061256990615564565b91905055505050505050505050565b600080600060418451146125c1576040517f08c379a00000000000000000000000000000000000000000000000000000000081526004016125b89061526c565b60405180910390fd5b6020840151925060408401519150606084015160001a90509193909250565b60008060008060006125f78a8a8a60018b8b6128f0565b92509250925061260983838389612990565b945094505050509550959350505050565b60606000600161262984612a9f565b01905060008167ffffffffffffffff81111561266e577f4e487b7100000000000000000000000000000000000000000000000000000000600052604160045260246000fd5b6040519080825280601f01601f1916602001820160405280156126a05781602001600182028036833780820191505090505b509050600082602001820190505b600115612733578080600190039150507f3031323334353637383961626364656600000000000000000000000000000000600a86061a8153600a858161271d577f4e487b7100000000000000000000000000000000000000000000000000000000600052601260045260246000fd5b049450600085141561272e57612733565b6126ae565b819350505050919050565b6000856000148061274f5750818610155b8061275a5750846000145b806127655750818510155b1561277357600090506128e7565b600082806127aa577f4e487b7100000000000000000000000000000000000000000000000000000000600052601260045260246000fd5b8687099050600083806127e6577f4e487b7100000000000000000000000000000000000000000000000000000000600052601260045260246000fd5b88858061281c577f4e487b7100000000000000000000000000000000000000000000000000000000600052601260045260246000fd5b8a8b090990506000861461289c57838061285f577f4e487b7100000000000000000000000000000000000000000000000000000000600052601260045260246000fd5b8480612894577f4e487b7100000000000000000000000000000000000000000000000000000000600052601260045260246000fd5b878a09820890505b600085146128df5783806128d9577f4e487b7100000000000000000000000000000000000000000000000000000000600052601260045260246000fd5b85820890505b808214925050505b95945050505050565b60008060008089141561290b57878787925092509250612984565b60008990506000806000600190505b6000841461297657600060018516146129495761293c8383838f8f8f8e612cd6565b8093508194508295505050505b60028461295691906153d2565b93506129658c8c8c8c8c613c63565b809c50819d50829e5050505061291a565b828282965096509650505050505b96509650969350505050565b600080600061299f85856140f4565b9050600084806129d8577f4e487b7100000000000000000000000000000000000000000000000000000000600052601260045260246000fd5b828309905060008580612a14577f4e487b7100000000000000000000000000000000000000000000000000000000600052601260045260246000fd5b828a09905060008680612a50577f4e487b7100000000000000000000000000000000000000000000000000000000600052601260045260246000fd5b8780612a85577f4e487b7100000000000000000000000000000000000000000000000000000000600052601260045260246000fd5b8486098a0990508181955095505050505094509492505050565b600080600090507a184f03e93ff9f4daa797ed6e38ed64bf6a1f0100000000000000008310612b23577a184f03e93ff9f4daa797ed6e38ed64bf6a1f0100000000000000008381612b19577f4e487b7100000000000000000000000000000000000000000000000000000000600052601260045260246000fd5b0492506040810190505b6d04ee2d6d415b85acef81000000008310612b86576d04ee2d6d415b85acef81000000008381612b7c577f4e487b7100000000000000000000000000000000000000000000000000000000600052601260045260246000fd5b0492506020810190505b662386f26fc100008310612bdb57662386f26fc100008381612bd1577f4e487b7100000000000000000000000000000000000000000000000000000000600052601260045260246000fd5b0492506010810190505b6305f5e1008310612c2a576305f5e1008381612c20577f4e487b7100000000000000000000000000000000000000000000000000000000600052601260045260246000fd5b0492506008810190505b6127108310612c75576127108381612c6b577f4e487b7100000000000000000000000000000000000000000000000000000000600052601260045260246000fd5b0492506004810190505b60648310612cbe5760648381612cb4577f4e487b7100000000000000000000000000000000000000000000000000000000600052601260045260246000fd5b0492506002810190505b600a8310612ccd576001810190505b80915050919050565b6000806000808a148015612cea5750600089145b15612cfd57868686925092509250613c56565b600087148015612d0d5750600086145b15612d2057898989925092509250613c56565b612d2861433f565b8480612d5d577f4e487b7100000000000000000000000000000000000000000000000000000000600052601260045260246000fd5b898a0981600060048110612d9a577f4e487b7100000000000000000000000000000000000000000000000000000000600052603260045260246000fd5b6020020181815250508480612dd8577f4e487b7100000000000000000000000000000000000000000000000000000000600052601260045260246000fd5b81600060048110612e12577f4e487b7100000000000000000000000000000000000000000000000000000000600052603260045260246000fd5b60200201518a0981600160048110612e53577f4e487b7100000000000000000000000000000000000000000000000000000000600052603260045260246000fd5b6020020181815250508480612e91577f4e487b7100000000000000000000000000000000000000000000000000000000600052601260045260246000fd5b86870981600260048110612ece577f4e487b7100000000000000000000000000000000000000000000000000000000600052603260045260246000fd5b6020020181815250508480612f0c577f4e487b7100000000000000000000000000000000000000000000000000000000600052601260045260246000fd5b81600260048110612f46577f4e487b7100000000000000000000000000000000000000000000000000000000600052603260045260246000fd5b6020020151870981600360048110612f87577f4e487b7100000000000000000000000000000000000000000000000000000000600052603260045260246000fd5b60200201818152505060405180608001604052808680612fd0577f4e487b7100000000000000000000000000000000000000000000000000000000600052601260045260246000fd5b8360026004811061300a577f4e487b7100000000000000000000000000000000000000000000000000000000600052603260045260246000fd5b60200201518e098152602001868061304b577f4e487b7100000000000000000000000000000000000000000000000000000000600052601260045260246000fd5b83600360048110613085577f4e487b7100000000000000000000000000000000000000000000000000000000600052603260045260246000fd5b60200201518d09815260200186806130c6577f4e487b7100000000000000000000000000000000000000000000000000000000600052601260045260246000fd5b83600060048110613100577f4e487b7100000000000000000000000000000000000000000000000000000000600052603260045260246000fd5b60200201518b0981526020018680613141577f4e487b7100000000000000000000000000000000000000000000000000000000600052601260045260246000fd5b8360016004811061317b577f4e487b7100000000000000000000000000000000000000000000000000000000600052603260045260246000fd5b60200201518a098152509050806002600481106131c1577f4e487b7100000000000000000000000000000000000000000000000000000000600052603260045260246000fd5b602002015181600060048110613200577f4e487b7100000000000000000000000000000000000000000000000000000000600052603260045260246000fd5b602002015114158061328e575080600360048110613247577f4e487b7100000000000000000000000000000000000000000000000000000000600052603260045260246000fd5b602002015181600160048110613286577f4e487b7100000000000000000000000000000000000000000000000000000000600052603260045260246000fd5b602002015114155b6132cd576040517f08c379a00000000000000000000000000000000000000000000000000000000081526004016132c4906151ac565b60405180910390fd5b6132d561433f565b858061330a577f4e487b7100000000000000000000000000000000000000000000000000000000600052601260045260246000fd5b82600060048110613344577f4e487b7100000000000000000000000000000000000000000000000000000000600052603260045260246000fd5b602002015187613354919061545d565b8360026004811061338e577f4e487b7100000000000000000000000000000000000000000000000000000000600052603260045260246000fd5b602002015108816000600481106133ce577f4e487b7100000000000000000000000000000000000000000000000000000000600052603260045260246000fd5b602002018181525050858061340c577f4e487b7100000000000000000000000000000000000000000000000000000000600052601260045260246000fd5b82600160048110613446577f4e487b7100000000000000000000000000000000000000000000000000000000600052603260045260246000fd5b602002015187613456919061545d565b83600360048110613490577f4e487b7100000000000000000000000000000000000000000000000000000000600052603260045260246000fd5b602002015108816001600481106134d0577f4e487b7100000000000000000000000000000000000000000000000000000000600052603260045260246000fd5b602002018181525050858061350e577f4e487b7100000000000000000000000000000000000000000000000000000000600052601260045260246000fd5b81600060048110613548577f4e487b7100000000000000000000000000000000000000000000000000000000600052603260045260246000fd5b602002015182600060048110613587577f4e487b7100000000000000000000000000000000000000000000000000000000600052603260045260246000fd5b602002015109816002600481106135c7577f4e487b7100000000000000000000000000000000000000000000000000000000600052603260045260246000fd5b6020020181815250508580613605577f4e487b7100000000000000000000000000000000000000000000000000000000600052601260045260246000fd5b8160006004811061363f577f4e487b7100000000000000000000000000000000000000000000000000000000600052603260045260246000fd5b60200201518260026004811061367e577f4e487b7100000000000000000000000000000000000000000000000000000000600052603260045260246000fd5b602002015109816003600481106136be577f4e487b7100000000000000000000000000000000000000000000000000000000600052603260045260246000fd5b602002018181525050600086806136fe577f4e487b7100000000000000000000000000000000000000000000000000000000600052601260045260246000fd5b82600360048110613738577f4e487b7100000000000000000000000000000000000000000000000000000000600052603260045260246000fd5b602002015188613748919061545d565b888061377d577f4e487b7100000000000000000000000000000000000000000000000000000000600052601260045260246000fd5b846001600481106137b7577f4e487b7100000000000000000000000000000000000000000000000000000000600052603260045260246000fd5b6020020151856001600481106137f6577f4e487b7100000000000000000000000000000000000000000000000000000000600052603260045260246000fd5b6020020151090890508680613834577f4e487b7100000000000000000000000000000000000000000000000000000000600052601260045260246000fd5b8780613869577f4e487b7100000000000000000000000000000000000000000000000000000000600052601260045260246000fd5b888061389e577f4e487b7100000000000000000000000000000000000000000000000000000000600052601260045260246000fd5b846002600481106138d8577f4e487b7100000000000000000000000000000000000000000000000000000000600052603260045260246000fd5b602002015186600060048110613917577f4e487b7100000000000000000000000000000000000000000000000000000000600052603260045260246000fd5b6020020151096002098861392b919061545d565b8208905060008780613966577f4e487b7100000000000000000000000000000000000000000000000000000000600052601260045260246000fd5b888061399b577f4e487b7100000000000000000000000000000000000000000000000000000000600052601260045260246000fd5b838a6139a7919061545d565b8a806139dc577f4e487b7100000000000000000000000000000000000000000000000000000000600052601260045260246000fd5b86600260048110613a16577f4e487b7100000000000000000000000000000000000000000000000000000000600052603260045260246000fd5b602002015188600060048110613a55577f4e487b7100000000000000000000000000000000000000000000000000000000600052603260045260246000fd5b6020020151090884600160048110613a96577f4e487b7100000000000000000000000000000000000000000000000000000000600052603260045260246000fd5b60200201510990508780613ad3577f4e487b7100000000000000000000000000000000000000000000000000000000600052601260045260246000fd5b8880613b08577f4e487b7100000000000000000000000000000000000000000000000000000000600052601260045260246000fd5b84600360048110613b42577f4e487b7100000000000000000000000000000000000000000000000000000000600052603260045260246000fd5b602002015186600160048110613b81577f4e487b7100000000000000000000000000000000000000000000000000000000600052603260045260246000fd5b60200201510989613b92919061545d565b8208905060008880613bcd577f4e487b7100000000000000000000000000000000000000000000000000000000600052601260045260246000fd5b8980613c02577f4e487b7100000000000000000000000000000000000000000000000000000000600052601260045260246000fd5b8b8f0985600060048110613c3f577f4e487b7100000000000000000000000000000000000000000000000000000000600052603260045260246000fd5b602002015109905082828297509750975050505050505b9750975097945050505050565b600080600080861415613c7e578787879250925092506140e9565b60008480613cb5577f4e487b7100000000000000000000000000000000000000000000000000000000600052601260045260246000fd5b898a09905060008580613cf1577f4e487b7100000000000000000000000000000000000000000000000000000000600052601260045260246000fd5b898a09905060008680613d2d577f4e487b7100000000000000000000000000000000000000000000000000000000600052601260045260246000fd5b898a09905060008780613d69577f4e487b7100000000000000000000000000000000000000000000000000000000600052601260045260246000fd5b8880613d9e577f4e487b7100000000000000000000000000000000000000000000000000000000600052601260045260246000fd5b848e09600409905060008880613ddd577f4e487b7100000000000000000000000000000000000000000000000000000000600052601260045260246000fd5b8980613e12577f4e487b7100000000000000000000000000000000000000000000000000000000600052601260045260246000fd5b8a80613e47577f4e487b7100000000000000000000000000000000000000000000000000000000600052601260045260246000fd5b8586098c098a80613e81577f4e487b7100000000000000000000000000000000000000000000000000000000600052601260045260246000fd5b876003090890508880613ebd577f4e487b7100000000000000000000000000000000000000000000000000000000600052601260045260246000fd5b8980613ef2577f4e487b7100000000000000000000000000000000000000000000000000000000600052601260045260246000fd5b8384088a613f00919061545d565b8a80613f35577f4e487b7100000000000000000000000000000000000000000000000000000000600052601260045260246000fd5b8384090894508880613f70577f4e487b7100000000000000000000000000000000000000000000000000000000600052601260045260246000fd5b8980613fa5577f4e487b7100000000000000000000000000000000000000000000000000000000600052601260045260246000fd5b8a80613fda577f4e487b7100000000000000000000000000000000000000000000000000000000600052601260045260246000fd5b8687096008098a613feb919061545d565b8a80614020577f4e487b7100000000000000000000000000000000000000000000000000000000600052601260045260246000fd5b8b80614055577f4e487b7100000000000000000000000000000000000000000000000000000000600052601260045260246000fd5b888d614061919061545d565b86088409089350888061409d577f4e487b7100000000000000000000000000000000000000000000000000000000600052601260045260246000fd5b89806140d2577f4e487b7100000000000000000000000000000000000000000000000000000000600052601260045260246000fd5b8c8e09600209925084848497509750975050505050505b955095509592505050565b60008083141580156141065750818314155b8015614113575060008214155b614152576040517f08c379a00000000000000000000000000000000000000000000000000000000081526004016141499061528c565b60405180910390fd5b60008060019050600084905060005b6000871461421f57868261417591906153d2565b90508286806141ad577f4e487b7100000000000000000000000000000000000000000000000000000000600052601260045260246000fd5b87806141e2577f4e487b7100000000000000000000000000000000000000000000000000000000600052601260045260246000fd5b858409886141f0919061545d565b860880945081955050508687826142079190615403565b83614212919061545d565b8098508193505050614161565b8394505050505092915050565b82805461423890615532565b90600052602060002090601f01602090048101928261425a57600085556142a1565b82601f1061427357805160ff19168380011785556142a1565b828001600101855582156142a1579182015b828111156142a0578251825591602001919060010190614285565b5b5090506142ae9190614361565b5090565b8280546142be90615532565b90600052602060002090601f0160209004810192826142e0576000855561432e565b82601f106142f1578054855561432e565b8280016001018555821561432e57600052602060002091601f016020900482015b8281111561432d578254825591600101919060010190614312565b5b50905061433b9190614361565b5090565b6040518060800160405280600490602082028036833780820191505090505090565b5b8082111561437a576000816000905550600101614362565b5090565b600061439161438c8461534b565b61531a565b9050828152602081018484840111156143a957600080fd5b6143b48482856154f0565b509392505050565b60006143cf6143ca8461537b565b61531a565b9050828152602081018484840111156143e757600080fd5b6143f28482856154f0565b509392505050565b600081359050614409816156bf565b92915050565b600082601f83011261442057600080fd5b813561443084826020860161437e565b91505092915050565b600082601f83011261444a57600080fd5b813561445a8482602086016143bc565b91505092915050565b600081359050614472816156d6565b92915050565b60006020828403121561448a57600080fd5b6000614498848285016143fa565b91505092915050565b600080604083850312156144b457600080fd5b60006144c2858286016143fa565b925050602083013567ffffffffffffffff8111156144df57600080fd5b6144eb8582860161440f565b9150509250929050565b60006020828403121561450757600080fd5b600082013567ffffffffffffffff81111561452157600080fd5b61452d84828501614439565b91505092915050565b6000806040838503121561454957600080fd5b600083013567ffffffffffffffff81111561456357600080fd5b61456f85828601614439565b925050602083013567ffffffffffffffff81111561458c57600080fd5b6145988582860161440f565b9150509250929050565b600080604083850312156145b557600080fd5b600083013567ffffffffffffffff8111156145cf57600080fd5b6145db85828601614439565b925050602083013567ffffffffffffffff8111156145f857600080fd5b61460485828601614439565b9150509250929050565b600080600080600060a0868803121561462657600080fd5b600086013567ffffffffffffffff81111561464057600080fd5b61464c88828901614439565b955050602086013567ffffffffffffffff81111561466957600080fd5b61467588828901614439565b945050604086013567ffffffffffffffff81111561469257600080fd5b61469e88828901614439565b935050606086013567ffffffffffffffff8111156146bb57600080fd5b6146c788828901614439565b925050608086013567ffffffffffffffff8111156146e457600080fd5b6146f088828901614439565b9150509295509295909350565b60006020828403121561470f57600080fd5b600061471d84828501614463565b91505092915050565b60008060006060848603121561473b57600080fd5b600061474986828701614463565b935050602084013567ffffffffffffffff81111561476657600080fd5b61477286828701614439565b925050604084013567ffffffffffffffff81111561478f57600080fd5b61479b86828701614439565b9150509250925092565b600080604083850312156147b857600080fd5b60006147c685828601614463565b92505060206147d785828601614463565b9150509250929050565b6147ea81615491565b82525050565b6148016147fc82615491565b6155ad565b82525050565b614810816154a3565b82525050565b61481f816154af565b82525050565b614836614831826154af565b6155bf565b82525050565b6000614847826153ab565b61485181856153b6565b93506148618185602086016154ff565b61486a816156a1565b840191505092915050565b6000614880826153ab565b61488a81856153c7565b935061489a8185602086016154ff565b80840191505092915050565b60006148b3601e836153b6565b91507f4f6e6c7920726567697374657265642075736572732063616e20766f746500006000830152602082019050919050565b60006148f3600d836153b6565b91507f416c726561647920566f746564000000000000000000000000000000000000006000830152602082019050919050565b6000614933601c836153c7565b91507f19457468657265756d205369676e6564204d6573736167653a0a3332000000006000830152601c82019050919050565b60006149736011836153b6565b91507f486173206265656e2065786563757465640000000000000000000000000000006000830152602082019050919050565b60006149b36011836153b6565b91507f4e6f7420456e6f75676820566f746572730000000000000000000000000000006000830152602082019050919050565b60006149f36016836153b6565b91507f566f74657220616c7265616479207665726966696564000000000000000000006000830152602082019050919050565b6000614a336015836153b6565b91507f4e6f7420456e6f7567682043616e6469646174657300000000000000000000006000830152602082019050919050565b6000614a736010836153b6565b91507f4e6f7420456e6f75676820566f746573000000000000000000000000000000006000830152602082019050919050565b6000614ab36012836153b6565b91507f566f74696e6720696e2070726f677265737300000000000000000000000000006000830152602082019050919050565b6000614af36011836153b6565b91507f41646d696e2043616e6e6f7420766f74650000000000000000000000000000006000830152602082019050919050565b6000614b33602b836153b6565b91507f43616e6e6f74206164642063616e6469646174657320647572696e6720766f7460008301527f696e672070726f636573730000000000000000000000000000000000000000006020830152604082019050919050565b6000614b99601e836153b6565b91507f557365206a6163446f75626c652066756e6374696f6e20696e737465616400006000830152602082019050919050565b6000614bd96021836153b6565b91507f546865207075626c6963206164647265737320616c726561647920696e20757360008301527f65000000000000000000000000000000000000000000000000000000000000006020830152604082019050919050565b6000614c3f6015836153b6565b91507f41646d696e2043616e6e6f7420726567697374657200000000000000000000006000830152602082019050919050565b6000614c7f601a836153b6565b91507f506572736f6e616c20494420616c726561647920696e207573650000000000006000830152602082019050919050565b6000614cbf6024836153b6565b91507f4f6e6c792041646d696e2063616e20706572666f726d20746869732066756e6360008301527f74696f6e000000000000000000000000000000000000000000000000000000006020830152604082019050919050565b6000614d256011836153b6565b91507f696e76616c69642063616e6469646174650000000000000000000000000000006000830152602082019050919050565b6000614d656018836153b6565b91507f696e76616c6964207369676e6174757265206c656e67746800000000000000006000830152602082019050919050565b6000614da5600e836153b6565b91507f496e76616c6964206e756d6265720000000000000000000000000000000000006000830152602082019050919050565b614de1816154d9565b82525050565b614df8614df3826154d9565b6155db565b82525050565b614e07816154e3565b82525050565b6000614e198284614875565b915081905092915050565b6000614e2f82614926565b9150614e3b8284614825565b60208201915081905092915050565b6000614e568287614de7565b602082019150614e668286614de7565b602082019150614e7682856147f0565b601482019150614e8682846147f0565b60148201915081905095945050505050565b6000602082019050614ead60008301846147e1565b92915050565b6000602082019050614ec86000830184614807565b92915050565b6000602082019050614ee36000830184614816565b92915050565b6000608082019050614efe6000830187614816565b614f0b6020830186614dfe565b614f186040830185614816565b614f256060830184614816565b95945050505050565b60006020820190508181036000830152614f48818461483c565b905092915050565b60006040820190508181036000830152614f6a818561483c565b90508181036020830152614f7e818461483c565b90509392505050565b60006080820190508181036000830152614fa1818761483c565b90508181036020830152614fb5818661483c565b90508181036040830152614fc9818561483c565b9050614fd86060830184614807565b95945050505050565b600060e0820190508181036000830152614ffb818a61483c565b9050818103602083015261500f818961483c565b90508181036040830152615023818861483c565b90508181036060830152615037818761483c565b90506150466080830186614807565b61505360a0830185614807565b61506060c0830184614807565b98975050505050505050565b60006020820190508181036000830152615085816148a6565b9050919050565b600060208201905081810360008301526150a5816148e6565b9050919050565b600060208201905081810360008301526150c581614966565b9050919050565b600060208201905081810360008301526150e5816149a6565b9050919050565b60006020820190508181036000830152615105816149e6565b9050919050565b6000602082019050818103600083015261512581614a26565b9050919050565b6000602082019050818103600083015261514581614a66565b9050919050565b6000602082019050818103600083015261516581614aa6565b9050919050565b6000602082019050818103600083015261518581614ae6565b9050919050565b600060208201905081810360008301526151a581614b26565b9050919050565b600060208201905081810360008301526151c581614b8c565b9050919050565b600060208201905081810360008301526151e581614bcc565b9050919050565b6000602082019050818103600083015261520581614c32565b9050919050565b6000602082019050818103600083015261522581614c72565b9050919050565b6000602082019050818103600083015261524581614cb2565b9050919050565b6000602082019050818103600083015261526581614d18565b9050919050565b6000602082019050818103600083015261528581614d58565b9050919050565b600060208201905081810360008301526152a581614d98565b9050919050565b60006020820190506152c16000830184614dd8565b92915050565b60006080820190506152dc6000830187614dd8565b81810360208301526152ee818661483c565b90508181036040830152615302818561483c565b90506153116060830184614dd8565b95945050505050565b6000604051905081810181811067ffffffffffffffff8211171561534157615340615672565b5b8060405250919050565b600067ffffffffffffffff82111561536657615365615672565b5b601f19601f8301169050602081019050919050565b600067ffffffffffffffff82111561539657615395615672565b5b601f19601f8301169050602081019050919050565b600081519050919050565b600082825260208201905092915050565b600081905092915050565b60006153dd826154d9565b91506153e8836154d9565b9250826153f8576153f7615614565b5b828204905092915050565b600061540e826154d9565b9150615419836154d9565b9250817fffffffffffffffffffffffffffffffffffffffffffffffffffffffffffffffff0483118215151615615452576154516155e5565b5b828202905092915050565b6000615468826154d9565b9150615473836154d9565b925082821015615486576154856155e5565b5b828203905092915050565b600061549c826154b9565b9050919050565b60008115159050919050565b6000819050919050565b600073ffffffffffffffffffffffffffffffffffffffff82169050919050565b6000819050919050565b600060ff82169050919050565b82818337600083830152505050565b60005b8381101561551d578082015181840152602081019050615502565b8381111561552c576000848401525b50505050565b6000600282049050600182168061554a57607f821691505b6020821081141561555e5761555d615643565b5b50919050565b600061556f826154d9565b91507fffffffffffffffffffffffffffffffffffffffffffffffffffffffffffffffff8214156155a2576155a16155e5565b5b600182019050919050565b60006155b8826155c9565b9050919050565b6000819050919050565b60006155d4826156b2565b9050919050565b6000819050919050565b7f4e487b7100000000000000000000000000000000000000000000000000000000600052601160045260246000fd5b7f4e487b7100000000000000000000000000000000000000000000000000000000600052601260045260246000fd5b7f4e487b7100000000000000000000000000000000000000000000000000000000600052602260045260246000fd5b7f4e487b7100000000000000000000000000000000000000000000000000000000600052604160045260246000fd5b6000601f19601f8301169050919050565b60008160601b9050919050565b6156c8816154af565b81146156d357600080fd5b50565b6156df816154d9565b81146156ea57600080fd5b5056fea264697066735822122096d2c2b880bb2e0699e9f3305860842d3ecdf3ff8fe24d74af57220e62d9e35464736f6c63430008000033",
  "immutableReferences": {},
  "source": "// SPDX-License-Identifier: MIT \r\npragma solidity  ^0.8.0;\r\nimport \"./EllipticCurve.sol\";\r\nimport \"@openzeppelin/contracts/utils/Strings.sol\";\r\n\r\n\r\n\r\ncontract Election { \r\n\r\n    struct voter {\r\n        bytes32 personal_id; //their personal id\r\n        bool hasVoted; //have they voted\r\n        address public_Address; //public address to wallet\r\n        string email; //email address for communication\r\n        string name; //name of voter \r\n        string surname; \r\n        string refNUm; \r\n        bool isRegistered;\r\n        uint256 PrivateKey;\r\n        bool  isVerifiedUser;\r\n        uint position;\r\n    }\r\n \r\n    struct votingRecords{\r\n        string ref;\r\n        string voteDate;\r\n        string voteTime;\r\n        bool isVerified;\r\n    }\r\n\r\n    \r\n\r\n\r\n     // Model a Candidate\r\n    struct Candidate {\r\n        uint id;\r\n        string name;\r\n        string party;\r\n        uint voteCount;\r\n    }\r\n    //ECC CONSTANTS - SECPTIC256\r\n    uint256 private constant GX = 0x79BE667EF9DCBBAC55A06295CE870B07029BFCDB2DCE28D959F2815B16F81798;\r\n    uint256 private constant GY = 0x483ADA7726A3C4655DA4FBFC0E1108A8FD17B448A68554199C47D08FFB10D4B8;\r\n    uint256 private constant AA = 0;\r\n    uint256 private constant BB = 7;\r\n    uint256 private constant PP = 0xFFFFFFFFFFFFFFFFFFFFFFFFFFFFFFFFFFFFFFFFFFFFFFFFFFFFFFFEFFFFFC2F;\r\n\r\n    // Read/write candidate\r\n    mapping(uint => Candidate) public candidates;\r\n\r\n    // Store accounts that have voted\r\n    mapping(address => voter) private voters;\r\n\r\n    mapping(uint => votingRecords) public votingTrails;\r\n\r\n    mapping(uint => string) private candidateToVoter;\r\n\r\n    // Stores encyrted ID'S\r\n    mapping(bytes32 => address) private verifier;\r\n    mapping(uint => address) private recorder;\r\n\r\n    mapping(bytes32 => bool) private adminSignatures; //saves history of Admin signature to curb Signature Replay Attack\r\n\r\n\r\n    // Store Candidates Count\r\n    uint public candidatesCount;\r\n\r\n    // Stores Election phase\r\n    string public phase;\r\n\r\n    uint private randomiser;\r\n\r\n    uint private minimum_candidates =2;\r\n    uint private minVotes = 2;\r\n\r\n    // Store number of voters\r\n    uint public votersCount;\r\n\r\n    //number of total votes\r\n    uint public numVotes;\r\n\r\n    string[3] phases = [\"registration\" , \"voting\", \"results\"];\r\n    uint private phasePointer;\r\n\r\n    // Admin is set once, when contract is deployed. Also saves gas fees\r\n    address private admin;\r\n\r\n    constructor(){ \r\n        admin = msg.sender; //the deployer of the contract is the admin\r\n        phase=\"Election has not started\";\r\n    } \r\n\r\n    modifier onlyAdmin(){\r\n\t\trequire(msg.sender==admin, \"Only Admin can perform this function\");\r\n\t\t_;\r\n\t}\r\n\r\n       // Add a candidate\r\n    function addCandidate (string memory _name, string memory _party) onlyAdmin public {\r\n        require(phasePointer<=0, \"Cannot add candidates during voting process\");\r\n        candidatesCount ++;\r\n        candidates[candidatesCount] = Candidate({\r\n            id: candidatesCount, \r\n            name: _name,\r\n            party: _party, \r\n            voteCount: 0\r\n            });\r\n    }\r\n\r\n\r\n     // Add a voter\r\n    function addVoter (string memory _personal_id, string memory _email, string memory _name, string memory _surname, string memory _ref) public {\r\n            require(msg.sender != admin, \"Admin Cannot register\"); //require that the user is not registered\r\n            address _pAdress = msg.sender; \r\n            bytes32 encrypt_id = keccak256_encrypt(_personal_id);  //encrypt personal id\r\n            voter storage user = voters[_pAdress];\r\n            require(!user.isRegistered, \"The public address already in use\"); //require that the user is not registered\r\n\r\n            //require that personal_id is not already in use\r\n            require(verifier[encrypt_id] == 0x0000000000000000000000000000000000000000, \"Personal ID already in use\");\r\n            recorder[votersCount] = _pAdress;\r\n            voters[_pAdress] = voter( {personal_id: encrypt_id, \r\n                            hasVoted:false, \r\n                            public_Address:_pAdress,\r\n                            email: _email, \r\n                            name:_name, \r\n                            surname: _surname, \r\n                            refNUm: _ref,\r\n                            isRegistered:true,\r\n                            PrivateKey:0,\r\n                            isVerifiedUser:false,\r\n                            position:0\r\n                    });\r\n            \r\n           \r\n            verifier[encrypt_id] = _pAdress;\r\n            votersCount ++;\r\n            \r\n    }\r\n\r\n    //get voter details to display to voter\r\n    function getVoter() public view returns(string memory, string memory, string memory, string memory, bool, bool, bool){\r\n            return(voters[msg.sender].name, voters[msg.sender].surname, voters[msg.sender].email, \r\n            voters[msg.sender].refNUm, voters[msg.sender].isRegistered, voters[msg.sender].hasVoted, voters[msg.sender].isVerifiedUser);             \r\n    }\r\n\r\n    //returns true if voter registered\r\n    function isVoter_Registered() public view returns (bool){\r\n        return voters[msg.sender].isRegistered;\r\n    }\r\n\r\n    \r\n  // https://stackoverflow.com/questions/73555009/how-to-generate-random-words-in-solidity-based-based-on-a-string-of-letters/73557284#73557284\r\n  function random() public returns (uint) {\r\n        randomiser++;\r\n        return uint (keccak256(abi.encodePacked (block.timestamp,randomiser, msg.sender, address(this))));\r\n     }\r\n\r\n     //returns true if voter registered\r\n    function has_Voted() public view returns (bool){\r\n        return voters[msg.sender].hasVoted;\r\n    }\r\n\r\n    // voting function, all accounts can vote\r\n    function vote (uint _candidateId, string memory _date, string memory _time) public {\r\n        require(msg.sender != admin, \"Admin Cannot vote\");\r\n\r\n        //must be registered to vote\r\n        require(voters[msg.sender].isRegistered, \"Only registered users can vote\");\r\n\r\n        // require that they haven't voted before\r\n        require(!voters[msg.sender].hasVoted, \"Already Voted\"); \r\n        \r\n        // require a valid candidate\r\n        require(_candidateId > 0 && _candidateId <= candidatesCount, \"invalid candidate\");\r\n\r\n        // record that voter has voted\r\n        voters[msg.sender].hasVoted = true;\r\n\r\n        // update candidate vote Count\r\n        candidates[_candidateId].voteCount ++; //add vote to candidate\r\n        candidateToVoter[_candidateId] = voters[msg.sender].refNUm;\r\n\r\n        voters[msg.sender].PrivateKey = random();  //CREATE PRIVATE KEY *****\r\n    \r\n        votingTrails[numVotes] = votingRecords({ //keep record of vote\r\n                                                ref:voters[msg.sender].refNUm,\r\n                                                voteDate:_date,\r\n                                                voteTime:_time,\r\n                                                isVerified:false\r\n                                         });\r\n        voters[msg.sender].position = numVotes; //store position of vote\r\n        numVotes++; //increase vote count\r\n        \r\n    }\r\n\r\n    //Return voter keys\r\n     function copyKeys() public view returns(string memory, string memory){\r\n            (uint256 p1, uint256 p2) = EllipticCurve.ecMul(voters[msg.sender].PrivateKey,GX,GY,AA,PP); \r\n            while(!EllipticCurve.isOnCurve(p1, p2, AA, BB, PP)){ //If points returned are not on the curve, iterate again\r\n                 (p1, p2) = EllipticCurve.ecMul(voters[msg.sender].PrivateKey,GX,GY,AA,PP); \r\n            }\r\n            return (Strings.toString(p1), Strings.toString(p2));          \r\n    }\r\n\r\n    function testEncryption() public returns(string memory, string memory){\r\n       (uint256 p1, uint256 p2) = EllipticCurve.ecMul(random(),GX,GY,AA,PP);\r\n       return (Strings.toString(p1), Strings.toString(p2));   \r\n    }\r\n \r\n    //verify vote\r\n    function verifyVote(uint _key1, uint _key2) public{\r\n    \r\n        // require that they have voted before\r\n        require(voters[msg.sender].hasVoted, \"Already Voted\");\r\n\r\n        require(!voters[msg.sender].isVerifiedUser, \"Voter already verified\");\r\n\r\n        (uint256 p1, uint256 p2) = EllipticCurve.ecMul(voters[msg.sender].PrivateKey,GX,GY,AA,PP); //creating public keys from the user address\r\n\r\n        if(p1==_key1 && _key2==p2 ){ //public keys match\r\n            votingTrails[voters[msg.sender].position].isVerified = true;\r\n            voters[msg.sender].isVerifiedUser = true;\r\n        }\r\n    }\r\n\r\n    // start election\r\n    function startElection() onlyAdmin public {\r\n            require(phasePointer!=1 && phasePointer!=2, \"Voting in progress\");\r\n            phasePointer = 0;\r\n            phase = phases[phasePointer]; //contract is deployed in the registration phase\r\n    \r\n    }\r\n\r\n    //change election phase\r\n    function changePhase() onlyAdmin public {\r\n        phasePointer++;\r\n        if (phasePointer <3) {\r\n            if(phasePointer == 1){ //from registration to voting\r\n                require(votersCount>candidatesCount, \"Not Enough Voters\"); //3 VOTES, 2 CANDIDATES\r\n                require(candidatesCount>=minimum_candidates, \"Not Enough Candidates\"); //MINIMUM OF 2 CANDIDATES\r\n                phase = phases[phasePointer];\r\n            }\r\n             if(phasePointer == 2){ //from voting to results\r\n                require(numVotes>=minVotes, \"Not Enough Votes\"); //MINIMUM OF 2 VOTES\r\n                phase = phases[phasePointer];\r\n            }            \r\n        } else {\r\n            phase = \"Election ended\";\r\n        }\r\n\r\n    }\r\n\r\n\r\n    //hash function\r\n    function keccak256_encrypt(string memory text) public pure returns (bytes32) {\r\n        return keccak256(abi.encode(text));\r\n    }\r\n\r\n    function getWinner() public view returns(string memory) {\r\n        uint winner = 1;\r\n        uint voterS = candidates[1].voteCount;\r\n        for (uint index = 2; index <=  candidatesCount; index++) {\r\n            if(candidates[index].voteCount > voterS){\r\n                winner = index;\r\n                voterS = candidates[index].voteCount;\r\n                }\r\n        }\r\n        return (candidates[winner].name);\r\n\r\n    }\r\n\r\n\r\n    //<----------------------------------- Verifies signed message -------------------------------->\r\n    function verify (string memory _message, bytes memory _sig) onlyAdmin public returns (bool) {\r\n        bytes32 hash_SMS = getHash(_message);\r\n        require(!adminSignatures[hash_SMS], \"Has been executed\"); //must be a new signature\r\n        bytes32 ethSignedMessageHash = getEthSignedHash(hash_SMS);\r\n        adminSignatures[hash_SMS] = true;\r\n        return recover(ethSignedMessageHash, _sig) == admin;\r\n    }\r\n    \r\n    //turns string to hash\r\n    function getHash (string memory sms) public pure returns (bytes32){\r\n        return keccak256(abi.encodePacked(sms));\r\n    }\r\n\r\n\r\n    function getEthSignedHash (bytes32 sms) public pure returns (bytes32){\r\n        return keccak256(abi.encodePacked(\"\\x19Ethereum Signed Message:\\n32\", sms));\r\n    }\r\n\r\n\r\n    //recover account of original signer of message\r\n    function recover(bytes32 _ethSignedMessageHash, bytes memory _sig) public pure returns (address){\r\n            (bytes32 r, bytes32 s, uint8 v) = _split(_sig); //split signature into params\r\n            return ecrecover(_ethSignedMessageHash, v, r, s); //returns the address of the signer given the signed message\r\n    }\r\n\r\n    function _split(bytes memory _sig) internal pure returns (bytes32 r, bytes32 s, uint8 v){\r\n            require(_sig.length == 65, \"invalid signature length\");\r\n\r\n            assembly {\r\n                r := mload(add(_sig, 32))  //skip first 32-byetes as they hold the length\r\n                s := mload(add(_sig, 64))\r\n                v := byte(0, mload(add(_sig, 96)))\r\n\r\n            }\r\n    }\r\n\r\n    //<----------------------------------- ECC CRYPTOGRAPHY -------------------------------->\r\n\r\n}",
  "sourcePath": "C:\\Users\\Student\\Downloads\\BEV-cryptography\\Code\\contracts\\Election.sol",
  "compiler": {
    "name": "solc",
    "version": "0.8.0+commit.c7dfd78e.Emscripten.clang"
  },
  "schemaVersion": "3.4.16",
  "updatedAt": "2023-10-18T19:29:18.719Z",
  "networkType": "ethereum",
  "devdoc": {
    "kind": "dev",
    "methods": {},
    "version": 1
  },
  "userdoc": {
    "kind": "user",
    "methods": {},
    "version": 1
  }
}