{
  "contractName": "Election",
  "abi": [
    {
      "inputs": [],
      "stateMutability": "nonpayable",
      "type": "constructor"
    },
    {
      "inputs": [
        {
          "internalType": "uint256",
          "name": "",
          "type": "uint256"
        }
      ],
      "name": "candidates",
      "outputs": [
        {
          "internalType": "uint256",
          "name": "id",
          "type": "uint256"
        },
        {
          "internalType": "string",
          "name": "name",
          "type": "string"
        },
        {
          "internalType": "string",
          "name": "party",
          "type": "string"
        },
        {
          "internalType": "uint256",
          "name": "voteCount",
          "type": "uint256"
        }
      ],
      "stateMutability": "view",
      "type": "function",
      "constant": true
    },
    {
      "inputs": [],
      "name": "candidatesCount",
      "outputs": [
        {
          "internalType": "uint256",
          "name": "",
          "type": "uint256"
        }
      ],
      "stateMutability": "view",
      "type": "function",
      "constant": true
    },
    {
      "inputs": [],
      "name": "numVotes",
      "outputs": [
        {
          "internalType": "uint256",
          "name": "",
          "type": "uint256"
        }
      ],
      "stateMutability": "view",
      "type": "function",
      "constant": true
    },
    {
      "inputs": [],
      "name": "phase",
      "outputs": [
        {
          "internalType": "string",
          "name": "",
          "type": "string"
        }
      ],
      "stateMutability": "view",
      "type": "function",
      "constant": true
    },
    {
      "inputs": [],
      "name": "votersCount",
      "outputs": [
        {
          "internalType": "uint256",
          "name": "",
          "type": "uint256"
        }
      ],
      "stateMutability": "view",
      "type": "function",
      "constant": true
    },
    {
      "inputs": [
        {
          "internalType": "uint256",
          "name": "",
          "type": "uint256"
        }
      ],
      "name": "votingTrails",
      "outputs": [
        {
          "internalType": "string",
          "name": "ref",
          "type": "string"
        },
        {
          "internalType": "string",
          "name": "voteDate",
          "type": "string"
        },
        {
          "internalType": "string",
          "name": "voteTime",
          "type": "string"
        },
        {
          "internalType": "bool",
          "name": "isVerified",
          "type": "bool"
        }
      ],
      "stateMutability": "view",
      "type": "function",
      "constant": true
    },
    {
      "inputs": [
        {
          "internalType": "string",
          "name": "_name",
          "type": "string"
        },
        {
          "internalType": "string",
          "name": "_party",
          "type": "string"
        }
      ],
      "name": "addCandidate",
      "outputs": [],
      "stateMutability": "nonpayable",
      "type": "function"
    },
    {
      "inputs": [
        {
          "internalType": "string",
          "name": "_personal_id",
          "type": "string"
        },
        {
          "internalType": "string",
          "name": "_email",
          "type": "string"
        },
        {
          "internalType": "string",
          "name": "_name",
          "type": "string"
        },
        {
          "internalType": "string",
          "name": "_surname",
          "type": "string"
        },
        {
          "internalType": "string",
          "name": "_ref",
          "type": "string"
        }
      ],
      "name": "addVoter",
      "outputs": [],
      "stateMutability": "nonpayable",
      "type": "function"
    },
    {
      "inputs": [],
      "name": "getVoter",
      "outputs": [
        {
          "internalType": "string",
          "name": "",
          "type": "string"
        },
        {
          "internalType": "string",
          "name": "",
          "type": "string"
        },
        {
          "internalType": "string",
          "name": "",
          "type": "string"
        },
        {
          "internalType": "string",
          "name": "",
          "type": "string"
        },
        {
          "internalType": "bool",
          "name": "",
          "type": "bool"
        },
        {
          "internalType": "bool",
          "name": "",
          "type": "bool"
        },
        {
          "internalType": "bool",
          "name": "",
          "type": "bool"
        }
      ],
      "stateMutability": "view",
      "type": "function",
      "constant": true
    },
    {
      "inputs": [],
      "name": "isVoter_Registered",
      "outputs": [
        {
          "internalType": "bool",
          "name": "",
          "type": "bool"
        }
      ],
      "stateMutability": "view",
      "type": "function",
      "constant": true
    },
    {
      "inputs": [],
      "name": "random",
      "outputs": [
        {
          "internalType": "uint256",
          "name": "",
          "type": "uint256"
        }
      ],
      "stateMutability": "nonpayable",
      "type": "function"
    },
    {
      "inputs": [],
      "name": "has_Voted",
      "outputs": [
        {
          "internalType": "bool",
          "name": "",
          "type": "bool"
        }
      ],
      "stateMutability": "view",
      "type": "function",
      "constant": true
    },
    {
      "inputs": [
        {
          "internalType": "uint256",
          "name": "_candidateId",
          "type": "uint256"
        },
        {
          "internalType": "string",
          "name": "_date",
          "type": "string"
        },
        {
          "internalType": "string",
          "name": "_time",
          "type": "string"
        }
      ],
      "name": "vote",
      "outputs": [],
      "stateMutability": "nonpayable",
      "type": "function"
    },
    {
      "inputs": [],
      "name": "copyKeys",
      "outputs": [
        {
          "internalType": "string",
          "name": "",
          "type": "string"
        },
        {
          "internalType": "string",
          "name": "",
          "type": "string"
        }
      ],
      "stateMutability": "view",
      "type": "function",
      "constant": true
    },
    {
      "inputs": [],
      "name": "testEncryption",
      "outputs": [
        {
          "internalType": "string",
          "name": "",
          "type": "string"
        },
        {
          "internalType": "string",
          "name": "",
          "type": "string"
        }
      ],
      "stateMutability": "nonpayable",
      "type": "function"
    },
    {
      "inputs": [
        {
          "internalType": "uint256",
          "name": "_key1",
          "type": "uint256"
        },
        {
          "internalType": "uint256",
          "name": "_key2",
          "type": "uint256"
        }
      ],
      "name": "verifyVote",
      "outputs": [],
      "stateMutability": "nonpayable",
      "type": "function"
    },
    {
      "inputs": [],
      "name": "startElection",
      "outputs": [],
      "stateMutability": "nonpayable",
      "type": "function"
    },
    {
      "inputs": [],
      "name": "changePhase",
      "outputs": [],
      "stateMutability": "nonpayable",
      "type": "function"
    },
    {
      "inputs": [
        {
          "internalType": "string",
          "name": "text",
          "type": "string"
        }
      ],
      "name": "keccak256_encrypt",
      "outputs": [
        {
          "internalType": "bytes32",
          "name": "",
          "type": "bytes32"
        }
      ],
      "stateMutability": "pure",
      "type": "function",
      "constant": true
    },
    {
      "inputs": [],
      "name": "getWinner",
      "outputs": [
        {
          "internalType": "string",
          "name": "",
          "type": "string"
        }
      ],
      "stateMutability": "view",
      "type": "function",
      "constant": true
    },
    {
      "inputs": [
        {
          "internalType": "string",
          "name": "_message",
          "type": "string"
        },
        {
          "internalType": "bytes",
          "name": "_sig",
          "type": "bytes"
        }
      ],
      "name": "verify",
      "outputs": [
        {
          "internalType": "bool",
          "name": "",
          "type": "bool"
        }
      ],
      "stateMutability": "nonpayable",
      "type": "function"
    },
    {
      "inputs": [
        {
          "internalType": "string",
          "name": "sms",
          "type": "string"
        }
      ],
      "name": "getHash",
      "outputs": [
        {
          "internalType": "bytes32",
          "name": "",
          "type": "bytes32"
        }
      ],
      "stateMutability": "pure",
      "type": "function",
      "constant": true
    },
    {
      "inputs": [
        {
          "internalType": "bytes32",
          "name": "sms",
          "type": "bytes32"
        }
      ],
      "name": "getEthSignedHash",
      "outputs": [
        {
          "internalType": "bytes32",
          "name": "",
          "type": "bytes32"
        }
      ],
      "stateMutability": "pure",
      "type": "function",
      "constant": true
    },
    {
      "inputs": [
        {
          "internalType": "bytes32",
          "name": "_ethSignedMessageHash",
          "type": "bytes32"
        },
        {
          "internalType": "bytes",
          "name": "_sig",
          "type": "bytes"
        }
      ],
      "name": "recover",
      "outputs": [
        {
          "internalType": "address",
          "name": "",
          "type": "address"
        }
      ],
      "stateMutability": "pure",
      "type": "function",
      "constant": true
    }
  ],
  "bytecode": "0x60806040526002600a556002600b5560405180606001604052806040518060400160405280600c81526020017f726567697374726174696f6e000000000000000000000000000000000000000081525081526020016040518060400160405280600681526020017f766f74696e67000000000000000000000000000000000000000000000000000081525081526020016040518060400160405280600781526020017f726573756c747300000000000000000000000000000000000000000000000000815250815250600e906003620000da9291906200017e565b50348015620000e857600080fd5b5033601260006101000a81548173ffffffffffffffffffffffffffffffffffffffff021916908373ffffffffffffffffffffffffffffffffffffffff1602179055506040518060400160405280601881526020017f456c656374696f6e20686173206e6f74207374617274656400000000000000008152506008908051906020019062000177929190620001d8565b506200035b565b8260038101928215620001c5579160200282015b82811115620001c4578251829080519060200190620001b3929190620001d8565b509160200191906001019062000192565b5b509050620001d4919062000269565b5090565b828054620001e690620002f6565b90600052602060002090601f0160209004810192826200020a576000855562000256565b82601f106200022557805160ff191683800117855562000256565b8280016001018555821562000256579182015b828111156200025557825182559160200191906001019062000238565b5b50905062000265919062000291565b5090565b5b808211156200028d5760008181620002839190620002b0565b506001016200026a565b5090565b5b80821115620002ac57600081600090555060010162000292565b5090565b508054620002be90620002f6565b6000825580601f10620002d25750620002f3565b601f016020900490600052602060002090810190620002f2919062000291565b5b50565b600060028204905060018216806200030f57607f821691505b602082108114156200032657620003256200032c565b5b50919050565b7f4e487b7100000000000000000000000000000000000000000000000000000000600052602260045260246000fd5b6157d8806200036b6000396000f3fe608060405234801561001057600080fd5b50600436106101585760003560e01c8063642d04c1116100c3578063b1c9fe6e1161007c578063b1c9fe6e146103d5578063d0a6a870146103f3578063d25773b714610412578063db6f595314610430578063e3c0327d1461043a578063f731d0e91461046d57610158565b8063642d04c1146103225780638e7ea5b21461034157806398b8b43d1461035f57806398c079381461037d578063a3bef4d71461039b578063b1084759146103b957610158565b80633477ee2e116101155780633477ee2e146102375780633d9ffad51461026a5780633fee76dc1461029a5780635b6beeb9146102ca5780635ec01e4d146102fa57806362d73eb81461031857610158565b806319045a251461015d578063216f6a6e1461018d57806326541b56146101a95780632b37f53c146101c55780632d35a8a2146101e95780632f4ea5ea14610207575b600080fd5b610177600480360381019061017291906144ab565b610489565b6040516101849190614f38565b60405180910390f35b6101a760048036038101906101a291906147af565b6104f8565b005b6101c360048036038101906101be91906145ac565b6107b3565b005b6101cd61092e565b6040516101e09796959493929190615081565b60405180910390f35b6101f1610d78565b6040516101fe919061534c565b60405180910390f35b610221600480360381019061021c9190614482565b610d7e565b60405161022e9190614f6e565b60405180910390f35b610251600480360381019061024c9190614707565b610dae565b6040516102619493929190615367565b60405180910390f35b610284600480360381019061027f9190614540565b610eee565b6040516102919190614f53565b60405180910390f35b6102b460048036038101906102af91906144ff565b61109e565b6040516102c19190614f6e565b60405180910390f35b6102e460048036038101906102df91906144ff565b6110ce565b6040516102f19190614f6e565b60405180910390f35b6103026110fe565b60405161030f919061534c565b60405180910390f35b61032061114f565b005b61032a611295565b604051610338929190614ff0565b60405180910390f35b610349611330565b6040516103569190614fce565b60405180910390f35b610367611455565b6040516103749190614f53565b60405180910390f35b6103856114ac565b604051610392919061534c565b60405180910390f35b6103a36114b2565b6040516103b0919061534c565b60405180910390f35b6103d360048036038101906103ce9190614730565b6114b8565b005b6103dd6119d3565b6040516103ea9190614fce565b60405180910390f35b6103fb611a61565b604051610409929190614ff0565b60405180910390f35b61041a611c28565b6040516104279190614f53565b60405180910390f35b610438611c7f565b005b610454600480360381019061044f9190614707565b611f20565b6040516104649493929190615027565b60405180910390f35b61048760048036038101906104829190614618565b6120f5565b005b60008060008061049885612582565b925092509250600186828585604051600081526020016040526040516104c19493929190614f89565b6020604051602081039080840390855afa1580156104e3573d6000803e3d6000fd5b50505060206040510351935050505092915050565b600160003373ffffffffffffffffffffffffffffffffffffffff1673ffffffffffffffffffffffffffffffffffffffff16815260200190815260200160002060010160009054906101000a900460ff16610587576040517f08c379a000000000000000000000000000000000000000000000000000000000815260040161057e9061512c565b60405180910390fd5b600160003373ffffffffffffffffffffffffffffffffffffffff1673ffffffffffffffffffffffffffffffffffffffff16815260200190815260200160002060080160009054906101000a900460ff1615610617576040517f08c379a000000000000000000000000000000000000000000000000000000000815260040161060e9061518c565b60405180910390fd5b6000806106ca600160003373ffffffffffffffffffffffffffffffffffffffff1673ffffffffffffffffffffffffffffffffffffffff168152602001908152602001600020600701547f79be667ef9dcbbac55a06295ce870b07029bfcdb2dce28d959f2815b16f817987f483ada7726a3c4655da4fbfc0e1108a8fd17b448a68554199c47d08ffb10d4b860007ffffffffffffffffffffffffffffffffffffffffffffffffffffffffefffffc2f6125ea565b9150915083821480156106dc57508083145b156107ad57600160026000600160003373ffffffffffffffffffffffffffffffffffffffff1673ffffffffffffffffffffffffffffffffffffffff16815260200190815260200160002060090154815260200190815260200160002060030160006101000a81548160ff02191690831515021790555060018060003373ffffffffffffffffffffffffffffffffffffffff1673ffffffffffffffffffffffffffffffffffffffff16815260200190815260200160002060080160006101000a81548160ff0219169083151502179055505b50505050565b601260009054906101000a900473ffffffffffffffffffffffffffffffffffffffff1673ffffffffffffffffffffffffffffffffffffffff163373ffffffffffffffffffffffffffffffffffffffff1614610843576040517f08c379a000000000000000000000000000000000000000000000000000000000815260040161083a906152cc565b60405180910390fd5b60006011541115610889576040517f08c379a00000000000000000000000000000000000000000000000000000000081526004016108809061522c565b60405180910390fd5b6007600081548092919061089c90615619565b919050555060405180608001604052806007548152602001838152602001828152602001600081525060008060075481526020019081526020016000206000820151816000015560208201518160010190805190602001906108ff929190614236565b50604082015181600201908051906020019061091c929190614236565b50606082015181600301559050505050565b6060806060806000806000600160003373ffffffffffffffffffffffffffffffffffffffff1673ffffffffffffffffffffffffffffffffffffffff168152602001908152602001600020600301600160003373ffffffffffffffffffffffffffffffffffffffff1673ffffffffffffffffffffffffffffffffffffffff168152602001908152602001600020600401600160003373ffffffffffffffffffffffffffffffffffffffff1673ffffffffffffffffffffffffffffffffffffffff168152602001908152602001600020600201600160003373ffffffffffffffffffffffffffffffffffffffff1673ffffffffffffffffffffffffffffffffffffffff168152602001908152602001600020600501600160003373ffffffffffffffffffffffffffffffffffffffff1673ffffffffffffffffffffffffffffffffffffffff16815260200190815260200160002060060160009054906101000a900460ff16600160003373ffffffffffffffffffffffffffffffffffffffff1673ffffffffffffffffffffffffffffffffffffffff16815260200190815260200160002060010160009054906101000a900460ff16600160003373ffffffffffffffffffffffffffffffffffffffff1673ffffffffffffffffffffffffffffffffffffffff16815260200190815260200160002060080160009054906101000a900460ff16868054610b3d906155e7565b80601f0160208091040260200160405190810160405280929190818152602001828054610b69906155e7565b8015610bb65780601f10610b8b57610100808354040283529160200191610bb6565b820191906000526020600020905b815481529060010190602001808311610b9957829003601f168201915b50505050509650858054610bc9906155e7565b80601f0160208091040260200160405190810160405280929190818152602001828054610bf5906155e7565b8015610c425780601f10610c1757610100808354040283529160200191610c42565b820191906000526020600020905b815481529060010190602001808311610c2557829003601f168201915b50505050509550848054610c55906155e7565b80601f0160208091040260200160405190810160405280929190818152602001828054610c81906155e7565b8015610cce5780601f10610ca357610100808354040283529160200191610cce565b820191906000526020600020905b815481529060010190602001808311610cb157829003601f168201915b50505050509450838054610ce1906155e7565b80601f0160208091040260200160405190810160405280929190818152602001828054610d0d906155e7565b8015610d5a5780601f10610d2f57610100808354040283529160200191610d5a565b820191906000526020600020905b815481529060010190602001808311610d3d57829003601f168201915b50505050509350965096509650965096509650965090919293949596565b60075481565b600081604051602001610d919190614ec4565b604051602081830303815290604052805190602001209050919050565b6000602052806000526040600020600091509050806000015490806001018054610dd7906155e7565b80601f0160208091040260200160405190810160405280929190818152602001828054610e03906155e7565b8015610e505780601f10610e2557610100808354040283529160200191610e50565b820191906000526020600020905b815481529060010190602001808311610e3357829003601f168201915b505050505090806002018054610e65906155e7565b80601f0160208091040260200160405190810160405280929190818152602001828054610e91906155e7565b8015610ede5780601f10610eb357610100808354040283529160200191610ede565b820191906000526020600020905b815481529060010190602001808311610ec157829003601f168201915b5050505050908060030154905084565b6000601260009054906101000a900473ffffffffffffffffffffffffffffffffffffffff1673ffffffffffffffffffffffffffffffffffffffff163373ffffffffffffffffffffffffffffffffffffffff1614610f80576040517f08c379a0000000000000000000000000000000000000000000000000000000008152600401610f77906152cc565b60405180910390fd5b6000610f8b846110ce565b90506006600082815260200190815260200160002060009054906101000a900460ff1615610fee576040517f08c379a0000000000000000000000000000000000000000000000000000000008152600401610fe59061514c565b60405180910390fd5b6000610ff982610d7e565b905060016006600084815260200190815260200160002060006101000a81548160ff021916908315150217905550601260009054906101000a900473ffffffffffffffffffffffffffffffffffffffff1673ffffffffffffffffffffffffffffffffffffffff1661106a8286610489565b73ffffffffffffffffffffffffffffffffffffffff16141561109157600192505050611098565b6000925050505b92915050565b6000816040516020016110b19190614fce565b604051602081830303815290604052805190602001209050919050565b6000816040516020016110e19190614e96565b604051602081830303815290604052805190602001209050919050565b60006009600081548092919061111390615619565b91905055504260095433306040516020016111319493929190614eea565b6040516020818303038152906040528051906020012060001c905090565b601260009054906101000a900473ffffffffffffffffffffffffffffffffffffffff1673ffffffffffffffffffffffffffffffffffffffff163373ffffffffffffffffffffffffffffffffffffffff16146111df576040517f08c379a00000000000000000000000000000000000000000000000000000000081526004016111d6906152cc565b60405180910390fd5b6001601154141580156111f55750600260115414155b611234576040517f08c379a000000000000000000000000000000000000000000000000000000000815260040161122b906151ec565b60405180910390fd5b6000601181905550600e60115460038110611278577f4e487b7100000000000000000000000000000000000000000000000000000000600052603260045260246000fd5b016008908054611287906155e7565b6112929291906142bc565b50565b6060806000806113106112a66110fe565b7f79be667ef9dcbbac55a06295ce870b07029bfcdb2dce28d959f2815b16f817987f483ada7726a3c4655da4fbfc0e1108a8fd17b448a68554199c47d08ffb10d4b860007ffffffffffffffffffffffffffffffffffffffffffffffffffffffffefffffc2f6125ea565b9150915061131d82612624565b61132682612624565b9350935050509091565b60606000600190506000806000600181526020019081526020016000206003015490506000600290505b60075481116113af578160008083815260200190815260200160002060030154111561139c578092506000808281526020019081526020016000206003015491505b80806113a790615619565b91505061135a565b5060008083815260200190815260200160002060010180546113d0906155e7565b80601f01602080910402602001604051908101604052809291908181526020018280546113fc906155e7565b80156114495780601f1061141e57610100808354040283529160200191611449565b820191906000526020600020905b81548152906001019060200180831161142c57829003601f168201915b50505050509250505090565b6000600160003373ffffffffffffffffffffffffffffffffffffffff1673ffffffffffffffffffffffffffffffffffffffff16815260200190815260200160002060010160009054906101000a900460ff16905090565b600c5481565b600d5481565b601260009054906101000a900473ffffffffffffffffffffffffffffffffffffffff1673ffffffffffffffffffffffffffffffffffffffff163373ffffffffffffffffffffffffffffffffffffffff161415611549576040517f08c379a00000000000000000000000000000000000000000000000000000000081526004016115409061520c565b60405180910390fd5b600160003373ffffffffffffffffffffffffffffffffffffffff1673ffffffffffffffffffffffffffffffffffffffff16815260200190815260200160002060060160009054906101000a900460ff166115d8576040517f08c379a00000000000000000000000000000000000000000000000000000000081526004016115cf9061510c565b60405180910390fd5b600160003373ffffffffffffffffffffffffffffffffffffffff1673ffffffffffffffffffffffffffffffffffffffff16815260200190815260200160002060010160009054906101000a900460ff1615611668576040517f08c379a000000000000000000000000000000000000000000000000000000000815260040161165f9061512c565b60405180910390fd5b60008311801561167a57506007548311155b6116b9576040517f08c379a00000000000000000000000000000000000000000000000000000000081526004016116b0906152ec565b60405180910390fd5b60018060003373ffffffffffffffffffffffffffffffffffffffff1673ffffffffffffffffffffffffffffffffffffffff16815260200190815260200160002060010160006101000a81548160ff021916908315150217905550600080848152602001908152602001600020600301600081548092919061173990615619565b9190505550826003600160003373ffffffffffffffffffffffffffffffffffffffff1673ffffffffffffffffffffffffffffffffffffffff1681526020019081526020016000206005016040516117909190614ead565b9081526020016040518091039020819055506117aa6110fe565b600160003373ffffffffffffffffffffffffffffffffffffffff1673ffffffffffffffffffffffffffffffffffffffff168152602001908152602001600020600701819055506040518060800160405280600160003373ffffffffffffffffffffffffffffffffffffffff1673ffffffffffffffffffffffffffffffffffffffff1681526020019081526020016000206005018054611848906155e7565b80601f0160208091040260200160405190810160405280929190818152602001828054611874906155e7565b80156118c15780601f10611896576101008083540402835291602001916118c1565b820191906000526020600020905b8154815290600101906020018083116118a457829003601f168201915b505050505081526020018381526020018281526020016000151581525060026000600d548152602001908152602001600020600082015181600001908051906020019061190f929190614236565b50602082015181600101908051906020019061192c929190614236565b506040820151816002019080519060200190611949929190614236565b5060608201518160030160006101000a81548160ff021916908315150217905550905050600d54600160003373ffffffffffffffffffffffffffffffffffffffff1673ffffffffffffffffffffffffffffffffffffffff16815260200190815260200160002060090181905550600d60008154809291906119c990615619565b9190505550505050565b600880546119e0906155e7565b80601f0160208091040260200160405190810160405280929190818152602001828054611a0c906155e7565b8015611a595780601f10611a2e57610100808354040283529160200191611a59565b820191906000526020600020905b815481529060010190602001808311611a3c57829003601f168201915b505050505081565b606080600080611b17600160003373ffffffffffffffffffffffffffffffffffffffff1673ffffffffffffffffffffffffffffffffffffffff168152602001908152602001600020600701547f79be667ef9dcbbac55a06295ce870b07029bfcdb2dce28d959f2815b16f817987f483ada7726a3c4655da4fbfc0e1108a8fd17b448a68554199c47d08ffb10d4b860007ffffffffffffffffffffffffffffffffffffffffffffffffffffffffefffffc2f6125ea565b915091505b611b4b8282600060077ffffffffffffffffffffffffffffffffffffffffffffffffffffffffefffffc2f612748565b611c0c57611bff600160003373ffffffffffffffffffffffffffffffffffffffff1673ffffffffffffffffffffffffffffffffffffffff168152602001908152602001600020600701547f79be667ef9dcbbac55a06295ce870b07029bfcdb2dce28d959f2815b16f817987f483ada7726a3c4655da4fbfc0e1108a8fd17b448a68554199c47d08ffb10d4b860007ffffffffffffffffffffffffffffffffffffffffffffffffffffffffefffffc2f6125ea565b8092508193505050611b1c565b611c1582612624565b611c1e82612624565b9350935050509091565b6000600160003373ffffffffffffffffffffffffffffffffffffffff1673ffffffffffffffffffffffffffffffffffffffff16815260200190815260200160002060060160009054906101000a900460ff16905090565b601260009054906101000a900473ffffffffffffffffffffffffffffffffffffffff1673ffffffffffffffffffffffffffffffffffffffff163373ffffffffffffffffffffffffffffffffffffffff1614611d0f576040517f08c379a0000000000000000000000000000000000000000000000000000000008152600401611d06906152cc565b60405180910390fd5b60116000815480929190611d2290615619565b919050555060036011541015611ed15760016011541415611e2257600754600c5411611d83576040517f08c379a0000000000000000000000000000000000000000000000000000000008152600401611d7a9061516c565b60405180910390fd5b600a546007541015611dca576040517f08c379a0000000000000000000000000000000000000000000000000000000008152600401611dc1906151ac565b60405180910390fd5b600e60115460038110611e06577f4e487b7100000000000000000000000000000000000000000000000000000000600052603260045260246000fd5b016008908054611e15906155e7565b611e209291906142bc565b505b60026011541415611ecc57600b54600d541015611e74576040517f08c379a0000000000000000000000000000000000000000000000000000000008152600401611e6b906151cc565b60405180910390fd5b600e60115460038110611eb0577f4e487b7100000000000000000000000000000000000000000000000000000000600052603260045260246000fd5b016008908054611ebf906155e7565b611eca9291906142bc565b505b611f1e565b6040518060400160405280600e81526020017f456c656374696f6e20656e64656400000000000000000000000000000000000081525060089080519060200190611f1c929190614236565b505b565b6002602052806000526040600020600091509050806000018054611f43906155e7565b80601f0160208091040260200160405190810160405280929190818152602001828054611f6f906155e7565b8015611fbc5780601f10611f9157610100808354040283529160200191611fbc565b820191906000526020600020905b815481529060010190602001808311611f9f57829003601f168201915b505050505090806001018054611fd1906155e7565b80601f0160208091040260200160405190810160405280929190818152602001828054611ffd906155e7565b801561204a5780601f1061201f5761010080835404028352916020019161204a565b820191906000526020600020905b81548152906001019060200180831161202d57829003601f168201915b50505050509080600201805461205f906155e7565b80601f016020809104026020016040519081016040528092919081815260200182805461208b906155e7565b80156120d85780601f106120ad576101008083540402835291602001916120d8565b820191906000526020600020905b8154815290600101906020018083116120bb57829003601f168201915b5050505050908060030160009054906101000a900460ff16905084565b601260009054906101000a900473ffffffffffffffffffffffffffffffffffffffff1673ffffffffffffffffffffffffffffffffffffffff163373ffffffffffffffffffffffffffffffffffffffff161415612186576040517f08c379a000000000000000000000000000000000000000000000000000000000815260040161217d9061528c565b60405180910390fd5b600033905060006121968761109e565b90506000600160008473ffffffffffffffffffffffffffffffffffffffff1673ffffffffffffffffffffffffffffffffffffffff16815260200190815260200160002090508060060160009054906101000a900460ff161561222d576040517f08c379a00000000000000000000000000000000000000000000000000000000081526004016122249061526c565b60405180910390fd5b600073ffffffffffffffffffffffffffffffffffffffff166004600084815260200190815260200160002060009054906101000a900473ffffffffffffffffffffffffffffffffffffffff1673ffffffffffffffffffffffffffffffffffffffff16146122cf576040517f08c379a00000000000000000000000000000000000000000000000000000000081526004016122c6906152ac565b60405180910390fd5b8260056000600c54815260200190815260200160002060006101000a81548173ffffffffffffffffffffffffffffffffffffffff021916908373ffffffffffffffffffffffffffffffffffffffff1602179055506040518061016001604052808381526020016000151581526020018473ffffffffffffffffffffffffffffffffffffffff168152602001888152602001878152602001868152602001858152602001600115158152602001600081526020016000151581526020016000815250600160008573ffffffffffffffffffffffffffffffffffffffff1673ffffffffffffffffffffffffffffffffffffffff1681526020019081526020016000206000820151816000015560208201518160010160006101000a81548160ff02191690831515021790555060408201518160010160016101000a81548173ffffffffffffffffffffffffffffffffffffffff021916908373ffffffffffffffffffffffffffffffffffffffff160217905550606082015181600201908051906020019061245c929190614236565b506080820151816003019080519060200190612479929190614236565b5060a0820151816004019080519060200190612496929190614236565b5060c08201518160050190805190602001906124b3929190614236565b5060e08201518160060160006101000a81548160ff02191690831515021790555061010082015181600701556101208201518160080160006101000a81548160ff0219169083151502179055506101408201518160090155905050826004600084815260200190815260200160002060006101000a81548173ffffffffffffffffffffffffffffffffffffffff021916908373ffffffffffffffffffffffffffffffffffffffff160217905550600c600081548092919061257390615619565b91905055505050505050505050565b600080600060418451146125cb576040517f08c379a00000000000000000000000000000000000000000000000000000000081526004016125c29061530c565b60405180910390fd5b6020840151925060408401519150606084015160001a90509193909250565b60008060008060006126018a8a8a60018b8b6128fa565b9250925092506126138383838961299a565b945094505050509550959350505050565b60606000600161263384612aa9565b01905060008167ffffffffffffffff811115612678577f4e487b7100000000000000000000000000000000000000000000000000000000600052604160045260246000fd5b6040519080825280601f01601f1916602001820160405280156126aa5781602001600182028036833780820191505090505b509050600082602001820190505b60011561273d578080600190039150507f3031323334353637383961626364656600000000000000000000000000000000600a86061a8153600a8581612727577f4e487b7100000000000000000000000000000000000000000000000000000000600052601260045260246000fd5b04945060008514156127385761273d565b6126b8565b819350505050919050565b600085600014806127595750818610155b806127645750846000145b8061276f5750818510155b1561277d57600090506128f1565b600082806127b4577f4e487b7100000000000000000000000000000000000000000000000000000000600052601260045260246000fd5b8687099050600083806127f0577f4e487b7100000000000000000000000000000000000000000000000000000000600052601260045260246000fd5b888580612826577f4e487b7100000000000000000000000000000000000000000000000000000000600052601260045260246000fd5b8a8b09099050600086146128a6578380612869577f4e487b7100000000000000000000000000000000000000000000000000000000600052601260045260246000fd5b848061289e577f4e487b7100000000000000000000000000000000000000000000000000000000600052601260045260246000fd5b878a09820890505b600085146128e95783806128e3577f4e487b7100000000000000000000000000000000000000000000000000000000600052601260045260246000fd5b85820890505b808214925050505b95945050505050565b6000806000808914156129155787878792509250925061298e565b60008990506000806000600190505b600084146129805760006001851614612953576129468383838f8f8f8e612ce0565b8093508194508295505050505b6002846129609190615487565b935061296f8c8c8c8c8c613c6d565b809c50819d50829e50505050612924565b828282965096509650505050505b96509650969350505050565b60008060006129a985856140fe565b9050600084806129e2577f4e487b7100000000000000000000000000000000000000000000000000000000600052601260045260246000fd5b828309905060008580612a1e577f4e487b7100000000000000000000000000000000000000000000000000000000600052601260045260246000fd5b828a09905060008680612a5a577f4e487b7100000000000000000000000000000000000000000000000000000000600052601260045260246000fd5b8780612a8f577f4e487b7100000000000000000000000000000000000000000000000000000000600052601260045260246000fd5b8486098a0990508181955095505050505094509492505050565b600080600090507a184f03e93ff9f4daa797ed6e38ed64bf6a1f0100000000000000008310612b2d577a184f03e93ff9f4daa797ed6e38ed64bf6a1f0100000000000000008381612b23577f4e487b7100000000000000000000000000000000000000000000000000000000600052601260045260246000fd5b0492506040810190505b6d04ee2d6d415b85acef81000000008310612b90576d04ee2d6d415b85acef81000000008381612b86577f4e487b7100000000000000000000000000000000000000000000000000000000600052601260045260246000fd5b0492506020810190505b662386f26fc100008310612be557662386f26fc100008381612bdb577f4e487b7100000000000000000000000000000000000000000000000000000000600052601260045260246000fd5b0492506010810190505b6305f5e1008310612c34576305f5e1008381612c2a577f4e487b7100000000000000000000000000000000000000000000000000000000600052601260045260246000fd5b0492506008810190505b6127108310612c7f576127108381612c75577f4e487b7100000000000000000000000000000000000000000000000000000000600052601260045260246000fd5b0492506004810190505b60648310612cc85760648381612cbe577f4e487b7100000000000000000000000000000000000000000000000000000000600052601260045260246000fd5b0492506002810190505b600a8310612cd7576001810190505b80915050919050565b6000806000808a148015612cf45750600089145b15612d0757868686925092509250613c60565b600087148015612d175750600086145b15612d2a57898989925092509250613c60565b612d32614349565b8480612d67577f4e487b7100000000000000000000000000000000000000000000000000000000600052601260045260246000fd5b898a0981600060048110612da4577f4e487b7100000000000000000000000000000000000000000000000000000000600052603260045260246000fd5b6020020181815250508480612de2577f4e487b7100000000000000000000000000000000000000000000000000000000600052601260045260246000fd5b81600060048110612e1c577f4e487b7100000000000000000000000000000000000000000000000000000000600052603260045260246000fd5b60200201518a0981600160048110612e5d577f4e487b7100000000000000000000000000000000000000000000000000000000600052603260045260246000fd5b6020020181815250508480612e9b577f4e487b7100000000000000000000000000000000000000000000000000000000600052601260045260246000fd5b86870981600260048110612ed8577f4e487b7100000000000000000000000000000000000000000000000000000000600052603260045260246000fd5b6020020181815250508480612f16577f4e487b7100000000000000000000000000000000000000000000000000000000600052601260045260246000fd5b81600260048110612f50577f4e487b7100000000000000000000000000000000000000000000000000000000600052603260045260246000fd5b6020020151870981600360048110612f91577f4e487b7100000000000000000000000000000000000000000000000000000000600052603260045260246000fd5b60200201818152505060405180608001604052808680612fda577f4e487b7100000000000000000000000000000000000000000000000000000000600052601260045260246000fd5b83600260048110613014577f4e487b7100000000000000000000000000000000000000000000000000000000600052603260045260246000fd5b60200201518e0981526020018680613055577f4e487b7100000000000000000000000000000000000000000000000000000000600052601260045260246000fd5b8360036004811061308f577f4e487b7100000000000000000000000000000000000000000000000000000000600052603260045260246000fd5b60200201518d09815260200186806130d0577f4e487b7100000000000000000000000000000000000000000000000000000000600052601260045260246000fd5b8360006004811061310a577f4e487b7100000000000000000000000000000000000000000000000000000000600052603260045260246000fd5b60200201518b098152602001868061314b577f4e487b7100000000000000000000000000000000000000000000000000000000600052601260045260246000fd5b83600160048110613185577f4e487b7100000000000000000000000000000000000000000000000000000000600052603260045260246000fd5b60200201518a098152509050806002600481106131cb577f4e487b7100000000000000000000000000000000000000000000000000000000600052603260045260246000fd5b60200201518160006004811061320a577f4e487b7100000000000000000000000000000000000000000000000000000000600052603260045260246000fd5b6020020151141580613298575080600360048110613251577f4e487b7100000000000000000000000000000000000000000000000000000000600052603260045260246000fd5b602002015181600160048110613290577f4e487b7100000000000000000000000000000000000000000000000000000000600052603260045260246000fd5b602002015114155b6132d7576040517f08c379a00000000000000000000000000000000000000000000000000000000081526004016132ce9061524c565b60405180910390fd5b6132df614349565b8580613314577f4e487b7100000000000000000000000000000000000000000000000000000000600052601260045260246000fd5b8260006004811061334e577f4e487b7100000000000000000000000000000000000000000000000000000000600052603260045260246000fd5b60200201518761335e9190615512565b83600260048110613398577f4e487b7100000000000000000000000000000000000000000000000000000000600052603260045260246000fd5b602002015108816000600481106133d8577f4e487b7100000000000000000000000000000000000000000000000000000000600052603260045260246000fd5b6020020181815250508580613416577f4e487b7100000000000000000000000000000000000000000000000000000000600052601260045260246000fd5b82600160048110613450577f4e487b7100000000000000000000000000000000000000000000000000000000600052603260045260246000fd5b6020020151876134609190615512565b8360036004811061349a577f4e487b7100000000000000000000000000000000000000000000000000000000600052603260045260246000fd5b602002015108816001600481106134da577f4e487b7100000000000000000000000000000000000000000000000000000000600052603260045260246000fd5b6020020181815250508580613518577f4e487b7100000000000000000000000000000000000000000000000000000000600052601260045260246000fd5b81600060048110613552577f4e487b7100000000000000000000000000000000000000000000000000000000600052603260045260246000fd5b602002015182600060048110613591577f4e487b7100000000000000000000000000000000000000000000000000000000600052603260045260246000fd5b602002015109816002600481106135d1577f4e487b7100000000000000000000000000000000000000000000000000000000600052603260045260246000fd5b602002018181525050858061360f577f4e487b7100000000000000000000000000000000000000000000000000000000600052601260045260246000fd5b81600060048110613649577f4e487b7100000000000000000000000000000000000000000000000000000000600052603260045260246000fd5b602002015182600260048110613688577f4e487b7100000000000000000000000000000000000000000000000000000000600052603260045260246000fd5b602002015109816003600481106136c8577f4e487b7100000000000000000000000000000000000000000000000000000000600052603260045260246000fd5b60200201818152505060008680613708577f4e487b7100000000000000000000000000000000000000000000000000000000600052601260045260246000fd5b82600360048110613742577f4e487b7100000000000000000000000000000000000000000000000000000000600052603260045260246000fd5b6020020151886137529190615512565b8880613787577f4e487b7100000000000000000000000000000000000000000000000000000000600052601260045260246000fd5b846001600481106137c1577f4e487b7100000000000000000000000000000000000000000000000000000000600052603260045260246000fd5b602002015185600160048110613800577f4e487b7100000000000000000000000000000000000000000000000000000000600052603260045260246000fd5b602002015109089050868061383e577f4e487b7100000000000000000000000000000000000000000000000000000000600052601260045260246000fd5b8780613873577f4e487b7100000000000000000000000000000000000000000000000000000000600052601260045260246000fd5b88806138a8577f4e487b7100000000000000000000000000000000000000000000000000000000600052601260045260246000fd5b846002600481106138e2577f4e487b7100000000000000000000000000000000000000000000000000000000600052603260045260246000fd5b602002015186600060048110613921577f4e487b7100000000000000000000000000000000000000000000000000000000600052603260045260246000fd5b602002015109600209886139359190615512565b8208905060008780613970577f4e487b7100000000000000000000000000000000000000000000000000000000600052601260045260246000fd5b88806139a5577f4e487b7100000000000000000000000000000000000000000000000000000000600052601260045260246000fd5b838a6139b19190615512565b8a806139e6577f4e487b7100000000000000000000000000000000000000000000000000000000600052601260045260246000fd5b86600260048110613a20577f4e487b7100000000000000000000000000000000000000000000000000000000600052603260045260246000fd5b602002015188600060048110613a5f577f4e487b7100000000000000000000000000000000000000000000000000000000600052603260045260246000fd5b6020020151090884600160048110613aa0577f4e487b7100000000000000000000000000000000000000000000000000000000600052603260045260246000fd5b60200201510990508780613add577f4e487b7100000000000000000000000000000000000000000000000000000000600052601260045260246000fd5b8880613b12577f4e487b7100000000000000000000000000000000000000000000000000000000600052601260045260246000fd5b84600360048110613b4c577f4e487b7100000000000000000000000000000000000000000000000000000000600052603260045260246000fd5b602002015186600160048110613b8b577f4e487b7100000000000000000000000000000000000000000000000000000000600052603260045260246000fd5b60200201510989613b9c9190615512565b8208905060008880613bd7577f4e487b7100000000000000000000000000000000000000000000000000000000600052601260045260246000fd5b8980613c0c577f4e487b7100000000000000000000000000000000000000000000000000000000600052601260045260246000fd5b8b8f0985600060048110613c49577f4e487b7100000000000000000000000000000000000000000000000000000000600052603260045260246000fd5b602002015109905082828297509750975050505050505b9750975097945050505050565b600080600080861415613c88578787879250925092506140f3565b60008480613cbf577f4e487b7100000000000000000000000000000000000000000000000000000000600052601260045260246000fd5b898a09905060008580613cfb577f4e487b7100000000000000000000000000000000000000000000000000000000600052601260045260246000fd5b898a09905060008680613d37577f4e487b7100000000000000000000000000000000000000000000000000000000600052601260045260246000fd5b898a09905060008780613d73577f4e487b7100000000000000000000000000000000000000000000000000000000600052601260045260246000fd5b8880613da8577f4e487b7100000000000000000000000000000000000000000000000000000000600052601260045260246000fd5b848e09600409905060008880613de7577f4e487b7100000000000000000000000000000000000000000000000000000000600052601260045260246000fd5b8980613e1c577f4e487b7100000000000000000000000000000000000000000000000000000000600052601260045260246000fd5b8a80613e51577f4e487b7100000000000000000000000000000000000000000000000000000000600052601260045260246000fd5b8586098c098a80613e8b577f4e487b7100000000000000000000000000000000000000000000000000000000600052601260045260246000fd5b876003090890508880613ec7577f4e487b7100000000000000000000000000000000000000000000000000000000600052601260045260246000fd5b8980613efc577f4e487b7100000000000000000000000000000000000000000000000000000000600052601260045260246000fd5b8384088a613f0a9190615512565b8a80613f3f577f4e487b7100000000000000000000000000000000000000000000000000000000600052601260045260246000fd5b8384090894508880613f7a577f4e487b7100000000000000000000000000000000000000000000000000000000600052601260045260246000fd5b8980613faf577f4e487b7100000000000000000000000000000000000000000000000000000000600052601260045260246000fd5b8a80613fe4577f4e487b7100000000000000000000000000000000000000000000000000000000600052601260045260246000fd5b8687096008098a613ff59190615512565b8a8061402a577f4e487b7100000000000000000000000000000000000000000000000000000000600052601260045260246000fd5b8b8061405f577f4e487b7100000000000000000000000000000000000000000000000000000000600052601260045260246000fd5b888d61406b9190615512565b8608840908935088806140a7577f4e487b7100000000000000000000000000000000000000000000000000000000600052601260045260246000fd5b89806140dc577f4e487b7100000000000000000000000000000000000000000000000000000000600052601260045260246000fd5b8c8e09600209925084848497509750975050505050505b955095509592505050565b60008083141580156141105750818314155b801561411d575060008214155b61415c576040517f08c379a00000000000000000000000000000000000000000000000000000000081526004016141539061532c565b60405180910390fd5b60008060019050600084905060005b6000871461422957868261417f9190615487565b90508286806141b7577f4e487b7100000000000000000000000000000000000000000000000000000000600052601260045260246000fd5b87806141ec577f4e487b7100000000000000000000000000000000000000000000000000000000600052601260045260246000fd5b858409886141fa9190615512565b8608809450819550505086878261421191906154b8565b8361421c9190615512565b809850819350505061416b565b8394505050505092915050565b828054614242906155e7565b90600052602060002090601f01602090048101928261426457600085556142ab565b82601f1061427d57805160ff19168380011785556142ab565b828001600101855582156142ab579182015b828111156142aa57825182559160200191906001019061428f565b5b5090506142b8919061436b565b5090565b8280546142c8906155e7565b90600052602060002090601f0160209004810192826142ea5760008555614338565b82601f106142fb5780548555614338565b8280016001018555821561433857600052602060002091601f016020900482015b8281111561433757825482559160010191906001019061431c565b5b509050614345919061436b565b5090565b6040518060800160405280600490602082028036833780820191505090505090565b5b8082111561438457600081600090555060010161436c565b5090565b600061439b614396846153eb565b6153ba565b9050828152602081018484840111156143b357600080fd5b6143be8482856155a5565b509392505050565b60006143d96143d48461541b565b6153ba565b9050828152602081018484840111156143f157600080fd5b6143fc8482856155a5565b509392505050565b60008135905061441381615774565b92915050565b600082601f83011261442a57600080fd5b813561443a848260208601614388565b91505092915050565b600082601f83011261445457600080fd5b81356144648482602086016143c6565b91505092915050565b60008135905061447c8161578b565b92915050565b60006020828403121561449457600080fd5b60006144a284828501614404565b91505092915050565b600080604083850312156144be57600080fd5b60006144cc85828601614404565b925050602083013567ffffffffffffffff8111156144e957600080fd5b6144f585828601614419565b9150509250929050565b60006020828403121561451157600080fd5b600082013567ffffffffffffffff81111561452b57600080fd5b61453784828501614443565b91505092915050565b6000806040838503121561455357600080fd5b600083013567ffffffffffffffff81111561456d57600080fd5b61457985828601614443565b925050602083013567ffffffffffffffff81111561459657600080fd5b6145a285828601614419565b9150509250929050565b600080604083850312156145bf57600080fd5b600083013567ffffffffffffffff8111156145d957600080fd5b6145e585828601614443565b925050602083013567ffffffffffffffff81111561460257600080fd5b61460e85828601614443565b9150509250929050565b600080600080600060a0868803121561463057600080fd5b600086013567ffffffffffffffff81111561464a57600080fd5b61465688828901614443565b955050602086013567ffffffffffffffff81111561467357600080fd5b61467f88828901614443565b945050604086013567ffffffffffffffff81111561469c57600080fd5b6146a888828901614443565b935050606086013567ffffffffffffffff8111156146c557600080fd5b6146d188828901614443565b925050608086013567ffffffffffffffff8111156146ee57600080fd5b6146fa88828901614443565b9150509295509295909350565b60006020828403121561471957600080fd5b60006147278482850161446d565b91505092915050565b60008060006060848603121561474557600080fd5b60006147538682870161446d565b935050602084013567ffffffffffffffff81111561477057600080fd5b61477c86828701614443565b925050604084013567ffffffffffffffff81111561479957600080fd5b6147a586828701614443565b9150509250925092565b600080604083850312156147c257600080fd5b60006147d08582860161446d565b92505060206147e18582860161446d565b9150509250929050565b6147f481615546565b82525050565b61480b61480682615546565b615662565b82525050565b61481a81615558565b82525050565b61482981615564565b82525050565b61484061483b82615564565b615674565b82525050565b600061485182615460565b61485b818561546b565b935061486b8185602086016155b4565b61487481615756565b840191505092915050565b600061488a82615460565b614894818561547c565b93506148a48185602086016155b4565b80840191505092915050565b600081546148bd816155e7565b6148c7818661547c565b945060018216600081146148e257600181146148f357614926565b60ff19831686528186019350614926565b6148fc8561544b565b60005b8381101561491e578154818901526001820191506020810190506148ff565b838801955050505b50505092915050565b600061493c601e8361546b565b91507f4f6e6c7920726567697374657265642075736572732063616e20766f746500006000830152602082019050919050565b600061497c600d8361546b565b91507f416c726561647920566f746564000000000000000000000000000000000000006000830152602082019050919050565b60006149bc601c8361547c565b91507f19457468657265756d205369676e6564204d6573736167653a0a3332000000006000830152601c82019050919050565b60006149fc60118361546b565b91507f486173206265656e2065786563757465640000000000000000000000000000006000830152602082019050919050565b6000614a3c60118361546b565b91507f4e6f7420456e6f75676820566f746572730000000000000000000000000000006000830152602082019050919050565b6000614a7c60168361546b565b91507f566f74657220616c7265616479207665726966696564000000000000000000006000830152602082019050919050565b6000614abc60158361546b565b91507f4e6f7420456e6f7567682043616e6469646174657300000000000000000000006000830152602082019050919050565b6000614afc60108361546b565b91507f4e6f7420456e6f75676820566f746573000000000000000000000000000000006000830152602082019050919050565b6000614b3c60128361546b565b91507f566f74696e6720696e2070726f677265737300000000000000000000000000006000830152602082019050919050565b6000614b7c60118361546b565b91507f41646d696e2043616e6e6f7420766f74650000000000000000000000000000006000830152602082019050919050565b6000614bbc602b8361546b565b91507f43616e6e6f74206164642063616e6469646174657320647572696e6720766f7460008301527f696e672070726f636573730000000000000000000000000000000000000000006020830152604082019050919050565b6000614c22601e8361546b565b91507f557365206a6163446f75626c652066756e6374696f6e20696e737465616400006000830152602082019050919050565b6000614c6260218361546b565b91507f546865207075626c6963206164647265737320616c726561647920696e20757360008301527f65000000000000000000000000000000000000000000000000000000000000006020830152604082019050919050565b6000614cc860158361546b565b91507f41646d696e2043616e6e6f7420726567697374657200000000000000000000006000830152602082019050919050565b6000614d08601a8361546b565b91507f506572736f6e616c20494420616c726561647920696e207573650000000000006000830152602082019050919050565b6000614d4860248361546b565b91507f4f6e6c792041646d696e2063616e20706572666f726d20746869732066756e6360008301527f74696f6e000000000000000000000000000000000000000000000000000000006020830152604082019050919050565b6000614dae60118361546b565b91507f696e76616c69642063616e6469646174650000000000000000000000000000006000830152602082019050919050565b6000614dee60188361546b565b91507f696e76616c6964207369676e6174757265206c656e67746800000000000000006000830152602082019050919050565b6000614e2e600e8361546b565b91507f496e76616c6964206e756d6265720000000000000000000000000000000000006000830152602082019050919050565b614e6a8161558e565b82525050565b614e81614e7c8261558e565b615690565b82525050565b614e9081615598565b82525050565b6000614ea2828461487f565b915081905092915050565b6000614eb982846148b0565b915081905092915050565b6000614ecf826149af565b9150614edb828461482f565b60208201915081905092915050565b6000614ef68287614e70565b602082019150614f068286614e70565b602082019150614f1682856147fa565b601482019150614f2682846147fa565b60148201915081905095945050505050565b6000602082019050614f4d60008301846147eb565b92915050565b6000602082019050614f686000830184614811565b92915050565b6000602082019050614f836000830184614820565b92915050565b6000608082019050614f9e6000830187614820565b614fab6020830186614e87565b614fb86040830185614820565b614fc56060830184614820565b95945050505050565b60006020820190508181036000830152614fe88184614846565b905092915050565b6000604082019050818103600083015261500a8185614846565b9050818103602083015261501e8184614846565b90509392505050565b600060808201905081810360008301526150418187614846565b905081810360208301526150558186614846565b905081810360408301526150698185614846565b90506150786060830184614811565b95945050505050565b600060e082019050818103600083015261509b818a614846565b905081810360208301526150af8189614846565b905081810360408301526150c38188614846565b905081810360608301526150d78187614846565b90506150e66080830186614811565b6150f360a0830185614811565b61510060c0830184614811565b98975050505050505050565b600060208201905081810360008301526151258161492f565b9050919050565b600060208201905081810360008301526151458161496f565b9050919050565b60006020820190508181036000830152615165816149ef565b9050919050565b6000602082019050818103600083015261518581614a2f565b9050919050565b600060208201905081810360008301526151a581614a6f565b9050919050565b600060208201905081810360008301526151c581614aaf565b9050919050565b600060208201905081810360008301526151e581614aef565b9050919050565b6000602082019050818103600083015261520581614b2f565b9050919050565b6000602082019050818103600083015261522581614b6f565b9050919050565b6000602082019050818103600083015261524581614baf565b9050919050565b6000602082019050818103600083015261526581614c15565b9050919050565b6000602082019050818103600083015261528581614c55565b9050919050565b600060208201905081810360008301526152a581614cbb565b9050919050565b600060208201905081810360008301526152c581614cfb565b9050919050565b600060208201905081810360008301526152e581614d3b565b9050919050565b6000602082019050818103600083015261530581614da1565b9050919050565b6000602082019050818103600083015261532581614de1565b9050919050565b6000602082019050818103600083015261534581614e21565b9050919050565b60006020820190506153616000830184614e61565b92915050565b600060808201905061537c6000830187614e61565b818103602083015261538e8186614846565b905081810360408301526153a28185614846565b90506153b16060830184614e61565b95945050505050565b6000604051905081810181811067ffffffffffffffff821117156153e1576153e0615727565b5b8060405250919050565b600067ffffffffffffffff82111561540657615405615727565b5b601f19601f8301169050602081019050919050565b600067ffffffffffffffff82111561543657615435615727565b5b601f19601f8301169050602081019050919050565b60008190508160005260206000209050919050565b600081519050919050565b600082825260208201905092915050565b600081905092915050565b60006154928261558e565b915061549d8361558e565b9250826154ad576154ac6156c9565b5b828204905092915050565b60006154c38261558e565b91506154ce8361558e565b9250817fffffffffffffffffffffffffffffffffffffffffffffffffffffffffffffffff04831182151516156155075761550661569a565b5b828202905092915050565b600061551d8261558e565b91506155288361558e565b92508282101561553b5761553a61569a565b5b828203905092915050565b60006155518261556e565b9050919050565b60008115159050919050565b6000819050919050565b600073ffffffffffffffffffffffffffffffffffffffff82169050919050565b6000819050919050565b600060ff82169050919050565b82818337600083830152505050565b60005b838110156155d25780820151818401526020810190506155b7565b838111156155e1576000848401525b50505050565b600060028204905060018216806155ff57607f821691505b60208210811415615613576156126156f8565b5b50919050565b60006156248261558e565b91507fffffffffffffffffffffffffffffffffffffffffffffffffffffffffffffffff8214156156575761565661569a565b5b600182019050919050565b600061566d8261567e565b9050919050565b6000819050919050565b600061568982615767565b9050919050565b6000819050919050565b7f4e487b7100000000000000000000000000000000000000000000000000000000600052601160045260246000fd5b7f4e487b7100000000000000000000000000000000000000000000000000000000600052601260045260246000fd5b7f4e487b7100000000000000000000000000000000000000000000000000000000600052602260045260246000fd5b7f4e487b7100000000000000000000000000000000000000000000000000000000600052604160045260246000fd5b6000601f19601f8301169050919050565b60008160601b9050919050565b61577d81615564565b811461578857600080fd5b50565b6157948161558e565b811461579f57600080fd5b5056fea26469706673582212202ccc0eebb8a16c714f2b4243b918f6fd8ec99a3dc2a8624d1ec3998fc982950864736f6c63430008000033",
  "immutableReferences": {},
  "source": "// SPDX-License-Identifier: MIT \r\npragma solidity  ^0.8.0;\r\nimport \"./EllipticCurve.sol\";\r\nimport \"@openzeppelin/contracts/utils/Strings.sol\";\r\n\r\n\r\n\r\ncontract Election { \r\n\r\n    struct voter {\r\n        bytes32 personal_id; //their personal id\r\n        bool hasVoted; //have they voted\r\n        address public_Address; //public address to wallet\r\n        string email; //email address for communication\r\n        string name; //name of voter \r\n        string surname; \r\n        string refNUm; \r\n        bool isRegistered;\r\n        uint256 PrivateKey;\r\n        bool  isVerifiedUser;\r\n        uint position;\r\n    }\r\n \r\n    struct votingRecords{\r\n        string ref;\r\n        string voteDate;\r\n        string voteTime;\r\n        bool isVerified;\r\n    }\r\n\r\n    \r\n\r\n\r\n     // Model a Candidate\r\n    struct Candidate {\r\n        uint id;\r\n        string name;\r\n        string party;\r\n        uint voteCount;\r\n    }\r\n    //ECC CONSTANTS - SECPTIC256\r\n    uint256 private constant GX = 0x79BE667EF9DCBBAC55A06295CE870B07029BFCDB2DCE28D959F2815B16F81798;\r\n    uint256 private constant GY = 0x483ADA7726A3C4655DA4FBFC0E1108A8FD17B448A68554199C47D08FFB10D4B8;\r\n    uint256 private constant AA = 0;\r\n    uint256 private constant BB = 7;\r\n    uint256 private constant PP = 0xFFFFFFFFFFFFFFFFFFFFFFFFFFFFFFFFFFFFFFFFFFFFFFFFFFFFFFFEFFFFFC2F;\r\n\r\n    // Read/write candidate\r\n    mapping(uint => Candidate) public candidates;\r\n\r\n    // Store accounts that have voted\r\n    mapping(address => voter) private voters;\r\n\r\n    mapping(uint => votingRecords) public votingTrails;\r\n\r\n    mapping(string => uint) private candidateToVoter;\r\n\r\n    // Stores encyrted ID'S\r\n    mapping(bytes32 => address) private verifier;\r\n    mapping(uint => address) private recorder;\r\n\r\n    mapping(bytes32 => bool) private adminSignatures; //saves history of Admin signature to curb Signature Replay Attack\r\n\r\n\r\n    // Store Candidates Count\r\n    uint public candidatesCount;\r\n\r\n    // Stores Election phase\r\n    string public phase;\r\n\r\n    uint private randomiser;\r\n\r\n    uint private minimum_candidates =2;\r\n    uint private minVotes = 2;\r\n\r\n    // Store number of voters\r\n    uint public votersCount;\r\n\r\n    //number of total votes\r\n    uint public numVotes;\r\n\r\n    string[3] phases = [\"registration\" , \"voting\", \"results\"];\r\n    uint private phasePointer;\r\n\r\n    // Admin is set once, when contract is deployed. Also saves gas fees\r\n    address private admin;\r\n\r\n    constructor(){ \r\n        admin = msg.sender; //the deployer of the contract is the admin\r\n        phase=\"Election has not started\";\r\n    } \r\n\r\n    modifier onlyAdmin(){\r\n\t\trequire(msg.sender==admin, \"Only Admin can perform this function\");\r\n\t\t_;\r\n\t}\r\n\r\n       // Add a candidate\r\n    function addCandidate (string memory _name, string memory _party) onlyAdmin public {\r\n        require(phasePointer<=0, \"Cannot add candidates during voting process\");\r\n        candidatesCount ++;\r\n        candidates[candidatesCount] = Candidate({\r\n            id: candidatesCount, \r\n            name: _name,\r\n            party: _party, \r\n            voteCount: 0\r\n            });\r\n    }\r\n\r\n\r\n     // Add a voter\r\n    function addVoter (string memory _personal_id, string memory _email, string memory _name, string memory _surname, string memory _ref) public {\r\n            require(msg.sender != admin, \"Admin Cannot register\"); //require that the user is not registered\r\n            address _pAdress = msg.sender; \r\n            bytes32 encrypt_id = keccak256_encrypt(_personal_id);  //encrypt personal id\r\n            voter storage user = voters[_pAdress];\r\n            require(!user.isRegistered, \"The public address already in use\"); //require that the user is not registered\r\n\r\n            //require that personal_id is not already in use\r\n            require(verifier[encrypt_id] == 0x0000000000000000000000000000000000000000, \"Personal ID already in use\");\r\n            recorder[votersCount] = _pAdress;\r\n            voters[_pAdress] = voter( {personal_id: encrypt_id, \r\n                            hasVoted:false, \r\n                            public_Address:_pAdress,\r\n                            email: _email, \r\n                            name:_name, \r\n                            surname: _surname, \r\n                            refNUm: _ref,\r\n                            isRegistered:true,\r\n                            PrivateKey:0,\r\n                            isVerifiedUser:false,\r\n                            position:0\r\n                    });\r\n            \r\n           \r\n            verifier[encrypt_id] = _pAdress;\r\n            votersCount ++;\r\n            \r\n    }\r\n\r\n    //get voter details to display to voter\r\n    function getVoter() public view returns(string memory, string memory, string memory, string memory, bool, bool, bool){\r\n            return(voters[msg.sender].name, voters[msg.sender].surname, voters[msg.sender].email, \r\n            voters[msg.sender].refNUm, voters[msg.sender].isRegistered, voters[msg.sender].hasVoted, voters[msg.sender].isVerifiedUser);             \r\n    }\r\n\r\n    //returns true if voter registered\r\n    function isVoter_Registered() public view returns (bool){\r\n        return voters[msg.sender].isRegistered;\r\n    }\r\n\r\n    \r\n  // https://stackoverflow.com/questions/73555009/how-to-generate-random-words-in-solidity-based-based-on-a-string-of-letters/73557284#73557284\r\n  function random() public returns (uint) {\r\n        randomiser++;\r\n        return uint (keccak256(abi.encodePacked (block.timestamp,randomiser, msg.sender, address(this))));\r\n     }\r\n\r\n     //returns true if voter registered\r\n    function has_Voted() public view returns (bool){\r\n        return voters[msg.sender].hasVoted;\r\n    }\r\n\r\n    // voting function, all accounts can vote\r\n    function vote (uint _candidateId, string memory _date, string memory _time) public {\r\n        require(msg.sender != admin, \"Admin Cannot vote\");\r\n\r\n        //must be registered to vote\r\n        require(voters[msg.sender].isRegistered, \"Only registered users can vote\");\r\n\r\n        // require that they haven't voted before\r\n        require(!voters[msg.sender].hasVoted, \"Already Voted\"); \r\n        \r\n        // require a valid candidate\r\n        require(_candidateId > 0 && _candidateId <= candidatesCount, \"invalid candidate\");\r\n\r\n        // record that voter has voted\r\n        voters[msg.sender].hasVoted = true;\r\n\r\n        // update candidate vote Count\r\n        candidates[_candidateId].voteCount ++; //add vote to candidate\r\n        candidateToVoter[voters[msg.sender].refNUm] = _candidateId;\r\n\r\n        voters[msg.sender].PrivateKey = random();  //CREATE PRIVATE KEY *****\r\n    \r\n        votingTrails[numVotes] = votingRecords({ //keep record of vote\r\n                                                ref:voters[msg.sender].refNUm,\r\n                                                voteDate:_date,\r\n                                                voteTime:_time,\r\n                                                isVerified:false\r\n                                         });\r\n        voters[msg.sender].position = numVotes; //store position of vote\r\n        numVotes++; //increase vote count\r\n        \r\n    }\r\n\r\n    //Return voter keys\r\n     function copyKeys() public view returns(string memory, string memory){\r\n            (uint256 p1, uint256 p2) = EllipticCurve.ecMul(voters[msg.sender].PrivateKey,GX,GY,AA,PP); \r\n            while(!EllipticCurve.isOnCurve(p1, p2, AA, BB, PP)){ //If points returned are not on the curve, iterate again\r\n                 (p1, p2) = EllipticCurve.ecMul(voters[msg.sender].PrivateKey,GX,GY,AA,PP); \r\n            }\r\n            return (Strings.toString(p1), Strings.toString(p2));          \r\n    }\r\n\r\n    function testEncryption() public returns(string memory, string memory){\r\n       (uint256 p1, uint256 p2) = EllipticCurve.ecMul(random(),GX,GY,AA,PP);\r\n       return (Strings.toString(p1), Strings.toString(p2));   \r\n    }\r\n \r\n    //verify vote\r\n    function verifyVote(uint _key1, uint _key2) public{\r\n    \r\n        // require that they have voted before\r\n        require(voters[msg.sender].hasVoted, \"Already Voted\");\r\n\r\n        require(!voters[msg.sender].isVerifiedUser, \"Voter already verified\");\r\n\r\n        (uint256 p1, uint256 p2) = EllipticCurve.ecMul(voters[msg.sender].PrivateKey,GX,GY,AA,PP); //creating public keys from the user address\r\n\r\n        if(p1==_key1 && _key2==p2 ){ //public keys match\r\n            votingTrails[voters[msg.sender].position].isVerified = true;\r\n            voters[msg.sender].isVerifiedUser = true;\r\n        }\r\n    }\r\n\r\n    // start election\r\n    function startElection() onlyAdmin public {\r\n            require(phasePointer!=1 && phasePointer!=2, \"Voting in progress\");\r\n            phasePointer = 0;\r\n            phase = phases[phasePointer]; //contract is deployed in the registration phase\r\n    \r\n    }\r\n\r\n    //change election phase\r\n    function changePhase() onlyAdmin public {\r\n        phasePointer++;\r\n        if (phasePointer <3) {\r\n            if(phasePointer == 1){ //from registration to voting\r\n                require(votersCount>candidatesCount, \"Not Enough Voters\"); //3 VOTES, 2 CANDIDATES\r\n                require(candidatesCount>=minimum_candidates, \"Not Enough Candidates\"); //MINIMUM OF 2 CANDIDATES\r\n                phase = phases[phasePointer];\r\n            }\r\n             if(phasePointer == 2){ //from voting to results\r\n                require(numVotes>=minVotes, \"Not Enough Votes\"); //MINIMUM OF 2 VOTES\r\n                phase = phases[phasePointer];\r\n            }            \r\n        } else {\r\n            phase = \"Election ended\";\r\n        }\r\n\r\n    }\r\n\r\n\r\n    //hash function\r\n    function keccak256_encrypt(string memory text) public pure returns (bytes32) {\r\n        return keccak256(abi.encode(text));\r\n    }\r\n\r\n    function getWinner() public view returns(string memory) {\r\n        uint winner = 1;\r\n        uint voterS = candidates[1].voteCount;\r\n        for (uint index = 2; index <=  candidatesCount; index++) {\r\n            if(candidates[index].voteCount > voterS){\r\n                winner = index;\r\n                voterS = candidates[index].voteCount;\r\n                }\r\n        }\r\n        return (candidates[winner].name);\r\n\r\n    }\r\n\r\n\r\n    //<----------------------------------- Verifies signed message -------------------------------->\r\n    function verify (string memory _message, bytes memory _sig) public onlyAdmin returns (bool) {\r\n        bytes32 hash_SMS = getHash(_message);\r\n        require(!adminSignatures[hash_SMS], \"Has been executed\"); //must be a new signature\r\n        bytes32 ethSignedMessageHash = getEthSignedHash(hash_SMS);\r\n        adminSignatures[hash_SMS] = true;\r\n        if (recover(ethSignedMessageHash, _sig) == admin){return true;}\r\n        return false;\r\n    }\r\n    \r\n    //turns string to hash\r\n    function getHash (string memory sms) public pure returns (bytes32){\r\n        return keccak256(abi.encodePacked(sms));\r\n    }\r\n\r\n\r\n    function getEthSignedHash (bytes32 sms) public pure returns (bytes32){\r\n        return keccak256(abi.encodePacked(\"\\x19Ethereum Signed Message:\\n32\", sms));\r\n    }\r\n\r\n\r\n    //recover account of original signer of message\r\n    function recover(bytes32 _ethSignedMessageHash, bytes memory _sig) public pure returns (address){\r\n            (bytes32 r, bytes32 s, uint8 v) = _split(_sig); //split signature into params\r\n            return ecrecover(_ethSignedMessageHash, v, r, s); //returns the address of the signer given the signed message\r\n    }\r\n\r\n    function _split(bytes memory _sig) internal pure returns (bytes32 r, bytes32 s, uint8 v){\r\n            require(_sig.length == 65, \"invalid signature length\");\r\n\r\n            assembly {\r\n                r := mload(add(_sig, 32))  //skip first 32-byetes as they hold the length\r\n                s := mload(add(_sig, 64))\r\n                v := byte(0, mload(add(_sig, 96)))\r\n\r\n            }\r\n    }\r\n\r\n    //<----------------------------------- ECC CRYPTOGRAPHY -------------------------------->\r\n\r\n}",
  "sourcePath": "C:\\Users\\Student\\Downloads\\BEV-cryptography\\Code\\contracts\\Election.sol",
  "compiler": {
    "name": "solc",
    "version": "0.8.0+commit.c7dfd78e.Emscripten.clang"
  },
  "schemaVersion": "3.4.16",
  "updatedAt": "2023-10-25T21:09:05.796Z",
  "networkType": "ethereum",
  "devdoc": {
    "kind": "dev",
    "methods": {},
    "version": 1
  },
  "userdoc": {
    "kind": "user",
    "methods": {},
    "version": 1
  }
}