{
  "contractName": "Election",
  "abi": [
    {
      "inputs": [],
      "stateMutability": "nonpayable",
      "type": "constructor"
    },
    {
      "inputs": [
        {
          "internalType": "uint256",
          "name": "",
          "type": "uint256"
        }
      ],
      "name": "candidates",
      "outputs": [
        {
          "internalType": "uint256",
          "name": "id",
          "type": "uint256"
        },
        {
          "internalType": "string",
          "name": "name",
          "type": "string"
        },
        {
          "internalType": "string",
          "name": "party",
          "type": "string"
        },
        {
          "internalType": "uint256",
          "name": "voteCount",
          "type": "uint256"
        }
      ],
      "stateMutability": "view",
      "type": "function",
      "constant": true
    },
    {
      "inputs": [],
      "name": "candidatesCount",
      "outputs": [
        {
          "internalType": "uint256",
          "name": "",
          "type": "uint256"
        }
      ],
      "stateMutability": "view",
      "type": "function",
      "constant": true
    },
    {
      "inputs": [],
      "name": "numVotes",
      "outputs": [
        {
          "internalType": "uint256",
          "name": "",
          "type": "uint256"
        }
      ],
      "stateMutability": "view",
      "type": "function",
      "constant": true
    },
    {
      "inputs": [],
      "name": "phase",
      "outputs": [
        {
          "internalType": "string",
          "name": "",
          "type": "string"
        }
      ],
      "stateMutability": "view",
      "type": "function",
      "constant": true
    },
    {
      "inputs": [],
      "name": "votersCount",
      "outputs": [
        {
          "internalType": "uint256",
          "name": "",
          "type": "uint256"
        }
      ],
      "stateMutability": "view",
      "type": "function",
      "constant": true
    },
    {
      "inputs": [
        {
          "internalType": "uint256",
          "name": "",
          "type": "uint256"
        }
      ],
      "name": "votingTrails",
      "outputs": [
        {
          "internalType": "string",
          "name": "ref",
          "type": "string"
        },
        {
          "internalType": "string",
          "name": "voteDate",
          "type": "string"
        },
        {
          "internalType": "string",
          "name": "voteTime",
          "type": "string"
        },
        {
          "internalType": "bool",
          "name": "isVerified",
          "type": "bool"
        }
      ],
      "stateMutability": "view",
      "type": "function",
      "constant": true
    },
    {
      "inputs": [
        {
          "internalType": "string",
          "name": "_name",
          "type": "string"
        },
        {
          "internalType": "string",
          "name": "_party",
          "type": "string"
        }
      ],
      "name": "addCandidate",
      "outputs": [],
      "stateMutability": "nonpayable",
      "type": "function"
    },
    {
      "inputs": [
        {
          "internalType": "string",
          "name": "_personal_id",
          "type": "string"
        },
        {
          "internalType": "string",
          "name": "_email",
          "type": "string"
        },
        {
          "internalType": "string",
          "name": "_name",
          "type": "string"
        },
        {
          "internalType": "string",
          "name": "_surname",
          "type": "string"
        },
        {
          "internalType": "string",
          "name": "_ref",
          "type": "string"
        }
      ],
      "name": "addVoter",
      "outputs": [],
      "stateMutability": "nonpayable",
      "type": "function"
    },
    {
      "inputs": [],
      "name": "getVoter",
      "outputs": [
        {
          "internalType": "string",
          "name": "",
          "type": "string"
        },
        {
          "internalType": "string",
          "name": "",
          "type": "string"
        },
        {
          "internalType": "string",
          "name": "",
          "type": "string"
        },
        {
          "internalType": "string",
          "name": "",
          "type": "string"
        },
        {
          "internalType": "bool",
          "name": "",
          "type": "bool"
        },
        {
          "internalType": "bool",
          "name": "",
          "type": "bool"
        },
        {
          "internalType": "bool",
          "name": "",
          "type": "bool"
        }
      ],
      "stateMutability": "view",
      "type": "function",
      "constant": true
    },
    {
      "inputs": [],
      "name": "isVoter_Registered",
      "outputs": [
        {
          "internalType": "bool",
          "name": "",
          "type": "bool"
        }
      ],
      "stateMutability": "view",
      "type": "function",
      "constant": true
    },
    {
      "inputs": [],
      "name": "random",
      "outputs": [
        {
          "internalType": "uint256",
          "name": "",
          "type": "uint256"
        }
      ],
      "stateMutability": "nonpayable",
      "type": "function"
    },
    {
      "inputs": [],
      "name": "has_Voted",
      "outputs": [
        {
          "internalType": "bool",
          "name": "",
          "type": "bool"
        }
      ],
      "stateMutability": "view",
      "type": "function",
      "constant": true
    },
    {
      "inputs": [
        {
          "internalType": "uint256",
          "name": "_candidateId",
          "type": "uint256"
        },
        {
          "internalType": "string",
          "name": "_date",
          "type": "string"
        },
        {
          "internalType": "string",
          "name": "_time",
          "type": "string"
        }
      ],
      "name": "vote",
      "outputs": [],
      "stateMutability": "nonpayable",
      "type": "function"
    },
    {
      "inputs": [],
      "name": "copyKeys",
      "outputs": [
        {
          "internalType": "string",
          "name": "",
          "type": "string"
        },
        {
          "internalType": "string",
          "name": "",
          "type": "string"
        }
      ],
      "stateMutability": "view",
      "type": "function",
      "constant": true
    },
    {
      "inputs": [
        {
          "internalType": "uint256",
          "name": "_key1",
          "type": "uint256"
        },
        {
          "internalType": "uint256",
          "name": "_key2",
          "type": "uint256"
        }
      ],
      "name": "verifyVote",
      "outputs": [],
      "stateMutability": "nonpayable",
      "type": "function"
    },
    {
      "inputs": [],
      "name": "startElection",
      "outputs": [],
      "stateMutability": "nonpayable",
      "type": "function"
    },
    {
      "inputs": [],
      "name": "changePhase",
      "outputs": [],
      "stateMutability": "nonpayable",
      "type": "function"
    },
    {
      "inputs": [
        {
          "internalType": "string",
          "name": "text",
          "type": "string"
        }
      ],
      "name": "keccak256_encrypt",
      "outputs": [
        {
          "internalType": "bytes32",
          "name": "",
          "type": "bytes32"
        }
      ],
      "stateMutability": "pure",
      "type": "function",
      "constant": true
    },
    {
      "inputs": [],
      "name": "getWinner",
      "outputs": [
        {
          "internalType": "string",
          "name": "",
          "type": "string"
        }
      ],
      "stateMutability": "view",
      "type": "function",
      "constant": true
    },
    {
      "inputs": [
        {
          "internalType": "string",
          "name": "_message",
          "type": "string"
        },
        {
          "internalType": "bytes",
          "name": "_sig",
          "type": "bytes"
        }
      ],
      "name": "verify",
      "outputs": [
        {
          "internalType": "bool",
          "name": "",
          "type": "bool"
        }
      ],
      "stateMutability": "nonpayable",
      "type": "function"
    },
    {
      "inputs": [
        {
          "internalType": "string",
          "name": "sms",
          "type": "string"
        }
      ],
      "name": "getHash",
      "outputs": [
        {
          "internalType": "bytes32",
          "name": "",
          "type": "bytes32"
        }
      ],
      "stateMutability": "pure",
      "type": "function",
      "constant": true
    },
    {
      "inputs": [
        {
          "internalType": "bytes32",
          "name": "sms",
          "type": "bytes32"
        }
      ],
      "name": "getEthSignedHash",
      "outputs": [
        {
          "internalType": "bytes32",
          "name": "",
          "type": "bytes32"
        }
      ],
      "stateMutability": "pure",
      "type": "function",
      "constant": true
    },
    {
      "inputs": [
        {
          "internalType": "bytes32",
          "name": "_ethSignedMessageHash",
          "type": "bytes32"
        },
        {
          "internalType": "bytes",
          "name": "_sig",
          "type": "bytes"
        }
      ],
      "name": "recover",
      "outputs": [
        {
          "internalType": "address",
          "name": "",
          "type": "address"
        }
      ],
      "stateMutability": "pure",
      "type": "function",
      "constant": true
    }
  ],
  "bytecode": "0x60806040526002600a556002600b5560405180606001604052806040518060400160405280600c81526020017f726567697374726174696f6e000000000000000000000000000000000000000081525081526020016040518060400160405280600681526020017f766f74696e67000000000000000000000000000000000000000000000000000081525081526020016040518060400160405280600781526020017f726573756c747300000000000000000000000000000000000000000000000000815250815250600e906003620000da9291906200017e565b50348015620000e857600080fd5b5033601260006101000a81548173ffffffffffffffffffffffffffffffffffffffff021916908373ffffffffffffffffffffffffffffffffffffffff1602179055506040518060400160405280601881526020017f456c656374696f6e20686173206e6f74207374617274656400000000000000008152506008908051906020019062000177929190620001d8565b506200035b565b8260038101928215620001c5579160200282015b82811115620001c4578251829080519060200190620001b3929190620001d8565b509160200191906001019062000192565b5b509050620001d4919062000269565b5090565b828054620001e690620002f6565b90600052602060002090601f0160209004810192826200020a576000855562000256565b82601f106200022557805160ff191683800117855562000256565b8280016001018555821562000256579182015b828111156200025557825182559160200191906001019062000238565b5b50905062000265919062000291565b5090565b5b808211156200028d5760008181620002839190620002b0565b506001016200026a565b5090565b5b80821115620002ac57600081600090555060010162000292565b5090565b508054620002be90620002f6565b6000825580601f10620002d25750620002f3565b601f016020900490600052602060002090810190620002f2919062000291565b5b50565b600060028204905060018216806200030f57607f821691505b602082108114156200032657620003256200032c565b5b50919050565b7f4e487b7100000000000000000000000000000000000000000000000000000000600052602260045260246000fd5b615713806200036b6000396000f3fe608060405234801561001057600080fd5b506004361061014d5760003560e01c806362d73eb8116100c3578063b1c9fe6e1161007c578063b1c9fe6e146103ab578063d0a6a870146103c9578063d25773b7146103e8578063db6f595314610406578063e3c0327d14610410578063f731d0e9146104435761014d565b806362d73eb81461030d5780638e7ea5b21461031757806398b8b43d1461033557806398c0793814610353578063a3bef4d714610371578063b10847591461038f5761014d565b80632f4ea5ea116101155780632f4ea5ea146101fc5780633477ee2e1461022c5780633d9ffad51461025f5780633fee76dc1461028f5780635b6beeb9146102bf5780635ec01e4d146102ef5761014d565b806319045a2514610152578063216f6a6e1461018257806326541b561461019e5780632b37f53c146101ba5780632d35a8a2146101de575b600080fd5b61016c600480360381019061016791906143e6565b61045f565b6040516101799190614e73565b60405180910390f35b61019c600480360381019061019791906146ea565b6104ce565b005b6101b860048036038101906101b391906144e7565b610789565b005b6101c2610904565b6040516101d59796959493929190614fbc565b60405180910390f35b6101e6610d4e565b6040516101f39190615287565b60405180910390f35b610216600480360381019061021191906143bd565b610d54565b6040516102239190614ea9565b60405180910390f35b61024660048036038101906102419190614642565b610d84565b60405161025694939291906152a2565b60405180910390f35b6102796004803603810190610274919061447b565b610ec4565b6040516102869190614e8e565b60405180910390f35b6102a960048036038101906102a4919061443a565b611074565b6040516102b69190614ea9565b60405180910390f35b6102d960048036038101906102d4919061443a565b6110a4565b6040516102e69190614ea9565b60405180910390f35b6102f76110d4565b6040516103049190615287565b60405180910390f35b610315611125565b005b61031f61126b565b60405161032c9190614f09565b60405180910390f35b61033d611390565b60405161034a9190614e8e565b60405180910390f35b61035b6113e7565b6040516103689190615287565b60405180910390f35b6103796113ed565b6040516103869190615287565b60405180910390f35b6103a960048036038101906103a4919061466b565b6113f3565b005b6103b361190e565b6040516103c09190614f09565b60405180910390f35b6103d161199c565b6040516103df929190614f2b565b60405180910390f35b6103f0611b63565b6040516103fd9190614e8e565b60405180910390f35b61040e611bba565b005b61042a60048036038101906104259190614642565b611e5b565b60405161043a9493929190614f62565b60405180910390f35b61045d60048036038101906104589190614553565b612030565b005b60008060008061046e856124bd565b925092509250600186828585604051600081526020016040526040516104979493929190614ec4565b6020604051602081039080840390855afa1580156104b9573d6000803e3d6000fd5b50505060206040510351935050505092915050565b600160003373ffffffffffffffffffffffffffffffffffffffff1673ffffffffffffffffffffffffffffffffffffffff16815260200190815260200160002060010160009054906101000a900460ff1661055d576040517f08c379a000000000000000000000000000000000000000000000000000000000815260040161055490615067565b60405180910390fd5b600160003373ffffffffffffffffffffffffffffffffffffffff1673ffffffffffffffffffffffffffffffffffffffff16815260200190815260200160002060080160009054906101000a900460ff16156105ed576040517f08c379a00000000000000000000000000000000000000000000000000000000081526004016105e4906150c7565b60405180910390fd5b6000806106a0600160003373ffffffffffffffffffffffffffffffffffffffff1673ffffffffffffffffffffffffffffffffffffffff168152602001908152602001600020600701547f79be667ef9dcbbac55a06295ce870b07029bfcdb2dce28d959f2815b16f817987f483ada7726a3c4655da4fbfc0e1108a8fd17b448a68554199c47d08ffb10d4b860007ffffffffffffffffffffffffffffffffffffffffffffffffffffffffefffffc2f612525565b9150915083821480156106b257508083145b1561078357600160026000600160003373ffffffffffffffffffffffffffffffffffffffff1673ffffffffffffffffffffffffffffffffffffffff16815260200190815260200160002060090154815260200190815260200160002060030160006101000a81548160ff02191690831515021790555060018060003373ffffffffffffffffffffffffffffffffffffffff1673ffffffffffffffffffffffffffffffffffffffff16815260200190815260200160002060080160006101000a81548160ff0219169083151502179055505b50505050565b601260009054906101000a900473ffffffffffffffffffffffffffffffffffffffff1673ffffffffffffffffffffffffffffffffffffffff163373ffffffffffffffffffffffffffffffffffffffff1614610819576040517f08c379a000000000000000000000000000000000000000000000000000000000815260040161081090615207565b60405180910390fd5b6000601154111561085f576040517f08c379a000000000000000000000000000000000000000000000000000000000815260040161085690615167565b60405180910390fd5b6007600081548092919061087290615554565b919050555060405180608001604052806007548152602001838152602001828152602001600081525060008060075481526020019081526020016000206000820151816000015560208201518160010190805190602001906108d5929190614171565b5060408201518160020190805190602001906108f2929190614171565b50606082015181600301559050505050565b6060806060806000806000600160003373ffffffffffffffffffffffffffffffffffffffff1673ffffffffffffffffffffffffffffffffffffffff168152602001908152602001600020600301600160003373ffffffffffffffffffffffffffffffffffffffff1673ffffffffffffffffffffffffffffffffffffffff168152602001908152602001600020600401600160003373ffffffffffffffffffffffffffffffffffffffff1673ffffffffffffffffffffffffffffffffffffffff168152602001908152602001600020600201600160003373ffffffffffffffffffffffffffffffffffffffff1673ffffffffffffffffffffffffffffffffffffffff168152602001908152602001600020600501600160003373ffffffffffffffffffffffffffffffffffffffff1673ffffffffffffffffffffffffffffffffffffffff16815260200190815260200160002060060160009054906101000a900460ff16600160003373ffffffffffffffffffffffffffffffffffffffff1673ffffffffffffffffffffffffffffffffffffffff16815260200190815260200160002060010160009054906101000a900460ff16600160003373ffffffffffffffffffffffffffffffffffffffff1673ffffffffffffffffffffffffffffffffffffffff16815260200190815260200160002060080160009054906101000a900460ff16868054610b1390615522565b80601f0160208091040260200160405190810160405280929190818152602001828054610b3f90615522565b8015610b8c5780601f10610b6157610100808354040283529160200191610b8c565b820191906000526020600020905b815481529060010190602001808311610b6f57829003601f168201915b50505050509650858054610b9f90615522565b80601f0160208091040260200160405190810160405280929190818152602001828054610bcb90615522565b8015610c185780601f10610bed57610100808354040283529160200191610c18565b820191906000526020600020905b815481529060010190602001808311610bfb57829003601f168201915b50505050509550848054610c2b90615522565b80601f0160208091040260200160405190810160405280929190818152602001828054610c5790615522565b8015610ca45780601f10610c7957610100808354040283529160200191610ca4565b820191906000526020600020905b815481529060010190602001808311610c8757829003601f168201915b50505050509450838054610cb790615522565b80601f0160208091040260200160405190810160405280929190818152602001828054610ce390615522565b8015610d305780601f10610d0557610100808354040283529160200191610d30565b820191906000526020600020905b815481529060010190602001808311610d1357829003601f168201915b50505050509350965096509650965096509650965090919293949596565b60075481565b600081604051602001610d679190614dff565b604051602081830303815290604052805190602001209050919050565b6000602052806000526040600020600091509050806000015490806001018054610dad90615522565b80601f0160208091040260200160405190810160405280929190818152602001828054610dd990615522565b8015610e265780601f10610dfb57610100808354040283529160200191610e26565b820191906000526020600020905b815481529060010190602001808311610e0957829003601f168201915b505050505090806002018054610e3b90615522565b80601f0160208091040260200160405190810160405280929190818152602001828054610e6790615522565b8015610eb45780601f10610e8957610100808354040283529160200191610eb4565b820191906000526020600020905b815481529060010190602001808311610e9757829003601f168201915b5050505050908060030154905084565b6000601260009054906101000a900473ffffffffffffffffffffffffffffffffffffffff1673ffffffffffffffffffffffffffffffffffffffff163373ffffffffffffffffffffffffffffffffffffffff1614610f56576040517f08c379a0000000000000000000000000000000000000000000000000000000008152600401610f4d90615207565b60405180910390fd5b6000610f61846110a4565b90506006600082815260200190815260200160002060009054906101000a900460ff1615610fc4576040517f08c379a0000000000000000000000000000000000000000000000000000000008152600401610fbb90615087565b60405180910390fd5b6000610fcf82610d54565b905060016006600084815260200190815260200160002060006101000a81548160ff021916908315150217905550601260009054906101000a900473ffffffffffffffffffffffffffffffffffffffff1673ffffffffffffffffffffffffffffffffffffffff16611040828661045f565b73ffffffffffffffffffffffffffffffffffffffff1614156110675760019250505061106e565b6000925050505b92915050565b6000816040516020016110879190614f09565b604051602081830303815290604052805190602001209050919050565b6000816040516020016110b79190614dd1565b604051602081830303815290604052805190602001209050919050565b6000600960008154809291906110e990615554565b91905055504260095433306040516020016111079493929190614e25565b6040516020818303038152906040528051906020012060001c905090565b601260009054906101000a900473ffffffffffffffffffffffffffffffffffffffff1673ffffffffffffffffffffffffffffffffffffffff163373ffffffffffffffffffffffffffffffffffffffff16146111b5576040517f08c379a00000000000000000000000000000000000000000000000000000000081526004016111ac90615207565b60405180910390fd5b6001601154141580156111cb5750600260115414155b61120a576040517f08c379a000000000000000000000000000000000000000000000000000000000815260040161120190615127565b60405180910390fd5b6000601181905550600e6011546003811061124e577f4e487b7100000000000000000000000000000000000000000000000000000000600052603260045260246000fd5b01600890805461125d90615522565b6112689291906141f7565b50565b60606000600190506000806000600181526020019081526020016000206003015490506000600290505b60075481116112ea57816000808381526020019081526020016000206003015411156112d7578092506000808281526020019081526020016000206003015491505b80806112e290615554565b915050611295565b50600080838152602001908152602001600020600101805461130b90615522565b80601f016020809104026020016040519081016040528092919081815260200182805461133790615522565b80156113845780601f1061135957610100808354040283529160200191611384565b820191906000526020600020905b81548152906001019060200180831161136757829003601f168201915b50505050509250505090565b6000600160003373ffffffffffffffffffffffffffffffffffffffff1673ffffffffffffffffffffffffffffffffffffffff16815260200190815260200160002060010160009054906101000a900460ff16905090565b600c5481565b600d5481565b601260009054906101000a900473ffffffffffffffffffffffffffffffffffffffff1673ffffffffffffffffffffffffffffffffffffffff163373ffffffffffffffffffffffffffffffffffffffff161415611484576040517f08c379a000000000000000000000000000000000000000000000000000000000815260040161147b90615147565b60405180910390fd5b600160003373ffffffffffffffffffffffffffffffffffffffff1673ffffffffffffffffffffffffffffffffffffffff16815260200190815260200160002060060160009054906101000a900460ff16611513576040517f08c379a000000000000000000000000000000000000000000000000000000000815260040161150a90615047565b60405180910390fd5b600160003373ffffffffffffffffffffffffffffffffffffffff1673ffffffffffffffffffffffffffffffffffffffff16815260200190815260200160002060010160009054906101000a900460ff16156115a3576040517f08c379a000000000000000000000000000000000000000000000000000000000815260040161159a90615067565b60405180910390fd5b6000831180156115b557506007548311155b6115f4576040517f08c379a00000000000000000000000000000000000000000000000000000000081526004016115eb90615227565b60405180910390fd5b60018060003373ffffffffffffffffffffffffffffffffffffffff1673ffffffffffffffffffffffffffffffffffffffff16815260200190815260200160002060010160006101000a81548160ff021916908315150217905550600080848152602001908152602001600020600301600081548092919061167490615554565b9190505550826003600160003373ffffffffffffffffffffffffffffffffffffffff1673ffffffffffffffffffffffffffffffffffffffff1681526020019081526020016000206005016040516116cb9190614de8565b9081526020016040518091039020819055506116e56110d4565b600160003373ffffffffffffffffffffffffffffffffffffffff1673ffffffffffffffffffffffffffffffffffffffff168152602001908152602001600020600701819055506040518060800160405280600160003373ffffffffffffffffffffffffffffffffffffffff1673ffffffffffffffffffffffffffffffffffffffff168152602001908152602001600020600501805461178390615522565b80601f01602080910402602001604051908101604052809291908181526020018280546117af90615522565b80156117fc5780601f106117d1576101008083540402835291602001916117fc565b820191906000526020600020905b8154815290600101906020018083116117df57829003601f168201915b505050505081526020018381526020018281526020016000151581525060026000600d548152602001908152602001600020600082015181600001908051906020019061184a929190614171565b506020820151816001019080519060200190611867929190614171565b506040820151816002019080519060200190611884929190614171565b5060608201518160030160006101000a81548160ff021916908315150217905550905050600d54600160003373ffffffffffffffffffffffffffffffffffffffff1673ffffffffffffffffffffffffffffffffffffffff16815260200190815260200160002060090181905550600d600081548092919061190490615554565b9190505550505050565b6008805461191b90615522565b80601f016020809104026020016040519081016040528092919081815260200182805461194790615522565b80156119945780601f1061196957610100808354040283529160200191611994565b820191906000526020600020905b81548152906001019060200180831161197757829003601f168201915b505050505081565b606080600080611a52600160003373ffffffffffffffffffffffffffffffffffffffff1673ffffffffffffffffffffffffffffffffffffffff168152602001908152602001600020600701547f79be667ef9dcbbac55a06295ce870b07029bfcdb2dce28d959f2815b16f817987f483ada7726a3c4655da4fbfc0e1108a8fd17b448a68554199c47d08ffb10d4b860007ffffffffffffffffffffffffffffffffffffffffffffffffffffffffefffffc2f612525565b915091505b611a868282600060077ffffffffffffffffffffffffffffffffffffffffffffffffffffffffefffffc2f61255f565b611b4757611b3a600160003373ffffffffffffffffffffffffffffffffffffffff1673ffffffffffffffffffffffffffffffffffffffff168152602001908152602001600020600701547f79be667ef9dcbbac55a06295ce870b07029bfcdb2dce28d959f2815b16f817987f483ada7726a3c4655da4fbfc0e1108a8fd17b448a68554199c47d08ffb10d4b860007ffffffffffffffffffffffffffffffffffffffffffffffffffffffffefffffc2f612525565b8092508193505050611a57565b611b5082612711565b611b5982612711565b9350935050509091565b6000600160003373ffffffffffffffffffffffffffffffffffffffff1673ffffffffffffffffffffffffffffffffffffffff16815260200190815260200160002060060160009054906101000a900460ff16905090565b601260009054906101000a900473ffffffffffffffffffffffffffffffffffffffff1673ffffffffffffffffffffffffffffffffffffffff163373ffffffffffffffffffffffffffffffffffffffff1614611c4a576040517f08c379a0000000000000000000000000000000000000000000000000000000008152600401611c4190615207565b60405180910390fd5b60116000815480929190611c5d90615554565b919050555060036011541015611e0c5760016011541415611d5d57600754600c5411611cbe576040517f08c379a0000000000000000000000000000000000000000000000000000000008152600401611cb5906150a7565b60405180910390fd5b600a546007541015611d05576040517f08c379a0000000000000000000000000000000000000000000000000000000008152600401611cfc906150e7565b60405180910390fd5b600e60115460038110611d41577f4e487b7100000000000000000000000000000000000000000000000000000000600052603260045260246000fd5b016008908054611d5090615522565b611d5b9291906141f7565b505b60026011541415611e0757600b54600d541015611daf576040517f08c379a0000000000000000000000000000000000000000000000000000000008152600401611da690615107565b60405180910390fd5b600e60115460038110611deb577f4e487b7100000000000000000000000000000000000000000000000000000000600052603260045260246000fd5b016008908054611dfa90615522565b611e059291906141f7565b505b611e59565b6040518060400160405280600e81526020017f456c656374696f6e20656e64656400000000000000000000000000000000000081525060089080519060200190611e57929190614171565b505b565b6002602052806000526040600020600091509050806000018054611e7e90615522565b80601f0160208091040260200160405190810160405280929190818152602001828054611eaa90615522565b8015611ef75780601f10611ecc57610100808354040283529160200191611ef7565b820191906000526020600020905b815481529060010190602001808311611eda57829003601f168201915b505050505090806001018054611f0c90615522565b80601f0160208091040260200160405190810160405280929190818152602001828054611f3890615522565b8015611f855780601f10611f5a57610100808354040283529160200191611f85565b820191906000526020600020905b815481529060010190602001808311611f6857829003601f168201915b505050505090806002018054611f9a90615522565b80601f0160208091040260200160405190810160405280929190818152602001828054611fc690615522565b80156120135780601f10611fe857610100808354040283529160200191612013565b820191906000526020600020905b815481529060010190602001808311611ff657829003601f168201915b5050505050908060030160009054906101000a900460ff16905084565b601260009054906101000a900473ffffffffffffffffffffffffffffffffffffffff1673ffffffffffffffffffffffffffffffffffffffff163373ffffffffffffffffffffffffffffffffffffffff1614156120c1576040517f08c379a00000000000000000000000000000000000000000000000000000000081526004016120b8906151c7565b60405180910390fd5b600033905060006120d187611074565b90506000600160008473ffffffffffffffffffffffffffffffffffffffff1673ffffffffffffffffffffffffffffffffffffffff16815260200190815260200160002090508060060160009054906101000a900460ff1615612168576040517f08c379a000000000000000000000000000000000000000000000000000000000815260040161215f906151a7565b60405180910390fd5b600073ffffffffffffffffffffffffffffffffffffffff166004600084815260200190815260200160002060009054906101000a900473ffffffffffffffffffffffffffffffffffffffff1673ffffffffffffffffffffffffffffffffffffffff161461220a576040517f08c379a0000000000000000000000000000000000000000000000000000000008152600401612201906151e7565b60405180910390fd5b8260056000600c54815260200190815260200160002060006101000a81548173ffffffffffffffffffffffffffffffffffffffff021916908373ffffffffffffffffffffffffffffffffffffffff1602179055506040518061016001604052808381526020016000151581526020018473ffffffffffffffffffffffffffffffffffffffff168152602001888152602001878152602001868152602001858152602001600115158152602001600081526020016000151581526020016000815250600160008573ffffffffffffffffffffffffffffffffffffffff1673ffffffffffffffffffffffffffffffffffffffff1681526020019081526020016000206000820151816000015560208201518160010160006101000a81548160ff02191690831515021790555060408201518160010160016101000a81548173ffffffffffffffffffffffffffffffffffffffff021916908373ffffffffffffffffffffffffffffffffffffffff1602179055506060820151816002019080519060200190612397929190614171565b5060808201518160030190805190602001906123b4929190614171565b5060a08201518160040190805190602001906123d1929190614171565b5060c08201518160050190805190602001906123ee929190614171565b5060e08201518160060160006101000a81548160ff02191690831515021790555061010082015181600701556101208201518160080160006101000a81548160ff0219169083151502179055506101408201518160090155905050826004600084815260200190815260200160002060006101000a81548173ffffffffffffffffffffffffffffffffffffffff021916908373ffffffffffffffffffffffffffffffffffffffff160217905550600c60008154809291906124ae90615554565b91905055505050505050505050565b60008060006041845114612506576040517f08c379a00000000000000000000000000000000000000000000000000000000081526004016124fd90615247565b60405180910390fd5b6020840151925060408401519150606084015160001a90509193909250565b600080600080600061253c8a8a8a60018b8b612835565b92509250925061254e838383896128d5565b945094505050509550959350505050565b600085600014806125705750818610155b8061257b5750846000145b806125865750818510155b156125945760009050612708565b600082806125cb577f4e487b7100000000000000000000000000000000000000000000000000000000600052601260045260246000fd5b868709905060008380612607577f4e487b7100000000000000000000000000000000000000000000000000000000600052601260045260246000fd5b88858061263d577f4e487b7100000000000000000000000000000000000000000000000000000000600052601260045260246000fd5b8a8b09099050600086146126bd578380612680577f4e487b7100000000000000000000000000000000000000000000000000000000600052601260045260246000fd5b84806126b5577f4e487b7100000000000000000000000000000000000000000000000000000000600052601260045260246000fd5b878a09820890505b600085146127005783806126fa577f4e487b7100000000000000000000000000000000000000000000000000000000600052601260045260246000fd5b85820890505b808214925050505b95945050505050565b606060006001612720846129e4565b01905060008167ffffffffffffffff811115612765577f4e487b7100000000000000000000000000000000000000000000000000000000600052604160045260246000fd5b6040519080825280601f01601f1916602001820160405280156127975781602001600182028036833780820191505090505b509050600082602001820190505b60011561282a578080600190039150507f3031323334353637383961626364656600000000000000000000000000000000600a86061a8153600a8581612814577f4e487b7100000000000000000000000000000000000000000000000000000000600052601260045260246000fd5b04945060008514156128255761282a565b6127a5565b819350505050919050565b600080600080891415612850578787879250925092506128c9565b60008990506000806000600190505b600084146128bb576000600185161461288e576128818383838f8f8f8e612c1b565b8093508194508295505050505b60028461289b91906153c2565b93506128aa8c8c8c8c8c613ba8565b809c50819d50829e5050505061285f565b828282965096509650505050505b96509650969350505050565b60008060006128e48585614039565b90506000848061291d577f4e487b7100000000000000000000000000000000000000000000000000000000600052601260045260246000fd5b828309905060008580612959577f4e487b7100000000000000000000000000000000000000000000000000000000600052601260045260246000fd5b828a09905060008680612995577f4e487b7100000000000000000000000000000000000000000000000000000000600052601260045260246000fd5b87806129ca577f4e487b7100000000000000000000000000000000000000000000000000000000600052601260045260246000fd5b8486098a0990508181955095505050505094509492505050565b600080600090507a184f03e93ff9f4daa797ed6e38ed64bf6a1f0100000000000000008310612a68577a184f03e93ff9f4daa797ed6e38ed64bf6a1f0100000000000000008381612a5e577f4e487b7100000000000000000000000000000000000000000000000000000000600052601260045260246000fd5b0492506040810190505b6d04ee2d6d415b85acef81000000008310612acb576d04ee2d6d415b85acef81000000008381612ac1577f4e487b7100000000000000000000000000000000000000000000000000000000600052601260045260246000fd5b0492506020810190505b662386f26fc100008310612b2057662386f26fc100008381612b16577f4e487b7100000000000000000000000000000000000000000000000000000000600052601260045260246000fd5b0492506010810190505b6305f5e1008310612b6f576305f5e1008381612b65577f4e487b7100000000000000000000000000000000000000000000000000000000600052601260045260246000fd5b0492506008810190505b6127108310612bba576127108381612bb0577f4e487b7100000000000000000000000000000000000000000000000000000000600052601260045260246000fd5b0492506004810190505b60648310612c035760648381612bf9577f4e487b7100000000000000000000000000000000000000000000000000000000600052601260045260246000fd5b0492506002810190505b600a8310612c12576001810190505b80915050919050565b6000806000808a148015612c2f5750600089145b15612c4257868686925092509250613b9b565b600087148015612c525750600086145b15612c6557898989925092509250613b9b565b612c6d614284565b8480612ca2577f4e487b7100000000000000000000000000000000000000000000000000000000600052601260045260246000fd5b898a0981600060048110612cdf577f4e487b7100000000000000000000000000000000000000000000000000000000600052603260045260246000fd5b6020020181815250508480612d1d577f4e487b7100000000000000000000000000000000000000000000000000000000600052601260045260246000fd5b81600060048110612d57577f4e487b7100000000000000000000000000000000000000000000000000000000600052603260045260246000fd5b60200201518a0981600160048110612d98577f4e487b7100000000000000000000000000000000000000000000000000000000600052603260045260246000fd5b6020020181815250508480612dd6577f4e487b7100000000000000000000000000000000000000000000000000000000600052601260045260246000fd5b86870981600260048110612e13577f4e487b7100000000000000000000000000000000000000000000000000000000600052603260045260246000fd5b6020020181815250508480612e51577f4e487b7100000000000000000000000000000000000000000000000000000000600052601260045260246000fd5b81600260048110612e8b577f4e487b7100000000000000000000000000000000000000000000000000000000600052603260045260246000fd5b6020020151870981600360048110612ecc577f4e487b7100000000000000000000000000000000000000000000000000000000600052603260045260246000fd5b60200201818152505060405180608001604052808680612f15577f4e487b7100000000000000000000000000000000000000000000000000000000600052601260045260246000fd5b83600260048110612f4f577f4e487b7100000000000000000000000000000000000000000000000000000000600052603260045260246000fd5b60200201518e0981526020018680612f90577f4e487b7100000000000000000000000000000000000000000000000000000000600052601260045260246000fd5b83600360048110612fca577f4e487b7100000000000000000000000000000000000000000000000000000000600052603260045260246000fd5b60200201518d098152602001868061300b577f4e487b7100000000000000000000000000000000000000000000000000000000600052601260045260246000fd5b83600060048110613045577f4e487b7100000000000000000000000000000000000000000000000000000000600052603260045260246000fd5b60200201518b0981526020018680613086577f4e487b7100000000000000000000000000000000000000000000000000000000600052601260045260246000fd5b836001600481106130c0577f4e487b7100000000000000000000000000000000000000000000000000000000600052603260045260246000fd5b60200201518a09815250905080600260048110613106577f4e487b7100000000000000000000000000000000000000000000000000000000600052603260045260246000fd5b602002015181600060048110613145577f4e487b7100000000000000000000000000000000000000000000000000000000600052603260045260246000fd5b60200201511415806131d357508060036004811061318c577f4e487b7100000000000000000000000000000000000000000000000000000000600052603260045260246000fd5b6020020151816001600481106131cb577f4e487b7100000000000000000000000000000000000000000000000000000000600052603260045260246000fd5b602002015114155b613212576040517f08c379a000000000000000000000000000000000000000000000000000000000815260040161320990615187565b60405180910390fd5b61321a614284565b858061324f577f4e487b7100000000000000000000000000000000000000000000000000000000600052601260045260246000fd5b82600060048110613289577f4e487b7100000000000000000000000000000000000000000000000000000000600052603260045260246000fd5b602002015187613299919061544d565b836002600481106132d3577f4e487b7100000000000000000000000000000000000000000000000000000000600052603260045260246000fd5b60200201510881600060048110613313577f4e487b7100000000000000000000000000000000000000000000000000000000600052603260045260246000fd5b6020020181815250508580613351577f4e487b7100000000000000000000000000000000000000000000000000000000600052601260045260246000fd5b8260016004811061338b577f4e487b7100000000000000000000000000000000000000000000000000000000600052603260045260246000fd5b60200201518761339b919061544d565b836003600481106133d5577f4e487b7100000000000000000000000000000000000000000000000000000000600052603260045260246000fd5b60200201510881600160048110613415577f4e487b7100000000000000000000000000000000000000000000000000000000600052603260045260246000fd5b6020020181815250508580613453577f4e487b7100000000000000000000000000000000000000000000000000000000600052601260045260246000fd5b8160006004811061348d577f4e487b7100000000000000000000000000000000000000000000000000000000600052603260045260246000fd5b6020020151826000600481106134cc577f4e487b7100000000000000000000000000000000000000000000000000000000600052603260045260246000fd5b6020020151098160026004811061350c577f4e487b7100000000000000000000000000000000000000000000000000000000600052603260045260246000fd5b602002018181525050858061354a577f4e487b7100000000000000000000000000000000000000000000000000000000600052601260045260246000fd5b81600060048110613584577f4e487b7100000000000000000000000000000000000000000000000000000000600052603260045260246000fd5b6020020151826002600481106135c3577f4e487b7100000000000000000000000000000000000000000000000000000000600052603260045260246000fd5b60200201510981600360048110613603577f4e487b7100000000000000000000000000000000000000000000000000000000600052603260045260246000fd5b60200201818152505060008680613643577f4e487b7100000000000000000000000000000000000000000000000000000000600052601260045260246000fd5b8260036004811061367d577f4e487b7100000000000000000000000000000000000000000000000000000000600052603260045260246000fd5b60200201518861368d919061544d565b88806136c2577f4e487b7100000000000000000000000000000000000000000000000000000000600052601260045260246000fd5b846001600481106136fc577f4e487b7100000000000000000000000000000000000000000000000000000000600052603260045260246000fd5b60200201518560016004811061373b577f4e487b7100000000000000000000000000000000000000000000000000000000600052603260045260246000fd5b6020020151090890508680613779577f4e487b7100000000000000000000000000000000000000000000000000000000600052601260045260246000fd5b87806137ae577f4e487b7100000000000000000000000000000000000000000000000000000000600052601260045260246000fd5b88806137e3577f4e487b7100000000000000000000000000000000000000000000000000000000600052601260045260246000fd5b8460026004811061381d577f4e487b7100000000000000000000000000000000000000000000000000000000600052603260045260246000fd5b60200201518660006004811061385c577f4e487b7100000000000000000000000000000000000000000000000000000000600052603260045260246000fd5b60200201510960020988613870919061544d565b82089050600087806138ab577f4e487b7100000000000000000000000000000000000000000000000000000000600052601260045260246000fd5b88806138e0577f4e487b7100000000000000000000000000000000000000000000000000000000600052601260045260246000fd5b838a6138ec919061544d565b8a80613921577f4e487b7100000000000000000000000000000000000000000000000000000000600052601260045260246000fd5b8660026004811061395b577f4e487b7100000000000000000000000000000000000000000000000000000000600052603260045260246000fd5b60200201518860006004811061399a577f4e487b7100000000000000000000000000000000000000000000000000000000600052603260045260246000fd5b60200201510908846001600481106139db577f4e487b7100000000000000000000000000000000000000000000000000000000600052603260045260246000fd5b60200201510990508780613a18577f4e487b7100000000000000000000000000000000000000000000000000000000600052601260045260246000fd5b8880613a4d577f4e487b7100000000000000000000000000000000000000000000000000000000600052601260045260246000fd5b84600360048110613a87577f4e487b7100000000000000000000000000000000000000000000000000000000600052603260045260246000fd5b602002015186600160048110613ac6577f4e487b7100000000000000000000000000000000000000000000000000000000600052603260045260246000fd5b60200201510989613ad7919061544d565b8208905060008880613b12577f4e487b7100000000000000000000000000000000000000000000000000000000600052601260045260246000fd5b8980613b47577f4e487b7100000000000000000000000000000000000000000000000000000000600052601260045260246000fd5b8b8f0985600060048110613b84577f4e487b7100000000000000000000000000000000000000000000000000000000600052603260045260246000fd5b602002015109905082828297509750975050505050505b9750975097945050505050565b600080600080861415613bc35787878792509250925061402e565b60008480613bfa577f4e487b7100000000000000000000000000000000000000000000000000000000600052601260045260246000fd5b898a09905060008580613c36577f4e487b7100000000000000000000000000000000000000000000000000000000600052601260045260246000fd5b898a09905060008680613c72577f4e487b7100000000000000000000000000000000000000000000000000000000600052601260045260246000fd5b898a09905060008780613cae577f4e487b7100000000000000000000000000000000000000000000000000000000600052601260045260246000fd5b8880613ce3577f4e487b7100000000000000000000000000000000000000000000000000000000600052601260045260246000fd5b848e09600409905060008880613d22577f4e487b7100000000000000000000000000000000000000000000000000000000600052601260045260246000fd5b8980613d57577f4e487b7100000000000000000000000000000000000000000000000000000000600052601260045260246000fd5b8a80613d8c577f4e487b7100000000000000000000000000000000000000000000000000000000600052601260045260246000fd5b8586098c098a80613dc6577f4e487b7100000000000000000000000000000000000000000000000000000000600052601260045260246000fd5b876003090890508880613e02577f4e487b7100000000000000000000000000000000000000000000000000000000600052601260045260246000fd5b8980613e37577f4e487b7100000000000000000000000000000000000000000000000000000000600052601260045260246000fd5b8384088a613e45919061544d565b8a80613e7a577f4e487b7100000000000000000000000000000000000000000000000000000000600052601260045260246000fd5b8384090894508880613eb5577f4e487b7100000000000000000000000000000000000000000000000000000000600052601260045260246000fd5b8980613eea577f4e487b7100000000000000000000000000000000000000000000000000000000600052601260045260246000fd5b8a80613f1f577f4e487b7100000000000000000000000000000000000000000000000000000000600052601260045260246000fd5b8687096008098a613f30919061544d565b8a80613f65577f4e487b7100000000000000000000000000000000000000000000000000000000600052601260045260246000fd5b8b80613f9a577f4e487b7100000000000000000000000000000000000000000000000000000000600052601260045260246000fd5b888d613fa6919061544d565b860884090893508880613fe2577f4e487b7100000000000000000000000000000000000000000000000000000000600052601260045260246000fd5b8980614017577f4e487b7100000000000000000000000000000000000000000000000000000000600052601260045260246000fd5b8c8e09600209925084848497509750975050505050505b955095509592505050565b600080831415801561404b5750818314155b8015614058575060008214155b614097576040517f08c379a000000000000000000000000000000000000000000000000000000000815260040161408e90615267565b60405180910390fd5b60008060019050600084905060005b600087146141645786826140ba91906153c2565b90508286806140f2577f4e487b7100000000000000000000000000000000000000000000000000000000600052601260045260246000fd5b8780614127577f4e487b7100000000000000000000000000000000000000000000000000000000600052601260045260246000fd5b85840988614135919061544d565b8608809450819550505086878261414c91906153f3565b83614157919061544d565b80985081935050506140a6565b8394505050505092915050565b82805461417d90615522565b90600052602060002090601f01602090048101928261419f57600085556141e6565b82601f106141b857805160ff19168380011785556141e6565b828001600101855582156141e6579182015b828111156141e55782518255916020019190600101906141ca565b5b5090506141f391906142a6565b5090565b82805461420390615522565b90600052602060002090601f0160209004810192826142255760008555614273565b82601f106142365780548555614273565b8280016001018555821561427357600052602060002091601f016020900482015b82811115614272578254825591600101919060010190614257565b5b50905061428091906142a6565b5090565b6040518060800160405280600490602082028036833780820191505090505090565b5b808211156142bf5760008160009055506001016142a7565b5090565b60006142d66142d184615326565b6152f5565b9050828152602081018484840111156142ee57600080fd5b6142f98482856154e0565b509392505050565b600061431461430f84615356565b6152f5565b90508281526020810184848401111561432c57600080fd5b6143378482856154e0565b509392505050565b60008135905061434e816156af565b92915050565b600082601f83011261436557600080fd5b81356143758482602086016142c3565b91505092915050565b600082601f83011261438f57600080fd5b813561439f848260208601614301565b91505092915050565b6000813590506143b7816156c6565b92915050565b6000602082840312156143cf57600080fd5b60006143dd8482850161433f565b91505092915050565b600080604083850312156143f957600080fd5b60006144078582860161433f565b925050602083013567ffffffffffffffff81111561442457600080fd5b61443085828601614354565b9150509250929050565b60006020828403121561444c57600080fd5b600082013567ffffffffffffffff81111561446657600080fd5b6144728482850161437e565b91505092915050565b6000806040838503121561448e57600080fd5b600083013567ffffffffffffffff8111156144a857600080fd5b6144b48582860161437e565b925050602083013567ffffffffffffffff8111156144d157600080fd5b6144dd85828601614354565b9150509250929050565b600080604083850312156144fa57600080fd5b600083013567ffffffffffffffff81111561451457600080fd5b6145208582860161437e565b925050602083013567ffffffffffffffff81111561453d57600080fd5b6145498582860161437e565b9150509250929050565b600080600080600060a0868803121561456b57600080fd5b600086013567ffffffffffffffff81111561458557600080fd5b6145918882890161437e565b955050602086013567ffffffffffffffff8111156145ae57600080fd5b6145ba8882890161437e565b945050604086013567ffffffffffffffff8111156145d757600080fd5b6145e38882890161437e565b935050606086013567ffffffffffffffff81111561460057600080fd5b61460c8882890161437e565b925050608086013567ffffffffffffffff81111561462957600080fd5b6146358882890161437e565b9150509295509295909350565b60006020828403121561465457600080fd5b6000614662848285016143a8565b91505092915050565b60008060006060848603121561468057600080fd5b600061468e868287016143a8565b935050602084013567ffffffffffffffff8111156146ab57600080fd5b6146b78682870161437e565b925050604084013567ffffffffffffffff8111156146d457600080fd5b6146e08682870161437e565b9150509250925092565b600080604083850312156146fd57600080fd5b600061470b858286016143a8565b925050602061471c858286016143a8565b9150509250929050565b61472f81615481565b82525050565b61474661474182615481565b61559d565b82525050565b61475581615493565b82525050565b6147648161549f565b82525050565b61477b6147768261549f565b6155af565b82525050565b600061478c8261539b565b61479681856153a6565b93506147a68185602086016154ef565b6147af81615691565b840191505092915050565b60006147c58261539b565b6147cf81856153b7565b93506147df8185602086016154ef565b80840191505092915050565b600081546147f881615522565b61480281866153b7565b9450600182166000811461481d576001811461482e57614861565b60ff19831686528186019350614861565b61483785615386565b60005b838110156148595781548189015260018201915060208101905061483a565b838801955050505b50505092915050565b6000614877601e836153a6565b91507f4f6e6c7920726567697374657265642075736572732063616e20766f746500006000830152602082019050919050565b60006148b7600d836153a6565b91507f416c726561647920566f746564000000000000000000000000000000000000006000830152602082019050919050565b60006148f7601c836153b7565b91507f19457468657265756d205369676e6564204d6573736167653a0a3332000000006000830152601c82019050919050565b60006149376011836153a6565b91507f486173206265656e2065786563757465640000000000000000000000000000006000830152602082019050919050565b60006149776011836153a6565b91507f4e6f7420456e6f75676820566f746572730000000000000000000000000000006000830152602082019050919050565b60006149b76016836153a6565b91507f566f74657220616c7265616479207665726966696564000000000000000000006000830152602082019050919050565b60006149f76015836153a6565b91507f4e6f7420456e6f7567682043616e6469646174657300000000000000000000006000830152602082019050919050565b6000614a376010836153a6565b91507f4e6f7420456e6f75676820566f746573000000000000000000000000000000006000830152602082019050919050565b6000614a776012836153a6565b91507f566f74696e6720696e2070726f677265737300000000000000000000000000006000830152602082019050919050565b6000614ab76011836153a6565b91507f41646d696e2043616e6e6f7420766f74650000000000000000000000000000006000830152602082019050919050565b6000614af7602b836153a6565b91507f43616e6e6f74206164642063616e6469646174657320647572696e6720766f7460008301527f696e672070726f636573730000000000000000000000000000000000000000006020830152604082019050919050565b6000614b5d601e836153a6565b91507f557365206a6163446f75626c652066756e6374696f6e20696e737465616400006000830152602082019050919050565b6000614b9d6021836153a6565b91507f546865207075626c6963206164647265737320616c726561647920696e20757360008301527f65000000000000000000000000000000000000000000000000000000000000006020830152604082019050919050565b6000614c036015836153a6565b91507f41646d696e2043616e6e6f7420726567697374657200000000000000000000006000830152602082019050919050565b6000614c43601a836153a6565b91507f506572736f6e616c20494420616c726561647920696e207573650000000000006000830152602082019050919050565b6000614c836024836153a6565b91507f4f6e6c792041646d696e2063616e20706572666f726d20746869732066756e6360008301527f74696f6e000000000000000000000000000000000000000000000000000000006020830152604082019050919050565b6000614ce96011836153a6565b91507f696e76616c69642063616e6469646174650000000000000000000000000000006000830152602082019050919050565b6000614d296018836153a6565b91507f696e76616c6964207369676e6174757265206c656e67746800000000000000006000830152602082019050919050565b6000614d69600e836153a6565b91507f496e76616c6964206e756d6265720000000000000000000000000000000000006000830152602082019050919050565b614da5816154c9565b82525050565b614dbc614db7826154c9565b6155cb565b82525050565b614dcb816154d3565b82525050565b6000614ddd82846147ba565b915081905092915050565b6000614df482846147eb565b915081905092915050565b6000614e0a826148ea565b9150614e16828461476a565b60208201915081905092915050565b6000614e318287614dab565b602082019150614e418286614dab565b602082019150614e518285614735565b601482019150614e618284614735565b60148201915081905095945050505050565b6000602082019050614e886000830184614726565b92915050565b6000602082019050614ea3600083018461474c565b92915050565b6000602082019050614ebe600083018461475b565b92915050565b6000608082019050614ed9600083018761475b565b614ee66020830186614dc2565b614ef3604083018561475b565b614f00606083018461475b565b95945050505050565b60006020820190508181036000830152614f238184614781565b905092915050565b60006040820190508181036000830152614f458185614781565b90508181036020830152614f598184614781565b90509392505050565b60006080820190508181036000830152614f7c8187614781565b90508181036020830152614f908186614781565b90508181036040830152614fa48185614781565b9050614fb3606083018461474c565b95945050505050565b600060e0820190508181036000830152614fd6818a614781565b90508181036020830152614fea8189614781565b90508181036040830152614ffe8188614781565b905081810360608301526150128187614781565b9050615021608083018661474c565b61502e60a083018561474c565b61503b60c083018461474c565b98975050505050505050565b600060208201905081810360008301526150608161486a565b9050919050565b60006020820190508181036000830152615080816148aa565b9050919050565b600060208201905081810360008301526150a08161492a565b9050919050565b600060208201905081810360008301526150c08161496a565b9050919050565b600060208201905081810360008301526150e0816149aa565b9050919050565b60006020820190508181036000830152615100816149ea565b9050919050565b6000602082019050818103600083015261512081614a2a565b9050919050565b6000602082019050818103600083015261514081614a6a565b9050919050565b6000602082019050818103600083015261516081614aaa565b9050919050565b6000602082019050818103600083015261518081614aea565b9050919050565b600060208201905081810360008301526151a081614b50565b9050919050565b600060208201905081810360008301526151c081614b90565b9050919050565b600060208201905081810360008301526151e081614bf6565b9050919050565b6000602082019050818103600083015261520081614c36565b9050919050565b6000602082019050818103600083015261522081614c76565b9050919050565b6000602082019050818103600083015261524081614cdc565b9050919050565b6000602082019050818103600083015261526081614d1c565b9050919050565b6000602082019050818103600083015261528081614d5c565b9050919050565b600060208201905061529c6000830184614d9c565b92915050565b60006080820190506152b76000830187614d9c565b81810360208301526152c98186614781565b905081810360408301526152dd8185614781565b90506152ec6060830184614d9c565b95945050505050565b6000604051905081810181811067ffffffffffffffff8211171561531c5761531b615662565b5b8060405250919050565b600067ffffffffffffffff82111561534157615340615662565b5b601f19601f8301169050602081019050919050565b600067ffffffffffffffff82111561537157615370615662565b5b601f19601f8301169050602081019050919050565b60008190508160005260206000209050919050565b600081519050919050565b600082825260208201905092915050565b600081905092915050565b60006153cd826154c9565b91506153d8836154c9565b9250826153e8576153e7615604565b5b828204905092915050565b60006153fe826154c9565b9150615409836154c9565b9250817fffffffffffffffffffffffffffffffffffffffffffffffffffffffffffffffff0483118215151615615442576154416155d5565b5b828202905092915050565b6000615458826154c9565b9150615463836154c9565b925082821015615476576154756155d5565b5b828203905092915050565b600061548c826154a9565b9050919050565b60008115159050919050565b6000819050919050565b600073ffffffffffffffffffffffffffffffffffffffff82169050919050565b6000819050919050565b600060ff82169050919050565b82818337600083830152505050565b60005b8381101561550d5780820151818401526020810190506154f2565b8381111561551c576000848401525b50505050565b6000600282049050600182168061553a57607f821691505b6020821081141561554e5761554d615633565b5b50919050565b600061555f826154c9565b91507fffffffffffffffffffffffffffffffffffffffffffffffffffffffffffffffff821415615592576155916155d5565b5b600182019050919050565b60006155a8826155b9565b9050919050565b6000819050919050565b60006155c4826156a2565b9050919050565b6000819050919050565b7f4e487b7100000000000000000000000000000000000000000000000000000000600052601160045260246000fd5b7f4e487b7100000000000000000000000000000000000000000000000000000000600052601260045260246000fd5b7f4e487b7100000000000000000000000000000000000000000000000000000000600052602260045260246000fd5b7f4e487b7100000000000000000000000000000000000000000000000000000000600052604160045260246000fd5b6000601f19601f8301169050919050565b60008160601b9050919050565b6156b88161549f565b81146156c357600080fd5b50565b6156cf816154c9565b81146156da57600080fd5b5056fea2646970667358221220bba369b02c6b282d44b84b3dd896334cad37c7d8d47a8aa057e1aef79d788c3964736f6c63430008000033",
  "immutableReferences": {},
  "source": "// SPDX-License-Identifier: MIT \r\npragma solidity  ^0.8.0;\r\nimport \"./EllipticCurve.sol\";\r\nimport \"@openzeppelin/contracts/utils/Strings.sol\";\r\n\r\n\r\n\r\ncontract Election { \r\n\r\n    struct voter {\r\n        bytes32 personal_id; //their personal id\r\n        bool hasVoted; //have they voted\r\n        address public_Address; //public address to wallet\r\n        string email; //email address for communication\r\n        string name; //name of voter \r\n        string surname; \r\n        string refNUm; \r\n        bool isRegistered;\r\n        uint256 PrivateKey;\r\n        bool  isVerifiedUser;\r\n        uint position;\r\n    }\r\n \r\n    struct votingRecords{\r\n        string ref;\r\n        string voteDate;\r\n        string voteTime;\r\n        bool isVerified;\r\n    }\r\n\r\n    \r\n\r\n\r\n     // Model a Candidate\r\n    struct Candidate {\r\n        uint id;\r\n        string name;\r\n        string party;\r\n        uint voteCount;\r\n    }\r\n    //ECC CONSTANTS - SECPTIC256\r\n    uint256 private constant GX = 0x79BE667EF9DCBBAC55A06295CE870B07029BFCDB2DCE28D959F2815B16F81798;\r\n    uint256 private constant GY = 0x483ADA7726A3C4655DA4FBFC0E1108A8FD17B448A68554199C47D08FFB10D4B8;\r\n    uint256 private constant AA = 0;\r\n    uint256 private constant BB = 7;\r\n    uint256 private constant PP = 0xFFFFFFFFFFFFFFFFFFFFFFFFFFFFFFFFFFFFFFFFFFFFFFFFFFFFFFFEFFFFFC2F;\r\n\r\n    // Read/write candidate\r\n    mapping(uint => Candidate) public candidates; //maps and id to a candidate\r\n\r\n    // Store accounts that have voted\r\n    mapping(address => voter) private voters; //maps addreess to a voter profile\r\n\r\n    mapping(uint => votingRecords) public votingTrails; //Audit trail\r\n\r\n    mapping(string => uint) private candidateToVoter; //stores mapping of user references to candidateID\r\n\r\n    // Stores encyrted ID'S\r\n    mapping(bytes32 => address) private verifier; \r\n    mapping(uint => address) private recorder;\r\n\r\n    mapping(bytes32 => bool) private adminSignatures; //saves history of Admin signature to curb Signature Replay Attack\r\n\r\n\r\n    // Store Candidates Count\r\n    uint public candidatesCount;\r\n\r\n    // Stores Election phase\r\n    string public phase;\r\n\r\n    uint private randomiser; //randomiser for rabdom number generation\r\n\r\n    uint private minimum_candidates =2;\r\n    uint private minVotes = 2;\r\n\r\n    // Store number of voters\r\n    uint public votersCount;\r\n\r\n    //number of total votes\r\n    uint public numVotes;\r\n\r\n    string[3] phases = [\"registration\" , \"voting\", \"results\"];\r\n    uint private phasePointer;\r\n\r\n    // Admin is set once, when contract is deployed. Also saves gas fees\r\n    address private admin;\r\n\r\n    constructor(){ \r\n        admin = msg.sender; //the deployer of the contract is the admin\r\n        phase=\"Election has not started\";\r\n    } \r\n\r\n    // only admin modifier\r\n    modifier onlyAdmin(){\r\n\t\trequire(msg.sender==admin, \"Only Admin can perform this function\");\r\n\t\t_;\r\n\t}\r\n\r\n       // Add a candidate\r\n    function addCandidate (string memory _name, string memory _party) onlyAdmin public {\r\n        require(phasePointer<=0, \"Cannot add candidates during voting process\");\r\n        candidatesCount ++;\r\n        candidates[candidatesCount] = Candidate({\r\n            id: candidatesCount, \r\n            name: _name,\r\n            party: _party, \r\n            voteCount: 0\r\n            });\r\n    }\r\n\r\n\r\n     // Add a voter\r\n    function addVoter (string memory _personal_id, string memory _email, string memory _name, string memory _surname, string memory _ref) public {\r\n            require(msg.sender != admin, \"Admin Cannot register\"); //require that the user is not registered\r\n            address _pAdress = msg.sender; \r\n            bytes32 encrypt_id = keccak256_encrypt(_personal_id);  //encrypt personal id\r\n            voter storage user = voters[_pAdress];\r\n            require(!user.isRegistered, \"The public address already in use\"); //require that the user is not registered\r\n\r\n            //require that personal_id is not already in use\r\n            require(verifier[encrypt_id] == 0x0000000000000000000000000000000000000000, \"Personal ID already in use\");\r\n            recorder[votersCount] = _pAdress;\r\n            voters[_pAdress] = voter( {personal_id: encrypt_id, \r\n                            hasVoted:false, \r\n                            public_Address:_pAdress,\r\n                            email: _email, \r\n                            name:_name, \r\n                            surname: _surname, \r\n                            refNUm: _ref,\r\n                            isRegistered:true,\r\n                            PrivateKey:0,\r\n                            isVerifiedUser:false,\r\n                            position:0\r\n                    });\r\n            \r\n           \r\n            verifier[encrypt_id] = _pAdress;\r\n            votersCount ++;\r\n            \r\n    }\r\n\r\n    //get voter details to display to voter\r\n    function getVoter() public view returns(string memory, string memory, string memory, string memory, bool, bool, bool){\r\n            return(voters[msg.sender].name, voters[msg.sender].surname, voters[msg.sender].email, \r\n            voters[msg.sender].refNUm, voters[msg.sender].isRegistered, voters[msg.sender].hasVoted, voters[msg.sender].isVerifiedUser);             \r\n    }\r\n\r\n    //returns true if voter registered\r\n    function isVoter_Registered() public view returns (bool){\r\n        return voters[msg.sender].isRegistered;\r\n    }\r\n\r\n    \r\n  // https://stackoverflow.com/questions/73555009/how-to-generate-random-words-in-solidity-based-based-on-a-string-of-letters/73557284#73557284\r\n  function random() public returns (uint) {\r\n        randomiser++;\r\n        return uint (keccak256(abi.encodePacked (block.timestamp,randomiser, msg.sender, address(this))));\r\n     }\r\n\r\n     //returns true if voter registered\r\n    function has_Voted() public view returns (bool){\r\n        return voters[msg.sender].hasVoted;\r\n    }\r\n\r\n    // voting function, all accounts can vote\r\n    function vote (uint _candidateId, string memory _date, string memory _time) public {\r\n        require(msg.sender != admin, \"Admin Cannot vote\");\r\n\r\n        //must be registered to vote\r\n        require(voters[msg.sender].isRegistered, \"Only registered users can vote\");\r\n\r\n        // require that they haven't voted before\r\n        require(!voters[msg.sender].hasVoted, \"Already Voted\"); \r\n        \r\n        // require a valid candidate\r\n        require(_candidateId > 0 && _candidateId <= candidatesCount, \"invalid candidate\");\r\n\r\n        // record that voter has voted\r\n        voters[msg.sender].hasVoted = true;\r\n\r\n        // update candidate vote Count\r\n        candidates[_candidateId].voteCount ++; //add vote to candidate\r\n        candidateToVoter[voters[msg.sender].refNUm] = _candidateId;\r\n\r\n        voters[msg.sender].PrivateKey = random();  //CREATE PRIVATE KEY *****\r\n    \r\n        votingTrails[numVotes] = votingRecords({ //keep record of vote\r\n                                                ref:voters[msg.sender].refNUm,\r\n                                                voteDate:_date,\r\n                                                voteTime:_time,\r\n                                                isVerified:false\r\n                                         });\r\n        voters[msg.sender].position = numVotes; //store position of vote\r\n        numVotes++; //increase vote count\r\n        \r\n    }\r\n\r\n    //Return voter keys\r\n     function copyKeys() public view returns(string memory, string memory){\r\n            (uint256 p1, uint256 p2) = EllipticCurve.ecMul(voters[msg.sender].PrivateKey,GX,GY,AA,PP); \r\n            while(!EllipticCurve.isOnCurve(p1, p2, AA, BB, PP)){ //If points returned are not on the curve, iterate again\r\n                 (p1, p2) = EllipticCurve.ecMul(voters[msg.sender].PrivateKey,GX,GY,AA,PP); \r\n            }\r\n            return (Strings.toString(p1), Strings.toString(p2));          \r\n    }\r\n\r\n \r\n    //verify vote\r\n    function verifyVote(uint _key1, uint _key2) public{\r\n    \r\n        // require that they have voted before\r\n        require(voters[msg.sender].hasVoted, \"Already Voted\");\r\n\r\n        require(!voters[msg.sender].isVerifiedUser, \"Voter already verified\");\r\n\r\n        (uint256 p1, uint256 p2) = EllipticCurve.ecMul(voters[msg.sender].PrivateKey,GX,GY,AA,PP); //creating public keys from the user address\r\n\r\n        if(p1==_key1 && _key2==p2 ){ //public keys match\r\n            votingTrails[voters[msg.sender].position].isVerified = true;\r\n            voters[msg.sender].isVerifiedUser = true;\r\n        }\r\n    }\r\n\r\n    // start election\r\n    function startElection() onlyAdmin public {\r\n            require(phasePointer!=1 && phasePointer!=2, \"Voting in progress\");\r\n            phasePointer = 0;\r\n            phase = phases[phasePointer]; //contract is deployed in the registration phase\r\n    \r\n    }\r\n\r\n    //change election phase\r\n    function changePhase() onlyAdmin public {\r\n        phasePointer++;\r\n        if (phasePointer <3) {\r\n            if(phasePointer == 1){ //from registration to voting\r\n                require(votersCount>candidatesCount, \"Not Enough Voters\"); //3 VOTES, 2 CANDIDATES\r\n                require(candidatesCount>=minimum_candidates, \"Not Enough Candidates\"); //MINIMUM OF 2 CANDIDATES\r\n                phase = phases[phasePointer];\r\n            }\r\n             if(phasePointer == 2){ //from voting to results\r\n                require(numVotes>=minVotes, \"Not Enough Votes\"); //MINIMUM OF 2 VOTES\r\n                phase = phases[phasePointer];\r\n            }            \r\n        } else {\r\n            phase = \"Election ended\";\r\n        }\r\n\r\n    }\r\n\r\n\r\n    //hash function\r\n    function keccak256_encrypt(string memory text) public pure returns (bytes32) {\r\n        return keccak256(abi.encode(text));\r\n    }\r\n\r\n    // retrun the winner \r\n    function getWinner() public view returns(string memory) {\r\n        uint winner = 1;\r\n        uint voterS = candidates[1].voteCount;\r\n        for (uint index = 2; index <=  candidatesCount; index++) {\r\n            if(candidates[index].voteCount > voterS){\r\n                winner = index;\r\n                voterS = candidates[index].voteCount;\r\n                }\r\n        }\r\n        return (candidates[winner].name);\r\n\r\n    }\r\n\r\n\r\n    //<----------------------------------- Verifies signed message -------------------------------->\r\n    //verify signature\r\n    function verify (string memory _message, bytes memory _sig) public onlyAdmin returns (bool) {\r\n        bytes32 hash_SMS = getHash(_message);\r\n        require(!adminSignatures[hash_SMS], \"Has been executed\"); //must be a new signature\r\n        bytes32 ethSignedMessageHash = getEthSignedHash(hash_SMS);\r\n        adminSignatures[hash_SMS] = true;\r\n        if (recover(ethSignedMessageHash, _sig) == admin){return true;}\r\n        return false;\r\n    }\r\n    \r\n    //turns string to hash\r\n    function getHash (string memory sms) public pure returns (bytes32){\r\n        return keccak256(abi.encodePacked(sms));\r\n    }\r\n\r\n\r\n    // mkae has of string\r\n    function getEthSignedHash (bytes32 sms) public pure returns (bytes32){\r\n        return keccak256(abi.encodePacked(\"\\x19Ethereum Signed Message:\\n32\", sms));\r\n    }\r\n\r\n\r\n    //recover account of original signer of message\r\n    function recover(bytes32 _ethSignedMessageHash, bytes memory _sig) public pure returns (address){\r\n            (bytes32 r, bytes32 s, uint8 v) = _split(_sig); //split signature into params\r\n            return ecrecover(_ethSignedMessageHash, v, r, s); //returns the address of the signer given the signed message\r\n    }\r\n\r\n    //retrieve the public adddres of the signature\r\n    function _split(bytes memory _sig) internal pure returns (bytes32 r, bytes32 s, uint8 v){\r\n            require(_sig.length == 65, \"invalid signature length\");\r\n\r\n            assembly {\r\n                r := mload(add(_sig, 32))  //skip first 32-byetes as they hold the length\r\n                s := mload(add(_sig, 64))\r\n                v := byte(0, mload(add(_sig, 96)))\r\n\r\n            }\r\n    }\r\n\r\n    //<----------------------------------- ECC CRYPTOGRAPHY -------------------------------->\r\n\r\n}",
  "sourcePath": "C:\\Users\\Student\\Downloads\\BEV-cryptography\\Code\\contracts\\Election.sol",
  "compiler": {
    "name": "solc",
    "version": "0.8.0+commit.c7dfd78e.Emscripten.clang"
  },
  "schemaVersion": "3.4.16",
  "updatedAt": "2023-10-29T22:31:40.536Z",
  "networkType": "ethereum",
  "devdoc": {
    "kind": "dev",
    "methods": {},
    "version": 1
  },
  "userdoc": {
    "kind": "user",
    "methods": {},
    "version": 1
  }
}