{
  "contractName": "Election",
  "abi": [
    {
      "inputs": [],
      "stateMutability": "nonpayable",
      "type": "constructor"
    },
    {
      "inputs": [
        {
          "internalType": "uint256",
          "name": "",
          "type": "uint256"
        }
      ],
      "name": "candidates",
      "outputs": [
        {
          "internalType": "uint256",
          "name": "id",
          "type": "uint256"
        },
        {
          "internalType": "string",
          "name": "name",
          "type": "string"
        },
        {
          "internalType": "string",
          "name": "party",
          "type": "string"
        },
        {
          "internalType": "uint256",
          "name": "voteCount",
          "type": "uint256"
        }
      ],
      "stateMutability": "view",
      "type": "function",
      "constant": true
    },
    {
      "inputs": [],
      "name": "candidatesCount",
      "outputs": [
        {
          "internalType": "uint256",
          "name": "",
          "type": "uint256"
        }
      ],
      "stateMutability": "view",
      "type": "function",
      "constant": true
    },
    {
      "inputs": [],
      "name": "numVotes",
      "outputs": [
        {
          "internalType": "uint256",
          "name": "",
          "type": "uint256"
        }
      ],
      "stateMutability": "view",
      "type": "function",
      "constant": true
    },
    {
      "inputs": [],
      "name": "phase",
      "outputs": [
        {
          "internalType": "string",
          "name": "",
          "type": "string"
        }
      ],
      "stateMutability": "view",
      "type": "function",
      "constant": true
    },
    {
      "inputs": [],
      "name": "votersCount",
      "outputs": [
        {
          "internalType": "uint256",
          "name": "",
          "type": "uint256"
        }
      ],
      "stateMutability": "view",
      "type": "function",
      "constant": true
    },
    {
      "inputs": [
        {
          "internalType": "uint256",
          "name": "",
          "type": "uint256"
        }
      ],
      "name": "votingTrails",
      "outputs": [
        {
          "internalType": "string",
          "name": "ref",
          "type": "string"
        },
        {
          "internalType": "string",
          "name": "voteDate",
          "type": "string"
        },
        {
          "internalType": "string",
          "name": "voteTime",
          "type": "string"
        },
        {
          "internalType": "bool",
          "name": "isVerified",
          "type": "bool"
        }
      ],
      "stateMutability": "view",
      "type": "function",
      "constant": true
    },
    {
      "inputs": [
        {
          "internalType": "string",
          "name": "_name",
          "type": "string"
        },
        {
          "internalType": "string",
          "name": "_party",
          "type": "string"
        }
      ],
      "name": "addCandidate",
      "outputs": [],
      "stateMutability": "nonpayable",
      "type": "function"
    },
    {
      "inputs": [
        {
          "internalType": "string",
          "name": "_personal_id",
          "type": "string"
        },
        {
          "internalType": "string",
          "name": "_email",
          "type": "string"
        },
        {
          "internalType": "string",
          "name": "_name",
          "type": "string"
        },
        {
          "internalType": "string",
          "name": "_surname",
          "type": "string"
        },
        {
          "internalType": "string",
          "name": "_ref",
          "type": "string"
        }
      ],
      "name": "addVoter",
      "outputs": [],
      "stateMutability": "nonpayable",
      "type": "function"
    },
    {
      "inputs": [],
      "name": "getVoter",
      "outputs": [
        {
          "internalType": "string",
          "name": "",
          "type": "string"
        },
        {
          "internalType": "string",
          "name": "",
          "type": "string"
        },
        {
          "internalType": "string",
          "name": "",
          "type": "string"
        },
        {
          "internalType": "string",
          "name": "",
          "type": "string"
        },
        {
          "internalType": "bool",
          "name": "",
          "type": "bool"
        },
        {
          "internalType": "bool",
          "name": "",
          "type": "bool"
        },
        {
          "internalType": "bool",
          "name": "",
          "type": "bool"
        }
      ],
      "stateMutability": "view",
      "type": "function",
      "constant": true
    },
    {
      "inputs": [],
      "name": "isVoter_Registered",
      "outputs": [
        {
          "internalType": "bool",
          "name": "",
          "type": "bool"
        }
      ],
      "stateMutability": "view",
      "type": "function",
      "constant": true
    },
    {
      "inputs": [],
      "name": "random",
      "outputs": [
        {
          "internalType": "uint256",
          "name": "",
          "type": "uint256"
        }
      ],
      "stateMutability": "view",
      "type": "function",
      "constant": true
    },
    {
      "inputs": [],
      "name": "has_Voted",
      "outputs": [
        {
          "internalType": "bool",
          "name": "",
          "type": "bool"
        }
      ],
      "stateMutability": "view",
      "type": "function",
      "constant": true
    },
    {
      "inputs": [
        {
          "internalType": "uint256",
          "name": "_candidateId",
          "type": "uint256"
        },
        {
          "internalType": "string",
          "name": "_date",
          "type": "string"
        },
        {
          "internalType": "string",
          "name": "_time",
          "type": "string"
        }
      ],
      "name": "vote",
      "outputs": [],
      "stateMutability": "nonpayable",
      "type": "function"
    },
    {
      "inputs": [],
      "name": "copyKeys",
      "outputs": [
        {
          "internalType": "string",
          "name": "",
          "type": "string"
        },
        {
          "internalType": "string",
          "name": "",
          "type": "string"
        }
      ],
      "stateMutability": "view",
      "type": "function",
      "constant": true
    },
    {
      "inputs": [
        {
          "internalType": "uint256",
          "name": "_key1",
          "type": "uint256"
        },
        {
          "internalType": "uint256",
          "name": "_key2",
          "type": "uint256"
        }
      ],
      "name": "verifyVote",
      "outputs": [],
      "stateMutability": "nonpayable",
      "type": "function"
    },
    {
      "inputs": [],
      "name": "startElection",
      "outputs": [],
      "stateMutability": "nonpayable",
      "type": "function"
    },
    {
      "inputs": [],
      "name": "changePhase",
      "outputs": [],
      "stateMutability": "nonpayable",
      "type": "function"
    },
    {
      "inputs": [
        {
          "internalType": "string",
          "name": "text",
          "type": "string"
        }
      ],
      "name": "keccak256_encrypt",
      "outputs": [
        {
          "internalType": "bytes32",
          "name": "",
          "type": "bytes32"
        }
      ],
      "stateMutability": "pure",
      "type": "function",
      "constant": true
    },
    {
      "inputs": [],
      "name": "getWinner",
      "outputs": [
        {
          "internalType": "string",
          "name": "",
          "type": "string"
        }
      ],
      "stateMutability": "view",
      "type": "function",
      "constant": true
    },
    {
      "inputs": [
        {
          "internalType": "string",
          "name": "_message",
          "type": "string"
        },
        {
          "internalType": "bytes",
          "name": "_sig",
          "type": "bytes"
        },
        {
          "internalType": "uint256",
          "name": "_nonce",
          "type": "uint256"
        }
      ],
      "name": "verify",
      "outputs": [
        {
          "internalType": "bool",
          "name": "",
          "type": "bool"
        }
      ],
      "stateMutability": "nonpayable",
      "type": "function"
    },
    {
      "inputs": [
        {
          "internalType": "string",
          "name": "sms",
          "type": "string"
        },
        {
          "internalType": "uint256",
          "name": "_nonce",
          "type": "uint256"
        }
      ],
      "name": "getHash",
      "outputs": [
        {
          "internalType": "bytes32",
          "name": "",
          "type": "bytes32"
        }
      ],
      "stateMutability": "view",
      "type": "function",
      "constant": true
    },
    {
      "inputs": [
        {
          "internalType": "bytes32",
          "name": "sms",
          "type": "bytes32"
        }
      ],
      "name": "getEthSignedHash",
      "outputs": [
        {
          "internalType": "bytes32",
          "name": "",
          "type": "bytes32"
        }
      ],
      "stateMutability": "pure",
      "type": "function",
      "constant": true
    },
    {
      "inputs": [
        {
          "internalType": "bytes32",
          "name": "_ethSignedMessageHash",
          "type": "bytes32"
        },
        {
          "internalType": "bytes",
          "name": "_sig",
          "type": "bytes"
        }
      ],
      "name": "recover",
      "outputs": [
        {
          "internalType": "address",
          "name": "",
          "type": "address"
        }
      ],
      "stateMutability": "pure",
      "type": "function",
      "constant": true
    }
  ],
  "bytecode": "0x60806040526002600855600260095560405180606001604052806040518060400160405280600c81526020017f726567697374726174696f6e000000000000000000000000000000000000000081525081526020016040518060400160405280600681526020017f766f74696e67000000000000000000000000000000000000000000000000000081525081526020016040518060400160405280600781526020017f726573756c747300000000000000000000000000000000000000000000000000815250815250600c906003620000da9291906200017e565b50348015620000e857600080fd5b5033601060006101000a81548173ffffffffffffffffffffffffffffffffffffffff021916908373ffffffffffffffffffffffffffffffffffffffff1602179055506040518060400160405280601881526020017f456c656374696f6e20686173206e6f74207374617274656400000000000000008152506007908051906020019062000177929190620001d8565b506200035b565b8260038101928215620001c5579160200282015b82811115620001c4578251829080519060200190620001b3929190620001d8565b509160200191906001019062000192565b5b509050620001d4919062000269565b5090565b828054620001e690620002f6565b90600052602060002090601f0160209004810192826200020a576000855562000256565b82601f106200022557805160ff191683800117855562000256565b8280016001018555821562000256579182015b828111156200025557825182559160200191906001019062000238565b5b50905062000265919062000291565b5090565b5b808211156200028d5760008181620002839190620002b0565b506001016200026a565b5090565b5b80821115620002ac57600081600090555060010162000292565b5090565b508054620002be90620002f6565b6000825580601f10620002d25750620002f3565b601f016020900490600052602060002090810190620002f2919062000291565b5b50565b600060028204905060018216806200030f57607f821691505b602082108114156200032657620003256200032c565b5b50919050565b7f4e487b7100000000000000000000000000000000000000000000000000000000600052602260045260246000fd5b6154b8806200036b6000396000f3fe608060405234801561001057600080fd5b506004361061014d5760003560e01c80638e7ea5b2116100c3578063c074da241161007c578063c074da2414610399578063d0a6a870146103c9578063d25773b7146103e8578063db6f595314610406578063e3c0327d14610410578063f731d0e9146104435761014d565b80638e7ea5b2146102e757806398b8b43d1461030557806398c0793814610323578063a3bef4d714610341578063b10847591461035f578063b1c9fe6e1461037b5761014d565b80632d35a8a2116101155780632d35a8a21461020e5780632f4ea5ea1461022c5780633477ee2e1461025c5780633fee76dc1461028f5780635ec01e4d146102bf57806362d73eb8146102dd5761014d565b806319045a2514610152578063216f6a6e1461018257806326541b561461019e5780632966e748146101ba5780632b37f53c146101ea575b600080fd5b61016c6004803603810190610167919061428f565b61045f565b6040516101799190614c6d565b60405180910390f35b61019c600480360381019061019791906145fa565b6104ce565b005b6101b860048036038101906101b391906143a3565b610818565b005b6101d460048036038101906101cf9190614324565b610993565b6040516101e19190614c88565b60405180910390f35b6101f2610aa1565b6040516102059796959493929190614db6565b60405180910390f35b610216610eeb565b6040516102239190615041565b60405180910390f35b61024660048036038101906102419190614266565b610ef1565b6040516102539190614ca3565b60405180910390f35b61027660048036038101906102719190614552565b610f21565b604051610286949392919061505c565b60405180910390f35b6102a960048036038101906102a491906142e3565b611061565b6040516102b69190614ca3565b60405180910390f35b6102c7611091565b6040516102d49190615041565b60405180910390f35b6102e56110c4565b005b6102ef61120a565b6040516102fc9190614d03565b60405180910390f35b61030d61132f565b60405161031a9190614c88565b60405180910390f35b61032b611386565b6040516103389190615041565b60405180910390f35b61034961138c565b6040516103569190615041565b60405180910390f35b6103796004803603810190610374919061457b565b611392565b005b610383611782565b6040516103909190614d03565b60405180910390f35b6103b360048036038101906103ae91906144fe565b611810565b6040516103c09190614ca3565b60405180910390f35b6103d1611845565b6040516103df929190614d25565b60405180910390f35b6103f0611a0c565b6040516103fd9190614c88565b60405180910390f35b61040e611a63565b005b61042a60048036038101906104259190614552565b611d04565b60405161043a9493929190614d5c565b60405180910390f35b61045d6004803603810190610458919061440f565b611ed9565b005b60008060008061046e85612366565b925092509250600186828585604051600081526020016040526040516104979493929190614cbe565b6020604051602081039080840390855afa1580156104b9573d6000803e3d6000fd5b50505060206040510351935050505092915050565b600160003373ffffffffffffffffffffffffffffffffffffffff1673ffffffffffffffffffffffffffffffffffffffff16815260200190815260200160002060060160009054906101000a900460ff1661055d576040517f08c379a000000000000000000000000000000000000000000000000000000000815260040161055490614e41565b60405180910390fd5b600160003373ffffffffffffffffffffffffffffffffffffffff1673ffffffffffffffffffffffffffffffffffffffff16815260200190815260200160002060010160009054906101000a900460ff166105ec576040517f08c379a00000000000000000000000000000000000000000000000000000000081526004016105e390614e61565b60405180910390fd5b600160003373ffffffffffffffffffffffffffffffffffffffff1673ffffffffffffffffffffffffffffffffffffffff16815260200190815260200160002060080160009054906101000a900460ff161561067c576040517f08c379a000000000000000000000000000000000000000000000000000000000815260040161067390614fa1565b60405180910390fd5b60008061072f600160003373ffffffffffffffffffffffffffffffffffffffff1673ffffffffffffffffffffffffffffffffffffffff168152602001908152602001600020600701547f79be667ef9dcbbac55a06295ce870b07029bfcdb2dce28d959f2815b16f817987f483ada7726a3c4655da4fbfc0e1108a8fd17b448a68554199c47d08ffb10d4b860007ffffffffffffffffffffffffffffffffffffffffffffffffffffffffefffffc2f6123ce565b91509150838214801561074157508083145b1561081257600160026000600160003373ffffffffffffffffffffffffffffffffffffffff1673ffffffffffffffffffffffffffffffffffffffff16815260200190815260200160002060090154815260200190815260200160002060030160006101000a81548160ff02191690831515021790555060018060003373ffffffffffffffffffffffffffffffffffffffff1673ffffffffffffffffffffffffffffffffffffffff16815260200190815260200160002060080160006101000a81548160ff0219169083151502179055505b50505050565b601060009054906101000a900473ffffffffffffffffffffffffffffffffffffffff1673ffffffffffffffffffffffffffffffffffffffff163373ffffffffffffffffffffffffffffffffffffffff16146108a8576040517f08c379a000000000000000000000000000000000000000000000000000000000815260040161089f90614fe1565b60405180910390fd5b6000600f5411156108ee576040517f08c379a00000000000000000000000000000000000000000000000000000000081526004016108e590614f21565b60405180910390fd5b60066000815480929190610901906152f9565b9190505550604051806080016040528060065481526020018381526020018281526020016000815250600080600654815260200190815260200160002060008201518160000155602082015181600101908051906020019061096492919061401a565b50604082015181600201908051906020019061098192919061401a565b50606082015181600301559050505050565b6000806109a08584611810565b90506005600082815260200190815260200160002060009054906101000a900460ff1615610a03576040517f08c379a00000000000000000000000000000000000000000000000000000000081526004016109fa90614e81565b60405180910390fd5b6000610a0e82610ef1565b905060016005600084815260200190815260200160002060006101000a81548160ff021916908315150217905550601060009054906101000a900473ffffffffffffffffffffffffffffffffffffffff1673ffffffffffffffffffffffffffffffffffffffff16610a7f828761045f565b73ffffffffffffffffffffffffffffffffffffffff1614925050509392505050565b6060806060806000806000600160003373ffffffffffffffffffffffffffffffffffffffff1673ffffffffffffffffffffffffffffffffffffffff168152602001908152602001600020600301600160003373ffffffffffffffffffffffffffffffffffffffff1673ffffffffffffffffffffffffffffffffffffffff168152602001908152602001600020600401600160003373ffffffffffffffffffffffffffffffffffffffff1673ffffffffffffffffffffffffffffffffffffffff168152602001908152602001600020600201600160003373ffffffffffffffffffffffffffffffffffffffff1673ffffffffffffffffffffffffffffffffffffffff168152602001908152602001600020600501600160003373ffffffffffffffffffffffffffffffffffffffff1673ffffffffffffffffffffffffffffffffffffffff16815260200190815260200160002060060160009054906101000a900460ff16600160003373ffffffffffffffffffffffffffffffffffffffff1673ffffffffffffffffffffffffffffffffffffffff16815260200190815260200160002060010160009054906101000a900460ff16600160003373ffffffffffffffffffffffffffffffffffffffff1673ffffffffffffffffffffffffffffffffffffffff16815260200190815260200160002060080160009054906101000a900460ff16868054610cb0906152c7565b80601f0160208091040260200160405190810160405280929190818152602001828054610cdc906152c7565b8015610d295780601f10610cfe57610100808354040283529160200191610d29565b820191906000526020600020905b815481529060010190602001808311610d0c57829003601f168201915b50505050509650858054610d3c906152c7565b80601f0160208091040260200160405190810160405280929190818152602001828054610d68906152c7565b8015610db55780601f10610d8a57610100808354040283529160200191610db5565b820191906000526020600020905b815481529060010190602001808311610d9857829003601f168201915b50505050509550848054610dc8906152c7565b80601f0160208091040260200160405190810160405280929190818152602001828054610df4906152c7565b8015610e415780601f10610e1657610100808354040283529160200191610e41565b820191906000526020600020905b815481529060010190602001808311610e2457829003601f168201915b50505050509450838054610e54906152c7565b80601f0160208091040260200160405190810160405280929190818152602001828054610e80906152c7565b8015610ecd5780601f10610ea257610100808354040283529160200191610ecd565b820191906000526020600020905b815481529060010190602001808311610eb057829003601f168201915b50505050509350965096509650965096509650965090919293949596565b60065481565b600081604051602001610f049190614c1b565b604051602081830303815290604052805190602001209050919050565b6000602052806000526040600020600091509050806000015490806001018054610f4a906152c7565b80601f0160208091040260200160405190810160405280929190818152602001828054610f76906152c7565b8015610fc35780601f10610f9857610100808354040283529160200191610fc3565b820191906000526020600020905b815481529060010190602001808311610fa657829003601f168201915b505050505090806002018054610fd8906152c7565b80601f0160208091040260200160405190810160405280929190818152602001828054611004906152c7565b80156110515780601f1061102657610100808354040283529160200191611051565b820191906000526020600020905b81548152906001019060200180831161103457829003601f168201915b5050505050908060030154905084565b6000816040516020016110749190614d03565b604051602081830303815290604052805190602001209050919050565b600042336040516020016110a6929190614c41565b6040516020818303038152906040528051906020012060001c905090565b601060009054906101000a900473ffffffffffffffffffffffffffffffffffffffff1673ffffffffffffffffffffffffffffffffffffffff163373ffffffffffffffffffffffffffffffffffffffff1614611154576040517f08c379a000000000000000000000000000000000000000000000000000000000815260040161114b90614fe1565b60405180910390fd5b6001600f541415801561116a57506002600f5414155b6111a9576040517f08c379a00000000000000000000000000000000000000000000000000000000081526004016111a090614f01565b60405180910390fd5b6000600f81905550600c600f54600381106111ed577f4e487b7100000000000000000000000000000000000000000000000000000000600052603260045260246000fd5b0160079080546111fc906152c7565b6112079291906140a0565b50565b60606000600190506000806000600181526020019081526020016000206003015490506000600290505b60065481116112895781600080838152602001908152602001600020600301541115611276578092506000808281526020019081526020016000206003015491505b8080611281906152f9565b915050611234565b5060008083815260200190815260200160002060010180546112aa906152c7565b80601f01602080910402602001604051908101604052809291908181526020018280546112d6906152c7565b80156113235780601f106112f857610100808354040283529160200191611323565b820191906000526020600020905b81548152906001019060200180831161130657829003601f168201915b50505050509250505090565b6000600160003373ffffffffffffffffffffffffffffffffffffffff1673ffffffffffffffffffffffffffffffffffffffff16815260200190815260200160002060010160009054906101000a900460ff16905090565b600a5481565b600b5481565b600160003373ffffffffffffffffffffffffffffffffffffffff1673ffffffffffffffffffffffffffffffffffffffff16815260200190815260200160002060060160009054906101000a900460ff16611421576040517f08c379a000000000000000000000000000000000000000000000000000000000815260040161141890614e41565b60405180910390fd5b600160003373ffffffffffffffffffffffffffffffffffffffff1673ffffffffffffffffffffffffffffffffffffffff16815260200190815260200160002060010160009054906101000a900460ff16156114b1576040517f08c379a00000000000000000000000000000000000000000000000000000000081526004016114a890614e61565b60405180910390fd5b6000831180156114c357506006548311155b6114cc57600080fd5b60018060003373ffffffffffffffffffffffffffffffffffffffff1673ffffffffffffffffffffffffffffffffffffffff16815260200190815260200160002060010160006101000a81548160ff021916908315150217905550600080848152602001908152602001600020600301600081548092919061154c906152f9565b9190505550611559611091565b600160003373ffffffffffffffffffffffffffffffffffffffff1673ffffffffffffffffffffffffffffffffffffffff168152602001908152602001600020600701819055506040518060800160405280600160003373ffffffffffffffffffffffffffffffffffffffff1673ffffffffffffffffffffffffffffffffffffffff16815260200190815260200160002060050180546115f7906152c7565b80601f0160208091040260200160405190810160405280929190818152602001828054611623906152c7565b80156116705780601f1061164557610100808354040283529160200191611670565b820191906000526020600020905b81548152906001019060200180831161165357829003601f168201915b505050505081526020018381526020018281526020016000151581525060026000600b54815260200190815260200160002060008201518160000190805190602001906116be92919061401a565b5060208201518160010190805190602001906116db92919061401a565b5060408201518160020190805190602001906116f892919061401a565b5060608201518160030160006101000a81548160ff021916908315150217905550905050600b54600160003373ffffffffffffffffffffffffffffffffffffffff1673ffffffffffffffffffffffffffffffffffffffff16815260200190815260200160002060090181905550600b6000815480929190611778906152f9565b9190505550505050565b6007805461178f906152c7565b80601f01602080910402602001604051908101604052809291908181526020018280546117bb906152c7565b80156118085780601f106117dd57610100808354040283529160200191611808565b820191906000526020600020905b8154815290600101906020018083116117eb57829003601f168201915b505050505081565b600030838360405160200161182793929190614be2565b60405160208183030381529060405280519060200120905092915050565b6060806000806118fb600160003373ffffffffffffffffffffffffffffffffffffffff1673ffffffffffffffffffffffffffffffffffffffff168152602001908152602001600020600701547f79be667ef9dcbbac55a06295ce870b07029bfcdb2dce28d959f2815b16f817987f483ada7726a3c4655da4fbfc0e1108a8fd17b448a68554199c47d08ffb10d4b860007ffffffffffffffffffffffffffffffffffffffffffffffffffffffffefffffc2f6123ce565b915091505b61192f8282600060077ffffffffffffffffffffffffffffffffffffffffffffffffffffffffefffffc2f612408565b6119f0576119e3600160003373ffffffffffffffffffffffffffffffffffffffff1673ffffffffffffffffffffffffffffffffffffffff168152602001908152602001600020600701547f79be667ef9dcbbac55a06295ce870b07029bfcdb2dce28d959f2815b16f817987f483ada7726a3c4655da4fbfc0e1108a8fd17b448a68554199c47d08ffb10d4b860007ffffffffffffffffffffffffffffffffffffffffffffffffffffffffefffffc2f6123ce565b8092508193505050611900565b6119f9826125ba565b611a02826125ba565b9350935050509091565b6000600160003373ffffffffffffffffffffffffffffffffffffffff1673ffffffffffffffffffffffffffffffffffffffff16815260200190815260200160002060060160009054906101000a900460ff16905090565b601060009054906101000a900473ffffffffffffffffffffffffffffffffffffffff1673ffffffffffffffffffffffffffffffffffffffff163373ffffffffffffffffffffffffffffffffffffffff1614611af3576040517f08c379a0000000000000000000000000000000000000000000000000000000008152600401611aea90614fe1565b60405180910390fd5b600f6000815480929190611b06906152f9565b91905055506003600f541015611cb5576001600f541415611c0657600654600a5411611b67576040517f08c379a0000000000000000000000000000000000000000000000000000000008152600401611b5e90614ea1565b60405180910390fd5b6008546006541015611bae576040517f08c379a0000000000000000000000000000000000000000000000000000000008152600401611ba590614ec1565b60405180910390fd5b600c600f5460038110611bea577f4e487b7100000000000000000000000000000000000000000000000000000000600052603260045260246000fd5b016007908054611bf9906152c7565b611c049291906140a0565b505b6002600f541415611cb057600954600b541015611c58576040517f08c379a0000000000000000000000000000000000000000000000000000000008152600401611c4f90614ee1565b60405180910390fd5b600c600f5460038110611c94577f4e487b7100000000000000000000000000000000000000000000000000000000600052603260045260246000fd5b016007908054611ca3906152c7565b611cae9291906140a0565b505b611d02565b6040518060400160405280600e81526020017f456c656374696f6e20656e64656400000000000000000000000000000000000081525060079080519060200190611d0092919061401a565b505b565b6002602052806000526040600020600091509050806000018054611d27906152c7565b80601f0160208091040260200160405190810160405280929190818152602001828054611d53906152c7565b8015611da05780601f10611d7557610100808354040283529160200191611da0565b820191906000526020600020905b815481529060010190602001808311611d8357829003601f168201915b505050505090806001018054611db5906152c7565b80601f0160208091040260200160405190810160405280929190818152602001828054611de1906152c7565b8015611e2e5780601f10611e0357610100808354040283529160200191611e2e565b820191906000526020600020905b815481529060010190602001808311611e1157829003601f168201915b505050505090806002018054611e43906152c7565b80601f0160208091040260200160405190810160405280929190818152602001828054611e6f906152c7565b8015611ebc5780601f10611e9157610100808354040283529160200191611ebc565b820191906000526020600020905b815481529060010190602001808311611e9f57829003601f168201915b5050505050908060030160009054906101000a900460ff16905084565b601060009054906101000a900473ffffffffffffffffffffffffffffffffffffffff1673ffffffffffffffffffffffffffffffffffffffff163373ffffffffffffffffffffffffffffffffffffffff161415611f6a576040517f08c379a0000000000000000000000000000000000000000000000000000000008152600401611f6190614f81565b60405180910390fd5b60003390506000611f7a87611061565b90506000600160008473ffffffffffffffffffffffffffffffffffffffff1673ffffffffffffffffffffffffffffffffffffffff16815260200190815260200160002090508060060160009054906101000a900460ff1615612011576040517f08c379a000000000000000000000000000000000000000000000000000000000815260040161200890614f61565b60405180910390fd5b600073ffffffffffffffffffffffffffffffffffffffff166003600084815260200190815260200160002060009054906101000a900473ffffffffffffffffffffffffffffffffffffffff1673ffffffffffffffffffffffffffffffffffffffff16146120b3576040517f08c379a00000000000000000000000000000000000000000000000000000000081526004016120aa90614fc1565b60405180910390fd5b8260046000600a54815260200190815260200160002060006101000a81548173ffffffffffffffffffffffffffffffffffffffff021916908373ffffffffffffffffffffffffffffffffffffffff1602179055506040518061016001604052808381526020016000151581526020018473ffffffffffffffffffffffffffffffffffffffff168152602001888152602001878152602001868152602001858152602001600115158152602001600081526020016000151581526020016000815250600160008573ffffffffffffffffffffffffffffffffffffffff1673ffffffffffffffffffffffffffffffffffffffff1681526020019081526020016000206000820151816000015560208201518160010160006101000a81548160ff02191690831515021790555060408201518160010160016101000a81548173ffffffffffffffffffffffffffffffffffffffff021916908373ffffffffffffffffffffffffffffffffffffffff160217905550606082015181600201908051906020019061224092919061401a565b50608082015181600301908051906020019061225d92919061401a565b5060a082015181600401908051906020019061227a92919061401a565b5060c082015181600501908051906020019061229792919061401a565b5060e08201518160060160006101000a81548160ff02191690831515021790555061010082015181600701556101208201518160080160006101000a81548160ff0219169083151502179055506101408201518160090155905050826003600084815260200190815260200160002060006101000a81548173ffffffffffffffffffffffffffffffffffffffff021916908373ffffffffffffffffffffffffffffffffffffffff160217905550600a6000815480929190612357906152f9565b91905055505050505050505050565b600080600060418451146123af576040517f08c379a00000000000000000000000000000000000000000000000000000000081526004016123a690615001565b60405180910390fd5b6020840151925060408401519150606084015160001a90509193909250565b60008060008060006123e58a8a8a60018b8b6126de565b9250925092506123f78383838961277e565b945094505050509550959350505050565b600085600014806124195750818610155b806124245750846000145b8061242f5750818510155b1561243d57600090506125b1565b60008280612474577f4e487b7100000000000000000000000000000000000000000000000000000000600052601260045260246000fd5b8687099050600083806124b0577f4e487b7100000000000000000000000000000000000000000000000000000000600052601260045260246000fd5b8885806124e6577f4e487b7100000000000000000000000000000000000000000000000000000000600052601260045260246000fd5b8a8b0909905060008614612566578380612529577f4e487b7100000000000000000000000000000000000000000000000000000000600052601260045260246000fd5b848061255e577f4e487b7100000000000000000000000000000000000000000000000000000000600052601260045260246000fd5b878a09820890505b600085146125a95783806125a3577f4e487b7100000000000000000000000000000000000000000000000000000000600052601260045260246000fd5b85820890505b808214925050505b95945050505050565b6060600060016125c98461288d565b01905060008167ffffffffffffffff81111561260e577f4e487b7100000000000000000000000000000000000000000000000000000000600052604160045260246000fd5b6040519080825280601f01601f1916602001820160405280156126405781602001600182028036833780820191505090505b509050600082602001820190505b6001156126d3578080600190039150507f3031323334353637383961626364656600000000000000000000000000000000600a86061a8153600a85816126bd577f4e487b7100000000000000000000000000000000000000000000000000000000600052601260045260246000fd5b04945060008514156126ce576126d3565b61264e565b819350505050919050565b6000806000808914156126f957878787925092509250612772565b60008990506000806000600190505b6000841461276457600060018516146127375761272a8383838f8f8f8e612ac4565b8093508194508295505050505b6002846127449190615167565b93506127538c8c8c8c8c613a51565b809c50819d50829e50505050612708565b828282965096509650505050505b96509650969350505050565b600080600061278d8585613ee2565b9050600084806127c6577f4e487b7100000000000000000000000000000000000000000000000000000000600052601260045260246000fd5b828309905060008580612802577f4e487b7100000000000000000000000000000000000000000000000000000000600052601260045260246000fd5b828a0990506000868061283e577f4e487b7100000000000000000000000000000000000000000000000000000000600052601260045260246000fd5b8780612873577f4e487b7100000000000000000000000000000000000000000000000000000000600052601260045260246000fd5b8486098a0990508181955095505050505094509492505050565b600080600090507a184f03e93ff9f4daa797ed6e38ed64bf6a1f0100000000000000008310612911577a184f03e93ff9f4daa797ed6e38ed64bf6a1f0100000000000000008381612907577f4e487b7100000000000000000000000000000000000000000000000000000000600052601260045260246000fd5b0492506040810190505b6d04ee2d6d415b85acef81000000008310612974576d04ee2d6d415b85acef8100000000838161296a577f4e487b7100000000000000000000000000000000000000000000000000000000600052601260045260246000fd5b0492506020810190505b662386f26fc1000083106129c957662386f26fc1000083816129bf577f4e487b7100000000000000000000000000000000000000000000000000000000600052601260045260246000fd5b0492506010810190505b6305f5e1008310612a18576305f5e1008381612a0e577f4e487b7100000000000000000000000000000000000000000000000000000000600052601260045260246000fd5b0492506008810190505b6127108310612a63576127108381612a59577f4e487b7100000000000000000000000000000000000000000000000000000000600052601260045260246000fd5b0492506004810190505b60648310612aac5760648381612aa2577f4e487b7100000000000000000000000000000000000000000000000000000000600052601260045260246000fd5b0492506002810190505b600a8310612abb576001810190505b80915050919050565b6000806000808a148015612ad85750600089145b15612aeb57868686925092509250613a44565b600087148015612afb5750600086145b15612b0e57898989925092509250613a44565b612b1661412d565b8480612b4b577f4e487b7100000000000000000000000000000000000000000000000000000000600052601260045260246000fd5b898a0981600060048110612b88577f4e487b7100000000000000000000000000000000000000000000000000000000600052603260045260246000fd5b6020020181815250508480612bc6577f4e487b7100000000000000000000000000000000000000000000000000000000600052601260045260246000fd5b81600060048110612c00577f4e487b7100000000000000000000000000000000000000000000000000000000600052603260045260246000fd5b60200201518a0981600160048110612c41577f4e487b7100000000000000000000000000000000000000000000000000000000600052603260045260246000fd5b6020020181815250508480612c7f577f4e487b7100000000000000000000000000000000000000000000000000000000600052601260045260246000fd5b86870981600260048110612cbc577f4e487b7100000000000000000000000000000000000000000000000000000000600052603260045260246000fd5b6020020181815250508480612cfa577f4e487b7100000000000000000000000000000000000000000000000000000000600052601260045260246000fd5b81600260048110612d34577f4e487b7100000000000000000000000000000000000000000000000000000000600052603260045260246000fd5b6020020151870981600360048110612d75577f4e487b7100000000000000000000000000000000000000000000000000000000600052603260045260246000fd5b60200201818152505060405180608001604052808680612dbe577f4e487b7100000000000000000000000000000000000000000000000000000000600052601260045260246000fd5b83600260048110612df8577f4e487b7100000000000000000000000000000000000000000000000000000000600052603260045260246000fd5b60200201518e0981526020018680612e39577f4e487b7100000000000000000000000000000000000000000000000000000000600052601260045260246000fd5b83600360048110612e73577f4e487b7100000000000000000000000000000000000000000000000000000000600052603260045260246000fd5b60200201518d0981526020018680612eb4577f4e487b7100000000000000000000000000000000000000000000000000000000600052601260045260246000fd5b83600060048110612eee577f4e487b7100000000000000000000000000000000000000000000000000000000600052603260045260246000fd5b60200201518b0981526020018680612f2f577f4e487b7100000000000000000000000000000000000000000000000000000000600052601260045260246000fd5b83600160048110612f69577f4e487b7100000000000000000000000000000000000000000000000000000000600052603260045260246000fd5b60200201518a09815250905080600260048110612faf577f4e487b7100000000000000000000000000000000000000000000000000000000600052603260045260246000fd5b602002015181600060048110612fee577f4e487b7100000000000000000000000000000000000000000000000000000000600052603260045260246000fd5b602002015114158061307c575080600360048110613035577f4e487b7100000000000000000000000000000000000000000000000000000000600052603260045260246000fd5b602002015181600160048110613074577f4e487b7100000000000000000000000000000000000000000000000000000000600052603260045260246000fd5b602002015114155b6130bb576040517f08c379a00000000000000000000000000000000000000000000000000000000081526004016130b290614f41565b60405180910390fd5b6130c361412d565b85806130f8577f4e487b7100000000000000000000000000000000000000000000000000000000600052601260045260246000fd5b82600060048110613132577f4e487b7100000000000000000000000000000000000000000000000000000000600052603260045260246000fd5b60200201518761314291906151f2565b8360026004811061317c577f4e487b7100000000000000000000000000000000000000000000000000000000600052603260045260246000fd5b602002015108816000600481106131bc577f4e487b7100000000000000000000000000000000000000000000000000000000600052603260045260246000fd5b60200201818152505085806131fa577f4e487b7100000000000000000000000000000000000000000000000000000000600052601260045260246000fd5b82600160048110613234577f4e487b7100000000000000000000000000000000000000000000000000000000600052603260045260246000fd5b60200201518761324491906151f2565b8360036004811061327e577f4e487b7100000000000000000000000000000000000000000000000000000000600052603260045260246000fd5b602002015108816001600481106132be577f4e487b7100000000000000000000000000000000000000000000000000000000600052603260045260246000fd5b60200201818152505085806132fc577f4e487b7100000000000000000000000000000000000000000000000000000000600052601260045260246000fd5b81600060048110613336577f4e487b7100000000000000000000000000000000000000000000000000000000600052603260045260246000fd5b602002015182600060048110613375577f4e487b7100000000000000000000000000000000000000000000000000000000600052603260045260246000fd5b602002015109816002600481106133b5577f4e487b7100000000000000000000000000000000000000000000000000000000600052603260045260246000fd5b60200201818152505085806133f3577f4e487b7100000000000000000000000000000000000000000000000000000000600052601260045260246000fd5b8160006004811061342d577f4e487b7100000000000000000000000000000000000000000000000000000000600052603260045260246000fd5b60200201518260026004811061346c577f4e487b7100000000000000000000000000000000000000000000000000000000600052603260045260246000fd5b602002015109816003600481106134ac577f4e487b7100000000000000000000000000000000000000000000000000000000600052603260045260246000fd5b602002018181525050600086806134ec577f4e487b7100000000000000000000000000000000000000000000000000000000600052601260045260246000fd5b82600360048110613526577f4e487b7100000000000000000000000000000000000000000000000000000000600052603260045260246000fd5b60200201518861353691906151f2565b888061356b577f4e487b7100000000000000000000000000000000000000000000000000000000600052601260045260246000fd5b846001600481106135a5577f4e487b7100000000000000000000000000000000000000000000000000000000600052603260045260246000fd5b6020020151856001600481106135e4577f4e487b7100000000000000000000000000000000000000000000000000000000600052603260045260246000fd5b6020020151090890508680613622577f4e487b7100000000000000000000000000000000000000000000000000000000600052601260045260246000fd5b8780613657577f4e487b7100000000000000000000000000000000000000000000000000000000600052601260045260246000fd5b888061368c577f4e487b7100000000000000000000000000000000000000000000000000000000600052601260045260246000fd5b846002600481106136c6577f4e487b7100000000000000000000000000000000000000000000000000000000600052603260045260246000fd5b602002015186600060048110613705577f4e487b7100000000000000000000000000000000000000000000000000000000600052603260045260246000fd5b6020020151096002098861371991906151f2565b8208905060008780613754577f4e487b7100000000000000000000000000000000000000000000000000000000600052601260045260246000fd5b8880613789577f4e487b7100000000000000000000000000000000000000000000000000000000600052601260045260246000fd5b838a61379591906151f2565b8a806137ca577f4e487b7100000000000000000000000000000000000000000000000000000000600052601260045260246000fd5b86600260048110613804577f4e487b7100000000000000000000000000000000000000000000000000000000600052603260045260246000fd5b602002015188600060048110613843577f4e487b7100000000000000000000000000000000000000000000000000000000600052603260045260246000fd5b6020020151090884600160048110613884577f4e487b7100000000000000000000000000000000000000000000000000000000600052603260045260246000fd5b602002015109905087806138c1577f4e487b7100000000000000000000000000000000000000000000000000000000600052601260045260246000fd5b88806138f6577f4e487b7100000000000000000000000000000000000000000000000000000000600052601260045260246000fd5b84600360048110613930577f4e487b7100000000000000000000000000000000000000000000000000000000600052603260045260246000fd5b60200201518660016004811061396f577f4e487b7100000000000000000000000000000000000000000000000000000000600052603260045260246000fd5b6020020151098961398091906151f2565b82089050600088806139bb577f4e487b7100000000000000000000000000000000000000000000000000000000600052601260045260246000fd5b89806139f0577f4e487b7100000000000000000000000000000000000000000000000000000000600052601260045260246000fd5b8b8f0985600060048110613a2d577f4e487b7100000000000000000000000000000000000000000000000000000000600052603260045260246000fd5b602002015109905082828297509750975050505050505b9750975097945050505050565b600080600080861415613a6c57878787925092509250613ed7565b60008480613aa3577f4e487b7100000000000000000000000000000000000000000000000000000000600052601260045260246000fd5b898a09905060008580613adf577f4e487b7100000000000000000000000000000000000000000000000000000000600052601260045260246000fd5b898a09905060008680613b1b577f4e487b7100000000000000000000000000000000000000000000000000000000600052601260045260246000fd5b898a09905060008780613b57577f4e487b7100000000000000000000000000000000000000000000000000000000600052601260045260246000fd5b8880613b8c577f4e487b7100000000000000000000000000000000000000000000000000000000600052601260045260246000fd5b848e09600409905060008880613bcb577f4e487b7100000000000000000000000000000000000000000000000000000000600052601260045260246000fd5b8980613c00577f4e487b7100000000000000000000000000000000000000000000000000000000600052601260045260246000fd5b8a80613c35577f4e487b7100000000000000000000000000000000000000000000000000000000600052601260045260246000fd5b8586098c098a80613c6f577f4e487b7100000000000000000000000000000000000000000000000000000000600052601260045260246000fd5b876003090890508880613cab577f4e487b7100000000000000000000000000000000000000000000000000000000600052601260045260246000fd5b8980613ce0577f4e487b7100000000000000000000000000000000000000000000000000000000600052601260045260246000fd5b8384088a613cee91906151f2565b8a80613d23577f4e487b7100000000000000000000000000000000000000000000000000000000600052601260045260246000fd5b8384090894508880613d5e577f4e487b7100000000000000000000000000000000000000000000000000000000600052601260045260246000fd5b8980613d93577f4e487b7100000000000000000000000000000000000000000000000000000000600052601260045260246000fd5b8a80613dc8577f4e487b7100000000000000000000000000000000000000000000000000000000600052601260045260246000fd5b8687096008098a613dd991906151f2565b8a80613e0e577f4e487b7100000000000000000000000000000000000000000000000000000000600052601260045260246000fd5b8b80613e43577f4e487b7100000000000000000000000000000000000000000000000000000000600052601260045260246000fd5b888d613e4f91906151f2565b860884090893508880613e8b577f4e487b7100000000000000000000000000000000000000000000000000000000600052601260045260246000fd5b8980613ec0577f4e487b7100000000000000000000000000000000000000000000000000000000600052601260045260246000fd5b8c8e09600209925084848497509750975050505050505b955095509592505050565b6000808314158015613ef45750818314155b8015613f01575060008214155b613f40576040517f08c379a0000000000000000000000000000000000000000000000000000000008152600401613f3790615021565b60405180910390fd5b60008060019050600084905060005b6000871461400d578682613f639190615167565b9050828680613f9b577f4e487b7100000000000000000000000000000000000000000000000000000000600052601260045260246000fd5b8780613fd0577f4e487b7100000000000000000000000000000000000000000000000000000000600052601260045260246000fd5b85840988613fde91906151f2565b86088094508195505050868782613ff59190615198565b8361400091906151f2565b8098508193505050613f4f565b8394505050505092915050565b828054614026906152c7565b90600052602060002090601f016020900481019282614048576000855561408f565b82601f1061406157805160ff191683800117855561408f565b8280016001018555821561408f579182015b8281111561408e578251825591602001919060010190614073565b5b50905061409c919061414f565b5090565b8280546140ac906152c7565b90600052602060002090601f0160209004810192826140ce576000855561411c565b82601f106140df578054855561411c565b8280016001018555821561411c57600052602060002091601f016020900482015b8281111561411b578254825591600101919060010190614100565b5b509050614129919061414f565b5090565b6040518060800160405280600490602082028036833780820191505090505090565b5b80821115614168576000816000905550600101614150565b5090565b600061417f61417a846150e0565b6150af565b90508281526020810184848401111561419757600080fd5b6141a2848285615285565b509392505050565b60006141bd6141b884615110565b6150af565b9050828152602081018484840111156141d557600080fd5b6141e0848285615285565b509392505050565b6000813590506141f781615454565b92915050565b600082601f83011261420e57600080fd5b813561421e84826020860161416c565b91505092915050565b600082601f83011261423857600080fd5b81356142488482602086016141aa565b91505092915050565b6000813590506142608161546b565b92915050565b60006020828403121561427857600080fd5b6000614286848285016141e8565b91505092915050565b600080604083850312156142a257600080fd5b60006142b0858286016141e8565b925050602083013567ffffffffffffffff8111156142cd57600080fd5b6142d9858286016141fd565b9150509250929050565b6000602082840312156142f557600080fd5b600082013567ffffffffffffffff81111561430f57600080fd5b61431b84828501614227565b91505092915050565b60008060006060848603121561433957600080fd5b600084013567ffffffffffffffff81111561435357600080fd5b61435f86828701614227565b935050602084013567ffffffffffffffff81111561437c57600080fd5b614388868287016141fd565b925050604061439986828701614251565b9150509250925092565b600080604083850312156143b657600080fd5b600083013567ffffffffffffffff8111156143d057600080fd5b6143dc85828601614227565b925050602083013567ffffffffffffffff8111156143f957600080fd5b61440585828601614227565b9150509250929050565b600080600080600060a0868803121561442757600080fd5b600086013567ffffffffffffffff81111561444157600080fd5b61444d88828901614227565b955050602086013567ffffffffffffffff81111561446a57600080fd5b61447688828901614227565b945050604086013567ffffffffffffffff81111561449357600080fd5b61449f88828901614227565b935050606086013567ffffffffffffffff8111156144bc57600080fd5b6144c888828901614227565b925050608086013567ffffffffffffffff8111156144e557600080fd5b6144f188828901614227565b9150509295509295909350565b6000806040838503121561451157600080fd5b600083013567ffffffffffffffff81111561452b57600080fd5b61453785828601614227565b925050602061454885828601614251565b9150509250929050565b60006020828403121561456457600080fd5b600061457284828501614251565b91505092915050565b60008060006060848603121561459057600080fd5b600061459e86828701614251565b935050602084013567ffffffffffffffff8111156145bb57600080fd5b6145c786828701614227565b925050604084013567ffffffffffffffff8111156145e457600080fd5b6145f086828701614227565b9150509250925092565b6000806040838503121561460d57600080fd5b600061461b85828601614251565b925050602061462c85828601614251565b9150509250929050565b61463f81615226565b82525050565b61465661465182615226565b615342565b82525050565b61466581615238565b82525050565b61467481615244565b82525050565b61468b61468682615244565b615354565b82525050565b600061469c82615140565b6146a6818561514b565b93506146b6818560208601615294565b6146bf81615436565b840191505092915050565b60006146d582615140565b6146df818561515c565b93506146ef818560208601615294565b80840191505092915050565b6000614708601e8361514b565b91507f4f6e6c7920726567697374657265642075736572732063616e20766f746500006000830152602082019050919050565b6000614748600d8361514b565b91507f416c726561647920566f746564000000000000000000000000000000000000006000830152602082019050919050565b6000614788601c8361515c565b91507f19457468657265756d205369676e6564204d6573736167653a0a3332000000006000830152601c82019050919050565b60006147c860118361514b565b91507f486173206265656e2065786563757465640000000000000000000000000000006000830152602082019050919050565b600061480860118361514b565b91507f4e6f7420456e6f75676820566f746572730000000000000000000000000000006000830152602082019050919050565b600061484860158361514b565b91507f4e6f7420456e6f7567682043616e6469646174657300000000000000000000006000830152602082019050919050565b600061488860108361514b565b91507f4e6f7420456e6f75676820566f746573000000000000000000000000000000006000830152602082019050919050565b60006148c860128361514b565b91507f566f74696e6720696e2070726f677265737300000000000000000000000000006000830152602082019050919050565b6000614908602b8361514b565b91507f43616e6e6f74206164642063616e6469646174657320647572696e6720766f7460008301527f696e672070726f636573730000000000000000000000000000000000000000006020830152604082019050919050565b600061496e601e8361514b565b91507f557365206a6163446f75626c652066756e6374696f6e20696e737465616400006000830152602082019050919050565b60006149ae60218361514b565b91507f546865207075626c6963206164647265737320616c726561647920696e20757360008301527f65000000000000000000000000000000000000000000000000000000000000006020830152604082019050919050565b6000614a1460158361514b565b91507f41646d696e2043616e6e6f7420726567697374657200000000000000000000006000830152602082019050919050565b6000614a5460138361514b565b91507f566f74657220616c726561647920766f746564000000000000000000000000006000830152602082019050919050565b6000614a94601a8361514b565b91507f506572736f6e616c20494420616c726561647920696e207573650000000000006000830152602082019050919050565b6000614ad460248361514b565b91507f4f6e6c792041646d696e2063616e20706572666f726d20746869732066756e6360008301527f74696f6e000000000000000000000000000000000000000000000000000000006020830152604082019050919050565b6000614b3a60188361514b565b91507f696e76616c6964207369676e6174757265206c656e67746800000000000000006000830152602082019050919050565b6000614b7a600e8361514b565b91507f496e76616c6964206e756d6265720000000000000000000000000000000000006000830152602082019050919050565b614bb68161526e565b82525050565b614bcd614bc88261526e565b615370565b82525050565b614bdc81615278565b82525050565b6000614bee8286614645565b601482019150614bfe82856146ca565b9150614c0a8284614bbc565b602082019150819050949350505050565b6000614c268261477b565b9150614c32828461467a565b60208201915081905092915050565b6000614c4d8285614bbc565b602082019150614c5d8284614645565b6014820191508190509392505050565b6000602082019050614c826000830184614636565b92915050565b6000602082019050614c9d600083018461465c565b92915050565b6000602082019050614cb8600083018461466b565b92915050565b6000608082019050614cd3600083018761466b565b614ce06020830186614bd3565b614ced604083018561466b565b614cfa606083018461466b565b95945050505050565b60006020820190508181036000830152614d1d8184614691565b905092915050565b60006040820190508181036000830152614d3f8185614691565b90508181036020830152614d538184614691565b90509392505050565b60006080820190508181036000830152614d768187614691565b90508181036020830152614d8a8186614691565b90508181036040830152614d9e8185614691565b9050614dad606083018461465c565b95945050505050565b600060e0820190508181036000830152614dd0818a614691565b90508181036020830152614de48189614691565b90508181036040830152614df88188614691565b90508181036060830152614e0c8187614691565b9050614e1b608083018661465c565b614e2860a083018561465c565b614e3560c083018461465c565b98975050505050505050565b60006020820190508181036000830152614e5a816146fb565b9050919050565b60006020820190508181036000830152614e7a8161473b565b9050919050565b60006020820190508181036000830152614e9a816147bb565b9050919050565b60006020820190508181036000830152614eba816147fb565b9050919050565b60006020820190508181036000830152614eda8161483b565b9050919050565b60006020820190508181036000830152614efa8161487b565b9050919050565b60006020820190508181036000830152614f1a816148bb565b9050919050565b60006020820190508181036000830152614f3a816148fb565b9050919050565b60006020820190508181036000830152614f5a81614961565b9050919050565b60006020820190508181036000830152614f7a816149a1565b9050919050565b60006020820190508181036000830152614f9a81614a07565b9050919050565b60006020820190508181036000830152614fba81614a47565b9050919050565b60006020820190508181036000830152614fda81614a87565b9050919050565b60006020820190508181036000830152614ffa81614ac7565b9050919050565b6000602082019050818103600083015261501a81614b2d565b9050919050565b6000602082019050818103600083015261503a81614b6d565b9050919050565b60006020820190506150566000830184614bad565b92915050565b60006080820190506150716000830187614bad565b81810360208301526150838186614691565b905081810360408301526150978185614691565b90506150a66060830184614bad565b95945050505050565b6000604051905081810181811067ffffffffffffffff821117156150d6576150d5615407565b5b8060405250919050565b600067ffffffffffffffff8211156150fb576150fa615407565b5b601f19601f8301169050602081019050919050565b600067ffffffffffffffff82111561512b5761512a615407565b5b601f19601f8301169050602081019050919050565b600081519050919050565b600082825260208201905092915050565b600081905092915050565b60006151728261526e565b915061517d8361526e565b92508261518d5761518c6153a9565b5b828204905092915050565b60006151a38261526e565b91506151ae8361526e565b9250817fffffffffffffffffffffffffffffffffffffffffffffffffffffffffffffffff04831182151516156151e7576151e661537a565b5b828202905092915050565b60006151fd8261526e565b91506152088361526e565b92508282101561521b5761521a61537a565b5b828203905092915050565b60006152318261524e565b9050919050565b60008115159050919050565b6000819050919050565b600073ffffffffffffffffffffffffffffffffffffffff82169050919050565b6000819050919050565b600060ff82169050919050565b82818337600083830152505050565b60005b838110156152b2578082015181840152602081019050615297565b838111156152c1576000848401525b50505050565b600060028204905060018216806152df57607f821691505b602082108114156152f3576152f26153d8565b5b50919050565b60006153048261526e565b91507fffffffffffffffffffffffffffffffffffffffffffffffffffffffffffffffff8214156153375761533661537a565b5b600182019050919050565b600061534d8261535e565b9050919050565b6000819050919050565b600061536982615447565b9050919050565b6000819050919050565b7f4e487b7100000000000000000000000000000000000000000000000000000000600052601160045260246000fd5b7f4e487b7100000000000000000000000000000000000000000000000000000000600052601260045260246000fd5b7f4e487b7100000000000000000000000000000000000000000000000000000000600052602260045260246000fd5b7f4e487b7100000000000000000000000000000000000000000000000000000000600052604160045260246000fd5b6000601f19601f8301169050919050565b60008160601b9050919050565b61545d81615244565b811461546857600080fd5b50565b6154748161526e565b811461547f57600080fd5b5056fea264697066735822122085e2c34eb0e72cfd17534579d6f08003daba110ef3eed4f2b5d78429c9159f7964736f6c63430008000033",
  "immutableReferences": {},
  "source": "// SPDX-License-Identifier: MIT \r\npragma solidity  ^0.8.0;\r\nimport \"./EllipticCurve.sol\";\r\nimport \"@openzeppelin/contracts/utils/Strings.sol\";\r\n\r\n\r\n\r\ncontract Election { \r\n\r\n    struct voter {\r\n        bytes32 personal_id; //their personal id\r\n        bool hasVoted; //have they voted\r\n        address public_Address; //public address to wallet\r\n        string email; //email address for communication\r\n        string name; //name of voter \r\n        string surname; \r\n        string refNUm; \r\n        bool isRegistered;\r\n        uint256 PrivateKey;\r\n        bool  isVerifiedUser;\r\n        uint position;\r\n    }\r\n \r\n    struct votingRecords{\r\n        string ref;\r\n        string voteDate;\r\n        string voteTime;\r\n        bool isVerified;\r\n    }\r\n\r\n    \r\n\r\n\r\n     // Model a Candidate\r\n    struct Candidate {\r\n        uint id;\r\n        string name;\r\n        string party;\r\n        uint voteCount;\r\n    }\r\n    //ECC CONSTANTS - SECPTIC256\r\n    uint256 private constant GX = 0x79BE667EF9DCBBAC55A06295CE870B07029BFCDB2DCE28D959F2815B16F81798;\r\n    uint256 private constant GY = 0x483ADA7726A3C4655DA4FBFC0E1108A8FD17B448A68554199C47D08FFB10D4B8;\r\n    uint256 private constant AA = 0;\r\n    uint256 private constant BB = 7;\r\n    uint256 private constant PP = 0xFFFFFFFFFFFFFFFFFFFFFFFFFFFFFFFFFFFFFFFFFFFFFFFFFFFFFFFEFFFFFC2F;\r\n\r\n    // Read/write candidate\r\n    mapping(uint => Candidate) public candidates;\r\n\r\n    // Store accounts that have voted\r\n    mapping(address => voter) private voters;\r\n\r\n    mapping(uint => votingRecords) public votingTrails;\r\n\r\n    // Stores encyrted ID'S\r\n    mapping(bytes32 => address) private verifier;\r\n    mapping(uint => address) private recorder;\r\n\r\n    mapping(bytes32 => bool) private adminSignatures; //saves history of Admin signature to curb Signature Replay Attack\r\n\r\n\r\n    // Store Candidates Count\r\n    uint public candidatesCount;\r\n\r\n    // Stores Election phase\r\n    string public phase;\r\n\r\n    uint private minimum_candidates =2;\r\n    uint private minVotes = 2;\r\n\r\n    // Store number of voters\r\n    uint public votersCount;\r\n\r\n    //number of total votes\r\n    uint public numVotes;\r\n\r\n    string[3] phases = [\"registration\" , \"voting\", \"results\"];\r\n    uint private phasePointer;\r\n\r\n    // Admin is set once, when contract is deployed. Also saves gas fees\r\n    address private admin;\r\n\r\n    constructor() public { \r\n        admin = msg.sender; //the deployer of the contract is the admin\r\n        phase=\"Election has not started\";\r\n    } \r\n\r\n    modifier onlyAdmin(){\r\n\t\trequire(msg.sender==admin, \"Only Admin can perform this function\");\r\n\t\t_;\r\n\t}\r\n\r\n       // Add a candidate\r\n    function addCandidate (string memory _name, string memory _party) onlyAdmin public {\r\n        require(phasePointer<=0, \"Cannot add candidates during voting process\");\r\n        candidatesCount ++;\r\n        candidates[candidatesCount] = Candidate({\r\n            id: candidatesCount, \r\n            name: _name,\r\n            party: _party, \r\n            voteCount: 0\r\n            });\r\n    }\r\n\r\n\r\n     // Add a voter\r\n    function addVoter (string memory _personal_id, string memory _email, string memory _name, string memory _surname, string memory _ref) public {\r\n            require(msg.sender != admin, \"Admin Cannot register\"); //require that the user is not registered\r\n            address _pAdress = msg.sender; \r\n            bytes32 encrypt_id = keccak256_encrypt(_personal_id);  //encrypt personal id\r\n            voter storage user = voters[_pAdress];\r\n            require(!user.isRegistered, \"The public address already in use\"); //require that the user is not registered\r\n\r\n            //require that personal_id is not already in use\r\n            require(verifier[encrypt_id] == 0x0000000000000000000000000000000000000000, \"Personal ID already in use\");\r\n            recorder[votersCount] = _pAdress;\r\n            voters[_pAdress] = voter( {personal_id: encrypt_id, \r\n                            hasVoted:false, \r\n                            public_Address:_pAdress,\r\n                            email: _email, \r\n                            name:_name, \r\n                            surname: _surname, \r\n                            refNUm: _ref,\r\n                            isRegistered:true,\r\n                            PrivateKey:0,\r\n                            isVerifiedUser:false,\r\n                            position:0\r\n                    });\r\n            \r\n           \r\n            verifier[encrypt_id] = _pAdress;\r\n            votersCount ++;\r\n            \r\n    }\r\n\r\n    //get voter details to display to voter\r\n    function getVoter() public view returns(string memory, string memory, string memory, string memory, bool, bool, bool){\r\n            return(voters[msg.sender].name, voters[msg.sender].surname, voters[msg.sender].email, \r\n            voters[msg.sender].refNUm, voters[msg.sender].isRegistered, voters[msg.sender].hasVoted, voters[msg.sender].isVerifiedUser);             \r\n    }\r\n\r\n    //returns true if voter registered\r\n    function isVoter_Registered() public view returns (bool){\r\n        return voters[msg.sender].isRegistered;\r\n    }\r\n\r\n    \r\n  // https://stackoverflow.com/questions/73555009/how-to-generate-random-words-in-solidity-based-based-on-a-string-of-letters/73557284#73557284\r\n  function random() public view returns (uint) {\r\n        return uint (keccak256(abi.encodePacked (block.timestamp, msg.sender)));\r\n     }\r\n\r\n     //returns true if voter registered\r\n    function has_Voted() public view returns (bool){\r\n        return voters[msg.sender].hasVoted;\r\n    }\r\n\r\n    // voting function, all accounts can vote\r\n    function vote (uint _candidateId, string memory _date, string memory _time) public {\r\n\r\n        //must be registered to vote\r\n        require(voters[msg.sender].isRegistered, \"Only registered users can vote\");\r\n\r\n        // require that they haven't voted before\r\n        require(!voters[msg.sender].hasVoted, \"Already Voted\"); \r\n        \r\n        // require a valid candidate\r\n        require(_candidateId > 0 && _candidateId <= candidatesCount);\r\n\r\n        // record that voter has voted\r\n        voters[msg.sender].hasVoted = true;\r\n\r\n        // update candidate vote Count\r\n        candidates[_candidateId].voteCount ++; //add vote to candidate\r\n\r\n        voters[msg.sender].PrivateKey = random();  //CREATE PRIVATE KEY *****\r\n    \r\n        votingTrails[numVotes] = votingRecords({ //keep record of vote\r\n                                                ref:voters[msg.sender].refNUm,\r\n                                                voteDate:_date,\r\n                                                voteTime:_time,\r\n                                                isVerified:false\r\n                                         });\r\n        voters[msg.sender].position = numVotes; //store position of vote\r\n        numVotes++; //increase vote count\r\n        \r\n    }\r\n\r\n    //Return voter keys\r\n     function copyKeys() public view returns(string memory, string memory){\r\n            (uint256 p1, uint256 p2) = EllipticCurve.ecMul(voters[msg.sender].PrivateKey,GX,GY,AA,PP); \r\n            while(!EllipticCurve.isOnCurve(p1, p2, AA, BB, PP)){ //If points returned are not on the curve, iterate again\r\n                 (p1, p2) = EllipticCurve.ecMul(voters[msg.sender].PrivateKey,GX,GY,AA,PP); \r\n            }\r\n            return (Strings.toString(p1), Strings.toString(p2));          \r\n    }\r\n \r\n    //verify vote\r\n    function verifyVote(uint _key1, uint _key2) public{\r\n                 //must be registered to vote\r\n        require(voters[msg.sender].isRegistered, \"Only registered users can vote\");\r\n\r\n        // require that they haven't voted before\r\n        require(voters[msg.sender].hasVoted, \"Already Voted\");\r\n\r\n        require(!voters[msg.sender].isVerifiedUser, \"Voter already voted\");\r\n\r\n        (uint256 p1, uint256 p2) = EllipticCurve.ecMul(voters[msg.sender].PrivateKey,GX,GY,AA,PP); //creating public keys from the user address\r\n\r\n        if(p1==_key1 && _key2==p2 ){ //public keys match\r\n            votingTrails[voters[msg.sender].position].isVerified = true;\r\n            voters[msg.sender].isVerifiedUser = true;\r\n        }\r\n    }\r\n\r\n    // start election\r\n    function startElection() onlyAdmin public {\r\n            require(phasePointer!=1 && phasePointer!=2, \"Voting in progress\");\r\n            phasePointer = 0;\r\n            phase = phases[phasePointer]; //contract is deployed in the registration phase\r\n    \r\n    }\r\n\r\n    //change election phase\r\n    function changePhase() onlyAdmin public {\r\n        phasePointer++;\r\n        if (phasePointer <3) {\r\n            if(phasePointer == 1){ //from registration to voting\r\n                require(votersCount>candidatesCount, \"Not Enough Voters\"); //3 VOTES, 2 CANDIDATES\r\n                require(candidatesCount>=minimum_candidates, \"Not Enough Candidates\"); //MINIMUM OF 2 CANDIDATES\r\n                phase = phases[phasePointer];\r\n            }\r\n             if(phasePointer == 2){ //from voting to results\r\n                require(numVotes>=minVotes, \"Not Enough Votes\"); //MINIMUM OF 2 VOTES\r\n                phase = phases[phasePointer];\r\n            }\r\n            \r\n        } else {\r\n            phase = \"Election ended\";\r\n        }\r\n\r\n    }\r\n\r\n\r\n    //hash function\r\n    function keccak256_encrypt(string memory text) public pure returns (bytes32) {\r\n        return keccak256(abi.encode(text));\r\n    }\r\n\r\n    function getWinner() public view returns(string memory) {\r\n        uint winner = 1;\r\n        uint voterS = candidates[1].voteCount;\r\n        for (uint index = 2; index <=  candidatesCount; index++) {\r\n            if(candidates[index].voteCount > voterS){\r\n                winner = index;\r\n                voterS = candidates[index].voteCount;\r\n                }\r\n        }\r\n        return (candidates[winner].name);\r\n\r\n    }\r\n\r\n\r\n    //<----------------------------------- Verifies signed message -------------------------------->\r\n    function verify (string memory _message, bytes memory _sig, uint _nonce) public returns (bool) {\r\n        bytes32 hash_SMS = getHash(_message, _nonce);\r\n        require(!adminSignatures[hash_SMS], \"Has been executed\"); //must be a new signature\r\n        bytes32 ethSignedMessageHash = getEthSignedHash(hash_SMS);\r\n        adminSignatures[hash_SMS] = true;\r\n        return recover(ethSignedMessageHash, _sig) == admin;\r\n    }\r\n    \r\n    //has a tring\r\n    function getHash (string memory sms, uint _nonce) public view returns (bytes32){\r\n        return keccak256(abi.encodePacked(address(this),sms, _nonce));\r\n    }\r\n\r\n\r\n    function getEthSignedHash (bytes32 sms) public pure returns (bytes32){\r\n        return keccak256(abi.encodePacked(\"\\x19Ethereum Signed Message:\\n32\", sms));\r\n    }\r\n\r\n\r\n    //recover account of original signer of message\r\n    function recover(bytes32 _ethSignedMessageHash, bytes memory _sig) public pure returns (address){\r\n            (bytes32 r, bytes32 s, uint8 v) = _split(_sig); //split signature into params\r\n            return ecrecover(_ethSignedMessageHash, v, r, s); //returns the address of the signer given the signed message\r\n    }\r\n\r\n    function _split(bytes memory _sig) internal pure returns (bytes32 r, bytes32 s, uint8 v){\r\n            require(_sig.length == 65, \"invalid signature length\");\r\n\r\n            assembly {\r\n                r := mload(add(_sig, 32))  //skip first 32-byetes as they hold the length\r\n                s := mload(add(_sig, 64))\r\n                v := byte(0, mload(add(_sig, 96)))\r\n\r\n            }\r\n    }\r\n\r\n    //<----------------------------------- ECC CRYPTOGRAPHY -------------------------------->\r\n\r\n}",
  "sourcePath": "C:\\Users\\Student\\Documents\\crypto\\Code\\contracts\\Election.sol",
  "compiler": {
    "name": "solc",
    "version": "0.8.0+commit.c7dfd78e.Emscripten.clang"
  },
  "schemaVersion": "3.4.16",
  "updatedAt": "2023-09-30T20:20:32.609Z",
  "networkType": "ethereum",
  "devdoc": {
    "kind": "dev",
    "methods": {},
    "version": 1
  },
  "userdoc": {
    "kind": "user",
    "methods": {},
    "version": 1
  }
}