{
  "contractName": "Election",
  "abi": [
    {
      "inputs": [],
      "stateMutability": "nonpayable",
      "type": "constructor"
    },
    {
      "inputs": [
        {
          "internalType": "uint256",
          "name": "",
          "type": "uint256"
        }
      ],
      "name": "candidates",
      "outputs": [
        {
          "internalType": "uint256",
          "name": "id",
          "type": "uint256"
        },
        {
          "internalType": "string",
          "name": "name",
          "type": "string"
        },
        {
          "internalType": "string",
          "name": "party",
          "type": "string"
        },
        {
          "internalType": "uint256",
          "name": "voteCount",
          "type": "uint256"
        }
      ],
      "stateMutability": "view",
      "type": "function",
      "constant": true
    },
    {
      "inputs": [],
      "name": "candidatesCount",
      "outputs": [
        {
          "internalType": "uint256",
          "name": "",
          "type": "uint256"
        }
      ],
      "stateMutability": "view",
      "type": "function",
      "constant": true
    },
    {
      "inputs": [],
      "name": "numVotes",
      "outputs": [
        {
          "internalType": "uint256",
          "name": "",
          "type": "uint256"
        }
      ],
      "stateMutability": "view",
      "type": "function",
      "constant": true
    },
    {
      "inputs": [],
      "name": "phase",
      "outputs": [
        {
          "internalType": "string",
          "name": "",
          "type": "string"
        }
      ],
      "stateMutability": "view",
      "type": "function",
      "constant": true
    },
    {
      "inputs": [],
      "name": "votersCount",
      "outputs": [
        {
          "internalType": "uint256",
          "name": "",
          "type": "uint256"
        }
      ],
      "stateMutability": "view",
      "type": "function",
      "constant": true
    },
    {
      "inputs": [
        {
          "internalType": "uint256",
          "name": "",
          "type": "uint256"
        }
      ],
      "name": "votingTrails",
      "outputs": [
        {
          "internalType": "string",
          "name": "ref",
          "type": "string"
        },
        {
          "internalType": "string",
          "name": "voteDate",
          "type": "string"
        },
        {
          "internalType": "string",
          "name": "voteTime",
          "type": "string"
        },
        {
          "internalType": "bool",
          "name": "isVerified",
          "type": "bool"
        }
      ],
      "stateMutability": "view",
      "type": "function",
      "constant": true
    },
    {
      "inputs": [
        {
          "internalType": "string",
          "name": "_name",
          "type": "string"
        },
        {
          "internalType": "string",
          "name": "_party",
          "type": "string"
        }
      ],
      "name": "addCandidate",
      "outputs": [],
      "stateMutability": "nonpayable",
      "type": "function"
    },
    {
      "inputs": [
        {
          "internalType": "string",
          "name": "_personal_id",
          "type": "string"
        },
        {
          "internalType": "string",
          "name": "_email",
          "type": "string"
        },
        {
          "internalType": "string",
          "name": "_name",
          "type": "string"
        },
        {
          "internalType": "string",
          "name": "_surname",
          "type": "string"
        },
        {
          "internalType": "string",
          "name": "_ref",
          "type": "string"
        }
      ],
      "name": "addVoter",
      "outputs": [],
      "stateMutability": "nonpayable",
      "type": "function"
    },
    {
      "inputs": [],
      "name": "getVoter",
      "outputs": [
        {
          "internalType": "string",
          "name": "",
          "type": "string"
        },
        {
          "internalType": "string",
          "name": "",
          "type": "string"
        },
        {
          "internalType": "string",
          "name": "",
          "type": "string"
        },
        {
          "internalType": "string",
          "name": "",
          "type": "string"
        },
        {
          "internalType": "bool",
          "name": "",
          "type": "bool"
        },
        {
          "internalType": "bool",
          "name": "",
          "type": "bool"
        },
        {
          "internalType": "bool",
          "name": "",
          "type": "bool"
        }
      ],
      "stateMutability": "view",
      "type": "function",
      "constant": true
    },
    {
      "inputs": [],
      "name": "isVoter_Registered",
      "outputs": [
        {
          "internalType": "bool",
          "name": "",
          "type": "bool"
        }
      ],
      "stateMutability": "view",
      "type": "function",
      "constant": true
    },
    {
      "inputs": [],
      "name": "random",
      "outputs": [
        {
          "internalType": "uint256",
          "name": "",
          "type": "uint256"
        }
      ],
      "stateMutability": "nonpayable",
      "type": "function"
    },
    {
      "inputs": [],
      "name": "has_Voted",
      "outputs": [
        {
          "internalType": "bool",
          "name": "",
          "type": "bool"
        }
      ],
      "stateMutability": "view",
      "type": "function",
      "constant": true
    },
    {
      "inputs": [
        {
          "internalType": "uint256",
          "name": "_candidateId",
          "type": "uint256"
        },
        {
          "internalType": "string",
          "name": "_date",
          "type": "string"
        },
        {
          "internalType": "string",
          "name": "_time",
          "type": "string"
        }
      ],
      "name": "vote",
      "outputs": [],
      "stateMutability": "nonpayable",
      "type": "function"
    },
    {
      "inputs": [],
      "name": "copyKeys",
      "outputs": [
        {
          "internalType": "string",
          "name": "",
          "type": "string"
        },
        {
          "internalType": "string",
          "name": "",
          "type": "string"
        }
      ],
      "stateMutability": "view",
      "type": "function",
      "constant": true
    },
    {
      "inputs": [],
      "name": "testEncryption",
      "outputs": [],
      "stateMutability": "nonpayable",
      "type": "function"
    },
    {
      "inputs": [
        {
          "internalType": "uint256",
          "name": "_key1",
          "type": "uint256"
        },
        {
          "internalType": "uint256",
          "name": "_key2",
          "type": "uint256"
        }
      ],
      "name": "verifyVote",
      "outputs": [],
      "stateMutability": "nonpayable",
      "type": "function"
    },
    {
      "inputs": [],
      "name": "startElection",
      "outputs": [],
      "stateMutability": "nonpayable",
      "type": "function"
    },
    {
      "inputs": [],
      "name": "changePhase",
      "outputs": [],
      "stateMutability": "nonpayable",
      "type": "function"
    },
    {
      "inputs": [
        {
          "internalType": "string",
          "name": "text",
          "type": "string"
        }
      ],
      "name": "keccak256_encrypt",
      "outputs": [
        {
          "internalType": "bytes32",
          "name": "",
          "type": "bytes32"
        }
      ],
      "stateMutability": "pure",
      "type": "function",
      "constant": true
    },
    {
      "inputs": [],
      "name": "getWinner",
      "outputs": [
        {
          "internalType": "string",
          "name": "",
          "type": "string"
        }
      ],
      "stateMutability": "view",
      "type": "function",
      "constant": true
    },
    {
      "inputs": [
        {
          "internalType": "string",
          "name": "_message",
          "type": "string"
        },
        {
          "internalType": "bytes",
          "name": "_sig",
          "type": "bytes"
        },
        {
          "internalType": "uint256",
          "name": "_nonce",
          "type": "uint256"
        }
      ],
      "name": "verify",
      "outputs": [
        {
          "internalType": "bool",
          "name": "",
          "type": "bool"
        }
      ],
      "stateMutability": "nonpayable",
      "type": "function"
    },
    {
      "inputs": [
        {
          "internalType": "string",
          "name": "sms",
          "type": "string"
        },
        {
          "internalType": "uint256",
          "name": "_nonce",
          "type": "uint256"
        }
      ],
      "name": "getHash",
      "outputs": [
        {
          "internalType": "bytes32",
          "name": "",
          "type": "bytes32"
        }
      ],
      "stateMutability": "pure",
      "type": "function",
      "constant": true
    },
    {
      "inputs": [
        {
          "internalType": "bytes32",
          "name": "sms",
          "type": "bytes32"
        }
      ],
      "name": "getEthSignedHash",
      "outputs": [
        {
          "internalType": "bytes32",
          "name": "",
          "type": "bytes32"
        }
      ],
      "stateMutability": "pure",
      "type": "function",
      "constant": true
    },
    {
      "inputs": [
        {
          "internalType": "bytes32",
          "name": "_ethSignedMessageHash",
          "type": "bytes32"
        },
        {
          "internalType": "bytes",
          "name": "_sig",
          "type": "bytes"
        }
      ],
      "name": "recover",
      "outputs": [
        {
          "internalType": "address",
          "name": "",
          "type": "address"
        }
      ],
      "stateMutability": "pure",
      "type": "function",
      "constant": true
    }
  ],
  "bytecode": "0x60806040526002600a556002600b5560405180606001604052806040518060400160405280600c81526020017f726567697374726174696f6e000000000000000000000000000000000000000081525081526020016040518060400160405280600681526020017f766f74696e67000000000000000000000000000000000000000000000000000081525081526020016040518060400160405280600781526020017f726573756c747300000000000000000000000000000000000000000000000000815250815250600e906003620000da9291906200017e565b50348015620000e857600080fd5b5033601260006101000a81548173ffffffffffffffffffffffffffffffffffffffff021916908373ffffffffffffffffffffffffffffffffffffffff1602179055506040518060400160405280601881526020017f456c656374696f6e20686173206e6f74207374617274656400000000000000008152506008908051906020019062000177929190620001d8565b506200035b565b8260038101928215620001c5579160200282015b82811115620001c4578251829080519060200190620001b3929190620001d8565b509160200191906001019062000192565b5b509050620001d4919062000269565b5090565b828054620001e690620002f6565b90600052602060002090601f0160209004810192826200020a576000855562000256565b82601f106200022557805160ff191683800117855562000256565b8280016001018555821562000256579182015b828111156200025557825182559160200191906001019062000238565b5b50905062000265919062000291565b5090565b5b808211156200028d5760008181620002839190620002b0565b506001016200026a565b5090565b5b80821115620002ac57600081600090555060010162000292565b5090565b508054620002be90620002f6565b6000825580601f10620002d25750620002f3565b601f016020900490600052602060002090810190620002f2919062000291565b5b50565b600060028204905060018216806200030f57607f821691505b602082108114156200032657620003256200032c565b5b50919050565b7f4e487b7100000000000000000000000000000000000000000000000000000000600052602260045260246000fd5b615769806200036b6000396000f3fe608060405234801561001057600080fd5b50600436106101585760003560e01c80638e7ea5b2116100c3578063c074da241161007c578063c074da24146103ae578063d0a6a870146103de578063d25773b7146103fd578063db6f59531461041b578063e3c0327d14610425578063f731d0e91461045857610158565b80638e7ea5b2146102fc57806398b8b43d1461031a57806398c0793814610338578063a3bef4d714610356578063b108475914610374578063b1c9fe6e1461039057610158565b80632f4ea5ea116101155780632f4ea5ea146102375780633477ee2e146102675780633fee76dc1461029a5780635ec01e4d146102ca57806362d73eb8146102e8578063642d04c1146102f257610158565b806319045a251461015d578063216f6a6e1461018d57806326541b56146101a95780632966e748146101c55780632b37f53c146101f55780632d35a8a214610219575b600080fd5b6101776004803603810190610172919061446f565b610474565b6040516101849190614ede565b60405180910390f35b6101a760048036038101906101a291906147da565b6104e3565b005b6101c360048036038101906101be9190614583565b61079e565b005b6101df60048036038101906101da9190614504565b610919565b6040516101ec9190614ef9565b60405180910390f35b6101fd610ab8565b6040516102109796959493929190615027565b60405180910390f35b610221610f02565b60405161022e91906152f2565b60405180910390f35b610251600480360381019061024c9190614446565b610f08565b60405161025e9190614f14565b60405180910390f35b610281600480360381019061027c9190614732565b610f38565b604051610291949392919061530d565b60405180910390f35b6102b460048036038101906102af91906144c3565b611078565b6040516102c19190614f14565b60405180910390f35b6102d26110a8565b6040516102df91906152f2565b60405180910390f35b6102f06110f9565b005b6102fa61123f565b005b6103046112b8565b6040516103119190614f74565b60405180910390f35b6103226113dd565b60405161032f9190614ef9565b60405180910390f35b610340611434565b60405161034d91906152f2565b60405180910390f35b61035e61143a565b60405161036b91906152f2565b60405180910390f35b61038e6004803603810190610389919061475b565b611440565b005b610398611964565b6040516103a59190614f74565b60405180910390f35b6103c860048036038101906103c391906146de565b6119f2565b6040516103d59190614f14565b60405180910390f35b6103e6611a25565b6040516103f4929190614f96565b60405180910390f35b610405611bec565b6040516104129190614ef9565b60405180910390f35b610423611c43565b005b61043f600480360381019061043a9190614732565b611ee4565b60405161044f9493929190614fcd565b60405180910390f35b610472600480360381019061046d91906145ef565b6120b9565b005b60008060008061048385612546565b925092509250600186828585604051600081526020016040526040516104ac9493929190614f2f565b6020604051602081039080840390855afa1580156104ce573d6000803e3d6000fd5b50505060206040510351935050505092915050565b600160003373ffffffffffffffffffffffffffffffffffffffff1673ffffffffffffffffffffffffffffffffffffffff16815260200190815260200160002060010160009054906101000a900460ff16610572576040517f08c379a0000000000000000000000000000000000000000000000000000000008152600401610569906150d2565b60405180910390fd5b600160003373ffffffffffffffffffffffffffffffffffffffff1673ffffffffffffffffffffffffffffffffffffffff16815260200190815260200160002060080160009054906101000a900460ff1615610602576040517f08c379a00000000000000000000000000000000000000000000000000000000081526004016105f990615132565b60405180910390fd5b6000806106b5600160003373ffffffffffffffffffffffffffffffffffffffff1673ffffffffffffffffffffffffffffffffffffffff168152602001908152602001600020600701547f79be667ef9dcbbac55a06295ce870b07029bfcdb2dce28d959f2815b16f817987f483ada7726a3c4655da4fbfc0e1108a8fd17b448a68554199c47d08ffb10d4b860007ffffffffffffffffffffffffffffffffffffffffffffffffffffffffefffffc2f6125ae565b9150915083821480156106c757508083145b1561079857600160026000600160003373ffffffffffffffffffffffffffffffffffffffff1673ffffffffffffffffffffffffffffffffffffffff16815260200190815260200160002060090154815260200190815260200160002060030160006101000a81548160ff02191690831515021790555060018060003373ffffffffffffffffffffffffffffffffffffffff1673ffffffffffffffffffffffffffffffffffffffff16815260200190815260200160002060080160006101000a81548160ff0219169083151502179055505b50505050565b601260009054906101000a900473ffffffffffffffffffffffffffffffffffffffff1673ffffffffffffffffffffffffffffffffffffffff163373ffffffffffffffffffffffffffffffffffffffff161461082e576040517f08c379a000000000000000000000000000000000000000000000000000000000815260040161082590615272565b60405180910390fd5b60006011541115610874576040517f08c379a000000000000000000000000000000000000000000000000000000000815260040161086b906151d2565b60405180910390fd5b60076000815480929190610887906155aa565b919050555060405180608001604052806007548152602001838152602001828152602001600081525060008060075481526020019081526020016000206000820151816000015560208201518160010190805190602001906108ea9291906141fa565b5060408201518160020190805190602001906109079291906141fa565b50606082015181600301559050505050565b6000601260009054906101000a900473ffffffffffffffffffffffffffffffffffffffff1673ffffffffffffffffffffffffffffffffffffffff163373ffffffffffffffffffffffffffffffffffffffff16146109ab576040517f08c379a00000000000000000000000000000000000000000000000000000000081526004016109a290615272565b60405180910390fd5b60006109b785846119f2565b90506006600082815260200190815260200160002060009054906101000a900460ff1615610a1a576040517f08c379a0000000000000000000000000000000000000000000000000000000008152600401610a11906150f2565b60405180910390fd5b6000610a2582610f08565b905060016006600084815260200190815260200160002060006101000a81548160ff021916908315150217905550601260009054906101000a900473ffffffffffffffffffffffffffffffffffffffff1673ffffffffffffffffffffffffffffffffffffffff16610a968287610474565b73ffffffffffffffffffffffffffffffffffffffff1614925050509392505050565b6060806060806000806000600160003373ffffffffffffffffffffffffffffffffffffffff1673ffffffffffffffffffffffffffffffffffffffff168152602001908152602001600020600301600160003373ffffffffffffffffffffffffffffffffffffffff1673ffffffffffffffffffffffffffffffffffffffff168152602001908152602001600020600401600160003373ffffffffffffffffffffffffffffffffffffffff1673ffffffffffffffffffffffffffffffffffffffff168152602001908152602001600020600201600160003373ffffffffffffffffffffffffffffffffffffffff1673ffffffffffffffffffffffffffffffffffffffff168152602001908152602001600020600501600160003373ffffffffffffffffffffffffffffffffffffffff1673ffffffffffffffffffffffffffffffffffffffff16815260200190815260200160002060060160009054906101000a900460ff16600160003373ffffffffffffffffffffffffffffffffffffffff1673ffffffffffffffffffffffffffffffffffffffff16815260200190815260200160002060010160009054906101000a900460ff16600160003373ffffffffffffffffffffffffffffffffffffffff1673ffffffffffffffffffffffffffffffffffffffff16815260200190815260200160002060080160009054906101000a900460ff16868054610cc790615578565b80601f0160208091040260200160405190810160405280929190818152602001828054610cf390615578565b8015610d405780601f10610d1557610100808354040283529160200191610d40565b820191906000526020600020905b815481529060010190602001808311610d2357829003601f168201915b50505050509650858054610d5390615578565b80601f0160208091040260200160405190810160405280929190818152602001828054610d7f90615578565b8015610dcc5780601f10610da157610100808354040283529160200191610dcc565b820191906000526020600020905b815481529060010190602001808311610daf57829003601f168201915b50505050509550848054610ddf90615578565b80601f0160208091040260200160405190810160405280929190818152602001828054610e0b90615578565b8015610e585780601f10610e2d57610100808354040283529160200191610e58565b820191906000526020600020905b815481529060010190602001808311610e3b57829003601f168201915b50505050509450838054610e6b90615578565b80601f0160208091040260200160405190810160405280929190818152602001828054610e9790615578565b8015610ee45780601f10610eb957610100808354040283529160200191610ee4565b820191906000526020600020905b815481529060010190602001808311610ec757829003601f168201915b50505050509350965096509650965096509650965090919293949596565b60075481565b600081604051602001610f1b9190614e6a565b604051602081830303815290604052805190602001209050919050565b6000602052806000526040600020600091509050806000015490806001018054610f6190615578565b80601f0160208091040260200160405190810160405280929190818152602001828054610f8d90615578565b8015610fda5780601f10610faf57610100808354040283529160200191610fda565b820191906000526020600020905b815481529060010190602001808311610fbd57829003601f168201915b505050505090806002018054610fef90615578565b80601f016020809104026020016040519081016040528092919081815260200182805461101b90615578565b80156110685780601f1061103d57610100808354040283529160200191611068565b820191906000526020600020905b81548152906001019060200180831161104b57829003601f168201915b5050505050908060030154905084565b60008160405160200161108b9190614f74565b604051602081830303815290604052805190602001209050919050565b6000600960008154809291906110bd906155aa565b91905055504260095433306040516020016110db9493929190614e90565b6040516020818303038152906040528051906020012060001c905090565b601260009054906101000a900473ffffffffffffffffffffffffffffffffffffffff1673ffffffffffffffffffffffffffffffffffffffff163373ffffffffffffffffffffffffffffffffffffffff1614611189576040517f08c379a000000000000000000000000000000000000000000000000000000000815260040161118090615272565b60405180910390fd5b60016011541415801561119f5750600260115414155b6111de576040517f08c379a00000000000000000000000000000000000000000000000000000000081526004016111d590615192565b60405180910390fd5b6000601181905550600e60115460038110611222577f4e487b7100000000000000000000000000000000000000000000000000000000600052603260045260246000fd5b01600890805461123190615578565b61123c929190614280565b50565b6112b461124a6110a8565b7f79be667ef9dcbbac55a06295ce870b07029bfcdb2dce28d959f2815b16f817987f483ada7726a3c4655da4fbfc0e1108a8fd17b448a68554199c47d08ffb10d4b860007ffffffffffffffffffffffffffffffffffffffffffffffffffffffffefffffc2f6125ae565b5050565b60606000600190506000806000600181526020019081526020016000206003015490506000600290505b60075481116113375781600080838152602001908152602001600020600301541115611324578092506000808281526020019081526020016000206003015491505b808061132f906155aa565b9150506112e2565b50600080838152602001908152602001600020600101805461135890615578565b80601f016020809104026020016040519081016040528092919081815260200182805461138490615578565b80156113d15780601f106113a6576101008083540402835291602001916113d1565b820191906000526020600020905b8154815290600101906020018083116113b457829003601f168201915b50505050509250505090565b6000600160003373ffffffffffffffffffffffffffffffffffffffff1673ffffffffffffffffffffffffffffffffffffffff16815260200190815260200160002060010160009054906101000a900460ff16905090565b600c5481565b600d5481565b601260009054906101000a900473ffffffffffffffffffffffffffffffffffffffff1673ffffffffffffffffffffffffffffffffffffffff163373ffffffffffffffffffffffffffffffffffffffff1614156114d1576040517f08c379a00000000000000000000000000000000000000000000000000000000081526004016114c8906151b2565b60405180910390fd5b600160003373ffffffffffffffffffffffffffffffffffffffff1673ffffffffffffffffffffffffffffffffffffffff16815260200190815260200160002060060160009054906101000a900460ff16611560576040517f08c379a0000000000000000000000000000000000000000000000000000000008152600401611557906150b2565b60405180910390fd5b600160003373ffffffffffffffffffffffffffffffffffffffff1673ffffffffffffffffffffffffffffffffffffffff16815260200190815260200160002060010160009054906101000a900460ff16156115f0576040517f08c379a00000000000000000000000000000000000000000000000000000000081526004016115e7906150d2565b60405180910390fd5b60008311801561160257506007548311155b611641576040517f08c379a000000000000000000000000000000000000000000000000000000000815260040161163890615292565b60405180910390fd5b60018060003373ffffffffffffffffffffffffffffffffffffffff1673ffffffffffffffffffffffffffffffffffffffff16815260200190815260200160002060010160006101000a81548160ff02191690831515021790555060008084815260200190815260200160002060030160008154809291906116c1906155aa565b9190505550600160003373ffffffffffffffffffffffffffffffffffffffff1673ffffffffffffffffffffffffffffffffffffffff1681526020019081526020016000206005016003600085815260200190815260200160002090805461172790615578565b611732929190614280565b5061173b6110a8565b600160003373ffffffffffffffffffffffffffffffffffffffff1673ffffffffffffffffffffffffffffffffffffffff168152602001908152602001600020600701819055506040518060800160405280600160003373ffffffffffffffffffffffffffffffffffffffff1673ffffffffffffffffffffffffffffffffffffffff16815260200190815260200160002060050180546117d990615578565b80601f016020809104026020016040519081016040528092919081815260200182805461180590615578565b80156118525780601f1061182757610100808354040283529160200191611852565b820191906000526020600020905b81548152906001019060200180831161183557829003601f168201915b505050505081526020018381526020018281526020016000151581525060026000600d54815260200190815260200160002060008201518160000190805190602001906118a09291906141fa565b5060208201518160010190805190602001906118bd9291906141fa565b5060408201518160020190805190602001906118da9291906141fa565b5060608201518160030160006101000a81548160ff021916908315150217905550905050600d54600160003373ffffffffffffffffffffffffffffffffffffffff1673ffffffffffffffffffffffffffffffffffffffff16815260200190815260200160002060090181905550600d600081548092919061195a906155aa565b9190505550505050565b6008805461197190615578565b80601f016020809104026020016040519081016040528092919081815260200182805461199d90615578565b80156119ea5780601f106119bf576101008083540402835291602001916119ea565b820191906000526020600020905b8154815290600101906020018083116119cd57829003601f168201915b505050505081565b60008282604051602001611a07929190614e42565b60405160208183030381529060405280519060200120905092915050565b606080600080611adb600160003373ffffffffffffffffffffffffffffffffffffffff1673ffffffffffffffffffffffffffffffffffffffff168152602001908152602001600020600701547f79be667ef9dcbbac55a06295ce870b07029bfcdb2dce28d959f2815b16f817987f483ada7726a3c4655da4fbfc0e1108a8fd17b448a68554199c47d08ffb10d4b860007ffffffffffffffffffffffffffffffffffffffffffffffffffffffffefffffc2f6125ae565b915091505b611b0f8282600060077ffffffffffffffffffffffffffffffffffffffffffffffffffffffffefffffc2f6125e8565b611bd057611bc3600160003373ffffffffffffffffffffffffffffffffffffffff1673ffffffffffffffffffffffffffffffffffffffff168152602001908152602001600020600701547f79be667ef9dcbbac55a06295ce870b07029bfcdb2dce28d959f2815b16f817987f483ada7726a3c4655da4fbfc0e1108a8fd17b448a68554199c47d08ffb10d4b860007ffffffffffffffffffffffffffffffffffffffffffffffffffffffffefffffc2f6125ae565b8092508193505050611ae0565b611bd98261279a565b611be28261279a565b9350935050509091565b6000600160003373ffffffffffffffffffffffffffffffffffffffff1673ffffffffffffffffffffffffffffffffffffffff16815260200190815260200160002060060160009054906101000a900460ff16905090565b601260009054906101000a900473ffffffffffffffffffffffffffffffffffffffff1673ffffffffffffffffffffffffffffffffffffffff163373ffffffffffffffffffffffffffffffffffffffff1614611cd3576040517f08c379a0000000000000000000000000000000000000000000000000000000008152600401611cca90615272565b60405180910390fd5b60116000815480929190611ce6906155aa565b919050555060036011541015611e955760016011541415611de657600754600c5411611d47576040517f08c379a0000000000000000000000000000000000000000000000000000000008152600401611d3e90615112565b60405180910390fd5b600a546007541015611d8e576040517f08c379a0000000000000000000000000000000000000000000000000000000008152600401611d8590615152565b60405180910390fd5b600e60115460038110611dca577f4e487b7100000000000000000000000000000000000000000000000000000000600052603260045260246000fd5b016008908054611dd990615578565b611de4929190614280565b505b60026011541415611e9057600b54600d541015611e38576040517f08c379a0000000000000000000000000000000000000000000000000000000008152600401611e2f90615172565b60405180910390fd5b600e60115460038110611e74577f4e487b7100000000000000000000000000000000000000000000000000000000600052603260045260246000fd5b016008908054611e8390615578565b611e8e929190614280565b505b611ee2565b6040518060400160405280600e81526020017f456c656374696f6e20656e64656400000000000000000000000000000000000081525060089080519060200190611ee09291906141fa565b505b565b6002602052806000526040600020600091509050806000018054611f0790615578565b80601f0160208091040260200160405190810160405280929190818152602001828054611f3390615578565b8015611f805780601f10611f5557610100808354040283529160200191611f80565b820191906000526020600020905b815481529060010190602001808311611f6357829003601f168201915b505050505090806001018054611f9590615578565b80601f0160208091040260200160405190810160405280929190818152602001828054611fc190615578565b801561200e5780601f10611fe35761010080835404028352916020019161200e565b820191906000526020600020905b815481529060010190602001808311611ff157829003601f168201915b50505050509080600201805461202390615578565b80601f016020809104026020016040519081016040528092919081815260200182805461204f90615578565b801561209c5780601f106120715761010080835404028352916020019161209c565b820191906000526020600020905b81548152906001019060200180831161207f57829003601f168201915b5050505050908060030160009054906101000a900460ff16905084565b601260009054906101000a900473ffffffffffffffffffffffffffffffffffffffff1673ffffffffffffffffffffffffffffffffffffffff163373ffffffffffffffffffffffffffffffffffffffff16141561214a576040517f08c379a000000000000000000000000000000000000000000000000000000000815260040161214190615232565b60405180910390fd5b6000339050600061215a87611078565b90506000600160008473ffffffffffffffffffffffffffffffffffffffff1673ffffffffffffffffffffffffffffffffffffffff16815260200190815260200160002090508060060160009054906101000a900460ff16156121f1576040517f08c379a00000000000000000000000000000000000000000000000000000000081526004016121e890615212565b60405180910390fd5b600073ffffffffffffffffffffffffffffffffffffffff166004600084815260200190815260200160002060009054906101000a900473ffffffffffffffffffffffffffffffffffffffff1673ffffffffffffffffffffffffffffffffffffffff1614612293576040517f08c379a000000000000000000000000000000000000000000000000000000000815260040161228a90615252565b60405180910390fd5b8260056000600c54815260200190815260200160002060006101000a81548173ffffffffffffffffffffffffffffffffffffffff021916908373ffffffffffffffffffffffffffffffffffffffff1602179055506040518061016001604052808381526020016000151581526020018473ffffffffffffffffffffffffffffffffffffffff168152602001888152602001878152602001868152602001858152602001600115158152602001600081526020016000151581526020016000815250600160008573ffffffffffffffffffffffffffffffffffffffff1673ffffffffffffffffffffffffffffffffffffffff1681526020019081526020016000206000820151816000015560208201518160010160006101000a81548160ff02191690831515021790555060408201518160010160016101000a81548173ffffffffffffffffffffffffffffffffffffffff021916908373ffffffffffffffffffffffffffffffffffffffff16021790555060608201518160020190805190602001906124209291906141fa565b50608082015181600301908051906020019061243d9291906141fa565b5060a082015181600401908051906020019061245a9291906141fa565b5060c08201518160050190805190602001906124779291906141fa565b5060e08201518160060160006101000a81548160ff02191690831515021790555061010082015181600701556101208201518160080160006101000a81548160ff0219169083151502179055506101408201518160090155905050826004600084815260200190815260200160002060006101000a81548173ffffffffffffffffffffffffffffffffffffffff021916908373ffffffffffffffffffffffffffffffffffffffff160217905550600c6000815480929190612537906155aa565b91905055505050505050505050565b6000806000604184511461258f576040517f08c379a0000000000000000000000000000000000000000000000000000000008152600401612586906152b2565b60405180910390fd5b6020840151925060408401519150606084015160001a90509193909250565b60008060008060006125c58a8a8a60018b8b6128be565b9250925092506125d78383838961295e565b945094505050509550959350505050565b600085600014806125f95750818610155b806126045750846000145b8061260f5750818510155b1561261d5760009050612791565b60008280612654577f4e487b7100000000000000000000000000000000000000000000000000000000600052601260045260246000fd5b868709905060008380612690577f4e487b7100000000000000000000000000000000000000000000000000000000600052601260045260246000fd5b8885806126c6577f4e487b7100000000000000000000000000000000000000000000000000000000600052601260045260246000fd5b8a8b0909905060008614612746578380612709577f4e487b7100000000000000000000000000000000000000000000000000000000600052601260045260246000fd5b848061273e577f4e487b7100000000000000000000000000000000000000000000000000000000600052601260045260246000fd5b878a09820890505b60008514612789578380612783577f4e487b7100000000000000000000000000000000000000000000000000000000600052601260045260246000fd5b85820890505b808214925050505b95945050505050565b6060600060016127a984612a6d565b01905060008167ffffffffffffffff8111156127ee577f4e487b7100000000000000000000000000000000000000000000000000000000600052604160045260246000fd5b6040519080825280601f01601f1916602001820160405280156128205781602001600182028036833780820191505090505b509050600082602001820190505b6001156128b3578080600190039150507f3031323334353637383961626364656600000000000000000000000000000000600a86061a8153600a858161289d577f4e487b7100000000000000000000000000000000000000000000000000000000600052601260045260246000fd5b04945060008514156128ae576128b3565b61282e565b819350505050919050565b6000806000808914156128d957878787925092509250612952565b60008990506000806000600190505b6000841461294457600060018516146129175761290a8383838f8f8f8e612ca4565b8093508194508295505050505b6002846129249190615418565b93506129338c8c8c8c8c613c31565b809c50819d50829e505050506128e8565b828282965096509650505050505b96509650969350505050565b600080600061296d85856140c2565b9050600084806129a6577f4e487b7100000000000000000000000000000000000000000000000000000000600052601260045260246000fd5b8283099050600085806129e2577f4e487b7100000000000000000000000000000000000000000000000000000000600052601260045260246000fd5b828a09905060008680612a1e577f4e487b7100000000000000000000000000000000000000000000000000000000600052601260045260246000fd5b8780612a53577f4e487b7100000000000000000000000000000000000000000000000000000000600052601260045260246000fd5b8486098a0990508181955095505050505094509492505050565b600080600090507a184f03e93ff9f4daa797ed6e38ed64bf6a1f0100000000000000008310612af1577a184f03e93ff9f4daa797ed6e38ed64bf6a1f0100000000000000008381612ae7577f4e487b7100000000000000000000000000000000000000000000000000000000600052601260045260246000fd5b0492506040810190505b6d04ee2d6d415b85acef81000000008310612b54576d04ee2d6d415b85acef81000000008381612b4a577f4e487b7100000000000000000000000000000000000000000000000000000000600052601260045260246000fd5b0492506020810190505b662386f26fc100008310612ba957662386f26fc100008381612b9f577f4e487b7100000000000000000000000000000000000000000000000000000000600052601260045260246000fd5b0492506010810190505b6305f5e1008310612bf8576305f5e1008381612bee577f4e487b7100000000000000000000000000000000000000000000000000000000600052601260045260246000fd5b0492506008810190505b6127108310612c43576127108381612c39577f4e487b7100000000000000000000000000000000000000000000000000000000600052601260045260246000fd5b0492506004810190505b60648310612c8c5760648381612c82577f4e487b7100000000000000000000000000000000000000000000000000000000600052601260045260246000fd5b0492506002810190505b600a8310612c9b576001810190505b80915050919050565b6000806000808a148015612cb85750600089145b15612ccb57868686925092509250613c24565b600087148015612cdb5750600086145b15612cee57898989925092509250613c24565b612cf661430d565b8480612d2b577f4e487b7100000000000000000000000000000000000000000000000000000000600052601260045260246000fd5b898a0981600060048110612d68577f4e487b7100000000000000000000000000000000000000000000000000000000600052603260045260246000fd5b6020020181815250508480612da6577f4e487b7100000000000000000000000000000000000000000000000000000000600052601260045260246000fd5b81600060048110612de0577f4e487b7100000000000000000000000000000000000000000000000000000000600052603260045260246000fd5b60200201518a0981600160048110612e21577f4e487b7100000000000000000000000000000000000000000000000000000000600052603260045260246000fd5b6020020181815250508480612e5f577f4e487b7100000000000000000000000000000000000000000000000000000000600052601260045260246000fd5b86870981600260048110612e9c577f4e487b7100000000000000000000000000000000000000000000000000000000600052603260045260246000fd5b6020020181815250508480612eda577f4e487b7100000000000000000000000000000000000000000000000000000000600052601260045260246000fd5b81600260048110612f14577f4e487b7100000000000000000000000000000000000000000000000000000000600052603260045260246000fd5b6020020151870981600360048110612f55577f4e487b7100000000000000000000000000000000000000000000000000000000600052603260045260246000fd5b60200201818152505060405180608001604052808680612f9e577f4e487b7100000000000000000000000000000000000000000000000000000000600052601260045260246000fd5b83600260048110612fd8577f4e487b7100000000000000000000000000000000000000000000000000000000600052603260045260246000fd5b60200201518e0981526020018680613019577f4e487b7100000000000000000000000000000000000000000000000000000000600052601260045260246000fd5b83600360048110613053577f4e487b7100000000000000000000000000000000000000000000000000000000600052603260045260246000fd5b60200201518d0981526020018680613094577f4e487b7100000000000000000000000000000000000000000000000000000000600052601260045260246000fd5b836000600481106130ce577f4e487b7100000000000000000000000000000000000000000000000000000000600052603260045260246000fd5b60200201518b098152602001868061310f577f4e487b7100000000000000000000000000000000000000000000000000000000600052601260045260246000fd5b83600160048110613149577f4e487b7100000000000000000000000000000000000000000000000000000000600052603260045260246000fd5b60200201518a0981525090508060026004811061318f577f4e487b7100000000000000000000000000000000000000000000000000000000600052603260045260246000fd5b6020020151816000600481106131ce577f4e487b7100000000000000000000000000000000000000000000000000000000600052603260045260246000fd5b602002015114158061325c575080600360048110613215577f4e487b7100000000000000000000000000000000000000000000000000000000600052603260045260246000fd5b602002015181600160048110613254577f4e487b7100000000000000000000000000000000000000000000000000000000600052603260045260246000fd5b602002015114155b61329b576040517f08c379a0000000000000000000000000000000000000000000000000000000008152600401613292906151f2565b60405180910390fd5b6132a361430d565b85806132d8577f4e487b7100000000000000000000000000000000000000000000000000000000600052601260045260246000fd5b82600060048110613312577f4e487b7100000000000000000000000000000000000000000000000000000000600052603260045260246000fd5b60200201518761332291906154a3565b8360026004811061335c577f4e487b7100000000000000000000000000000000000000000000000000000000600052603260045260246000fd5b6020020151088160006004811061339c577f4e487b7100000000000000000000000000000000000000000000000000000000600052603260045260246000fd5b60200201818152505085806133da577f4e487b7100000000000000000000000000000000000000000000000000000000600052601260045260246000fd5b82600160048110613414577f4e487b7100000000000000000000000000000000000000000000000000000000600052603260045260246000fd5b60200201518761342491906154a3565b8360036004811061345e577f4e487b7100000000000000000000000000000000000000000000000000000000600052603260045260246000fd5b6020020151088160016004811061349e577f4e487b7100000000000000000000000000000000000000000000000000000000600052603260045260246000fd5b60200201818152505085806134dc577f4e487b7100000000000000000000000000000000000000000000000000000000600052601260045260246000fd5b81600060048110613516577f4e487b7100000000000000000000000000000000000000000000000000000000600052603260045260246000fd5b602002015182600060048110613555577f4e487b7100000000000000000000000000000000000000000000000000000000600052603260045260246000fd5b60200201510981600260048110613595577f4e487b7100000000000000000000000000000000000000000000000000000000600052603260045260246000fd5b60200201818152505085806135d3577f4e487b7100000000000000000000000000000000000000000000000000000000600052601260045260246000fd5b8160006004811061360d577f4e487b7100000000000000000000000000000000000000000000000000000000600052603260045260246000fd5b60200201518260026004811061364c577f4e487b7100000000000000000000000000000000000000000000000000000000600052603260045260246000fd5b6020020151098160036004811061368c577f4e487b7100000000000000000000000000000000000000000000000000000000600052603260045260246000fd5b602002018181525050600086806136cc577f4e487b7100000000000000000000000000000000000000000000000000000000600052601260045260246000fd5b82600360048110613706577f4e487b7100000000000000000000000000000000000000000000000000000000600052603260045260246000fd5b60200201518861371691906154a3565b888061374b577f4e487b7100000000000000000000000000000000000000000000000000000000600052601260045260246000fd5b84600160048110613785577f4e487b7100000000000000000000000000000000000000000000000000000000600052603260045260246000fd5b6020020151856001600481106137c4577f4e487b7100000000000000000000000000000000000000000000000000000000600052603260045260246000fd5b6020020151090890508680613802577f4e487b7100000000000000000000000000000000000000000000000000000000600052601260045260246000fd5b8780613837577f4e487b7100000000000000000000000000000000000000000000000000000000600052601260045260246000fd5b888061386c577f4e487b7100000000000000000000000000000000000000000000000000000000600052601260045260246000fd5b846002600481106138a6577f4e487b7100000000000000000000000000000000000000000000000000000000600052603260045260246000fd5b6020020151866000600481106138e5577f4e487b7100000000000000000000000000000000000000000000000000000000600052603260045260246000fd5b602002015109600209886138f991906154a3565b8208905060008780613934577f4e487b7100000000000000000000000000000000000000000000000000000000600052601260045260246000fd5b8880613969577f4e487b7100000000000000000000000000000000000000000000000000000000600052601260045260246000fd5b838a61397591906154a3565b8a806139aa577f4e487b7100000000000000000000000000000000000000000000000000000000600052601260045260246000fd5b866002600481106139e4577f4e487b7100000000000000000000000000000000000000000000000000000000600052603260045260246000fd5b602002015188600060048110613a23577f4e487b7100000000000000000000000000000000000000000000000000000000600052603260045260246000fd5b6020020151090884600160048110613a64577f4e487b7100000000000000000000000000000000000000000000000000000000600052603260045260246000fd5b60200201510990508780613aa1577f4e487b7100000000000000000000000000000000000000000000000000000000600052601260045260246000fd5b8880613ad6577f4e487b7100000000000000000000000000000000000000000000000000000000600052601260045260246000fd5b84600360048110613b10577f4e487b7100000000000000000000000000000000000000000000000000000000600052603260045260246000fd5b602002015186600160048110613b4f577f4e487b7100000000000000000000000000000000000000000000000000000000600052603260045260246000fd5b60200201510989613b6091906154a3565b8208905060008880613b9b577f4e487b7100000000000000000000000000000000000000000000000000000000600052601260045260246000fd5b8980613bd0577f4e487b7100000000000000000000000000000000000000000000000000000000600052601260045260246000fd5b8b8f0985600060048110613c0d577f4e487b7100000000000000000000000000000000000000000000000000000000600052603260045260246000fd5b602002015109905082828297509750975050505050505b9750975097945050505050565b600080600080861415613c4c578787879250925092506140b7565b60008480613c83577f4e487b7100000000000000000000000000000000000000000000000000000000600052601260045260246000fd5b898a09905060008580613cbf577f4e487b7100000000000000000000000000000000000000000000000000000000600052601260045260246000fd5b898a09905060008680613cfb577f4e487b7100000000000000000000000000000000000000000000000000000000600052601260045260246000fd5b898a09905060008780613d37577f4e487b7100000000000000000000000000000000000000000000000000000000600052601260045260246000fd5b8880613d6c577f4e487b7100000000000000000000000000000000000000000000000000000000600052601260045260246000fd5b848e09600409905060008880613dab577f4e487b7100000000000000000000000000000000000000000000000000000000600052601260045260246000fd5b8980613de0577f4e487b7100000000000000000000000000000000000000000000000000000000600052601260045260246000fd5b8a80613e15577f4e487b7100000000000000000000000000000000000000000000000000000000600052601260045260246000fd5b8586098c098a80613e4f577f4e487b7100000000000000000000000000000000000000000000000000000000600052601260045260246000fd5b876003090890508880613e8b577f4e487b7100000000000000000000000000000000000000000000000000000000600052601260045260246000fd5b8980613ec0577f4e487b7100000000000000000000000000000000000000000000000000000000600052601260045260246000fd5b8384088a613ece91906154a3565b8a80613f03577f4e487b7100000000000000000000000000000000000000000000000000000000600052601260045260246000fd5b8384090894508880613f3e577f4e487b7100000000000000000000000000000000000000000000000000000000600052601260045260246000fd5b8980613f73577f4e487b7100000000000000000000000000000000000000000000000000000000600052601260045260246000fd5b8a80613fa8577f4e487b7100000000000000000000000000000000000000000000000000000000600052601260045260246000fd5b8687096008098a613fb991906154a3565b8a80613fee577f4e487b7100000000000000000000000000000000000000000000000000000000600052601260045260246000fd5b8b80614023577f4e487b7100000000000000000000000000000000000000000000000000000000600052601260045260246000fd5b888d61402f91906154a3565b86088409089350888061406b577f4e487b7100000000000000000000000000000000000000000000000000000000600052601260045260246000fd5b89806140a0577f4e487b7100000000000000000000000000000000000000000000000000000000600052601260045260246000fd5b8c8e09600209925084848497509750975050505050505b955095509592505050565b60008083141580156140d45750818314155b80156140e1575060008214155b614120576040517f08c379a0000000000000000000000000000000000000000000000000000000008152600401614117906152d2565b60405180910390fd5b60008060019050600084905060005b600087146141ed5786826141439190615418565b905082868061417b577f4e487b7100000000000000000000000000000000000000000000000000000000600052601260045260246000fd5b87806141b0577f4e487b7100000000000000000000000000000000000000000000000000000000600052601260045260246000fd5b858409886141be91906154a3565b860880945081955050508687826141d59190615449565b836141e091906154a3565b809850819350505061412f565b8394505050505092915050565b82805461420690615578565b90600052602060002090601f016020900481019282614228576000855561426f565b82601f1061424157805160ff191683800117855561426f565b8280016001018555821561426f579182015b8281111561426e578251825591602001919060010190614253565b5b50905061427c919061432f565b5090565b82805461428c90615578565b90600052602060002090601f0160209004810192826142ae57600085556142fc565b82601f106142bf57805485556142fc565b828001600101855582156142fc57600052602060002091601f016020900482015b828111156142fb5782548255916001019190600101906142e0565b5b509050614309919061432f565b5090565b6040518060800160405280600490602082028036833780820191505090505090565b5b80821115614348576000816000905550600101614330565b5090565b600061435f61435a84615391565b615360565b90508281526020810184848401111561437757600080fd5b614382848285615536565b509392505050565b600061439d614398846153c1565b615360565b9050828152602081018484840111156143b557600080fd5b6143c0848285615536565b509392505050565b6000813590506143d781615705565b92915050565b600082601f8301126143ee57600080fd5b81356143fe84826020860161434c565b91505092915050565b600082601f83011261441857600080fd5b813561442884826020860161438a565b91505092915050565b6000813590506144408161571c565b92915050565b60006020828403121561445857600080fd5b6000614466848285016143c8565b91505092915050565b6000806040838503121561448257600080fd5b6000614490858286016143c8565b925050602083013567ffffffffffffffff8111156144ad57600080fd5b6144b9858286016143dd565b9150509250929050565b6000602082840312156144d557600080fd5b600082013567ffffffffffffffff8111156144ef57600080fd5b6144fb84828501614407565b91505092915050565b60008060006060848603121561451957600080fd5b600084013567ffffffffffffffff81111561453357600080fd5b61453f86828701614407565b935050602084013567ffffffffffffffff81111561455c57600080fd5b614568868287016143dd565b925050604061457986828701614431565b9150509250925092565b6000806040838503121561459657600080fd5b600083013567ffffffffffffffff8111156145b057600080fd5b6145bc85828601614407565b925050602083013567ffffffffffffffff8111156145d957600080fd5b6145e585828601614407565b9150509250929050565b600080600080600060a0868803121561460757600080fd5b600086013567ffffffffffffffff81111561462157600080fd5b61462d88828901614407565b955050602086013567ffffffffffffffff81111561464a57600080fd5b61465688828901614407565b945050604086013567ffffffffffffffff81111561467357600080fd5b61467f88828901614407565b935050606086013567ffffffffffffffff81111561469c57600080fd5b6146a888828901614407565b925050608086013567ffffffffffffffff8111156146c557600080fd5b6146d188828901614407565b9150509295509295909350565b600080604083850312156146f157600080fd5b600083013567ffffffffffffffff81111561470b57600080fd5b61471785828601614407565b925050602061472885828601614431565b9150509250929050565b60006020828403121561474457600080fd5b600061475284828501614431565b91505092915050565b60008060006060848603121561477057600080fd5b600061477e86828701614431565b935050602084013567ffffffffffffffff81111561479b57600080fd5b6147a786828701614407565b925050604084013567ffffffffffffffff8111156147c457600080fd5b6147d086828701614407565b9150509250925092565b600080604083850312156147ed57600080fd5b60006147fb85828601614431565b925050602061480c85828601614431565b9150509250929050565b61481f816154d7565b82525050565b614836614831826154d7565b6155f3565b82525050565b614845816154e9565b82525050565b614854816154f5565b82525050565b61486b614866826154f5565b615605565b82525050565b600061487c826153f1565b61488681856153fc565b9350614896818560208601615545565b61489f816156e7565b840191505092915050565b60006148b5826153f1565b6148bf818561540d565b93506148cf818560208601615545565b80840191505092915050565b60006148e8601e836153fc565b91507f4f6e6c7920726567697374657265642075736572732063616e20766f746500006000830152602082019050919050565b6000614928600d836153fc565b91507f416c726561647920566f746564000000000000000000000000000000000000006000830152602082019050919050565b6000614968601c8361540d565b91507f19457468657265756d205369676e6564204d6573736167653a0a3332000000006000830152601c82019050919050565b60006149a86011836153fc565b91507f486173206265656e2065786563757465640000000000000000000000000000006000830152602082019050919050565b60006149e86011836153fc565b91507f4e6f7420456e6f75676820566f746572730000000000000000000000000000006000830152602082019050919050565b6000614a286016836153fc565b91507f566f74657220616c7265616479207665726966696564000000000000000000006000830152602082019050919050565b6000614a686015836153fc565b91507f4e6f7420456e6f7567682043616e6469646174657300000000000000000000006000830152602082019050919050565b6000614aa86010836153fc565b91507f4e6f7420456e6f75676820566f746573000000000000000000000000000000006000830152602082019050919050565b6000614ae86012836153fc565b91507f566f74696e6720696e2070726f677265737300000000000000000000000000006000830152602082019050919050565b6000614b286011836153fc565b91507f41646d696e2043616e6e6f7420766f74650000000000000000000000000000006000830152602082019050919050565b6000614b68602b836153fc565b91507f43616e6e6f74206164642063616e6469646174657320647572696e6720766f7460008301527f696e672070726f636573730000000000000000000000000000000000000000006020830152604082019050919050565b6000614bce601e836153fc565b91507f557365206a6163446f75626c652066756e6374696f6e20696e737465616400006000830152602082019050919050565b6000614c0e6021836153fc565b91507f546865207075626c6963206164647265737320616c726561647920696e20757360008301527f65000000000000000000000000000000000000000000000000000000000000006020830152604082019050919050565b6000614c746015836153fc565b91507f41646d696e2043616e6e6f7420726567697374657200000000000000000000006000830152602082019050919050565b6000614cb4601a836153fc565b91507f506572736f6e616c20494420616c726561647920696e207573650000000000006000830152602082019050919050565b6000614cf46024836153fc565b91507f4f6e6c792041646d696e2063616e20706572666f726d20746869732066756e6360008301527f74696f6e000000000000000000000000000000000000000000000000000000006020830152604082019050919050565b6000614d5a6011836153fc565b91507f696e76616c69642063616e6469646174650000000000000000000000000000006000830152602082019050919050565b6000614d9a6018836153fc565b91507f696e76616c6964207369676e6174757265206c656e67746800000000000000006000830152602082019050919050565b6000614dda600e836153fc565b91507f496e76616c6964206e756d6265720000000000000000000000000000000000006000830152602082019050919050565b614e168161551f565b82525050565b614e2d614e288261551f565b615621565b82525050565b614e3c81615529565b82525050565b6000614e4e82856148aa565b9150614e5a8284614e1c565b6020820191508190509392505050565b6000614e758261495b565b9150614e81828461485a565b60208201915081905092915050565b6000614e9c8287614e1c565b602082019150614eac8286614e1c565b602082019150614ebc8285614825565b601482019150614ecc8284614825565b60148201915081905095945050505050565b6000602082019050614ef36000830184614816565b92915050565b6000602082019050614f0e600083018461483c565b92915050565b6000602082019050614f29600083018461484b565b92915050565b6000608082019050614f44600083018761484b565b614f516020830186614e33565b614f5e604083018561484b565b614f6b606083018461484b565b95945050505050565b60006020820190508181036000830152614f8e8184614871565b905092915050565b60006040820190508181036000830152614fb08185614871565b90508181036020830152614fc48184614871565b90509392505050565b60006080820190508181036000830152614fe78187614871565b90508181036020830152614ffb8186614871565b9050818103604083015261500f8185614871565b905061501e606083018461483c565b95945050505050565b600060e0820190508181036000830152615041818a614871565b905081810360208301526150558189614871565b905081810360408301526150698188614871565b9050818103606083015261507d8187614871565b905061508c608083018661483c565b61509960a083018561483c565b6150a660c083018461483c565b98975050505050505050565b600060208201905081810360008301526150cb816148db565b9050919050565b600060208201905081810360008301526150eb8161491b565b9050919050565b6000602082019050818103600083015261510b8161499b565b9050919050565b6000602082019050818103600083015261512b816149db565b9050919050565b6000602082019050818103600083015261514b81614a1b565b9050919050565b6000602082019050818103600083015261516b81614a5b565b9050919050565b6000602082019050818103600083015261518b81614a9b565b9050919050565b600060208201905081810360008301526151ab81614adb565b9050919050565b600060208201905081810360008301526151cb81614b1b565b9050919050565b600060208201905081810360008301526151eb81614b5b565b9050919050565b6000602082019050818103600083015261520b81614bc1565b9050919050565b6000602082019050818103600083015261522b81614c01565b9050919050565b6000602082019050818103600083015261524b81614c67565b9050919050565b6000602082019050818103600083015261526b81614ca7565b9050919050565b6000602082019050818103600083015261528b81614ce7565b9050919050565b600060208201905081810360008301526152ab81614d4d565b9050919050565b600060208201905081810360008301526152cb81614d8d565b9050919050565b600060208201905081810360008301526152eb81614dcd565b9050919050565b60006020820190506153076000830184614e0d565b92915050565b60006080820190506153226000830187614e0d565b81810360208301526153348186614871565b905081810360408301526153488185614871565b90506153576060830184614e0d565b95945050505050565b6000604051905081810181811067ffffffffffffffff82111715615387576153866156b8565b5b8060405250919050565b600067ffffffffffffffff8211156153ac576153ab6156b8565b5b601f19601f8301169050602081019050919050565b600067ffffffffffffffff8211156153dc576153db6156b8565b5b601f19601f8301169050602081019050919050565b600081519050919050565b600082825260208201905092915050565b600081905092915050565b60006154238261551f565b915061542e8361551f565b92508261543e5761543d61565a565b5b828204905092915050565b60006154548261551f565b915061545f8361551f565b9250817fffffffffffffffffffffffffffffffffffffffffffffffffffffffffffffffff04831182151516156154985761549761562b565b5b828202905092915050565b60006154ae8261551f565b91506154b98361551f565b9250828210156154cc576154cb61562b565b5b828203905092915050565b60006154e2826154ff565b9050919050565b60008115159050919050565b6000819050919050565b600073ffffffffffffffffffffffffffffffffffffffff82169050919050565b6000819050919050565b600060ff82169050919050565b82818337600083830152505050565b60005b83811015615563578082015181840152602081019050615548565b83811115615572576000848401525b50505050565b6000600282049050600182168061559057607f821691505b602082108114156155a4576155a3615689565b5b50919050565b60006155b58261551f565b91507fffffffffffffffffffffffffffffffffffffffffffffffffffffffffffffffff8214156155e8576155e761562b565b5b600182019050919050565b60006155fe8261560f565b9050919050565b6000819050919050565b600061561a826156f8565b9050919050565b6000819050919050565b7f4e487b7100000000000000000000000000000000000000000000000000000000600052601160045260246000fd5b7f4e487b7100000000000000000000000000000000000000000000000000000000600052601260045260246000fd5b7f4e487b7100000000000000000000000000000000000000000000000000000000600052602260045260246000fd5b7f4e487b7100000000000000000000000000000000000000000000000000000000600052604160045260246000fd5b6000601f19601f8301169050919050565b60008160601b9050919050565b61570e816154f5565b811461571957600080fd5b50565b6157258161551f565b811461573057600080fd5b5056fea2646970667358221220b982fe5524b30679ba33e4904536f823577aba4f76b206fbeb2dc9d80f118a3564736f6c63430008000033",
  "immutableReferences": {},
  "source": "// SPDX-License-Identifier: MIT \r\npragma solidity  ^0.8.0;\r\nimport \"./EllipticCurve.sol\";\r\nimport \"@openzeppelin/contracts/utils/Strings.sol\";\r\n\r\n\r\n\r\ncontract Election { \r\n\r\n    struct voter {\r\n        bytes32 personal_id; //their personal id\r\n        bool hasVoted; //have they voted\r\n        address public_Address; //public address to wallet\r\n        string email; //email address for communication\r\n        string name; //name of voter \r\n        string surname; \r\n        string refNUm; \r\n        bool isRegistered;\r\n        uint256 PrivateKey;\r\n        bool  isVerifiedUser;\r\n        uint position;\r\n    }\r\n \r\n    struct votingRecords{\r\n        string ref;\r\n        string voteDate;\r\n        string voteTime;\r\n        bool isVerified;\r\n    }\r\n\r\n    \r\n\r\n\r\n     // Model a Candidate\r\n    struct Candidate {\r\n        uint id;\r\n        string name;\r\n        string party;\r\n        uint voteCount;\r\n    }\r\n    //ECC CONSTANTS - SECPTIC256\r\n    uint256 private constant GX = 0x79BE667EF9DCBBAC55A06295CE870B07029BFCDB2DCE28D959F2815B16F81798;\r\n    uint256 private constant GY = 0x483ADA7726A3C4655DA4FBFC0E1108A8FD17B448A68554199C47D08FFB10D4B8;\r\n    uint256 private constant AA = 0;\r\n    uint256 private constant BB = 7;\r\n    uint256 private constant PP = 0xFFFFFFFFFFFFFFFFFFFFFFFFFFFFFFFFFFFFFFFFFFFFFFFFFFFFFFFEFFFFFC2F;\r\n\r\n    // Read/write candidate\r\n    mapping(uint => Candidate) public candidates;\r\n\r\n    // Store accounts that have voted\r\n    mapping(address => voter) private voters;\r\n\r\n    mapping(uint => votingRecords) public votingTrails;\r\n\r\n    mapping(uint => string) private candidateToVoter;\r\n\r\n    // Stores encyrted ID'S\r\n    mapping(bytes32 => address) private verifier;\r\n    mapping(uint => address) private recorder;\r\n\r\n    mapping(bytes32 => bool) private adminSignatures; //saves history of Admin signature to curb Signature Replay Attack\r\n\r\n\r\n    // Store Candidates Count\r\n    uint public candidatesCount;\r\n\r\n    // Stores Election phase\r\n    string public phase;\r\n\r\n    uint private randomiser;\r\n\r\n    uint private minimum_candidates =2;\r\n    uint private minVotes = 2;\r\n\r\n    // Store number of voters\r\n    uint public votersCount;\r\n\r\n    //number of total votes\r\n    uint public numVotes;\r\n\r\n    string[3] phases = [\"registration\" , \"voting\", \"results\"];\r\n    uint private phasePointer;\r\n\r\n    // Admin is set once, when contract is deployed. Also saves gas fees\r\n    address private admin;\r\n\r\n    constructor(){ \r\n        admin = msg.sender; //the deployer of the contract is the admin\r\n        phase=\"Election has not started\";\r\n    } \r\n\r\n    modifier onlyAdmin(){\r\n\t\trequire(msg.sender==admin, \"Only Admin can perform this function\");\r\n\t\t_;\r\n\t}\r\n\r\n       // Add a candidate\r\n    function addCandidate (string memory _name, string memory _party) onlyAdmin public {\r\n        require(phasePointer<=0, \"Cannot add candidates during voting process\");\r\n        candidatesCount ++;\r\n        candidates[candidatesCount] = Candidate({\r\n            id: candidatesCount, \r\n            name: _name,\r\n            party: _party, \r\n            voteCount: 0\r\n            });\r\n    }\r\n\r\n\r\n     // Add a voter\r\n    function addVoter (string memory _personal_id, string memory _email, string memory _name, string memory _surname, string memory _ref) public {\r\n            require(msg.sender != admin, \"Admin Cannot register\"); //require that the user is not registered\r\n            address _pAdress = msg.sender; \r\n            bytes32 encrypt_id = keccak256_encrypt(_personal_id);  //encrypt personal id\r\n            voter storage user = voters[_pAdress];\r\n            require(!user.isRegistered, \"The public address already in use\"); //require that the user is not registered\r\n\r\n            //require that personal_id is not already in use\r\n            require(verifier[encrypt_id] == 0x0000000000000000000000000000000000000000, \"Personal ID already in use\");\r\n            recorder[votersCount] = _pAdress;\r\n            voters[_pAdress] = voter( {personal_id: encrypt_id, \r\n                            hasVoted:false, \r\n                            public_Address:_pAdress,\r\n                            email: _email, \r\n                            name:_name, \r\n                            surname: _surname, \r\n                            refNUm: _ref,\r\n                            isRegistered:true,\r\n                            PrivateKey:0,\r\n                            isVerifiedUser:false,\r\n                            position:0\r\n                    });\r\n            \r\n           \r\n            verifier[encrypt_id] = _pAdress;\r\n            votersCount ++;\r\n            \r\n    }\r\n\r\n    //get voter details to display to voter\r\n    function getVoter() public view returns(string memory, string memory, string memory, string memory, bool, bool, bool){\r\n            return(voters[msg.sender].name, voters[msg.sender].surname, voters[msg.sender].email, \r\n            voters[msg.sender].refNUm, voters[msg.sender].isRegistered, voters[msg.sender].hasVoted, voters[msg.sender].isVerifiedUser);             \r\n    }\r\n\r\n    //returns true if voter registered\r\n    function isVoter_Registered() public view returns (bool){\r\n        return voters[msg.sender].isRegistered;\r\n    }\r\n\r\n    \r\n  // https://stackoverflow.com/questions/73555009/how-to-generate-random-words-in-solidity-based-based-on-a-string-of-letters/73557284#73557284\r\n  function random() public returns (uint) {\r\n        randomiser++;\r\n        return uint (keccak256(abi.encodePacked (block.timestamp,randomiser, msg.sender, address(this))));\r\n     }\r\n\r\n     //returns true if voter registered\r\n    function has_Voted() public view returns (bool){\r\n        return voters[msg.sender].hasVoted;\r\n    }\r\n\r\n    // voting function, all accounts can vote\r\n    function vote (uint _candidateId, string memory _date, string memory _time) public {\r\n        require(msg.sender != admin, \"Admin Cannot vote\");\r\n\r\n        //must be registered to vote\r\n        require(voters[msg.sender].isRegistered, \"Only registered users can vote\");\r\n\r\n        // require that they haven't voted before\r\n        require(!voters[msg.sender].hasVoted, \"Already Voted\"); \r\n        \r\n        // require a valid candidate\r\n        require(_candidateId > 0 && _candidateId <= candidatesCount, \"invalid candidate\");\r\n\r\n        // record that voter has voted\r\n        voters[msg.sender].hasVoted = true;\r\n\r\n        // update candidate vote Count\r\n        candidates[_candidateId].voteCount ++; //add vote to candidate\r\n        candidateToVoter[_candidateId] = voters[msg.sender].refNUm;\r\n\r\n        voters[msg.sender].PrivateKey = random();  //CREATE PRIVATE KEY *****\r\n    \r\n        votingTrails[numVotes] = votingRecords({ //keep record of vote\r\n                                                ref:voters[msg.sender].refNUm,\r\n                                                voteDate:_date,\r\n                                                voteTime:_time,\r\n                                                isVerified:false\r\n                                         });\r\n        voters[msg.sender].position = numVotes; //store position of vote\r\n        numVotes++; //increase vote count\r\n        \r\n    }\r\n\r\n    //Return voter keys\r\n     function copyKeys() public view returns(string memory, string memory){\r\n            (uint256 p1, uint256 p2) = EllipticCurve.ecMul(voters[msg.sender].PrivateKey,GX,GY,AA,PP); \r\n            while(!EllipticCurve.isOnCurve(p1, p2, AA, BB, PP)){ //If points returned are not on the curve, iterate again\r\n                 (p1, p2) = EllipticCurve.ecMul(voters[msg.sender].PrivateKey,GX,GY,AA,PP); \r\n            }\r\n            return (Strings.toString(p1), Strings.toString(p2));          \r\n    }\r\n\r\n    function testEncryption() public {\r\n        EllipticCurve.ecMul(random(),GX,GY,AA,PP);\r\n    }\r\n \r\n    //verify vote\r\n    function verifyVote(uint _key1, uint _key2) public{\r\n    \r\n        // require that they have voted before\r\n        require(voters[msg.sender].hasVoted, \"Already Voted\");\r\n\r\n        require(!voters[msg.sender].isVerifiedUser, \"Voter already verified\");\r\n\r\n        (uint256 p1, uint256 p2) = EllipticCurve.ecMul(voters[msg.sender].PrivateKey,GX,GY,AA,PP); //creating public keys from the user address\r\n\r\n        if(p1==_key1 && _key2==p2 ){ //public keys match\r\n            votingTrails[voters[msg.sender].position].isVerified = true;\r\n            voters[msg.sender].isVerifiedUser = true;\r\n        }\r\n    }\r\n\r\n    // start election\r\n    function startElection() onlyAdmin public {\r\n            require(phasePointer!=1 && phasePointer!=2, \"Voting in progress\");\r\n            phasePointer = 0;\r\n            phase = phases[phasePointer]; //contract is deployed in the registration phase\r\n    \r\n    }\r\n\r\n    //change election phase\r\n    function changePhase() onlyAdmin public {\r\n        phasePointer++;\r\n        if (phasePointer <3) {\r\n            if(phasePointer == 1){ //from registration to voting\r\n                require(votersCount>candidatesCount, \"Not Enough Voters\"); //3 VOTES, 2 CANDIDATES\r\n                require(candidatesCount>=minimum_candidates, \"Not Enough Candidates\"); //MINIMUM OF 2 CANDIDATES\r\n                phase = phases[phasePointer];\r\n            }\r\n             if(phasePointer == 2){ //from voting to results\r\n                require(numVotes>=minVotes, \"Not Enough Votes\"); //MINIMUM OF 2 VOTES\r\n                phase = phases[phasePointer];\r\n            }            \r\n        } else {\r\n            phase = \"Election ended\";\r\n        }\r\n\r\n    }\r\n\r\n\r\n    //hash function\r\n    function keccak256_encrypt(string memory text) public pure returns (bytes32) {\r\n        return keccak256(abi.encode(text));\r\n    }\r\n\r\n    function getWinner() public view returns(string memory) {\r\n        uint winner = 1;\r\n        uint voterS = candidates[1].voteCount;\r\n        for (uint index = 2; index <=  candidatesCount; index++) {\r\n            if(candidates[index].voteCount > voterS){\r\n                winner = index;\r\n                voterS = candidates[index].voteCount;\r\n                }\r\n        }\r\n        return (candidates[winner].name);\r\n\r\n    }\r\n\r\n\r\n    //<----------------------------------- Verifies signed message -------------------------------->\r\n    function verify (string memory _message, bytes memory _sig, uint _nonce) onlyAdmin public returns (bool) {\r\n        bytes32 hash_SMS = getHash(_message, _nonce);\r\n        require(!adminSignatures[hash_SMS], \"Has been executed\"); //must be a new signature\r\n        bytes32 ethSignedMessageHash = getEthSignedHash(hash_SMS);\r\n        adminSignatures[hash_SMS] = true;\r\n        return recover(ethSignedMessageHash, _sig) == admin;\r\n    }\r\n    \r\n    //turns string to hash\r\n    function getHash (string memory sms, uint _nonce) public pure returns (bytes32){\r\n        return keccak256(abi.encodePacked(sms, _nonce));\r\n    }\r\n\r\n\r\n    function getEthSignedHash (bytes32 sms) public pure returns (bytes32){\r\n        return keccak256(abi.encodePacked(\"\\x19Ethereum Signed Message:\\n32\", sms));\r\n    }\r\n\r\n\r\n    //recover account of original signer of message\r\n    function recover(bytes32 _ethSignedMessageHash, bytes memory _sig) public pure returns (address){\r\n            (bytes32 r, bytes32 s, uint8 v) = _split(_sig); //split signature into params\r\n            return ecrecover(_ethSignedMessageHash, v, r, s); //returns the address of the signer given the signed message\r\n    }\r\n\r\n    function _split(bytes memory _sig) internal pure returns (bytes32 r, bytes32 s, uint8 v){\r\n            require(_sig.length == 65, \"invalid signature length\");\r\n\r\n            assembly {\r\n                r := mload(add(_sig, 32))  //skip first 32-byetes as they hold the length\r\n                s := mload(add(_sig, 64))\r\n                v := byte(0, mload(add(_sig, 96)))\r\n\r\n            }\r\n    }\r\n\r\n    //<----------------------------------- ECC CRYPTOGRAPHY -------------------------------->\r\n\r\n}",
  "sourcePath": "C:\\Users\\Student\\Downloads\\BEV-cryptography\\Code\\contracts\\Election.sol",
  "compiler": {
    "name": "solc",
    "version": "0.8.0+commit.c7dfd78e.Emscripten.clang"
  },
  "schemaVersion": "3.4.16",
  "updatedAt": "2023-10-17T18:36:39.813Z",
  "networkType": "ethereum",
  "devdoc": {
    "kind": "dev",
    "methods": {},
    "version": 1
  },
  "userdoc": {
    "kind": "user",
    "methods": {},
    "version": 1
  }
}