{
  "contractName": "Secp256k1",
  "abi": [
    {
      "constant": true,
      "inputs": [],
      "name": "AA",
      "outputs": [
        {
          "internalType": "uint256",
          "name": "",
          "type": "uint256"
        }
      ],
      "payable": false,
      "stateMutability": "view",
      "type": "function"
    },
    {
      "constant": true,
      "inputs": [],
      "name": "BB",
      "outputs": [
        {
          "internalType": "uint256",
          "name": "",
          "type": "uint256"
        }
      ],
      "payable": false,
      "stateMutability": "view",
      "type": "function"
    },
    {
      "constant": true,
      "inputs": [],
      "name": "GX",
      "outputs": [
        {
          "internalType": "uint256",
          "name": "",
          "type": "uint256"
        }
      ],
      "payable": false,
      "stateMutability": "view",
      "type": "function"
    },
    {
      "constant": true,
      "inputs": [],
      "name": "GY",
      "outputs": [
        {
          "internalType": "uint256",
          "name": "",
          "type": "uint256"
        }
      ],
      "payable": false,
      "stateMutability": "view",
      "type": "function"
    },
    {
      "constant": true,
      "inputs": [],
      "name": "PP",
      "outputs": [
        {
          "internalType": "uint256",
          "name": "",
          "type": "uint256"
        }
      ],
      "payable": false,
      "stateMutability": "view",
      "type": "function"
    },
    {
      "constant": true,
      "inputs": [
        {
          "internalType": "uint256",
          "name": "val",
          "type": "uint256"
        },
        {
          "internalType": "uint256",
          "name": "p",
          "type": "uint256"
        }
      ],
      "name": "invMod",
      "outputs": [
        {
          "internalType": "uint256",
          "name": "",
          "type": "uint256"
        }
      ],
      "payable": false,
      "stateMutability": "pure",
      "type": "function"
    },
    {
      "constant": true,
      "inputs": [
        {
          "internalType": "uint256",
          "name": "val",
          "type": "uint256"
        },
        {
          "internalType": "uint256",
          "name": "e",
          "type": "uint256"
        },
        {
          "internalType": "uint256",
          "name": "p",
          "type": "uint256"
        }
      ],
      "name": "expMod",
      "outputs": [
        {
          "internalType": "uint256",
          "name": "",
          "type": "uint256"
        }
      ],
      "payable": false,
      "stateMutability": "pure",
      "type": "function"
    },
    {
      "constant": true,
      "inputs": [
        {
          "internalType": "uint8",
          "name": "prefix",
          "type": "uint8"
        },
        {
          "internalType": "uint256",
          "name": "x",
          "type": "uint256"
        }
      ],
      "name": "getY",
      "outputs": [
        {
          "internalType": "uint256",
          "name": "",
          "type": "uint256"
        }
      ],
      "payable": false,
      "stateMutability": "pure",
      "type": "function"
    },
    {
      "constant": true,
      "inputs": [
        {
          "internalType": "uint256",
          "name": "x",
          "type": "uint256"
        },
        {
          "internalType": "uint256",
          "name": "y",
          "type": "uint256"
        }
      ],
      "name": "onCurve",
      "outputs": [
        {
          "internalType": "bool",
          "name": "",
          "type": "bool"
        }
      ],
      "payable": false,
      "stateMutability": "pure",
      "type": "function"
    },
    {
      "constant": true,
      "inputs": [
        {
          "internalType": "uint256",
          "name": "x",
          "type": "uint256"
        },
        {
          "internalType": "uint256",
          "name": "y",
          "type": "uint256"
        }
      ],
      "name": "inverse",
      "outputs": [
        {
          "internalType": "uint256",
          "name": "",
          "type": "uint256"
        },
        {
          "internalType": "uint256",
          "name": "",
          "type": "uint256"
        }
      ],
      "payable": false,
      "stateMutability": "pure",
      "type": "function"
    },
    {
      "constant": true,
      "inputs": [
        {
          "internalType": "uint256",
          "name": "x1",
          "type": "uint256"
        },
        {
          "internalType": "uint256",
          "name": "y1",
          "type": "uint256"
        },
        {
          "internalType": "uint256",
          "name": "x2",
          "type": "uint256"
        },
        {
          "internalType": "uint256",
          "name": "y2",
          "type": "uint256"
        }
      ],
      "name": "subtract",
      "outputs": [
        {
          "internalType": "uint256",
          "name": "",
          "type": "uint256"
        },
        {
          "internalType": "uint256",
          "name": "",
          "type": "uint256"
        }
      ],
      "payable": false,
      "stateMutability": "pure",
      "type": "function"
    },
    {
      "constant": true,
      "inputs": [
        {
          "internalType": "uint256",
          "name": "x1",
          "type": "uint256"
        },
        {
          "internalType": "uint256",
          "name": "y1",
          "type": "uint256"
        },
        {
          "internalType": "uint256",
          "name": "x2",
          "type": "uint256"
        },
        {
          "internalType": "uint256",
          "name": "y2",
          "type": "uint256"
        }
      ],
      "name": "add",
      "outputs": [
        {
          "internalType": "uint256",
          "name": "",
          "type": "uint256"
        },
        {
          "internalType": "uint256",
          "name": "",
          "type": "uint256"
        }
      ],
      "payable": false,
      "stateMutability": "pure",
      "type": "function"
    },
    {
      "constant": true,
      "inputs": [
        {
          "internalType": "uint256",
          "name": "privKey",
          "type": "uint256"
        }
      ],
      "name": "derivePubKey",
      "outputs": [
        {
          "internalType": "uint256",
          "name": "",
          "type": "uint256"
        },
        {
          "internalType": "uint256",
          "name": "",
          "type": "uint256"
        }
      ],
      "payable": false,
      "stateMutability": "pure",
      "type": "function"
    }
  ],
  "bytecode": "0x608060405234801561001057600080fd5b506112a2806100206000396000f3fe608060405234801561001057600080fd5b50600436106100cf5760003560e01c80637a308a4c1161008c578063b0144e4911610066578063b0144e49146102e0578063bc9e2bcf14610347578063e022d77c14610390578063eeeac01e146103f7576100cf565b80637a308a4c1461024e578063997da8d41461026c578063ad69caa51461028a576100cf565b806303a507be146100d45780631b54f824146100f25780634c42c7621461013e5780635727dc5c146101915780636238e44a146101af578063669d9448146101fe575b600080fd5b6100dc610415565b6040518082815260200191505060405180910390f35b6101286004803603604081101561010857600080fd5b810190808035906020019092919080359060200190929190505050610439565b6040518082815260200191505060405180910390f35b6101746004803603604081101561015457600080fd5b81019080803590602001909291908035906020019092919050505061044d565b604051808381526020018281526020019250505060405180910390f35b610199610486565b6040518082815260200191505060405180910390f35b6101e8600480360360408110156101c557600080fd5b81019080803560ff1690602001909291908035906020019092919050505061048b565b6040518082815260200191505060405180910390f35b6102346004803603604081101561021457600080fd5b8101908080359060200190929190803590602001909291905050506104c4565b604051808215151515815260200191505060405180910390f35b6102566104fd565b6040518082815260200191505060405180910390f35b610274610521565b6040518082815260200191505060405180910390f35b6102ca600480360360608110156102a057600080fd5b81019080803590602001909291908035906020019092919080359060200190929190505050610526565b6040518082815260200191505060405180910390f35b61032a600480360360808110156102f657600080fd5b810190808035906020019092919080359060200190929190803590602001909291908035906020019092919050505061053c565b604051808381526020018281526020019250505060405180910390f35b6103736004803603602081101561035d57600080fd5b810190808035906020019092919050505061057b565b604051808381526020018281526020019250505060405180910390f35b6103da600480360360808110156103a657600080fd5b81019080803590602001909291908035906020019092919080359060200190929190803590602001909291905050506105f5565b604051808381526020018281526020019250505060405180910390f35b6103ff610634565b6040518082815260200191505060405180910390f35b7f79be667ef9dcbbac55a06295ce870b07029bfcdb2dce28d959f2815b16f8179881565b60006104458383610658565b905092915050565b60008061047b84847ffffffffffffffffffffffffffffffffffffffffffffffffffffffffefffffc2f610750565b915091509250929050565b600781565b60006104bc8383600060077ffffffffffffffffffffffffffffffffffffffffffffffffffffffffefffffc2f61076c565b905092915050565b60006104f58383600060077ffffffffffffffffffffffffffffffffffffffffffffffffffffffffefffffc2f61085b565b905092915050565b7f483ada7726a3c4655da4fbfc0e1108a8fd17b448a68554199c47d08ffb10d4b881565b600081565b60006105338484846108ff565b90509392505050565b60008061056e8686868660007ffffffffffffffffffffffffffffffffffffffffffffffffffffffffefffffc2f610a2d565b9150915094509492505050565b6000806105ec837f79be667ef9dcbbac55a06295ce870b07029bfcdb2dce28d959f2815b16f817987f483ada7726a3c4655da4fbfc0e1108a8fd17b448a68554199c47d08ffb10d4b860007ffffffffffffffffffffffffffffffffffffffffffffffffffffffffefffffc2f610a61565b91509150915091565b6000806106278686868660007ffffffffffffffffffffffffffffffffffffffffffffffffffffffffefffffc2f610a9b565b9150915094509492505050565b7ffffffffffffffffffffffffffffffffffffffffffffffffffffffffefffffc2f81565b600080831415801561066a5750818314155b8015610677575060008214155b6106e9576040517f08c379a000000000000000000000000000000000000000000000000000000000815260040180806020018281038252600e8152602001807f496e76616c6964206e756d62657200000000000000000000000000000000000081525060200191505060405180910390fd5b6000809050600060019050600084905060005b600087146107435786828161070d57fe5b04905082868061071957fe5b878061072157fe5b85840988038608809450819550505086878202830380985081935050506106fc565b8394505050505092915050565b60008084838585038161075f57fe5b0691509150935093915050565b600060028660ff161480610783575060038660ff16145b6107d8576040517f08c379a000000000000000000000000000000000000000000000000000000000815260040180806020018281038252602281526020018061124c6022913960400191505060405180910390fd5b600082806107e257fe5b83806107ea57fe5b8585806107f357fe5b888a090884806107ff57fe5b858061080757fe5b898a098909089050610827816004600186018161082057fe5b04856108ff565b905060008060028960ff1684018161083b57fe5b06146108495781840361084b565b815b9050809250505095945050505050565b6000856000148061086c5750818610155b806108775750846000145b806108825750818510155b1561089057600090506108f6565b6000828061089a57fe5b8687099050600083806108a957fe5b8885806108b257fe5b8a8b09099050600086146108d85783806108c857fe5b84806108d057fe5b878a09820890505b600085146108ee5783806108e857fe5b85820890505b808214925050505b95945050505050565b600080821415610977576040517f08c379a000000000000000000000000000000000000000000000000000000000815260040180806020018281038252600f8152602001807f4d6f64756c7573206973207a65726f000000000000000000000000000000000081525060200191505060405180910390fd5b60008414156109895760009050610a26565b600083141561099b5760019050610a26565b60006001905060007f800000000000000000000000000000000000000000000000000000000000000090505b6000811115610a2057838186161515870a85848509099150836002820486161515870a85848509099150836004820486161515870a85848509099150836008820486161515870a858485090991506010810490506109c7565b81925050505b9392505050565b600080600080610a3e888887610750565b91509150610a508a8a84848a8a610a9b565b935093505050965096945050505050565b6000806000806000610a788a8a8a60018b8b610b39565b925092509250610a8a83838389610bde565b945094505050509550959350505050565b600080600080905060008090506000809050888b1415610afc5760008680610abf57fe5b898c081415610add5760008081915080905094509450505050610b2e565b610aeb8b8b60018a8a610c39565b809350819450829550505050610b1a565b610b0d8b8b60018c8c60018c610d58565b8093508194508295505050505b610b2683838389610bde565b945094505050505b965096945050505050565b600080600080891415610b5457878787925092509250610bd2565b6000899050600080905060008090506000600190505b60008414610bc45760006001851614610b9957610b8c8383838f8f8f8e610d58565b8093508194508295505050505b60028481610ba357fe5b049350610bb38c8c8c8c8c610c39565b809c50819d50829e50505050610b6a565b828282965096509650505050505b96509650969350505050565b6000806000610bed8585610658565b905060008480610bf957fe5b828309905060008580610c0857fe5b828a09905060008680610c1757fe5b8780610c1f57fe5b8486098a0990508181955095505050505094509492505050565b600080600080861415610c5457878787925092509250610d4d565b60008480610c5e57fe5b898a09905060008580610c6d57fe5b898a09905060008680610c7c57fe5b898a09905060008780610c8b57fe5b8880610c9357fe5b848e09600409905060008880610ca557fe5b8980610cad57fe5b8a80610cb557fe5b8586098c098a80610cc257fe5b876003090890508880610cd157fe5b8980610cd957fe5b8384088a038a80610ce657fe5b8384090894508880610cf457fe5b8980610cfc57fe5b8a80610d0457fe5b8687096008098a038a80610d1457fe5b8b80610d1c57fe5b888d03860884090893508880610d2e57fe5b8980610d3657fe5b8c8e09600209925084848497509750975050505050505b955095509592505050565b6000806000808a148015610d6c5750600089145b15610d7f5786868692509250925061121c565b600087148015610d8f5750600086145b15610da25789898992509250925061121c565b610daa611229565b8480610db257fe5b898a0981600060048110610dc257fe5b6020020181815250508480610dd357fe5b81600060048110610de057fe5b60200201518a0981600160048110610df457fe5b6020020181815250508480610e0557fe5b86870981600260048110610e1557fe5b6020020181815250508480610e2657fe5b81600260048110610e3357fe5b6020020151870981600360048110610e4757fe5b60200201818152505060405180608001604052808680610e6357fe5b83600260048110610e7057fe5b60200201518e0981526020018680610e8457fe5b83600360048110610e9157fe5b60200201518d0981526020018680610ea557fe5b83600060048110610eb257fe5b60200201518b0981526020018680610ec657fe5b83600160048110610ed357fe5b60200201518a09815250905080600260048110610eec57fe5b602002015181600060048110610efe57fe5b6020020151141580610f32575080600360048110610f1857fe5b602002015181600160048110610f2a57fe5b602002015114155b610fa4576040517f08c379a000000000000000000000000000000000000000000000000000000000815260040180806020018281038252601e8152602001807f557365206a6163446f75626c652066756e6374696f6e20696e7374656164000081525060200191505060405180910390fd5b610fac611229565b8580610fb457fe5b82600060048110610fc157fe5b6020020151870383600260048110610fd557fe5b60200201510881600060048110610fe857fe5b6020020181815250508580610ff957fe5b8260016004811061100657fe5b602002015187038360036004811061101a57fe5b6020020151088160016004811061102d57fe5b602002018181525050858061103e57fe5b8160006004811061104b57fe5b60200201518260006004811061105d57fe5b6020020151098160026004811061107057fe5b602002018181525050858061108157fe5b8160006004811061108e57fe5b6020020151826002600481106110a057fe5b602002015109816003600481106110b357fe5b602002018181525050600086806110c657fe5b826003600481106110d357fe5b6020020151880388806110e257fe5b846001600481106110ef57fe5b60200201518560016004811061110157fe5b602002015109089050868061111257fe5b878061111a57fe5b888061112257fe5b8460026004811061112f57fe5b60200201518660006004811061114157fe5b6020020151096002098803820890506000878061115a57fe5b888061116257fe5b838a038a8061116d57fe5b8660026004811061117a57fe5b60200201518860006004811061118c57fe5b60200201510908846001600481106111a057fe5b602002015109905087806111b057fe5b88806111b857fe5b846003600481106111c557fe5b6020020151866001600481106111d757fe5b602002015109890382089050600088806111ed57fe5b89806111f557fe5b8b8f098560006004811061120557fe5b602002015109905082828297509750975050505050505b9750975097945050505050565b604051806080016040528060049060208202803883398082019150509050509056fe496e76616c696420636f6d7072657373656420454320706f696e7420707265666978a265627a7a723158205a443405e320a4a45bde22be4d1dc7178bda1d6f685e5d6d99355497ac89840264736f6c63430005100032",
  "source": "// SPDX-License-Identifier: MIT \r\npragma solidity >=0.5.16;\r\nimport \"./EllipticCurve.sol\";\r\n\r\ncontract Secp256k1 {\r\n\r\n  uint256 public constant GX = 0x79BE667EF9DCBBAC55A06295CE870B07029BFCDB2DCE28D959F2815B16F81798;\r\n  uint256 public constant GY = 0x483ADA7726A3C4655DA4FBFC0E1108A8FD17B448A68554199C47D08FFB10D4B8;\r\n  uint256 public constant AA = 0;\r\n  uint256 public constant BB = 7;\r\n  uint256 public constant PP = 0xFFFFFFFFFFFFFFFFFFFFFFFFFFFFFFFFFFFFFFFFFFFFFFFFFFFFFFFEFFFFFC2F;\r\n\r\n/**\r\nFunction: Inverse of a number (mod p)\r\n */\r\nfunction invMod(uint256 val, uint256 p) pure public returns (uint256)\r\n{\r\n    return EllipticCurve.invMod(val,p);\r\n}\r\n\r\n/**\r\nFunction: Modular exponentiation, b^e % _pp.\r\n */\r\nfunction expMod(uint256 val, uint256 e, uint256 p) pure public returns (uint256)\r\n{\r\n    return EllipticCurve.expMod(val,e,p);\r\n}\r\n\r\n/**\r\nFunction: Returns the Y-Coordinate of a point, given the x, and parameters of curve\r\n */\r\nfunction getY(uint8 prefix, uint256 x) pure public returns (uint256)\r\n{\r\n    return EllipticCurve.deriveY(prefix,x,AA,BB,PP);\r\n}\r\n\r\n/**\r\nFunction:; Determines whether a point (x, y) is on the elliptic curve\r\n */\r\nfunction onCurve(uint256 x, uint256 y) pure public returns (bool)\r\n{\r\n    return EllipticCurve.isOnCurve(x,y,AA,BB,PP);\r\n}\r\n\r\n\r\n/**\r\nFunction: An x-coordinate can have 2 valid y-coordinates which are inverses (-y) of each other. \r\n          This function returns teh inverse\r\n */\r\nfunction inverse(uint256 x, uint256 y) pure public returns (uint256, \r\nuint256) {\r\n    return EllipticCurve.ecInv(x,y,PP);\r\n  }\r\n\r\n\r\n/**\r\nFunction: Subtracting 2 points (x1, y1), (x2, y2) on the elliptic and returning a point on the graph.\r\n */\r\nfunction subtract(uint256 x1, uint256 y1,uint256 x2, uint256 y2 ) pure public returns (uint256, uint256) {\r\n    return EllipticCurve.ecSub(x1,y1,x2,y2,AA,PP);\r\n  }\r\n\r\n/**\r\nFunction: Adding 2 points (x1, y1), (x2, y2) on the elliptic and returning a point on the graph.\r\n */\r\n  function add(uint256 x1, uint256 y1,uint256 x2, uint256 y2 ) pure public returns (uint256, uint256) {\r\n    return EllipticCurve.ecAdd(x1,y1,x2,y2,AA,PP);\r\n  }\r\n\r\n/**\r\nFunction: Derives the public key give the private key and parameters of elliptic key.\r\n */\r\nfunction derivePubKey(uint256 privKey) pure public returns (uint256, uint256) {\r\n    return EllipticCurve.ecMul(privKey,GX,GY,AA,PP);\r\n  }\r\n}",
  "sourcePath": "C:\\Users\\Student\\Downloads\\crypto\\Code\\contracts\\Secp256k1.sol",
  "compiler": {
    "name": "solc",
    "version": "0.5.16+commit.9c3226ce.Emscripten.clang"
  },
  "schemaVersion": "3.4.16",
  "updatedAt": "2023-09-26T17:29:59.727Z",
  "networkType": "ethereum",
  "devdoc": {
    "methods": {}
  },
  "userdoc": {
    "methods": {
      "add(uint256,uint256,uint256,uint256)": {
        "notice": "Function: Adding 2 points (x1, y1), (x2, y2) on the elliptic and returning a point on the graph."
      },
      "derivePubKey(uint256)": {
        "notice": "Function: Derives the public key give the private key and parameters of elliptic key."
      },
      "expMod(uint256,uint256,uint256)": {
        "notice": "Function: Modular exponentiation, b^e % _pp."
      },
      "getY(uint8,uint256)": {
        "notice": "Function: Returns the Y-Coordinate of a point, given the x, and parameters of curve"
      },
      "invMod(uint256,uint256)": {
        "notice": "Function: Inverse of a number (mod p)"
      },
      "inverse(uint256,uint256)": {
        "notice": "Function: An x-coordinate can have 2 valid y-coordinates which are inverses (-y) of each other.  This function returns teh inverse"
      },
      "onCurve(uint256,uint256)": {
        "notice": "Function:; Determines whether a point (x, y) is on the elliptic curve"
      },
      "subtract(uint256,uint256,uint256,uint256)": {
        "notice": "Function: Subtracting 2 points (x1, y1), (x2, y2) on the elliptic and returning a point on the graph."
      }
    }
  }
}